{
	"smartContract_eliseu_v1.sol": {
		"SmartPayConstruction": {
			"abi": [
				{
					"anonymous": false,
					"inputs": [
						{
							"indexed": false,
							"internalType": "uint256",
							"name": "projectId",
							"type": "uint256"
						},
						{
							"indexed": false,
							"internalType": "uint256",
							"name": "stageId",
							"type": "uint256"
						},
						{
							"indexed": false,
							"internalType": "uint256",
							"name": "amount",
							"type": "uint256"
						}
					],
					"name": "PaymentProcessed",
					"type": "event"
				},
				{
					"anonymous": false,
					"inputs": [
						{
							"indexed": false,
							"internalType": "uint256",
							"name": "id",
							"type": "uint256"
						}
					],
					"name": "ProjectClosed",
					"type": "event"
				},
				{
					"anonymous": false,
					"inputs": [
						{
							"indexed": false,
							"internalType": "uint256",
							"name": "projectId",
							"type": "uint256"
						},
						{
							"indexed": false,
							"internalType": "uint256",
							"name": "stageId",
							"type": "uint256"
						},
						{
							"indexed": false,
							"internalType": "string",
							"name": "description",
							"type": "string"
						},
						{
							"indexed": false,
							"internalType": "uint256",
							"name": "value",
							"type": "uint256"
						}
					],
					"name": "StageAdded",
					"type": "event"
				},
				{
					"anonymous": false,
					"inputs": [
						{
							"indexed": false,
							"internalType": "uint256",
							"name": "projectId",
							"type": "uint256"
						},
						{
							"indexed": false,
							"internalType": "uint256",
							"name": "stageId",
							"type": "uint256"
						},
						{
							"indexed": false,
							"internalType": "string",
							"name": "validatorID",
							"type": "string"
						}
					],
					"name": "StageValidated",
					"type": "event"
				},
				{
					"inputs": [
						{
							"internalType": "uint256",
							"name": "projectId",
							"type": "uint256"
						},
						{
							"internalType": "string",
							"name": "_description",
							"type": "string"
						},
						{
							"internalType": "uint256",
							"name": "_value",
							"type": "uint256"
						},
						{
							"internalType": "string[]",
							"name": "_validators_ids",
							"type": "string[]"
						}
					],
					"name": "addStage",
					"outputs": [],
					"stateMutability": "nonpayable",
					"type": "function"
				},
				{
					"inputs": [],
					"name": "agencyId",
					"outputs": [
						{
							"internalType": "string",
							"name": "",
							"type": "string"
						}
					],
					"stateMutability": "view",
					"type": "function"
				},
				{
					"inputs": [
						{
							"internalType": "uint256",
							"name": "projectId",
							"type": "uint256"
						}
					],
					"name": "closeProject",
					"outputs": [],
					"stateMutability": "nonpayable",
					"type": "function"
				},
				{
					"inputs": [
						{
							"internalType": "string",
							"name": "_project_id",
							"type": "string"
						},
						{
							"internalType": "string",
							"name": "_name",
							"type": "string"
						},
						{
							"internalType": "string",
							"name": "_description",
							"type": "string"
						},
						{
							"internalType": "string",
							"name": "_client_id",
							"type": "string"
						},
						{
							"internalType": "string",
							"name": "_contractor",
							"type": "string"
						},
						{
							"internalType": "uint256",
							"name": "_startDate",
							"type": "uint256"
						},
						{
							"internalType": "uint256",
							"name": "_endDate",
							"type": "uint256"
						},
						{
							"components": [
								{
									"internalType": "string",
									"name": "project_id",
									"type": "string"
								},
								{
									"internalType": "string",
									"name": "title",
									"type": "string"
								},
								{
									"internalType": "string",
									"name": "description",
									"type": "string"
								},
								{
									"internalType": "string",
									"name": "validation_steps",
									"type": "string"
								},
								{
									"internalType": "uint256",
									"name": "value",
									"type": "uint256"
								},
								{
									"internalType": "string[]",
									"name": "validators_ids",
									"type": "string[]"
								},
								{
									"internalType": "string[]",
									"name": "validations",
									"type": "string[]"
								},
								{
									"internalType": "bool",
									"name": "completed",
									"type": "bool"
								}
							],
							"internalType": "struct SmartPayConstruction.Stage[]",
							"name": "_stages",
							"type": "tuple[]"
						}
					],
					"name": "createProject",
					"outputs": [],
					"stateMutability": "nonpayable",
					"type": "function"
				},
				{
					"inputs": [],
					"name": "getAllProjectIds",
					"outputs": [
						{
							"internalType": "string[]",
							"name": "",
							"type": "string[]"
						}
					],
					"stateMutability": "view",
					"type": "function"
				},
				{
					"inputs": [
						{
							"internalType": "uint256",
							"name": "projectId",
							"type": "uint256"
						}
					],
					"name": "getProjectDetails",
					"outputs": [
						{
							"internalType": "string",
							"name": "",
							"type": "string"
						},
						{
							"internalType": "string",
							"name": "",
							"type": "string"
						},
						{
							"internalType": "string",
							"name": "",
							"type": "string"
						},
						{
							"internalType": "string",
							"name": "",
							"type": "string"
						},
						{
							"internalType": "uint256",
							"name": "",
							"type": "uint256"
						},
						{
							"internalType": "uint256",
							"name": "",
							"type": "uint256"
						},
						{
							"internalType": "uint256",
							"name": "",
							"type": "uint256"
						},
						{
							"internalType": "bool",
							"name": "",
							"type": "bool"
						}
					],
					"stateMutability": "view",
					"type": "function"
				},
				{
					"inputs": [
						{
							"internalType": "uint256",
							"name": "projectId",
							"type": "uint256"
						}
					],
					"name": "getProjectWithStages",
					"outputs": [
						{
							"internalType": "string",
							"name": "",
							"type": "string"
						},
						{
							"internalType": "string",
							"name": "",
							"type": "string"
						},
						{
							"internalType": "string",
							"name": "",
							"type": "string"
						},
						{
							"internalType": "string",
							"name": "",
							"type": "string"
						},
						{
							"internalType": "uint256",
							"name": "",
							"type": "uint256"
						},
						{
							"internalType": "uint256",
							"name": "",
							"type": "uint256"
						},
						{
							"internalType": "uint256",
							"name": "",
							"type": "uint256"
						},
						{
							"internalType": "bool",
							"name": "",
							"type": "bool"
						},
						{
							"internalType": "uint256[]",
							"name": "",
							"type": "uint256[]"
						},
						{
							"internalType": "string[]",
							"name": "",
							"type": "string[]"
						}
					],
					"stateMutability": "view",
					"type": "function"
				},
				{
					"inputs": [],
					"name": "getProjectsCount",
					"outputs": [
						{
							"internalType": "uint256",
							"name": "",
							"type": "uint256"
						}
					],
					"stateMutability": "view",
					"type": "function"
				},
				{
					"inputs": [
						{
							"internalType": "string",
							"name": "projectId",
							"type": "string"
						},
						{
							"internalType": "string",
							"name": "stageId",
							"type": "string"
						}
					],
					"name": "getStageById",
					"outputs": [
						{
							"components": [
								{
									"internalType": "string",
									"name": "project_id",
									"type": "string"
								},
								{
									"internalType": "string",
									"name": "title",
									"type": "string"
								},
								{
									"internalType": "string",
									"name": "description",
									"type": "string"
								},
								{
									"internalType": "string",
									"name": "validation_steps",
									"type": "string"
								},
								{
									"internalType": "uint256",
									"name": "value",
									"type": "uint256"
								},
								{
									"internalType": "string[]",
									"name": "validators_ids",
									"type": "string[]"
								},
								{
									"internalType": "string[]",
									"name": "validations",
									"type": "string[]"
								},
								{
									"internalType": "bool",
									"name": "completed",
									"type": "bool"
								}
							],
							"internalType": "struct SmartPayConstruction.Stage",
							"name": "s",
							"type": "tuple"
						}
					],
					"stateMutability": "view",
					"type": "function"
				},
				{
					"inputs": [
						{
							"internalType": "uint256",
							"name": "projectId",
							"type": "uint256"
						},
						{
							"internalType": "uint256",
							"name": "stageId",
							"type": "uint256"
						}
					],
					"name": "processPendingPayments",
					"outputs": [],
					"stateMutability": "nonpayable",
					"type": "function"
				},
				{
					"inputs": [
						{
							"internalType": "uint256",
							"name": "",
							"type": "uint256"
						}
					],
					"name": "projectIds",
					"outputs": [
						{
							"internalType": "string",
							"name": "",
							"type": "string"
						}
					],
					"stateMutability": "view",
					"type": "function"
				},
				{
					"inputs": [
						{
							"internalType": "string",
							"name": "",
							"type": "string"
						}
					],
					"name": "projects",
					"outputs": [
						{
							"internalType": "string",
							"name": "project_id",
							"type": "string"
						},
						{
							"internalType": "string",
							"name": "name",
							"type": "string"
						},
						{
							"internalType": "string",
							"name": "description",
							"type": "string"
						},
						{
							"internalType": "string",
							"name": "client_id",
							"type": "string"
						},
						{
							"internalType": "string",
							"name": "contractor",
							"type": "string"
						},
						{
							"internalType": "uint256",
							"name": "creationDate",
							"type": "uint256"
						},
						{
							"internalType": "uint256",
							"name": "startDate",
							"type": "uint256"
						},
						{
							"internalType": "uint256",
							"name": "endDate",
							"type": "uint256"
						},
						{
							"internalType": "uint256",
							"name": "actualCompletionDate",
							"type": "uint256"
						},
						{
							"internalType": "bool",
							"name": "closed",
							"type": "bool"
						}
					],
					"stateMutability": "view",
					"type": "function"
				},
				{
					"inputs": [
						{
							"internalType": "uint256",
							"name": "projectId",
							"type": "uint256"
						},
						{
							"internalType": "uint256",
							"name": "stageId",
							"type": "uint256"
						},
						{
							"internalType": "string",
							"name": "validatorID",
							"type": "string"
						}
					],
					"name": "validateStage",
					"outputs": [],
					"stateMutability": "nonpayable",
					"type": "function"
				}
			],
			"devdoc": {
				"kind": "dev",
				"methods": {},
				"version": 1
			},
			"evm": {
				"assembly": "    /* \"smartContract_eliseu_v1.sol\":58:4015  contract SmartPayConstruction {... */\n  mstore(0x40, 0x80)\n    /* \"smartContract_eliseu_v1.sol\":94:127  string public agencyId = \"agency\" */\n  mload(0x40)\n  dup1\n  0x40\n  add\n  0x40\n  mstore\n  dup1\n  0x06\n  dup2\n  mstore\n  0x20\n  add\n  0x6167656e63790000000000000000000000000000000000000000000000000000\n  dup2\n  mstore\n  pop\n  0x00\n  swap1\n  dup2\n  tag_1\n  swap2\n  swap1\n  tag_2\n  jump\t// in\ntag_1:\n  pop\n    /* \"smartContract_eliseu_v1.sol\":58:4015  contract SmartPayConstruction {... */\n  callvalue\n  dup1\n  iszero\n  tag_3\n  jumpi\n  0x00\n  dup1\n  revert\ntag_3:\n  pop\n  jump(tag_4)\n    /* \"#utility.yul\":7:106   */\ntag_5:\n    /* \"#utility.yul\":59:65   */\n  0x00\n    /* \"#utility.yul\":93:98   */\n  dup2\n    /* \"#utility.yul\":87:99   */\n  mload\n    /* \"#utility.yul\":77:99   */\n  swap1\n  pop\n    /* \"#utility.yul\":7:106   */\n  swap2\n  swap1\n  pop\n  jump\t// out\n    /* \"#utility.yul\":112:292   */\ntag_6:\n    /* \"#utility.yul\":160:237   */\n  0x4e487b7100000000000000000000000000000000000000000000000000000000\n    /* \"#utility.yul\":157:158   */\n  0x00\n    /* \"#utility.yul\":150:238   */\n  mstore\n    /* \"#utility.yul\":257:261   */\n  0x41\n    /* \"#utility.yul\":254:255   */\n  0x04\n    /* \"#utility.yul\":247:262   */\n  mstore\n    /* \"#utility.yul\":281:285   */\n  0x24\n    /* \"#utility.yul\":278:279   */\n  0x00\n    /* \"#utility.yul\":271:286   */\n  revert\n    /* \"#utility.yul\":298:478   */\ntag_7:\n    /* \"#utility.yul\":346:423   */\n  0x4e487b7100000000000000000000000000000000000000000000000000000000\n    /* \"#utility.yul\":343:344   */\n  0x00\n    /* \"#utility.yul\":336:424   */\n  mstore\n    /* \"#utility.yul\":443:447   */\n  0x22\n    /* \"#utility.yul\":440:441   */\n  0x04\n    /* \"#utility.yul\":433:448   */\n  mstore\n    /* \"#utility.yul\":467:471   */\n  0x24\n    /* \"#utility.yul\":464:465   */\n  0x00\n    /* \"#utility.yul\":457:472   */\n  revert\n    /* \"#utility.yul\":484:804   */\ntag_8:\n    /* \"#utility.yul\":528:534   */\n  0x00\n    /* \"#utility.yul\":565:566   */\n  0x02\n    /* \"#utility.yul\":559:563   */\n  dup3\n    /* \"#utility.yul\":555:567   */\n  div\n    /* \"#utility.yul\":545:567   */\n  swap1\n  pop\n    /* \"#utility.yul\":612:613   */\n  0x01\n    /* \"#utility.yul\":606:610   */\n  dup3\n    /* \"#utility.yul\":602:614   */\n  and\n    /* \"#utility.yul\":633:651   */\n  dup1\n    /* \"#utility.yul\":623:704   */\n  tag_30\n  jumpi\n    /* \"#utility.yul\":689:693   */\n  0x7f\n    /* \"#utility.yul\":681:687   */\n  dup3\n    /* \"#utility.yul\":677:694   */\n  and\n    /* \"#utility.yul\":667:694   */\n  swap2\n  pop\n    /* \"#utility.yul\":623:704   */\ntag_30:\n    /* \"#utility.yul\":751:753   */\n  0x20\n    /* \"#utility.yul\":743:749   */\n  dup3\n    /* \"#utility.yul\":740:754   */\n  lt\n    /* \"#utility.yul\":720:738   */\n  dup2\n    /* \"#utility.yul\":717:755   */\n  sub\n    /* \"#utility.yul\":714:798   */\n  tag_31\n  jumpi\n    /* \"#utility.yul\":770:788   */\n  tag_32\n  tag_7\n  jump\t// in\ntag_32:\n    /* \"#utility.yul\":714:798   */\ntag_31:\n    /* \"#utility.yul\":535:804   */\n  pop\n    /* \"#utility.yul\":484:804   */\n  swap2\n  swap1\n  pop\n  jump\t// out\n    /* \"#utility.yul\":810:951   */\ntag_9:\n    /* \"#utility.yul\":859:863   */\n  0x00\n    /* \"#utility.yul\":882:885   */\n  dup2\n    /* \"#utility.yul\":874:885   */\n  swap1\n  pop\n    /* \"#utility.yul\":905:908   */\n  dup2\n    /* \"#utility.yul\":902:903   */\n  0x00\n    /* \"#utility.yul\":895:909   */\n  mstore\n    /* \"#utility.yul\":939:943   */\n  0x20\n    /* \"#utility.yul\":936:937   */\n  0x00\n    /* \"#utility.yul\":926:944   */\n  keccak256\n    /* \"#utility.yul\":918:944   */\n  swap1\n  pop\n    /* \"#utility.yul\":810:951   */\n  swap2\n  swap1\n  pop\n  jump\t// out\n    /* \"#utility.yul\":957:1050   */\ntag_10:\n    /* \"#utility.yul\":994:1000   */\n  0x00\n    /* \"#utility.yul\":1041:1043   */\n  0x20\n    /* \"#utility.yul\":1036:1038   */\n  0x1f\n    /* \"#utility.yul\":1029:1034   */\n  dup4\n    /* \"#utility.yul\":1025:1039   */\n  add\n    /* \"#utility.yul\":1021:1044   */\n  div\n    /* \"#utility.yul\":1011:1044   */\n  swap1\n  pop\n    /* \"#utility.yul\":957:1050   */\n  swap2\n  swap1\n  pop\n  jump\t// out\n    /* \"#utility.yul\":1056:1163   */\ntag_11:\n    /* \"#utility.yul\":1100:1108   */\n  0x00\n    /* \"#utility.yul\":1150:1155   */\n  dup3\n    /* \"#utility.yul\":1144:1148   */\n  dup3\n    /* \"#utility.yul\":1140:1156   */\n  shl\n    /* \"#utility.yul\":1119:1156   */\n  swap1\n  pop\n    /* \"#utility.yul\":1056:1163   */\n  swap3\n  swap2\n  pop\n  pop\n  jump\t// out\n    /* \"#utility.yul\":1169:1562   */\ntag_12:\n    /* \"#utility.yul\":1238:1244   */\n  0x00\n    /* \"#utility.yul\":1288:1289   */\n  0x08\n    /* \"#utility.yul\":1276:1286   */\n  dup4\n    /* \"#utility.yul\":1272:1290   */\n  mul\n    /* \"#utility.yul\":1311:1408   */\n  tag_37\n    /* \"#utility.yul\":1341:1407   */\n  0xffffffffffffffffffffffffffffffffffffffffffffffffffffffffffffffff\n    /* \"#utility.yul\":1330:1339   */\n  dup3\n    /* \"#utility.yul\":1311:1408   */\n  tag_11\n  jump\t// in\ntag_37:\n    /* \"#utility.yul\":1429:1468   */\n  tag_38\n    /* \"#utility.yul\":1459:1467   */\n  dup7\n    /* \"#utility.yul\":1448:1457   */\n  dup4\n    /* \"#utility.yul\":1429:1468   */\n  tag_11\n  jump\t// in\ntag_38:\n    /* \"#utility.yul\":1417:1468   */\n  swap6\n  pop\n    /* \"#utility.yul\":1501:1505   */\n  dup1\n    /* \"#utility.yul\":1497:1506   */\n  not\n    /* \"#utility.yul\":1490:1495   */\n  dup5\n    /* \"#utility.yul\":1486:1507   */\n  and\n    /* \"#utility.yul\":1477:1507   */\n  swap4\n  pop\n    /* \"#utility.yul\":1550:1554   */\n  dup1\n    /* \"#utility.yul\":1540:1548   */\n  dup7\n    /* \"#utility.yul\":1536:1555   */\n  and\n    /* \"#utility.yul\":1529:1534   */\n  dup5\n    /* \"#utility.yul\":1526:1556   */\n  or\n    /* \"#utility.yul\":1516:1556   */\n  swap3\n  pop\n    /* \"#utility.yul\":1245:1562   */\n  pop\n  pop\n    /* \"#utility.yul\":1169:1562   */\n  swap4\n  swap3\n  pop\n  pop\n  pop\n  jump\t// out\n    /* \"#utility.yul\":1568:1645   */\ntag_13:\n    /* \"#utility.yul\":1605:1612   */\n  0x00\n    /* \"#utility.yul\":1634:1639   */\n  dup2\n    /* \"#utility.yul\":1623:1639   */\n  swap1\n  pop\n    /* \"#utility.yul\":1568:1645   */\n  swap2\n  swap1\n  pop\n  jump\t// out\n    /* \"#utility.yul\":1651:1711   */\ntag_14:\n    /* \"#utility.yul\":1679:1682   */\n  0x00\n    /* \"#utility.yul\":1700:1705   */\n  dup2\n    /* \"#utility.yul\":1693:1705   */\n  swap1\n  pop\n    /* \"#utility.yul\":1651:1711   */\n  swap2\n  swap1\n  pop\n  jump\t// out\n    /* \"#utility.yul\":1717:1859   */\ntag_15:\n    /* \"#utility.yul\":1767:1776   */\n  0x00\n    /* \"#utility.yul\":1800:1853   */\n  tag_42\n    /* \"#utility.yul\":1818:1852   */\n  tag_43\n    /* \"#utility.yul\":1827:1851   */\n  tag_44\n    /* \"#utility.yul\":1845:1850   */\n  dup5\n    /* \"#utility.yul\":1827:1851   */\n  tag_13\n  jump\t// in\ntag_44:\n    /* \"#utility.yul\":1818:1852   */\n  tag_14\n  jump\t// in\ntag_43:\n    /* \"#utility.yul\":1800:1853   */\n  tag_13\n  jump\t// in\ntag_42:\n    /* \"#utility.yul\":1787:1853   */\n  swap1\n  pop\n    /* \"#utility.yul\":1717:1859   */\n  swap2\n  swap1\n  pop\n  jump\t// out\n    /* \"#utility.yul\":1865:1940   */\ntag_16:\n    /* \"#utility.yul\":1908:1911   */\n  0x00\n    /* \"#utility.yul\":1929:1934   */\n  dup2\n    /* \"#utility.yul\":1922:1934   */\n  swap1\n  pop\n    /* \"#utility.yul\":1865:1940   */\n  swap2\n  swap1\n  pop\n  jump\t// out\n    /* \"#utility.yul\":1946:2215   */\ntag_17:\n    /* \"#utility.yul\":2056:2095   */\n  tag_47\n    /* \"#utility.yul\":2087:2094   */\n  dup4\n    /* \"#utility.yul\":2056:2095   */\n  tag_15\n  jump\t// in\ntag_47:\n    /* \"#utility.yul\":2117:2208   */\n  tag_48\n    /* \"#utility.yul\":2166:2207   */\n  tag_49\n    /* \"#utility.yul\":2190:2206   */\n  dup3\n    /* \"#utility.yul\":2166:2207   */\n  tag_16\n  jump\t// in\ntag_49:\n    /* \"#utility.yul\":2158:2164   */\n  dup5\n    /* \"#utility.yul\":2151:2155   */\n  dup5\n    /* \"#utility.yul\":2145:2156   */\n  sload\n    /* \"#utility.yul\":2117:2208   */\n  tag_12\n  jump\t// in\ntag_48:\n    /* \"#utility.yul\":2111:2115   */\n  dup3\n    /* \"#utility.yul\":2104:2209   */\n  sstore\n    /* \"#utility.yul\":2022:2215   */\n  pop\n    /* \"#utility.yul\":1946:2215   */\n  pop\n  pop\n  pop\n  jump\t// out\n    /* \"#utility.yul\":2221:2294   */\ntag_18:\n    /* \"#utility.yul\":2266:2269   */\n  0x00\n    /* \"#utility.yul\":2221:2294   */\n  swap1\n  jump\t// out\n    /* \"#utility.yul\":2300:2489   */\ntag_19:\n    /* \"#utility.yul\":2377:2409   */\n  tag_52\n  tag_18\n  jump\t// in\ntag_52:\n    /* \"#utility.yul\":2418:2483   */\n  tag_53\n    /* \"#utility.yul\":2476:2482   */\n  dup2\n    /* \"#utility.yul\":2468:2474   */\n  dup5\n    /* \"#utility.yul\":2462:2466   */\n  dup5\n    /* \"#utility.yul\":2418:2483   */\n  tag_17\n  jump\t// in\ntag_53:\n    /* \"#utility.yul\":2353:2489   */\n  pop\n    /* \"#utility.yul\":2300:2489   */\n  pop\n  pop\n  jump\t// out\n    /* \"#utility.yul\":2495:2681   */\ntag_20:\n    /* \"#utility.yul\":2555:2675   */\ntag_55:\n    /* \"#utility.yul\":2572:2575   */\n  dup2\n    /* \"#utility.yul\":2565:2570   */\n  dup2\n    /* \"#utility.yul\":2562:2576   */\n  lt\n    /* \"#utility.yul\":2555:2675   */\n  iszero\n  tag_57\n  jumpi\n    /* \"#utility.yul\":2626:2665   */\n  tag_58\n    /* \"#utility.yul\":2663:2664   */\n  0x00\n    /* \"#utility.yul\":2656:2661   */\n  dup3\n    /* \"#utility.yul\":2626:2665   */\n  tag_19\n  jump\t// in\ntag_58:\n    /* \"#utility.yul\":2599:2600   */\n  0x01\n    /* \"#utility.yul\":2592:2597   */\n  dup2\n    /* \"#utility.yul\":2588:2601   */\n  add\n    /* \"#utility.yul\":2579:2601   */\n  swap1\n  pop\n    /* \"#utility.yul\":2555:2675   */\n  jump(tag_55)\ntag_57:\n    /* \"#utility.yul\":2495:2681   */\n  pop\n  pop\n  jump\t// out\n    /* \"#utility.yul\":2687:3230   */\ntag_21:\n    /* \"#utility.yul\":2788:2790   */\n  0x1f\n    /* \"#utility.yul\":2783:2786   */\n  dup3\n    /* \"#utility.yul\":2780:2791   */\n  gt\n    /* \"#utility.yul\":2777:3223   */\n  iszero\n  tag_60\n  jumpi\n    /* \"#utility.yul\":2822:2860   */\n  tag_61\n    /* \"#utility.yul\":2854:2859   */\n  dup2\n    /* \"#utility.yul\":2822:2860   */\n  tag_9\n  jump\t// in\ntag_61:\n    /* \"#utility.yul\":2906:2935   */\n  tag_62\n    /* \"#utility.yul\":2924:2934   */\n  dup5\n    /* \"#utility.yul\":2906:2935   */\n  tag_10\n  jump\t// in\ntag_62:\n    /* \"#utility.yul\":2896:2904   */\n  dup2\n    /* \"#utility.yul\":2892:2936   */\n  add\n    /* \"#utility.yul\":3089:3091   */\n  0x20\n    /* \"#utility.yul\":3077:3087   */\n  dup6\n    /* \"#utility.yul\":3074:3092   */\n  lt\n    /* \"#utility.yul\":3071:3120   */\n  iszero\n  tag_63\n  jumpi\n    /* \"#utility.yul\":3110:3118   */\n  dup2\n    /* \"#utility.yul\":3095:3118   */\n  swap1\n  pop\n    /* \"#utility.yul\":3071:3120   */\ntag_63:\n    /* \"#utility.yul\":3133:3213   */\n  tag_64\n    /* \"#utility.yul\":3189:3211   */\n  tag_65\n    /* \"#utility.yul\":3207:3210   */\n  dup6\n    /* \"#utility.yul\":3189:3211   */\n  tag_10\n  jump\t// in\ntag_65:\n    /* \"#utility.yul\":3179:3187   */\n  dup4\n    /* \"#utility.yul\":3175:3212   */\n  add\n    /* \"#utility.yul\":3162:3173   */\n  dup3\n    /* \"#utility.yul\":3133:3213   */\n  tag_20\n  jump\t// in\ntag_64:\n    /* \"#utility.yul\":2792:3223   */\n  pop\n  pop\n    /* \"#utility.yul\":2777:3223   */\ntag_60:\n    /* \"#utility.yul\":2687:3230   */\n  pop\n  pop\n  pop\n  jump\t// out\n    /* \"#utility.yul\":3236:3353   */\ntag_22:\n    /* \"#utility.yul\":3290:3298   */\n  0x00\n    /* \"#utility.yul\":3340:3345   */\n  dup3\n    /* \"#utility.yul\":3334:3338   */\n  dup3\n    /* \"#utility.yul\":3330:3346   */\n  shr\n    /* \"#utility.yul\":3309:3346   */\n  swap1\n  pop\n    /* \"#utility.yul\":3236:3353   */\n  swap3\n  swap2\n  pop\n  pop\n  jump\t// out\n    /* \"#utility.yul\":3359:3528   */\ntag_23:\n    /* \"#utility.yul\":3403:3409   */\n  0x00\n    /* \"#utility.yul\":3436:3487   */\n  tag_68\n    /* \"#utility.yul\":3484:3485   */\n  0x00\n    /* \"#utility.yul\":3480:3486   */\n  not\n    /* \"#utility.yul\":3472:3477   */\n  dup5\n    /* \"#utility.yul\":3469:3470   */\n  0x08\n    /* \"#utility.yul\":3465:3478   */\n  mul\n    /* \"#utility.yul\":3436:3487   */\n  tag_22\n  jump\t// in\ntag_68:\n    /* \"#utility.yul\":3432:3488   */\n  not\n    /* \"#utility.yul\":3517:3521   */\n  dup1\n    /* \"#utility.yul\":3511:3515   */\n  dup4\n    /* \"#utility.yul\":3507:3522   */\n  and\n    /* \"#utility.yul\":3497:3522   */\n  swap2\n  pop\n    /* \"#utility.yul\":3410:3528   */\n  pop\n    /* \"#utility.yul\":3359:3528   */\n  swap3\n  swap2\n  pop\n  pop\n  jump\t// out\n    /* \"#utility.yul\":3533:3828   */\ntag_24:\n    /* \"#utility.yul\":3609:3613   */\n  0x00\n    /* \"#utility.yul\":3755:3784   */\n  tag_70\n    /* \"#utility.yul\":3780:3783   */\n  dup4\n    /* \"#utility.yul\":3774:3778   */\n  dup4\n    /* \"#utility.yul\":3755:3784   */\n  tag_23\n  jump\t// in\ntag_70:\n    /* \"#utility.yul\":3747:3784   */\n  swap2\n  pop\n    /* \"#utility.yul\":3817:3820   */\n  dup3\n    /* \"#utility.yul\":3814:3815   */\n  0x02\n    /* \"#utility.yul\":3810:3821   */\n  mul\n    /* \"#utility.yul\":3804:3808   */\n  dup3\n    /* \"#utility.yul\":3801:3822   */\n  or\n    /* \"#utility.yul\":3793:3822   */\n  swap1\n  pop\n    /* \"#utility.yul\":3533:3828   */\n  swap3\n  swap2\n  pop\n  pop\n  jump\t// out\n    /* \"#utility.yul\":3833:5228   */\ntag_2:\n    /* \"#utility.yul\":3950:3987   */\n  tag_72\n    /* \"#utility.yul\":3983:3986   */\n  dup3\n    /* \"#utility.yul\":3950:3987   */\n  tag_5\n  jump\t// in\ntag_72:\n    /* \"#utility.yul\":4052:4070   */\n  0xffffffffffffffff\n    /* \"#utility.yul\":4044:4050   */\n  dup2\n    /* \"#utility.yul\":4041:4071   */\n  gt\n    /* \"#utility.yul\":4038:4094   */\n  iszero\n  tag_73\n  jumpi\n    /* \"#utility.yul\":4074:4092   */\n  tag_74\n  tag_6\n  jump\t// in\ntag_74:\n    /* \"#utility.yul\":4038:4094   */\ntag_73:\n    /* \"#utility.yul\":4118:4156   */\n  tag_75\n    /* \"#utility.yul\":4150:4154   */\n  dup3\n    /* \"#utility.yul\":4144:4155   */\n  sload\n    /* \"#utility.yul\":4118:4156   */\n  tag_8\n  jump\t// in\ntag_75:\n    /* \"#utility.yul\":4203:4270   */\n  tag_76\n    /* \"#utility.yul\":4263:4269   */\n  dup3\n    /* \"#utility.yul\":4255:4261   */\n  dup3\n    /* \"#utility.yul\":4249:4253   */\n  dup6\n    /* \"#utility.yul\":4203:4270   */\n  tag_21\n  jump\t// in\ntag_76:\n    /* \"#utility.yul\":4297:4298   */\n  0x00\n    /* \"#utility.yul\":4321:4325   */\n  0x20\n    /* \"#utility.yul\":4308:4325   */\n  swap1\n  pop\n    /* \"#utility.yul\":4353:4355   */\n  0x1f\n    /* \"#utility.yul\":4345:4351   */\n  dup4\n    /* \"#utility.yul\":4342:4356   */\n  gt\n    /* \"#utility.yul\":4370:4371   */\n  0x01\n    /* \"#utility.yul\":4365:4983   */\n  dup2\n  eq\n  tag_78\n  jumpi\n    /* \"#utility.yul\":5027:5028   */\n  0x00\n    /* \"#utility.yul\":5044:5050   */\n  dup5\n    /* \"#utility.yul\":5041:5118   */\n  iszero\n  tag_79\n  jumpi\n    /* \"#utility.yul\":5093:5102   */\n  dup3\n    /* \"#utility.yul\":5088:5091   */\n  dup8\n    /* \"#utility.yul\":5084:5103   */\n  add\n    /* \"#utility.yul\":5078:5104   */\n  mload\n    /* \"#utility.yul\":5069:5104   */\n  swap1\n  pop\n    /* \"#utility.yul\":5041:5118   */\ntag_79:\n    /* \"#utility.yul\":5144:5211   */\n  tag_80\n    /* \"#utility.yul\":5204:5210   */\n  dup6\n    /* \"#utility.yul\":5197:5202   */\n  dup3\n    /* \"#utility.yul\":5144:5211   */\n  tag_24\n  jump\t// in\ntag_80:\n    /* \"#utility.yul\":5138:5142   */\n  dup7\n    /* \"#utility.yul\":5131:5212   */\n  sstore\n    /* \"#utility.yul\":5000:5222   */\n  pop\n    /* \"#utility.yul\":4335:5222   */\n  jump(tag_77)\n    /* \"#utility.yul\":4365:4983   */\ntag_78:\n    /* \"#utility.yul\":4417:4421   */\n  0x1f\n    /* \"#utility.yul\":4413:4422   */\n  not\n    /* \"#utility.yul\":4405:4411   */\n  dup5\n    /* \"#utility.yul\":4401:4423   */\n  and\n    /* \"#utility.yul\":4451:4488   */\n  tag_81\n    /* \"#utility.yul\":4483:4487   */\n  dup7\n    /* \"#utility.yul\":4451:4488   */\n  tag_9\n  jump\t// in\ntag_81:\n    /* \"#utility.yul\":4510:4511   */\n  0x00\n    /* \"#utility.yul\":4524:4732   */\ntag_82:\n    /* \"#utility.yul\":4538:4545   */\n  dup3\n    /* \"#utility.yul\":4535:4536   */\n  dup2\n    /* \"#utility.yul\":4532:4546   */\n  lt\n    /* \"#utility.yul\":4524:4732   */\n  iszero\n  tag_84\n  jumpi\n    /* \"#utility.yul\":4617:4626   */\n  dup5\n    /* \"#utility.yul\":4612:4615   */\n  dup10\n    /* \"#utility.yul\":4608:4627   */\n  add\n    /* \"#utility.yul\":4602:4628   */\n  mload\n    /* \"#utility.yul\":4594:4600   */\n  dup3\n    /* \"#utility.yul\":4587:4629   */\n  sstore\n    /* \"#utility.yul\":4668:4669   */\n  0x01\n    /* \"#utility.yul\":4660:4666   */\n  dup3\n    /* \"#utility.yul\":4656:4670   */\n  add\n    /* \"#utility.yul\":4646:4670   */\n  swap2\n  pop\n    /* \"#utility.yul\":4715:4717   */\n  0x20\n    /* \"#utility.yul\":4704:4713   */\n  dup6\n    /* \"#utility.yul\":4700:4718   */\n  add\n    /* \"#utility.yul\":4687:4718   */\n  swap5\n  pop\n    /* \"#utility.yul\":4561:4565   */\n  0x20\n    /* \"#utility.yul\":4558:4559   */\n  dup2\n    /* \"#utility.yul\":4554:4566   */\n  add\n    /* \"#utility.yul\":4549:4566   */\n  swap1\n  pop\n    /* \"#utility.yul\":4524:4732   */\n  jump(tag_82)\ntag_84:\n    /* \"#utility.yul\":4760:4766   */\n  dup7\n    /* \"#utility.yul\":4751:4758   */\n  dup4\n    /* \"#utility.yul\":4748:4767   */\n  lt\n    /* \"#utility.yul\":4745:4924   */\n  iszero\n  tag_85\n  jumpi\n    /* \"#utility.yul\":4818:4827   */\n  dup5\n    /* \"#utility.yul\":4813:4816   */\n  dup10\n    /* \"#utility.yul\":4809:4828   */\n  add\n    /* \"#utility.yul\":4803:4829   */\n  mload\n    /* \"#utility.yul\":4861:4909   */\n  tag_86\n    /* \"#utility.yul\":4903:4907   */\n  0x1f\n    /* \"#utility.yul\":4895:4901   */\n  dup10\n    /* \"#utility.yul\":4891:4908   */\n  and\n    /* \"#utility.yul\":4880:4889   */\n  dup3\n    /* \"#utility.yul\":4861:4909   */\n  tag_23\n  jump\t// in\ntag_86:\n    /* \"#utility.yul\":4853:4859   */\n  dup4\n    /* \"#utility.yul\":4846:4910   */\n  sstore\n    /* \"#utility.yul\":4768:4924   */\n  pop\n    /* \"#utility.yul\":4745:4924   */\ntag_85:\n    /* \"#utility.yul\":4970:4971   */\n  0x01\n    /* \"#utility.yul\":4966:4967   */\n  0x02\n    /* \"#utility.yul\":4958:4964   */\n  dup9\n    /* \"#utility.yul\":4954:4968   */\n  mul\n    /* \"#utility.yul\":4950:4972   */\n  add\n    /* \"#utility.yul\":4944:4948   */\n  dup9\n    /* \"#utility.yul\":4937:4973   */\n  sstore\n    /* \"#utility.yul\":4372:4983   */\n  pop\n  pop\n  pop\n    /* \"#utility.yul\":4335:5222   */\ntag_77:\n  pop\n    /* \"#utility.yul\":3925:5228   */\n  pop\n  pop\n  pop\n    /* \"#utility.yul\":3833:5228   */\n  pop\n  pop\n  jump\t// out\n    /* \"smartContract_eliseu_v1.sol\":58:4015  contract SmartPayConstruction {... */\ntag_4:\n  dataSize(sub_0)\n  dup1\n  dataOffset(sub_0)\n  0x00\n  codecopy\n  0x00\n  return\nstop\n\nsub_0: assembly {\n        /* \"smartContract_eliseu_v1.sol\":58:4015  contract SmartPayConstruction {... */\n      mstore(0x40, 0x80)\n      callvalue\n      dup1\n      iszero\n      tag_1\n      jumpi\n      0x00\n      dup1\n      revert\n    tag_1:\n      pop\n      jumpi(tag_2, lt(calldatasize, 0x04))\n      shr(0xe0, calldataload(0x00))\n      dup1\n      0x91c9b268\n      gt\n      tag_16\n      jumpi\n      dup1\n      0xcbe737b3\n      gt\n      tag_17\n      jumpi\n      dup1\n      0xcbe737b3\n      eq\n      tag_12\n      jumpi\n      dup1\n      0xcce9889e\n      eq\n      tag_13\n      jumpi\n      dup1\n      0xe4a8f18b\n      eq\n      tag_14\n      jumpi\n      dup1\n      0xf5c4b73e\n      eq\n      tag_15\n      jumpi\n      jump(tag_2)\n    tag_17:\n      dup1\n      0x91c9b268\n      eq\n      tag_9\n      jumpi\n      dup1\n      0x93dc12e6\n      eq\n      tag_10\n      jumpi\n      dup1\n      0x99e76d35\n      eq\n      tag_11\n      jumpi\n      jump(tag_2)\n    tag_16:\n      dup1\n      0x9f310b\n      eq\n      tag_3\n      jumpi\n      dup1\n      0x089cd025\n      eq\n      tag_4\n      jumpi\n      dup1\n      0x48c35ad4\n      eq\n      tag_5\n      jumpi\n      dup1\n      0x4ac64766\n      eq\n      tag_6\n      jumpi\n      dup1\n      0x5f8439e3\n      eq\n      tag_7\n      jumpi\n      dup1\n      0x8abb10c6\n      eq\n      tag_8\n      jumpi\n    tag_2:\n      0x00\n      dup1\n      revert\n        /* \"smartContract_eliseu_v1.sol\":1843:2678  function createProject(... */\n    tag_3:\n      tag_18\n      0x04\n      dup1\n      calldatasize\n      sub\n      dup2\n      add\n      swap1\n      tag_19\n      swap2\n      swap1\n      tag_20\n      jump\t// in\n    tag_19:\n      tag_21\n      jump\t// in\n    tag_18:\n      stop\n        /* \"smartContract_eliseu_v1.sol\":3138:3223  function processPendingPayments(uint256 projectId, uint256 stageId) external {... */\n    tag_4:\n      tag_22\n      0x04\n      dup1\n      calldatasize\n      sub\n      dup2\n      add\n      swap1\n      tag_23\n      swap2\n      swap1\n      tag_24\n      jump\t// in\n    tag_23:\n      tag_25\n      jump\t// in\n    tag_22:\n      stop\n        /* \"smartContract_eliseu_v1.sol\":1515:1541  string[] public projectIds */\n    tag_5:\n      tag_26\n      0x04\n      dup1\n      calldatasize\n      sub\n      dup2\n      add\n      swap1\n      tag_27\n      swap2\n      swap1\n      tag_28\n      jump\t// in\n    tag_27:\n      tag_29\n      jump\t// in\n    tag_26:\n      mload(0x40)\n      tag_30\n      swap2\n      swap1\n      tag_31\n      jump\t// in\n    tag_30:\n      mload(0x40)\n      dup1\n      swap2\n      sub\n      swap1\n      return\n        /* \"smartContract_eliseu_v1.sol\":3804:3906  function getAllProjectIds() external view returns (string[] memory) {... */\n    tag_6:\n      tag_32\n      tag_33\n      jump\t// in\n    tag_32:\n      mload(0x40)\n      tag_34\n      swap2\n      swap1\n      tag_35\n      jump\t// in\n    tag_34:\n      mload(0x40)\n      dup1\n      swap2\n      sub\n      swap1\n      return\n        /* \"smartContract_eliseu_v1.sol\":3300:3527  function getProjectDetails(uint256 projectId)... */\n    tag_7:\n      tag_36\n      0x04\n      dup1\n      calldatasize\n      sub\n      dup2\n      add\n      swap1\n      tag_37\n      swap2\n      swap1\n      tag_28\n      jump\t// in\n    tag_37:\n      tag_38\n      jump\t// in\n    tag_36:\n      mload(0x40)\n      tag_39\n      swap9\n      swap8\n      swap7\n      swap6\n      swap5\n      swap4\n      swap3\n      swap2\n      swap1\n      tag_40\n      jump\t// in\n    tag_39:\n      mload(0x40)\n      dup1\n      swap2\n      sub\n      swap1\n      return\n        /* \"smartContract_eliseu_v1.sol\":3533:3798  function getProjectWithStages(uint256 projectId)... */\n    tag_8:\n      tag_41\n      0x04\n      dup1\n      calldatasize\n      sub\n      dup2\n      add\n      swap1\n      tag_42\n      swap2\n      swap1\n      tag_28\n      jump\t// in\n    tag_42:\n      tag_43\n      jump\t// in\n    tag_41:\n      mload(0x40)\n      tag_44\n      swap11\n      swap10\n      swap9\n      swap8\n      swap7\n      swap6\n      swap5\n      swap4\n      swap3\n      swap2\n      swap1\n      tag_45\n      jump\t// in\n    tag_44:\n      mload(0x40)\n      dup1\n      swap2\n      sub\n      swap1\n      return\n        /* \"smartContract_eliseu_v1.sol\":1467:1509  mapping(string => Project) public projects */\n    tag_9:\n      tag_46\n      0x04\n      dup1\n      calldatasize\n      sub\n      dup2\n      add\n      swap1\n      tag_47\n      swap2\n      swap1\n      tag_48\n      jump\t// in\n    tag_47:\n      tag_49\n      jump\t// in\n    tag_46:\n      mload(0x40)\n      tag_50\n      swap11\n      swap10\n      swap9\n      swap8\n      swap7\n      swap6\n      swap5\n      swap4\n      swap3\n      swap2\n      swap1\n      tag_51\n      jump\t// in\n    tag_50:\n      mload(0x40)\n      dup1\n      swap2\n      sub\n      swap1\n      return\n        /* \"smartContract_eliseu_v1.sol\":3229:3294  function closeProject(uint256 projectId) external {... */\n    tag_10:\n      tag_52\n      0x04\n      dup1\n      calldatasize\n      sub\n      dup2\n      add\n      swap1\n      tag_53\n      swap2\n      swap1\n      tag_28\n      jump\t// in\n    tag_53:\n      tag_54\n      jump\t// in\n    tag_52:\n      stop\n        /* \"smartContract_eliseu_v1.sol\":94:127  string public agencyId = \"agency\" */\n    tag_11:\n      tag_55\n      tag_56\n      jump\t// in\n    tag_55:\n      mload(0x40)\n      tag_57\n      swap2\n      swap1\n      tag_31\n      jump\t// in\n    tag_57:\n      mload(0x40)\n      dup1\n      swap2\n      sub\n      swap1\n      return\n        /* \"smartContract_eliseu_v1.sol\":2684:2810  function getStageById(string memory projectId, string memory stageId) public view returns (Stage memory s) {... */\n    tag_12:\n      tag_58\n      0x04\n      dup1\n      calldatasize\n      sub\n      dup2\n      add\n      swap1\n      tag_59\n      swap2\n      swap1\n      tag_60\n      jump\t// in\n    tag_59:\n      tag_61\n      jump\t// in\n    tag_58:\n      mload(0x40)\n      tag_62\n      swap2\n      swap1\n      tag_63\n      jump\t// in\n    tag_62:\n      mload(0x40)\n      dup1\n      swap2\n      sub\n      swap1\n      return\n        /* \"smartContract_eliseu_v1.sol\":2816:2947  function addStage(uint256 projectId, string memory _description, uint256 _value, string[] memory _validators_ids) external {... */\n    tag_13:\n      tag_64\n      0x04\n      dup1\n      calldatasize\n      sub\n      dup2\n      add\n      swap1\n      tag_65\n      swap2\n      swap1\n      tag_66\n      jump\t// in\n    tag_65:\n      tag_67\n      jump\t// in\n    tag_64:\n      stop\n        /* \"smartContract_eliseu_v1.sol\":3912:4013  function getProjectsCount() external view returns (uint256) {... */\n    tag_14:\n      tag_68\n      tag_69\n      jump\t// in\n    tag_68:\n      mload(0x40)\n      tag_70\n      swap2\n      swap1\n      tag_71\n      jump\t// in\n    tag_70:\n      mload(0x40)\n      dup1\n      swap2\n      sub\n      swap1\n      return\n        /* \"smartContract_eliseu_v1.sol\":2953:3132  function validateStage(uint256 projectId, uint256 stageId, string memory validatorID)... */\n    tag_15:\n      tag_72\n      0x04\n      dup1\n      calldatasize\n      sub\n      dup2\n      add\n      swap1\n      tag_73\n      swap2\n      swap1\n      tag_74\n      jump\t// in\n    tag_73:\n      tag_75\n      jump\t// in\n    tag_72:\n      stop\n        /* \"smartContract_eliseu_v1.sol\":1843:2678  function createProject(... */\n    tag_21:\n        /* \"smartContract_eliseu_v1.sol\":2150:2167  Project storage p */\n      0x00\n        /* \"smartContract_eliseu_v1.sol\":2170:2178  projects */\n      0x01\n        /* \"smartContract_eliseu_v1.sol\":2179:2190  _project_id */\n      dup10\n        /* \"smartContract_eliseu_v1.sol\":2170:2191  projects[_project_id] */\n      mload(0x40)\n      tag_77\n      swap2\n      swap1\n      tag_78\n      jump\t// in\n    tag_77:\n      swap1\n      dup2\n      mstore\n      0x20\n      add\n      mload(0x40)\n      dup1\n      swap2\n      sub\n      swap1\n      keccak256\n        /* \"smartContract_eliseu_v1.sol\":2150:2191  Project storage p = projects[_project_id] */\n      swap1\n      pop\n        /* \"smartContract_eliseu_v1.sol\":2210:2215  _name */\n      dup8\n        /* \"smartContract_eliseu_v1.sol\":2201:2202  p */\n      dup2\n        /* \"smartContract_eliseu_v1.sol\":2201:2207  p.name */\n      0x01\n      add\n        /* \"smartContract_eliseu_v1.sol\":2201:2215  p.name = _name */\n      swap1\n      dup2\n      tag_79\n      swap2\n      swap1\n      tag_80\n      jump\t// in\n    tag_79:\n      pop\n        /* \"smartContract_eliseu_v1.sol\":2241:2253  _description */\n      dup7\n        /* \"smartContract_eliseu_v1.sol\":2225:2226  p */\n      dup2\n        /* \"smartContract_eliseu_v1.sol\":2225:2238  p.description */\n      0x02\n      add\n        /* \"smartContract_eliseu_v1.sol\":2225:2253  p.description = _description */\n      swap1\n      dup2\n      tag_81\n      swap2\n      swap1\n      tag_80\n      jump\t// in\n    tag_81:\n      pop\n        /* \"smartContract_eliseu_v1.sol\":2278:2289  _project_id */\n      dup9\n        /* \"smartContract_eliseu_v1.sol\":2263:2264  p */\n      dup2\n        /* \"smartContract_eliseu_v1.sol\":2263:2275  p.project_id */\n      0x00\n      add\n        /* \"smartContract_eliseu_v1.sol\":2263:2289  p.project_id = _project_id */\n      swap1\n      dup2\n      tag_82\n      swap2\n      swap1\n      tag_80\n      jump\t// in\n    tag_82:\n      pop\n        /* \"smartContract_eliseu_v1.sol\":2313:2323  _client_id */\n      dup6\n        /* \"smartContract_eliseu_v1.sol\":2299:2300  p */\n      dup2\n        /* \"smartContract_eliseu_v1.sol\":2299:2310  p.client_id */\n      0x03\n      add\n        /* \"smartContract_eliseu_v1.sol\":2299:2323  p.client_id = _client_id */\n      swap1\n      dup2\n      tag_83\n      swap2\n      swap1\n      tag_80\n      jump\t// in\n    tag_83:\n      pop\n        /* \"smartContract_eliseu_v1.sol\":2348:2359  _contractor */\n      dup5\n        /* \"smartContract_eliseu_v1.sol\":2333:2334  p */\n      dup2\n        /* \"smartContract_eliseu_v1.sol\":2333:2345  p.contractor */\n      0x04\n      add\n        /* \"smartContract_eliseu_v1.sol\":2333:2359  p.contractor = _contractor */\n      swap1\n      dup2\n      tag_84\n      swap2\n      swap1\n      tag_80\n      jump\t// in\n    tag_84:\n      pop\n        /* \"smartContract_eliseu_v1.sol\":2386:2401  block.timestamp */\n      timestamp\n        /* \"smartContract_eliseu_v1.sol\":2369:2370  p */\n      dup2\n        /* \"smartContract_eliseu_v1.sol\":2369:2383  p.creationDate */\n      0x05\n      add\n        /* \"smartContract_eliseu_v1.sol\":2369:2401  p.creationDate = block.timestamp */\n      dup2\n      swap1\n      sstore\n      pop\n        /* \"smartContract_eliseu_v1.sol\":2425:2435  _startDate */\n      dup4\n        /* \"smartContract_eliseu_v1.sol\":2411:2412  p */\n      dup2\n        /* \"smartContract_eliseu_v1.sol\":2411:2422  p.startDate */\n      0x06\n      add\n        /* \"smartContract_eliseu_v1.sol\":2411:2435  p.startDate = _startDate */\n      dup2\n      swap1\n      sstore\n      pop\n        /* \"smartContract_eliseu_v1.sol\":2457:2465  _endDate */\n      dup3\n        /* \"smartContract_eliseu_v1.sol\":2445:2446  p */\n      dup2\n        /* \"smartContract_eliseu_v1.sol\":2445:2454  p.endDate */\n      0x07\n      add\n        /* \"smartContract_eliseu_v1.sol\":2445:2465  p.endDate = _endDate */\n      dup2\n      swap1\n      sstore\n      pop\n        /* \"smartContract_eliseu_v1.sol\":2486:2491  false */\n      0x00\n        /* \"smartContract_eliseu_v1.sol\":2475:2476  p */\n      dup2\n        /* \"smartContract_eliseu_v1.sol\":2475:2483  p.closed */\n      0x09\n      add\n      0x00\n        /* \"smartContract_eliseu_v1.sol\":2475:2491  p.closed = false */\n      0x0100\n      exp\n      dup2\n      sload\n      dup2\n      0xff\n      mul\n      not\n      and\n      swap1\n      dup4\n      iszero\n      iszero\n      mul\n      or\n      swap1\n      sstore\n      pop\n        /* \"smartContract_eliseu_v1.sol\":2526:2527  0 */\n      0x00\n        /* \"smartContract_eliseu_v1.sol\":2501:2502  p */\n      dup2\n        /* \"smartContract_eliseu_v1.sol\":2501:2523  p.actualCompletionDate */\n      0x08\n      add\n        /* \"smartContract_eliseu_v1.sol\":2501:2527  p.actualCompletionDate = 0 */\n      dup2\n      swap1\n      sstore\n      pop\n        /* \"smartContract_eliseu_v1.sol\":2537:2547  projectIds */\n      0x02\n        /* \"smartContract_eliseu_v1.sol\":2553:2564  _project_id */\n      dup10\n        /* \"smartContract_eliseu_v1.sol\":2537:2565  projectIds.push(_project_id) */\n      swap1\n      dup1\n      0x01\n      dup2\n      sload\n      add\n      dup1\n      dup3\n      sstore\n      dup1\n      swap2\n      pop\n      pop\n      0x01\n      swap1\n      sub\n      swap1\n      0x00\n      mstore\n      keccak256(0x00, 0x20)\n      add\n      0x00\n      swap1\n      swap2\n      swap1\n      swap2\n      swap1\n      swap2\n      pop\n      swap1\n      dup2\n      tag_86\n      swap2\n      swap1\n      tag_80\n      jump\t// in\n    tag_86:\n      pop\n        /* \"smartContract_eliseu_v1.sol\":2581:2590  uint256 i */\n      0x00\n        /* \"smartContract_eliseu_v1.sol\":2576:2671  for (uint256 i = 0; i < _stages.length; i++) {... */\n    tag_87:\n        /* \"smartContract_eliseu_v1.sol\":2600:2607  _stages */\n      dup3\n        /* \"smartContract_eliseu_v1.sol\":2600:2614  _stages.length */\n      mload\n        /* \"smartContract_eliseu_v1.sol\":2596:2597  i */\n      dup2\n        /* \"smartContract_eliseu_v1.sol\":2596:2614  i < _stages.length */\n      lt\n        /* \"smartContract_eliseu_v1.sol\":2576:2671  for (uint256 i = 0; i < _stages.length; i++) {... */\n      iszero\n      tag_88\n      jumpi\n        /* \"smartContract_eliseu_v1.sol\":2635:2636  p */\n      dup2\n        /* \"smartContract_eliseu_v1.sol\":2635:2643  p.stages */\n      0x0a\n      add\n        /* \"smartContract_eliseu_v1.sol\":2649:2656  _stages */\n      dup4\n        /* \"smartContract_eliseu_v1.sol\":2657:2658  i */\n      dup3\n        /* \"smartContract_eliseu_v1.sol\":2649:2659  _stages[i] */\n      dup2\n      mload\n      dup2\n      lt\n      tag_90\n      jumpi\n      tag_91\n      tag_92\n      jump\t// in\n    tag_91:\n    tag_90:\n      0x20\n      mul\n      0x20\n      add\n      add\n      mload\n        /* \"smartContract_eliseu_v1.sol\":2635:2660  p.stages.push(_stages[i]) */\n      swap1\n      dup1\n      0x01\n      dup2\n      sload\n      add\n      dup1\n      dup3\n      sstore\n      dup1\n      swap2\n      pop\n      pop\n      0x01\n      swap1\n      sub\n      swap1\n      0x00\n      mstore\n      keccak256(0x00, 0x20)\n      swap1\n      0x08\n      mul\n      add\n      0x00\n      swap1\n      swap2\n      swap1\n      swap2\n      swap1\n      swap2\n      pop\n      0x00\n      dup3\n      add\n      mload\n      dup2\n      0x00\n      add\n      swap1\n      dup2\n      tag_94\n      swap2\n      swap1\n      tag_80\n      jump\t// in\n    tag_94:\n      pop\n      0x20\n      dup3\n      add\n      mload\n      dup2\n      0x01\n      add\n      swap1\n      dup2\n      tag_95\n      swap2\n      swap1\n      tag_80\n      jump\t// in\n    tag_95:\n      pop\n      0x40\n      dup3\n      add\n      mload\n      dup2\n      0x02\n      add\n      swap1\n      dup2\n      tag_96\n      swap2\n      swap1\n      tag_80\n      jump\t// in\n    tag_96:\n      pop\n      0x60\n      dup3\n      add\n      mload\n      dup2\n      0x03\n      add\n      swap1\n      dup2\n      tag_97\n      swap2\n      swap1\n      tag_80\n      jump\t// in\n    tag_97:\n      pop\n      0x80\n      dup3\n      add\n      mload\n      dup2\n      0x04\n      add\n      sstore\n      0xa0\n      dup3\n      add\n      mload\n      dup2\n      0x05\n      add\n      swap1\n      dup1\n      mload\n      swap1\n      0x20\n      add\n      swap1\n      tag_98\n      swap3\n      swap2\n      swap1\n      tag_99\n      jump\t// in\n    tag_98:\n      pop\n      0xc0\n      dup3\n      add\n      mload\n      dup2\n      0x06\n      add\n      swap1\n      dup1\n      mload\n      swap1\n      0x20\n      add\n      swap1\n      tag_100\n      swap3\n      swap2\n      swap1\n      tag_99\n      jump\t// in\n    tag_100:\n      pop\n      0xe0\n      dup3\n      add\n      mload\n      dup2\n      0x07\n      add\n      exp(0x0100, 0x00)\n      dup2\n      sload\n      dup2\n      0xff\n      mul\n      not\n      and\n      swap1\n      dup4\n      iszero\n      iszero\n      mul\n      or\n      swap1\n      sstore\n      pop\n      pop\n      pop\n        /* \"smartContract_eliseu_v1.sol\":2616:2619  i++ */\n      dup1\n      dup1\n      tag_101\n      swap1\n      tag_102\n      jump\t// in\n    tag_101:\n      swap2\n      pop\n      pop\n        /* \"smartContract_eliseu_v1.sol\":2576:2671  for (uint256 i = 0; i < _stages.length; i++) {... */\n      jump(tag_87)\n    tag_88:\n      pop\n        /* \"smartContract_eliseu_v1.sol\":2140:2678  {... */\n      pop\n        /* \"smartContract_eliseu_v1.sol\":1843:2678  function createProject(... */\n      pop\n      pop\n      pop\n      pop\n      pop\n      pop\n      pop\n      pop\n      jump\t// out\n        /* \"smartContract_eliseu_v1.sol\":3138:3223  function processPendingPayments(uint256 projectId, uint256 stageId) external {... */\n    tag_25:\n      pop\n      pop\n      jump\t// out\n        /* \"smartContract_eliseu_v1.sol\":1515:1541  string[] public projectIds */\n    tag_29:\n      0x02\n      dup2\n      dup2\n      sload\n      dup2\n      lt\n      tag_104\n      jumpi\n      0x00\n      dup1\n      revert\n    tag_104:\n      swap1\n      0x00\n      mstore\n      keccak256(0x00, 0x20)\n      add\n      0x00\n      swap2\n      pop\n      swap1\n      pop\n      dup1\n      sload\n      tag_106\n      swap1\n      tag_107\n      jump\t// in\n    tag_106:\n      dup1\n      0x1f\n      add\n      0x20\n      dup1\n      swap2\n      div\n      mul\n      0x20\n      add\n      mload(0x40)\n      swap1\n      dup2\n      add\n      0x40\n      mstore\n      dup1\n      swap3\n      swap2\n      swap1\n      dup2\n      dup2\n      mstore\n      0x20\n      add\n      dup3\n      dup1\n      sload\n      tag_108\n      swap1\n      tag_107\n      jump\t// in\n    tag_108:\n      dup1\n      iszero\n      tag_109\n      jumpi\n      dup1\n      0x1f\n      lt\n      tag_110\n      jumpi\n      0x0100\n      dup1\n      dup4\n      sload\n      div\n      mul\n      dup4\n      mstore\n      swap2\n      0x20\n      add\n      swap2\n      jump(tag_109)\n    tag_110:\n      dup3\n      add\n      swap2\n      swap1\n      0x00\n      mstore\n      keccak256(0x00, 0x20)\n      swap1\n    tag_111:\n      dup2\n      sload\n      dup2\n      mstore\n      swap1\n      0x01\n      add\n      swap1\n      0x20\n      add\n      dup1\n      dup4\n      gt\n      tag_111\n      jumpi\n      dup3\n      swap1\n      sub\n      0x1f\n      and\n      dup3\n      add\n      swap2\n    tag_109:\n      pop\n      pop\n      pop\n      pop\n      pop\n      dup2\n      jump\t// out\n        /* \"smartContract_eliseu_v1.sol\":3804:3906  function getAllProjectIds() external view returns (string[] memory) {... */\n    tag_33:\n        /* \"smartContract_eliseu_v1.sol\":3855:3870  string[] memory */\n      0x60\n        /* \"smartContract_eliseu_v1.sol\":3889:3899  projectIds */\n      0x02\n        /* \"smartContract_eliseu_v1.sol\":3882:3899  return projectIds */\n      dup1\n      sload\n      dup1\n      0x20\n      mul\n      0x20\n      add\n      mload(0x40)\n      swap1\n      dup2\n      add\n      0x40\n      mstore\n      dup1\n      swap3\n      swap2\n      swap1\n      dup2\n      dup2\n      mstore\n      0x20\n      add\n      0x00\n      swap1\n    tag_113:\n      dup3\n      dup3\n      lt\n      iszero\n      tag_114\n      jumpi\n      dup4\n      dup3\n      swap1\n      0x00\n      mstore\n      keccak256(0x00, 0x20)\n      add\n      dup1\n      sload\n      tag_116\n      swap1\n      tag_107\n      jump\t// in\n    tag_116:\n      dup1\n      0x1f\n      add\n      0x20\n      dup1\n      swap2\n      div\n      mul\n      0x20\n      add\n      mload(0x40)\n      swap1\n      dup2\n      add\n      0x40\n      mstore\n      dup1\n      swap3\n      swap2\n      swap1\n      dup2\n      dup2\n      mstore\n      0x20\n      add\n      dup3\n      dup1\n      sload\n      tag_117\n      swap1\n      tag_107\n      jump\t// in\n    tag_117:\n      dup1\n      iszero\n      tag_118\n      jumpi\n      dup1\n      0x1f\n      lt\n      tag_119\n      jumpi\n      0x0100\n      dup1\n      dup4\n      sload\n      div\n      mul\n      dup4\n      mstore\n      swap2\n      0x20\n      add\n      swap2\n      jump(tag_118)\n    tag_119:\n      dup3\n      add\n      swap2\n      swap1\n      0x00\n      mstore\n      keccak256(0x00, 0x20)\n      swap1\n    tag_120:\n      dup2\n      sload\n      dup2\n      mstore\n      swap1\n      0x01\n      add\n      swap1\n      0x20\n      add\n      dup1\n      dup4\n      gt\n      tag_120\n      jumpi\n      dup3\n      swap1\n      sub\n      0x1f\n      and\n      dup3\n      add\n      swap2\n    tag_118:\n      pop\n      pop\n      pop\n      pop\n      pop\n      dup2\n      mstore\n      0x20\n      add\n      swap1\n      0x01\n      add\n      swap1\n      jump(tag_113)\n    tag_114:\n      pop\n      pop\n      pop\n      pop\n      swap1\n      pop\n        /* \"smartContract_eliseu_v1.sol\":3804:3906  function getAllProjectIds() external view returns (string[] memory) {... */\n      swap1\n      jump\t// out\n        /* \"smartContract_eliseu_v1.sol\":3300:3527  function getProjectDetails(uint256 projectId)... */\n    tag_38:\n        /* \"smartContract_eliseu_v1.sol\":3406:3419  string memory */\n      0x60\n        /* \"smartContract_eliseu_v1.sol\":3421:3434  string memory */\n      dup1\n        /* \"smartContract_eliseu_v1.sol\":3436:3449  string memory */\n      0x60\n        /* \"smartContract_eliseu_v1.sol\":3451:3464  string memory */\n      dup1\n        /* \"smartContract_eliseu_v1.sol\":3466:3473  uint256 */\n      0x00\n        /* \"smartContract_eliseu_v1.sol\":3475:3482  uint256 */\n      dup1\n        /* \"smartContract_eliseu_v1.sol\":3484:3491  uint256 */\n      0x00\n        /* \"smartContract_eliseu_v1.sol\":3493:3497  bool */\n      dup1\n        /* \"smartContract_eliseu_v1.sol\":3300:3527  function getProjectDetails(uint256 projectId)... */\n      swap2\n      swap4\n      swap6\n      swap8\n      pop\n      swap2\n      swap4\n      swap6\n      swap8\n      jump\t// out\n        /* \"smartContract_eliseu_v1.sol\":3533:3798  function getProjectWithStages(uint256 projectId)... */\n    tag_43:\n        /* \"smartContract_eliseu_v1.sol\":3642:3655  string memory */\n      0x60\n        /* \"smartContract_eliseu_v1.sol\":3657:3670  string memory */\n      dup1\n        /* \"smartContract_eliseu_v1.sol\":3672:3685  string memory */\n      0x60\n        /* \"smartContract_eliseu_v1.sol\":3687:3700  string memory */\n      dup1\n        /* \"smartContract_eliseu_v1.sol\":3702:3709  uint256 */\n      0x00\n        /* \"smartContract_eliseu_v1.sol\":3711:3718  uint256 */\n      dup1\n        /* \"smartContract_eliseu_v1.sol\":3720:3727  uint256 */\n      0x00\n        /* \"smartContract_eliseu_v1.sol\":3729:3733  bool */\n      dup1\n        /* \"smartContract_eliseu_v1.sol\":3735:3751  uint256[] memory */\n      0x60\n        /* \"smartContract_eliseu_v1.sol\":3753:3768  string[] memory */\n      dup1\n        /* \"smartContract_eliseu_v1.sol\":3533:3798  function getProjectWithStages(uint256 projectId)... */\n      swap2\n      swap4\n      swap6\n      swap8\n      swap10\n      pop\n      swap2\n      swap4\n      swap6\n      swap8\n      swap10\n      jump\t// out\n        /* \"smartContract_eliseu_v1.sol\":1467:1509  mapping(string => Project) public projects */\n    tag_49:\n      0x01\n      dup2\n      dup1\n      mload\n      0x20\n      dup2\n      add\n      dup3\n      add\n      dup1\n      mload\n      dup5\n      dup3\n      mstore\n      0x20\n      dup4\n      add\n      0x20\n      dup6\n      add\n      keccak256\n      dup2\n      dup4\n      mstore\n      dup1\n      swap6\n      pop\n      pop\n      pop\n      pop\n      pop\n      pop\n      0x00\n      swap2\n      pop\n      swap1\n      pop\n      dup1\n      0x00\n      add\n      dup1\n      sload\n      tag_123\n      swap1\n      tag_107\n      jump\t// in\n    tag_123:\n      dup1\n      0x1f\n      add\n      0x20\n      dup1\n      swap2\n      div\n      mul\n      0x20\n      add\n      mload(0x40)\n      swap1\n      dup2\n      add\n      0x40\n      mstore\n      dup1\n      swap3\n      swap2\n      swap1\n      dup2\n      dup2\n      mstore\n      0x20\n      add\n      dup3\n      dup1\n      sload\n      tag_124\n      swap1\n      tag_107\n      jump\t// in\n    tag_124:\n      dup1\n      iszero\n      tag_125\n      jumpi\n      dup1\n      0x1f\n      lt\n      tag_126\n      jumpi\n      0x0100\n      dup1\n      dup4\n      sload\n      div\n      mul\n      dup4\n      mstore\n      swap2\n      0x20\n      add\n      swap2\n      jump(tag_125)\n    tag_126:\n      dup3\n      add\n      swap2\n      swap1\n      0x00\n      mstore\n      keccak256(0x00, 0x20)\n      swap1\n    tag_127:\n      dup2\n      sload\n      dup2\n      mstore\n      swap1\n      0x01\n      add\n      swap1\n      0x20\n      add\n      dup1\n      dup4\n      gt\n      tag_127\n      jumpi\n      dup3\n      swap1\n      sub\n      0x1f\n      and\n      dup3\n      add\n      swap2\n    tag_125:\n      pop\n      pop\n      pop\n      pop\n      pop\n      swap1\n      dup1\n      0x01\n      add\n      dup1\n      sload\n      tag_128\n      swap1\n      tag_107\n      jump\t// in\n    tag_128:\n      dup1\n      0x1f\n      add\n      0x20\n      dup1\n      swap2\n      div\n      mul\n      0x20\n      add\n      mload(0x40)\n      swap1\n      dup2\n      add\n      0x40\n      mstore\n      dup1\n      swap3\n      swap2\n      swap1\n      dup2\n      dup2\n      mstore\n      0x20\n      add\n      dup3\n      dup1\n      sload\n      tag_129\n      swap1\n      tag_107\n      jump\t// in\n    tag_129:\n      dup1\n      iszero\n      tag_130\n      jumpi\n      dup1\n      0x1f\n      lt\n      tag_131\n      jumpi\n      0x0100\n      dup1\n      dup4\n      sload\n      div\n      mul\n      dup4\n      mstore\n      swap2\n      0x20\n      add\n      swap2\n      jump(tag_130)\n    tag_131:\n      dup3\n      add\n      swap2\n      swap1\n      0x00\n      mstore\n      keccak256(0x00, 0x20)\n      swap1\n    tag_132:\n      dup2\n      sload\n      dup2\n      mstore\n      swap1\n      0x01\n      add\n      swap1\n      0x20\n      add\n      dup1\n      dup4\n      gt\n      tag_132\n      jumpi\n      dup3\n      swap1\n      sub\n      0x1f\n      and\n      dup3\n      add\n      swap2\n    tag_130:\n      pop\n      pop\n      pop\n      pop\n      pop\n      swap1\n      dup1\n      0x02\n      add\n      dup1\n      sload\n      tag_133\n      swap1\n      tag_107\n      jump\t// in\n    tag_133:\n      dup1\n      0x1f\n      add\n      0x20\n      dup1\n      swap2\n      div\n      mul\n      0x20\n      add\n      mload(0x40)\n      swap1\n      dup2\n      add\n      0x40\n      mstore\n      dup1\n      swap3\n      swap2\n      swap1\n      dup2\n      dup2\n      mstore\n      0x20\n      add\n      dup3\n      dup1\n      sload\n      tag_134\n      swap1\n      tag_107\n      jump\t// in\n    tag_134:\n      dup1\n      iszero\n      tag_135\n      jumpi\n      dup1\n      0x1f\n      lt\n      tag_136\n      jumpi\n      0x0100\n      dup1\n      dup4\n      sload\n      div\n      mul\n      dup4\n      mstore\n      swap2\n      0x20\n      add\n      swap2\n      jump(tag_135)\n    tag_136:\n      dup3\n      add\n      swap2\n      swap1\n      0x00\n      mstore\n      keccak256(0x00, 0x20)\n      swap1\n    tag_137:\n      dup2\n      sload\n      dup2\n      mstore\n      swap1\n      0x01\n      add\n      swap1\n      0x20\n      add\n      dup1\n      dup4\n      gt\n      tag_137\n      jumpi\n      dup3\n      swap1\n      sub\n      0x1f\n      and\n      dup3\n      add\n      swap2\n    tag_135:\n      pop\n      pop\n      pop\n      pop\n      pop\n      swap1\n      dup1\n      0x03\n      add\n      dup1\n      sload\n      tag_138\n      swap1\n      tag_107\n      jump\t// in\n    tag_138:\n      dup1\n      0x1f\n      add\n      0x20\n      dup1\n      swap2\n      div\n      mul\n      0x20\n      add\n      mload(0x40)\n      swap1\n      dup2\n      add\n      0x40\n      mstore\n      dup1\n      swap3\n      swap2\n      swap1\n      dup2\n      dup2\n      mstore\n      0x20\n      add\n      dup3\n      dup1\n      sload\n      tag_139\n      swap1\n      tag_107\n      jump\t// in\n    tag_139:\n      dup1\n      iszero\n      tag_140\n      jumpi\n      dup1\n      0x1f\n      lt\n      tag_141\n      jumpi\n      0x0100\n      dup1\n      dup4\n      sload\n      div\n      mul\n      dup4\n      mstore\n      swap2\n      0x20\n      add\n      swap2\n      jump(tag_140)\n    tag_141:\n      dup3\n      add\n      swap2\n      swap1\n      0x00\n      mstore\n      keccak256(0x00, 0x20)\n      swap1\n    tag_142:\n      dup2\n      sload\n      dup2\n      mstore\n      swap1\n      0x01\n      add\n      swap1\n      0x20\n      add\n      dup1\n      dup4\n      gt\n      tag_142\n      jumpi\n      dup3\n      swap1\n      sub\n      0x1f\n      and\n      dup3\n      add\n      swap2\n    tag_140:\n      pop\n      pop\n      pop\n      pop\n      pop\n      swap1\n      dup1\n      0x04\n      add\n      dup1\n      sload\n      tag_143\n      swap1\n      tag_107\n      jump\t// in\n    tag_143:\n      dup1\n      0x1f\n      add\n      0x20\n      dup1\n      swap2\n      div\n      mul\n      0x20\n      add\n      mload(0x40)\n      swap1\n      dup2\n      add\n      0x40\n      mstore\n      dup1\n      swap3\n      swap2\n      swap1\n      dup2\n      dup2\n      mstore\n      0x20\n      add\n      dup3\n      dup1\n      sload\n      tag_144\n      swap1\n      tag_107\n      jump\t// in\n    tag_144:\n      dup1\n      iszero\n      tag_145\n      jumpi\n      dup1\n      0x1f\n      lt\n      tag_146\n      jumpi\n      0x0100\n      dup1\n      dup4\n      sload\n      div\n      mul\n      dup4\n      mstore\n      swap2\n      0x20\n      add\n      swap2\n      jump(tag_145)\n    tag_146:\n      dup3\n      add\n      swap2\n      swap1\n      0x00\n      mstore\n      keccak256(0x00, 0x20)\n      swap1\n    tag_147:\n      dup2\n      sload\n      dup2\n      mstore\n      swap1\n      0x01\n      add\n      swap1\n      0x20\n      add\n      dup1\n      dup4\n      gt\n      tag_147\n      jumpi\n      dup3\n      swap1\n      sub\n      0x1f\n      and\n      dup3\n      add\n      swap2\n    tag_145:\n      pop\n      pop\n      pop\n      pop\n      pop\n      swap1\n      dup1\n      0x05\n      add\n      sload\n      swap1\n      dup1\n      0x06\n      add\n      sload\n      swap1\n      dup1\n      0x07\n      add\n      sload\n      swap1\n      dup1\n      0x08\n      add\n      sload\n      swap1\n      dup1\n      0x09\n      add\n      0x00\n      swap1\n      sload\n      swap1\n      0x0100\n      exp\n      swap1\n      div\n      0xff\n      and\n      swap1\n      pop\n      dup11\n      jump\t// out\n        /* \"smartContract_eliseu_v1.sol\":3229:3294  function closeProject(uint256 projectId) external {... */\n    tag_54:\n      pop\n      jump\t// out\n        /* \"smartContract_eliseu_v1.sol\":94:127  string public agencyId = \"agency\" */\n    tag_56:\n      0x00\n      dup1\n      sload\n      tag_149\n      swap1\n      tag_107\n      jump\t// in\n    tag_149:\n      dup1\n      0x1f\n      add\n      0x20\n      dup1\n      swap2\n      div\n      mul\n      0x20\n      add\n      mload(0x40)\n      swap1\n      dup2\n      add\n      0x40\n      mstore\n      dup1\n      swap3\n      swap2\n      swap1\n      dup2\n      dup2\n      mstore\n      0x20\n      add\n      dup3\n      dup1\n      sload\n      tag_150\n      swap1\n      tag_107\n      jump\t// in\n    tag_150:\n      dup1\n      iszero\n      tag_151\n      jumpi\n      dup1\n      0x1f\n      lt\n      tag_152\n      jumpi\n      0x0100\n      dup1\n      dup4\n      sload\n      div\n      mul\n      dup4\n      mstore\n      swap2\n      0x20\n      add\n      swap2\n      jump(tag_151)\n    tag_152:\n      dup3\n      add\n      swap2\n      swap1\n      0x00\n      mstore\n      keccak256(0x00, 0x20)\n      swap1\n    tag_153:\n      dup2\n      sload\n      dup2\n      mstore\n      swap1\n      0x01\n      add\n      swap1\n      0x20\n      add\n      dup1\n      dup4\n      gt\n      tag_153\n      jumpi\n      dup3\n      swap1\n      sub\n      0x1f\n      and\n      dup3\n      add\n      swap2\n    tag_151:\n      pop\n      pop\n      pop\n      pop\n      pop\n      dup2\n      jump\t// out\n        /* \"smartContract_eliseu_v1.sol\":2684:2810  function getStageById(string memory projectId, string memory stageId) public view returns (Stage memory s) {... */\n    tag_61:\n        /* \"smartContract_eliseu_v1.sol\":2775:2789  Stage memory s */\n      tag_154\n      tag_155\n      jump\t// in\n    tag_154:\n        /* \"smartContract_eliseu_v1.sol\":2684:2810  function getStageById(string memory projectId, string memory stageId) public view returns (Stage memory s) {... */\n      swap3\n      swap2\n      pop\n      pop\n      jump\t// out\n        /* \"smartContract_eliseu_v1.sol\":2816:2947  function addStage(uint256 projectId, string memory _description, uint256 _value, string[] memory _validators_ids) external {... */\n    tag_67:\n      pop\n      pop\n      pop\n      pop\n      jump\t// out\n        /* \"smartContract_eliseu_v1.sol\":3912:4013  function getProjectsCount() external view returns (uint256) {... */\n    tag_69:\n        /* \"smartContract_eliseu_v1.sol\":3963:3970  uint256 */\n      0x00\n        /* \"smartContract_eliseu_v1.sol\":3989:3999  projectIds */\n      0x02\n        /* \"smartContract_eliseu_v1.sol\":3989:4006  projectIds.length */\n      dup1\n      sload\n      swap1\n      pop\n        /* \"smartContract_eliseu_v1.sol\":3982:4006  return projectIds.length */\n      swap1\n      pop\n        /* \"smartContract_eliseu_v1.sol\":3912:4013  function getProjectsCount() external view returns (uint256) {... */\n      swap1\n      jump\t// out\n        /* \"smartContract_eliseu_v1.sol\":2953:3132  function validateStage(uint256 projectId, uint256 stageId, string memory validatorID)... */\n    tag_75:\n        /* \"smartContract_eliseu_v1.sol\":3078:3125  StageValidated(projectId, stageId, validatorID) */\n      0x9f64639419de97116219d1f7c000638905fa8176602dc9afd7d28338b6a803cc\n        /* \"smartContract_eliseu_v1.sol\":3093:3102  projectId */\n      dup4\n        /* \"smartContract_eliseu_v1.sol\":3104:3111  stageId */\n      dup4\n        /* \"smartContract_eliseu_v1.sol\":3113:3124  validatorID */\n      dup4\n        /* \"smartContract_eliseu_v1.sol\":3078:3125  StageValidated(projectId, stageId, validatorID) */\n      mload(0x40)\n      tag_160\n      swap4\n      swap3\n      swap2\n      swap1\n      tag_161\n      jump\t// in\n    tag_160:\n      mload(0x40)\n      dup1\n      swap2\n      sub\n      swap1\n      log1\n        /* \"smartContract_eliseu_v1.sol\":2953:3132  function validateStage(uint256 projectId, uint256 stageId, string memory validatorID)... */\n      pop\n      pop\n      pop\n      jump\t// out\n    tag_99:\n      dup3\n      dup1\n      sload\n      dup3\n      dup3\n      sstore\n      swap1\n      0x00\n      mstore\n      keccak256(0x00, 0x20)\n      swap1\n      dup2\n      add\n      swap3\n      dup3\n      iszero\n      tag_162\n      jumpi\n      swap2\n      0x20\n      mul\n      dup3\n      add\n    tag_163:\n      dup3\n      dup2\n      gt\n      iszero\n      tag_164\n      jumpi\n      dup3\n      mload\n      dup3\n      swap1\n      dup2\n      tag_165\n      swap2\n      swap1\n      tag_80\n      jump\t// in\n    tag_165:\n      pop\n      swap2\n      0x20\n      add\n      swap2\n      swap1\n      0x01\n      add\n      swap1\n      jump(tag_163)\n    tag_164:\n    tag_162:\n      pop\n      swap1\n      pop\n      tag_166\n      swap2\n      swap1\n      tag_167\n      jump\t// in\n    tag_166:\n      pop\n      swap1\n      jump\t// out\n    tag_155:\n      mload(0x40)\n      dup1\n      0x0100\n      add\n      0x40\n      mstore\n      dup1\n      0x60\n      dup2\n      mstore\n      0x20\n      add\n      0x60\n      dup2\n      mstore\n      0x20\n      add\n      0x60\n      dup2\n      mstore\n      0x20\n      add\n      0x60\n      dup2\n      mstore\n      0x20\n      add\n      0x00\n      dup2\n      mstore\n      0x20\n      add\n      0x60\n      dup2\n      mstore\n      0x20\n      add\n      0x60\n      dup2\n      mstore\n      0x20\n      add\n      iszero(iszero(0x00))\n      dup2\n      mstore\n      pop\n      swap1\n      jump\t// out\n    tag_167:\n    tag_168:\n      dup1\n      dup3\n      gt\n      iszero\n      tag_169\n      jumpi\n      0x00\n      dup2\n      dup2\n      tag_170\n      swap2\n      swap1\n      tag_171\n      jump\t// in\n    tag_170:\n      pop\n      0x01\n      add\n      jump(tag_168)\n    tag_169:\n      pop\n      swap1\n      jump\t// out\n    tag_171:\n      pop\n      dup1\n      sload\n      tag_172\n      swap1\n      tag_107\n      jump\t// in\n    tag_172:\n      0x00\n      dup3\n      sstore\n      dup1\n      0x1f\n      lt\n      tag_174\n      jumpi\n      pop\n      jump(tag_173)\n    tag_174:\n      0x1f\n      add\n      0x20\n      swap1\n      div\n      swap1\n      0x00\n      mstore\n      keccak256(0x00, 0x20)\n      swap1\n      dup2\n      add\n      swap1\n      tag_175\n      swap2\n      swap1\n      tag_176\n      jump\t// in\n    tag_175:\n    tag_173:\n      pop\n      jump\t// out\n    tag_176:\n    tag_177:\n      dup1\n      dup3\n      gt\n      iszero\n      tag_178\n      jumpi\n      0x00\n      dup2\n      0x00\n      swap1\n      sstore\n      pop\n      0x01\n      add\n      jump(tag_177)\n    tag_178:\n      pop\n      swap1\n      jump\t// out\n        /* \"#utility.yul\":7:82   */\n    tag_179:\n        /* \"#utility.yul\":40:46   */\n      0x00\n        /* \"#utility.yul\":73:75   */\n      0x40\n        /* \"#utility.yul\":67:76   */\n      mload\n        /* \"#utility.yul\":57:76   */\n      swap1\n      pop\n        /* \"#utility.yul\":7:82   */\n      swap1\n      jump\t// out\n        /* \"#utility.yul\":88:205   */\n    tag_180:\n        /* \"#utility.yul\":197:198   */\n      0x00\n        /* \"#utility.yul\":194:195   */\n      dup1\n        /* \"#utility.yul\":187:199   */\n      revert\n        /* \"#utility.yul\":211:328   */\n    tag_181:\n        /* \"#utility.yul\":320:321   */\n      0x00\n        /* \"#utility.yul\":317:318   */\n      dup1\n        /* \"#utility.yul\":310:322   */\n      revert\n        /* \"#utility.yul\":334:451   */\n    tag_182:\n        /* \"#utility.yul\":443:444   */\n      0x00\n        /* \"#utility.yul\":440:441   */\n      dup1\n        /* \"#utility.yul\":433:445   */\n      revert\n        /* \"#utility.yul\":457:574   */\n    tag_183:\n        /* \"#utility.yul\":566:567   */\n      0x00\n        /* \"#utility.yul\":563:564   */\n      dup1\n        /* \"#utility.yul\":556:568   */\n      revert\n        /* \"#utility.yul\":580:682   */\n    tag_184:\n        /* \"#utility.yul\":621:627   */\n      0x00\n        /* \"#utility.yul\":672:674   */\n      0x1f\n        /* \"#utility.yul\":668:675   */\n      not\n        /* \"#utility.yul\":663:665   */\n      0x1f\n        /* \"#utility.yul\":656:661   */\n      dup4\n        /* \"#utility.yul\":652:666   */\n      add\n        /* \"#utility.yul\":648:676   */\n      and\n        /* \"#utility.yul\":638:676   */\n      swap1\n      pop\n        /* \"#utility.yul\":580:682   */\n      swap2\n      swap1\n      pop\n      jump\t// out\n        /* \"#utility.yul\":688:868   */\n    tag_185:\n        /* \"#utility.yul\":736:813   */\n      0x4e487b7100000000000000000000000000000000000000000000000000000000\n        /* \"#utility.yul\":733:734   */\n      0x00\n        /* \"#utility.yul\":726:814   */\n      mstore\n        /* \"#utility.yul\":833:837   */\n      0x41\n        /* \"#utility.yul\":830:831   */\n      0x04\n        /* \"#utility.yul\":823:838   */\n      mstore\n        /* \"#utility.yul\":857:861   */\n      0x24\n        /* \"#utility.yul\":854:855   */\n      0x00\n        /* \"#utility.yul\":847:862   */\n      revert\n        /* \"#utility.yul\":874:1155   */\n    tag_186:\n        /* \"#utility.yul\":957:984   */\n      tag_261\n        /* \"#utility.yul\":979:983   */\n      dup3\n        /* \"#utility.yul\":957:984   */\n      tag_184\n      jump\t// in\n    tag_261:\n        /* \"#utility.yul\":949:955   */\n      dup2\n        /* \"#utility.yul\":945:985   */\n      add\n        /* \"#utility.yul\":1087:1093   */\n      dup2\n        /* \"#utility.yul\":1075:1085   */\n      dup2\n        /* \"#utility.yul\":1072:1094   */\n      lt\n        /* \"#utility.yul\":1051:1069   */\n      0xffffffffffffffff\n        /* \"#utility.yul\":1039:1049   */\n      dup3\n        /* \"#utility.yul\":1036:1070   */\n      gt\n        /* \"#utility.yul\":1033:1095   */\n      or\n        /* \"#utility.yul\":1030:1118   */\n      iszero\n      tag_262\n      jumpi\n        /* \"#utility.yul\":1098:1116   */\n      tag_263\n      tag_185\n      jump\t// in\n    tag_263:\n        /* \"#utility.yul\":1030:1118   */\n    tag_262:\n        /* \"#utility.yul\":1138:1148   */\n      dup1\n        /* \"#utility.yul\":1134:1136   */\n      0x40\n        /* \"#utility.yul\":1127:1149   */\n      mstore\n        /* \"#utility.yul\":917:1155   */\n      pop\n        /* \"#utility.yul\":874:1155   */\n      pop\n      pop\n      jump\t// out\n        /* \"#utility.yul\":1161:1290   */\n    tag_187:\n        /* \"#utility.yul\":1195:1201   */\n      0x00\n        /* \"#utility.yul\":1222:1242   */\n      tag_265\n      tag_179\n      jump\t// in\n    tag_265:\n        /* \"#utility.yul\":1212:1242   */\n      swap1\n      pop\n        /* \"#utility.yul\":1251:1284   */\n      tag_266\n        /* \"#utility.yul\":1279:1283   */\n      dup3\n        /* \"#utility.yul\":1271:1277   */\n      dup3\n        /* \"#utility.yul\":1251:1284   */\n      tag_186\n      jump\t// in\n    tag_266:\n        /* \"#utility.yul\":1161:1290   */\n      swap2\n      swap1\n      pop\n      jump\t// out\n        /* \"#utility.yul\":1296:1604   */\n    tag_188:\n        /* \"#utility.yul\":1358:1362   */\n      0x00\n        /* \"#utility.yul\":1448:1466   */\n      0xffffffffffffffff\n        /* \"#utility.yul\":1440:1446   */\n      dup3\n        /* \"#utility.yul\":1437:1467   */\n      gt\n        /* \"#utility.yul\":1434:1490   */\n      iszero\n      tag_268\n      jumpi\n        /* \"#utility.yul\":1470:1488   */\n      tag_269\n      tag_185\n      jump\t// in\n    tag_269:\n        /* \"#utility.yul\":1434:1490   */\n    tag_268:\n        /* \"#utility.yul\":1508:1537   */\n      tag_270\n        /* \"#utility.yul\":1530:1536   */\n      dup3\n        /* \"#utility.yul\":1508:1537   */\n      tag_184\n      jump\t// in\n    tag_270:\n        /* \"#utility.yul\":1500:1537   */\n      swap1\n      pop\n        /* \"#utility.yul\":1592:1596   */\n      0x20\n        /* \"#utility.yul\":1586:1590   */\n      dup2\n        /* \"#utility.yul\":1582:1597   */\n      add\n        /* \"#utility.yul\":1574:1597   */\n      swap1\n      pop\n        /* \"#utility.yul\":1296:1604   */\n      swap2\n      swap1\n      pop\n      jump\t// out\n        /* \"#utility.yul\":1610:1756   */\n    tag_189:\n        /* \"#utility.yul\":1707:1713   */\n      dup3\n        /* \"#utility.yul\":1702:1705   */\n      dup2\n        /* \"#utility.yul\":1697:1700   */\n      dup4\n        /* \"#utility.yul\":1684:1714   */\n      calldatacopy\n        /* \"#utility.yul\":1748:1749   */\n      0x00\n        /* \"#utility.yul\":1739:1745   */\n      dup4\n        /* \"#utility.yul\":1734:1737   */\n      dup4\n        /* \"#utility.yul\":1730:1746   */\n      add\n        /* \"#utility.yul\":1723:1750   */\n      mstore\n        /* \"#utility.yul\":1610:1756   */\n      pop\n      pop\n      pop\n      jump\t// out\n        /* \"#utility.yul\":1762:2187   */\n    tag_190:\n        /* \"#utility.yul\":1840:1845   */\n      0x00\n        /* \"#utility.yul\":1865:1931   */\n      tag_273\n        /* \"#utility.yul\":1881:1930   */\n      tag_274\n        /* \"#utility.yul\":1923:1929   */\n      dup5\n        /* \"#utility.yul\":1881:1930   */\n      tag_188\n      jump\t// in\n    tag_274:\n        /* \"#utility.yul\":1865:1931   */\n      tag_187\n      jump\t// in\n    tag_273:\n        /* \"#utility.yul\":1856:1931   */\n      swap1\n      pop\n        /* \"#utility.yul\":1954:1960   */\n      dup3\n        /* \"#utility.yul\":1947:1952   */\n      dup2\n        /* \"#utility.yul\":1940:1961   */\n      mstore\n        /* \"#utility.yul\":1992:1996   */\n      0x20\n        /* \"#utility.yul\":1985:1990   */\n      dup2\n        /* \"#utility.yul\":1981:1997   */\n      add\n        /* \"#utility.yul\":2030:2033   */\n      dup5\n        /* \"#utility.yul\":2021:2027   */\n      dup5\n        /* \"#utility.yul\":2016:2019   */\n      dup5\n        /* \"#utility.yul\":2012:2028   */\n      add\n        /* \"#utility.yul\":2009:2034   */\n      gt\n        /* \"#utility.yul\":2006:2118   */\n      iszero\n      tag_275\n      jumpi\n        /* \"#utility.yul\":2037:2116   */\n      tag_276\n      tag_183\n      jump\t// in\n    tag_276:\n        /* \"#utility.yul\":2006:2118   */\n    tag_275:\n        /* \"#utility.yul\":2127:2181   */\n      tag_277\n        /* \"#utility.yul\":2174:2180   */\n      dup5\n        /* \"#utility.yul\":2169:2172   */\n      dup3\n        /* \"#utility.yul\":2164:2167   */\n      dup6\n        /* \"#utility.yul\":2127:2181   */\n      tag_189\n      jump\t// in\n    tag_277:\n        /* \"#utility.yul\":1846:2187   */\n      pop\n        /* \"#utility.yul\":1762:2187   */\n      swap4\n      swap3\n      pop\n      pop\n      pop\n      jump\t// out\n        /* \"#utility.yul\":2207:2547   */\n    tag_191:\n        /* \"#utility.yul\":2263:2268   */\n      0x00\n        /* \"#utility.yul\":2312:2315   */\n      dup3\n        /* \"#utility.yul\":2305:2309   */\n      0x1f\n        /* \"#utility.yul\":2297:2303   */\n      dup4\n        /* \"#utility.yul\":2293:2310   */\n      add\n        /* \"#utility.yul\":2289:2316   */\n      slt\n        /* \"#utility.yul\":2279:2401   */\n      tag_279\n      jumpi\n        /* \"#utility.yul\":2320:2399   */\n      tag_280\n      tag_182\n      jump\t// in\n    tag_280:\n        /* \"#utility.yul\":2279:2401   */\n    tag_279:\n        /* \"#utility.yul\":2437:2443   */\n      dup2\n        /* \"#utility.yul\":2424:2444   */\n      calldataload\n        /* \"#utility.yul\":2462:2541   */\n      tag_281\n        /* \"#utility.yul\":2537:2540   */\n      dup5\n        /* \"#utility.yul\":2529:2535   */\n      dup3\n        /* \"#utility.yul\":2522:2526   */\n      0x20\n        /* \"#utility.yul\":2514:2520   */\n      dup7\n        /* \"#utility.yul\":2510:2527   */\n      add\n        /* \"#utility.yul\":2462:2541   */\n      tag_190\n      jump\t// in\n    tag_281:\n        /* \"#utility.yul\":2453:2541   */\n      swap2\n      pop\n        /* \"#utility.yul\":2269:2547   */\n      pop\n        /* \"#utility.yul\":2207:2547   */\n      swap3\n      swap2\n      pop\n      pop\n      jump\t// out\n        /* \"#utility.yul\":2553:2630   */\n    tag_192:\n        /* \"#utility.yul\":2590:2597   */\n      0x00\n        /* \"#utility.yul\":2619:2624   */\n      dup2\n        /* \"#utility.yul\":2608:2624   */\n      swap1\n      pop\n        /* \"#utility.yul\":2553:2630   */\n      swap2\n      swap1\n      pop\n      jump\t// out\n        /* \"#utility.yul\":2636:2758   */\n    tag_193:\n        /* \"#utility.yul\":2709:2733   */\n      tag_284\n        /* \"#utility.yul\":2727:2732   */\n      dup2\n        /* \"#utility.yul\":2709:2733   */\n      tag_192\n      jump\t// in\n    tag_284:\n        /* \"#utility.yul\":2702:2707   */\n      dup2\n        /* \"#utility.yul\":2699:2734   */\n      eq\n        /* \"#utility.yul\":2689:2752   */\n      tag_285\n      jumpi\n        /* \"#utility.yul\":2748:2749   */\n      0x00\n        /* \"#utility.yul\":2745:2746   */\n      dup1\n        /* \"#utility.yul\":2738:2750   */\n      revert\n        /* \"#utility.yul\":2689:2752   */\n    tag_285:\n        /* \"#utility.yul\":2636:2758   */\n      pop\n      jump\t// out\n        /* \"#utility.yul\":2764:2903   */\n    tag_194:\n        /* \"#utility.yul\":2810:2815   */\n      0x00\n        /* \"#utility.yul\":2848:2854   */\n      dup2\n        /* \"#utility.yul\":2835:2855   */\n      calldataload\n        /* \"#utility.yul\":2826:2855   */\n      swap1\n      pop\n        /* \"#utility.yul\":2864:2897   */\n      tag_287\n        /* \"#utility.yul\":2891:2896   */\n      dup2\n        /* \"#utility.yul\":2864:2897   */\n      tag_193\n      jump\t// in\n    tag_287:\n        /* \"#utility.yul\":2764:2903   */\n      swap3\n      swap2\n      pop\n      pop\n      jump\t// out\n        /* \"#utility.yul\":2909:3241   */\n    tag_195:\n        /* \"#utility.yul\":3007:3011   */\n      0x00\n        /* \"#utility.yul\":3097:3115   */\n      0xffffffffffffffff\n        /* \"#utility.yul\":3089:3095   */\n      dup3\n        /* \"#utility.yul\":3086:3116   */\n      gt\n        /* \"#utility.yul\":3083:3139   */\n      iszero\n      tag_289\n      jumpi\n        /* \"#utility.yul\":3119:3137   */\n      tag_290\n      tag_185\n      jump\t// in\n    tag_290:\n        /* \"#utility.yul\":3083:3139   */\n    tag_289:\n        /* \"#utility.yul\":3169:3173   */\n      0x20\n        /* \"#utility.yul\":3161:3167   */\n      dup3\n        /* \"#utility.yul\":3157:3174   */\n      mul\n        /* \"#utility.yul\":3149:3174   */\n      swap1\n      pop\n        /* \"#utility.yul\":3229:3233   */\n      0x20\n        /* \"#utility.yul\":3223:3227   */\n      dup2\n        /* \"#utility.yul\":3219:3234   */\n      add\n        /* \"#utility.yul\":3211:3234   */\n      swap1\n      pop\n        /* \"#utility.yul\":2909:3241   */\n      swap2\n      swap1\n      pop\n      jump\t// out\n        /* \"#utility.yul\":3247:3364   */\n    tag_196:\n        /* \"#utility.yul\":3356:3357   */\n      0x00\n        /* \"#utility.yul\":3353:3354   */\n      dup1\n        /* \"#utility.yul\":3346:3358   */\n      revert\n        /* \"#utility.yul\":3370:3487   */\n    tag_197:\n        /* \"#utility.yul\":3479:3480   */\n      0x00\n        /* \"#utility.yul\":3476:3477   */\n      dup1\n        /* \"#utility.yul\":3469:3481   */\n      revert\n        /* \"#utility.yul\":3493:3610   */\n    tag_198:\n        /* \"#utility.yul\":3602:3603   */\n      0x00\n        /* \"#utility.yul\":3599:3600   */\n      dup1\n        /* \"#utility.yul\":3592:3604   */\n      revert\n        /* \"#utility.yul\":3616:3937   */\n    tag_199:\n        /* \"#utility.yul\":3703:3707   */\n      0x00\n        /* \"#utility.yul\":3793:3811   */\n      0xffffffffffffffff\n        /* \"#utility.yul\":3785:3791   */\n      dup3\n        /* \"#utility.yul\":3782:3812   */\n      gt\n        /* \"#utility.yul\":3779:3835   */\n      iszero\n      tag_295\n      jumpi\n        /* \"#utility.yul\":3815:3833   */\n      tag_296\n      tag_185\n      jump\t// in\n    tag_296:\n        /* \"#utility.yul\":3779:3835   */\n    tag_295:\n        /* \"#utility.yul\":3865:3869   */\n      0x20\n        /* \"#utility.yul\":3857:3863   */\n      dup3\n        /* \"#utility.yul\":3853:3870   */\n      mul\n        /* \"#utility.yul\":3845:3870   */\n      swap1\n      pop\n        /* \"#utility.yul\":3925:3929   */\n      0x20\n        /* \"#utility.yul\":3919:3923   */\n      dup2\n        /* \"#utility.yul\":3915:3930   */\n      add\n        /* \"#utility.yul\":3907:3930   */\n      swap1\n      pop\n        /* \"#utility.yul\":3616:3937   */\n      swap2\n      swap1\n      pop\n      jump\t// out\n        /* \"#utility.yul\":3959:4904   */\n    tag_200:\n        /* \"#utility.yul\":4065:4070   */\n      0x00\n        /* \"#utility.yul\":4090:4181   */\n      tag_298\n        /* \"#utility.yul\":4106:4180   */\n      tag_299\n        /* \"#utility.yul\":4173:4179   */\n      dup5\n        /* \"#utility.yul\":4106:4180   */\n      tag_199\n      jump\t// in\n    tag_299:\n        /* \"#utility.yul\":4090:4181   */\n      tag_187\n      jump\t// in\n    tag_298:\n        /* \"#utility.yul\":4081:4181   */\n      swap1\n      pop\n        /* \"#utility.yul\":4201:4206   */\n      dup1\n        /* \"#utility.yul\":4230:4236   */\n      dup4\n        /* \"#utility.yul\":4223:4228   */\n      dup3\n        /* \"#utility.yul\":4216:4237   */\n      mstore\n        /* \"#utility.yul\":4264:4268   */\n      0x20\n        /* \"#utility.yul\":4257:4262   */\n      dup3\n        /* \"#utility.yul\":4253:4269   */\n      add\n        /* \"#utility.yul\":4246:4269   */\n      swap1\n      pop\n        /* \"#utility.yul\":4317:4321   */\n      0x20\n        /* \"#utility.yul\":4309:4315   */\n      dup5\n        /* \"#utility.yul\":4305:4322   */\n      mul\n        /* \"#utility.yul\":4297:4303   */\n      dup4\n        /* \"#utility.yul\":4293:4323   */\n      add\n        /* \"#utility.yul\":4346:4349   */\n      dup6\n        /* \"#utility.yul\":4338:4344   */\n      dup2\n        /* \"#utility.yul\":4335:4350   */\n      gt\n        /* \"#utility.yul\":4332:4454   */\n      iszero\n      tag_300\n      jumpi\n        /* \"#utility.yul\":4365:4444   */\n      tag_301\n      tag_196\n      jump\t// in\n    tag_301:\n        /* \"#utility.yul\":4332:4454   */\n    tag_300:\n        /* \"#utility.yul\":4480:4486   */\n      dup4\n        /* \"#utility.yul\":4463:4898   */\n    tag_302:\n        /* \"#utility.yul\":4497:4503   */\n      dup2\n        /* \"#utility.yul\":4492:4495   */\n      dup2\n        /* \"#utility.yul\":4489:4504   */\n      lt\n        /* \"#utility.yul\":4463:4898   */\n      iszero\n      tag_304\n      jumpi\n        /* \"#utility.yul\":4586:4589   */\n      dup1\n        /* \"#utility.yul\":4573:4590   */\n      calldataload\n        /* \"#utility.yul\":4622:4640   */\n      0xffffffffffffffff\n        /* \"#utility.yul\":4609:4620   */\n      dup2\n        /* \"#utility.yul\":4606:4641   */\n      gt\n        /* \"#utility.yul\":4603:4725   */\n      iszero\n      tag_305\n      jumpi\n        /* \"#utility.yul\":4644:4723   */\n      tag_306\n      tag_182\n      jump\t// in\n    tag_306:\n        /* \"#utility.yul\":4603:4725   */\n    tag_305:\n        /* \"#utility.yul\":4768:4779   */\n      dup1\n        /* \"#utility.yul\":4760:4766   */\n      dup7\n        /* \"#utility.yul\":4756:4780   */\n      add\n        /* \"#utility.yul\":4806:4853   */\n      tag_307\n        /* \"#utility.yul\":4849:4852   */\n      dup10\n        /* \"#utility.yul\":4837:4847   */\n      dup3\n        /* \"#utility.yul\":4806:4853   */\n      tag_191\n      jump\t// in\n    tag_307:\n        /* \"#utility.yul\":4801:4804   */\n      dup6\n        /* \"#utility.yul\":4794:4854   */\n      mstore\n        /* \"#utility.yul\":4883:4887   */\n      0x20\n        /* \"#utility.yul\":4878:4881   */\n      dup6\n        /* \"#utility.yul\":4874:4888   */\n      add\n        /* \"#utility.yul\":4867:4888   */\n      swap5\n      pop\n        /* \"#utility.yul\":4539:4898   */\n      pop\n      pop\n        /* \"#utility.yul\":4523:4527   */\n      0x20\n        /* \"#utility.yul\":4518:4521   */\n      dup2\n        /* \"#utility.yul\":4514:4528   */\n      add\n        /* \"#utility.yul\":4507:4528   */\n      swap1\n      pop\n        /* \"#utility.yul\":4463:4898   */\n      jump(tag_302)\n    tag_304:\n        /* \"#utility.yul\":4467:4488   */\n      pop\n        /* \"#utility.yul\":4071:4904   */\n      pop\n      pop\n        /* \"#utility.yul\":3959:4904   */\n      swap4\n      swap3\n      pop\n      pop\n      pop\n      jump\t// out\n        /* \"#utility.yul\":4926:5316   */\n    tag_201:\n        /* \"#utility.yul\":5007:5012   */\n      0x00\n        /* \"#utility.yul\":5056:5059   */\n      dup3\n        /* \"#utility.yul\":5049:5053   */\n      0x1f\n        /* \"#utility.yul\":5041:5047   */\n      dup4\n        /* \"#utility.yul\":5037:5054   */\n      add\n        /* \"#utility.yul\":5033:5060   */\n      slt\n        /* \"#utility.yul\":5023:5145   */\n      tag_309\n      jumpi\n        /* \"#utility.yul\":5064:5143   */\n      tag_310\n      tag_182\n      jump\t// in\n    tag_310:\n        /* \"#utility.yul\":5023:5145   */\n    tag_309:\n        /* \"#utility.yul\":5181:5187   */\n      dup2\n        /* \"#utility.yul\":5168:5188   */\n      calldataload\n        /* \"#utility.yul\":5206:5310   */\n      tag_311\n        /* \"#utility.yul\":5306:5309   */\n      dup5\n        /* \"#utility.yul\":5298:5304   */\n      dup3\n        /* \"#utility.yul\":5291:5295   */\n      0x20\n        /* \"#utility.yul\":5283:5289   */\n      dup7\n        /* \"#utility.yul\":5279:5296   */\n      add\n        /* \"#utility.yul\":5206:5310   */\n      tag_200\n      jump\t// in\n    tag_311:\n        /* \"#utility.yul\":5197:5310   */\n      swap2\n      pop\n        /* \"#utility.yul\":5013:5316   */\n      pop\n        /* \"#utility.yul\":4926:5316   */\n      swap3\n      swap2\n      pop\n      pop\n      jump\t// out\n        /* \"#utility.yul\":5322:5412   */\n    tag_202:\n        /* \"#utility.yul\":5356:5363   */\n      0x00\n        /* \"#utility.yul\":5399:5404   */\n      dup2\n        /* \"#utility.yul\":5392:5405   */\n      iszero\n        /* \"#utility.yul\":5385:5406   */\n      iszero\n        /* \"#utility.yul\":5374:5406   */\n      swap1\n      pop\n        /* \"#utility.yul\":5322:5412   */\n      swap2\n      swap1\n      pop\n      jump\t// out\n        /* \"#utility.yul\":5418:5534   */\n    tag_203:\n        /* \"#utility.yul\":5488:5509   */\n      tag_314\n        /* \"#utility.yul\":5503:5508   */\n      dup2\n        /* \"#utility.yul\":5488:5509   */\n      tag_202\n      jump\t// in\n    tag_314:\n        /* \"#utility.yul\":5481:5486   */\n      dup2\n        /* \"#utility.yul\":5478:5510   */\n      eq\n        /* \"#utility.yul\":5468:5528   */\n      tag_315\n      jumpi\n        /* \"#utility.yul\":5524:5525   */\n      0x00\n        /* \"#utility.yul\":5521:5522   */\n      dup1\n        /* \"#utility.yul\":5514:5526   */\n      revert\n        /* \"#utility.yul\":5468:5528   */\n    tag_315:\n        /* \"#utility.yul\":5418:5534   */\n      pop\n      jump\t// out\n        /* \"#utility.yul\":5540:5673   */\n    tag_204:\n        /* \"#utility.yul\":5583:5588   */\n      0x00\n        /* \"#utility.yul\":5621:5627   */\n      dup2\n        /* \"#utility.yul\":5608:5628   */\n      calldataload\n        /* \"#utility.yul\":5599:5628   */\n      swap1\n      pop\n        /* \"#utility.yul\":5637:5667   */\n      tag_317\n        /* \"#utility.yul\":5661:5666   */\n      dup2\n        /* \"#utility.yul\":5637:5667   */\n      tag_203\n      jump\t// in\n    tag_317:\n        /* \"#utility.yul\":5540:5673   */\n      swap3\n      swap2\n      pop\n      pop\n      jump\t// out\n        /* \"#utility.yul\":5720:8380   */\n    tag_205:\n        /* \"#utility.yul\":5790:5795   */\n      0x00\n        /* \"#utility.yul\":5834:5840   */\n      0x0100\n        /* \"#utility.yul\":5822:5831   */\n      dup3\n        /* \"#utility.yul\":5817:5820   */\n      dup5\n        /* \"#utility.yul\":5813:5832   */\n      sub\n        /* \"#utility.yul\":5809:5841   */\n      slt\n        /* \"#utility.yul\":5806:5925   */\n      iszero\n      tag_319\n      jumpi\n        /* \"#utility.yul\":5844:5923   */\n      tag_320\n      tag_197\n      jump\t// in\n    tag_320:\n        /* \"#utility.yul\":5806:5925   */\n    tag_319:\n        /* \"#utility.yul\":5943:5966   */\n      tag_321\n        /* \"#utility.yul\":5959:5965   */\n      0x0100\n        /* \"#utility.yul\":5943:5966   */\n      tag_187\n      jump\t// in\n    tag_321:\n        /* \"#utility.yul\":5934:5966   */\n      swap1\n      pop\n        /* \"#utility.yul\":6059:6060   */\n      0x00\n        /* \"#utility.yul\":6048:6057   */\n      dup3\n        /* \"#utility.yul\":6044:6061   */\n      add\n        /* \"#utility.yul\":6031:6062   */\n      calldataload\n        /* \"#utility.yul\":6089:6107   */\n      0xffffffffffffffff\n        /* \"#utility.yul\":6081:6087   */\n      dup2\n        /* \"#utility.yul\":6078:6108   */\n      gt\n        /* \"#utility.yul\":6075:6192   */\n      iszero\n      tag_322\n      jumpi\n        /* \"#utility.yul\":6111:6190   */\n      tag_323\n      tag_198\n      jump\t// in\n    tag_323:\n        /* \"#utility.yul\":6075:6192   */\n    tag_322:\n        /* \"#utility.yul\":6231:6290   */\n      tag_324\n        /* \"#utility.yul\":6286:6289   */\n      dup5\n        /* \"#utility.yul\":6277:6283   */\n      dup3\n        /* \"#utility.yul\":6266:6275   */\n      dup6\n        /* \"#utility.yul\":6262:6284   */\n      add\n        /* \"#utility.yul\":6231:6290   */\n      tag_191\n      jump\t// in\n    tag_324:\n        /* \"#utility.yul\":6224:6228   */\n      0x00\n        /* \"#utility.yul\":6217:6222   */\n      dup4\n        /* \"#utility.yul\":6213:6229   */\n      add\n        /* \"#utility.yul\":6206:6291   */\n      mstore\n        /* \"#utility.yul\":5976:6302   */\n      pop\n        /* \"#utility.yul\":6390:6392   */\n      0x20\n        /* \"#utility.yul\":6379:6388   */\n      dup3\n        /* \"#utility.yul\":6375:6393   */\n      add\n        /* \"#utility.yul\":6362:6394   */\n      calldataload\n        /* \"#utility.yul\":6421:6439   */\n      0xffffffffffffffff\n        /* \"#utility.yul\":6413:6419   */\n      dup2\n        /* \"#utility.yul\":6410:6440   */\n      gt\n        /* \"#utility.yul\":6407:6524   */\n      iszero\n      tag_325\n      jumpi\n        /* \"#utility.yul\":6443:6522   */\n      tag_326\n      tag_198\n      jump\t// in\n    tag_326:\n        /* \"#utility.yul\":6407:6524   */\n    tag_325:\n        /* \"#utility.yul\":6563:6622   */\n      tag_327\n        /* \"#utility.yul\":6618:6621   */\n      dup5\n        /* \"#utility.yul\":6609:6615   */\n      dup3\n        /* \"#utility.yul\":6598:6607   */\n      dup6\n        /* \"#utility.yul\":6594:6616   */\n      add\n        /* \"#utility.yul\":6563:6622   */\n      tag_191\n      jump\t// in\n    tag_327:\n        /* \"#utility.yul\":6556:6560   */\n      0x20\n        /* \"#utility.yul\":6549:6554   */\n      dup4\n        /* \"#utility.yul\":6545:6561   */\n      add\n        /* \"#utility.yul\":6538:6623   */\n      mstore\n        /* \"#utility.yul\":6312:6634   */\n      pop\n        /* \"#utility.yul\":6728:6730   */\n      0x40\n        /* \"#utility.yul\":6717:6726   */\n      dup3\n        /* \"#utility.yul\":6713:6731   */\n      add\n        /* \"#utility.yul\":6700:6732   */\n      calldataload\n        /* \"#utility.yul\":6759:6777   */\n      0xffffffffffffffff\n        /* \"#utility.yul\":6751:6757   */\n      dup2\n        /* \"#utility.yul\":6748:6778   */\n      gt\n        /* \"#utility.yul\":6745:6862   */\n      iszero\n      tag_328\n      jumpi\n        /* \"#utility.yul\":6781:6860   */\n      tag_329\n      tag_198\n      jump\t// in\n    tag_329:\n        /* \"#utility.yul\":6745:6862   */\n    tag_328:\n        /* \"#utility.yul\":6901:6960   */\n      tag_330\n        /* \"#utility.yul\":6956:6959   */\n      dup5\n        /* \"#utility.yul\":6947:6953   */\n      dup3\n        /* \"#utility.yul\":6936:6945   */\n      dup6\n        /* \"#utility.yul\":6932:6954   */\n      add\n        /* \"#utility.yul\":6901:6960   */\n      tag_191\n      jump\t// in\n    tag_330:\n        /* \"#utility.yul\":6894:6898   */\n      0x40\n        /* \"#utility.yul\":6887:6892   */\n      dup4\n        /* \"#utility.yul\":6883:6899   */\n      add\n        /* \"#utility.yul\":6876:6961   */\n      mstore\n        /* \"#utility.yul\":6644:6972   */\n      pop\n        /* \"#utility.yul\":7071:7073   */\n      0x60\n        /* \"#utility.yul\":7060:7069   */\n      dup3\n        /* \"#utility.yul\":7056:7074   */\n      add\n        /* \"#utility.yul\":7043:7075   */\n      calldataload\n        /* \"#utility.yul\":7102:7120   */\n      0xffffffffffffffff\n        /* \"#utility.yul\":7094:7100   */\n      dup2\n        /* \"#utility.yul\":7091:7121   */\n      gt\n        /* \"#utility.yul\":7088:7205   */\n      iszero\n      tag_331\n      jumpi\n        /* \"#utility.yul\":7124:7203   */\n      tag_332\n      tag_198\n      jump\t// in\n    tag_332:\n        /* \"#utility.yul\":7088:7205   */\n    tag_331:\n        /* \"#utility.yul\":7244:7303   */\n      tag_333\n        /* \"#utility.yul\":7299:7302   */\n      dup5\n        /* \"#utility.yul\":7290:7296   */\n      dup3\n        /* \"#utility.yul\":7279:7288   */\n      dup6\n        /* \"#utility.yul\":7275:7297   */\n      add\n        /* \"#utility.yul\":7244:7303   */\n      tag_191\n      jump\t// in\n    tag_333:\n        /* \"#utility.yul\":7237:7241   */\n      0x60\n        /* \"#utility.yul\":7230:7235   */\n      dup4\n        /* \"#utility.yul\":7226:7242   */\n      add\n        /* \"#utility.yul\":7219:7304   */\n      mstore\n        /* \"#utility.yul\":6982:7315   */\n      pop\n        /* \"#utility.yul\":7375:7378   */\n      0x80\n        /* \"#utility.yul\":7417:7466   */\n      tag_334\n        /* \"#utility.yul\":7462:7465   */\n      dup5\n        /* \"#utility.yul\":7453:7459   */\n      dup3\n        /* \"#utility.yul\":7442:7451   */\n      dup6\n        /* \"#utility.yul\":7438:7460   */\n      add\n        /* \"#utility.yul\":7417:7466   */\n      tag_194\n      jump\t// in\n    tag_334:\n        /* \"#utility.yul\":7410:7414   */\n      0x80\n        /* \"#utility.yul\":7403:7408   */\n      dup4\n        /* \"#utility.yul\":7399:7415   */\n      add\n        /* \"#utility.yul\":7392:7467   */\n      mstore\n        /* \"#utility.yul\":7325:7478   */\n      pop\n        /* \"#utility.yul\":7575:7578   */\n      0xa0\n        /* \"#utility.yul\":7564:7573   */\n      dup3\n        /* \"#utility.yul\":7560:7579   */\n      add\n        /* \"#utility.yul\":7547:7580   */\n      calldataload\n        /* \"#utility.yul\":7607:7625   */\n      0xffffffffffffffff\n        /* \"#utility.yul\":7599:7605   */\n      dup2\n        /* \"#utility.yul\":7596:7626   */\n      gt\n        /* \"#utility.yul\":7593:7710   */\n      iszero\n      tag_335\n      jumpi\n        /* \"#utility.yul\":7629:7708   */\n      tag_336\n      tag_198\n      jump\t// in\n    tag_336:\n        /* \"#utility.yul\":7593:7710   */\n    tag_335:\n        /* \"#utility.yul\":7749:7833   */\n      tag_337\n        /* \"#utility.yul\":7829:7832   */\n      dup5\n        /* \"#utility.yul\":7820:7826   */\n      dup3\n        /* \"#utility.yul\":7809:7818   */\n      dup6\n        /* \"#utility.yul\":7805:7827   */\n      add\n        /* \"#utility.yul\":7749:7833   */\n      tag_201\n      jump\t// in\n    tag_337:\n        /* \"#utility.yul\":7742:7746   */\n      0xa0\n        /* \"#utility.yul\":7735:7740   */\n      dup4\n        /* \"#utility.yul\":7731:7747   */\n      add\n        /* \"#utility.yul\":7724:7834   */\n      mstore\n        /* \"#utility.yul\":7488:7845   */\n      pop\n        /* \"#utility.yul\":7939:7942   */\n      0xc0\n        /* \"#utility.yul\":7928:7937   */\n      dup3\n        /* \"#utility.yul\":7924:7943   */\n      add\n        /* \"#utility.yul\":7911:7944   */\n      calldataload\n        /* \"#utility.yul\":7971:7989   */\n      0xffffffffffffffff\n        /* \"#utility.yul\":7963:7969   */\n      dup2\n        /* \"#utility.yul\":7960:7990   */\n      gt\n        /* \"#utility.yul\":7957:8074   */\n      iszero\n      tag_338\n      jumpi\n        /* \"#utility.yul\":7993:8072   */\n      tag_339\n      tag_198\n      jump\t// in\n    tag_339:\n        /* \"#utility.yul\":7957:8074   */\n    tag_338:\n        /* \"#utility.yul\":8113:8197   */\n      tag_340\n        /* \"#utility.yul\":8193:8196   */\n      dup5\n        /* \"#utility.yul\":8184:8190   */\n      dup3\n        /* \"#utility.yul\":8173:8182   */\n      dup6\n        /* \"#utility.yul\":8169:8191   */\n      add\n        /* \"#utility.yul\":8113:8197   */\n      tag_201\n      jump\t// in\n    tag_340:\n        /* \"#utility.yul\":8106:8110   */\n      0xc0\n        /* \"#utility.yul\":8099:8104   */\n      dup4\n        /* \"#utility.yul\":8095:8111   */\n      add\n        /* \"#utility.yul\":8088:8198   */\n      mstore\n        /* \"#utility.yul\":7855:8209   */\n      pop\n        /* \"#utility.yul\":8273:8276   */\n      0xe0\n        /* \"#utility.yul\":8315:8361   */\n      tag_341\n        /* \"#utility.yul\":8357:8360   */\n      dup5\n        /* \"#utility.yul\":8348:8354   */\n      dup3\n        /* \"#utility.yul\":8337:8346   */\n      dup6\n        /* \"#utility.yul\":8333:8355   */\n      add\n        /* \"#utility.yul\":8315:8361   */\n      tag_204\n      jump\t// in\n    tag_341:\n        /* \"#utility.yul\":8308:8312   */\n      0xe0\n        /* \"#utility.yul\":8301:8306   */\n      dup4\n        /* \"#utility.yul\":8297:8313   */\n      add\n        /* \"#utility.yul\":8290:8362   */\n      mstore\n        /* \"#utility.yul\":8219:8373   */\n      pop\n        /* \"#utility.yul\":5720:8380   */\n      swap3\n      swap2\n      pop\n      pop\n      jump\t// out\n        /* \"#utility.yul\":8429:9407   */\n    tag_206:\n        /* \"#utility.yul\":8546:8551   */\n      0x00\n        /* \"#utility.yul\":8571:8673   */\n      tag_343\n        /* \"#utility.yul\":8587:8672   */\n      tag_344\n        /* \"#utility.yul\":8665:8671   */\n      dup5\n        /* \"#utility.yul\":8587:8672   */\n      tag_195\n      jump\t// in\n    tag_344:\n        /* \"#utility.yul\":8571:8673   */\n      tag_187\n      jump\t// in\n    tag_343:\n        /* \"#utility.yul\":8562:8673   */\n      swap1\n      pop\n        /* \"#utility.yul\":8693:8698   */\n      dup1\n        /* \"#utility.yul\":8722:8728   */\n      dup4\n        /* \"#utility.yul\":8715:8720   */\n      dup3\n        /* \"#utility.yul\":8708:8729   */\n      mstore\n        /* \"#utility.yul\":8756:8760   */\n      0x20\n        /* \"#utility.yul\":8749:8754   */\n      dup3\n        /* \"#utility.yul\":8745:8761   */\n      add\n        /* \"#utility.yul\":8738:8761   */\n      swap1\n      pop\n        /* \"#utility.yul\":8809:8813   */\n      0x20\n        /* \"#utility.yul\":8801:8807   */\n      dup5\n        /* \"#utility.yul\":8797:8814   */\n      mul\n        /* \"#utility.yul\":8789:8795   */\n      dup4\n        /* \"#utility.yul\":8785:8815   */\n      add\n        /* \"#utility.yul\":8838:8841   */\n      dup6\n        /* \"#utility.yul\":8830:8836   */\n      dup2\n        /* \"#utility.yul\":8827:8842   */\n      gt\n        /* \"#utility.yul\":8824:8946   */\n      iszero\n      tag_345\n      jumpi\n        /* \"#utility.yul\":8857:8936   */\n      tag_346\n      tag_196\n      jump\t// in\n    tag_346:\n        /* \"#utility.yul\":8824:8946   */\n    tag_345:\n        /* \"#utility.yul\":8972:8978   */\n      dup4\n        /* \"#utility.yul\":8955:9401   */\n    tag_347:\n        /* \"#utility.yul\":8989:8995   */\n      dup2\n        /* \"#utility.yul\":8984:8987   */\n      dup2\n        /* \"#utility.yul\":8981:8996   */\n      lt\n        /* \"#utility.yul\":8955:9401   */\n      iszero\n      tag_349\n      jumpi\n        /* \"#utility.yul\":9078:9081   */\n      dup1\n        /* \"#utility.yul\":9065:9082   */\n      calldataload\n        /* \"#utility.yul\":9114:9132   */\n      0xffffffffffffffff\n        /* \"#utility.yul\":9101:9112   */\n      dup2\n        /* \"#utility.yul\":9098:9133   */\n      gt\n        /* \"#utility.yul\":9095:9217   */\n      iszero\n      tag_350\n      jumpi\n        /* \"#utility.yul\":9136:9215   */\n      tag_351\n      tag_182\n      jump\t// in\n    tag_351:\n        /* \"#utility.yul\":9095:9217   */\n    tag_350:\n        /* \"#utility.yul\":9260:9271   */\n      dup1\n        /* \"#utility.yul\":9252:9258   */\n      dup7\n        /* \"#utility.yul\":9248:9272   */\n      add\n        /* \"#utility.yul\":9298:9356   */\n      tag_352\n        /* \"#utility.yul\":9352:9355   */\n      dup10\n        /* \"#utility.yul\":9340:9350   */\n      dup3\n        /* \"#utility.yul\":9298:9356   */\n      tag_205\n      jump\t// in\n    tag_352:\n        /* \"#utility.yul\":9293:9296   */\n      dup6\n        /* \"#utility.yul\":9286:9357   */\n      mstore\n        /* \"#utility.yul\":9386:9390   */\n      0x20\n        /* \"#utility.yul\":9381:9384   */\n      dup6\n        /* \"#utility.yul\":9377:9391   */\n      add\n        /* \"#utility.yul\":9370:9391   */\n      swap5\n      pop\n        /* \"#utility.yul\":9031:9401   */\n      pop\n      pop\n        /* \"#utility.yul\":9015:9019   */\n      0x20\n        /* \"#utility.yul\":9010:9013   */\n      dup2\n        /* \"#utility.yul\":9006:9020   */\n      add\n        /* \"#utility.yul\":8999:9020   */\n      swap1\n      pop\n        /* \"#utility.yul\":8955:9401   */\n      jump(tag_347)\n    tag_349:\n        /* \"#utility.yul\":8959:8980   */\n      pop\n        /* \"#utility.yul\":8552:9407   */\n      pop\n      pop\n        /* \"#utility.yul\":8429:9407   */\n      swap4\n      swap3\n      pop\n      pop\n      pop\n      jump\t// out\n        /* \"#utility.yul\":9456:9868   */\n    tag_207:\n        /* \"#utility.yul\":9548:9553   */\n      0x00\n        /* \"#utility.yul\":9597:9600   */\n      dup3\n        /* \"#utility.yul\":9590:9594   */\n      0x1f\n        /* \"#utility.yul\":9582:9588   */\n      dup4\n        /* \"#utility.yul\":9578:9595   */\n      add\n        /* \"#utility.yul\":9574:9601   */\n      slt\n        /* \"#utility.yul\":9564:9686   */\n      tag_354\n      jumpi\n        /* \"#utility.yul\":9605:9684   */\n      tag_355\n      tag_182\n      jump\t// in\n    tag_355:\n        /* \"#utility.yul\":9564:9686   */\n    tag_354:\n        /* \"#utility.yul\":9722:9728   */\n      dup2\n        /* \"#utility.yul\":9709:9729   */\n      calldataload\n        /* \"#utility.yul\":9747:9862   */\n      tag_356\n        /* \"#utility.yul\":9858:9861   */\n      dup5\n        /* \"#utility.yul\":9850:9856   */\n      dup3\n        /* \"#utility.yul\":9843:9847   */\n      0x20\n        /* \"#utility.yul\":9835:9841   */\n      dup7\n        /* \"#utility.yul\":9831:9848   */\n      add\n        /* \"#utility.yul\":9747:9862   */\n      tag_206\n      jump\t// in\n    tag_356:\n        /* \"#utility.yul\":9738:9862   */\n      swap2\n      pop\n        /* \"#utility.yul\":9554:9868   */\n      pop\n        /* \"#utility.yul\":9456:9868   */\n      swap3\n      swap2\n      pop\n      pop\n      jump\t// out\n        /* \"#utility.yul\":9874:12375   */\n    tag_20:\n        /* \"#utility.yul\":10092:10098   */\n      0x00\n        /* \"#utility.yul\":10100:10106   */\n      dup1\n        /* \"#utility.yul\":10108:10114   */\n      0x00\n        /* \"#utility.yul\":10116:10122   */\n      dup1\n        /* \"#utility.yul\":10124:10130   */\n      0x00\n        /* \"#utility.yul\":10132:10138   */\n      dup1\n        /* \"#utility.yul\":10140:10146   */\n      0x00\n        /* \"#utility.yul\":10148:10154   */\n      dup1\n        /* \"#utility.yul\":10197:10200   */\n      0x0100\n        /* \"#utility.yul\":10185:10194   */\n      dup10\n        /* \"#utility.yul\":10176:10183   */\n      dup12\n        /* \"#utility.yul\":10172:10195   */\n      sub\n        /* \"#utility.yul\":10168:10201   */\n      slt\n        /* \"#utility.yul\":10165:10285   */\n      iszero\n      tag_358\n      jumpi\n        /* \"#utility.yul\":10204:10283   */\n      tag_359\n      tag_180\n      jump\t// in\n    tag_359:\n        /* \"#utility.yul\":10165:10285   */\n    tag_358:\n        /* \"#utility.yul\":10352:10353   */\n      0x00\n        /* \"#utility.yul\":10341:10350   */\n      dup10\n        /* \"#utility.yul\":10337:10354   */\n      add\n        /* \"#utility.yul\":10324:10355   */\n      calldataload\n        /* \"#utility.yul\":10382:10400   */\n      0xffffffffffffffff\n        /* \"#utility.yul\":10374:10380   */\n      dup2\n        /* \"#utility.yul\":10371:10401   */\n      gt\n        /* \"#utility.yul\":10368:10485   */\n      iszero\n      tag_360\n      jumpi\n        /* \"#utility.yul\":10404:10483   */\n      tag_361\n      tag_181\n      jump\t// in\n    tag_361:\n        /* \"#utility.yul\":10368:10485   */\n    tag_360:\n        /* \"#utility.yul\":10509:10572   */\n      tag_362\n        /* \"#utility.yul\":10564:10571   */\n      dup12\n        /* \"#utility.yul\":10555:10561   */\n      dup3\n        /* \"#utility.yul\":10544:10553   */\n      dup13\n        /* \"#utility.yul\":10540:10562   */\n      add\n        /* \"#utility.yul\":10509:10572   */\n      tag_191\n      jump\t// in\n    tag_362:\n        /* \"#utility.yul\":10499:10572   */\n      swap9\n      pop\n        /* \"#utility.yul\":10295:10582   */\n      pop\n        /* \"#utility.yul\":10649:10651   */\n      0x20\n        /* \"#utility.yul\":10638:10647   */\n      dup10\n        /* \"#utility.yul\":10634:10652   */\n      add\n        /* \"#utility.yul\":10621:10653   */\n      calldataload\n        /* \"#utility.yul\":10680:10698   */\n      0xffffffffffffffff\n        /* \"#utility.yul\":10672:10678   */\n      dup2\n        /* \"#utility.yul\":10669:10699   */\n      gt\n        /* \"#utility.yul\":10666:10783   */\n      iszero\n      tag_363\n      jumpi\n        /* \"#utility.yul\":10702:10781   */\n      tag_364\n      tag_181\n      jump\t// in\n    tag_364:\n        /* \"#utility.yul\":10666:10783   */\n    tag_363:\n        /* \"#utility.yul\":10807:10870   */\n      tag_365\n        /* \"#utility.yul\":10862:10869   */\n      dup12\n        /* \"#utility.yul\":10853:10859   */\n      dup3\n        /* \"#utility.yul\":10842:10851   */\n      dup13\n        /* \"#utility.yul\":10838:10860   */\n      add\n        /* \"#utility.yul\":10807:10870   */\n      tag_191\n      jump\t// in\n    tag_365:\n        /* \"#utility.yul\":10797:10870   */\n      swap8\n      pop\n        /* \"#utility.yul\":10592:10880   */\n      pop\n        /* \"#utility.yul\":10947:10949   */\n      0x40\n        /* \"#utility.yul\":10936:10945   */\n      dup10\n        /* \"#utility.yul\":10932:10950   */\n      add\n        /* \"#utility.yul\":10919:10951   */\n      calldataload\n        /* \"#utility.yul\":10978:10996   */\n      0xffffffffffffffff\n        /* \"#utility.yul\":10970:10976   */\n      dup2\n        /* \"#utility.yul\":10967:10997   */\n      gt\n        /* \"#utility.yul\":10964:11081   */\n      iszero\n      tag_366\n      jumpi\n        /* \"#utility.yul\":11000:11079   */\n      tag_367\n      tag_181\n      jump\t// in\n    tag_367:\n        /* \"#utility.yul\":10964:11081   */\n    tag_366:\n        /* \"#utility.yul\":11105:11168   */\n      tag_368\n        /* \"#utility.yul\":11160:11167   */\n      dup12\n        /* \"#utility.yul\":11151:11157   */\n      dup3\n        /* \"#utility.yul\":11140:11149   */\n      dup13\n        /* \"#utility.yul\":11136:11158   */\n      add\n        /* \"#utility.yul\":11105:11168   */\n      tag_191\n      jump\t// in\n    tag_368:\n        /* \"#utility.yul\":11095:11168   */\n      swap7\n      pop\n        /* \"#utility.yul\":10890:11178   */\n      pop\n        /* \"#utility.yul\":11245:11247   */\n      0x60\n        /* \"#utility.yul\":11234:11243   */\n      dup10\n        /* \"#utility.yul\":11230:11248   */\n      add\n        /* \"#utility.yul\":11217:11249   */\n      calldataload\n        /* \"#utility.yul\":11276:11294   */\n      0xffffffffffffffff\n        /* \"#utility.yul\":11268:11274   */\n      dup2\n        /* \"#utility.yul\":11265:11295   */\n      gt\n        /* \"#utility.yul\":11262:11379   */\n      iszero\n      tag_369\n      jumpi\n        /* \"#utility.yul\":11298:11377   */\n      tag_370\n      tag_181\n      jump\t// in\n    tag_370:\n        /* \"#utility.yul\":11262:11379   */\n    tag_369:\n        /* \"#utility.yul\":11403:11466   */\n      tag_371\n        /* \"#utility.yul\":11458:11465   */\n      dup12\n        /* \"#utility.yul\":11449:11455   */\n      dup3\n        /* \"#utility.yul\":11438:11447   */\n      dup13\n        /* \"#utility.yul\":11434:11456   */\n      add\n        /* \"#utility.yul\":11403:11466   */\n      tag_191\n      jump\t// in\n    tag_371:\n        /* \"#utility.yul\":11393:11466   */\n      swap6\n      pop\n        /* \"#utility.yul\":11188:11476   */\n      pop\n        /* \"#utility.yul\":11543:11546   */\n      0x80\n        /* \"#utility.yul\":11532:11541   */\n      dup10\n        /* \"#utility.yul\":11528:11547   */\n      add\n        /* \"#utility.yul\":11515:11548   */\n      calldataload\n        /* \"#utility.yul\":11575:11593   */\n      0xffffffffffffffff\n        /* \"#utility.yul\":11567:11573   */\n      dup2\n        /* \"#utility.yul\":11564:11594   */\n      gt\n        /* \"#utility.yul\":11561:11678   */\n      iszero\n      tag_372\n      jumpi\n        /* \"#utility.yul\":11597:11676   */\n      tag_373\n      tag_181\n      jump\t// in\n    tag_373:\n        /* \"#utility.yul\":11561:11678   */\n    tag_372:\n        /* \"#utility.yul\":11702:11765   */\n      tag_374\n        /* \"#utility.yul\":11757:11764   */\n      dup12\n        /* \"#utility.yul\":11748:11754   */\n      dup3\n        /* \"#utility.yul\":11737:11746   */\n      dup13\n        /* \"#utility.yul\":11733:11755   */\n      add\n        /* \"#utility.yul\":11702:11765   */\n      tag_191\n      jump\t// in\n    tag_374:\n        /* \"#utility.yul\":11692:11765   */\n      swap5\n      pop\n        /* \"#utility.yul\":11486:11775   */\n      pop\n        /* \"#utility.yul\":11814:11817   */\n      0xa0\n        /* \"#utility.yul\":11841:11894   */\n      tag_375\n        /* \"#utility.yul\":11886:11893   */\n      dup12\n        /* \"#utility.yul\":11877:11883   */\n      dup3\n        /* \"#utility.yul\":11866:11875   */\n      dup13\n        /* \"#utility.yul\":11862:11884   */\n      add\n        /* \"#utility.yul\":11841:11894   */\n      tag_194\n      jump\t// in\n    tag_375:\n        /* \"#utility.yul\":11831:11894   */\n      swap4\n      pop\n        /* \"#utility.yul\":11785:11904   */\n      pop\n        /* \"#utility.yul\":11943:11946   */\n      0xc0\n        /* \"#utility.yul\":11970:12023   */\n      tag_376\n        /* \"#utility.yul\":12015:12022   */\n      dup12\n        /* \"#utility.yul\":12006:12012   */\n      dup3\n        /* \"#utility.yul\":11995:12004   */\n      dup13\n        /* \"#utility.yul\":11991:12013   */\n      add\n        /* \"#utility.yul\":11970:12023   */\n      tag_194\n      jump\t// in\n    tag_376:\n        /* \"#utility.yul\":11960:12023   */\n      swap3\n      pop\n        /* \"#utility.yul\":11914:12033   */\n      pop\n        /* \"#utility.yul\":12100:12103   */\n      0xe0\n        /* \"#utility.yul\":12089:12098   */\n      dup10\n        /* \"#utility.yul\":12085:12104   */\n      add\n        /* \"#utility.yul\":12072:12105   */\n      calldataload\n        /* \"#utility.yul\":12132:12150   */\n      0xffffffffffffffff\n        /* \"#utility.yul\":12124:12130   */\n      dup2\n        /* \"#utility.yul\":12121:12151   */\n      gt\n        /* \"#utility.yul\":12118:12235   */\n      iszero\n      tag_377\n      jumpi\n        /* \"#utility.yul\":12154:12233   */\n      tag_378\n      tag_181\n      jump\t// in\n    tag_378:\n        /* \"#utility.yul\":12118:12235   */\n    tag_377:\n        /* \"#utility.yul\":12259:12358   */\n      tag_379\n        /* \"#utility.yul\":12350:12357   */\n      dup12\n        /* \"#utility.yul\":12341:12347   */\n      dup3\n        /* \"#utility.yul\":12330:12339   */\n      dup13\n        /* \"#utility.yul\":12326:12348   */\n      add\n        /* \"#utility.yul\":12259:12358   */\n      tag_207\n      jump\t// in\n    tag_379:\n        /* \"#utility.yul\":12249:12358   */\n      swap2\n      pop\n        /* \"#utility.yul\":12043:12368   */\n      pop\n        /* \"#utility.yul\":9874:12375   */\n      swap3\n      swap6\n      swap9\n      pop\n      swap3\n      swap6\n      swap9\n      swap1\n      swap4\n      swap7\n      pop\n      jump\t// out\n        /* \"#utility.yul\":12381:12855   */\n    tag_24:\n        /* \"#utility.yul\":12449:12455   */\n      0x00\n        /* \"#utility.yul\":12457:12463   */\n      dup1\n        /* \"#utility.yul\":12506:12508   */\n      0x40\n        /* \"#utility.yul\":12494:12503   */\n      dup4\n        /* \"#utility.yul\":12485:12492   */\n      dup6\n        /* \"#utility.yul\":12481:12504   */\n      sub\n        /* \"#utility.yul\":12477:12509   */\n      slt\n        /* \"#utility.yul\":12474:12593   */\n      iszero\n      tag_381\n      jumpi\n        /* \"#utility.yul\":12512:12591   */\n      tag_382\n      tag_180\n      jump\t// in\n    tag_382:\n        /* \"#utility.yul\":12474:12593   */\n    tag_381:\n        /* \"#utility.yul\":12632:12633   */\n      0x00\n        /* \"#utility.yul\":12657:12710   */\n      tag_383\n        /* \"#utility.yul\":12702:12709   */\n      dup6\n        /* \"#utility.yul\":12693:12699   */\n      dup3\n        /* \"#utility.yul\":12682:12691   */\n      dup7\n        /* \"#utility.yul\":12678:12700   */\n      add\n        /* \"#utility.yul\":12657:12710   */\n      tag_194\n      jump\t// in\n    tag_383:\n        /* \"#utility.yul\":12647:12710   */\n      swap3\n      pop\n        /* \"#utility.yul\":12603:12720   */\n      pop\n        /* \"#utility.yul\":12759:12761   */\n      0x20\n        /* \"#utility.yul\":12785:12838   */\n      tag_384\n        /* \"#utility.yul\":12830:12837   */\n      dup6\n        /* \"#utility.yul\":12821:12827   */\n      dup3\n        /* \"#utility.yul\":12810:12819   */\n      dup7\n        /* \"#utility.yul\":12806:12828   */\n      add\n        /* \"#utility.yul\":12785:12838   */\n      tag_194\n      jump\t// in\n    tag_384:\n        /* \"#utility.yul\":12775:12838   */\n      swap2\n      pop\n        /* \"#utility.yul\":12730:12848   */\n      pop\n        /* \"#utility.yul\":12381:12855   */\n      swap3\n      pop\n      swap3\n      swap1\n      pop\n      jump\t// out\n        /* \"#utility.yul\":12861:13190   */\n    tag_28:\n        /* \"#utility.yul\":12920:12926   */\n      0x00\n        /* \"#utility.yul\":12969:12971   */\n      0x20\n        /* \"#utility.yul\":12957:12966   */\n      dup3\n        /* \"#utility.yul\":12948:12955   */\n      dup5\n        /* \"#utility.yul\":12944:12967   */\n      sub\n        /* \"#utility.yul\":12940:12972   */\n      slt\n        /* \"#utility.yul\":12937:13056   */\n      iszero\n      tag_386\n      jumpi\n        /* \"#utility.yul\":12975:13054   */\n      tag_387\n      tag_180\n      jump\t// in\n    tag_387:\n        /* \"#utility.yul\":12937:13056   */\n    tag_386:\n        /* \"#utility.yul\":13095:13096   */\n      0x00\n        /* \"#utility.yul\":13120:13173   */\n      tag_388\n        /* \"#utility.yul\":13165:13172   */\n      dup5\n        /* \"#utility.yul\":13156:13162   */\n      dup3\n        /* \"#utility.yul\":13145:13154   */\n      dup6\n        /* \"#utility.yul\":13141:13163   */\n      add\n        /* \"#utility.yul\":13120:13173   */\n      tag_194\n      jump\t// in\n    tag_388:\n        /* \"#utility.yul\":13110:13173   */\n      swap2\n      pop\n        /* \"#utility.yul\":13066:13183   */\n      pop\n        /* \"#utility.yul\":12861:13190   */\n      swap3\n      swap2\n      pop\n      pop\n      jump\t// out\n        /* \"#utility.yul\":13196:13295   */\n    tag_208:\n        /* \"#utility.yul\":13248:13254   */\n      0x00\n        /* \"#utility.yul\":13282:13287   */\n      dup2\n        /* \"#utility.yul\":13276:13288   */\n      mload\n        /* \"#utility.yul\":13266:13288   */\n      swap1\n      pop\n        /* \"#utility.yul\":13196:13295   */\n      swap2\n      swap1\n      pop\n      jump\t// out\n        /* \"#utility.yul\":13301:13470   */\n    tag_209:\n        /* \"#utility.yul\":13385:13396   */\n      0x00\n        /* \"#utility.yul\":13419:13425   */\n      dup3\n        /* \"#utility.yul\":13414:13417   */\n      dup3\n        /* \"#utility.yul\":13407:13426   */\n      mstore\n        /* \"#utility.yul\":13459:13463   */\n      0x20\n        /* \"#utility.yul\":13454:13457   */\n      dup3\n        /* \"#utility.yul\":13450:13464   */\n      add\n        /* \"#utility.yul\":13435:13464   */\n      swap1\n      pop\n        /* \"#utility.yul\":13301:13470   */\n      swap3\n      swap2\n      pop\n      pop\n      jump\t// out\n        /* \"#utility.yul\":13476:13722   */\n    tag_210:\n        /* \"#utility.yul\":13557:13558   */\n      0x00\n        /* \"#utility.yul\":13567:13680   */\n    tag_392:\n        /* \"#utility.yul\":13581:13587   */\n      dup4\n        /* \"#utility.yul\":13578:13579   */\n      dup2\n        /* \"#utility.yul\":13575:13588   */\n      lt\n        /* \"#utility.yul\":13567:13680   */\n      iszero\n      tag_394\n      jumpi\n        /* \"#utility.yul\":13666:13667   */\n      dup1\n        /* \"#utility.yul\":13661:13664   */\n      dup3\n        /* \"#utility.yul\":13657:13668   */\n      add\n        /* \"#utility.yul\":13651:13669   */\n      mload\n        /* \"#utility.yul\":13647:13648   */\n      dup2\n        /* \"#utility.yul\":13642:13645   */\n      dup5\n        /* \"#utility.yul\":13638:13649   */\n      add\n        /* \"#utility.yul\":13631:13670   */\n      mstore\n        /* \"#utility.yul\":13603:13605   */\n      0x20\n        /* \"#utility.yul\":13600:13601   */\n      dup2\n        /* \"#utility.yul\":13596:13606   */\n      add\n        /* \"#utility.yul\":13591:13606   */\n      swap1\n      pop\n        /* \"#utility.yul\":13567:13680   */\n      jump(tag_392)\n    tag_394:\n        /* \"#utility.yul\":13714:13715   */\n      0x00\n        /* \"#utility.yul\":13705:13711   */\n      dup5\n        /* \"#utility.yul\":13700:13703   */\n      dup5\n        /* \"#utility.yul\":13696:13712   */\n      add\n        /* \"#utility.yul\":13689:13716   */\n      mstore\n        /* \"#utility.yul\":13538:13722   */\n      pop\n        /* \"#utility.yul\":13476:13722   */\n      pop\n      pop\n      pop\n      jump\t// out\n        /* \"#utility.yul\":13728:14105   */\n    tag_211:\n        /* \"#utility.yul\":13816:13819   */\n      0x00\n        /* \"#utility.yul\":13844:13883   */\n      tag_396\n        /* \"#utility.yul\":13877:13882   */\n      dup3\n        /* \"#utility.yul\":13844:13883   */\n      tag_208\n      jump\t// in\n    tag_396:\n        /* \"#utility.yul\":13899:13970   */\n      tag_397\n        /* \"#utility.yul\":13963:13969   */\n      dup2\n        /* \"#utility.yul\":13958:13961   */\n      dup6\n        /* \"#utility.yul\":13899:13970   */\n      tag_209\n      jump\t// in\n    tag_397:\n        /* \"#utility.yul\":13892:13970   */\n      swap4\n      pop\n        /* \"#utility.yul\":13979:14044   */\n      tag_398\n        /* \"#utility.yul\":14037:14043   */\n      dup2\n        /* \"#utility.yul\":14032:14035   */\n      dup6\n        /* \"#utility.yul\":14025:14029   */\n      0x20\n        /* \"#utility.yul\":14018:14023   */\n      dup7\n        /* \"#utility.yul\":14014:14030   */\n      add\n        /* \"#utility.yul\":13979:14044   */\n      tag_210\n      jump\t// in\n    tag_398:\n        /* \"#utility.yul\":14069:14098   */\n      tag_399\n        /* \"#utility.yul\":14091:14097   */\n      dup2\n        /* \"#utility.yul\":14069:14098   */\n      tag_184\n      jump\t// in\n    tag_399:\n        /* \"#utility.yul\":14064:14067   */\n      dup5\n        /* \"#utility.yul\":14060:14099   */\n      add\n        /* \"#utility.yul\":14053:14099   */\n      swap2\n      pop\n        /* \"#utility.yul\":13820:14105   */\n      pop\n        /* \"#utility.yul\":13728:14105   */\n      swap3\n      swap2\n      pop\n      pop\n      jump\t// out\n        /* \"#utility.yul\":14111:14424   */\n    tag_31:\n        /* \"#utility.yul\":14224:14228   */\n      0x00\n        /* \"#utility.yul\":14262:14264   */\n      0x20\n        /* \"#utility.yul\":14251:14260   */\n      dup3\n        /* \"#utility.yul\":14247:14265   */\n      add\n        /* \"#utility.yul\":14239:14265   */\n      swap1\n      pop\n        /* \"#utility.yul\":14311:14320   */\n      dup2\n        /* \"#utility.yul\":14305:14309   */\n      dup2\n        /* \"#utility.yul\":14301:14321   */\n      sub\n        /* \"#utility.yul\":14297:14298   */\n      0x00\n        /* \"#utility.yul\":14286:14295   */\n      dup4\n        /* \"#utility.yul\":14282:14299   */\n      add\n        /* \"#utility.yul\":14275:14322   */\n      mstore\n        /* \"#utility.yul\":14339:14417   */\n      tag_401\n        /* \"#utility.yul\":14412:14416   */\n      dup2\n        /* \"#utility.yul\":14403:14409   */\n      dup5\n        /* \"#utility.yul\":14339:14417   */\n      tag_211\n      jump\t// in\n    tag_401:\n        /* \"#utility.yul\":14331:14417   */\n      swap1\n      pop\n        /* \"#utility.yul\":14111:14424   */\n      swap3\n      swap2\n      pop\n      pop\n      jump\t// out\n        /* \"#utility.yul\":14430:14554   */\n    tag_212:\n        /* \"#utility.yul\":14507:14513   */\n      0x00\n        /* \"#utility.yul\":14541:14546   */\n      dup2\n        /* \"#utility.yul\":14535:14547   */\n      mload\n        /* \"#utility.yul\":14525:14547   */\n      swap1\n      pop\n        /* \"#utility.yul\":14430:14554   */\n      swap2\n      swap1\n      pop\n      jump\t// out\n        /* \"#utility.yul\":14560:14754   */\n    tag_213:\n        /* \"#utility.yul\":14669:14680   */\n      0x00\n        /* \"#utility.yul\":14703:14709   */\n      dup3\n        /* \"#utility.yul\":14698:14701   */\n      dup3\n        /* \"#utility.yul\":14691:14710   */\n      mstore\n        /* \"#utility.yul\":14743:14747   */\n      0x20\n        /* \"#utility.yul\":14738:14741   */\n      dup3\n        /* \"#utility.yul\":14734:14748   */\n      add\n        /* \"#utility.yul\":14719:14748   */\n      swap1\n      pop\n        /* \"#utility.yul\":14560:14754   */\n      swap3\n      swap2\n      pop\n      pop\n      jump\t// out\n        /* \"#utility.yul\":14760:14902   */\n    tag_214:\n        /* \"#utility.yul\":14837:14841   */\n      0x00\n        /* \"#utility.yul\":14860:14863   */\n      dup2\n        /* \"#utility.yul\":14852:14863   */\n      swap1\n      pop\n        /* \"#utility.yul\":14890:14894   */\n      0x20\n        /* \"#utility.yul\":14885:14888   */\n      dup3\n        /* \"#utility.yul\":14881:14895   */\n      add\n        /* \"#utility.yul\":14873:14895   */\n      swap1\n      pop\n        /* \"#utility.yul\":14760:14902   */\n      swap2\n      swap1\n      pop\n      jump\t// out\n        /* \"#utility.yul\":14908:15067   */\n    tag_215:\n        /* \"#utility.yul\":14982:14993   */\n      0x00\n        /* \"#utility.yul\":15016:15022   */\n      dup3\n        /* \"#utility.yul\":15011:15014   */\n      dup3\n        /* \"#utility.yul\":15004:15023   */\n      mstore\n        /* \"#utility.yul\":15056:15060   */\n      0x20\n        /* \"#utility.yul\":15051:15054   */\n      dup3\n        /* \"#utility.yul\":15047:15061   */\n      add\n        /* \"#utility.yul\":15032:15061   */\n      swap1\n      pop\n        /* \"#utility.yul\":14908:15067   */\n      swap3\n      swap2\n      pop\n      pop\n      jump\t// out\n        /* \"#utility.yul\":15073:15430   */\n    tag_216:\n        /* \"#utility.yul\":15151:15154   */\n      0x00\n        /* \"#utility.yul\":15179:15218   */\n      tag_407\n        /* \"#utility.yul\":15212:15217   */\n      dup3\n        /* \"#utility.yul\":15179:15218   */\n      tag_208\n      jump\t// in\n    tag_407:\n        /* \"#utility.yul\":15234:15295   */\n      tag_408\n        /* \"#utility.yul\":15288:15294   */\n      dup2\n        /* \"#utility.yul\":15283:15286   */\n      dup6\n        /* \"#utility.yul\":15234:15295   */\n      tag_215\n      jump\t// in\n    tag_408:\n        /* \"#utility.yul\":15227:15295   */\n      swap4\n      pop\n        /* \"#utility.yul\":15304:15369   */\n      tag_409\n        /* \"#utility.yul\":15362:15368   */\n      dup2\n        /* \"#utility.yul\":15357:15360   */\n      dup6\n        /* \"#utility.yul\":15350:15354   */\n      0x20\n        /* \"#utility.yul\":15343:15348   */\n      dup7\n        /* \"#utility.yul\":15339:15355   */\n      add\n        /* \"#utility.yul\":15304:15369   */\n      tag_210\n      jump\t// in\n    tag_409:\n        /* \"#utility.yul\":15394:15423   */\n      tag_410\n        /* \"#utility.yul\":15416:15422   */\n      dup2\n        /* \"#utility.yul\":15394:15423   */\n      tag_184\n      jump\t// in\n    tag_410:\n        /* \"#utility.yul\":15389:15392   */\n      dup5\n        /* \"#utility.yul\":15385:15424   */\n      add\n        /* \"#utility.yul\":15378:15424   */\n      swap2\n      pop\n        /* \"#utility.yul\":15155:15430   */\n      pop\n        /* \"#utility.yul\":15073:15430   */\n      swap3\n      swap2\n      pop\n      pop\n      jump\t// out\n        /* \"#utility.yul\":15436:15632   */\n    tag_217:\n        /* \"#utility.yul\":15525:15535   */\n      0x00\n        /* \"#utility.yul\":15560:15626   */\n      tag_412\n        /* \"#utility.yul\":15622:15625   */\n      dup4\n        /* \"#utility.yul\":15614:15620   */\n      dup4\n        /* \"#utility.yul\":15560:15626   */\n      tag_216\n      jump\t// in\n    tag_412:\n        /* \"#utility.yul\":15546:15626   */\n      swap1\n      pop\n        /* \"#utility.yul\":15436:15632   */\n      swap3\n      swap2\n      pop\n      pop\n      jump\t// out\n        /* \"#utility.yul\":15638:15761   */\n    tag_218:\n        /* \"#utility.yul\":15718:15722   */\n      0x00\n        /* \"#utility.yul\":15750:15754   */\n      0x20\n        /* \"#utility.yul\":15745:15748   */\n      dup3\n        /* \"#utility.yul\":15741:15755   */\n      add\n        /* \"#utility.yul\":15733:15755   */\n      swap1\n      pop\n        /* \"#utility.yul\":15638:15761   */\n      swap2\n      swap1\n      pop\n      jump\t// out\n        /* \"#utility.yul\":15795:16786   */\n    tag_219:\n        /* \"#utility.yul\":15934:15937   */\n      0x00\n        /* \"#utility.yul\":15963:16027   */\n      tag_415\n        /* \"#utility.yul\":16021:16026   */\n      dup3\n        /* \"#utility.yul\":15963:16027   */\n      tag_212\n      jump\t// in\n    tag_415:\n        /* \"#utility.yul\":16043:16139   */\n      tag_416\n        /* \"#utility.yul\":16132:16138   */\n      dup2\n        /* \"#utility.yul\":16127:16130   */\n      dup6\n        /* \"#utility.yul\":16043:16139   */\n      tag_213\n      jump\t// in\n    tag_416:\n        /* \"#utility.yul\":16036:16139   */\n      swap4\n      pop\n        /* \"#utility.yul\":16165:16168   */\n      dup4\n        /* \"#utility.yul\":16210:16214   */\n      0x20\n        /* \"#utility.yul\":16202:16208   */\n      dup3\n        /* \"#utility.yul\":16198:16215   */\n      mul\n        /* \"#utility.yul\":16193:16196   */\n      dup6\n        /* \"#utility.yul\":16189:16216   */\n      add\n        /* \"#utility.yul\":16240:16306   */\n      tag_417\n        /* \"#utility.yul\":16300:16305   */\n      dup6\n        /* \"#utility.yul\":16240:16306   */\n      tag_214\n      jump\t// in\n    tag_417:\n        /* \"#utility.yul\":16329:16336   */\n      dup1\n        /* \"#utility.yul\":16360:16361   */\n      0x00\n        /* \"#utility.yul\":16345:16741   */\n    tag_418:\n        /* \"#utility.yul\":16370:16376   */\n      dup6\n        /* \"#utility.yul\":16367:16368   */\n      dup2\n        /* \"#utility.yul\":16364:16377   */\n      lt\n        /* \"#utility.yul\":16345:16741   */\n      iszero\n      tag_420\n      jumpi\n        /* \"#utility.yul\":16441:16450   */\n      dup5\n        /* \"#utility.yul\":16435:16439   */\n      dup5\n        /* \"#utility.yul\":16431:16451   */\n      sub\n        /* \"#utility.yul\":16426:16429   */\n      dup10\n        /* \"#utility.yul\":16419:16452   */\n      mstore\n        /* \"#utility.yul\":16492:16498   */\n      dup2\n        /* \"#utility.yul\":16486:16499   */\n      mload\n        /* \"#utility.yul\":16520:16604   */\n      tag_421\n        /* \"#utility.yul\":16599:16603   */\n      dup6\n        /* \"#utility.yul\":16584:16597   */\n      dup3\n        /* \"#utility.yul\":16520:16604   */\n      tag_217\n      jump\t// in\n    tag_421:\n        /* \"#utility.yul\":16512:16604   */\n      swap5\n      pop\n        /* \"#utility.yul\":16627:16697   */\n      tag_422\n        /* \"#utility.yul\":16690:16696   */\n      dup4\n        /* \"#utility.yul\":16627:16697   */\n      tag_218\n      jump\t// in\n    tag_422:\n        /* \"#utility.yul\":16617:16697   */\n      swap3\n      pop\n        /* \"#utility.yul\":16726:16730   */\n      0x20\n        /* \"#utility.yul\":16721:16724   */\n      dup11\n        /* \"#utility.yul\":16717:16731   */\n      add\n        /* \"#utility.yul\":16710:16731   */\n      swap10\n      pop\n        /* \"#utility.yul\":16405:16741   */\n      pop\n        /* \"#utility.yul\":16392:16393   */\n      0x01\n        /* \"#utility.yul\":16389:16390   */\n      dup2\n        /* \"#utility.yul\":16385:16394   */\n      add\n        /* \"#utility.yul\":16380:16394   */\n      swap1\n      pop\n        /* \"#utility.yul\":16345:16741   */\n      jump(tag_418)\n    tag_420:\n        /* \"#utility.yul\":16349:16363   */\n      pop\n        /* \"#utility.yul\":16757:16761   */\n      dup3\n        /* \"#utility.yul\":16750:16761   */\n      swap8\n      pop\n        /* \"#utility.yul\":16777:16780   */\n      dup8\n        /* \"#utility.yul\":16770:16780   */\n      swap6\n      pop\n        /* \"#utility.yul\":15939:16786   */\n      pop\n      pop\n      pop\n      pop\n      pop\n        /* \"#utility.yul\":15795:16786   */\n      swap3\n      swap2\n      pop\n      pop\n      jump\t// out\n        /* \"#utility.yul\":16792:17205   */\n    tag_35:\n        /* \"#utility.yul\":16955:16959   */\n      0x00\n        /* \"#utility.yul\":16993:16995   */\n      0x20\n        /* \"#utility.yul\":16982:16991   */\n      dup3\n        /* \"#utility.yul\":16978:16996   */\n      add\n        /* \"#utility.yul\":16970:16996   */\n      swap1\n      pop\n        /* \"#utility.yul\":17042:17051   */\n      dup2\n        /* \"#utility.yul\":17036:17040   */\n      dup2\n        /* \"#utility.yul\":17032:17052   */\n      sub\n        /* \"#utility.yul\":17028:17029   */\n      0x00\n        /* \"#utility.yul\":17017:17026   */\n      dup4\n        /* \"#utility.yul\":17013:17030   */\n      add\n        /* \"#utility.yul\":17006:17053   */\n      mstore\n        /* \"#utility.yul\":17070:17198   */\n      tag_424\n        /* \"#utility.yul\":17193:17197   */\n      dup2\n        /* \"#utility.yul\":17184:17190   */\n      dup5\n        /* \"#utility.yul\":17070:17198   */\n      tag_219\n      jump\t// in\n    tag_424:\n        /* \"#utility.yul\":17062:17198   */\n      swap1\n      pop\n        /* \"#utility.yul\":16792:17205   */\n      swap3\n      swap2\n      pop\n      pop\n      jump\t// out\n        /* \"#utility.yul\":17211:17329   */\n    tag_220:\n        /* \"#utility.yul\":17298:17322   */\n      tag_426\n        /* \"#utility.yul\":17316:17321   */\n      dup2\n        /* \"#utility.yul\":17298:17322   */\n      tag_192\n      jump\t// in\n    tag_426:\n        /* \"#utility.yul\":17293:17296   */\n      dup3\n        /* \"#utility.yul\":17286:17323   */\n      mstore\n        /* \"#utility.yul\":17211:17329   */\n      pop\n      pop\n      jump\t// out\n        /* \"#utility.yul\":17335:17444   */\n    tag_221:\n        /* \"#utility.yul\":17416:17437   */\n      tag_428\n        /* \"#utility.yul\":17431:17436   */\n      dup2\n        /* \"#utility.yul\":17416:17437   */\n      tag_202\n      jump\t// in\n    tag_428:\n        /* \"#utility.yul\":17411:17414   */\n      dup3\n        /* \"#utility.yul\":17404:17438   */\n      mstore\n        /* \"#utility.yul\":17335:17444   */\n      pop\n      pop\n      jump\t// out\n        /* \"#utility.yul\":17450:18799   */\n    tag_40:\n        /* \"#utility.yul\":17813:17817   */\n      0x00\n        /* \"#utility.yul\":17851:17854   */\n      0x0100\n        /* \"#utility.yul\":17840:17849   */\n      dup3\n        /* \"#utility.yul\":17836:17855   */\n      add\n        /* \"#utility.yul\":17828:17855   */\n      swap1\n      pop\n        /* \"#utility.yul\":17901:17910   */\n      dup2\n        /* \"#utility.yul\":17895:17899   */\n      dup2\n        /* \"#utility.yul\":17891:17911   */\n      sub\n        /* \"#utility.yul\":17887:17888   */\n      0x00\n        /* \"#utility.yul\":17876:17885   */\n      dup4\n        /* \"#utility.yul\":17872:17889   */\n      add\n        /* \"#utility.yul\":17865:17912   */\n      mstore\n        /* \"#utility.yul\":17929:18007   */\n      tag_430\n        /* \"#utility.yul\":18002:18006   */\n      dup2\n        /* \"#utility.yul\":17993:17999   */\n      dup12\n        /* \"#utility.yul\":17929:18007   */\n      tag_211\n      jump\t// in\n    tag_430:\n        /* \"#utility.yul\":17921:18007   */\n      swap1\n      pop\n        /* \"#utility.yul\":18054:18063   */\n      dup2\n        /* \"#utility.yul\":18048:18052   */\n      dup2\n        /* \"#utility.yul\":18044:18064   */\n      sub\n        /* \"#utility.yul\":18039:18041   */\n      0x20\n        /* \"#utility.yul\":18028:18037   */\n      dup4\n        /* \"#utility.yul\":18024:18042   */\n      add\n        /* \"#utility.yul\":18017:18065   */\n      mstore\n        /* \"#utility.yul\":18082:18160   */\n      tag_431\n        /* \"#utility.yul\":18155:18159   */\n      dup2\n        /* \"#utility.yul\":18146:18152   */\n      dup11\n        /* \"#utility.yul\":18082:18160   */\n      tag_211\n      jump\t// in\n    tag_431:\n        /* \"#utility.yul\":18074:18160   */\n      swap1\n      pop\n        /* \"#utility.yul\":18207:18216   */\n      dup2\n        /* \"#utility.yul\":18201:18205   */\n      dup2\n        /* \"#utility.yul\":18197:18217   */\n      sub\n        /* \"#utility.yul\":18192:18194   */\n      0x40\n        /* \"#utility.yul\":18181:18190   */\n      dup4\n        /* \"#utility.yul\":18177:18195   */\n      add\n        /* \"#utility.yul\":18170:18218   */\n      mstore\n        /* \"#utility.yul\":18235:18313   */\n      tag_432\n        /* \"#utility.yul\":18308:18312   */\n      dup2\n        /* \"#utility.yul\":18299:18305   */\n      dup10\n        /* \"#utility.yul\":18235:18313   */\n      tag_211\n      jump\t// in\n    tag_432:\n        /* \"#utility.yul\":18227:18313   */\n      swap1\n      pop\n        /* \"#utility.yul\":18360:18369   */\n      dup2\n        /* \"#utility.yul\":18354:18358   */\n      dup2\n        /* \"#utility.yul\":18350:18370   */\n      sub\n        /* \"#utility.yul\":18345:18347   */\n      0x60\n        /* \"#utility.yul\":18334:18343   */\n      dup4\n        /* \"#utility.yul\":18330:18348   */\n      add\n        /* \"#utility.yul\":18323:18371   */\n      mstore\n        /* \"#utility.yul\":18388:18466   */\n      tag_433\n        /* \"#utility.yul\":18461:18465   */\n      dup2\n        /* \"#utility.yul\":18452:18458   */\n      dup9\n        /* \"#utility.yul\":18388:18466   */\n      tag_211\n      jump\t// in\n    tag_433:\n        /* \"#utility.yul\":18380:18466   */\n      swap1\n      pop\n        /* \"#utility.yul\":18476:18549   */\n      tag_434\n        /* \"#utility.yul\":18544:18547   */\n      0x80\n        /* \"#utility.yul\":18533:18542   */\n      dup4\n        /* \"#utility.yul\":18529:18548   */\n      add\n        /* \"#utility.yul\":18520:18526   */\n      dup8\n        /* \"#utility.yul\":18476:18549   */\n      tag_220\n      jump\t// in\n    tag_434:\n        /* \"#utility.yul\":18559:18632   */\n      tag_435\n        /* \"#utility.yul\":18627:18630   */\n      0xa0\n        /* \"#utility.yul\":18616:18625   */\n      dup4\n        /* \"#utility.yul\":18612:18631   */\n      add\n        /* \"#utility.yul\":18603:18609   */\n      dup7\n        /* \"#utility.yul\":18559:18632   */\n      tag_220\n      jump\t// in\n    tag_435:\n        /* \"#utility.yul\":18642:18715   */\n      tag_436\n        /* \"#utility.yul\":18710:18713   */\n      0xc0\n        /* \"#utility.yul\":18699:18708   */\n      dup4\n        /* \"#utility.yul\":18695:18714   */\n      add\n        /* \"#utility.yul\":18686:18692   */\n      dup6\n        /* \"#utility.yul\":18642:18715   */\n      tag_220\n      jump\t// in\n    tag_436:\n        /* \"#utility.yul\":18725:18792   */\n      tag_437\n        /* \"#utility.yul\":18787:18790   */\n      0xe0\n        /* \"#utility.yul\":18776:18785   */\n      dup4\n        /* \"#utility.yul\":18772:18791   */\n      add\n        /* \"#utility.yul\":18763:18769   */\n      dup5\n        /* \"#utility.yul\":18725:18792   */\n      tag_221\n      jump\t// in\n    tag_437:\n        /* \"#utility.yul\":17450:18799   */\n      swap10\n      swap9\n      pop\n      pop\n      pop\n      pop\n      pop\n      pop\n      pop\n      pop\n      pop\n      jump\t// out\n        /* \"#utility.yul\":18805:18919   */\n    tag_222:\n        /* \"#utility.yul\":18872:18878   */\n      0x00\n        /* \"#utility.yul\":18906:18911   */\n      dup2\n        /* \"#utility.yul\":18900:18912   */\n      mload\n        /* \"#utility.yul\":18890:18912   */\n      swap1\n      pop\n        /* \"#utility.yul\":18805:18919   */\n      swap2\n      swap1\n      pop\n      jump\t// out\n        /* \"#utility.yul\":18925:19109   */\n    tag_223:\n        /* \"#utility.yul\":19024:19035   */\n      0x00\n        /* \"#utility.yul\":19058:19064   */\n      dup3\n        /* \"#utility.yul\":19053:19056   */\n      dup3\n        /* \"#utility.yul\":19046:19065   */\n      mstore\n        /* \"#utility.yul\":19098:19102   */\n      0x20\n        /* \"#utility.yul\":19093:19096   */\n      dup3\n        /* \"#utility.yul\":19089:19103   */\n      add\n        /* \"#utility.yul\":19074:19103   */\n      swap1\n      pop\n        /* \"#utility.yul\":18925:19109   */\n      swap3\n      swap2\n      pop\n      pop\n      jump\t// out\n        /* \"#utility.yul\":19115:19247   */\n    tag_224:\n        /* \"#utility.yul\":19182:19186   */\n      0x00\n        /* \"#utility.yul\":19205:19208   */\n      dup2\n        /* \"#utility.yul\":19197:19208   */\n      swap1\n      pop\n        /* \"#utility.yul\":19235:19239   */\n      0x20\n        /* \"#utility.yul\":19230:19233   */\n      dup3\n        /* \"#utility.yul\":19226:19240   */\n      add\n        /* \"#utility.yul\":19218:19240   */\n      swap1\n      pop\n        /* \"#utility.yul\":19115:19247   */\n      swap2\n      swap1\n      pop\n      jump\t// out\n        /* \"#utility.yul\":19253:19361   */\n    tag_225:\n        /* \"#utility.yul\":19330:19354   */\n      tag_442\n        /* \"#utility.yul\":19348:19353   */\n      dup2\n        /* \"#utility.yul\":19330:19354   */\n      tag_192\n      jump\t// in\n    tag_442:\n        /* \"#utility.yul\":19325:19328   */\n      dup3\n        /* \"#utility.yul\":19318:19355   */\n      mstore\n        /* \"#utility.yul\":19253:19361   */\n      pop\n      pop\n      jump\t// out\n        /* \"#utility.yul\":19367:19546   */\n    tag_226:\n        /* \"#utility.yul\":19436:19446   */\n      0x00\n        /* \"#utility.yul\":19457:19503   */\n      tag_444\n        /* \"#utility.yul\":19499:19502   */\n      dup4\n        /* \"#utility.yul\":19491:19497   */\n      dup4\n        /* \"#utility.yul\":19457:19503   */\n      tag_225\n      jump\t// in\n    tag_444:\n        /* \"#utility.yul\":19535:19539   */\n      0x20\n        /* \"#utility.yul\":19530:19533   */\n      dup4\n        /* \"#utility.yul\":19526:19540   */\n      add\n        /* \"#utility.yul\":19512:19540   */\n      swap1\n      pop\n        /* \"#utility.yul\":19367:19546   */\n      swap3\n      swap2\n      pop\n      pop\n      jump\t// out\n        /* \"#utility.yul\":19552:19665   */\n    tag_227:\n        /* \"#utility.yul\":19622:19626   */\n      0x00\n        /* \"#utility.yul\":19654:19658   */\n      0x20\n        /* \"#utility.yul\":19649:19652   */\n      dup3\n        /* \"#utility.yul\":19645:19659   */\n      add\n        /* \"#utility.yul\":19637:19659   */\n      swap1\n      pop\n        /* \"#utility.yul\":19552:19665   */\n      swap2\n      swap1\n      pop\n      jump\t// out\n        /* \"#utility.yul\":19701:20433   */\n    tag_228:\n        /* \"#utility.yul\":19820:19823   */\n      0x00\n        /* \"#utility.yul\":19849:19903   */\n      tag_447\n        /* \"#utility.yul\":19897:19902   */\n      dup3\n        /* \"#utility.yul\":19849:19903   */\n      tag_222\n      jump\t// in\n    tag_447:\n        /* \"#utility.yul\":19919:20005   */\n      tag_448\n        /* \"#utility.yul\":19998:20004   */\n      dup2\n        /* \"#utility.yul\":19993:19996   */\n      dup6\n        /* \"#utility.yul\":19919:20005   */\n      tag_223\n      jump\t// in\n    tag_448:\n        /* \"#utility.yul\":19912:20005   */\n      swap4\n      pop\n        /* \"#utility.yul\":20029:20085   */\n      tag_449\n        /* \"#utility.yul\":20079:20084   */\n      dup4\n        /* \"#utility.yul\":20029:20085   */\n      tag_224\n      jump\t// in\n    tag_449:\n        /* \"#utility.yul\":20108:20115   */\n      dup1\n        /* \"#utility.yul\":20139:20140   */\n      0x00\n        /* \"#utility.yul\":20124:20408   */\n    tag_450:\n        /* \"#utility.yul\":20149:20155   */\n      dup4\n        /* \"#utility.yul\":20146:20147   */\n      dup2\n        /* \"#utility.yul\":20143:20156   */\n      lt\n        /* \"#utility.yul\":20124:20408   */\n      iszero\n      tag_452\n      jumpi\n        /* \"#utility.yul\":20225:20231   */\n      dup2\n        /* \"#utility.yul\":20219:20232   */\n      mload\n        /* \"#utility.yul\":20252:20315   */\n      tag_453\n        /* \"#utility.yul\":20311:20314   */\n      dup9\n        /* \"#utility.yul\":20296:20309   */\n      dup3\n        /* \"#utility.yul\":20252:20315   */\n      tag_226\n      jump\t// in\n    tag_453:\n        /* \"#utility.yul\":20245:20315   */\n      swap8\n      pop\n        /* \"#utility.yul\":20338:20398   */\n      tag_454\n        /* \"#utility.yul\":20391:20397   */\n      dup4\n        /* \"#utility.yul\":20338:20398   */\n      tag_227\n      jump\t// in\n    tag_454:\n        /* \"#utility.yul\":20328:20398   */\n      swap3\n      pop\n        /* \"#utility.yul\":20184:20408   */\n      pop\n        /* \"#utility.yul\":20171:20172   */\n      0x01\n        /* \"#utility.yul\":20168:20169   */\n      dup2\n        /* \"#utility.yul\":20164:20173   */\n      add\n        /* \"#utility.yul\":20159:20173   */\n      swap1\n      pop\n        /* \"#utility.yul\":20124:20408   */\n      jump(tag_450)\n    tag_452:\n        /* \"#utility.yul\":20128:20142   */\n      pop\n        /* \"#utility.yul\":20424:20427   */\n      dup6\n        /* \"#utility.yul\":20417:20427   */\n      swap4\n      pop\n        /* \"#utility.yul\":19825:20433   */\n      pop\n      pop\n      pop\n        /* \"#utility.yul\":19701:20433   */\n      swap3\n      swap2\n      pop\n      pop\n      jump\t// out\n        /* \"#utility.yul\":20439:22352   */\n    tag_45:\n        /* \"#utility.yul\":20978:20982   */\n      0x00\n        /* \"#utility.yul\":21016:21019   */\n      0x0140\n        /* \"#utility.yul\":21005:21014   */\n      dup3\n        /* \"#utility.yul\":21001:21020   */\n      add\n        /* \"#utility.yul\":20993:21020   */\n      swap1\n      pop\n        /* \"#utility.yul\":21066:21075   */\n      dup2\n        /* \"#utility.yul\":21060:21064   */\n      dup2\n        /* \"#utility.yul\":21056:21076   */\n      sub\n        /* \"#utility.yul\":21052:21053   */\n      0x00\n        /* \"#utility.yul\":21041:21050   */\n      dup4\n        /* \"#utility.yul\":21037:21054   */\n      add\n        /* \"#utility.yul\":21030:21077   */\n      mstore\n        /* \"#utility.yul\":21094:21172   */\n      tag_456\n        /* \"#utility.yul\":21167:21171   */\n      dup2\n        /* \"#utility.yul\":21158:21164   */\n      dup14\n        /* \"#utility.yul\":21094:21172   */\n      tag_211\n      jump\t// in\n    tag_456:\n        /* \"#utility.yul\":21086:21172   */\n      swap1\n      pop\n        /* \"#utility.yul\":21219:21228   */\n      dup2\n        /* \"#utility.yul\":21213:21217   */\n      dup2\n        /* \"#utility.yul\":21209:21229   */\n      sub\n        /* \"#utility.yul\":21204:21206   */\n      0x20\n        /* \"#utility.yul\":21193:21202   */\n      dup4\n        /* \"#utility.yul\":21189:21207   */\n      add\n        /* \"#utility.yul\":21182:21230   */\n      mstore\n        /* \"#utility.yul\":21247:21325   */\n      tag_457\n        /* \"#utility.yul\":21320:21324   */\n      dup2\n        /* \"#utility.yul\":21311:21317   */\n      dup13\n        /* \"#utility.yul\":21247:21325   */\n      tag_211\n      jump\t// in\n    tag_457:\n        /* \"#utility.yul\":21239:21325   */\n      swap1\n      pop\n        /* \"#utility.yul\":21372:21381   */\n      dup2\n        /* \"#utility.yul\":21366:21370   */\n      dup2\n        /* \"#utility.yul\":21362:21382   */\n      sub\n        /* \"#utility.yul\":21357:21359   */\n      0x40\n        /* \"#utility.yul\":21346:21355   */\n      dup4\n        /* \"#utility.yul\":21342:21360   */\n      add\n        /* \"#utility.yul\":21335:21383   */\n      mstore\n        /* \"#utility.yul\":21400:21478   */\n      tag_458\n        /* \"#utility.yul\":21473:21477   */\n      dup2\n        /* \"#utility.yul\":21464:21470   */\n      dup12\n        /* \"#utility.yul\":21400:21478   */\n      tag_211\n      jump\t// in\n    tag_458:\n        /* \"#utility.yul\":21392:21478   */\n      swap1\n      pop\n        /* \"#utility.yul\":21525:21534   */\n      dup2\n        /* \"#utility.yul\":21519:21523   */\n      dup2\n        /* \"#utility.yul\":21515:21535   */\n      sub\n        /* \"#utility.yul\":21510:21512   */\n      0x60\n        /* \"#utility.yul\":21499:21508   */\n      dup4\n        /* \"#utility.yul\":21495:21513   */\n      add\n        /* \"#utility.yul\":21488:21536   */\n      mstore\n        /* \"#utility.yul\":21553:21631   */\n      tag_459\n        /* \"#utility.yul\":21626:21630   */\n      dup2\n        /* \"#utility.yul\":21617:21623   */\n      dup11\n        /* \"#utility.yul\":21553:21631   */\n      tag_211\n      jump\t// in\n    tag_459:\n        /* \"#utility.yul\":21545:21631   */\n      swap1\n      pop\n        /* \"#utility.yul\":21641:21714   */\n      tag_460\n        /* \"#utility.yul\":21709:21712   */\n      0x80\n        /* \"#utility.yul\":21698:21707   */\n      dup4\n        /* \"#utility.yul\":21694:21713   */\n      add\n        /* \"#utility.yul\":21685:21691   */\n      dup10\n        /* \"#utility.yul\":21641:21714   */\n      tag_220\n      jump\t// in\n    tag_460:\n        /* \"#utility.yul\":21724:21797   */\n      tag_461\n        /* \"#utility.yul\":21792:21795   */\n      0xa0\n        /* \"#utility.yul\":21781:21790   */\n      dup4\n        /* \"#utility.yul\":21777:21796   */\n      add\n        /* \"#utility.yul\":21768:21774   */\n      dup9\n        /* \"#utility.yul\":21724:21797   */\n      tag_220\n      jump\t// in\n    tag_461:\n        /* \"#utility.yul\":21807:21880   */\n      tag_462\n        /* \"#utility.yul\":21875:21878   */\n      0xc0\n        /* \"#utility.yul\":21864:21873   */\n      dup4\n        /* \"#utility.yul\":21860:21879   */\n      add\n        /* \"#utility.yul\":21851:21857   */\n      dup8\n        /* \"#utility.yul\":21807:21880   */\n      tag_220\n      jump\t// in\n    tag_462:\n        /* \"#utility.yul\":21890:21957   */\n      tag_463\n        /* \"#utility.yul\":21952:21955   */\n      0xe0\n        /* \"#utility.yul\":21941:21950   */\n      dup4\n        /* \"#utility.yul\":21937:21956   */\n      add\n        /* \"#utility.yul\":21928:21934   */\n      dup7\n        /* \"#utility.yul\":21890:21957   */\n      tag_221\n      jump\t// in\n    tag_463:\n        /* \"#utility.yul\":22005:22014   */\n      dup2\n        /* \"#utility.yul\":21999:22003   */\n      dup2\n        /* \"#utility.yul\":21995:22015   */\n      sub\n        /* \"#utility.yul\":21989:21992   */\n      0x0100\n        /* \"#utility.yul\":21978:21987   */\n      dup4\n        /* \"#utility.yul\":21974:21993   */\n      add\n        /* \"#utility.yul\":21967:22016   */\n      mstore\n        /* \"#utility.yul\":22033:22141   */\n      tag_464\n        /* \"#utility.yul\":22136:22140   */\n      dup2\n        /* \"#utility.yul\":22127:22133   */\n      dup6\n        /* \"#utility.yul\":22033:22141   */\n      tag_228\n      jump\t// in\n    tag_464:\n        /* \"#utility.yul\":22025:22141   */\n      swap1\n      pop\n        /* \"#utility.yul\":22189:22198   */\n      dup2\n        /* \"#utility.yul\":22183:22187   */\n      dup2\n        /* \"#utility.yul\":22179:22199   */\n      sub\n        /* \"#utility.yul\":22173:22176   */\n      0x0120\n        /* \"#utility.yul\":22162:22171   */\n      dup4\n        /* \"#utility.yul\":22158:22177   */\n      add\n        /* \"#utility.yul\":22151:22200   */\n      mstore\n        /* \"#utility.yul\":22217:22345   */\n      tag_465\n        /* \"#utility.yul\":22340:22344   */\n      dup2\n        /* \"#utility.yul\":22331:22337   */\n      dup5\n        /* \"#utility.yul\":22217:22345   */\n      tag_219\n      jump\t// in\n    tag_465:\n        /* \"#utility.yul\":22209:22345   */\n      swap1\n      pop\n        /* \"#utility.yul\":20439:22352   */\n      swap12\n      swap11\n      pop\n      pop\n      pop\n      pop\n      pop\n      pop\n      pop\n      pop\n      pop\n      pop\n      pop\n      jump\t// out\n        /* \"#utility.yul\":22358:22867   */\n    tag_48:\n        /* \"#utility.yul\":22427:22433   */\n      0x00\n        /* \"#utility.yul\":22476:22478   */\n      0x20\n        /* \"#utility.yul\":22464:22473   */\n      dup3\n        /* \"#utility.yul\":22455:22462   */\n      dup5\n        /* \"#utility.yul\":22451:22474   */\n      sub\n        /* \"#utility.yul\":22447:22479   */\n      slt\n        /* \"#utility.yul\":22444:22563   */\n      iszero\n      tag_467\n      jumpi\n        /* \"#utility.yul\":22482:22561   */\n      tag_468\n      tag_180\n      jump\t// in\n    tag_468:\n        /* \"#utility.yul\":22444:22563   */\n    tag_467:\n        /* \"#utility.yul\":22630:22631   */\n      0x00\n        /* \"#utility.yul\":22619:22628   */\n      dup3\n        /* \"#utility.yul\":22615:22632   */\n      add\n        /* \"#utility.yul\":22602:22633   */\n      calldataload\n        /* \"#utility.yul\":22660:22678   */\n      0xffffffffffffffff\n        /* \"#utility.yul\":22652:22658   */\n      dup2\n        /* \"#utility.yul\":22649:22679   */\n      gt\n        /* \"#utility.yul\":22646:22763   */\n      iszero\n      tag_469\n      jumpi\n        /* \"#utility.yul\":22682:22761   */\n      tag_470\n      tag_181\n      jump\t// in\n    tag_470:\n        /* \"#utility.yul\":22646:22763   */\n    tag_469:\n        /* \"#utility.yul\":22787:22850   */\n      tag_471\n        /* \"#utility.yul\":22842:22849   */\n      dup5\n        /* \"#utility.yul\":22833:22839   */\n      dup3\n        /* \"#utility.yul\":22822:22831   */\n      dup6\n        /* \"#utility.yul\":22818:22840   */\n      add\n        /* \"#utility.yul\":22787:22850   */\n      tag_191\n      jump\t// in\n    tag_471:\n        /* \"#utility.yul\":22777:22850   */\n      swap2\n      pop\n        /* \"#utility.yul\":22573:22860   */\n      pop\n        /* \"#utility.yul\":22358:22867   */\n      swap3\n      swap2\n      pop\n      pop\n      jump\t// out\n        /* \"#utility.yul\":22873:24535   */\n    tag_51:\n        /* \"#utility.yul\":23312:23316   */\n      0x00\n        /* \"#utility.yul\":23350:23353   */\n      0x0140\n        /* \"#utility.yul\":23339:23348   */\n      dup3\n        /* \"#utility.yul\":23335:23354   */\n      add\n        /* \"#utility.yul\":23327:23354   */\n      swap1\n      pop\n        /* \"#utility.yul\":23400:23409   */\n      dup2\n        /* \"#utility.yul\":23394:23398   */\n      dup2\n        /* \"#utility.yul\":23390:23410   */\n      sub\n        /* \"#utility.yul\":23386:23387   */\n      0x00\n        /* \"#utility.yul\":23375:23384   */\n      dup4\n        /* \"#utility.yul\":23371:23388   */\n      add\n        /* \"#utility.yul\":23364:23411   */\n      mstore\n        /* \"#utility.yul\":23428:23506   */\n      tag_473\n        /* \"#utility.yul\":23501:23505   */\n      dup2\n        /* \"#utility.yul\":23492:23498   */\n      dup14\n        /* \"#utility.yul\":23428:23506   */\n      tag_211\n      jump\t// in\n    tag_473:\n        /* \"#utility.yul\":23420:23506   */\n      swap1\n      pop\n        /* \"#utility.yul\":23553:23562   */\n      dup2\n        /* \"#utility.yul\":23547:23551   */\n      dup2\n        /* \"#utility.yul\":23543:23563   */\n      sub\n        /* \"#utility.yul\":23538:23540   */\n      0x20\n        /* \"#utility.yul\":23527:23536   */\n      dup4\n        /* \"#utility.yul\":23523:23541   */\n      add\n        /* \"#utility.yul\":23516:23564   */\n      mstore\n        /* \"#utility.yul\":23581:23659   */\n      tag_474\n        /* \"#utility.yul\":23654:23658   */\n      dup2\n        /* \"#utility.yul\":23645:23651   */\n      dup13\n        /* \"#utility.yul\":23581:23659   */\n      tag_211\n      jump\t// in\n    tag_474:\n        /* \"#utility.yul\":23573:23659   */\n      swap1\n      pop\n        /* \"#utility.yul\":23706:23715   */\n      dup2\n        /* \"#utility.yul\":23700:23704   */\n      dup2\n        /* \"#utility.yul\":23696:23716   */\n      sub\n        /* \"#utility.yul\":23691:23693   */\n      0x40\n        /* \"#utility.yul\":23680:23689   */\n      dup4\n        /* \"#utility.yul\":23676:23694   */\n      add\n        /* \"#utility.yul\":23669:23717   */\n      mstore\n        /* \"#utility.yul\":23734:23812   */\n      tag_475\n        /* \"#utility.yul\":23807:23811   */\n      dup2\n        /* \"#utility.yul\":23798:23804   */\n      dup12\n        /* \"#utility.yul\":23734:23812   */\n      tag_211\n      jump\t// in\n    tag_475:\n        /* \"#utility.yul\":23726:23812   */\n      swap1\n      pop\n        /* \"#utility.yul\":23859:23868   */\n      dup2\n        /* \"#utility.yul\":23853:23857   */\n      dup2\n        /* \"#utility.yul\":23849:23869   */\n      sub\n        /* \"#utility.yul\":23844:23846   */\n      0x60\n        /* \"#utility.yul\":23833:23842   */\n      dup4\n        /* \"#utility.yul\":23829:23847   */\n      add\n        /* \"#utility.yul\":23822:23870   */\n      mstore\n        /* \"#utility.yul\":23887:23965   */\n      tag_476\n        /* \"#utility.yul\":23960:23964   */\n      dup2\n        /* \"#utility.yul\":23951:23957   */\n      dup11\n        /* \"#utility.yul\":23887:23965   */\n      tag_211\n      jump\t// in\n    tag_476:\n        /* \"#utility.yul\":23879:23965   */\n      swap1\n      pop\n        /* \"#utility.yul\":24013:24022   */\n      dup2\n        /* \"#utility.yul\":24007:24011   */\n      dup2\n        /* \"#utility.yul\":24003:24023   */\n      sub\n        /* \"#utility.yul\":23997:24000   */\n      0x80\n        /* \"#utility.yul\":23986:23995   */\n      dup4\n        /* \"#utility.yul\":23982:24001   */\n      add\n        /* \"#utility.yul\":23975:24024   */\n      mstore\n        /* \"#utility.yul\":24041:24119   */\n      tag_477\n        /* \"#utility.yul\":24114:24118   */\n      dup2\n        /* \"#utility.yul\":24105:24111   */\n      dup10\n        /* \"#utility.yul\":24041:24119   */\n      tag_211\n      jump\t// in\n    tag_477:\n        /* \"#utility.yul\":24033:24119   */\n      swap1\n      pop\n        /* \"#utility.yul\":24129:24202   */\n      tag_478\n        /* \"#utility.yul\":24197:24200   */\n      0xa0\n        /* \"#utility.yul\":24186:24195   */\n      dup4\n        /* \"#utility.yul\":24182:24201   */\n      add\n        /* \"#utility.yul\":24173:24179   */\n      dup9\n        /* \"#utility.yul\":24129:24202   */\n      tag_220\n      jump\t// in\n    tag_478:\n        /* \"#utility.yul\":24212:24285   */\n      tag_479\n        /* \"#utility.yul\":24280:24283   */\n      0xc0\n        /* \"#utility.yul\":24269:24278   */\n      dup4\n        /* \"#utility.yul\":24265:24284   */\n      add\n        /* \"#utility.yul\":24256:24262   */\n      dup8\n        /* \"#utility.yul\":24212:24285   */\n      tag_220\n      jump\t// in\n    tag_479:\n        /* \"#utility.yul\":24295:24368   */\n      tag_480\n        /* \"#utility.yul\":24363:24366   */\n      0xe0\n        /* \"#utility.yul\":24352:24361   */\n      dup4\n        /* \"#utility.yul\":24348:24367   */\n      add\n        /* \"#utility.yul\":24339:24345   */\n      dup7\n        /* \"#utility.yul\":24295:24368   */\n      tag_220\n      jump\t// in\n    tag_480:\n        /* \"#utility.yul\":24378:24451   */\n      tag_481\n        /* \"#utility.yul\":24446:24449   */\n      0x0100\n        /* \"#utility.yul\":24435:24444   */\n      dup4\n        /* \"#utility.yul\":24431:24450   */\n      add\n        /* \"#utility.yul\":24422:24428   */\n      dup6\n        /* \"#utility.yul\":24378:24451   */\n      tag_220\n      jump\t// in\n    tag_481:\n        /* \"#utility.yul\":24461:24528   */\n      tag_482\n        /* \"#utility.yul\":24523:24526   */\n      0x0120\n        /* \"#utility.yul\":24512:24521   */\n      dup4\n        /* \"#utility.yul\":24508:24527   */\n      add\n        /* \"#utility.yul\":24499:24505   */\n      dup5\n        /* \"#utility.yul\":24461:24528   */\n      tag_221\n      jump\t// in\n    tag_482:\n        /* \"#utility.yul\":22873:24535   */\n      swap12\n      swap11\n      pop\n      pop\n      pop\n      pop\n      pop\n      pop\n      pop\n      pop\n      pop\n      pop\n      pop\n      jump\t// out\n        /* \"#utility.yul\":24541:25375   */\n    tag_60:\n        /* \"#utility.yul\":24629:24635   */\n      0x00\n        /* \"#utility.yul\":24637:24643   */\n      dup1\n        /* \"#utility.yul\":24686:24688   */\n      0x40\n        /* \"#utility.yul\":24674:24683   */\n      dup4\n        /* \"#utility.yul\":24665:24672   */\n      dup6\n        /* \"#utility.yul\":24661:24684   */\n      sub\n        /* \"#utility.yul\":24657:24689   */\n      slt\n        /* \"#utility.yul\":24654:24773   */\n      iszero\n      tag_484\n      jumpi\n        /* \"#utility.yul\":24692:24771   */\n      tag_485\n      tag_180\n      jump\t// in\n    tag_485:\n        /* \"#utility.yul\":24654:24773   */\n    tag_484:\n        /* \"#utility.yul\":24840:24841   */\n      0x00\n        /* \"#utility.yul\":24829:24838   */\n      dup4\n        /* \"#utility.yul\":24825:24842   */\n      add\n        /* \"#utility.yul\":24812:24843   */\n      calldataload\n        /* \"#utility.yul\":24870:24888   */\n      0xffffffffffffffff\n        /* \"#utility.yul\":24862:24868   */\n      dup2\n        /* \"#utility.yul\":24859:24889   */\n      gt\n        /* \"#utility.yul\":24856:24973   */\n      iszero\n      tag_486\n      jumpi\n        /* \"#utility.yul\":24892:24971   */\n      tag_487\n      tag_181\n      jump\t// in\n    tag_487:\n        /* \"#utility.yul\":24856:24973   */\n    tag_486:\n        /* \"#utility.yul\":24997:25060   */\n      tag_488\n        /* \"#utility.yul\":25052:25059   */\n      dup6\n        /* \"#utility.yul\":25043:25049   */\n      dup3\n        /* \"#utility.yul\":25032:25041   */\n      dup7\n        /* \"#utility.yul\":25028:25050   */\n      add\n        /* \"#utility.yul\":24997:25060   */\n      tag_191\n      jump\t// in\n    tag_488:\n        /* \"#utility.yul\":24987:25060   */\n      swap3\n      pop\n        /* \"#utility.yul\":24783:25070   */\n      pop\n        /* \"#utility.yul\":25137:25139   */\n      0x20\n        /* \"#utility.yul\":25126:25135   */\n      dup4\n        /* \"#utility.yul\":25122:25140   */\n      add\n        /* \"#utility.yul\":25109:25141   */\n      calldataload\n        /* \"#utility.yul\":25168:25186   */\n      0xffffffffffffffff\n        /* \"#utility.yul\":25160:25166   */\n      dup2\n        /* \"#utility.yul\":25157:25187   */\n      gt\n        /* \"#utility.yul\":25154:25271   */\n      iszero\n      tag_489\n      jumpi\n        /* \"#utility.yul\":25190:25269   */\n      tag_490\n      tag_181\n      jump\t// in\n    tag_490:\n        /* \"#utility.yul\":25154:25271   */\n    tag_489:\n        /* \"#utility.yul\":25295:25358   */\n      tag_491\n        /* \"#utility.yul\":25350:25357   */\n      dup6\n        /* \"#utility.yul\":25341:25347   */\n      dup3\n        /* \"#utility.yul\":25330:25339   */\n      dup7\n        /* \"#utility.yul\":25326:25348   */\n      add\n        /* \"#utility.yul\":25295:25358   */\n      tag_191\n      jump\t// in\n    tag_491:\n        /* \"#utility.yul\":25285:25358   */\n      swap2\n      pop\n        /* \"#utility.yul\":25080:25368   */\n      pop\n        /* \"#utility.yul\":24541:25375   */\n      swap3\n      pop\n      swap3\n      swap1\n      pop\n      jump\t// out\n        /* \"#utility.yul\":25381:25565   */\n    tag_229:\n        /* \"#utility.yul\":25480:25491   */\n      0x00\n        /* \"#utility.yul\":25514:25520   */\n      dup3\n        /* \"#utility.yul\":25509:25512   */\n      dup3\n        /* \"#utility.yul\":25502:25521   */\n      mstore\n        /* \"#utility.yul\":25554:25558   */\n      0x20\n        /* \"#utility.yul\":25549:25552   */\n      dup3\n        /* \"#utility.yul\":25545:25559   */\n      add\n        /* \"#utility.yul\":25530:25559   */\n      swap1\n      pop\n        /* \"#utility.yul\":25381:25565   */\n      swap3\n      swap2\n      pop\n      pop\n      jump\t// out\n        /* \"#utility.yul\":25599:26570   */\n    tag_230:\n        /* \"#utility.yul\":25728:25731   */\n      0x00\n        /* \"#utility.yul\":25757:25821   */\n      tag_494\n        /* \"#utility.yul\":25815:25820   */\n      dup3\n        /* \"#utility.yul\":25757:25821   */\n      tag_212\n      jump\t// in\n    tag_494:\n        /* \"#utility.yul\":25837:25923   */\n      tag_495\n        /* \"#utility.yul\":25916:25922   */\n      dup2\n        /* \"#utility.yul\":25911:25914   */\n      dup6\n        /* \"#utility.yul\":25837:25923   */\n      tag_229\n      jump\t// in\n    tag_495:\n        /* \"#utility.yul\":25830:25923   */\n      swap4\n      pop\n        /* \"#utility.yul\":25949:25952   */\n      dup4\n        /* \"#utility.yul\":25994:25998   */\n      0x20\n        /* \"#utility.yul\":25986:25992   */\n      dup3\n        /* \"#utility.yul\":25982:25999   */\n      mul\n        /* \"#utility.yul\":25977:25980   */\n      dup6\n        /* \"#utility.yul\":25973:26000   */\n      add\n        /* \"#utility.yul\":26024:26090   */\n      tag_496\n        /* \"#utility.yul\":26084:26089   */\n      dup6\n        /* \"#utility.yul\":26024:26090   */\n      tag_214\n      jump\t// in\n    tag_496:\n        /* \"#utility.yul\":26113:26120   */\n      dup1\n        /* \"#utility.yul\":26144:26145   */\n      0x00\n        /* \"#utility.yul\":26129:26525   */\n    tag_497:\n        /* \"#utility.yul\":26154:26160   */\n      dup6\n        /* \"#utility.yul\":26151:26152   */\n      dup2\n        /* \"#utility.yul\":26148:26161   */\n      lt\n        /* \"#utility.yul\":26129:26525   */\n      iszero\n      tag_499\n      jumpi\n        /* \"#utility.yul\":26225:26234   */\n      dup5\n        /* \"#utility.yul\":26219:26223   */\n      dup5\n        /* \"#utility.yul\":26215:26235   */\n      sub\n        /* \"#utility.yul\":26210:26213   */\n      dup10\n        /* \"#utility.yul\":26203:26236   */\n      mstore\n        /* \"#utility.yul\":26276:26282   */\n      dup2\n        /* \"#utility.yul\":26270:26283   */\n      mload\n        /* \"#utility.yul\":26304:26388   */\n      tag_500\n        /* \"#utility.yul\":26383:26387   */\n      dup6\n        /* \"#utility.yul\":26368:26381   */\n      dup3\n        /* \"#utility.yul\":26304:26388   */\n      tag_217\n      jump\t// in\n    tag_500:\n        /* \"#utility.yul\":26296:26388   */\n      swap5\n      pop\n        /* \"#utility.yul\":26411:26481   */\n      tag_501\n        /* \"#utility.yul\":26474:26480   */\n      dup4\n        /* \"#utility.yul\":26411:26481   */\n      tag_218\n      jump\t// in\n    tag_501:\n        /* \"#utility.yul\":26401:26481   */\n      swap3\n      pop\n        /* \"#utility.yul\":26510:26514   */\n      0x20\n        /* \"#utility.yul\":26505:26508   */\n      dup11\n        /* \"#utility.yul\":26501:26515   */\n      add\n        /* \"#utility.yul\":26494:26515   */\n      swap10\n      pop\n        /* \"#utility.yul\":26189:26525   */\n      pop\n        /* \"#utility.yul\":26176:26177   */\n      0x01\n        /* \"#utility.yul\":26173:26174   */\n      dup2\n        /* \"#utility.yul\":26169:26178   */\n      add\n        /* \"#utility.yul\":26164:26178   */\n      swap1\n      pop\n        /* \"#utility.yul\":26129:26525   */\n      jump(tag_497)\n    tag_499:\n        /* \"#utility.yul\":26133:26147   */\n      pop\n        /* \"#utility.yul\":26541:26545   */\n      dup3\n        /* \"#utility.yul\":26534:26545   */\n      swap8\n      pop\n        /* \"#utility.yul\":26561:26564   */\n      dup8\n        /* \"#utility.yul\":26554:26564   */\n      swap6\n      pop\n        /* \"#utility.yul\":25733:26570   */\n      pop\n      pop\n      pop\n      pop\n      pop\n        /* \"#utility.yul\":25599:26570   */\n      swap3\n      swap2\n      pop\n      pop\n      jump\t// out\n        /* \"#utility.yul\":26576:26675   */\n    tag_231:\n        /* \"#utility.yul\":26647:26668   */\n      tag_503\n        /* \"#utility.yul\":26662:26667   */\n      dup2\n        /* \"#utility.yul\":26647:26668   */\n      tag_202\n      jump\t// in\n    tag_503:\n        /* \"#utility.yul\":26642:26645   */\n      dup3\n        /* \"#utility.yul\":26635:26669   */\n      mstore\n        /* \"#utility.yul\":26576:26675   */\n      pop\n      pop\n      jump\t// out\n        /* \"#utility.yul\":26759:28901   */\n    tag_232:\n        /* \"#utility.yul\":26870:26873   */\n      0x00\n        /* \"#utility.yul\":26906:26912   */\n      0x0100\n        /* \"#utility.yul\":26901:26904   */\n      dup4\n        /* \"#utility.yul\":26897:26913   */\n      add\n        /* \"#utility.yul\":27001:27005   */\n      0x00\n        /* \"#utility.yul\":26994:26999   */\n      dup4\n        /* \"#utility.yul\":26990:27006   */\n      add\n        /* \"#utility.yul\":26984:27007   */\n      mload\n        /* \"#utility.yul\":27054:27057   */\n      dup5\n        /* \"#utility.yul\":27048:27052   */\n      dup3\n        /* \"#utility.yul\":27044:27058   */\n      sub\n        /* \"#utility.yul\":27037:27041   */\n      0x00\n        /* \"#utility.yul\":27032:27035   */\n      dup7\n        /* \"#utility.yul\":27028:27042   */\n      add\n        /* \"#utility.yul\":27021:27059   */\n      mstore\n        /* \"#utility.yul\":27080:27153   */\n      tag_505\n        /* \"#utility.yul\":27148:27152   */\n      dup3\n        /* \"#utility.yul\":27134:27146   */\n      dup3\n        /* \"#utility.yul\":27080:27153   */\n      tag_216\n      jump\t// in\n    tag_505:\n        /* \"#utility.yul\":27072:27153   */\n      swap2\n      pop\n        /* \"#utility.yul\":26923:27164   */\n      pop\n        /* \"#utility.yul\":27247:27251   */\n      0x20\n        /* \"#utility.yul\":27240:27245   */\n      dup4\n        /* \"#utility.yul\":27236:27252   */\n      add\n        /* \"#utility.yul\":27230:27253   */\n      mload\n        /* \"#utility.yul\":27300:27303   */\n      dup5\n        /* \"#utility.yul\":27294:27298   */\n      dup3\n        /* \"#utility.yul\":27290:27304   */\n      sub\n        /* \"#utility.yul\":27283:27287   */\n      0x20\n        /* \"#utility.yul\":27278:27281   */\n      dup7\n        /* \"#utility.yul\":27274:27288   */\n      add\n        /* \"#utility.yul\":27267:27305   */\n      mstore\n        /* \"#utility.yul\":27326:27399   */\n      tag_506\n        /* \"#utility.yul\":27394:27398   */\n      dup3\n        /* \"#utility.yul\":27380:27392   */\n      dup3\n        /* \"#utility.yul\":27326:27399   */\n      tag_216\n      jump\t// in\n    tag_506:\n        /* \"#utility.yul\":27318:27399   */\n      swap2\n      pop\n        /* \"#utility.yul\":27174:27410   */\n      pop\n        /* \"#utility.yul\":27499:27503   */\n      0x40\n        /* \"#utility.yul\":27492:27497   */\n      dup4\n        /* \"#utility.yul\":27488:27504   */\n      add\n        /* \"#utility.yul\":27482:27505   */\n      mload\n        /* \"#utility.yul\":27552:27555   */\n      dup5\n        /* \"#utility.yul\":27546:27550   */\n      dup3\n        /* \"#utility.yul\":27542:27556   */\n      sub\n        /* \"#utility.yul\":27535:27539   */\n      0x40\n        /* \"#utility.yul\":27530:27533   */\n      dup7\n        /* \"#utility.yul\":27526:27540   */\n      add\n        /* \"#utility.yul\":27519:27557   */\n      mstore\n        /* \"#utility.yul\":27578:27651   */\n      tag_507\n        /* \"#utility.yul\":27646:27650   */\n      dup3\n        /* \"#utility.yul\":27632:27644   */\n      dup3\n        /* \"#utility.yul\":27578:27651   */\n      tag_216\n      jump\t// in\n    tag_507:\n        /* \"#utility.yul\":27570:27651   */\n      swap2\n      pop\n        /* \"#utility.yul\":27420:27662   */\n      pop\n        /* \"#utility.yul\":27756:27760   */\n      0x60\n        /* \"#utility.yul\":27749:27754   */\n      dup4\n        /* \"#utility.yul\":27745:27761   */\n      add\n        /* \"#utility.yul\":27739:27762   */\n      mload\n        /* \"#utility.yul\":27809:27812   */\n      dup5\n        /* \"#utility.yul\":27803:27807   */\n      dup3\n        /* \"#utility.yul\":27799:27813   */\n      sub\n        /* \"#utility.yul\":27792:27796   */\n      0x60\n        /* \"#utility.yul\":27787:27790   */\n      dup7\n        /* \"#utility.yul\":27783:27797   */\n      add\n        /* \"#utility.yul\":27776:27814   */\n      mstore\n        /* \"#utility.yul\":27835:27908   */\n      tag_508\n        /* \"#utility.yul\":27903:27907   */\n      dup3\n        /* \"#utility.yul\":27889:27901   */\n      dup3\n        /* \"#utility.yul\":27835:27908   */\n      tag_216\n      jump\t// in\n    tag_508:\n        /* \"#utility.yul\":27827:27908   */\n      swap2\n      pop\n        /* \"#utility.yul\":27672:27919   */\n      pop\n        /* \"#utility.yul\":28002:28006   */\n      0x80\n        /* \"#utility.yul\":27995:28000   */\n      dup4\n        /* \"#utility.yul\":27991:28007   */\n      add\n        /* \"#utility.yul\":27985:28008   */\n      mload\n        /* \"#utility.yul\":28021:28084   */\n      tag_509\n        /* \"#utility.yul\":28078:28082   */\n      0x80\n        /* \"#utility.yul\":28073:28076   */\n      dup7\n        /* \"#utility.yul\":28069:28083   */\n      add\n        /* \"#utility.yul\":28055:28067   */\n      dup3\n        /* \"#utility.yul\":28021:28084   */\n      tag_225\n      jump\t// in\n    tag_509:\n        /* \"#utility.yul\":27929:28094   */\n      pop\n        /* \"#utility.yul\":28186:28190   */\n      0xa0\n        /* \"#utility.yul\":28179:28184   */\n      dup4\n        /* \"#utility.yul\":28175:28191   */\n      add\n        /* \"#utility.yul\":28169:28192   */\n      mload\n        /* \"#utility.yul\":28239:28242   */\n      dup5\n        /* \"#utility.yul\":28233:28237   */\n      dup3\n        /* \"#utility.yul\":28229:28243   */\n      sub\n        /* \"#utility.yul\":28222:28226   */\n      0xa0\n        /* \"#utility.yul\":28217:28220   */\n      dup7\n        /* \"#utility.yul\":28213:28227   */\n      add\n        /* \"#utility.yul\":28206:28244   */\n      mstore\n        /* \"#utility.yul\":28265:28388   */\n      tag_510\n        /* \"#utility.yul\":28383:28387   */\n      dup3\n        /* \"#utility.yul\":28369:28381   */\n      dup3\n        /* \"#utility.yul\":28265:28388   */\n      tag_230\n      jump\t// in\n    tag_510:\n        /* \"#utility.yul\":28257:28388   */\n      swap2\n      pop\n        /* \"#utility.yul\":28104:28399   */\n      pop\n        /* \"#utility.yul\":28488:28492   */\n      0xc0\n        /* \"#utility.yul\":28481:28486   */\n      dup4\n        /* \"#utility.yul\":28477:28493   */\n      add\n        /* \"#utility.yul\":28471:28494   */\n      mload\n        /* \"#utility.yul\":28541:28544   */\n      dup5\n        /* \"#utility.yul\":28535:28539   */\n      dup3\n        /* \"#utility.yul\":28531:28545   */\n      sub\n        /* \"#utility.yul\":28524:28528   */\n      0xc0\n        /* \"#utility.yul\":28519:28522   */\n      dup7\n        /* \"#utility.yul\":28515:28529   */\n      add\n        /* \"#utility.yul\":28508:28546   */\n      mstore\n        /* \"#utility.yul\":28567:28690   */\n      tag_511\n        /* \"#utility.yul\":28685:28689   */\n      dup3\n        /* \"#utility.yul\":28671:28683   */\n      dup3\n        /* \"#utility.yul\":28567:28690   */\n      tag_230\n      jump\t// in\n    tag_511:\n        /* \"#utility.yul\":28559:28690   */\n      swap2\n      pop\n        /* \"#utility.yul\":28409:28701   */\n      pop\n        /* \"#utility.yul\":28788:28792   */\n      0xe0\n        /* \"#utility.yul\":28781:28786   */\n      dup4\n        /* \"#utility.yul\":28777:28793   */\n      add\n        /* \"#utility.yul\":28771:28794   */\n      mload\n        /* \"#utility.yul\":28807:28864   */\n      tag_512\n        /* \"#utility.yul\":28858:28862   */\n      0xe0\n        /* \"#utility.yul\":28853:28856   */\n      dup7\n        /* \"#utility.yul\":28849:28863   */\n      add\n        /* \"#utility.yul\":28835:28847   */\n      dup3\n        /* \"#utility.yul\":28807:28864   */\n      tag_231\n      jump\t// in\n    tag_512:\n        /* \"#utility.yul\":28711:28874   */\n      pop\n        /* \"#utility.yul\":28891:28895   */\n      dup1\n        /* \"#utility.yul\":28884:28895   */\n      swap2\n      pop\n        /* \"#utility.yul\":26875:28901   */\n      pop\n        /* \"#utility.yul\":26759:28901   */\n      swap3\n      swap2\n      pop\n      pop\n      jump\t// out\n        /* \"#utility.yul\":28907:29264   */\n    tag_63:\n        /* \"#utility.yul\":29042:29046   */\n      0x00\n        /* \"#utility.yul\":29080:29082   */\n      0x20\n        /* \"#utility.yul\":29069:29078   */\n      dup3\n        /* \"#utility.yul\":29065:29083   */\n      add\n        /* \"#utility.yul\":29057:29083   */\n      swap1\n      pop\n        /* \"#utility.yul\":29129:29138   */\n      dup2\n        /* \"#utility.yul\":29123:29127   */\n      dup2\n        /* \"#utility.yul\":29119:29139   */\n      sub\n        /* \"#utility.yul\":29115:29116   */\n      0x00\n        /* \"#utility.yul\":29104:29113   */\n      dup4\n        /* \"#utility.yul\":29100:29117   */\n      add\n        /* \"#utility.yul\":29093:29140   */\n      mstore\n        /* \"#utility.yul\":29157:29257   */\n      tag_514\n        /* \"#utility.yul\":29252:29256   */\n      dup2\n        /* \"#utility.yul\":29243:29249   */\n      dup5\n        /* \"#utility.yul\":29157:29257   */\n      tag_232\n      jump\t// in\n    tag_514:\n        /* \"#utility.yul\":29149:29257   */\n      swap1\n      pop\n        /* \"#utility.yul\":28907:29264   */\n      swap3\n      swap2\n      pop\n      pop\n      jump\t// out\n        /* \"#utility.yul\":29270:30445   */\n    tag_66:\n        /* \"#utility.yul\":29401:29407   */\n      0x00\n        /* \"#utility.yul\":29409:29415   */\n      dup1\n        /* \"#utility.yul\":29417:29423   */\n      0x00\n        /* \"#utility.yul\":29425:29431   */\n      dup1\n        /* \"#utility.yul\":29474:29477   */\n      0x80\n        /* \"#utility.yul\":29462:29471   */\n      dup6\n        /* \"#utility.yul\":29453:29460   */\n      dup8\n        /* \"#utility.yul\":29449:29472   */\n      sub\n        /* \"#utility.yul\":29445:29478   */\n      slt\n        /* \"#utility.yul\":29442:29562   */\n      iszero\n      tag_516\n      jumpi\n        /* \"#utility.yul\":29481:29560   */\n      tag_517\n      tag_180\n      jump\t// in\n    tag_517:\n        /* \"#utility.yul\":29442:29562   */\n    tag_516:\n        /* \"#utility.yul\":29601:29602   */\n      0x00\n        /* \"#utility.yul\":29626:29679   */\n      tag_518\n        /* \"#utility.yul\":29671:29678   */\n      dup8\n        /* \"#utility.yul\":29662:29668   */\n      dup3\n        /* \"#utility.yul\":29651:29660   */\n      dup9\n        /* \"#utility.yul\":29647:29669   */\n      add\n        /* \"#utility.yul\":29626:29679   */\n      tag_194\n      jump\t// in\n    tag_518:\n        /* \"#utility.yul\":29616:29679   */\n      swap5\n      pop\n        /* \"#utility.yul\":29572:29689   */\n      pop\n        /* \"#utility.yul\":29756:29758   */\n      0x20\n        /* \"#utility.yul\":29745:29754   */\n      dup6\n        /* \"#utility.yul\":29741:29759   */\n      add\n        /* \"#utility.yul\":29728:29760   */\n      calldataload\n        /* \"#utility.yul\":29787:29805   */\n      0xffffffffffffffff\n        /* \"#utility.yul\":29779:29785   */\n      dup2\n        /* \"#utility.yul\":29776:29806   */\n      gt\n        /* \"#utility.yul\":29773:29890   */\n      iszero\n      tag_519\n      jumpi\n        /* \"#utility.yul\":29809:29888   */\n      tag_520\n      tag_181\n      jump\t// in\n    tag_520:\n        /* \"#utility.yul\":29773:29890   */\n    tag_519:\n        /* \"#utility.yul\":29914:29977   */\n      tag_521\n        /* \"#utility.yul\":29969:29976   */\n      dup8\n        /* \"#utility.yul\":29960:29966   */\n      dup3\n        /* \"#utility.yul\":29949:29958   */\n      dup9\n        /* \"#utility.yul\":29945:29967   */\n      add\n        /* \"#utility.yul\":29914:29977   */\n      tag_191\n      jump\t// in\n    tag_521:\n        /* \"#utility.yul\":29904:29977   */\n      swap4\n      pop\n        /* \"#utility.yul\":29699:29987   */\n      pop\n        /* \"#utility.yul\":30026:30028   */\n      0x40\n        /* \"#utility.yul\":30052:30105   */\n      tag_522\n        /* \"#utility.yul\":30097:30104   */\n      dup8\n        /* \"#utility.yul\":30088:30094   */\n      dup3\n        /* \"#utility.yul\":30077:30086   */\n      dup9\n        /* \"#utility.yul\":30073:30095   */\n      add\n        /* \"#utility.yul\":30052:30105   */\n      tag_194\n      jump\t// in\n    tag_522:\n        /* \"#utility.yul\":30042:30105   */\n      swap3\n      pop\n        /* \"#utility.yul\":29997:30115   */\n      pop\n        /* \"#utility.yul\":30182:30184   */\n      0x60\n        /* \"#utility.yul\":30171:30180   */\n      dup6\n        /* \"#utility.yul\":30167:30185   */\n      add\n        /* \"#utility.yul\":30154:30186   */\n      calldataload\n        /* \"#utility.yul\":30213:30231   */\n      0xffffffffffffffff\n        /* \"#utility.yul\":30205:30211   */\n      dup2\n        /* \"#utility.yul\":30202:30232   */\n      gt\n        /* \"#utility.yul\":30199:30316   */\n      iszero\n      tag_523\n      jumpi\n        /* \"#utility.yul\":30235:30314   */\n      tag_524\n      tag_181\n      jump\t// in\n    tag_524:\n        /* \"#utility.yul\":30199:30316   */\n    tag_523:\n        /* \"#utility.yul\":30340:30428   */\n      tag_525\n        /* \"#utility.yul\":30420:30427   */\n      dup8\n        /* \"#utility.yul\":30411:30417   */\n      dup3\n        /* \"#utility.yul\":30400:30409   */\n      dup9\n        /* \"#utility.yul\":30396:30418   */\n      add\n        /* \"#utility.yul\":30340:30428   */\n      tag_201\n      jump\t// in\n    tag_525:\n        /* \"#utility.yul\":30330:30428   */\n      swap2\n      pop\n        /* \"#utility.yul\":30125:30438   */\n      pop\n        /* \"#utility.yul\":29270:30445   */\n      swap3\n      swap6\n      swap2\n      swap5\n      pop\n      swap3\n      pop\n      jump\t// out\n        /* \"#utility.yul\":30451:30673   */\n    tag_71:\n        /* \"#utility.yul\":30544:30548   */\n      0x00\n        /* \"#utility.yul\":30582:30584   */\n      0x20\n        /* \"#utility.yul\":30571:30580   */\n      dup3\n        /* \"#utility.yul\":30567:30585   */\n      add\n        /* \"#utility.yul\":30559:30585   */\n      swap1\n      pop\n        /* \"#utility.yul\":30595:30666   */\n      tag_527\n        /* \"#utility.yul\":30663:30664   */\n      0x00\n        /* \"#utility.yul\":30652:30661   */\n      dup4\n        /* \"#utility.yul\":30648:30665   */\n      add\n        /* \"#utility.yul\":30639:30645   */\n      dup5\n        /* \"#utility.yul\":30595:30666   */\n      tag_220\n      jump\t// in\n    tag_527:\n        /* \"#utility.yul\":30451:30673   */\n      swap3\n      swap2\n      pop\n      pop\n      jump\t// out\n        /* \"#utility.yul\":30679:31478   */\n    tag_74:\n        /* \"#utility.yul\":30766:30772   */\n      0x00\n        /* \"#utility.yul\":30774:30780   */\n      dup1\n        /* \"#utility.yul\":30782:30788   */\n      0x00\n        /* \"#utility.yul\":30831:30833   */\n      0x60\n        /* \"#utility.yul\":30819:30828   */\n      dup5\n        /* \"#utility.yul\":30810:30817   */\n      dup7\n        /* \"#utility.yul\":30806:30829   */\n      sub\n        /* \"#utility.yul\":30802:30834   */\n      slt\n        /* \"#utility.yul\":30799:30918   */\n      iszero\n      tag_529\n      jumpi\n        /* \"#utility.yul\":30837:30916   */\n      tag_530\n      tag_180\n      jump\t// in\n    tag_530:\n        /* \"#utility.yul\":30799:30918   */\n    tag_529:\n        /* \"#utility.yul\":30957:30958   */\n      0x00\n        /* \"#utility.yul\":30982:31035   */\n      tag_531\n        /* \"#utility.yul\":31027:31034   */\n      dup7\n        /* \"#utility.yul\":31018:31024   */\n      dup3\n        /* \"#utility.yul\":31007:31016   */\n      dup8\n        /* \"#utility.yul\":31003:31025   */\n      add\n        /* \"#utility.yul\":30982:31035   */\n      tag_194\n      jump\t// in\n    tag_531:\n        /* \"#utility.yul\":30972:31035   */\n      swap4\n      pop\n        /* \"#utility.yul\":30928:31045   */\n      pop\n        /* \"#utility.yul\":31084:31086   */\n      0x20\n        /* \"#utility.yul\":31110:31163   */\n      tag_532\n        /* \"#utility.yul\":31155:31162   */\n      dup7\n        /* \"#utility.yul\":31146:31152   */\n      dup3\n        /* \"#utility.yul\":31135:31144   */\n      dup8\n        /* \"#utility.yul\":31131:31153   */\n      add\n        /* \"#utility.yul\":31110:31163   */\n      tag_194\n      jump\t// in\n    tag_532:\n        /* \"#utility.yul\":31100:31163   */\n      swap3\n      pop\n        /* \"#utility.yul\":31055:31173   */\n      pop\n        /* \"#utility.yul\":31240:31242   */\n      0x40\n        /* \"#utility.yul\":31229:31238   */\n      dup5\n        /* \"#utility.yul\":31225:31243   */\n      add\n        /* \"#utility.yul\":31212:31244   */\n      calldataload\n        /* \"#utility.yul\":31271:31289   */\n      0xffffffffffffffff\n        /* \"#utility.yul\":31263:31269   */\n      dup2\n        /* \"#utility.yul\":31260:31290   */\n      gt\n        /* \"#utility.yul\":31257:31374   */\n      iszero\n      tag_533\n      jumpi\n        /* \"#utility.yul\":31293:31372   */\n      tag_534\n      tag_181\n      jump\t// in\n    tag_534:\n        /* \"#utility.yul\":31257:31374   */\n    tag_533:\n        /* \"#utility.yul\":31398:31461   */\n      tag_535\n        /* \"#utility.yul\":31453:31460   */\n      dup7\n        /* \"#utility.yul\":31444:31450   */\n      dup3\n        /* \"#utility.yul\":31433:31442   */\n      dup8\n        /* \"#utility.yul\":31429:31451   */\n      add\n        /* \"#utility.yul\":31398:31461   */\n      tag_191\n      jump\t// in\n    tag_535:\n        /* \"#utility.yul\":31388:31461   */\n      swap2\n      pop\n        /* \"#utility.yul\":31183:31471   */\n      pop\n        /* \"#utility.yul\":30679:31478   */\n      swap3\n      pop\n      swap3\n      pop\n      swap3\n      jump\t// out\n        /* \"#utility.yul\":31484:31632   */\n    tag_233:\n        /* \"#utility.yul\":31586:31597   */\n      0x00\n        /* \"#utility.yul\":31623:31626   */\n      dup2\n        /* \"#utility.yul\":31608:31626   */\n      swap1\n      pop\n        /* \"#utility.yul\":31484:31632   */\n      swap3\n      swap2\n      pop\n      pop\n      jump\t// out\n        /* \"#utility.yul\":31638:32028   */\n    tag_234:\n        /* \"#utility.yul\":31744:31747   */\n      0x00\n        /* \"#utility.yul\":31772:31811   */\n      tag_538\n        /* \"#utility.yul\":31805:31810   */\n      dup3\n        /* \"#utility.yul\":31772:31811   */\n      tag_208\n      jump\t// in\n    tag_538:\n        /* \"#utility.yul\":31827:31916   */\n      tag_539\n        /* \"#utility.yul\":31909:31915   */\n      dup2\n        /* \"#utility.yul\":31904:31907   */\n      dup6\n        /* \"#utility.yul\":31827:31916   */\n      tag_233\n      jump\t// in\n    tag_539:\n        /* \"#utility.yul\":31820:31916   */\n      swap4\n      pop\n        /* \"#utility.yul\":31925:31990   */\n      tag_540\n        /* \"#utility.yul\":31983:31989   */\n      dup2\n        /* \"#utility.yul\":31978:31981   */\n      dup6\n        /* \"#utility.yul\":31971:31975   */\n      0x20\n        /* \"#utility.yul\":31964:31969   */\n      dup7\n        /* \"#utility.yul\":31960:31976   */\n      add\n        /* \"#utility.yul\":31925:31990   */\n      tag_210\n      jump\t// in\n    tag_540:\n        /* \"#utility.yul\":32015:32021   */\n      dup1\n        /* \"#utility.yul\":32010:32013   */\n      dup5\n        /* \"#utility.yul\":32006:32022   */\n      add\n        /* \"#utility.yul\":31999:32022   */\n      swap2\n      pop\n        /* \"#utility.yul\":31748:32028   */\n      pop\n        /* \"#utility.yul\":31638:32028   */\n      swap3\n      swap2\n      pop\n      pop\n      jump\t// out\n        /* \"#utility.yul\":32034:32309   */\n    tag_78:\n        /* \"#utility.yul\":32166:32169   */\n      0x00\n        /* \"#utility.yul\":32188:32283   */\n      tag_542\n        /* \"#utility.yul\":32279:32282   */\n      dup3\n        /* \"#utility.yul\":32270:32276   */\n      dup5\n        /* \"#utility.yul\":32188:32283   */\n      tag_234\n      jump\t// in\n    tag_542:\n        /* \"#utility.yul\":32181:32283   */\n      swap2\n      pop\n        /* \"#utility.yul\":32300:32303   */\n      dup2\n        /* \"#utility.yul\":32293:32303   */\n      swap1\n      pop\n        /* \"#utility.yul\":32034:32309   */\n      swap3\n      swap2\n      pop\n      pop\n      jump\t// out\n        /* \"#utility.yul\":32315:32495   */\n    tag_235:\n        /* \"#utility.yul\":32363:32440   */\n      0x4e487b7100000000000000000000000000000000000000000000000000000000\n        /* \"#utility.yul\":32360:32361   */\n      0x00\n        /* \"#utility.yul\":32353:32441   */\n      mstore\n        /* \"#utility.yul\":32460:32464   */\n      0x22\n        /* \"#utility.yul\":32457:32458   */\n      0x04\n        /* \"#utility.yul\":32450:32465   */\n      mstore\n        /* \"#utility.yul\":32484:32488   */\n      0x24\n        /* \"#utility.yul\":32481:32482   */\n      0x00\n        /* \"#utility.yul\":32474:32489   */\n      revert\n        /* \"#utility.yul\":32501:32821   */\n    tag_107:\n        /* \"#utility.yul\":32545:32551   */\n      0x00\n        /* \"#utility.yul\":32582:32583   */\n      0x02\n        /* \"#utility.yul\":32576:32580   */\n      dup3\n        /* \"#utility.yul\":32572:32584   */\n      div\n        /* \"#utility.yul\":32562:32584   */\n      swap1\n      pop\n        /* \"#utility.yul\":32629:32630   */\n      0x01\n        /* \"#utility.yul\":32623:32627   */\n      dup3\n        /* \"#utility.yul\":32619:32631   */\n      and\n        /* \"#utility.yul\":32650:32668   */\n      dup1\n        /* \"#utility.yul\":32640:32721   */\n      tag_545\n      jumpi\n        /* \"#utility.yul\":32706:32710   */\n      0x7f\n        /* \"#utility.yul\":32698:32704   */\n      dup3\n        /* \"#utility.yul\":32694:32711   */\n      and\n        /* \"#utility.yul\":32684:32711   */\n      swap2\n      pop\n        /* \"#utility.yul\":32640:32721   */\n    tag_545:\n        /* \"#utility.yul\":32768:32770   */\n      0x20\n        /* \"#utility.yul\":32760:32766   */\n      dup3\n        /* \"#utility.yul\":32757:32771   */\n      lt\n        /* \"#utility.yul\":32737:32755   */\n      dup2\n        /* \"#utility.yul\":32734:32772   */\n      sub\n        /* \"#utility.yul\":32731:32815   */\n      tag_546\n      jumpi\n        /* \"#utility.yul\":32787:32805   */\n      tag_547\n      tag_235\n      jump\t// in\n    tag_547:\n        /* \"#utility.yul\":32731:32815   */\n    tag_546:\n        /* \"#utility.yul\":32552:32821   */\n      pop\n        /* \"#utility.yul\":32501:32821   */\n      swap2\n      swap1\n      pop\n      jump\t// out\n        /* \"#utility.yul\":32827:32968   */\n    tag_236:\n        /* \"#utility.yul\":32876:32880   */\n      0x00\n        /* \"#utility.yul\":32899:32902   */\n      dup2\n        /* \"#utility.yul\":32891:32902   */\n      swap1\n      pop\n        /* \"#utility.yul\":32922:32925   */\n      dup2\n        /* \"#utility.yul\":32919:32920   */\n      0x00\n        /* \"#utility.yul\":32912:32926   */\n      mstore\n        /* \"#utility.yul\":32956:32960   */\n      0x20\n        /* \"#utility.yul\":32953:32954   */\n      0x00\n        /* \"#utility.yul\":32943:32961   */\n      keccak256\n        /* \"#utility.yul\":32935:32961   */\n      swap1\n      pop\n        /* \"#utility.yul\":32827:32968   */\n      swap2\n      swap1\n      pop\n      jump\t// out\n        /* \"#utility.yul\":32974:33067   */\n    tag_237:\n        /* \"#utility.yul\":33011:33017   */\n      0x00\n        /* \"#utility.yul\":33058:33060   */\n      0x20\n        /* \"#utility.yul\":33053:33055   */\n      0x1f\n        /* \"#utility.yul\":33046:33051   */\n      dup4\n        /* \"#utility.yul\":33042:33056   */\n      add\n        /* \"#utility.yul\":33038:33061   */\n      div\n        /* \"#utility.yul\":33028:33061   */\n      swap1\n      pop\n        /* \"#utility.yul\":32974:33067   */\n      swap2\n      swap1\n      pop\n      jump\t// out\n        /* \"#utility.yul\":33073:33180   */\n    tag_238:\n        /* \"#utility.yul\":33117:33125   */\n      0x00\n        /* \"#utility.yul\":33167:33172   */\n      dup3\n        /* \"#utility.yul\":33161:33165   */\n      dup3\n        /* \"#utility.yul\":33157:33173   */\n      shl\n        /* \"#utility.yul\":33136:33173   */\n      swap1\n      pop\n        /* \"#utility.yul\":33073:33180   */\n      swap3\n      swap2\n      pop\n      pop\n      jump\t// out\n        /* \"#utility.yul\":33186:33579   */\n    tag_239:\n        /* \"#utility.yul\":33255:33261   */\n      0x00\n        /* \"#utility.yul\":33305:33306   */\n      0x08\n        /* \"#utility.yul\":33293:33303   */\n      dup4\n        /* \"#utility.yul\":33289:33307   */\n      mul\n        /* \"#utility.yul\":33328:33425   */\n      tag_552\n        /* \"#utility.yul\":33358:33424   */\n      0xffffffffffffffffffffffffffffffffffffffffffffffffffffffffffffffff\n        /* \"#utility.yul\":33347:33356   */\n      dup3\n        /* \"#utility.yul\":33328:33425   */\n      tag_238\n      jump\t// in\n    tag_552:\n        /* \"#utility.yul\":33446:33485   */\n      tag_553\n        /* \"#utility.yul\":33476:33484   */\n      dup7\n        /* \"#utility.yul\":33465:33474   */\n      dup4\n        /* \"#utility.yul\":33446:33485   */\n      tag_238\n      jump\t// in\n    tag_553:\n        /* \"#utility.yul\":33434:33485   */\n      swap6\n      pop\n        /* \"#utility.yul\":33518:33522   */\n      dup1\n        /* \"#utility.yul\":33514:33523   */\n      not\n        /* \"#utility.yul\":33507:33512   */\n      dup5\n        /* \"#utility.yul\":33503:33524   */\n      and\n        /* \"#utility.yul\":33494:33524   */\n      swap4\n      pop\n        /* \"#utility.yul\":33567:33571   */\n      dup1\n        /* \"#utility.yul\":33557:33565   */\n      dup7\n        /* \"#utility.yul\":33553:33572   */\n      and\n        /* \"#utility.yul\":33546:33551   */\n      dup5\n        /* \"#utility.yul\":33543:33573   */\n      or\n        /* \"#utility.yul\":33533:33573   */\n      swap3\n      pop\n        /* \"#utility.yul\":33262:33579   */\n      pop\n      pop\n        /* \"#utility.yul\":33186:33579   */\n      swap4\n      swap3\n      pop\n      pop\n      pop\n      jump\t// out\n        /* \"#utility.yul\":33585:33645   */\n    tag_240:\n        /* \"#utility.yul\":33613:33616   */\n      0x00\n        /* \"#utility.yul\":33634:33639   */\n      dup2\n        /* \"#utility.yul\":33627:33639   */\n      swap1\n      pop\n        /* \"#utility.yul\":33585:33645   */\n      swap2\n      swap1\n      pop\n      jump\t// out\n        /* \"#utility.yul\":33651:33793   */\n    tag_241:\n        /* \"#utility.yul\":33701:33710   */\n      0x00\n        /* \"#utility.yul\":33734:33787   */\n      tag_556\n        /* \"#utility.yul\":33752:33786   */\n      tag_557\n        /* \"#utility.yul\":33761:33785   */\n      tag_558\n        /* \"#utility.yul\":33779:33784   */\n      dup5\n        /* \"#utility.yul\":33761:33785   */\n      tag_192\n      jump\t// in\n    tag_558:\n        /* \"#utility.yul\":33752:33786   */\n      tag_240\n      jump\t// in\n    tag_557:\n        /* \"#utility.yul\":33734:33787   */\n      tag_192\n      jump\t// in\n    tag_556:\n        /* \"#utility.yul\":33721:33787   */\n      swap1\n      pop\n        /* \"#utility.yul\":33651:33793   */\n      swap2\n      swap1\n      pop\n      jump\t// out\n        /* \"#utility.yul\":33799:33874   */\n    tag_242:\n        /* \"#utility.yul\":33842:33845   */\n      0x00\n        /* \"#utility.yul\":33863:33868   */\n      dup2\n        /* \"#utility.yul\":33856:33868   */\n      swap1\n      pop\n        /* \"#utility.yul\":33799:33874   */\n      swap2\n      swap1\n      pop\n      jump\t// out\n        /* \"#utility.yul\":33880:34149   */\n    tag_243:\n        /* \"#utility.yul\":33990:34029   */\n      tag_561\n        /* \"#utility.yul\":34021:34028   */\n      dup4\n        /* \"#utility.yul\":33990:34029   */\n      tag_241\n      jump\t// in\n    tag_561:\n        /* \"#utility.yul\":34051:34142   */\n      tag_562\n        /* \"#utility.yul\":34100:34141   */\n      tag_563\n        /* \"#utility.yul\":34124:34140   */\n      dup3\n        /* \"#utility.yul\":34100:34141   */\n      tag_242\n      jump\t// in\n    tag_563:\n        /* \"#utility.yul\":34092:34098   */\n      dup5\n        /* \"#utility.yul\":34085:34089   */\n      dup5\n        /* \"#utility.yul\":34079:34090   */\n      sload\n        /* \"#utility.yul\":34051:34142   */\n      tag_239\n      jump\t// in\n    tag_562:\n        /* \"#utility.yul\":34045:34049   */\n      dup3\n        /* \"#utility.yul\":34038:34143   */\n      sstore\n        /* \"#utility.yul\":33956:34149   */\n      pop\n        /* \"#utility.yul\":33880:34149   */\n      pop\n      pop\n      pop\n      jump\t// out\n        /* \"#utility.yul\":34155:34228   */\n    tag_244:\n        /* \"#utility.yul\":34200:34203   */\n      0x00\n        /* \"#utility.yul\":34155:34228   */\n      swap1\n      jump\t// out\n        /* \"#utility.yul\":34234:34423   */\n    tag_245:\n        /* \"#utility.yul\":34311:34343   */\n      tag_566\n      tag_244\n      jump\t// in\n    tag_566:\n        /* \"#utility.yul\":34352:34417   */\n      tag_567\n        /* \"#utility.yul\":34410:34416   */\n      dup2\n        /* \"#utility.yul\":34402:34408   */\n      dup5\n        /* \"#utility.yul\":34396:34400   */\n      dup5\n        /* \"#utility.yul\":34352:34417   */\n      tag_243\n      jump\t// in\n    tag_567:\n        /* \"#utility.yul\":34287:34423   */\n      pop\n        /* \"#utility.yul\":34234:34423   */\n      pop\n      pop\n      jump\t// out\n        /* \"#utility.yul\":34429:34615   */\n    tag_246:\n        /* \"#utility.yul\":34489:34609   */\n    tag_569:\n        /* \"#utility.yul\":34506:34509   */\n      dup2\n        /* \"#utility.yul\":34499:34504   */\n      dup2\n        /* \"#utility.yul\":34496:34510   */\n      lt\n        /* \"#utility.yul\":34489:34609   */\n      iszero\n      tag_571\n      jumpi\n        /* \"#utility.yul\":34560:34599   */\n      tag_572\n        /* \"#utility.yul\":34597:34598   */\n      0x00\n        /* \"#utility.yul\":34590:34595   */\n      dup3\n        /* \"#utility.yul\":34560:34599   */\n      tag_245\n      jump\t// in\n    tag_572:\n        /* \"#utility.yul\":34533:34534   */\n      0x01\n        /* \"#utility.yul\":34526:34531   */\n      dup2\n        /* \"#utility.yul\":34522:34535   */\n      add\n        /* \"#utility.yul\":34513:34535   */\n      swap1\n      pop\n        /* \"#utility.yul\":34489:34609   */\n      jump(tag_569)\n    tag_571:\n        /* \"#utility.yul\":34429:34615   */\n      pop\n      pop\n      jump\t// out\n        /* \"#utility.yul\":34621:35164   */\n    tag_247:\n        /* \"#utility.yul\":34722:34724   */\n      0x1f\n        /* \"#utility.yul\":34717:34720   */\n      dup3\n        /* \"#utility.yul\":34714:34725   */\n      gt\n        /* \"#utility.yul\":34711:35157   */\n      iszero\n      tag_574\n      jumpi\n        /* \"#utility.yul\":34756:34794   */\n      tag_575\n        /* \"#utility.yul\":34788:34793   */\n      dup2\n        /* \"#utility.yul\":34756:34794   */\n      tag_236\n      jump\t// in\n    tag_575:\n        /* \"#utility.yul\":34840:34869   */\n      tag_576\n        /* \"#utility.yul\":34858:34868   */\n      dup5\n        /* \"#utility.yul\":34840:34869   */\n      tag_237\n      jump\t// in\n    tag_576:\n        /* \"#utility.yul\":34830:34838   */\n      dup2\n        /* \"#utility.yul\":34826:34870   */\n      add\n        /* \"#utility.yul\":35023:35025   */\n      0x20\n        /* \"#utility.yul\":35011:35021   */\n      dup6\n        /* \"#utility.yul\":35008:35026   */\n      lt\n        /* \"#utility.yul\":35005:35054   */\n      iszero\n      tag_577\n      jumpi\n        /* \"#utility.yul\":35044:35052   */\n      dup2\n        /* \"#utility.yul\":35029:35052   */\n      swap1\n      pop\n        /* \"#utility.yul\":35005:35054   */\n    tag_577:\n        /* \"#utility.yul\":35067:35147   */\n      tag_578\n        /* \"#utility.yul\":35123:35145   */\n      tag_579\n        /* \"#utility.yul\":35141:35144   */\n      dup6\n        /* \"#utility.yul\":35123:35145   */\n      tag_237\n      jump\t// in\n    tag_579:\n        /* \"#utility.yul\":35113:35121   */\n      dup4\n        /* \"#utility.yul\":35109:35146   */\n      add\n        /* \"#utility.yul\":35096:35107   */\n      dup3\n        /* \"#utility.yul\":35067:35147   */\n      tag_246\n      jump\t// in\n    tag_578:\n        /* \"#utility.yul\":34726:35157   */\n      pop\n      pop\n        /* \"#utility.yul\":34711:35157   */\n    tag_574:\n        /* \"#utility.yul\":34621:35164   */\n      pop\n      pop\n      pop\n      jump\t// out\n        /* \"#utility.yul\":35170:35287   */\n    tag_248:\n        /* \"#utility.yul\":35224:35232   */\n      0x00\n        /* \"#utility.yul\":35274:35279   */\n      dup3\n        /* \"#utility.yul\":35268:35272   */\n      dup3\n        /* \"#utility.yul\":35264:35280   */\n      shr\n        /* \"#utility.yul\":35243:35280   */\n      swap1\n      pop\n        /* \"#utility.yul\":35170:35287   */\n      swap3\n      swap2\n      pop\n      pop\n      jump\t// out\n        /* \"#utility.yul\":35293:35462   */\n    tag_249:\n        /* \"#utility.yul\":35337:35343   */\n      0x00\n        /* \"#utility.yul\":35370:35421   */\n      tag_582\n        /* \"#utility.yul\":35418:35419   */\n      0x00\n        /* \"#utility.yul\":35414:35420   */\n      not\n        /* \"#utility.yul\":35406:35411   */\n      dup5\n        /* \"#utility.yul\":35403:35404   */\n      0x08\n        /* \"#utility.yul\":35399:35412   */\n      mul\n        /* \"#utility.yul\":35370:35421   */\n      tag_248\n      jump\t// in\n    tag_582:\n        /* \"#utility.yul\":35366:35422   */\n      not\n        /* \"#utility.yul\":35451:35455   */\n      dup1\n        /* \"#utility.yul\":35445:35449   */\n      dup4\n        /* \"#utility.yul\":35441:35456   */\n      and\n        /* \"#utility.yul\":35431:35456   */\n      swap2\n      pop\n        /* \"#utility.yul\":35344:35462   */\n      pop\n        /* \"#utility.yul\":35293:35462   */\n      swap3\n      swap2\n      pop\n      pop\n      jump\t// out\n        /* \"#utility.yul\":35467:35762   */\n    tag_250:\n        /* \"#utility.yul\":35543:35547   */\n      0x00\n        /* \"#utility.yul\":35689:35718   */\n      tag_584\n        /* \"#utility.yul\":35714:35717   */\n      dup4\n        /* \"#utility.yul\":35708:35712   */\n      dup4\n        /* \"#utility.yul\":35689:35718   */\n      tag_249\n      jump\t// in\n    tag_584:\n        /* \"#utility.yul\":35681:35718   */\n      swap2\n      pop\n        /* \"#utility.yul\":35751:35754   */\n      dup3\n        /* \"#utility.yul\":35748:35749   */\n      0x02\n        /* \"#utility.yul\":35744:35755   */\n      mul\n        /* \"#utility.yul\":35738:35742   */\n      dup3\n        /* \"#utility.yul\":35735:35756   */\n      or\n        /* \"#utility.yul\":35727:35756   */\n      swap1\n      pop\n        /* \"#utility.yul\":35467:35762   */\n      swap3\n      swap2\n      pop\n      pop\n      jump\t// out\n        /* \"#utility.yul\":35767:37162   */\n    tag_80:\n        /* \"#utility.yul\":35884:35921   */\n      tag_586\n        /* \"#utility.yul\":35917:35920   */\n      dup3\n        /* \"#utility.yul\":35884:35921   */\n      tag_208\n      jump\t// in\n    tag_586:\n        /* \"#utility.yul\":35986:36004   */\n      0xffffffffffffffff\n        /* \"#utility.yul\":35978:35984   */\n      dup2\n        /* \"#utility.yul\":35975:36005   */\n      gt\n        /* \"#utility.yul\":35972:36028   */\n      iszero\n      tag_587\n      jumpi\n        /* \"#utility.yul\":36008:36026   */\n      tag_588\n      tag_185\n      jump\t// in\n    tag_588:\n        /* \"#utility.yul\":35972:36028   */\n    tag_587:\n        /* \"#utility.yul\":36052:36090   */\n      tag_589\n        /* \"#utility.yul\":36084:36088   */\n      dup3\n        /* \"#utility.yul\":36078:36089   */\n      sload\n        /* \"#utility.yul\":36052:36090   */\n      tag_107\n      jump\t// in\n    tag_589:\n        /* \"#utility.yul\":36137:36204   */\n      tag_590\n        /* \"#utility.yul\":36197:36203   */\n      dup3\n        /* \"#utility.yul\":36189:36195   */\n      dup3\n        /* \"#utility.yul\":36183:36187   */\n      dup6\n        /* \"#utility.yul\":36137:36204   */\n      tag_247\n      jump\t// in\n    tag_590:\n        /* \"#utility.yul\":36231:36232   */\n      0x00\n        /* \"#utility.yul\":36255:36259   */\n      0x20\n        /* \"#utility.yul\":36242:36259   */\n      swap1\n      pop\n        /* \"#utility.yul\":36287:36289   */\n      0x1f\n        /* \"#utility.yul\":36279:36285   */\n      dup4\n        /* \"#utility.yul\":36276:36290   */\n      gt\n        /* \"#utility.yul\":36304:36305   */\n      0x01\n        /* \"#utility.yul\":36299:36917   */\n      dup2\n      eq\n      tag_592\n      jumpi\n        /* \"#utility.yul\":36961:36962   */\n      0x00\n        /* \"#utility.yul\":36978:36984   */\n      dup5\n        /* \"#utility.yul\":36975:37052   */\n      iszero\n      tag_593\n      jumpi\n        /* \"#utility.yul\":37027:37036   */\n      dup3\n        /* \"#utility.yul\":37022:37025   */\n      dup8\n        /* \"#utility.yul\":37018:37037   */\n      add\n        /* \"#utility.yul\":37012:37038   */\n      mload\n        /* \"#utility.yul\":37003:37038   */\n      swap1\n      pop\n        /* \"#utility.yul\":36975:37052   */\n    tag_593:\n        /* \"#utility.yul\":37078:37145   */\n      tag_594\n        /* \"#utility.yul\":37138:37144   */\n      dup6\n        /* \"#utility.yul\":37131:37136   */\n      dup3\n        /* \"#utility.yul\":37078:37145   */\n      tag_250\n      jump\t// in\n    tag_594:\n        /* \"#utility.yul\":37072:37076   */\n      dup7\n        /* \"#utility.yul\":37065:37146   */\n      sstore\n        /* \"#utility.yul\":36934:37156   */\n      pop\n        /* \"#utility.yul\":36269:37156   */\n      jump(tag_591)\n        /* \"#utility.yul\":36299:36917   */\n    tag_592:\n        /* \"#utility.yul\":36351:36355   */\n      0x1f\n        /* \"#utility.yul\":36347:36356   */\n      not\n        /* \"#utility.yul\":36339:36345   */\n      dup5\n        /* \"#utility.yul\":36335:36357   */\n      and\n        /* \"#utility.yul\":36385:36422   */\n      tag_595\n        /* \"#utility.yul\":36417:36421   */\n      dup7\n        /* \"#utility.yul\":36385:36422   */\n      tag_236\n      jump\t// in\n    tag_595:\n        /* \"#utility.yul\":36444:36445   */\n      0x00\n        /* \"#utility.yul\":36458:36666   */\n    tag_596:\n        /* \"#utility.yul\":36472:36479   */\n      dup3\n        /* \"#utility.yul\":36469:36470   */\n      dup2\n        /* \"#utility.yul\":36466:36480   */\n      lt\n        /* \"#utility.yul\":36458:36666   */\n      iszero\n      tag_598\n      jumpi\n        /* \"#utility.yul\":36551:36560   */\n      dup5\n        /* \"#utility.yul\":36546:36549   */\n      dup10\n        /* \"#utility.yul\":36542:36561   */\n      add\n        /* \"#utility.yul\":36536:36562   */\n      mload\n        /* \"#utility.yul\":36528:36534   */\n      dup3\n        /* \"#utility.yul\":36521:36563   */\n      sstore\n        /* \"#utility.yul\":36602:36603   */\n      0x01\n        /* \"#utility.yul\":36594:36600   */\n      dup3\n        /* \"#utility.yul\":36590:36604   */\n      add\n        /* \"#utility.yul\":36580:36604   */\n      swap2\n      pop\n        /* \"#utility.yul\":36649:36651   */\n      0x20\n        /* \"#utility.yul\":36638:36647   */\n      dup6\n        /* \"#utility.yul\":36634:36652   */\n      add\n        /* \"#utility.yul\":36621:36652   */\n      swap5\n      pop\n        /* \"#utility.yul\":36495:36499   */\n      0x20\n        /* \"#utility.yul\":36492:36493   */\n      dup2\n        /* \"#utility.yul\":36488:36500   */\n      add\n        /* \"#utility.yul\":36483:36500   */\n      swap1\n      pop\n        /* \"#utility.yul\":36458:36666   */\n      jump(tag_596)\n    tag_598:\n        /* \"#utility.yul\":36694:36700   */\n      dup7\n        /* \"#utility.yul\":36685:36692   */\n      dup4\n        /* \"#utility.yul\":36682:36701   */\n      lt\n        /* \"#utility.yul\":36679:36858   */\n      iszero\n      tag_599\n      jumpi\n        /* \"#utility.yul\":36752:36761   */\n      dup5\n        /* \"#utility.yul\":36747:36750   */\n      dup10\n        /* \"#utility.yul\":36743:36762   */\n      add\n        /* \"#utility.yul\":36737:36763   */\n      mload\n        /* \"#utility.yul\":36795:36843   */\n      tag_600\n        /* \"#utility.yul\":36837:36841   */\n      0x1f\n        /* \"#utility.yul\":36829:36835   */\n      dup10\n        /* \"#utility.yul\":36825:36842   */\n      and\n        /* \"#utility.yul\":36814:36823   */\n      dup3\n        /* \"#utility.yul\":36795:36843   */\n      tag_249\n      jump\t// in\n    tag_600:\n        /* \"#utility.yul\":36787:36793   */\n      dup4\n        /* \"#utility.yul\":36780:36844   */\n      sstore\n        /* \"#utility.yul\":36702:36858   */\n      pop\n        /* \"#utility.yul\":36679:36858   */\n    tag_599:\n        /* \"#utility.yul\":36904:36905   */\n      0x01\n        /* \"#utility.yul\":36900:36901   */\n      0x02\n        /* \"#utility.yul\":36892:36898   */\n      dup9\n        /* \"#utility.yul\":36888:36902   */\n      mul\n        /* \"#utility.yul\":36884:36906   */\n      add\n        /* \"#utility.yul\":36878:36882   */\n      dup9\n        /* \"#utility.yul\":36871:36907   */\n      sstore\n        /* \"#utility.yul\":36306:36917   */\n      pop\n      pop\n      pop\n        /* \"#utility.yul\":36269:37156   */\n    tag_591:\n      pop\n        /* \"#utility.yul\":35859:37162   */\n      pop\n      pop\n      pop\n        /* \"#utility.yul\":35767:37162   */\n      pop\n      pop\n      jump\t// out\n        /* \"#utility.yul\":37168:37348   */\n    tag_92:\n        /* \"#utility.yul\":37216:37293   */\n      0x4e487b7100000000000000000000000000000000000000000000000000000000\n        /* \"#utility.yul\":37213:37214   */\n      0x00\n        /* \"#utility.yul\":37206:37294   */\n      mstore\n        /* \"#utility.yul\":37313:37317   */\n      0x32\n        /* \"#utility.yul\":37310:37311   */\n      0x04\n        /* \"#utility.yul\":37303:37318   */\n      mstore\n        /* \"#utility.yul\":37337:37341   */\n      0x24\n        /* \"#utility.yul\":37334:37335   */\n      0x00\n        /* \"#utility.yul\":37327:37342   */\n      revert\n        /* \"#utility.yul\":37354:37534   */\n    tag_251:\n        /* \"#utility.yul\":37402:37479   */\n      0x4e487b7100000000000000000000000000000000000000000000000000000000\n        /* \"#utility.yul\":37399:37400   */\n      0x00\n        /* \"#utility.yul\":37392:37480   */\n      mstore\n        /* \"#utility.yul\":37499:37503   */\n      0x11\n        /* \"#utility.yul\":37496:37497   */\n      0x04\n        /* \"#utility.yul\":37489:37504   */\n      mstore\n        /* \"#utility.yul\":37523:37527   */\n      0x24\n        /* \"#utility.yul\":37520:37521   */\n      0x00\n        /* \"#utility.yul\":37513:37528   */\n      revert\n        /* \"#utility.yul\":37540:37773   */\n    tag_102:\n        /* \"#utility.yul\":37579:37582   */\n      0x00\n        /* \"#utility.yul\":37602:37626   */\n      tag_604\n        /* \"#utility.yul\":37620:37625   */\n      dup3\n        /* \"#utility.yul\":37602:37626   */\n      tag_192\n      jump\t// in\n    tag_604:\n        /* \"#utility.yul\":37593:37626   */\n      swap2\n      pop\n        /* \"#utility.yul\":37648:37714   */\n      0xffffffffffffffffffffffffffffffffffffffffffffffffffffffffffffffff\n        /* \"#utility.yul\":37641:37646   */\n      dup3\n        /* \"#utility.yul\":37638:37715   */\n      sub\n        /* \"#utility.yul\":37635:37738   */\n      tag_605\n      jumpi\n        /* \"#utility.yul\":37718:37736   */\n      tag_606\n      tag_251\n      jump\t// in\n    tag_606:\n        /* \"#utility.yul\":37635:37738   */\n    tag_605:\n        /* \"#utility.yul\":37765:37766   */\n      0x01\n        /* \"#utility.yul\":37758:37763   */\n      dup3\n        /* \"#utility.yul\":37754:37767   */\n      add\n        /* \"#utility.yul\":37747:37767   */\n      swap1\n      pop\n        /* \"#utility.yul\":37540:37773   */\n      swap2\n      swap1\n      pop\n      jump\t// out\n        /* \"#utility.yul\":37779:38312   */\n    tag_161:\n        /* \"#utility.yul\":37948:37952   */\n      0x00\n        /* \"#utility.yul\":37986:37988   */\n      0x60\n        /* \"#utility.yul\":37975:37984   */\n      dup3\n        /* \"#utility.yul\":37971:37989   */\n      add\n        /* \"#utility.yul\":37963:37989   */\n      swap1\n      pop\n        /* \"#utility.yul\":37999:38070   */\n      tag_608\n        /* \"#utility.yul\":38067:38068   */\n      0x00\n        /* \"#utility.yul\":38056:38065   */\n      dup4\n        /* \"#utility.yul\":38052:38069   */\n      add\n        /* \"#utility.yul\":38043:38049   */\n      dup7\n        /* \"#utility.yul\":37999:38070   */\n      tag_220\n      jump\t// in\n    tag_608:\n        /* \"#utility.yul\":38080:38152   */\n      tag_609\n        /* \"#utility.yul\":38148:38150   */\n      0x20\n        /* \"#utility.yul\":38137:38146   */\n      dup4\n        /* \"#utility.yul\":38133:38151   */\n      add\n        /* \"#utility.yul\":38124:38130   */\n      dup6\n        /* \"#utility.yul\":38080:38152   */\n      tag_220\n      jump\t// in\n    tag_609:\n        /* \"#utility.yul\":38199:38208   */\n      dup2\n        /* \"#utility.yul\":38193:38197   */\n      dup2\n        /* \"#utility.yul\":38189:38209   */\n      sub\n        /* \"#utility.yul\":38184:38186   */\n      0x40\n        /* \"#utility.yul\":38173:38182   */\n      dup4\n        /* \"#utility.yul\":38169:38187   */\n      add\n        /* \"#utility.yul\":38162:38210   */\n      mstore\n        /* \"#utility.yul\":38227:38305   */\n      tag_610\n        /* \"#utility.yul\":38300:38304   */\n      dup2\n        /* \"#utility.yul\":38291:38297   */\n      dup5\n        /* \"#utility.yul\":38227:38305   */\n      tag_211\n      jump\t// in\n    tag_610:\n        /* \"#utility.yul\":38219:38305   */\n      swap1\n      pop\n        /* \"#utility.yul\":37779:38312   */\n      swap5\n      swap4\n      pop\n      pop\n      pop\n      pop\n      jump\t// out\n\n    auxdata: 0xa2646970667358221220aef287c23b85b7c48af385ea0e457e38213998e28fb2dcdeb45107c52c4943d864736f6c63430008140033\n}\n",
				"bytecode": {
					"linkReferences": {},
					"object": "60806040526040518060400160405280600681526020017f6167656e637900000000000000000000000000000000000000000000000000008152505f9081620000499190620002c1565b5034801562000056575f80fd5b50620003a5565b5f81519050919050565b7f4e487b71000000000000000000000000000000000000000000000000000000005f52604160045260245ffd5b7f4e487b71000000000000000000000000000000000000000000000000000000005f52602260045260245ffd5b5f6002820490506001821680620000d957607f821691505b602082108103620000ef57620000ee62000094565b5b50919050565b5f819050815f5260205f209050919050565b5f6020601f8301049050919050565b5f82821b905092915050565b5f60088302620001537fffffffffffffffffffffffffffffffffffffffffffffffffffffffffffffffff8262000116565b6200015f868362000116565b95508019841693508086168417925050509392505050565b5f819050919050565b5f819050919050565b5f620001a9620001a36200019d8462000177565b62000180565b62000177565b9050919050565b5f819050919050565b620001c48362000189565b620001dc620001d382620001b0565b84845462000122565b825550505050565b5f90565b620001f2620001e4565b620001ff818484620001b9565b505050565b5b8181101562000226576200021a5f82620001e8565b60018101905062000205565b5050565b601f82111562000275576200023f81620000f5565b6200024a8462000107565b810160208510156200025a578190505b62000272620002698562000107565b83018262000204565b50505b505050565b5f82821c905092915050565b5f620002975f19846008026200027a565b1980831691505092915050565b5f620002b1838362000286565b9150826002028217905092915050565b620002cc826200005d565b67ffffffffffffffff811115620002e857620002e762000067565b5b620002f48254620000c1565b620003018282856200022a565b5f60209050601f83116001811462000337575f841562000322578287015190505b6200032e8582620002a4565b8655506200039d565b601f1984166200034786620000f5565b5f5b82811015620003705784890151825560018201915060208501945060208101905062000349565b868310156200039057848901516200038c601f89168262000286565b8355505b6001600288020188555050505b505050505050565b611e7d80620003b35f395ff3fe608060405234801561000f575f80fd5b50600436106100cc575f3560e01c806391c9b2681161008a578063cbe737b311610064578063cbe737b314610239578063cce9889e14610269578063e4a8f18b14610285578063f5c4b73e146102a3576100cc565b806391c9b268146101c657806393dc12e6146101ff57806399e76d351461021b576100cc565b80629f310b146100d0578063089cd025146100ec57806348c35ad4146101085780634ac64766146101385780635f8439e3146101565780638abb10c61461018d575b5f80fd5b6100ea60048036038101906100e59190611084565b6102bf565b005b610106600480360381019061010191906111dd565b6104d4565b005b610122600480360381019061011d919061121b565b6104d8565b60405161012f91906112c0565b60405180910390f35b61014061057e565b60405161014d91906113e3565b60405180910390f35b610170600480360381019061016b919061121b565b610652565b604051610184989796959493929190611421565b60405180910390f35b6101a760048036038101906101a2919061121b565b610667565b6040516101bd9a99989796959493929190611570565b60405180910390f35b6101e060048036038101906101db9190611634565b610681565b6040516101f69a9998979695949392919061167b565b60405180910390f35b6102196004803603810190610214919061121b565b610993565b005b610223610996565b60405161023091906112c0565b60405180910390f35b610253600480360381019061024e9190611738565b610a21565b6040516102609190611910565b60405180910390f35b610283600480360381019061027e9190611930565b610a2f565b005b61028d610a35565b60405161029a91906119cc565b60405180910390f35b6102bd60048036038101906102b891906119e5565b610a41565b005b5f6001896040516102d09190611a8b565b90815260200160405180910390209050878160010190816102f19190611c9b565b50868160020190816103039190611c9b565b5088815f0190816103149190611c9b565b50858160030190816103269190611c9b565b50848160040190816103389190611c9b565b504281600501819055508381600601819055508281600701819055505f816009015f6101000a81548160ff0219169083151502179055505f8160080181905550600289908060018154018082558091505060019003905f5260205f20015f9091909190915090816103a99190611c9b565b505f5b82518110156104c85781600a018382815181106103cc576103cb611d6a565b5b6020026020010151908060018154018082558091505060019003905f5260205f2090600802015f909190919091505f820151815f01908161040d9190611c9b565b5060208201518160010190816104239190611c9b565b5060408201518160020190816104399190611c9b565b50606082015181600301908161044f9190611c9b565b506080820151816004015560a0820151816005019080519060200190610476929190610a81565b5060c0820151816006019080519060200190610493929190610a81565b5060e0820151816007015f6101000a81548160ff021916908315150217905550505080806104c090611dc4565b9150506103ac565b50505050505050505050565b5050565b600281815481106104e7575f80fd5b905f5260205f20015f9150905080546104ff90611ace565b80601f016020809104026020016040519081016040528092919081815260200182805461052b90611ace565b80156105765780601f1061054d57610100808354040283529160200191610576565b820191905f5260205f20905b81548152906001019060200180831161055957829003601f168201915b505050505081565b60606002805480602002602001604051908101604052809291908181526020015f905b82821015610649578382905f5260205f200180546105be90611ace565b80601f01602080910402602001604051908101604052809291908181526020018280546105ea90611ace565b80156106355780601f1061060c57610100808354040283529160200191610635565b820191905f5260205f20905b81548152906001019060200180831161061857829003601f168201915b5050505050815260200190600101906105a1565b50505050905090565b6060806060805f805f80919395975091939597565b6060806060805f805f806060809193959799509193959799565b6001818051602081018201805184825260208301602085012081835280955050505050505f91509050805f0180546106b890611ace565b80601f01602080910402602001604051908101604052809291908181526020018280546106e490611ace565b801561072f5780601f106107065761010080835404028352916020019161072f565b820191905f5260205f20905b81548152906001019060200180831161071257829003601f168201915b50505050509080600101805461074490611ace565b80601f016020809104026020016040519081016040528092919081815260200182805461077090611ace565b80156107bb5780601f10610792576101008083540402835291602001916107bb565b820191905f5260205f20905b81548152906001019060200180831161079e57829003601f168201915b5050505050908060020180546107d090611ace565b80601f01602080910402602001604051908101604052809291908181526020018280546107fc90611ace565b80156108475780601f1061081e57610100808354040283529160200191610847565b820191905f5260205f20905b81548152906001019060200180831161082a57829003601f168201915b50505050509080600301805461085c90611ace565b80601f016020809104026020016040519081016040528092919081815260200182805461088890611ace565b80156108d35780601f106108aa576101008083540402835291602001916108d3565b820191905f5260205f20905b8154815290600101906020018083116108b657829003601f168201915b5050505050908060040180546108e890611ace565b80601f016020809104026020016040519081016040528092919081815260200182805461091490611ace565b801561095f5780601f106109365761010080835404028352916020019161095f565b820191905f5260205f20905b81548152906001019060200180831161094257829003601f168201915b505050505090806005015490806006015490806007015490806008015490806009015f9054906101000a900460ff1690508a565b50565b5f80546109a290611ace565b80601f01602080910402602001604051908101604052809291908181526020018280546109ce90611ace565b8015610a195780601f106109f057610100808354040283529160200191610a19565b820191905f5260205f20905b8154815290600101906020018083116109fc57829003601f168201915b505050505081565b610a29610ad8565b92915050565b50505050565b5f600280549050905090565b7f9f64639419de97116219d1f7c000638905fa8176602dc9afd7d28338b6a803cc838383604051610a7493929190611e0b565b60405180910390a1505050565b828054828255905f5260205f20908101928215610ac7579160200282015b82811115610ac6578251829081610ab69190611c9b565b5091602001919060010190610a9f565b5b509050610ad49190610b1d565b5090565b604051806101000160405280606081526020016060815260200160608152602001606081526020015f815260200160608152602001606081526020015f151581525090565b5b80821115610b3c575f8181610b339190610b40565b50600101610b1e565b5090565b508054610b4c90611ace565b5f825580601f10610b5d5750610b7a565b601f0160209004905f5260205f2090810190610b799190610b7d565b5b50565b5b80821115610b94575f815f905550600101610b7e565b5090565b5f604051905090565b5f80fd5b5f80fd5b5f80fd5b5f80fd5b5f601f19601f8301169050919050565b7f4e487b71000000000000000000000000000000000000000000000000000000005f52604160045260245ffd5b610bf782610bb1565b810181811067ffffffffffffffff82111715610c1657610c15610bc1565b5b80604052505050565b5f610c28610b98565b9050610c348282610bee565b919050565b5f67ffffffffffffffff821115610c5357610c52610bc1565b5b610c5c82610bb1565b9050602081019050919050565b828183375f83830152505050565b5f610c89610c8484610c39565b610c1f565b905082815260208101848484011115610ca557610ca4610bad565b5b610cb0848285610c69565b509392505050565b5f82601f830112610ccc57610ccb610ba9565b5b8135610cdc848260208601610c77565b91505092915050565b5f819050919050565b610cf781610ce5565b8114610d01575f80fd5b50565b5f81359050610d1281610cee565b92915050565b5f67ffffffffffffffff821115610d3257610d31610bc1565b5b602082029050602081019050919050565b5f80fd5b5f80fd5b5f80fd5b5f67ffffffffffffffff821115610d6957610d68610bc1565b5b602082029050602081019050919050565b5f610d8c610d8784610d4f565b610c1f565b90508083825260208201905060208402830185811115610daf57610dae610d43565b5b835b81811015610df657803567ffffffffffffffff811115610dd457610dd3610ba9565b5b808601610de18982610cb8565b85526020850194505050602081019050610db1565b5050509392505050565b5f82601f830112610e1457610e13610ba9565b5b8135610e24848260208601610d7a565b91505092915050565b5f8115159050919050565b610e4181610e2d565b8114610e4b575f80fd5b50565b5f81359050610e5c81610e38565b92915050565b5f6101008284031215610e7857610e77610d47565b5b610e83610100610c1f565b90505f82013567ffffffffffffffff811115610ea257610ea1610d4b565b5b610eae84828501610cb8565b5f83015250602082013567ffffffffffffffff811115610ed157610ed0610d4b565b5b610edd84828501610cb8565b602083015250604082013567ffffffffffffffff811115610f0157610f00610d4b565b5b610f0d84828501610cb8565b604083015250606082013567ffffffffffffffff811115610f3157610f30610d4b565b5b610f3d84828501610cb8565b6060830152506080610f5184828501610d04565b60808301525060a082013567ffffffffffffffff811115610f7557610f74610d4b565b5b610f8184828501610e00565b60a08301525060c082013567ffffffffffffffff811115610fa557610fa4610d4b565b5b610fb184828501610e00565b60c08301525060e0610fc584828501610e4e565b60e08301525092915050565b5f610fe3610fde84610d18565b610c1f565b9050808382526020820190506020840283018581111561100657611005610d43565b5b835b8181101561104d57803567ffffffffffffffff81111561102b5761102a610ba9565b5b8086016110388982610e62565b85526020850194505050602081019050611008565b5050509392505050565b5f82601f83011261106b5761106a610ba9565b5b813561107b848260208601610fd1565b91505092915050565b5f805f805f805f80610100898b0312156110a1576110a0610ba1565b5b5f89013567ffffffffffffffff8111156110be576110bd610ba5565b5b6110ca8b828c01610cb8565b985050602089013567ffffffffffffffff8111156110eb576110ea610ba5565b5b6110f78b828c01610cb8565b975050604089013567ffffffffffffffff81111561111857611117610ba5565b5b6111248b828c01610cb8565b965050606089013567ffffffffffffffff81111561114557611144610ba5565b5b6111518b828c01610cb8565b955050608089013567ffffffffffffffff81111561117257611171610ba5565b5b61117e8b828c01610cb8565b94505060a061118f8b828c01610d04565b93505060c06111a08b828c01610d04565b92505060e089013567ffffffffffffffff8111156111c1576111c0610ba5565b5b6111cd8b828c01611057565b9150509295985092959890939650565b5f80604083850312156111f3576111f2610ba1565b5b5f61120085828601610d04565b925050602061121185828601610d04565b9150509250929050565b5f602082840312156112305761122f610ba1565b5b5f61123d84828501610d04565b91505092915050565b5f81519050919050565b5f82825260208201905092915050565b5f5b8381101561127d578082015181840152602081019050611262565b5f8484015250505050565b5f61129282611246565b61129c8185611250565b93506112ac818560208601611260565b6112b581610bb1565b840191505092915050565b5f6020820190508181035f8301526112d88184611288565b905092915050565b5f81519050919050565b5f82825260208201905092915050565b5f819050602082019050919050565b5f82825260208201905092915050565b5f61132382611246565b61132d8185611309565b935061133d818560208601611260565b61134681610bb1565b840191505092915050565b5f61135c8383611319565b905092915050565b5f602082019050919050565b5f61137a826112e0565b61138481856112ea565b935083602082028501611396856112fa565b805f5b858110156113d157848403895281516113b28582611351565b94506113bd83611364565b925060208a01995050600181019050611399565b50829750879550505050505092915050565b5f6020820190508181035f8301526113fb8184611370565b905092915050565b61140c81610ce5565b82525050565b61141b81610e2d565b82525050565b5f610100820190508181035f83015261143a818b611288565b9050818103602083015261144e818a611288565b905081810360408301526114628189611288565b905081810360608301526114768188611288565b90506114856080830187611403565b61149260a0830186611403565b61149f60c0830185611403565b6114ac60e0830184611412565b9998505050505050505050565b5f81519050919050565b5f82825260208201905092915050565b5f819050602082019050919050565b6114eb81610ce5565b82525050565b5f6114fc83836114e2565b60208301905092915050565b5f602082019050919050565b5f61151e826114b9565b61152881856114c3565b9350611533836114d3565b805f5b8381101561156357815161154a88826114f1565b975061155583611508565b925050600181019050611536565b5085935050505092915050565b5f610140820190508181035f830152611589818d611288565b9050818103602083015261159d818c611288565b905081810360408301526115b1818b611288565b905081810360608301526115c5818a611288565b90506115d46080830189611403565b6115e160a0830188611403565b6115ee60c0830187611403565b6115fb60e0830186611412565b81810361010083015261160e8185611514565b90508181036101208301526116238184611370565b90509b9a5050505050505050505050565b5f6020828403121561164957611648610ba1565b5b5f82013567ffffffffffffffff81111561166657611665610ba5565b5b61167284828501610cb8565b91505092915050565b5f610140820190508181035f830152611694818d611288565b905081810360208301526116a8818c611288565b905081810360408301526116bc818b611288565b905081810360608301526116d0818a611288565b905081810360808301526116e48189611288565b90506116f360a0830188611403565b61170060c0830187611403565b61170d60e0830186611403565b61171b610100830185611403565b611729610120830184611412565b9b9a5050505050505050505050565b5f806040838503121561174e5761174d610ba1565b5b5f83013567ffffffffffffffff81111561176b5761176a610ba5565b5b61177785828601610cb8565b925050602083013567ffffffffffffffff81111561179857611797610ba5565b5b6117a485828601610cb8565b9150509250929050565b5f82825260208201905092915050565b5f6117c8826112e0565b6117d281856117ae565b9350836020820285016117e4856112fa565b805f5b8581101561181f57848403895281516118008582611351565b945061180b83611364565b925060208a019950506001810190506117e7565b50829750879550505050505092915050565b61183a81610e2d565b82525050565b5f61010083015f8301518482035f86015261185b8282611319565b915050602083015184820360208601526118758282611319565b9150506040830151848203604086015261188f8282611319565b915050606083015184820360608601526118a98282611319565b91505060808301516118be60808601826114e2565b5060a083015184820360a08601526118d682826117be565b91505060c083015184820360c08601526118f082826117be565b91505060e083015161190560e0860182611831565b508091505092915050565b5f6020820190508181035f8301526119288184611840565b905092915050565b5f805f806080858703121561194857611947610ba1565b5b5f61195587828801610d04565b945050602085013567ffffffffffffffff81111561197657611975610ba5565b5b61198287828801610cb8565b935050604061199387828801610d04565b925050606085013567ffffffffffffffff8111156119b4576119b3610ba5565b5b6119c087828801610e00565b91505092959194509250565b5f6020820190506119df5f830184611403565b92915050565b5f805f606084860312156119fc576119fb610ba1565b5b5f611a0986828701610d04565b9350506020611a1a86828701610d04565b925050604084013567ffffffffffffffff811115611a3b57611a3a610ba5565b5b611a4786828701610cb8565b9150509250925092565b5f81905092915050565b5f611a6582611246565b611a6f8185611a51565b9350611a7f818560208601611260565b80840191505092915050565b5f611a968284611a5b565b915081905092915050565b7f4e487b71000000000000000000000000000000000000000000000000000000005f52602260045260245ffd5b5f6002820490506001821680611ae557607f821691505b602082108103611af857611af7611aa1565b5b50919050565b5f819050815f5260205f209050919050565b5f6020601f8301049050919050565b5f82821b905092915050565b5f60088302611b5a7fffffffffffffffffffffffffffffffffffffffffffffffffffffffffffffffff82611b1f565b611b648683611b1f565b95508019841693508086168417925050509392505050565b5f819050919050565b5f611b9f611b9a611b9584610ce5565b611b7c565b610ce5565b9050919050565b5f819050919050565b611bb883611b85565b611bcc611bc482611ba6565b848454611b2b565b825550505050565b5f90565b611be0611bd4565b611beb818484611baf565b505050565b5b81811015611c0e57611c035f82611bd8565b600181019050611bf1565b5050565b601f821115611c5357611c2481611afe565b611c2d84611b10565b81016020851015611c3c578190505b611c50611c4885611b10565b830182611bf0565b50505b505050565b5f82821c905092915050565b5f611c735f1984600802611c58565b1980831691505092915050565b5f611c8b8383611c64565b9150826002028217905092915050565b611ca482611246565b67ffffffffffffffff811115611cbd57611cbc610bc1565b5b611cc78254611ace565b611cd2828285611c12565b5f60209050601f831160018114611d03575f8415611cf1578287015190505b611cfb8582611c80565b865550611d62565b601f198416611d1186611afe565b5f5b82811015611d3857848901518255600182019150602085019450602081019050611d13565b86831015611d555784890151611d51601f891682611c64565b8355505b6001600288020188555050505b505050505050565b7f4e487b71000000000000000000000000000000000000000000000000000000005f52603260045260245ffd5b7f4e487b71000000000000000000000000000000000000000000000000000000005f52601160045260245ffd5b5f611dce82610ce5565b91507fffffffffffffffffffffffffffffffffffffffffffffffffffffffffffffffff8203611e0057611dff611d97565b5b600182019050919050565b5f606082019050611e1e5f830186611403565b611e2b6020830185611403565b8181036040830152611e3d8184611288565b905094935050505056fea2646970667358221220aef287c23b85b7c48af385ea0e457e38213998e28fb2dcdeb45107c52c4943d864736f6c63430008140033",
					"opcodes": "PUSH1 0x80 PUSH1 0x40 MSTORE PUSH1 0x40 MLOAD DUP1 PUSH1 0x40 ADD PUSH1 0x40 MSTORE DUP1 PUSH1 0x6 DUP2 MSTORE PUSH1 0x20 ADD PUSH32 0x6167656E63790000000000000000000000000000000000000000000000000000 DUP2 MSTORE POP PUSH0 SWAP1 DUP2 PUSH3 0x49 SWAP2 SWAP1 PUSH3 0x2C1 JUMP JUMPDEST POP CALLVALUE DUP1 ISZERO PUSH3 0x56 JUMPI PUSH0 DUP1 REVERT JUMPDEST POP PUSH3 0x3A5 JUMP JUMPDEST PUSH0 DUP2 MLOAD SWAP1 POP SWAP2 SWAP1 POP JUMP JUMPDEST PUSH32 0x4E487B7100000000000000000000000000000000000000000000000000000000 PUSH0 MSTORE PUSH1 0x41 PUSH1 0x4 MSTORE PUSH1 0x24 PUSH0 REVERT JUMPDEST PUSH32 0x4E487B7100000000000000000000000000000000000000000000000000000000 PUSH0 MSTORE PUSH1 0x22 PUSH1 0x4 MSTORE PUSH1 0x24 PUSH0 REVERT JUMPDEST PUSH0 PUSH1 0x2 DUP3 DIV SWAP1 POP PUSH1 0x1 DUP3 AND DUP1 PUSH3 0xD9 JUMPI PUSH1 0x7F DUP3 AND SWAP2 POP JUMPDEST PUSH1 0x20 DUP3 LT DUP2 SUB PUSH3 0xEF JUMPI PUSH3 0xEE PUSH3 0x94 JUMP JUMPDEST JUMPDEST POP SWAP2 SWAP1 POP JUMP JUMPDEST PUSH0 DUP2 SWAP1 POP DUP2 PUSH0 MSTORE PUSH1 0x20 PUSH0 KECCAK256 SWAP1 POP SWAP2 SWAP1 POP JUMP JUMPDEST PUSH0 PUSH1 0x20 PUSH1 0x1F DUP4 ADD DIV SWAP1 POP SWAP2 SWAP1 POP JUMP JUMPDEST PUSH0 DUP3 DUP3 SHL SWAP1 POP SWAP3 SWAP2 POP POP JUMP JUMPDEST PUSH0 PUSH1 0x8 DUP4 MUL PUSH3 0x153 PUSH32 0xFFFFFFFFFFFFFFFFFFFFFFFFFFFFFFFFFFFFFFFFFFFFFFFFFFFFFFFFFFFFFFFF DUP3 PUSH3 0x116 JUMP JUMPDEST PUSH3 0x15F DUP7 DUP4 PUSH3 0x116 JUMP JUMPDEST SWAP6 POP DUP1 NOT DUP5 AND SWAP4 POP DUP1 DUP7 AND DUP5 OR SWAP3 POP POP POP SWAP4 SWAP3 POP POP POP JUMP JUMPDEST PUSH0 DUP2 SWAP1 POP SWAP2 SWAP1 POP JUMP JUMPDEST PUSH0 DUP2 SWAP1 POP SWAP2 SWAP1 POP JUMP JUMPDEST PUSH0 PUSH3 0x1A9 PUSH3 0x1A3 PUSH3 0x19D DUP5 PUSH3 0x177 JUMP JUMPDEST PUSH3 0x180 JUMP JUMPDEST PUSH3 0x177 JUMP JUMPDEST SWAP1 POP SWAP2 SWAP1 POP JUMP JUMPDEST PUSH0 DUP2 SWAP1 POP SWAP2 SWAP1 POP JUMP JUMPDEST PUSH3 0x1C4 DUP4 PUSH3 0x189 JUMP JUMPDEST PUSH3 0x1DC PUSH3 0x1D3 DUP3 PUSH3 0x1B0 JUMP JUMPDEST DUP5 DUP5 SLOAD PUSH3 0x122 JUMP JUMPDEST DUP3 SSTORE POP POP POP POP JUMP JUMPDEST PUSH0 SWAP1 JUMP JUMPDEST PUSH3 0x1F2 PUSH3 0x1E4 JUMP JUMPDEST PUSH3 0x1FF DUP2 DUP5 DUP5 PUSH3 0x1B9 JUMP JUMPDEST POP POP POP JUMP JUMPDEST JUMPDEST DUP2 DUP2 LT ISZERO PUSH3 0x226 JUMPI PUSH3 0x21A PUSH0 DUP3 PUSH3 0x1E8 JUMP JUMPDEST PUSH1 0x1 DUP2 ADD SWAP1 POP PUSH3 0x205 JUMP JUMPDEST POP POP JUMP JUMPDEST PUSH1 0x1F DUP3 GT ISZERO PUSH3 0x275 JUMPI PUSH3 0x23F DUP2 PUSH3 0xF5 JUMP JUMPDEST PUSH3 0x24A DUP5 PUSH3 0x107 JUMP JUMPDEST DUP2 ADD PUSH1 0x20 DUP6 LT ISZERO PUSH3 0x25A JUMPI DUP2 SWAP1 POP JUMPDEST PUSH3 0x272 PUSH3 0x269 DUP6 PUSH3 0x107 JUMP JUMPDEST DUP4 ADD DUP3 PUSH3 0x204 JUMP JUMPDEST POP POP JUMPDEST POP POP POP JUMP JUMPDEST PUSH0 DUP3 DUP3 SHR SWAP1 POP SWAP3 SWAP2 POP POP JUMP JUMPDEST PUSH0 PUSH3 0x297 PUSH0 NOT DUP5 PUSH1 0x8 MUL PUSH3 0x27A JUMP JUMPDEST NOT DUP1 DUP4 AND SWAP2 POP POP SWAP3 SWAP2 POP POP JUMP JUMPDEST PUSH0 PUSH3 0x2B1 DUP4 DUP4 PUSH3 0x286 JUMP JUMPDEST SWAP2 POP DUP3 PUSH1 0x2 MUL DUP3 OR SWAP1 POP SWAP3 SWAP2 POP POP JUMP JUMPDEST PUSH3 0x2CC DUP3 PUSH3 0x5D JUMP JUMPDEST PUSH8 0xFFFFFFFFFFFFFFFF DUP2 GT ISZERO PUSH3 0x2E8 JUMPI PUSH3 0x2E7 PUSH3 0x67 JUMP JUMPDEST JUMPDEST PUSH3 0x2F4 DUP3 SLOAD PUSH3 0xC1 JUMP JUMPDEST PUSH3 0x301 DUP3 DUP3 DUP6 PUSH3 0x22A JUMP JUMPDEST PUSH0 PUSH1 0x20 SWAP1 POP PUSH1 0x1F DUP4 GT PUSH1 0x1 DUP2 EQ PUSH3 0x337 JUMPI PUSH0 DUP5 ISZERO PUSH3 0x322 JUMPI DUP3 DUP8 ADD MLOAD SWAP1 POP JUMPDEST PUSH3 0x32E DUP6 DUP3 PUSH3 0x2A4 JUMP JUMPDEST DUP7 SSTORE POP PUSH3 0x39D JUMP JUMPDEST PUSH1 0x1F NOT DUP5 AND PUSH3 0x347 DUP7 PUSH3 0xF5 JUMP JUMPDEST PUSH0 JUMPDEST DUP3 DUP2 LT ISZERO PUSH3 0x370 JUMPI DUP5 DUP10 ADD MLOAD DUP3 SSTORE PUSH1 0x1 DUP3 ADD SWAP2 POP PUSH1 0x20 DUP6 ADD SWAP5 POP PUSH1 0x20 DUP2 ADD SWAP1 POP PUSH3 0x349 JUMP JUMPDEST DUP7 DUP4 LT ISZERO PUSH3 0x390 JUMPI DUP5 DUP10 ADD MLOAD PUSH3 0x38C PUSH1 0x1F DUP10 AND DUP3 PUSH3 0x286 JUMP JUMPDEST DUP4 SSTORE POP JUMPDEST PUSH1 0x1 PUSH1 0x2 DUP9 MUL ADD DUP9 SSTORE POP POP POP JUMPDEST POP POP POP POP POP POP JUMP JUMPDEST PUSH2 0x1E7D DUP1 PUSH3 0x3B3 PUSH0 CODECOPY PUSH0 RETURN INVALID PUSH1 0x80 PUSH1 0x40 MSTORE CALLVALUE DUP1 ISZERO PUSH2 0xF JUMPI PUSH0 DUP1 REVERT JUMPDEST POP PUSH1 0x4 CALLDATASIZE LT PUSH2 0xCC JUMPI PUSH0 CALLDATALOAD PUSH1 0xE0 SHR DUP1 PUSH4 0x91C9B268 GT PUSH2 0x8A JUMPI DUP1 PUSH4 0xCBE737B3 GT PUSH2 0x64 JUMPI DUP1 PUSH4 0xCBE737B3 EQ PUSH2 0x239 JUMPI DUP1 PUSH4 0xCCE9889E EQ PUSH2 0x269 JUMPI DUP1 PUSH4 0xE4A8F18B EQ PUSH2 0x285 JUMPI DUP1 PUSH4 0xF5C4B73E EQ PUSH2 0x2A3 JUMPI PUSH2 0xCC JUMP JUMPDEST DUP1 PUSH4 0x91C9B268 EQ PUSH2 0x1C6 JUMPI DUP1 PUSH4 0x93DC12E6 EQ PUSH2 0x1FF JUMPI DUP1 PUSH4 0x99E76D35 EQ PUSH2 0x21B JUMPI PUSH2 0xCC JUMP JUMPDEST DUP1 PUSH3 0x9F310B EQ PUSH2 0xD0 JUMPI DUP1 PUSH4 0x89CD025 EQ PUSH2 0xEC JUMPI DUP1 PUSH4 0x48C35AD4 EQ PUSH2 0x108 JUMPI DUP1 PUSH4 0x4AC64766 EQ PUSH2 0x138 JUMPI DUP1 PUSH4 0x5F8439E3 EQ PUSH2 0x156 JUMPI DUP1 PUSH4 0x8ABB10C6 EQ PUSH2 0x18D JUMPI JUMPDEST PUSH0 DUP1 REVERT JUMPDEST PUSH2 0xEA PUSH1 0x4 DUP1 CALLDATASIZE SUB DUP2 ADD SWAP1 PUSH2 0xE5 SWAP2 SWAP1 PUSH2 0x1084 JUMP JUMPDEST PUSH2 0x2BF JUMP JUMPDEST STOP JUMPDEST PUSH2 0x106 PUSH1 0x4 DUP1 CALLDATASIZE SUB DUP2 ADD SWAP1 PUSH2 0x101 SWAP2 SWAP1 PUSH2 0x11DD JUMP JUMPDEST PUSH2 0x4D4 JUMP JUMPDEST STOP JUMPDEST PUSH2 0x122 PUSH1 0x4 DUP1 CALLDATASIZE SUB DUP2 ADD SWAP1 PUSH2 0x11D SWAP2 SWAP1 PUSH2 0x121B JUMP JUMPDEST PUSH2 0x4D8 JUMP JUMPDEST PUSH1 0x40 MLOAD PUSH2 0x12F SWAP2 SWAP1 PUSH2 0x12C0 JUMP JUMPDEST PUSH1 0x40 MLOAD DUP1 SWAP2 SUB SWAP1 RETURN JUMPDEST PUSH2 0x140 PUSH2 0x57E JUMP JUMPDEST PUSH1 0x40 MLOAD PUSH2 0x14D SWAP2 SWAP1 PUSH2 0x13E3 JUMP JUMPDEST PUSH1 0x40 MLOAD DUP1 SWAP2 SUB SWAP1 RETURN JUMPDEST PUSH2 0x170 PUSH1 0x4 DUP1 CALLDATASIZE SUB DUP2 ADD SWAP1 PUSH2 0x16B SWAP2 SWAP1 PUSH2 0x121B JUMP JUMPDEST PUSH2 0x652 JUMP JUMPDEST PUSH1 0x40 MLOAD PUSH2 0x184 SWAP9 SWAP8 SWAP7 SWAP6 SWAP5 SWAP4 SWAP3 SWAP2 SWAP1 PUSH2 0x1421 JUMP JUMPDEST PUSH1 0x40 MLOAD DUP1 SWAP2 SUB SWAP1 RETURN JUMPDEST PUSH2 0x1A7 PUSH1 0x4 DUP1 CALLDATASIZE SUB DUP2 ADD SWAP1 PUSH2 0x1A2 SWAP2 SWAP1 PUSH2 0x121B JUMP JUMPDEST PUSH2 0x667 JUMP JUMPDEST PUSH1 0x40 MLOAD PUSH2 0x1BD SWAP11 SWAP10 SWAP9 SWAP8 SWAP7 SWAP6 SWAP5 SWAP4 SWAP3 SWAP2 SWAP1 PUSH2 0x1570 JUMP JUMPDEST PUSH1 0x40 MLOAD DUP1 SWAP2 SUB SWAP1 RETURN JUMPDEST PUSH2 0x1E0 PUSH1 0x4 DUP1 CALLDATASIZE SUB DUP2 ADD SWAP1 PUSH2 0x1DB SWAP2 SWAP1 PUSH2 0x1634 JUMP JUMPDEST PUSH2 0x681 JUMP JUMPDEST PUSH1 0x40 MLOAD PUSH2 0x1F6 SWAP11 SWAP10 SWAP9 SWAP8 SWAP7 SWAP6 SWAP5 SWAP4 SWAP3 SWAP2 SWAP1 PUSH2 0x167B JUMP JUMPDEST PUSH1 0x40 MLOAD DUP1 SWAP2 SUB SWAP1 RETURN JUMPDEST PUSH2 0x219 PUSH1 0x4 DUP1 CALLDATASIZE SUB DUP2 ADD SWAP1 PUSH2 0x214 SWAP2 SWAP1 PUSH2 0x121B JUMP JUMPDEST PUSH2 0x993 JUMP JUMPDEST STOP JUMPDEST PUSH2 0x223 PUSH2 0x996 JUMP JUMPDEST PUSH1 0x40 MLOAD PUSH2 0x230 SWAP2 SWAP1 PUSH2 0x12C0 JUMP JUMPDEST PUSH1 0x40 MLOAD DUP1 SWAP2 SUB SWAP1 RETURN JUMPDEST PUSH2 0x253 PUSH1 0x4 DUP1 CALLDATASIZE SUB DUP2 ADD SWAP1 PUSH2 0x24E SWAP2 SWAP1 PUSH2 0x1738 JUMP JUMPDEST PUSH2 0xA21 JUMP JUMPDEST PUSH1 0x40 MLOAD PUSH2 0x260 SWAP2 SWAP1 PUSH2 0x1910 JUMP JUMPDEST PUSH1 0x40 MLOAD DUP1 SWAP2 SUB SWAP1 RETURN JUMPDEST PUSH2 0x283 PUSH1 0x4 DUP1 CALLDATASIZE SUB DUP2 ADD SWAP1 PUSH2 0x27E SWAP2 SWAP1 PUSH2 0x1930 JUMP JUMPDEST PUSH2 0xA2F JUMP JUMPDEST STOP JUMPDEST PUSH2 0x28D PUSH2 0xA35 JUMP JUMPDEST PUSH1 0x40 MLOAD PUSH2 0x29A SWAP2 SWAP1 PUSH2 0x19CC JUMP JUMPDEST PUSH1 0x40 MLOAD DUP1 SWAP2 SUB SWAP1 RETURN JUMPDEST PUSH2 0x2BD PUSH1 0x4 DUP1 CALLDATASIZE SUB DUP2 ADD SWAP1 PUSH2 0x2B8 SWAP2 SWAP1 PUSH2 0x19E5 JUMP JUMPDEST PUSH2 0xA41 JUMP JUMPDEST STOP JUMPDEST PUSH0 PUSH1 0x1 DUP10 PUSH1 0x40 MLOAD PUSH2 0x2D0 SWAP2 SWAP1 PUSH2 0x1A8B JUMP JUMPDEST SWAP1 DUP2 MSTORE PUSH1 0x20 ADD PUSH1 0x40 MLOAD DUP1 SWAP2 SUB SWAP1 KECCAK256 SWAP1 POP DUP8 DUP2 PUSH1 0x1 ADD SWAP1 DUP2 PUSH2 0x2F1 SWAP2 SWAP1 PUSH2 0x1C9B JUMP JUMPDEST POP DUP7 DUP2 PUSH1 0x2 ADD SWAP1 DUP2 PUSH2 0x303 SWAP2 SWAP1 PUSH2 0x1C9B JUMP JUMPDEST POP DUP9 DUP2 PUSH0 ADD SWAP1 DUP2 PUSH2 0x314 SWAP2 SWAP1 PUSH2 0x1C9B JUMP JUMPDEST POP DUP6 DUP2 PUSH1 0x3 ADD SWAP1 DUP2 PUSH2 0x326 SWAP2 SWAP1 PUSH2 0x1C9B JUMP JUMPDEST POP DUP5 DUP2 PUSH1 0x4 ADD SWAP1 DUP2 PUSH2 0x338 SWAP2 SWAP1 PUSH2 0x1C9B JUMP JUMPDEST POP TIMESTAMP DUP2 PUSH1 0x5 ADD DUP2 SWAP1 SSTORE POP DUP4 DUP2 PUSH1 0x6 ADD DUP2 SWAP1 SSTORE POP DUP3 DUP2 PUSH1 0x7 ADD DUP2 SWAP1 SSTORE POP PUSH0 DUP2 PUSH1 0x9 ADD PUSH0 PUSH2 0x100 EXP DUP2 SLOAD DUP2 PUSH1 0xFF MUL NOT AND SWAP1 DUP4 ISZERO ISZERO MUL OR SWAP1 SSTORE POP PUSH0 DUP2 PUSH1 0x8 ADD DUP2 SWAP1 SSTORE POP PUSH1 0x2 DUP10 SWAP1 DUP1 PUSH1 0x1 DUP2 SLOAD ADD DUP1 DUP3 SSTORE DUP1 SWAP2 POP POP PUSH1 0x1 SWAP1 SUB SWAP1 PUSH0 MSTORE PUSH1 0x20 PUSH0 KECCAK256 ADD PUSH0 SWAP1 SWAP2 SWAP1 SWAP2 SWAP1 SWAP2 POP SWAP1 DUP2 PUSH2 0x3A9 SWAP2 SWAP1 PUSH2 0x1C9B JUMP JUMPDEST POP PUSH0 JUMPDEST DUP3 MLOAD DUP2 LT ISZERO PUSH2 0x4C8 JUMPI DUP2 PUSH1 0xA ADD DUP4 DUP3 DUP2 MLOAD DUP2 LT PUSH2 0x3CC JUMPI PUSH2 0x3CB PUSH2 0x1D6A JUMP JUMPDEST JUMPDEST PUSH1 0x20 MUL PUSH1 0x20 ADD ADD MLOAD SWAP1 DUP1 PUSH1 0x1 DUP2 SLOAD ADD DUP1 DUP3 SSTORE DUP1 SWAP2 POP POP PUSH1 0x1 SWAP1 SUB SWAP1 PUSH0 MSTORE PUSH1 0x20 PUSH0 KECCAK256 SWAP1 PUSH1 0x8 MUL ADD PUSH0 SWAP1 SWAP2 SWAP1 SWAP2 SWAP1 SWAP2 POP PUSH0 DUP3 ADD MLOAD DUP2 PUSH0 ADD SWAP1 DUP2 PUSH2 0x40D SWAP2 SWAP1 PUSH2 0x1C9B JUMP JUMPDEST POP PUSH1 0x20 DUP3 ADD MLOAD DUP2 PUSH1 0x1 ADD SWAP1 DUP2 PUSH2 0x423 SWAP2 SWAP1 PUSH2 0x1C9B JUMP JUMPDEST POP PUSH1 0x40 DUP3 ADD MLOAD DUP2 PUSH1 0x2 ADD SWAP1 DUP2 PUSH2 0x439 SWAP2 SWAP1 PUSH2 0x1C9B JUMP JUMPDEST POP PUSH1 0x60 DUP3 ADD MLOAD DUP2 PUSH1 0x3 ADD SWAP1 DUP2 PUSH2 0x44F SWAP2 SWAP1 PUSH2 0x1C9B JUMP JUMPDEST POP PUSH1 0x80 DUP3 ADD MLOAD DUP2 PUSH1 0x4 ADD SSTORE PUSH1 0xA0 DUP3 ADD MLOAD DUP2 PUSH1 0x5 ADD SWAP1 DUP1 MLOAD SWAP1 PUSH1 0x20 ADD SWAP1 PUSH2 0x476 SWAP3 SWAP2 SWAP1 PUSH2 0xA81 JUMP JUMPDEST POP PUSH1 0xC0 DUP3 ADD MLOAD DUP2 PUSH1 0x6 ADD SWAP1 DUP1 MLOAD SWAP1 PUSH1 0x20 ADD SWAP1 PUSH2 0x493 SWAP3 SWAP2 SWAP1 PUSH2 0xA81 JUMP JUMPDEST POP PUSH1 0xE0 DUP3 ADD MLOAD DUP2 PUSH1 0x7 ADD PUSH0 PUSH2 0x100 EXP DUP2 SLOAD DUP2 PUSH1 0xFF MUL NOT AND SWAP1 DUP4 ISZERO ISZERO MUL OR SWAP1 SSTORE POP POP POP DUP1 DUP1 PUSH2 0x4C0 SWAP1 PUSH2 0x1DC4 JUMP JUMPDEST SWAP2 POP POP PUSH2 0x3AC JUMP JUMPDEST POP POP POP POP POP POP POP POP POP POP JUMP JUMPDEST POP POP JUMP JUMPDEST PUSH1 0x2 DUP2 DUP2 SLOAD DUP2 LT PUSH2 0x4E7 JUMPI PUSH0 DUP1 REVERT JUMPDEST SWAP1 PUSH0 MSTORE PUSH1 0x20 PUSH0 KECCAK256 ADD PUSH0 SWAP2 POP SWAP1 POP DUP1 SLOAD PUSH2 0x4FF SWAP1 PUSH2 0x1ACE JUMP JUMPDEST DUP1 PUSH1 0x1F ADD PUSH1 0x20 DUP1 SWAP2 DIV MUL PUSH1 0x20 ADD PUSH1 0x40 MLOAD SWAP1 DUP2 ADD PUSH1 0x40 MSTORE DUP1 SWAP3 SWAP2 SWAP1 DUP2 DUP2 MSTORE PUSH1 0x20 ADD DUP3 DUP1 SLOAD PUSH2 0x52B SWAP1 PUSH2 0x1ACE JUMP JUMPDEST DUP1 ISZERO PUSH2 0x576 JUMPI DUP1 PUSH1 0x1F LT PUSH2 0x54D JUMPI PUSH2 0x100 DUP1 DUP4 SLOAD DIV MUL DUP4 MSTORE SWAP2 PUSH1 0x20 ADD SWAP2 PUSH2 0x576 JUMP JUMPDEST DUP3 ADD SWAP2 SWAP1 PUSH0 MSTORE PUSH1 0x20 PUSH0 KECCAK256 SWAP1 JUMPDEST DUP2 SLOAD DUP2 MSTORE SWAP1 PUSH1 0x1 ADD SWAP1 PUSH1 0x20 ADD DUP1 DUP4 GT PUSH2 0x559 JUMPI DUP3 SWAP1 SUB PUSH1 0x1F AND DUP3 ADD SWAP2 JUMPDEST POP POP POP POP POP DUP2 JUMP JUMPDEST PUSH1 0x60 PUSH1 0x2 DUP1 SLOAD DUP1 PUSH1 0x20 MUL PUSH1 0x20 ADD PUSH1 0x40 MLOAD SWAP1 DUP2 ADD PUSH1 0x40 MSTORE DUP1 SWAP3 SWAP2 SWAP1 DUP2 DUP2 MSTORE PUSH1 0x20 ADD PUSH0 SWAP1 JUMPDEST DUP3 DUP3 LT ISZERO PUSH2 0x649 JUMPI DUP4 DUP3 SWAP1 PUSH0 MSTORE PUSH1 0x20 PUSH0 KECCAK256 ADD DUP1 SLOAD PUSH2 0x5BE SWAP1 PUSH2 0x1ACE JUMP JUMPDEST DUP1 PUSH1 0x1F ADD PUSH1 0x20 DUP1 SWAP2 DIV MUL PUSH1 0x20 ADD PUSH1 0x40 MLOAD SWAP1 DUP2 ADD PUSH1 0x40 MSTORE DUP1 SWAP3 SWAP2 SWAP1 DUP2 DUP2 MSTORE PUSH1 0x20 ADD DUP3 DUP1 SLOAD PUSH2 0x5EA SWAP1 PUSH2 0x1ACE JUMP JUMPDEST DUP1 ISZERO PUSH2 0x635 JUMPI DUP1 PUSH1 0x1F LT PUSH2 0x60C JUMPI PUSH2 0x100 DUP1 DUP4 SLOAD DIV MUL DUP4 MSTORE SWAP2 PUSH1 0x20 ADD SWAP2 PUSH2 0x635 JUMP JUMPDEST DUP3 ADD SWAP2 SWAP1 PUSH0 MSTORE PUSH1 0x20 PUSH0 KECCAK256 SWAP1 JUMPDEST DUP2 SLOAD DUP2 MSTORE SWAP1 PUSH1 0x1 ADD SWAP1 PUSH1 0x20 ADD DUP1 DUP4 GT PUSH2 0x618 JUMPI DUP3 SWAP1 SUB PUSH1 0x1F AND DUP3 ADD SWAP2 JUMPDEST POP POP POP POP POP DUP2 MSTORE PUSH1 0x20 ADD SWAP1 PUSH1 0x1 ADD SWAP1 PUSH2 0x5A1 JUMP JUMPDEST POP POP POP POP SWAP1 POP SWAP1 JUMP JUMPDEST PUSH1 0x60 DUP1 PUSH1 0x60 DUP1 PUSH0 DUP1 PUSH0 DUP1 SWAP2 SWAP4 SWAP6 SWAP8 POP SWAP2 SWAP4 SWAP6 SWAP8 JUMP JUMPDEST PUSH1 0x60 DUP1 PUSH1 0x60 DUP1 PUSH0 DUP1 PUSH0 DUP1 PUSH1 0x60 DUP1 SWAP2 SWAP4 SWAP6 SWAP8 SWAP10 POP SWAP2 SWAP4 SWAP6 SWAP8 SWAP10 JUMP JUMPDEST PUSH1 0x1 DUP2 DUP1 MLOAD PUSH1 0x20 DUP2 ADD DUP3 ADD DUP1 MLOAD DUP5 DUP3 MSTORE PUSH1 0x20 DUP4 ADD PUSH1 0x20 DUP6 ADD KECCAK256 DUP2 DUP4 MSTORE DUP1 SWAP6 POP POP POP POP POP POP PUSH0 SWAP2 POP SWAP1 POP DUP1 PUSH0 ADD DUP1 SLOAD PUSH2 0x6B8 SWAP1 PUSH2 0x1ACE JUMP JUMPDEST DUP1 PUSH1 0x1F ADD PUSH1 0x20 DUP1 SWAP2 DIV MUL PUSH1 0x20 ADD PUSH1 0x40 MLOAD SWAP1 DUP2 ADD PUSH1 0x40 MSTORE DUP1 SWAP3 SWAP2 SWAP1 DUP2 DUP2 MSTORE PUSH1 0x20 ADD DUP3 DUP1 SLOAD PUSH2 0x6E4 SWAP1 PUSH2 0x1ACE JUMP JUMPDEST DUP1 ISZERO PUSH2 0x72F JUMPI DUP1 PUSH1 0x1F LT PUSH2 0x706 JUMPI PUSH2 0x100 DUP1 DUP4 SLOAD DIV MUL DUP4 MSTORE SWAP2 PUSH1 0x20 ADD SWAP2 PUSH2 0x72F JUMP JUMPDEST DUP3 ADD SWAP2 SWAP1 PUSH0 MSTORE PUSH1 0x20 PUSH0 KECCAK256 SWAP1 JUMPDEST DUP2 SLOAD DUP2 MSTORE SWAP1 PUSH1 0x1 ADD SWAP1 PUSH1 0x20 ADD DUP1 DUP4 GT PUSH2 0x712 JUMPI DUP3 SWAP1 SUB PUSH1 0x1F AND DUP3 ADD SWAP2 JUMPDEST POP POP POP POP POP SWAP1 DUP1 PUSH1 0x1 ADD DUP1 SLOAD PUSH2 0x744 SWAP1 PUSH2 0x1ACE JUMP JUMPDEST DUP1 PUSH1 0x1F ADD PUSH1 0x20 DUP1 SWAP2 DIV MUL PUSH1 0x20 ADD PUSH1 0x40 MLOAD SWAP1 DUP2 ADD PUSH1 0x40 MSTORE DUP1 SWAP3 SWAP2 SWAP1 DUP2 DUP2 MSTORE PUSH1 0x20 ADD DUP3 DUP1 SLOAD PUSH2 0x770 SWAP1 PUSH2 0x1ACE JUMP JUMPDEST DUP1 ISZERO PUSH2 0x7BB JUMPI DUP1 PUSH1 0x1F LT PUSH2 0x792 JUMPI PUSH2 0x100 DUP1 DUP4 SLOAD DIV MUL DUP4 MSTORE SWAP2 PUSH1 0x20 ADD SWAP2 PUSH2 0x7BB JUMP JUMPDEST DUP3 ADD SWAP2 SWAP1 PUSH0 MSTORE PUSH1 0x20 PUSH0 KECCAK256 SWAP1 JUMPDEST DUP2 SLOAD DUP2 MSTORE SWAP1 PUSH1 0x1 ADD SWAP1 PUSH1 0x20 ADD DUP1 DUP4 GT PUSH2 0x79E JUMPI DUP3 SWAP1 SUB PUSH1 0x1F AND DUP3 ADD SWAP2 JUMPDEST POP POP POP POP POP SWAP1 DUP1 PUSH1 0x2 ADD DUP1 SLOAD PUSH2 0x7D0 SWAP1 PUSH2 0x1ACE JUMP JUMPDEST DUP1 PUSH1 0x1F ADD PUSH1 0x20 DUP1 SWAP2 DIV MUL PUSH1 0x20 ADD PUSH1 0x40 MLOAD SWAP1 DUP2 ADD PUSH1 0x40 MSTORE DUP1 SWAP3 SWAP2 SWAP1 DUP2 DUP2 MSTORE PUSH1 0x20 ADD DUP3 DUP1 SLOAD PUSH2 0x7FC SWAP1 PUSH2 0x1ACE JUMP JUMPDEST DUP1 ISZERO PUSH2 0x847 JUMPI DUP1 PUSH1 0x1F LT PUSH2 0x81E JUMPI PUSH2 0x100 DUP1 DUP4 SLOAD DIV MUL DUP4 MSTORE SWAP2 PUSH1 0x20 ADD SWAP2 PUSH2 0x847 JUMP JUMPDEST DUP3 ADD SWAP2 SWAP1 PUSH0 MSTORE PUSH1 0x20 PUSH0 KECCAK256 SWAP1 JUMPDEST DUP2 SLOAD DUP2 MSTORE SWAP1 PUSH1 0x1 ADD SWAP1 PUSH1 0x20 ADD DUP1 DUP4 GT PUSH2 0x82A JUMPI DUP3 SWAP1 SUB PUSH1 0x1F AND DUP3 ADD SWAP2 JUMPDEST POP POP POP POP POP SWAP1 DUP1 PUSH1 0x3 ADD DUP1 SLOAD PUSH2 0x85C SWAP1 PUSH2 0x1ACE JUMP JUMPDEST DUP1 PUSH1 0x1F ADD PUSH1 0x20 DUP1 SWAP2 DIV MUL PUSH1 0x20 ADD PUSH1 0x40 MLOAD SWAP1 DUP2 ADD PUSH1 0x40 MSTORE DUP1 SWAP3 SWAP2 SWAP1 DUP2 DUP2 MSTORE PUSH1 0x20 ADD DUP3 DUP1 SLOAD PUSH2 0x888 SWAP1 PUSH2 0x1ACE JUMP JUMPDEST DUP1 ISZERO PUSH2 0x8D3 JUMPI DUP1 PUSH1 0x1F LT PUSH2 0x8AA JUMPI PUSH2 0x100 DUP1 DUP4 SLOAD DIV MUL DUP4 MSTORE SWAP2 PUSH1 0x20 ADD SWAP2 PUSH2 0x8D3 JUMP JUMPDEST DUP3 ADD SWAP2 SWAP1 PUSH0 MSTORE PUSH1 0x20 PUSH0 KECCAK256 SWAP1 JUMPDEST DUP2 SLOAD DUP2 MSTORE SWAP1 PUSH1 0x1 ADD SWAP1 PUSH1 0x20 ADD DUP1 DUP4 GT PUSH2 0x8B6 JUMPI DUP3 SWAP1 SUB PUSH1 0x1F AND DUP3 ADD SWAP2 JUMPDEST POP POP POP POP POP SWAP1 DUP1 PUSH1 0x4 ADD DUP1 SLOAD PUSH2 0x8E8 SWAP1 PUSH2 0x1ACE JUMP JUMPDEST DUP1 PUSH1 0x1F ADD PUSH1 0x20 DUP1 SWAP2 DIV MUL PUSH1 0x20 ADD PUSH1 0x40 MLOAD SWAP1 DUP2 ADD PUSH1 0x40 MSTORE DUP1 SWAP3 SWAP2 SWAP1 DUP2 DUP2 MSTORE PUSH1 0x20 ADD DUP3 DUP1 SLOAD PUSH2 0x914 SWAP1 PUSH2 0x1ACE JUMP JUMPDEST DUP1 ISZERO PUSH2 0x95F JUMPI DUP1 PUSH1 0x1F LT PUSH2 0x936 JUMPI PUSH2 0x100 DUP1 DUP4 SLOAD DIV MUL DUP4 MSTORE SWAP2 PUSH1 0x20 ADD SWAP2 PUSH2 0x95F JUMP JUMPDEST DUP3 ADD SWAP2 SWAP1 PUSH0 MSTORE PUSH1 0x20 PUSH0 KECCAK256 SWAP1 JUMPDEST DUP2 SLOAD DUP2 MSTORE SWAP1 PUSH1 0x1 ADD SWAP1 PUSH1 0x20 ADD DUP1 DUP4 GT PUSH2 0x942 JUMPI DUP3 SWAP1 SUB PUSH1 0x1F AND DUP3 ADD SWAP2 JUMPDEST POP POP POP POP POP SWAP1 DUP1 PUSH1 0x5 ADD SLOAD SWAP1 DUP1 PUSH1 0x6 ADD SLOAD SWAP1 DUP1 PUSH1 0x7 ADD SLOAD SWAP1 DUP1 PUSH1 0x8 ADD SLOAD SWAP1 DUP1 PUSH1 0x9 ADD PUSH0 SWAP1 SLOAD SWAP1 PUSH2 0x100 EXP SWAP1 DIV PUSH1 0xFF AND SWAP1 POP DUP11 JUMP JUMPDEST POP JUMP JUMPDEST PUSH0 DUP1 SLOAD PUSH2 0x9A2 SWAP1 PUSH2 0x1ACE JUMP JUMPDEST DUP1 PUSH1 0x1F ADD PUSH1 0x20 DUP1 SWAP2 DIV MUL PUSH1 0x20 ADD PUSH1 0x40 MLOAD SWAP1 DUP2 ADD PUSH1 0x40 MSTORE DUP1 SWAP3 SWAP2 SWAP1 DUP2 DUP2 MSTORE PUSH1 0x20 ADD DUP3 DUP1 SLOAD PUSH2 0x9CE SWAP1 PUSH2 0x1ACE JUMP JUMPDEST DUP1 ISZERO PUSH2 0xA19 JUMPI DUP1 PUSH1 0x1F LT PUSH2 0x9F0 JUMPI PUSH2 0x100 DUP1 DUP4 SLOAD DIV MUL DUP4 MSTORE SWAP2 PUSH1 0x20 ADD SWAP2 PUSH2 0xA19 JUMP JUMPDEST DUP3 ADD SWAP2 SWAP1 PUSH0 MSTORE PUSH1 0x20 PUSH0 KECCAK256 SWAP1 JUMPDEST DUP2 SLOAD DUP2 MSTORE SWAP1 PUSH1 0x1 ADD SWAP1 PUSH1 0x20 ADD DUP1 DUP4 GT PUSH2 0x9FC JUMPI DUP3 SWAP1 SUB PUSH1 0x1F AND DUP3 ADD SWAP2 JUMPDEST POP POP POP POP POP DUP2 JUMP JUMPDEST PUSH2 0xA29 PUSH2 0xAD8 JUMP JUMPDEST SWAP3 SWAP2 POP POP JUMP JUMPDEST POP POP POP POP JUMP JUMPDEST PUSH0 PUSH1 0x2 DUP1 SLOAD SWAP1 POP SWAP1 POP SWAP1 JUMP JUMPDEST PUSH32 0x9F64639419DE97116219D1F7C000638905FA8176602DC9AFD7D28338B6A803CC DUP4 DUP4 DUP4 PUSH1 0x40 MLOAD PUSH2 0xA74 SWAP4 SWAP3 SWAP2 SWAP1 PUSH2 0x1E0B JUMP JUMPDEST PUSH1 0x40 MLOAD DUP1 SWAP2 SUB SWAP1 LOG1 POP POP POP JUMP JUMPDEST DUP3 DUP1 SLOAD DUP3 DUP3 SSTORE SWAP1 PUSH0 MSTORE PUSH1 0x20 PUSH0 KECCAK256 SWAP1 DUP2 ADD SWAP3 DUP3 ISZERO PUSH2 0xAC7 JUMPI SWAP2 PUSH1 0x20 MUL DUP3 ADD JUMPDEST DUP3 DUP2 GT ISZERO PUSH2 0xAC6 JUMPI DUP3 MLOAD DUP3 SWAP1 DUP2 PUSH2 0xAB6 SWAP2 SWAP1 PUSH2 0x1C9B JUMP JUMPDEST POP SWAP2 PUSH1 0x20 ADD SWAP2 SWAP1 PUSH1 0x1 ADD SWAP1 PUSH2 0xA9F JUMP JUMPDEST JUMPDEST POP SWAP1 POP PUSH2 0xAD4 SWAP2 SWAP1 PUSH2 0xB1D JUMP JUMPDEST POP SWAP1 JUMP JUMPDEST PUSH1 0x40 MLOAD DUP1 PUSH2 0x100 ADD PUSH1 0x40 MSTORE DUP1 PUSH1 0x60 DUP2 MSTORE PUSH1 0x20 ADD PUSH1 0x60 DUP2 MSTORE PUSH1 0x20 ADD PUSH1 0x60 DUP2 MSTORE PUSH1 0x20 ADD PUSH1 0x60 DUP2 MSTORE PUSH1 0x20 ADD PUSH0 DUP2 MSTORE PUSH1 0x20 ADD PUSH1 0x60 DUP2 MSTORE PUSH1 0x20 ADD PUSH1 0x60 DUP2 MSTORE PUSH1 0x20 ADD PUSH0 ISZERO ISZERO DUP2 MSTORE POP SWAP1 JUMP JUMPDEST JUMPDEST DUP1 DUP3 GT ISZERO PUSH2 0xB3C JUMPI PUSH0 DUP2 DUP2 PUSH2 0xB33 SWAP2 SWAP1 PUSH2 0xB40 JUMP JUMPDEST POP PUSH1 0x1 ADD PUSH2 0xB1E JUMP JUMPDEST POP SWAP1 JUMP JUMPDEST POP DUP1 SLOAD PUSH2 0xB4C SWAP1 PUSH2 0x1ACE JUMP JUMPDEST PUSH0 DUP3 SSTORE DUP1 PUSH1 0x1F LT PUSH2 0xB5D JUMPI POP PUSH2 0xB7A JUMP JUMPDEST PUSH1 0x1F ADD PUSH1 0x20 SWAP1 DIV SWAP1 PUSH0 MSTORE PUSH1 0x20 PUSH0 KECCAK256 SWAP1 DUP2 ADD SWAP1 PUSH2 0xB79 SWAP2 SWAP1 PUSH2 0xB7D JUMP JUMPDEST JUMPDEST POP JUMP JUMPDEST JUMPDEST DUP1 DUP3 GT ISZERO PUSH2 0xB94 JUMPI PUSH0 DUP2 PUSH0 SWAP1 SSTORE POP PUSH1 0x1 ADD PUSH2 0xB7E JUMP JUMPDEST POP SWAP1 JUMP JUMPDEST PUSH0 PUSH1 0x40 MLOAD SWAP1 POP SWAP1 JUMP JUMPDEST PUSH0 DUP1 REVERT JUMPDEST PUSH0 DUP1 REVERT JUMPDEST PUSH0 DUP1 REVERT JUMPDEST PUSH0 DUP1 REVERT JUMPDEST PUSH0 PUSH1 0x1F NOT PUSH1 0x1F DUP4 ADD AND SWAP1 POP SWAP2 SWAP1 POP JUMP JUMPDEST PUSH32 0x4E487B7100000000000000000000000000000000000000000000000000000000 PUSH0 MSTORE PUSH1 0x41 PUSH1 0x4 MSTORE PUSH1 0x24 PUSH0 REVERT JUMPDEST PUSH2 0xBF7 DUP3 PUSH2 0xBB1 JUMP JUMPDEST DUP2 ADD DUP2 DUP2 LT PUSH8 0xFFFFFFFFFFFFFFFF DUP3 GT OR ISZERO PUSH2 0xC16 JUMPI PUSH2 0xC15 PUSH2 0xBC1 JUMP JUMPDEST JUMPDEST DUP1 PUSH1 0x40 MSTORE POP POP POP JUMP JUMPDEST PUSH0 PUSH2 0xC28 PUSH2 0xB98 JUMP JUMPDEST SWAP1 POP PUSH2 0xC34 DUP3 DUP3 PUSH2 0xBEE JUMP JUMPDEST SWAP2 SWAP1 POP JUMP JUMPDEST PUSH0 PUSH8 0xFFFFFFFFFFFFFFFF DUP3 GT ISZERO PUSH2 0xC53 JUMPI PUSH2 0xC52 PUSH2 0xBC1 JUMP JUMPDEST JUMPDEST PUSH2 0xC5C DUP3 PUSH2 0xBB1 JUMP JUMPDEST SWAP1 POP PUSH1 0x20 DUP2 ADD SWAP1 POP SWAP2 SWAP1 POP JUMP JUMPDEST DUP3 DUP2 DUP4 CALLDATACOPY PUSH0 DUP4 DUP4 ADD MSTORE POP POP POP JUMP JUMPDEST PUSH0 PUSH2 0xC89 PUSH2 0xC84 DUP5 PUSH2 0xC39 JUMP JUMPDEST PUSH2 0xC1F JUMP JUMPDEST SWAP1 POP DUP3 DUP2 MSTORE PUSH1 0x20 DUP2 ADD DUP5 DUP5 DUP5 ADD GT ISZERO PUSH2 0xCA5 JUMPI PUSH2 0xCA4 PUSH2 0xBAD JUMP JUMPDEST JUMPDEST PUSH2 0xCB0 DUP5 DUP3 DUP6 PUSH2 0xC69 JUMP JUMPDEST POP SWAP4 SWAP3 POP POP POP JUMP JUMPDEST PUSH0 DUP3 PUSH1 0x1F DUP4 ADD SLT PUSH2 0xCCC JUMPI PUSH2 0xCCB PUSH2 0xBA9 JUMP JUMPDEST JUMPDEST DUP2 CALLDATALOAD PUSH2 0xCDC DUP5 DUP3 PUSH1 0x20 DUP7 ADD PUSH2 0xC77 JUMP JUMPDEST SWAP2 POP POP SWAP3 SWAP2 POP POP JUMP JUMPDEST PUSH0 DUP2 SWAP1 POP SWAP2 SWAP1 POP JUMP JUMPDEST PUSH2 0xCF7 DUP2 PUSH2 0xCE5 JUMP JUMPDEST DUP2 EQ PUSH2 0xD01 JUMPI PUSH0 DUP1 REVERT JUMPDEST POP JUMP JUMPDEST PUSH0 DUP2 CALLDATALOAD SWAP1 POP PUSH2 0xD12 DUP2 PUSH2 0xCEE JUMP JUMPDEST SWAP3 SWAP2 POP POP JUMP JUMPDEST PUSH0 PUSH8 0xFFFFFFFFFFFFFFFF DUP3 GT ISZERO PUSH2 0xD32 JUMPI PUSH2 0xD31 PUSH2 0xBC1 JUMP JUMPDEST JUMPDEST PUSH1 0x20 DUP3 MUL SWAP1 POP PUSH1 0x20 DUP2 ADD SWAP1 POP SWAP2 SWAP1 POP JUMP JUMPDEST PUSH0 DUP1 REVERT JUMPDEST PUSH0 DUP1 REVERT JUMPDEST PUSH0 DUP1 REVERT JUMPDEST PUSH0 PUSH8 0xFFFFFFFFFFFFFFFF DUP3 GT ISZERO PUSH2 0xD69 JUMPI PUSH2 0xD68 PUSH2 0xBC1 JUMP JUMPDEST JUMPDEST PUSH1 0x20 DUP3 MUL SWAP1 POP PUSH1 0x20 DUP2 ADD SWAP1 POP SWAP2 SWAP1 POP JUMP JUMPDEST PUSH0 PUSH2 0xD8C PUSH2 0xD87 DUP5 PUSH2 0xD4F JUMP JUMPDEST PUSH2 0xC1F JUMP JUMPDEST SWAP1 POP DUP1 DUP4 DUP3 MSTORE PUSH1 0x20 DUP3 ADD SWAP1 POP PUSH1 0x20 DUP5 MUL DUP4 ADD DUP6 DUP2 GT ISZERO PUSH2 0xDAF JUMPI PUSH2 0xDAE PUSH2 0xD43 JUMP JUMPDEST JUMPDEST DUP4 JUMPDEST DUP2 DUP2 LT ISZERO PUSH2 0xDF6 JUMPI DUP1 CALLDATALOAD PUSH8 0xFFFFFFFFFFFFFFFF DUP2 GT ISZERO PUSH2 0xDD4 JUMPI PUSH2 0xDD3 PUSH2 0xBA9 JUMP JUMPDEST JUMPDEST DUP1 DUP7 ADD PUSH2 0xDE1 DUP10 DUP3 PUSH2 0xCB8 JUMP JUMPDEST DUP6 MSTORE PUSH1 0x20 DUP6 ADD SWAP5 POP POP POP PUSH1 0x20 DUP2 ADD SWAP1 POP PUSH2 0xDB1 JUMP JUMPDEST POP POP POP SWAP4 SWAP3 POP POP POP JUMP JUMPDEST PUSH0 DUP3 PUSH1 0x1F DUP4 ADD SLT PUSH2 0xE14 JUMPI PUSH2 0xE13 PUSH2 0xBA9 JUMP JUMPDEST JUMPDEST DUP2 CALLDATALOAD PUSH2 0xE24 DUP5 DUP3 PUSH1 0x20 DUP7 ADD PUSH2 0xD7A JUMP JUMPDEST SWAP2 POP POP SWAP3 SWAP2 POP POP JUMP JUMPDEST PUSH0 DUP2 ISZERO ISZERO SWAP1 POP SWAP2 SWAP1 POP JUMP JUMPDEST PUSH2 0xE41 DUP2 PUSH2 0xE2D JUMP JUMPDEST DUP2 EQ PUSH2 0xE4B JUMPI PUSH0 DUP1 REVERT JUMPDEST POP JUMP JUMPDEST PUSH0 DUP2 CALLDATALOAD SWAP1 POP PUSH2 0xE5C DUP2 PUSH2 0xE38 JUMP JUMPDEST SWAP3 SWAP2 POP POP JUMP JUMPDEST PUSH0 PUSH2 0x100 DUP3 DUP5 SUB SLT ISZERO PUSH2 0xE78 JUMPI PUSH2 0xE77 PUSH2 0xD47 JUMP JUMPDEST JUMPDEST PUSH2 0xE83 PUSH2 0x100 PUSH2 0xC1F JUMP JUMPDEST SWAP1 POP PUSH0 DUP3 ADD CALLDATALOAD PUSH8 0xFFFFFFFFFFFFFFFF DUP2 GT ISZERO PUSH2 0xEA2 JUMPI PUSH2 0xEA1 PUSH2 0xD4B JUMP JUMPDEST JUMPDEST PUSH2 0xEAE DUP5 DUP3 DUP6 ADD PUSH2 0xCB8 JUMP JUMPDEST PUSH0 DUP4 ADD MSTORE POP PUSH1 0x20 DUP3 ADD CALLDATALOAD PUSH8 0xFFFFFFFFFFFFFFFF DUP2 GT ISZERO PUSH2 0xED1 JUMPI PUSH2 0xED0 PUSH2 0xD4B JUMP JUMPDEST JUMPDEST PUSH2 0xEDD DUP5 DUP3 DUP6 ADD PUSH2 0xCB8 JUMP JUMPDEST PUSH1 0x20 DUP4 ADD MSTORE POP PUSH1 0x40 DUP3 ADD CALLDATALOAD PUSH8 0xFFFFFFFFFFFFFFFF DUP2 GT ISZERO PUSH2 0xF01 JUMPI PUSH2 0xF00 PUSH2 0xD4B JUMP JUMPDEST JUMPDEST PUSH2 0xF0D DUP5 DUP3 DUP6 ADD PUSH2 0xCB8 JUMP JUMPDEST PUSH1 0x40 DUP4 ADD MSTORE POP PUSH1 0x60 DUP3 ADD CALLDATALOAD PUSH8 0xFFFFFFFFFFFFFFFF DUP2 GT ISZERO PUSH2 0xF31 JUMPI PUSH2 0xF30 PUSH2 0xD4B JUMP JUMPDEST JUMPDEST PUSH2 0xF3D DUP5 DUP3 DUP6 ADD PUSH2 0xCB8 JUMP JUMPDEST PUSH1 0x60 DUP4 ADD MSTORE POP PUSH1 0x80 PUSH2 0xF51 DUP5 DUP3 DUP6 ADD PUSH2 0xD04 JUMP JUMPDEST PUSH1 0x80 DUP4 ADD MSTORE POP PUSH1 0xA0 DUP3 ADD CALLDATALOAD PUSH8 0xFFFFFFFFFFFFFFFF DUP2 GT ISZERO PUSH2 0xF75 JUMPI PUSH2 0xF74 PUSH2 0xD4B JUMP JUMPDEST JUMPDEST PUSH2 0xF81 DUP5 DUP3 DUP6 ADD PUSH2 0xE00 JUMP JUMPDEST PUSH1 0xA0 DUP4 ADD MSTORE POP PUSH1 0xC0 DUP3 ADD CALLDATALOAD PUSH8 0xFFFFFFFFFFFFFFFF DUP2 GT ISZERO PUSH2 0xFA5 JUMPI PUSH2 0xFA4 PUSH2 0xD4B JUMP JUMPDEST JUMPDEST PUSH2 0xFB1 DUP5 DUP3 DUP6 ADD PUSH2 0xE00 JUMP JUMPDEST PUSH1 0xC0 DUP4 ADD MSTORE POP PUSH1 0xE0 PUSH2 0xFC5 DUP5 DUP3 DUP6 ADD PUSH2 0xE4E JUMP JUMPDEST PUSH1 0xE0 DUP4 ADD MSTORE POP SWAP3 SWAP2 POP POP JUMP JUMPDEST PUSH0 PUSH2 0xFE3 PUSH2 0xFDE DUP5 PUSH2 0xD18 JUMP JUMPDEST PUSH2 0xC1F JUMP JUMPDEST SWAP1 POP DUP1 DUP4 DUP3 MSTORE PUSH1 0x20 DUP3 ADD SWAP1 POP PUSH1 0x20 DUP5 MUL DUP4 ADD DUP6 DUP2 GT ISZERO PUSH2 0x1006 JUMPI PUSH2 0x1005 PUSH2 0xD43 JUMP JUMPDEST JUMPDEST DUP4 JUMPDEST DUP2 DUP2 LT ISZERO PUSH2 0x104D JUMPI DUP1 CALLDATALOAD PUSH8 0xFFFFFFFFFFFFFFFF DUP2 GT ISZERO PUSH2 0x102B JUMPI PUSH2 0x102A PUSH2 0xBA9 JUMP JUMPDEST JUMPDEST DUP1 DUP7 ADD PUSH2 0x1038 DUP10 DUP3 PUSH2 0xE62 JUMP JUMPDEST DUP6 MSTORE PUSH1 0x20 DUP6 ADD SWAP5 POP POP POP PUSH1 0x20 DUP2 ADD SWAP1 POP PUSH2 0x1008 JUMP JUMPDEST POP POP POP SWAP4 SWAP3 POP POP POP JUMP JUMPDEST PUSH0 DUP3 PUSH1 0x1F DUP4 ADD SLT PUSH2 0x106B JUMPI PUSH2 0x106A PUSH2 0xBA9 JUMP JUMPDEST JUMPDEST DUP2 CALLDATALOAD PUSH2 0x107B DUP5 DUP3 PUSH1 0x20 DUP7 ADD PUSH2 0xFD1 JUMP JUMPDEST SWAP2 POP POP SWAP3 SWAP2 POP POP JUMP JUMPDEST PUSH0 DUP1 PUSH0 DUP1 PUSH0 DUP1 PUSH0 DUP1 PUSH2 0x100 DUP10 DUP12 SUB SLT ISZERO PUSH2 0x10A1 JUMPI PUSH2 0x10A0 PUSH2 0xBA1 JUMP JUMPDEST JUMPDEST PUSH0 DUP10 ADD CALLDATALOAD PUSH8 0xFFFFFFFFFFFFFFFF DUP2 GT ISZERO PUSH2 0x10BE JUMPI PUSH2 0x10BD PUSH2 0xBA5 JUMP JUMPDEST JUMPDEST PUSH2 0x10CA DUP12 DUP3 DUP13 ADD PUSH2 0xCB8 JUMP JUMPDEST SWAP9 POP POP PUSH1 0x20 DUP10 ADD CALLDATALOAD PUSH8 0xFFFFFFFFFFFFFFFF DUP2 GT ISZERO PUSH2 0x10EB JUMPI PUSH2 0x10EA PUSH2 0xBA5 JUMP JUMPDEST JUMPDEST PUSH2 0x10F7 DUP12 DUP3 DUP13 ADD PUSH2 0xCB8 JUMP JUMPDEST SWAP8 POP POP PUSH1 0x40 DUP10 ADD CALLDATALOAD PUSH8 0xFFFFFFFFFFFFFFFF DUP2 GT ISZERO PUSH2 0x1118 JUMPI PUSH2 0x1117 PUSH2 0xBA5 JUMP JUMPDEST JUMPDEST PUSH2 0x1124 DUP12 DUP3 DUP13 ADD PUSH2 0xCB8 JUMP JUMPDEST SWAP7 POP POP PUSH1 0x60 DUP10 ADD CALLDATALOAD PUSH8 0xFFFFFFFFFFFFFFFF DUP2 GT ISZERO PUSH2 0x1145 JUMPI PUSH2 0x1144 PUSH2 0xBA5 JUMP JUMPDEST JUMPDEST PUSH2 0x1151 DUP12 DUP3 DUP13 ADD PUSH2 0xCB8 JUMP JUMPDEST SWAP6 POP POP PUSH1 0x80 DUP10 ADD CALLDATALOAD PUSH8 0xFFFFFFFFFFFFFFFF DUP2 GT ISZERO PUSH2 0x1172 JUMPI PUSH2 0x1171 PUSH2 0xBA5 JUMP JUMPDEST JUMPDEST PUSH2 0x117E DUP12 DUP3 DUP13 ADD PUSH2 0xCB8 JUMP JUMPDEST SWAP5 POP POP PUSH1 0xA0 PUSH2 0x118F DUP12 DUP3 DUP13 ADD PUSH2 0xD04 JUMP JUMPDEST SWAP4 POP POP PUSH1 0xC0 PUSH2 0x11A0 DUP12 DUP3 DUP13 ADD PUSH2 0xD04 JUMP JUMPDEST SWAP3 POP POP PUSH1 0xE0 DUP10 ADD CALLDATALOAD PUSH8 0xFFFFFFFFFFFFFFFF DUP2 GT ISZERO PUSH2 0x11C1 JUMPI PUSH2 0x11C0 PUSH2 0xBA5 JUMP JUMPDEST JUMPDEST PUSH2 0x11CD DUP12 DUP3 DUP13 ADD PUSH2 0x1057 JUMP JUMPDEST SWAP2 POP POP SWAP3 SWAP6 SWAP9 POP SWAP3 SWAP6 SWAP9 SWAP1 SWAP4 SWAP7 POP JUMP JUMPDEST PUSH0 DUP1 PUSH1 0x40 DUP4 DUP6 SUB SLT ISZERO PUSH2 0x11F3 JUMPI PUSH2 0x11F2 PUSH2 0xBA1 JUMP JUMPDEST JUMPDEST PUSH0 PUSH2 0x1200 DUP6 DUP3 DUP7 ADD PUSH2 0xD04 JUMP JUMPDEST SWAP3 POP POP PUSH1 0x20 PUSH2 0x1211 DUP6 DUP3 DUP7 ADD PUSH2 0xD04 JUMP JUMPDEST SWAP2 POP POP SWAP3 POP SWAP3 SWAP1 POP JUMP JUMPDEST PUSH0 PUSH1 0x20 DUP3 DUP5 SUB SLT ISZERO PUSH2 0x1230 JUMPI PUSH2 0x122F PUSH2 0xBA1 JUMP JUMPDEST JUMPDEST PUSH0 PUSH2 0x123D DUP5 DUP3 DUP6 ADD PUSH2 0xD04 JUMP JUMPDEST SWAP2 POP POP SWAP3 SWAP2 POP POP JUMP JUMPDEST PUSH0 DUP2 MLOAD SWAP1 POP SWAP2 SWAP1 POP JUMP JUMPDEST PUSH0 DUP3 DUP3 MSTORE PUSH1 0x20 DUP3 ADD SWAP1 POP SWAP3 SWAP2 POP POP JUMP JUMPDEST PUSH0 JUMPDEST DUP4 DUP2 LT ISZERO PUSH2 0x127D JUMPI DUP1 DUP3 ADD MLOAD DUP2 DUP5 ADD MSTORE PUSH1 0x20 DUP2 ADD SWAP1 POP PUSH2 0x1262 JUMP JUMPDEST PUSH0 DUP5 DUP5 ADD MSTORE POP POP POP POP JUMP JUMPDEST PUSH0 PUSH2 0x1292 DUP3 PUSH2 0x1246 JUMP JUMPDEST PUSH2 0x129C DUP2 DUP6 PUSH2 0x1250 JUMP JUMPDEST SWAP4 POP PUSH2 0x12AC DUP2 DUP6 PUSH1 0x20 DUP7 ADD PUSH2 0x1260 JUMP JUMPDEST PUSH2 0x12B5 DUP2 PUSH2 0xBB1 JUMP JUMPDEST DUP5 ADD SWAP2 POP POP SWAP3 SWAP2 POP POP JUMP JUMPDEST PUSH0 PUSH1 0x20 DUP3 ADD SWAP1 POP DUP2 DUP2 SUB PUSH0 DUP4 ADD MSTORE PUSH2 0x12D8 DUP2 DUP5 PUSH2 0x1288 JUMP JUMPDEST SWAP1 POP SWAP3 SWAP2 POP POP JUMP JUMPDEST PUSH0 DUP2 MLOAD SWAP1 POP SWAP2 SWAP1 POP JUMP JUMPDEST PUSH0 DUP3 DUP3 MSTORE PUSH1 0x20 DUP3 ADD SWAP1 POP SWAP3 SWAP2 POP POP JUMP JUMPDEST PUSH0 DUP2 SWAP1 POP PUSH1 0x20 DUP3 ADD SWAP1 POP SWAP2 SWAP1 POP JUMP JUMPDEST PUSH0 DUP3 DUP3 MSTORE PUSH1 0x20 DUP3 ADD SWAP1 POP SWAP3 SWAP2 POP POP JUMP JUMPDEST PUSH0 PUSH2 0x1323 DUP3 PUSH2 0x1246 JUMP JUMPDEST PUSH2 0x132D DUP2 DUP6 PUSH2 0x1309 JUMP JUMPDEST SWAP4 POP PUSH2 0x133D DUP2 DUP6 PUSH1 0x20 DUP7 ADD PUSH2 0x1260 JUMP JUMPDEST PUSH2 0x1346 DUP2 PUSH2 0xBB1 JUMP JUMPDEST DUP5 ADD SWAP2 POP POP SWAP3 SWAP2 POP POP JUMP JUMPDEST PUSH0 PUSH2 0x135C DUP4 DUP4 PUSH2 0x1319 JUMP JUMPDEST SWAP1 POP SWAP3 SWAP2 POP POP JUMP JUMPDEST PUSH0 PUSH1 0x20 DUP3 ADD SWAP1 POP SWAP2 SWAP1 POP JUMP JUMPDEST PUSH0 PUSH2 0x137A DUP3 PUSH2 0x12E0 JUMP JUMPDEST PUSH2 0x1384 DUP2 DUP6 PUSH2 0x12EA JUMP JUMPDEST SWAP4 POP DUP4 PUSH1 0x20 DUP3 MUL DUP6 ADD PUSH2 0x1396 DUP6 PUSH2 0x12FA JUMP JUMPDEST DUP1 PUSH0 JUMPDEST DUP6 DUP2 LT ISZERO PUSH2 0x13D1 JUMPI DUP5 DUP5 SUB DUP10 MSTORE DUP2 MLOAD PUSH2 0x13B2 DUP6 DUP3 PUSH2 0x1351 JUMP JUMPDEST SWAP5 POP PUSH2 0x13BD DUP4 PUSH2 0x1364 JUMP JUMPDEST SWAP3 POP PUSH1 0x20 DUP11 ADD SWAP10 POP POP PUSH1 0x1 DUP2 ADD SWAP1 POP PUSH2 0x1399 JUMP JUMPDEST POP DUP3 SWAP8 POP DUP8 SWAP6 POP POP POP POP POP POP SWAP3 SWAP2 POP POP JUMP JUMPDEST PUSH0 PUSH1 0x20 DUP3 ADD SWAP1 POP DUP2 DUP2 SUB PUSH0 DUP4 ADD MSTORE PUSH2 0x13FB DUP2 DUP5 PUSH2 0x1370 JUMP JUMPDEST SWAP1 POP SWAP3 SWAP2 POP POP JUMP JUMPDEST PUSH2 0x140C DUP2 PUSH2 0xCE5 JUMP JUMPDEST DUP3 MSTORE POP POP JUMP JUMPDEST PUSH2 0x141B DUP2 PUSH2 0xE2D JUMP JUMPDEST DUP3 MSTORE POP POP JUMP JUMPDEST PUSH0 PUSH2 0x100 DUP3 ADD SWAP1 POP DUP2 DUP2 SUB PUSH0 DUP4 ADD MSTORE PUSH2 0x143A DUP2 DUP12 PUSH2 0x1288 JUMP JUMPDEST SWAP1 POP DUP2 DUP2 SUB PUSH1 0x20 DUP4 ADD MSTORE PUSH2 0x144E DUP2 DUP11 PUSH2 0x1288 JUMP JUMPDEST SWAP1 POP DUP2 DUP2 SUB PUSH1 0x40 DUP4 ADD MSTORE PUSH2 0x1462 DUP2 DUP10 PUSH2 0x1288 JUMP JUMPDEST SWAP1 POP DUP2 DUP2 SUB PUSH1 0x60 DUP4 ADD MSTORE PUSH2 0x1476 DUP2 DUP9 PUSH2 0x1288 JUMP JUMPDEST SWAP1 POP PUSH2 0x1485 PUSH1 0x80 DUP4 ADD DUP8 PUSH2 0x1403 JUMP JUMPDEST PUSH2 0x1492 PUSH1 0xA0 DUP4 ADD DUP7 PUSH2 0x1403 JUMP JUMPDEST PUSH2 0x149F PUSH1 0xC0 DUP4 ADD DUP6 PUSH2 0x1403 JUMP JUMPDEST PUSH2 0x14AC PUSH1 0xE0 DUP4 ADD DUP5 PUSH2 0x1412 JUMP JUMPDEST SWAP10 SWAP9 POP POP POP POP POP POP POP POP POP JUMP JUMPDEST PUSH0 DUP2 MLOAD SWAP1 POP SWAP2 SWAP1 POP JUMP JUMPDEST PUSH0 DUP3 DUP3 MSTORE PUSH1 0x20 DUP3 ADD SWAP1 POP SWAP3 SWAP2 POP POP JUMP JUMPDEST PUSH0 DUP2 SWAP1 POP PUSH1 0x20 DUP3 ADD SWAP1 POP SWAP2 SWAP1 POP JUMP JUMPDEST PUSH2 0x14EB DUP2 PUSH2 0xCE5 JUMP JUMPDEST DUP3 MSTORE POP POP JUMP JUMPDEST PUSH0 PUSH2 0x14FC DUP4 DUP4 PUSH2 0x14E2 JUMP JUMPDEST PUSH1 0x20 DUP4 ADD SWAP1 POP SWAP3 SWAP2 POP POP JUMP JUMPDEST PUSH0 PUSH1 0x20 DUP3 ADD SWAP1 POP SWAP2 SWAP1 POP JUMP JUMPDEST PUSH0 PUSH2 0x151E DUP3 PUSH2 0x14B9 JUMP JUMPDEST PUSH2 0x1528 DUP2 DUP6 PUSH2 0x14C3 JUMP JUMPDEST SWAP4 POP PUSH2 0x1533 DUP4 PUSH2 0x14D3 JUMP JUMPDEST DUP1 PUSH0 JUMPDEST DUP4 DUP2 LT ISZERO PUSH2 0x1563 JUMPI DUP2 MLOAD PUSH2 0x154A DUP9 DUP3 PUSH2 0x14F1 JUMP JUMPDEST SWAP8 POP PUSH2 0x1555 DUP4 PUSH2 0x1508 JUMP JUMPDEST SWAP3 POP POP PUSH1 0x1 DUP2 ADD SWAP1 POP PUSH2 0x1536 JUMP JUMPDEST POP DUP6 SWAP4 POP POP POP POP SWAP3 SWAP2 POP POP JUMP JUMPDEST PUSH0 PUSH2 0x140 DUP3 ADD SWAP1 POP DUP2 DUP2 SUB PUSH0 DUP4 ADD MSTORE PUSH2 0x1589 DUP2 DUP14 PUSH2 0x1288 JUMP JUMPDEST SWAP1 POP DUP2 DUP2 SUB PUSH1 0x20 DUP4 ADD MSTORE PUSH2 0x159D DUP2 DUP13 PUSH2 0x1288 JUMP JUMPDEST SWAP1 POP DUP2 DUP2 SUB PUSH1 0x40 DUP4 ADD MSTORE PUSH2 0x15B1 DUP2 DUP12 PUSH2 0x1288 JUMP JUMPDEST SWAP1 POP DUP2 DUP2 SUB PUSH1 0x60 DUP4 ADD MSTORE PUSH2 0x15C5 DUP2 DUP11 PUSH2 0x1288 JUMP JUMPDEST SWAP1 POP PUSH2 0x15D4 PUSH1 0x80 DUP4 ADD DUP10 PUSH2 0x1403 JUMP JUMPDEST PUSH2 0x15E1 PUSH1 0xA0 DUP4 ADD DUP9 PUSH2 0x1403 JUMP JUMPDEST PUSH2 0x15EE PUSH1 0xC0 DUP4 ADD DUP8 PUSH2 0x1403 JUMP JUMPDEST PUSH2 0x15FB PUSH1 0xE0 DUP4 ADD DUP7 PUSH2 0x1412 JUMP JUMPDEST DUP2 DUP2 SUB PUSH2 0x100 DUP4 ADD MSTORE PUSH2 0x160E DUP2 DUP6 PUSH2 0x1514 JUMP JUMPDEST SWAP1 POP DUP2 DUP2 SUB PUSH2 0x120 DUP4 ADD MSTORE PUSH2 0x1623 DUP2 DUP5 PUSH2 0x1370 JUMP JUMPDEST SWAP1 POP SWAP12 SWAP11 POP POP POP POP POP POP POP POP POP POP POP JUMP JUMPDEST PUSH0 PUSH1 0x20 DUP3 DUP5 SUB SLT ISZERO PUSH2 0x1649 JUMPI PUSH2 0x1648 PUSH2 0xBA1 JUMP JUMPDEST JUMPDEST PUSH0 DUP3 ADD CALLDATALOAD PUSH8 0xFFFFFFFFFFFFFFFF DUP2 GT ISZERO PUSH2 0x1666 JUMPI PUSH2 0x1665 PUSH2 0xBA5 JUMP JUMPDEST JUMPDEST PUSH2 0x1672 DUP5 DUP3 DUP6 ADD PUSH2 0xCB8 JUMP JUMPDEST SWAP2 POP POP SWAP3 SWAP2 POP POP JUMP JUMPDEST PUSH0 PUSH2 0x140 DUP3 ADD SWAP1 POP DUP2 DUP2 SUB PUSH0 DUP4 ADD MSTORE PUSH2 0x1694 DUP2 DUP14 PUSH2 0x1288 JUMP JUMPDEST SWAP1 POP DUP2 DUP2 SUB PUSH1 0x20 DUP4 ADD MSTORE PUSH2 0x16A8 DUP2 DUP13 PUSH2 0x1288 JUMP JUMPDEST SWAP1 POP DUP2 DUP2 SUB PUSH1 0x40 DUP4 ADD MSTORE PUSH2 0x16BC DUP2 DUP12 PUSH2 0x1288 JUMP JUMPDEST SWAP1 POP DUP2 DUP2 SUB PUSH1 0x60 DUP4 ADD MSTORE PUSH2 0x16D0 DUP2 DUP11 PUSH2 0x1288 JUMP JUMPDEST SWAP1 POP DUP2 DUP2 SUB PUSH1 0x80 DUP4 ADD MSTORE PUSH2 0x16E4 DUP2 DUP10 PUSH2 0x1288 JUMP JUMPDEST SWAP1 POP PUSH2 0x16F3 PUSH1 0xA0 DUP4 ADD DUP9 PUSH2 0x1403 JUMP JUMPDEST PUSH2 0x1700 PUSH1 0xC0 DUP4 ADD DUP8 PUSH2 0x1403 JUMP JUMPDEST PUSH2 0x170D PUSH1 0xE0 DUP4 ADD DUP7 PUSH2 0x1403 JUMP JUMPDEST PUSH2 0x171B PUSH2 0x100 DUP4 ADD DUP6 PUSH2 0x1403 JUMP JUMPDEST PUSH2 0x1729 PUSH2 0x120 DUP4 ADD DUP5 PUSH2 0x1412 JUMP JUMPDEST SWAP12 SWAP11 POP POP POP POP POP POP POP POP POP POP POP JUMP JUMPDEST PUSH0 DUP1 PUSH1 0x40 DUP4 DUP6 SUB SLT ISZERO PUSH2 0x174E JUMPI PUSH2 0x174D PUSH2 0xBA1 JUMP JUMPDEST JUMPDEST PUSH0 DUP4 ADD CALLDATALOAD PUSH8 0xFFFFFFFFFFFFFFFF DUP2 GT ISZERO PUSH2 0x176B JUMPI PUSH2 0x176A PUSH2 0xBA5 JUMP JUMPDEST JUMPDEST PUSH2 0x1777 DUP6 DUP3 DUP7 ADD PUSH2 0xCB8 JUMP JUMPDEST SWAP3 POP POP PUSH1 0x20 DUP4 ADD CALLDATALOAD PUSH8 0xFFFFFFFFFFFFFFFF DUP2 GT ISZERO PUSH2 0x1798 JUMPI PUSH2 0x1797 PUSH2 0xBA5 JUMP JUMPDEST JUMPDEST PUSH2 0x17A4 DUP6 DUP3 DUP7 ADD PUSH2 0xCB8 JUMP JUMPDEST SWAP2 POP POP SWAP3 POP SWAP3 SWAP1 POP JUMP JUMPDEST PUSH0 DUP3 DUP3 MSTORE PUSH1 0x20 DUP3 ADD SWAP1 POP SWAP3 SWAP2 POP POP JUMP JUMPDEST PUSH0 PUSH2 0x17C8 DUP3 PUSH2 0x12E0 JUMP JUMPDEST PUSH2 0x17D2 DUP2 DUP6 PUSH2 0x17AE JUMP JUMPDEST SWAP4 POP DUP4 PUSH1 0x20 DUP3 MUL DUP6 ADD PUSH2 0x17E4 DUP6 PUSH2 0x12FA JUMP JUMPDEST DUP1 PUSH0 JUMPDEST DUP6 DUP2 LT ISZERO PUSH2 0x181F JUMPI DUP5 DUP5 SUB DUP10 MSTORE DUP2 MLOAD PUSH2 0x1800 DUP6 DUP3 PUSH2 0x1351 JUMP JUMPDEST SWAP5 POP PUSH2 0x180B DUP4 PUSH2 0x1364 JUMP JUMPDEST SWAP3 POP PUSH1 0x20 DUP11 ADD SWAP10 POP POP PUSH1 0x1 DUP2 ADD SWAP1 POP PUSH2 0x17E7 JUMP JUMPDEST POP DUP3 SWAP8 POP DUP8 SWAP6 POP POP POP POP POP POP SWAP3 SWAP2 POP POP JUMP JUMPDEST PUSH2 0x183A DUP2 PUSH2 0xE2D JUMP JUMPDEST DUP3 MSTORE POP POP JUMP JUMPDEST PUSH0 PUSH2 0x100 DUP4 ADD PUSH0 DUP4 ADD MLOAD DUP5 DUP3 SUB PUSH0 DUP7 ADD MSTORE PUSH2 0x185B DUP3 DUP3 PUSH2 0x1319 JUMP JUMPDEST SWAP2 POP POP PUSH1 0x20 DUP4 ADD MLOAD DUP5 DUP3 SUB PUSH1 0x20 DUP7 ADD MSTORE PUSH2 0x1875 DUP3 DUP3 PUSH2 0x1319 JUMP JUMPDEST SWAP2 POP POP PUSH1 0x40 DUP4 ADD MLOAD DUP5 DUP3 SUB PUSH1 0x40 DUP7 ADD MSTORE PUSH2 0x188F DUP3 DUP3 PUSH2 0x1319 JUMP JUMPDEST SWAP2 POP POP PUSH1 0x60 DUP4 ADD MLOAD DUP5 DUP3 SUB PUSH1 0x60 DUP7 ADD MSTORE PUSH2 0x18A9 DUP3 DUP3 PUSH2 0x1319 JUMP JUMPDEST SWAP2 POP POP PUSH1 0x80 DUP4 ADD MLOAD PUSH2 0x18BE PUSH1 0x80 DUP7 ADD DUP3 PUSH2 0x14E2 JUMP JUMPDEST POP PUSH1 0xA0 DUP4 ADD MLOAD DUP5 DUP3 SUB PUSH1 0xA0 DUP7 ADD MSTORE PUSH2 0x18D6 DUP3 DUP3 PUSH2 0x17BE JUMP JUMPDEST SWAP2 POP POP PUSH1 0xC0 DUP4 ADD MLOAD DUP5 DUP3 SUB PUSH1 0xC0 DUP7 ADD MSTORE PUSH2 0x18F0 DUP3 DUP3 PUSH2 0x17BE JUMP JUMPDEST SWAP2 POP POP PUSH1 0xE0 DUP4 ADD MLOAD PUSH2 0x1905 PUSH1 0xE0 DUP7 ADD DUP3 PUSH2 0x1831 JUMP JUMPDEST POP DUP1 SWAP2 POP POP SWAP3 SWAP2 POP POP JUMP JUMPDEST PUSH0 PUSH1 0x20 DUP3 ADD SWAP1 POP DUP2 DUP2 SUB PUSH0 DUP4 ADD MSTORE PUSH2 0x1928 DUP2 DUP5 PUSH2 0x1840 JUMP JUMPDEST SWAP1 POP SWAP3 SWAP2 POP POP JUMP JUMPDEST PUSH0 DUP1 PUSH0 DUP1 PUSH1 0x80 DUP6 DUP8 SUB SLT ISZERO PUSH2 0x1948 JUMPI PUSH2 0x1947 PUSH2 0xBA1 JUMP JUMPDEST JUMPDEST PUSH0 PUSH2 0x1955 DUP8 DUP3 DUP9 ADD PUSH2 0xD04 JUMP JUMPDEST SWAP5 POP POP PUSH1 0x20 DUP6 ADD CALLDATALOAD PUSH8 0xFFFFFFFFFFFFFFFF DUP2 GT ISZERO PUSH2 0x1976 JUMPI PUSH2 0x1975 PUSH2 0xBA5 JUMP JUMPDEST JUMPDEST PUSH2 0x1982 DUP8 DUP3 DUP9 ADD PUSH2 0xCB8 JUMP JUMPDEST SWAP4 POP POP PUSH1 0x40 PUSH2 0x1993 DUP8 DUP3 DUP9 ADD PUSH2 0xD04 JUMP JUMPDEST SWAP3 POP POP PUSH1 0x60 DUP6 ADD CALLDATALOAD PUSH8 0xFFFFFFFFFFFFFFFF DUP2 GT ISZERO PUSH2 0x19B4 JUMPI PUSH2 0x19B3 PUSH2 0xBA5 JUMP JUMPDEST JUMPDEST PUSH2 0x19C0 DUP8 DUP3 DUP9 ADD PUSH2 0xE00 JUMP JUMPDEST SWAP2 POP POP SWAP3 SWAP6 SWAP2 SWAP5 POP SWAP3 POP JUMP JUMPDEST PUSH0 PUSH1 0x20 DUP3 ADD SWAP1 POP PUSH2 0x19DF PUSH0 DUP4 ADD DUP5 PUSH2 0x1403 JUMP JUMPDEST SWAP3 SWAP2 POP POP JUMP JUMPDEST PUSH0 DUP1 PUSH0 PUSH1 0x60 DUP5 DUP7 SUB SLT ISZERO PUSH2 0x19FC JUMPI PUSH2 0x19FB PUSH2 0xBA1 JUMP JUMPDEST JUMPDEST PUSH0 PUSH2 0x1A09 DUP7 DUP3 DUP8 ADD PUSH2 0xD04 JUMP JUMPDEST SWAP4 POP POP PUSH1 0x20 PUSH2 0x1A1A DUP7 DUP3 DUP8 ADD PUSH2 0xD04 JUMP JUMPDEST SWAP3 POP POP PUSH1 0x40 DUP5 ADD CALLDATALOAD PUSH8 0xFFFFFFFFFFFFFFFF DUP2 GT ISZERO PUSH2 0x1A3B JUMPI PUSH2 0x1A3A PUSH2 0xBA5 JUMP JUMPDEST JUMPDEST PUSH2 0x1A47 DUP7 DUP3 DUP8 ADD PUSH2 0xCB8 JUMP JUMPDEST SWAP2 POP POP SWAP3 POP SWAP3 POP SWAP3 JUMP JUMPDEST PUSH0 DUP2 SWAP1 POP SWAP3 SWAP2 POP POP JUMP JUMPDEST PUSH0 PUSH2 0x1A65 DUP3 PUSH2 0x1246 JUMP JUMPDEST PUSH2 0x1A6F DUP2 DUP6 PUSH2 0x1A51 JUMP JUMPDEST SWAP4 POP PUSH2 0x1A7F DUP2 DUP6 PUSH1 0x20 DUP7 ADD PUSH2 0x1260 JUMP JUMPDEST DUP1 DUP5 ADD SWAP2 POP POP SWAP3 SWAP2 POP POP JUMP JUMPDEST PUSH0 PUSH2 0x1A96 DUP3 DUP5 PUSH2 0x1A5B JUMP JUMPDEST SWAP2 POP DUP2 SWAP1 POP SWAP3 SWAP2 POP POP JUMP JUMPDEST PUSH32 0x4E487B7100000000000000000000000000000000000000000000000000000000 PUSH0 MSTORE PUSH1 0x22 PUSH1 0x4 MSTORE PUSH1 0x24 PUSH0 REVERT JUMPDEST PUSH0 PUSH1 0x2 DUP3 DIV SWAP1 POP PUSH1 0x1 DUP3 AND DUP1 PUSH2 0x1AE5 JUMPI PUSH1 0x7F DUP3 AND SWAP2 POP JUMPDEST PUSH1 0x20 DUP3 LT DUP2 SUB PUSH2 0x1AF8 JUMPI PUSH2 0x1AF7 PUSH2 0x1AA1 JUMP JUMPDEST JUMPDEST POP SWAP2 SWAP1 POP JUMP JUMPDEST PUSH0 DUP2 SWAP1 POP DUP2 PUSH0 MSTORE PUSH1 0x20 PUSH0 KECCAK256 SWAP1 POP SWAP2 SWAP1 POP JUMP JUMPDEST PUSH0 PUSH1 0x20 PUSH1 0x1F DUP4 ADD DIV SWAP1 POP SWAP2 SWAP1 POP JUMP JUMPDEST PUSH0 DUP3 DUP3 SHL SWAP1 POP SWAP3 SWAP2 POP POP JUMP JUMPDEST PUSH0 PUSH1 0x8 DUP4 MUL PUSH2 0x1B5A PUSH32 0xFFFFFFFFFFFFFFFFFFFFFFFFFFFFFFFFFFFFFFFFFFFFFFFFFFFFFFFFFFFFFFFF DUP3 PUSH2 0x1B1F JUMP JUMPDEST PUSH2 0x1B64 DUP7 DUP4 PUSH2 0x1B1F JUMP JUMPDEST SWAP6 POP DUP1 NOT DUP5 AND SWAP4 POP DUP1 DUP7 AND DUP5 OR SWAP3 POP POP POP SWAP4 SWAP3 POP POP POP JUMP JUMPDEST PUSH0 DUP2 SWAP1 POP SWAP2 SWAP1 POP JUMP JUMPDEST PUSH0 PUSH2 0x1B9F PUSH2 0x1B9A PUSH2 0x1B95 DUP5 PUSH2 0xCE5 JUMP JUMPDEST PUSH2 0x1B7C JUMP JUMPDEST PUSH2 0xCE5 JUMP JUMPDEST SWAP1 POP SWAP2 SWAP1 POP JUMP JUMPDEST PUSH0 DUP2 SWAP1 POP SWAP2 SWAP1 POP JUMP JUMPDEST PUSH2 0x1BB8 DUP4 PUSH2 0x1B85 JUMP JUMPDEST PUSH2 0x1BCC PUSH2 0x1BC4 DUP3 PUSH2 0x1BA6 JUMP JUMPDEST DUP5 DUP5 SLOAD PUSH2 0x1B2B JUMP JUMPDEST DUP3 SSTORE POP POP POP POP JUMP JUMPDEST PUSH0 SWAP1 JUMP JUMPDEST PUSH2 0x1BE0 PUSH2 0x1BD4 JUMP JUMPDEST PUSH2 0x1BEB DUP2 DUP5 DUP5 PUSH2 0x1BAF JUMP JUMPDEST POP POP POP JUMP JUMPDEST JUMPDEST DUP2 DUP2 LT ISZERO PUSH2 0x1C0E JUMPI PUSH2 0x1C03 PUSH0 DUP3 PUSH2 0x1BD8 JUMP JUMPDEST PUSH1 0x1 DUP2 ADD SWAP1 POP PUSH2 0x1BF1 JUMP JUMPDEST POP POP JUMP JUMPDEST PUSH1 0x1F DUP3 GT ISZERO PUSH2 0x1C53 JUMPI PUSH2 0x1C24 DUP2 PUSH2 0x1AFE JUMP JUMPDEST PUSH2 0x1C2D DUP5 PUSH2 0x1B10 JUMP JUMPDEST DUP2 ADD PUSH1 0x20 DUP6 LT ISZERO PUSH2 0x1C3C JUMPI DUP2 SWAP1 POP JUMPDEST PUSH2 0x1C50 PUSH2 0x1C48 DUP6 PUSH2 0x1B10 JUMP JUMPDEST DUP4 ADD DUP3 PUSH2 0x1BF0 JUMP JUMPDEST POP POP JUMPDEST POP POP POP JUMP JUMPDEST PUSH0 DUP3 DUP3 SHR SWAP1 POP SWAP3 SWAP2 POP POP JUMP JUMPDEST PUSH0 PUSH2 0x1C73 PUSH0 NOT DUP5 PUSH1 0x8 MUL PUSH2 0x1C58 JUMP JUMPDEST NOT DUP1 DUP4 AND SWAP2 POP POP SWAP3 SWAP2 POP POP JUMP JUMPDEST PUSH0 PUSH2 0x1C8B DUP4 DUP4 PUSH2 0x1C64 JUMP JUMPDEST SWAP2 POP DUP3 PUSH1 0x2 MUL DUP3 OR SWAP1 POP SWAP3 SWAP2 POP POP JUMP JUMPDEST PUSH2 0x1CA4 DUP3 PUSH2 0x1246 JUMP JUMPDEST PUSH8 0xFFFFFFFFFFFFFFFF DUP2 GT ISZERO PUSH2 0x1CBD JUMPI PUSH2 0x1CBC PUSH2 0xBC1 JUMP JUMPDEST JUMPDEST PUSH2 0x1CC7 DUP3 SLOAD PUSH2 0x1ACE JUMP JUMPDEST PUSH2 0x1CD2 DUP3 DUP3 DUP6 PUSH2 0x1C12 JUMP JUMPDEST PUSH0 PUSH1 0x20 SWAP1 POP PUSH1 0x1F DUP4 GT PUSH1 0x1 DUP2 EQ PUSH2 0x1D03 JUMPI PUSH0 DUP5 ISZERO PUSH2 0x1CF1 JUMPI DUP3 DUP8 ADD MLOAD SWAP1 POP JUMPDEST PUSH2 0x1CFB DUP6 DUP3 PUSH2 0x1C80 JUMP JUMPDEST DUP7 SSTORE POP PUSH2 0x1D62 JUMP JUMPDEST PUSH1 0x1F NOT DUP5 AND PUSH2 0x1D11 DUP7 PUSH2 0x1AFE JUMP JUMPDEST PUSH0 JUMPDEST DUP3 DUP2 LT ISZERO PUSH2 0x1D38 JUMPI DUP5 DUP10 ADD MLOAD DUP3 SSTORE PUSH1 0x1 DUP3 ADD SWAP2 POP PUSH1 0x20 DUP6 ADD SWAP5 POP PUSH1 0x20 DUP2 ADD SWAP1 POP PUSH2 0x1D13 JUMP JUMPDEST DUP7 DUP4 LT ISZERO PUSH2 0x1D55 JUMPI DUP5 DUP10 ADD MLOAD PUSH2 0x1D51 PUSH1 0x1F DUP10 AND DUP3 PUSH2 0x1C64 JUMP JUMPDEST DUP4 SSTORE POP JUMPDEST PUSH1 0x1 PUSH1 0x2 DUP9 MUL ADD DUP9 SSTORE POP POP POP JUMPDEST POP POP POP POP POP POP JUMP JUMPDEST PUSH32 0x4E487B7100000000000000000000000000000000000000000000000000000000 PUSH0 MSTORE PUSH1 0x32 PUSH1 0x4 MSTORE PUSH1 0x24 PUSH0 REVERT JUMPDEST PUSH32 0x4E487B7100000000000000000000000000000000000000000000000000000000 PUSH0 MSTORE PUSH1 0x11 PUSH1 0x4 MSTORE PUSH1 0x24 PUSH0 REVERT JUMPDEST PUSH0 PUSH2 0x1DCE DUP3 PUSH2 0xCE5 JUMP JUMPDEST SWAP2 POP PUSH32 0xFFFFFFFFFFFFFFFFFFFFFFFFFFFFFFFFFFFFFFFFFFFFFFFFFFFFFFFFFFFFFFFF DUP3 SUB PUSH2 0x1E00 JUMPI PUSH2 0x1DFF PUSH2 0x1D97 JUMP JUMPDEST JUMPDEST PUSH1 0x1 DUP3 ADD SWAP1 POP SWAP2 SWAP1 POP JUMP JUMPDEST PUSH0 PUSH1 0x60 DUP3 ADD SWAP1 POP PUSH2 0x1E1E PUSH0 DUP4 ADD DUP7 PUSH2 0x1403 JUMP JUMPDEST PUSH2 0x1E2B PUSH1 0x20 DUP4 ADD DUP6 PUSH2 0x1403 JUMP JUMPDEST DUP2 DUP2 SUB PUSH1 0x40 DUP4 ADD MSTORE PUSH2 0x1E3D DUP2 DUP5 PUSH2 0x1288 JUMP JUMPDEST SWAP1 POP SWAP5 SWAP4 POP POP POP POP JUMP INVALID LOG2 PUSH5 0x6970667358 0x22 SLT KECCAK256 0xAE CALLCODE DUP8 0xC2 EXTCODESIZE DUP6 0xB7 0xC4 DUP11 RETURN DUP6 0xEA 0xE GASLIMIT PUSH31 0x38213998E28FB2DCDEB45107C52C4943D864736F6C63430008140033000000 "
				},
				"gasEstimates": {
					"creation": {
						"codeDepositCost": "1561000",
						"executionCost": "infinite",
						"totalCost": "infinite"
					},
					"external": {
						"addStage(uint256,string,uint256,string[])": "infinite",
						"agencyId()": "infinite",
						"closeProject(uint256)": "446",
						"createProject(string,string,string,string,string,uint256,uint256,(string,string,string,string,uint256,string[],string[],bool)[])": "infinite",
						"getAllProjectIds()": "infinite",
						"getProjectDetails(uint256)": "infinite",
						"getProjectWithStages(uint256)": "infinite",
						"getProjectsCount()": "2506",
						"getStageById(string,string)": "infinite",
						"processPendingPayments(uint256,uint256)": "infinite",
						"projectIds(uint256)": "infinite",
						"projects(string)": "infinite",
						"validateStage(uint256,uint256,string)": "infinite"
					}
				},
				"methodIdentifiers": {
					"addStage(uint256,string,uint256,string[])": "cce9889e",
					"agencyId()": "99e76d35",
					"closeProject(uint256)": "93dc12e6",
					"createProject(string,string,string,string,string,uint256,uint256,(string,string,string,string,uint256,string[],string[],bool)[])": "009f310b",
					"getAllProjectIds()": "4ac64766",
					"getProjectDetails(uint256)": "5f8439e3",
					"getProjectWithStages(uint256)": "8abb10c6",
					"getProjectsCount()": "e4a8f18b",
					"getStageById(string,string)": "cbe737b3",
					"processPendingPayments(uint256,uint256)": "089cd025",
					"projectIds(uint256)": "48c35ad4",
					"projects(string)": "91c9b268",
					"validateStage(uint256,uint256,string)": "f5c4b73e"
				}
			},
			"storageLayout": {
				"storage": [
					{
						"astId": 4,
						"contract": "smartContract_eliseu_v1.sol:SmartPayConstruction",
						"label": "agencyId",
						"offset": 0,
						"slot": "0",
						"type": "t_string_storage"
					},
					{
						"astId": 53,
						"contract": "smartContract_eliseu_v1.sol:SmartPayConstruction",
						"label": "projects",
						"offset": 0,
						"slot": "1",
						"type": "t_mapping(t_string_memory_ptr,t_struct(Project)48_storage)"
					},
					{
						"astId": 56,
						"contract": "smartContract_eliseu_v1.sol:SmartPayConstruction",
						"label": "projectIds",
						"offset": 0,
						"slot": "2",
						"type": "t_array(t_string_storage)dyn_storage"
					}
				],
				"types": {
					"t_array(t_string_storage)dyn_storage": {
						"base": "t_string_storage",
						"encoding": "dynamic_array",
						"label": "string[]",
						"numberOfBytes": "32"
					},
					"t_array(t_struct(Stage)23_storage)dyn_storage": {
						"base": "t_struct(Stage)23_storage",
						"encoding": "dynamic_array",
						"label": "struct SmartPayConstruction.Stage[]",
						"numberOfBytes": "32"
					},
					"t_bool": {
						"encoding": "inplace",
						"label": "bool",
						"numberOfBytes": "1"
					},
					"t_mapping(t_string_memory_ptr,t_struct(Project)48_storage)": {
						"encoding": "mapping",
						"key": "t_string_memory_ptr",
						"label": "mapping(string => struct SmartPayConstruction.Project)",
						"numberOfBytes": "32",
						"value": "t_struct(Project)48_storage"
					},
					"t_string_memory_ptr": {
						"encoding": "bytes",
						"label": "string",
						"numberOfBytes": "32"
					},
					"t_string_storage": {
						"encoding": "bytes",
						"label": "string",
						"numberOfBytes": "32"
					},
					"t_struct(Project)48_storage": {
						"encoding": "inplace",
						"label": "struct SmartPayConstruction.Project",
						"members": [
							{
								"astId": 25,
								"contract": "smartContract_eliseu_v1.sol:SmartPayConstruction",
								"label": "project_id",
								"offset": 0,
								"slot": "0",
								"type": "t_string_storage"
							},
							{
								"astId": 27,
								"contract": "smartContract_eliseu_v1.sol:SmartPayConstruction",
								"label": "name",
								"offset": 0,
								"slot": "1",
								"type": "t_string_storage"
							},
							{
								"astId": 29,
								"contract": "smartContract_eliseu_v1.sol:SmartPayConstruction",
								"label": "description",
								"offset": 0,
								"slot": "2",
								"type": "t_string_storage"
							},
							{
								"astId": 31,
								"contract": "smartContract_eliseu_v1.sol:SmartPayConstruction",
								"label": "client_id",
								"offset": 0,
								"slot": "3",
								"type": "t_string_storage"
							},
							{
								"astId": 33,
								"contract": "smartContract_eliseu_v1.sol:SmartPayConstruction",
								"label": "contractor",
								"offset": 0,
								"slot": "4",
								"type": "t_string_storage"
							},
							{
								"astId": 35,
								"contract": "smartContract_eliseu_v1.sol:SmartPayConstruction",
								"label": "creationDate",
								"offset": 0,
								"slot": "5",
								"type": "t_uint256"
							},
							{
								"astId": 37,
								"contract": "smartContract_eliseu_v1.sol:SmartPayConstruction",
								"label": "startDate",
								"offset": 0,
								"slot": "6",
								"type": "t_uint256"
							},
							{
								"astId": 39,
								"contract": "smartContract_eliseu_v1.sol:SmartPayConstruction",
								"label": "endDate",
								"offset": 0,
								"slot": "7",
								"type": "t_uint256"
							},
							{
								"astId": 41,
								"contract": "smartContract_eliseu_v1.sol:SmartPayConstruction",
								"label": "actualCompletionDate",
								"offset": 0,
								"slot": "8",
								"type": "t_uint256"
							},
							{
								"astId": 43,
								"contract": "smartContract_eliseu_v1.sol:SmartPayConstruction",
								"label": "closed",
								"offset": 0,
								"slot": "9",
								"type": "t_bool"
							},
							{
								"astId": 47,
								"contract": "smartContract_eliseu_v1.sol:SmartPayConstruction",
								"label": "stages",
								"offset": 0,
								"slot": "10",
								"type": "t_array(t_struct(Stage)23_storage)dyn_storage"
							}
						],
						"numberOfBytes": "352"
					},
					"t_struct(Stage)23_storage": {
						"encoding": "inplace",
						"label": "struct SmartPayConstruction.Stage",
						"members": [
							{
								"astId": 6,
								"contract": "smartContract_eliseu_v1.sol:SmartPayConstruction",
								"label": "project_id",
								"offset": 0,
								"slot": "0",
								"type": "t_string_storage"
							},
							{
								"astId": 8,
								"contract": "smartContract_eliseu_v1.sol:SmartPayConstruction",
								"label": "title",
								"offset": 0,
								"slot": "1",
								"type": "t_string_storage"
							},
							{
								"astId": 10,
								"contract": "smartContract_eliseu_v1.sol:SmartPayConstruction",
								"label": "description",
								"offset": 0,
								"slot": "2",
								"type": "t_string_storage"
							},
							{
								"astId": 12,
								"contract": "smartContract_eliseu_v1.sol:SmartPayConstruction",
								"label": "validation_steps",
								"offset": 0,
								"slot": "3",
								"type": "t_string_storage"
							},
							{
								"astId": 14,
								"contract": "smartContract_eliseu_v1.sol:SmartPayConstruction",
								"label": "value",
								"offset": 0,
								"slot": "4",
								"type": "t_uint256"
							},
							{
								"astId": 17,
								"contract": "smartContract_eliseu_v1.sol:SmartPayConstruction",
								"label": "validators_ids",
								"offset": 0,
								"slot": "5",
								"type": "t_array(t_string_storage)dyn_storage"
							},
							{
								"astId": 20,
								"contract": "smartContract_eliseu_v1.sol:SmartPayConstruction",
								"label": "validations",
								"offset": 0,
								"slot": "6",
								"type": "t_array(t_string_storage)dyn_storage"
							},
							{
								"astId": 22,
								"contract": "smartContract_eliseu_v1.sol:SmartPayConstruction",
								"label": "completed",
								"offset": 0,
								"slot": "7",
								"type": "t_bool"
							}
						],
						"numberOfBytes": "256"
					},
					"t_uint256": {
						"encoding": "inplace",
						"label": "uint256",
						"numberOfBytes": "32"
					}
				}
			},
			"userdoc": {
				"kind": "user",
				"methods": {},
				"version": 1
			}
		}
	}
}