{
	"smartContract_eliseu_v1.sol": {
		"SmartPayConstruction": {
			"abi": [
				{
					"anonymous": false,
					"inputs": [
						{
							"indexed": false,
							"internalType": "uint256",
							"name": "projectId",
							"type": "uint256"
						},
						{
							"indexed": false,
							"internalType": "uint256",
							"name": "stageId",
							"type": "uint256"
						},
						{
							"indexed": false,
							"internalType": "uint256",
							"name": "amount",
							"type": "uint256"
						}
					],
					"name": "PaymentProcessed",
					"type": "event"
				},
				{
					"anonymous": false,
					"inputs": [
						{
							"indexed": false,
							"internalType": "uint256",
							"name": "id",
							"type": "uint256"
						}
					],
					"name": "ProjectClosed",
					"type": "event"
				},
				{
					"anonymous": false,
					"inputs": [
						{
							"indexed": false,
							"internalType": "uint256",
							"name": "projectId",
							"type": "uint256"
						},
						{
							"indexed": false,
							"internalType": "uint256",
							"name": "stageId",
							"type": "uint256"
						},
						{
							"indexed": false,
							"internalType": "string",
							"name": "description",
							"type": "string"
						},
						{
							"indexed": false,
							"internalType": "uint256",
							"name": "value",
							"type": "uint256"
						}
					],
					"name": "StageAdded",
					"type": "event"
				},
				{
					"anonymous": false,
					"inputs": [
						{
							"indexed": false,
							"internalType": "uint256",
							"name": "projectId",
							"type": "uint256"
						},
						{
							"indexed": false,
							"internalType": "uint256",
							"name": "stageId",
							"type": "uint256"
						},
						{
							"indexed": false,
							"internalType": "string",
							"name": "validatorID",
							"type": "string"
						}
					],
					"name": "StageValidated",
					"type": "event"
				},
				{
					"inputs": [
						{
							"internalType": "string",
							"name": "projectId",
							"type": "string"
						},
						{
							"components": [
								{
									"internalType": "string",
									"name": "stage_id",
									"type": "string"
								},
								{
									"internalType": "string",
									"name": "title",
									"type": "string"
								},
								{
									"internalType": "string",
									"name": "description",
									"type": "string"
								},
								{
									"internalType": "string",
									"name": "validation_steps",
									"type": "string"
								},
								{
									"internalType": "uint256",
									"name": "value",
									"type": "uint256"
								},
								{
									"internalType": "string[]",
									"name": "validators_ids",
									"type": "string[]"
								},
								{
									"internalType": "string[]",
									"name": "validations",
									"type": "string[]"
								},
								{
									"internalType": "uint256",
									"name": "totalValidators",
									"type": "uint256"
								},
								{
									"internalType": "uint256",
									"name": "amountToValidator",
									"type": "uint256"
								},
								{
									"internalType": "bool",
									"name": "completed",
									"type": "bool"
								}
							],
							"internalType": "struct SmartPayConstruction.Stage",
							"name": "_stage",
							"type": "tuple"
						}
					],
					"name": "addStage",
					"outputs": [],
					"stateMutability": "nonpayable",
					"type": "function"
				},
				{
					"inputs": [],
					"name": "agencyId",
					"outputs": [
						{
							"internalType": "string",
							"name": "",
							"type": "string"
						}
					],
					"stateMutability": "view",
					"type": "function"
				},
				{
					"inputs": [
						{
							"internalType": "uint256",
							"name": "projectId",
							"type": "uint256"
						}
					],
					"name": "closeProject",
					"outputs": [],
					"stateMutability": "nonpayable",
					"type": "function"
				},
				{
					"inputs": [
						{
							"internalType": "string",
							"name": "a",
							"type": "string"
						},
						{
							"internalType": "string",
							"name": "b",
							"type": "string"
						}
					],
					"name": "compareStrings",
					"outputs": [
						{
							"internalType": "bool",
							"name": "",
							"type": "bool"
						}
					],
					"stateMutability": "pure",
					"type": "function"
				},
				{
					"inputs": [
						{
							"internalType": "string",
							"name": "_project_id",
							"type": "string"
						},
						{
							"internalType": "string",
							"name": "_name",
							"type": "string"
						},
						{
							"internalType": "string",
							"name": "_description",
							"type": "string"
						},
						{
							"internalType": "string",
							"name": "_client_id",
							"type": "string"
						},
						{
							"internalType": "string",
							"name": "_contractor",
							"type": "string"
						},
						{
							"internalType": "uint256",
							"name": "_startDate",
							"type": "uint256"
						},
						{
							"internalType": "uint256",
							"name": "_endDate",
							"type": "uint256"
						},
						{
							"components": [
								{
									"internalType": "string",
									"name": "stage_id",
									"type": "string"
								},
								{
									"internalType": "string",
									"name": "title",
									"type": "string"
								},
								{
									"internalType": "string",
									"name": "description",
									"type": "string"
								},
								{
									"internalType": "string",
									"name": "validation_steps",
									"type": "string"
								},
								{
									"internalType": "uint256",
									"name": "value",
									"type": "uint256"
								},
								{
									"internalType": "string[]",
									"name": "validators_ids",
									"type": "string[]"
								},
								{
									"internalType": "string[]",
									"name": "validations",
									"type": "string[]"
								},
								{
									"internalType": "uint256",
									"name": "totalValidators",
									"type": "uint256"
								},
								{
									"internalType": "uint256",
									"name": "amountToValidator",
									"type": "uint256"
								},
								{
									"internalType": "bool",
									"name": "completed",
									"type": "bool"
								}
							],
							"internalType": "struct SmartPayConstruction.Stage[]",
							"name": "_stages",
							"type": "tuple[]"
						}
					],
					"name": "createProject",
					"outputs": [],
					"stateMutability": "nonpayable",
					"type": "function"
				},
				{
					"inputs": [],
					"name": "getAllProjectIds",
					"outputs": [
						{
							"internalType": "string[]",
							"name": "",
							"type": "string[]"
						}
					],
					"stateMutability": "view",
					"type": "function"
				},
				{
					"inputs": [
						{
							"internalType": "uint256",
							"name": "projectId",
							"type": "uint256"
						}
					],
					"name": "getProjectDetails",
					"outputs": [
						{
							"internalType": "string",
							"name": "",
							"type": "string"
						},
						{
							"internalType": "string",
							"name": "",
							"type": "string"
						},
						{
							"internalType": "string",
							"name": "",
							"type": "string"
						},
						{
							"internalType": "string",
							"name": "",
							"type": "string"
						},
						{
							"internalType": "uint256",
							"name": "",
							"type": "uint256"
						},
						{
							"internalType": "uint256",
							"name": "",
							"type": "uint256"
						},
						{
							"internalType": "uint256",
							"name": "",
							"type": "uint256"
						},
						{
							"internalType": "bool",
							"name": "",
							"type": "bool"
						}
					],
					"stateMutability": "view",
					"type": "function"
				},
				{
					"inputs": [
						{
							"internalType": "uint256",
							"name": "projectId",
							"type": "uint256"
						}
					],
					"name": "getProjectWithStages",
					"outputs": [
						{
							"internalType": "string",
							"name": "",
							"type": "string"
						},
						{
							"internalType": "string",
							"name": "",
							"type": "string"
						},
						{
							"internalType": "string",
							"name": "",
							"type": "string"
						},
						{
							"internalType": "string",
							"name": "",
							"type": "string"
						},
						{
							"internalType": "uint256",
							"name": "",
							"type": "uint256"
						},
						{
							"internalType": "uint256",
							"name": "",
							"type": "uint256"
						},
						{
							"internalType": "uint256",
							"name": "",
							"type": "uint256"
						},
						{
							"internalType": "bool",
							"name": "",
							"type": "bool"
						},
						{
							"internalType": "uint256[]",
							"name": "",
							"type": "uint256[]"
						},
						{
							"internalType": "string[]",
							"name": "",
							"type": "string[]"
						}
					],
					"stateMutability": "view",
					"type": "function"
				},
				{
					"inputs": [],
					"name": "getProjectsCount",
					"outputs": [
						{
							"internalType": "uint256",
							"name": "",
							"type": "uint256"
						}
					],
					"stateMutability": "view",
					"type": "function"
				},
				{
					"inputs": [
						{
							"internalType": "string",
							"name": "projectId",
							"type": "string"
						},
						{
							"internalType": "string",
							"name": "stageId",
							"type": "string"
						}
					],
					"name": "getStageById",
					"outputs": [
						{
							"components": [
								{
									"internalType": "string",
									"name": "stage_id",
									"type": "string"
								},
								{
									"internalType": "string",
									"name": "title",
									"type": "string"
								},
								{
									"internalType": "string",
									"name": "description",
									"type": "string"
								},
								{
									"internalType": "string",
									"name": "validation_steps",
									"type": "string"
								},
								{
									"internalType": "uint256",
									"name": "value",
									"type": "uint256"
								},
								{
									"internalType": "string[]",
									"name": "validators_ids",
									"type": "string[]"
								},
								{
									"internalType": "string[]",
									"name": "validations",
									"type": "string[]"
								},
								{
									"internalType": "uint256",
									"name": "totalValidators",
									"type": "uint256"
								},
								{
									"internalType": "uint256",
									"name": "amountToValidator",
									"type": "uint256"
								},
								{
									"internalType": "bool",
									"name": "completed",
									"type": "bool"
								}
							],
							"internalType": "struct SmartPayConstruction.Stage",
							"name": "s",
							"type": "tuple"
						},
						{
							"internalType": "bool",
							"name": "found",
							"type": "bool"
						}
					],
					"stateMutability": "view",
					"type": "function"
				},
				{
					"inputs": [
						{
							"internalType": "string",
							"name": "projectId",
							"type": "string"
						}
					],
					"name": "getStagesCount",
					"outputs": [
						{
							"internalType": "uint256",
							"name": "",
							"type": "uint256"
						}
					],
					"stateMutability": "view",
					"type": "function"
				},
				{
					"inputs": [
						{
							"internalType": "uint256",
							"name": "projectId",
							"type": "uint256"
						},
						{
							"internalType": "uint256",
							"name": "stageId",
							"type": "uint256"
						}
					],
					"name": "processPendingPayments",
					"outputs": [],
					"stateMutability": "nonpayable",
					"type": "function"
				},
				{
					"inputs": [
						{
							"internalType": "uint256",
							"name": "",
							"type": "uint256"
						}
					],
					"name": "projectIds",
					"outputs": [
						{
							"internalType": "string",
							"name": "",
							"type": "string"
						}
					],
					"stateMutability": "view",
					"type": "function"
				},
				{
					"inputs": [
						{
							"internalType": "string",
							"name": "",
							"type": "string"
						}
					],
					"name": "projects",
					"outputs": [
						{
							"internalType": "string",
							"name": "project_id",
							"type": "string"
						},
						{
							"internalType": "string",
							"name": "name",
							"type": "string"
						},
						{
							"internalType": "string",
							"name": "description",
							"type": "string"
						},
						{
							"internalType": "string",
							"name": "client_id",
							"type": "string"
						},
						{
							"internalType": "string",
							"name": "contractor",
							"type": "string"
						},
						{
							"internalType": "uint256",
							"name": "creationDate",
							"type": "uint256"
						},
						{
							"internalType": "uint256",
							"name": "startDate",
							"type": "uint256"
						},
						{
							"internalType": "uint256",
							"name": "endDate",
							"type": "uint256"
						},
						{
							"internalType": "uint256",
							"name": "actualCompletionDate",
							"type": "uint256"
						},
						{
							"internalType": "bool",
							"name": "closed",
							"type": "bool"
						}
					],
					"stateMutability": "view",
					"type": "function"
				},
				{
					"inputs": [
						{
							"internalType": "uint256",
							"name": "projectId",
							"type": "uint256"
						},
						{
							"internalType": "uint256",
							"name": "stageId",
							"type": "uint256"
						},
						{
							"internalType": "string",
							"name": "validatorID",
							"type": "string"
						}
					],
					"name": "validateStage",
					"outputs": [],
					"stateMutability": "nonpayable",
					"type": "function"
				}
			],
			"devdoc": {
				"kind": "dev",
				"methods": {},
				"version": 1
			},
			"evm": {
				"assembly": "    /* \"smartContract_eliseu_v1.sol\":58:5436  contract SmartPayConstruction {... */\n  mstore(0x40, 0x80)\n    /* \"smartContract_eliseu_v1.sol\":94:127  string public agencyId = \"agency\" */\n  mload(0x40)\n  dup1\n  0x40\n  add\n  0x40\n  mstore\n  dup1\n  0x06\n  dup2\n  mstore\n  0x20\n  add\n  0x6167656e63790000000000000000000000000000000000000000000000000000\n  dup2\n  mstore\n  pop\n  0x00\n  swap1\n  dup2\n  tag_1\n  swap2\n  swap1\n  tag_2\n  jump\t// in\ntag_1:\n  pop\n    /* \"smartContract_eliseu_v1.sol\":58:5436  contract SmartPayConstruction {... */\n  callvalue\n  dup1\n  iszero\n  tag_3\n  jumpi\n  0x00\n  dup1\n  revert\ntag_3:\n  pop\n  jump(tag_4)\n    /* \"#utility.yul\":7:106   */\ntag_5:\n    /* \"#utility.yul\":59:65   */\n  0x00\n    /* \"#utility.yul\":93:98   */\n  dup2\n    /* \"#utility.yul\":87:99   */\n  mload\n    /* \"#utility.yul\":77:99   */\n  swap1\n  pop\n    /* \"#utility.yul\":7:106   */\n  swap2\n  swap1\n  pop\n  jump\t// out\n    /* \"#utility.yul\":112:292   */\ntag_6:\n    /* \"#utility.yul\":160:237   */\n  0x4e487b7100000000000000000000000000000000000000000000000000000000\n    /* \"#utility.yul\":157:158   */\n  0x00\n    /* \"#utility.yul\":150:238   */\n  mstore\n    /* \"#utility.yul\":257:261   */\n  0x41\n    /* \"#utility.yul\":254:255   */\n  0x04\n    /* \"#utility.yul\":247:262   */\n  mstore\n    /* \"#utility.yul\":281:285   */\n  0x24\n    /* \"#utility.yul\":278:279   */\n  0x00\n    /* \"#utility.yul\":271:286   */\n  revert\n    /* \"#utility.yul\":298:478   */\ntag_7:\n    /* \"#utility.yul\":346:423   */\n  0x4e487b7100000000000000000000000000000000000000000000000000000000\n    /* \"#utility.yul\":343:344   */\n  0x00\n    /* \"#utility.yul\":336:424   */\n  mstore\n    /* \"#utility.yul\":443:447   */\n  0x22\n    /* \"#utility.yul\":440:441   */\n  0x04\n    /* \"#utility.yul\":433:448   */\n  mstore\n    /* \"#utility.yul\":467:471   */\n  0x24\n    /* \"#utility.yul\":464:465   */\n  0x00\n    /* \"#utility.yul\":457:472   */\n  revert\n    /* \"#utility.yul\":484:804   */\ntag_8:\n    /* \"#utility.yul\":528:534   */\n  0x00\n    /* \"#utility.yul\":565:566   */\n  0x02\n    /* \"#utility.yul\":559:563   */\n  dup3\n    /* \"#utility.yul\":555:567   */\n  div\n    /* \"#utility.yul\":545:567   */\n  swap1\n  pop\n    /* \"#utility.yul\":612:613   */\n  0x01\n    /* \"#utility.yul\":606:610   */\n  dup3\n    /* \"#utility.yul\":602:614   */\n  and\n    /* \"#utility.yul\":633:651   */\n  dup1\n    /* \"#utility.yul\":623:704   */\n  tag_30\n  jumpi\n    /* \"#utility.yul\":689:693   */\n  0x7f\n    /* \"#utility.yul\":681:687   */\n  dup3\n    /* \"#utility.yul\":677:694   */\n  and\n    /* \"#utility.yul\":667:694   */\n  swap2\n  pop\n    /* \"#utility.yul\":623:704   */\ntag_30:\n    /* \"#utility.yul\":751:753   */\n  0x20\n    /* \"#utility.yul\":743:749   */\n  dup3\n    /* \"#utility.yul\":740:754   */\n  lt\n    /* \"#utility.yul\":720:738   */\n  dup2\n    /* \"#utility.yul\":717:755   */\n  sub\n    /* \"#utility.yul\":714:798   */\n  tag_31\n  jumpi\n    /* \"#utility.yul\":770:788   */\n  tag_32\n  tag_7\n  jump\t// in\ntag_32:\n    /* \"#utility.yul\":714:798   */\ntag_31:\n    /* \"#utility.yul\":535:804   */\n  pop\n    /* \"#utility.yul\":484:804   */\n  swap2\n  swap1\n  pop\n  jump\t// out\n    /* \"#utility.yul\":810:951   */\ntag_9:\n    /* \"#utility.yul\":859:863   */\n  0x00\n    /* \"#utility.yul\":882:885   */\n  dup2\n    /* \"#utility.yul\":874:885   */\n  swap1\n  pop\n    /* \"#utility.yul\":905:908   */\n  dup2\n    /* \"#utility.yul\":902:903   */\n  0x00\n    /* \"#utility.yul\":895:909   */\n  mstore\n    /* \"#utility.yul\":939:943   */\n  0x20\n    /* \"#utility.yul\":936:937   */\n  0x00\n    /* \"#utility.yul\":926:944   */\n  keccak256\n    /* \"#utility.yul\":918:944   */\n  swap1\n  pop\n    /* \"#utility.yul\":810:951   */\n  swap2\n  swap1\n  pop\n  jump\t// out\n    /* \"#utility.yul\":957:1050   */\ntag_10:\n    /* \"#utility.yul\":994:1000   */\n  0x00\n    /* \"#utility.yul\":1041:1043   */\n  0x20\n    /* \"#utility.yul\":1036:1038   */\n  0x1f\n    /* \"#utility.yul\":1029:1034   */\n  dup4\n    /* \"#utility.yul\":1025:1039   */\n  add\n    /* \"#utility.yul\":1021:1044   */\n  div\n    /* \"#utility.yul\":1011:1044   */\n  swap1\n  pop\n    /* \"#utility.yul\":957:1050   */\n  swap2\n  swap1\n  pop\n  jump\t// out\n    /* \"#utility.yul\":1056:1163   */\ntag_11:\n    /* \"#utility.yul\":1100:1108   */\n  0x00\n    /* \"#utility.yul\":1150:1155   */\n  dup3\n    /* \"#utility.yul\":1144:1148   */\n  dup3\n    /* \"#utility.yul\":1140:1156   */\n  shl\n    /* \"#utility.yul\":1119:1156   */\n  swap1\n  pop\n    /* \"#utility.yul\":1056:1163   */\n  swap3\n  swap2\n  pop\n  pop\n  jump\t// out\n    /* \"#utility.yul\":1169:1562   */\ntag_12:\n    /* \"#utility.yul\":1238:1244   */\n  0x00\n    /* \"#utility.yul\":1288:1289   */\n  0x08\n    /* \"#utility.yul\":1276:1286   */\n  dup4\n    /* \"#utility.yul\":1272:1290   */\n  mul\n    /* \"#utility.yul\":1311:1408   */\n  tag_37\n    /* \"#utility.yul\":1341:1407   */\n  0xffffffffffffffffffffffffffffffffffffffffffffffffffffffffffffffff\n    /* \"#utility.yul\":1330:1339   */\n  dup3\n    /* \"#utility.yul\":1311:1408   */\n  tag_11\n  jump\t// in\ntag_37:\n    /* \"#utility.yul\":1429:1468   */\n  tag_38\n    /* \"#utility.yul\":1459:1467   */\n  dup7\n    /* \"#utility.yul\":1448:1457   */\n  dup4\n    /* \"#utility.yul\":1429:1468   */\n  tag_11\n  jump\t// in\ntag_38:\n    /* \"#utility.yul\":1417:1468   */\n  swap6\n  pop\n    /* \"#utility.yul\":1501:1505   */\n  dup1\n    /* \"#utility.yul\":1497:1506   */\n  not\n    /* \"#utility.yul\":1490:1495   */\n  dup5\n    /* \"#utility.yul\":1486:1507   */\n  and\n    /* \"#utility.yul\":1477:1507   */\n  swap4\n  pop\n    /* \"#utility.yul\":1550:1554   */\n  dup1\n    /* \"#utility.yul\":1540:1548   */\n  dup7\n    /* \"#utility.yul\":1536:1555   */\n  and\n    /* \"#utility.yul\":1529:1534   */\n  dup5\n    /* \"#utility.yul\":1526:1556   */\n  or\n    /* \"#utility.yul\":1516:1556   */\n  swap3\n  pop\n    /* \"#utility.yul\":1245:1562   */\n  pop\n  pop\n    /* \"#utility.yul\":1169:1562   */\n  swap4\n  swap3\n  pop\n  pop\n  pop\n  jump\t// out\n    /* \"#utility.yul\":1568:1645   */\ntag_13:\n    /* \"#utility.yul\":1605:1612   */\n  0x00\n    /* \"#utility.yul\":1634:1639   */\n  dup2\n    /* \"#utility.yul\":1623:1639   */\n  swap1\n  pop\n    /* \"#utility.yul\":1568:1645   */\n  swap2\n  swap1\n  pop\n  jump\t// out\n    /* \"#utility.yul\":1651:1711   */\ntag_14:\n    /* \"#utility.yul\":1679:1682   */\n  0x00\n    /* \"#utility.yul\":1700:1705   */\n  dup2\n    /* \"#utility.yul\":1693:1705   */\n  swap1\n  pop\n    /* \"#utility.yul\":1651:1711   */\n  swap2\n  swap1\n  pop\n  jump\t// out\n    /* \"#utility.yul\":1717:1859   */\ntag_15:\n    /* \"#utility.yul\":1767:1776   */\n  0x00\n    /* \"#utility.yul\":1800:1853   */\n  tag_42\n    /* \"#utility.yul\":1818:1852   */\n  tag_43\n    /* \"#utility.yul\":1827:1851   */\n  tag_44\n    /* \"#utility.yul\":1845:1850   */\n  dup5\n    /* \"#utility.yul\":1827:1851   */\n  tag_13\n  jump\t// in\ntag_44:\n    /* \"#utility.yul\":1818:1852   */\n  tag_14\n  jump\t// in\ntag_43:\n    /* \"#utility.yul\":1800:1853   */\n  tag_13\n  jump\t// in\ntag_42:\n    /* \"#utility.yul\":1787:1853   */\n  swap1\n  pop\n    /* \"#utility.yul\":1717:1859   */\n  swap2\n  swap1\n  pop\n  jump\t// out\n    /* \"#utility.yul\":1865:1940   */\ntag_16:\n    /* \"#utility.yul\":1908:1911   */\n  0x00\n    /* \"#utility.yul\":1929:1934   */\n  dup2\n    /* \"#utility.yul\":1922:1934   */\n  swap1\n  pop\n    /* \"#utility.yul\":1865:1940   */\n  swap2\n  swap1\n  pop\n  jump\t// out\n    /* \"#utility.yul\":1946:2215   */\ntag_17:\n    /* \"#utility.yul\":2056:2095   */\n  tag_47\n    /* \"#utility.yul\":2087:2094   */\n  dup4\n    /* \"#utility.yul\":2056:2095   */\n  tag_15\n  jump\t// in\ntag_47:\n    /* \"#utility.yul\":2117:2208   */\n  tag_48\n    /* \"#utility.yul\":2166:2207   */\n  tag_49\n    /* \"#utility.yul\":2190:2206   */\n  dup3\n    /* \"#utility.yul\":2166:2207   */\n  tag_16\n  jump\t// in\ntag_49:\n    /* \"#utility.yul\":2158:2164   */\n  dup5\n    /* \"#utility.yul\":2151:2155   */\n  dup5\n    /* \"#utility.yul\":2145:2156   */\n  sload\n    /* \"#utility.yul\":2117:2208   */\n  tag_12\n  jump\t// in\ntag_48:\n    /* \"#utility.yul\":2111:2115   */\n  dup3\n    /* \"#utility.yul\":2104:2209   */\n  sstore\n    /* \"#utility.yul\":2022:2215   */\n  pop\n    /* \"#utility.yul\":1946:2215   */\n  pop\n  pop\n  pop\n  jump\t// out\n    /* \"#utility.yul\":2221:2294   */\ntag_18:\n    /* \"#utility.yul\":2266:2269   */\n  0x00\n    /* \"#utility.yul\":2221:2294   */\n  swap1\n  jump\t// out\n    /* \"#utility.yul\":2300:2489   */\ntag_19:\n    /* \"#utility.yul\":2377:2409   */\n  tag_52\n  tag_18\n  jump\t// in\ntag_52:\n    /* \"#utility.yul\":2418:2483   */\n  tag_53\n    /* \"#utility.yul\":2476:2482   */\n  dup2\n    /* \"#utility.yul\":2468:2474   */\n  dup5\n    /* \"#utility.yul\":2462:2466   */\n  dup5\n    /* \"#utility.yul\":2418:2483   */\n  tag_17\n  jump\t// in\ntag_53:\n    /* \"#utility.yul\":2353:2489   */\n  pop\n    /* \"#utility.yul\":2300:2489   */\n  pop\n  pop\n  jump\t// out\n    /* \"#utility.yul\":2495:2681   */\ntag_20:\n    /* \"#utility.yul\":2555:2675   */\ntag_55:\n    /* \"#utility.yul\":2572:2575   */\n  dup2\n    /* \"#utility.yul\":2565:2570   */\n  dup2\n    /* \"#utility.yul\":2562:2576   */\n  lt\n    /* \"#utility.yul\":2555:2675   */\n  iszero\n  tag_57\n  jumpi\n    /* \"#utility.yul\":2626:2665   */\n  tag_58\n    /* \"#utility.yul\":2663:2664   */\n  0x00\n    /* \"#utility.yul\":2656:2661   */\n  dup3\n    /* \"#utility.yul\":2626:2665   */\n  tag_19\n  jump\t// in\ntag_58:\n    /* \"#utility.yul\":2599:2600   */\n  0x01\n    /* \"#utility.yul\":2592:2597   */\n  dup2\n    /* \"#utility.yul\":2588:2601   */\n  add\n    /* \"#utility.yul\":2579:2601   */\n  swap1\n  pop\n    /* \"#utility.yul\":2555:2675   */\n  jump(tag_55)\ntag_57:\n    /* \"#utility.yul\":2495:2681   */\n  pop\n  pop\n  jump\t// out\n    /* \"#utility.yul\":2687:3230   */\ntag_21:\n    /* \"#utility.yul\":2788:2790   */\n  0x1f\n    /* \"#utility.yul\":2783:2786   */\n  dup3\n    /* \"#utility.yul\":2780:2791   */\n  gt\n    /* \"#utility.yul\":2777:3223   */\n  iszero\n  tag_60\n  jumpi\n    /* \"#utility.yul\":2822:2860   */\n  tag_61\n    /* \"#utility.yul\":2854:2859   */\n  dup2\n    /* \"#utility.yul\":2822:2860   */\n  tag_9\n  jump\t// in\ntag_61:\n    /* \"#utility.yul\":2906:2935   */\n  tag_62\n    /* \"#utility.yul\":2924:2934   */\n  dup5\n    /* \"#utility.yul\":2906:2935   */\n  tag_10\n  jump\t// in\ntag_62:\n    /* \"#utility.yul\":2896:2904   */\n  dup2\n    /* \"#utility.yul\":2892:2936   */\n  add\n    /* \"#utility.yul\":3089:3091   */\n  0x20\n    /* \"#utility.yul\":3077:3087   */\n  dup6\n    /* \"#utility.yul\":3074:3092   */\n  lt\n    /* \"#utility.yul\":3071:3120   */\n  iszero\n  tag_63\n  jumpi\n    /* \"#utility.yul\":3110:3118   */\n  dup2\n    /* \"#utility.yul\":3095:3118   */\n  swap1\n  pop\n    /* \"#utility.yul\":3071:3120   */\ntag_63:\n    /* \"#utility.yul\":3133:3213   */\n  tag_64\n    /* \"#utility.yul\":3189:3211   */\n  tag_65\n    /* \"#utility.yul\":3207:3210   */\n  dup6\n    /* \"#utility.yul\":3189:3211   */\n  tag_10\n  jump\t// in\ntag_65:\n    /* \"#utility.yul\":3179:3187   */\n  dup4\n    /* \"#utility.yul\":3175:3212   */\n  add\n    /* \"#utility.yul\":3162:3173   */\n  dup3\n    /* \"#utility.yul\":3133:3213   */\n  tag_20\n  jump\t// in\ntag_64:\n    /* \"#utility.yul\":2792:3223   */\n  pop\n  pop\n    /* \"#utility.yul\":2777:3223   */\ntag_60:\n    /* \"#utility.yul\":2687:3230   */\n  pop\n  pop\n  pop\n  jump\t// out\n    /* \"#utility.yul\":3236:3353   */\ntag_22:\n    /* \"#utility.yul\":3290:3298   */\n  0x00\n    /* \"#utility.yul\":3340:3345   */\n  dup3\n    /* \"#utility.yul\":3334:3338   */\n  dup3\n    /* \"#utility.yul\":3330:3346   */\n  shr\n    /* \"#utility.yul\":3309:3346   */\n  swap1\n  pop\n    /* \"#utility.yul\":3236:3353   */\n  swap3\n  swap2\n  pop\n  pop\n  jump\t// out\n    /* \"#utility.yul\":3359:3528   */\ntag_23:\n    /* \"#utility.yul\":3403:3409   */\n  0x00\n    /* \"#utility.yul\":3436:3487   */\n  tag_68\n    /* \"#utility.yul\":3484:3485   */\n  0x00\n    /* \"#utility.yul\":3480:3486   */\n  not\n    /* \"#utility.yul\":3472:3477   */\n  dup5\n    /* \"#utility.yul\":3469:3470   */\n  0x08\n    /* \"#utility.yul\":3465:3478   */\n  mul\n    /* \"#utility.yul\":3436:3487   */\n  tag_22\n  jump\t// in\ntag_68:\n    /* \"#utility.yul\":3432:3488   */\n  not\n    /* \"#utility.yul\":3517:3521   */\n  dup1\n    /* \"#utility.yul\":3511:3515   */\n  dup4\n    /* \"#utility.yul\":3507:3522   */\n  and\n    /* \"#utility.yul\":3497:3522   */\n  swap2\n  pop\n    /* \"#utility.yul\":3410:3528   */\n  pop\n    /* \"#utility.yul\":3359:3528   */\n  swap3\n  swap2\n  pop\n  pop\n  jump\t// out\n    /* \"#utility.yul\":3533:3828   */\ntag_24:\n    /* \"#utility.yul\":3609:3613   */\n  0x00\n    /* \"#utility.yul\":3755:3784   */\n  tag_70\n    /* \"#utility.yul\":3780:3783   */\n  dup4\n    /* \"#utility.yul\":3774:3778   */\n  dup4\n    /* \"#utility.yul\":3755:3784   */\n  tag_23\n  jump\t// in\ntag_70:\n    /* \"#utility.yul\":3747:3784   */\n  swap2\n  pop\n    /* \"#utility.yul\":3817:3820   */\n  dup3\n    /* \"#utility.yul\":3814:3815   */\n  0x02\n    /* \"#utility.yul\":3810:3821   */\n  mul\n    /* \"#utility.yul\":3804:3808   */\n  dup3\n    /* \"#utility.yul\":3801:3822   */\n  or\n    /* \"#utility.yul\":3793:3822   */\n  swap1\n  pop\n    /* \"#utility.yul\":3533:3828   */\n  swap3\n  swap2\n  pop\n  pop\n  jump\t// out\n    /* \"#utility.yul\":3833:5228   */\ntag_2:\n    /* \"#utility.yul\":3950:3987   */\n  tag_72\n    /* \"#utility.yul\":3983:3986   */\n  dup3\n    /* \"#utility.yul\":3950:3987   */\n  tag_5\n  jump\t// in\ntag_72:\n    /* \"#utility.yul\":4052:4070   */\n  0xffffffffffffffff\n    /* \"#utility.yul\":4044:4050   */\n  dup2\n    /* \"#utility.yul\":4041:4071   */\n  gt\n    /* \"#utility.yul\":4038:4094   */\n  iszero\n  tag_73\n  jumpi\n    /* \"#utility.yul\":4074:4092   */\n  tag_74\n  tag_6\n  jump\t// in\ntag_74:\n    /* \"#utility.yul\":4038:4094   */\ntag_73:\n    /* \"#utility.yul\":4118:4156   */\n  tag_75\n    /* \"#utility.yul\":4150:4154   */\n  dup3\n    /* \"#utility.yul\":4144:4155   */\n  sload\n    /* \"#utility.yul\":4118:4156   */\n  tag_8\n  jump\t// in\ntag_75:\n    /* \"#utility.yul\":4203:4270   */\n  tag_76\n    /* \"#utility.yul\":4263:4269   */\n  dup3\n    /* \"#utility.yul\":4255:4261   */\n  dup3\n    /* \"#utility.yul\":4249:4253   */\n  dup6\n    /* \"#utility.yul\":4203:4270   */\n  tag_21\n  jump\t// in\ntag_76:\n    /* \"#utility.yul\":4297:4298   */\n  0x00\n    /* \"#utility.yul\":4321:4325   */\n  0x20\n    /* \"#utility.yul\":4308:4325   */\n  swap1\n  pop\n    /* \"#utility.yul\":4353:4355   */\n  0x1f\n    /* \"#utility.yul\":4345:4351   */\n  dup4\n    /* \"#utility.yul\":4342:4356   */\n  gt\n    /* \"#utility.yul\":4370:4371   */\n  0x01\n    /* \"#utility.yul\":4365:4983   */\n  dup2\n  eq\n  tag_78\n  jumpi\n    /* \"#utility.yul\":5027:5028   */\n  0x00\n    /* \"#utility.yul\":5044:5050   */\n  dup5\n    /* \"#utility.yul\":5041:5118   */\n  iszero\n  tag_79\n  jumpi\n    /* \"#utility.yul\":5093:5102   */\n  dup3\n    /* \"#utility.yul\":5088:5091   */\n  dup8\n    /* \"#utility.yul\":5084:5103   */\n  add\n    /* \"#utility.yul\":5078:5104   */\n  mload\n    /* \"#utility.yul\":5069:5104   */\n  swap1\n  pop\n    /* \"#utility.yul\":5041:5118   */\ntag_79:\n    /* \"#utility.yul\":5144:5211   */\n  tag_80\n    /* \"#utility.yul\":5204:5210   */\n  dup6\n    /* \"#utility.yul\":5197:5202   */\n  dup3\n    /* \"#utility.yul\":5144:5211   */\n  tag_24\n  jump\t// in\ntag_80:\n    /* \"#utility.yul\":5138:5142   */\n  dup7\n    /* \"#utility.yul\":5131:5212   */\n  sstore\n    /* \"#utility.yul\":5000:5222   */\n  pop\n    /* \"#utility.yul\":4335:5222   */\n  jump(tag_77)\n    /* \"#utility.yul\":4365:4983   */\ntag_78:\n    /* \"#utility.yul\":4417:4421   */\n  0x1f\n    /* \"#utility.yul\":4413:4422   */\n  not\n    /* \"#utility.yul\":4405:4411   */\n  dup5\n    /* \"#utility.yul\":4401:4423   */\n  and\n    /* \"#utility.yul\":4451:4488   */\n  tag_81\n    /* \"#utility.yul\":4483:4487   */\n  dup7\n    /* \"#utility.yul\":4451:4488   */\n  tag_9\n  jump\t// in\ntag_81:\n    /* \"#utility.yul\":4510:4511   */\n  0x00\n    /* \"#utility.yul\":4524:4732   */\ntag_82:\n    /* \"#utility.yul\":4538:4545   */\n  dup3\n    /* \"#utility.yul\":4535:4536   */\n  dup2\n    /* \"#utility.yul\":4532:4546   */\n  lt\n    /* \"#utility.yul\":4524:4732   */\n  iszero\n  tag_84\n  jumpi\n    /* \"#utility.yul\":4617:4626   */\n  dup5\n    /* \"#utility.yul\":4612:4615   */\n  dup10\n    /* \"#utility.yul\":4608:4627   */\n  add\n    /* \"#utility.yul\":4602:4628   */\n  mload\n    /* \"#utility.yul\":4594:4600   */\n  dup3\n    /* \"#utility.yul\":4587:4629   */\n  sstore\n    /* \"#utility.yul\":4668:4669   */\n  0x01\n    /* \"#utility.yul\":4660:4666   */\n  dup3\n    /* \"#utility.yul\":4656:4670   */\n  add\n    /* \"#utility.yul\":4646:4670   */\n  swap2\n  pop\n    /* \"#utility.yul\":4715:4717   */\n  0x20\n    /* \"#utility.yul\":4704:4713   */\n  dup6\n    /* \"#utility.yul\":4700:4718   */\n  add\n    /* \"#utility.yul\":4687:4718   */\n  swap5\n  pop\n    /* \"#utility.yul\":4561:4565   */\n  0x20\n    /* \"#utility.yul\":4558:4559   */\n  dup2\n    /* \"#utility.yul\":4554:4566   */\n  add\n    /* \"#utility.yul\":4549:4566   */\n  swap1\n  pop\n    /* \"#utility.yul\":4524:4732   */\n  jump(tag_82)\ntag_84:\n    /* \"#utility.yul\":4760:4766   */\n  dup7\n    /* \"#utility.yul\":4751:4758   */\n  dup4\n    /* \"#utility.yul\":4748:4767   */\n  lt\n    /* \"#utility.yul\":4745:4924   */\n  iszero\n  tag_85\n  jumpi\n    /* \"#utility.yul\":4818:4827   */\n  dup5\n    /* \"#utility.yul\":4813:4816   */\n  dup10\n    /* \"#utility.yul\":4809:4828   */\n  add\n    /* \"#utility.yul\":4803:4829   */\n  mload\n    /* \"#utility.yul\":4861:4909   */\n  tag_86\n    /* \"#utility.yul\":4903:4907   */\n  0x1f\n    /* \"#utility.yul\":4895:4901   */\n  dup10\n    /* \"#utility.yul\":4891:4908   */\n  and\n    /* \"#utility.yul\":4880:4889   */\n  dup3\n    /* \"#utility.yul\":4861:4909   */\n  tag_23\n  jump\t// in\ntag_86:\n    /* \"#utility.yul\":4853:4859   */\n  dup4\n    /* \"#utility.yul\":4846:4910   */\n  sstore\n    /* \"#utility.yul\":4768:4924   */\n  pop\n    /* \"#utility.yul\":4745:4924   */\ntag_85:\n    /* \"#utility.yul\":4970:4971   */\n  0x01\n    /* \"#utility.yul\":4966:4967   */\n  0x02\n    /* \"#utility.yul\":4958:4964   */\n  dup9\n    /* \"#utility.yul\":4954:4968   */\n  mul\n    /* \"#utility.yul\":4950:4972   */\n  add\n    /* \"#utility.yul\":4944:4948   */\n  dup9\n    /* \"#utility.yul\":4937:4973   */\n  sstore\n    /* \"#utility.yul\":4372:4983   */\n  pop\n  pop\n  pop\n    /* \"#utility.yul\":4335:5222   */\ntag_77:\n  pop\n    /* \"#utility.yul\":3925:5228   */\n  pop\n  pop\n  pop\n    /* \"#utility.yul\":3833:5228   */\n  pop\n  pop\n  jump\t// out\n    /* \"smartContract_eliseu_v1.sol\":58:5436  contract SmartPayConstruction {... */\ntag_4:\n  dataSize(sub_0)\n  dup1\n  dataOffset(sub_0)\n  0x00\n  codecopy\n  0x00\n  return\nstop\n\nsub_0: assembly {\n        /* \"smartContract_eliseu_v1.sol\":58:5436  contract SmartPayConstruction {... */\n      mstore(0x40, 0x80)\n      callvalue\n      dup1\n      iszero\n      tag_1\n      jumpi\n      0x00\n      dup1\n      revert\n    tag_1:\n      pop\n      jumpi(tag_2, lt(calldatasize, 0x04))\n      shr(0xe0, calldataload(0x00))\n      dup1\n      0x91c9b268\n      gt\n      tag_18\n      jumpi\n      dup1\n      0xcbe737b3\n      gt\n      tag_19\n      jumpi\n      dup1\n      0xcbe737b3\n      eq\n      tag_14\n      jumpi\n      dup1\n      0xce89e021\n      eq\n      tag_15\n      jumpi\n      dup1\n      0xe4a8f18b\n      eq\n      tag_16\n      jumpi\n      dup1\n      0xf5c4b73e\n      eq\n      tag_17\n      jumpi\n      jump(tag_2)\n    tag_19:\n      dup1\n      0x91c9b268\n      eq\n      tag_10\n      jumpi\n      dup1\n      0x93dc12e6\n      eq\n      tag_11\n      jumpi\n      dup1\n      0x99e76d35\n      eq\n      tag_12\n      jumpi\n      dup1\n      0xbed34bba\n      eq\n      tag_13\n      jumpi\n      jump(tag_2)\n    tag_18:\n      dup1\n      0x48c35ad4\n      gt\n      tag_20\n      jumpi\n      dup1\n      0x48c35ad4\n      eq\n      tag_6\n      jumpi\n      dup1\n      0x4ac64766\n      eq\n      tag_7\n      jumpi\n      dup1\n      0x5f8439e3\n      eq\n      tag_8\n      jumpi\n      dup1\n      0x8abb10c6\n      eq\n      tag_9\n      jumpi\n      jump(tag_2)\n    tag_20:\n      dup1\n      0x089cd025\n      eq\n      tag_3\n      jumpi\n      dup1\n      0x221c51bb\n      eq\n      tag_4\n      jumpi\n      dup1\n      0x292ee7c9\n      eq\n      tag_5\n      jumpi\n    tag_2:\n      0x00\n      dup1\n      revert\n        /* \"smartContract_eliseu_v1.sol\":4400:4491  function processPendingPayments(uint256 projectId, uint256 stageId)... */\n    tag_3:\n      tag_21\n      0x04\n      dup1\n      calldatasize\n      sub\n      dup2\n      add\n      swap1\n      tag_22\n      swap2\n      swap1\n      tag_23\n      jump\t// in\n    tag_22:\n      tag_24\n      jump\t// in\n    tag_21:\n      stop\n        /* \"smartContract_eliseu_v1.sol\":2318:3148  function createProject(... */\n    tag_4:\n      tag_25\n      0x04\n      dup1\n      calldatasize\n      sub\n      dup2\n      add\n      swap1\n      tag_26\n      swap2\n      swap1\n      tag_27\n      jump\t// in\n    tag_26:\n      tag_28\n      jump\t// in\n    tag_25:\n      stop\n        /* \"smartContract_eliseu_v1.sol\":3836:3987  function addStage(... */\n    tag_5:\n      tag_29\n      0x04\n      dup1\n      calldatasize\n      sub\n      dup2\n      add\n      swap1\n      tag_30\n      swap2\n      swap1\n      tag_31\n      jump\t// in\n    tag_30:\n      tag_32\n      jump\t// in\n    tag_29:\n      stop\n        /* \"smartContract_eliseu_v1.sol\":1924:1950  string[] public projectIds */\n    tag_6:\n      tag_33\n      0x04\n      dup1\n      calldatasize\n      sub\n      dup2\n      add\n      swap1\n      tag_34\n      swap2\n      swap1\n      tag_35\n      jump\t// in\n    tag_34:\n      tag_36\n      jump\t// in\n    tag_33:\n      mload(0x40)\n      tag_37\n      swap2\n      swap1\n      tag_38\n      jump\t// in\n    tag_37:\n      mload(0x40)\n      dup1\n      swap2\n      sub\n      swap1\n      return\n        /* \"smartContract_eliseu_v1.sol\":5225:5327  function getAllProjectIds() external view returns (string[] memory) {... */\n    tag_7:\n      tag_39\n      tag_40\n      jump\t// in\n    tag_39:\n      mload(0x40)\n      tag_41\n      swap2\n      swap1\n      tag_42\n      jump\t// in\n    tag_41:\n      mload(0x40)\n      dup1\n      swap2\n      sub\n      swap1\n      return\n        /* \"smartContract_eliseu_v1.sol\":4555:4853  function getProjectDetails(uint256 projectId)... */\n    tag_8:\n      tag_43\n      0x04\n      dup1\n      calldatasize\n      sub\n      dup2\n      add\n      swap1\n      tag_44\n      swap2\n      swap1\n      tag_35\n      jump\t// in\n    tag_44:\n      tag_45\n      jump\t// in\n    tag_43:\n      mload(0x40)\n      tag_46\n      swap9\n      swap8\n      swap7\n      swap6\n      swap5\n      swap4\n      swap3\n      swap2\n      swap1\n      tag_47\n      jump\t// in\n    tag_46:\n      mload(0x40)\n      dup1\n      swap2\n      sub\n      swap1\n      return\n        /* \"smartContract_eliseu_v1.sol\":4859:5219  function getProjectWithStages(uint256 projectId)... */\n    tag_9:\n      tag_48\n      0x04\n      dup1\n      calldatasize\n      sub\n      dup2\n      add\n      swap1\n      tag_49\n      swap2\n      swap1\n      tag_35\n      jump\t// in\n    tag_49:\n      tag_50\n      jump\t// in\n    tag_48:\n      mload(0x40)\n      tag_51\n      swap11\n      swap10\n      swap9\n      swap8\n      swap7\n      swap6\n      swap5\n      swap4\n      swap3\n      swap2\n      swap1\n      tag_52\n      jump\t// in\n    tag_51:\n      mload(0x40)\n      dup1\n      swap2\n      sub\n      swap1\n      return\n        /* \"smartContract_eliseu_v1.sol\":1876:1918  mapping(string => Project) public projects */\n    tag_10:\n      tag_53\n      0x04\n      dup1\n      calldatasize\n      sub\n      dup2\n      add\n      swap1\n      tag_54\n      swap2\n      swap1\n      tag_55\n      jump\t// in\n    tag_54:\n      tag_56\n      jump\t// in\n    tag_53:\n      mload(0x40)\n      tag_57\n      swap11\n      swap10\n      swap9\n      swap8\n      swap7\n      swap6\n      swap5\n      swap4\n      swap3\n      swap2\n      swap1\n      tag_58\n      jump\t// in\n    tag_57:\n      mload(0x40)\n      dup1\n      swap2\n      sub\n      swap1\n      return\n        /* \"smartContract_eliseu_v1.sol\":4497:4549  function closeProject(uint256 projectId) external {} */\n    tag_11:\n      tag_59\n      0x04\n      dup1\n      calldatasize\n      sub\n      dup2\n      add\n      swap1\n      tag_60\n      swap2\n      swap1\n      tag_35\n      jump\t// in\n    tag_60:\n      tag_61\n      jump\t// in\n    tag_59:\n      stop\n        /* \"smartContract_eliseu_v1.sol\":94:127  string public agencyId = \"agency\" */\n    tag_12:\n      tag_62\n      tag_63\n      jump\t// in\n    tag_62:\n      mload(0x40)\n      tag_64\n      swap2\n      swap1\n      tag_38\n      jump\t// in\n    tag_64:\n      mload(0x40)\n      dup1\n      swap2\n      sub\n      swap1\n      return\n        /* \"smartContract_eliseu_v1.sol\":3993:4194  function compareStrings(string memory a, string memory b)... */\n    tag_13:\n      tag_65\n      0x04\n      dup1\n      calldatasize\n      sub\n      dup2\n      add\n      swap1\n      tag_66\n      swap2\n      swap1\n      tag_67\n      jump\t// in\n    tag_66:\n      tag_68\n      jump\t// in\n    tag_65:\n      mload(0x40)\n      tag_69\n      swap2\n      swap1\n      tag_70\n      jump\t// in\n    tag_69:\n      mload(0x40)\n      dup1\n      swap2\n      sub\n      swap1\n      return\n        /* \"smartContract_eliseu_v1.sol\":3154:3687  function getStageById(string memory projectId, string memory stageId)... */\n    tag_14:\n      tag_71\n      0x04\n      dup1\n      calldatasize\n      sub\n      dup2\n      add\n      swap1\n      tag_72\n      swap2\n      swap1\n      tag_67\n      jump\t// in\n    tag_72:\n      tag_73\n      jump\t// in\n    tag_71:\n      mload(0x40)\n      tag_74\n      swap3\n      swap2\n      swap1\n      tag_75\n      jump\t// in\n    tag_74:\n      mload(0x40)\n      dup1\n      swap2\n      sub\n      swap1\n      return\n        /* \"smartContract_eliseu_v1.sol\":3693:3830  function getStagesCount(string memory projectId) external view returns(uint256) {... */\n    tag_15:\n      tag_76\n      0x04\n      dup1\n      calldatasize\n      sub\n      dup2\n      add\n      swap1\n      tag_77\n      swap2\n      swap1\n      tag_55\n      jump\t// in\n    tag_77:\n      tag_78\n      jump\t// in\n    tag_76:\n      mload(0x40)\n      tag_79\n      swap2\n      swap1\n      tag_80\n      jump\t// in\n    tag_79:\n      mload(0x40)\n      dup1\n      swap2\n      sub\n      swap1\n      return\n        /* \"smartContract_eliseu_v1.sol\":5333:5434  function getProjectsCount() external view returns (uint256) {... */\n    tag_16:\n      tag_81\n      tag_82\n      jump\t// in\n    tag_81:\n      mload(0x40)\n      tag_83\n      swap2\n      swap1\n      tag_80\n      jump\t// in\n    tag_83:\n      mload(0x40)\n      dup1\n      swap2\n      sub\n      swap1\n      return\n        /* \"smartContract_eliseu_v1.sol\":4200:4394  function validateStage(... */\n    tag_17:\n      tag_84\n      0x04\n      dup1\n      calldatasize\n      sub\n      dup2\n      add\n      swap1\n      tag_85\n      swap2\n      swap1\n      tag_86\n      jump\t// in\n    tag_85:\n      tag_87\n      jump\t// in\n    tag_84:\n      stop\n        /* \"smartContract_eliseu_v1.sol\":4400:4491  function processPendingPayments(uint256 projectId, uint256 stageId)... */\n    tag_24:\n      pop\n      pop\n      jump\t// out\n        /* \"smartContract_eliseu_v1.sol\":2318:3148  function createProject(... */\n    tag_28:\n        /* \"smartContract_eliseu_v1.sol\":2621:2638  Project storage p */\n      0x00\n        /* \"smartContract_eliseu_v1.sol\":2641:2649  projects */\n      0x01\n        /* \"smartContract_eliseu_v1.sol\":2650:2661  _project_id */\n      dup10\n        /* \"smartContract_eliseu_v1.sol\":2641:2662  projects[_project_id] */\n      mload(0x40)\n      tag_90\n      swap2\n      swap1\n      tag_91\n      jump\t// in\n    tag_90:\n      swap1\n      dup2\n      mstore\n      0x20\n      add\n      mload(0x40)\n      dup1\n      swap2\n      sub\n      swap1\n      keccak256\n        /* \"smartContract_eliseu_v1.sol\":2621:2662  Project storage p = projects[_project_id] */\n      swap1\n      pop\n        /* \"smartContract_eliseu_v1.sol\":2681:2686  _name */\n      dup8\n        /* \"smartContract_eliseu_v1.sol\":2672:2673  p */\n      dup2\n        /* \"smartContract_eliseu_v1.sol\":2672:2678  p.name */\n      0x01\n      add\n        /* \"smartContract_eliseu_v1.sol\":2672:2686  p.name = _name */\n      swap1\n      dup2\n      tag_92\n      swap2\n      swap1\n      tag_93\n      jump\t// in\n    tag_92:\n      pop\n        /* \"smartContract_eliseu_v1.sol\":2712:2724  _description */\n      dup7\n        /* \"smartContract_eliseu_v1.sol\":2696:2697  p */\n      dup2\n        /* \"smartContract_eliseu_v1.sol\":2696:2709  p.description */\n      0x02\n      add\n        /* \"smartContract_eliseu_v1.sol\":2696:2724  p.description = _description */\n      swap1\n      dup2\n      tag_94\n      swap2\n      swap1\n      tag_93\n      jump\t// in\n    tag_94:\n      pop\n        /* \"smartContract_eliseu_v1.sol\":2749:2760  _project_id */\n      dup9\n        /* \"smartContract_eliseu_v1.sol\":2734:2735  p */\n      dup2\n        /* \"smartContract_eliseu_v1.sol\":2734:2746  p.project_id */\n      0x00\n      add\n        /* \"smartContract_eliseu_v1.sol\":2734:2760  p.project_id = _project_id */\n      swap1\n      dup2\n      tag_95\n      swap2\n      swap1\n      tag_93\n      jump\t// in\n    tag_95:\n      pop\n        /* \"smartContract_eliseu_v1.sol\":2784:2794  _client_id */\n      dup6\n        /* \"smartContract_eliseu_v1.sol\":2770:2771  p */\n      dup2\n        /* \"smartContract_eliseu_v1.sol\":2770:2781  p.client_id */\n      0x03\n      add\n        /* \"smartContract_eliseu_v1.sol\":2770:2794  p.client_id = _client_id */\n      swap1\n      dup2\n      tag_96\n      swap2\n      swap1\n      tag_93\n      jump\t// in\n    tag_96:\n      pop\n        /* \"smartContract_eliseu_v1.sol\":2819:2830  _contractor */\n      dup5\n        /* \"smartContract_eliseu_v1.sol\":2804:2805  p */\n      dup2\n        /* \"smartContract_eliseu_v1.sol\":2804:2816  p.contractor */\n      0x04\n      add\n        /* \"smartContract_eliseu_v1.sol\":2804:2830  p.contractor = _contractor */\n      swap1\n      dup2\n      tag_97\n      swap2\n      swap1\n      tag_93\n      jump\t// in\n    tag_97:\n      pop\n        /* \"smartContract_eliseu_v1.sol\":2857:2872  block.timestamp */\n      timestamp\n        /* \"smartContract_eliseu_v1.sol\":2840:2841  p */\n      dup2\n        /* \"smartContract_eliseu_v1.sol\":2840:2854  p.creationDate */\n      0x05\n      add\n        /* \"smartContract_eliseu_v1.sol\":2840:2872  p.creationDate = block.timestamp */\n      dup2\n      swap1\n      sstore\n      pop\n        /* \"smartContract_eliseu_v1.sol\":2896:2906  _startDate */\n      dup4\n        /* \"smartContract_eliseu_v1.sol\":2882:2883  p */\n      dup2\n        /* \"smartContract_eliseu_v1.sol\":2882:2893  p.startDate */\n      0x06\n      add\n        /* \"smartContract_eliseu_v1.sol\":2882:2906  p.startDate = _startDate */\n      dup2\n      swap1\n      sstore\n      pop\n        /* \"smartContract_eliseu_v1.sol\":2928:2936  _endDate */\n      dup3\n        /* \"smartContract_eliseu_v1.sol\":2916:2917  p */\n      dup2\n        /* \"smartContract_eliseu_v1.sol\":2916:2925  p.endDate */\n      0x07\n      add\n        /* \"smartContract_eliseu_v1.sol\":2916:2936  p.endDate = _endDate */\n      dup2\n      swap1\n      sstore\n      pop\n        /* \"smartContract_eliseu_v1.sol\":2957:2962  false */\n      0x00\n        /* \"smartContract_eliseu_v1.sol\":2946:2947  p */\n      dup2\n        /* \"smartContract_eliseu_v1.sol\":2946:2954  p.closed */\n      0x09\n      add\n      0x00\n        /* \"smartContract_eliseu_v1.sol\":2946:2962  p.closed = false */\n      0x0100\n      exp\n      dup2\n      sload\n      dup2\n      0xff\n      mul\n      not\n      and\n      swap1\n      dup4\n      iszero\n      iszero\n      mul\n      or\n      swap1\n      sstore\n      pop\n        /* \"smartContract_eliseu_v1.sol\":2997:2998  0 */\n      0x00\n        /* \"smartContract_eliseu_v1.sol\":2972:2973  p */\n      dup2\n        /* \"smartContract_eliseu_v1.sol\":2972:2994  p.actualCompletionDate */\n      0x08\n      add\n        /* \"smartContract_eliseu_v1.sol\":2972:2998  p.actualCompletionDate = 0 */\n      dup2\n      swap1\n      sstore\n      pop\n        /* \"smartContract_eliseu_v1.sol\":3008:3018  projectIds */\n      0x02\n        /* \"smartContract_eliseu_v1.sol\":3024:3035  _project_id */\n      dup10\n        /* \"smartContract_eliseu_v1.sol\":3008:3036  projectIds.push(_project_id) */\n      swap1\n      dup1\n      0x01\n      dup2\n      sload\n      add\n      dup1\n      dup3\n      sstore\n      dup1\n      swap2\n      pop\n      pop\n      0x01\n      swap1\n      sub\n      swap1\n      0x00\n      mstore\n      keccak256(0x00, 0x20)\n      add\n      0x00\n      swap1\n      swap2\n      swap1\n      swap2\n      swap1\n      swap2\n      pop\n      swap1\n      dup2\n      tag_99\n      swap2\n      swap1\n      tag_93\n      jump\t// in\n    tag_99:\n      pop\n        /* \"smartContract_eliseu_v1.sol\":3052:3061  uint256 i */\n      0x00\n        /* \"smartContract_eliseu_v1.sol\":3047:3142  for (uint256 i = 0; i < _stages.length; i++) {... */\n    tag_100:\n        /* \"smartContract_eliseu_v1.sol\":3071:3078  _stages */\n      dup3\n        /* \"smartContract_eliseu_v1.sol\":3071:3085  _stages.length */\n      mload\n        /* \"smartContract_eliseu_v1.sol\":3067:3068  i */\n      dup2\n        /* \"smartContract_eliseu_v1.sol\":3067:3085  i < _stages.length */\n      lt\n        /* \"smartContract_eliseu_v1.sol\":3047:3142  for (uint256 i = 0; i < _stages.length; i++) {... */\n      iszero\n      tag_101\n      jumpi\n        /* \"smartContract_eliseu_v1.sol\":3106:3107  p */\n      dup2\n        /* \"smartContract_eliseu_v1.sol\":3106:3114  p.stages */\n      0x0a\n      add\n        /* \"smartContract_eliseu_v1.sol\":3120:3127  _stages */\n      dup4\n        /* \"smartContract_eliseu_v1.sol\":3128:3129  i */\n      dup3\n        /* \"smartContract_eliseu_v1.sol\":3120:3130  _stages[i] */\n      dup2\n      mload\n      dup2\n      lt\n      tag_103\n      jumpi\n      tag_104\n      tag_105\n      jump\t// in\n    tag_104:\n    tag_103:\n      0x20\n      mul\n      0x20\n      add\n      add\n      mload\n        /* \"smartContract_eliseu_v1.sol\":3106:3131  p.stages.push(_stages[i]) */\n      swap1\n      dup1\n      0x01\n      dup2\n      sload\n      add\n      dup1\n      dup3\n      sstore\n      dup1\n      swap2\n      pop\n      pop\n      0x01\n      swap1\n      sub\n      swap1\n      0x00\n      mstore\n      keccak256(0x00, 0x20)\n      swap1\n      0x0a\n      mul\n      add\n      0x00\n      swap1\n      swap2\n      swap1\n      swap2\n      swap1\n      swap2\n      pop\n      0x00\n      dup3\n      add\n      mload\n      dup2\n      0x00\n      add\n      swap1\n      dup2\n      tag_107\n      swap2\n      swap1\n      tag_93\n      jump\t// in\n    tag_107:\n      pop\n      0x20\n      dup3\n      add\n      mload\n      dup2\n      0x01\n      add\n      swap1\n      dup2\n      tag_108\n      swap2\n      swap1\n      tag_93\n      jump\t// in\n    tag_108:\n      pop\n      0x40\n      dup3\n      add\n      mload\n      dup2\n      0x02\n      add\n      swap1\n      dup2\n      tag_109\n      swap2\n      swap1\n      tag_93\n      jump\t// in\n    tag_109:\n      pop\n      0x60\n      dup3\n      add\n      mload\n      dup2\n      0x03\n      add\n      swap1\n      dup2\n      tag_110\n      swap2\n      swap1\n      tag_93\n      jump\t// in\n    tag_110:\n      pop\n      0x80\n      dup3\n      add\n      mload\n      dup2\n      0x04\n      add\n      sstore\n      0xa0\n      dup3\n      add\n      mload\n      dup2\n      0x05\n      add\n      swap1\n      dup1\n      mload\n      swap1\n      0x20\n      add\n      swap1\n      tag_111\n      swap3\n      swap2\n      swap1\n      tag_112\n      jump\t// in\n    tag_111:\n      pop\n      0xc0\n      dup3\n      add\n      mload\n      dup2\n      0x06\n      add\n      swap1\n      dup1\n      mload\n      swap1\n      0x20\n      add\n      swap1\n      tag_113\n      swap3\n      swap2\n      swap1\n      tag_112\n      jump\t// in\n    tag_113:\n      pop\n      0xe0\n      dup3\n      add\n      mload\n      dup2\n      0x07\n      add\n      sstore\n      0x0100\n      dup3\n      add\n      mload\n      dup2\n      0x08\n      add\n      sstore\n      0x0120\n      dup3\n      add\n      mload\n      dup2\n      0x09\n      add\n      exp(0x0100, 0x00)\n      dup2\n      sload\n      dup2\n      0xff\n      mul\n      not\n      and\n      swap1\n      dup4\n      iszero\n      iszero\n      mul\n      or\n      swap1\n      sstore\n      pop\n      pop\n      pop\n        /* \"smartContract_eliseu_v1.sol\":3087:3090  i++ */\n      dup1\n      dup1\n      tag_114\n      swap1\n      tag_115\n      jump\t// in\n    tag_114:\n      swap2\n      pop\n      pop\n        /* \"smartContract_eliseu_v1.sol\":3047:3142  for (uint256 i = 0; i < _stages.length; i++) {... */\n      jump(tag_100)\n    tag_101:\n      pop\n        /* \"smartContract_eliseu_v1.sol\":2611:3148  {... */\n      pop\n        /* \"smartContract_eliseu_v1.sol\":2318:3148  function createProject(... */\n      pop\n      pop\n      pop\n      pop\n      pop\n      pop\n      pop\n      pop\n      jump\t// out\n        /* \"smartContract_eliseu_v1.sol\":3836:3987  function addStage(... */\n    tag_32:\n        /* \"smartContract_eliseu_v1.sol\":3941:3949  projects */\n      0x01\n        /* \"smartContract_eliseu_v1.sol\":3950:3959  projectId */\n      dup3\n        /* \"smartContract_eliseu_v1.sol\":3941:3960  projects[projectId] */\n      mload(0x40)\n      tag_117\n      swap2\n      swap1\n      tag_91\n      jump\t// in\n    tag_117:\n      swap1\n      dup2\n      mstore\n      0x20\n      add\n      mload(0x40)\n      dup1\n      swap2\n      sub\n      swap1\n      keccak256\n        /* \"smartContract_eliseu_v1.sol\":3941:3967  projects[projectId].stages */\n      0x0a\n      add\n        /* \"smartContract_eliseu_v1.sol\":3973:3979  _stage */\n      dup2\n        /* \"smartContract_eliseu_v1.sol\":3941:3980  projects[projectId].stages.push(_stage) */\n      swap1\n      dup1\n      0x01\n      dup2\n      sload\n      add\n      dup1\n      dup3\n      sstore\n      dup1\n      swap2\n      pop\n      pop\n      0x01\n      swap1\n      sub\n      swap1\n      0x00\n      mstore\n      keccak256(0x00, 0x20)\n      swap1\n      0x0a\n      mul\n      add\n      0x00\n      swap1\n      swap2\n      swap1\n      swap2\n      swap1\n      swap2\n      pop\n      0x00\n      dup3\n      add\n      mload\n      dup2\n      0x00\n      add\n      swap1\n      dup2\n      tag_119\n      swap2\n      swap1\n      tag_93\n      jump\t// in\n    tag_119:\n      pop\n      0x20\n      dup3\n      add\n      mload\n      dup2\n      0x01\n      add\n      swap1\n      dup2\n      tag_120\n      swap2\n      swap1\n      tag_93\n      jump\t// in\n    tag_120:\n      pop\n      0x40\n      dup3\n      add\n      mload\n      dup2\n      0x02\n      add\n      swap1\n      dup2\n      tag_121\n      swap2\n      swap1\n      tag_93\n      jump\t// in\n    tag_121:\n      pop\n      0x60\n      dup3\n      add\n      mload\n      dup2\n      0x03\n      add\n      swap1\n      dup2\n      tag_122\n      swap2\n      swap1\n      tag_93\n      jump\t// in\n    tag_122:\n      pop\n      0x80\n      dup3\n      add\n      mload\n      dup2\n      0x04\n      add\n      sstore\n      0xa0\n      dup3\n      add\n      mload\n      dup2\n      0x05\n      add\n      swap1\n      dup1\n      mload\n      swap1\n      0x20\n      add\n      swap1\n      tag_123\n      swap3\n      swap2\n      swap1\n      tag_112\n      jump\t// in\n    tag_123:\n      pop\n      0xc0\n      dup3\n      add\n      mload\n      dup2\n      0x06\n      add\n      swap1\n      dup1\n      mload\n      swap1\n      0x20\n      add\n      swap1\n      tag_124\n      swap3\n      swap2\n      swap1\n      tag_112\n      jump\t// in\n    tag_124:\n      pop\n      0xe0\n      dup3\n      add\n      mload\n      dup2\n      0x07\n      add\n      sstore\n      0x0100\n      dup3\n      add\n      mload\n      dup2\n      0x08\n      add\n      sstore\n      0x0120\n      dup3\n      add\n      mload\n      dup2\n      0x09\n      add\n      exp(0x0100, 0x00)\n      dup2\n      sload\n      dup2\n      0xff\n      mul\n      not\n      and\n      swap1\n      dup4\n      iszero\n      iszero\n      mul\n      or\n      swap1\n      sstore\n      pop\n      pop\n      pop\n        /* \"smartContract_eliseu_v1.sol\":3836:3987  function addStage(... */\n      pop\n      pop\n      jump\t// out\n        /* \"smartContract_eliseu_v1.sol\":1924:1950  string[] public projectIds */\n    tag_36:\n      0x02\n      dup2\n      dup2\n      sload\n      dup2\n      lt\n      tag_125\n      jumpi\n      0x00\n      dup1\n      revert\n    tag_125:\n      swap1\n      0x00\n      mstore\n      keccak256(0x00, 0x20)\n      add\n      0x00\n      swap2\n      pop\n      swap1\n      pop\n      dup1\n      sload\n      tag_127\n      swap1\n      tag_128\n      jump\t// in\n    tag_127:\n      dup1\n      0x1f\n      add\n      0x20\n      dup1\n      swap2\n      div\n      mul\n      0x20\n      add\n      mload(0x40)\n      swap1\n      dup2\n      add\n      0x40\n      mstore\n      dup1\n      swap3\n      swap2\n      swap1\n      dup2\n      dup2\n      mstore\n      0x20\n      add\n      dup3\n      dup1\n      sload\n      tag_129\n      swap1\n      tag_128\n      jump\t// in\n    tag_129:\n      dup1\n      iszero\n      tag_130\n      jumpi\n      dup1\n      0x1f\n      lt\n      tag_131\n      jumpi\n      0x0100\n      dup1\n      dup4\n      sload\n      div\n      mul\n      dup4\n      mstore\n      swap2\n      0x20\n      add\n      swap2\n      jump(tag_130)\n    tag_131:\n      dup3\n      add\n      swap2\n      swap1\n      0x00\n      mstore\n      keccak256(0x00, 0x20)\n      swap1\n    tag_132:\n      dup2\n      sload\n      dup2\n      mstore\n      swap1\n      0x01\n      add\n      swap1\n      0x20\n      add\n      dup1\n      dup4\n      gt\n      tag_132\n      jumpi\n      dup3\n      swap1\n      sub\n      0x1f\n      and\n      dup3\n      add\n      swap2\n    tag_130:\n      pop\n      pop\n      pop\n      pop\n      pop\n      dup2\n      jump\t// out\n        /* \"smartContract_eliseu_v1.sol\":5225:5327  function getAllProjectIds() external view returns (string[] memory) {... */\n    tag_40:\n        /* \"smartContract_eliseu_v1.sol\":5276:5291  string[] memory */\n      0x60\n        /* \"smartContract_eliseu_v1.sol\":5310:5320  projectIds */\n      0x02\n        /* \"smartContract_eliseu_v1.sol\":5303:5320  return projectIds */\n      dup1\n      sload\n      dup1\n      0x20\n      mul\n      0x20\n      add\n      mload(0x40)\n      swap1\n      dup2\n      add\n      0x40\n      mstore\n      dup1\n      swap3\n      swap2\n      swap1\n      dup2\n      dup2\n      mstore\n      0x20\n      add\n      0x00\n      swap1\n    tag_134:\n      dup3\n      dup3\n      lt\n      iszero\n      tag_135\n      jumpi\n      dup4\n      dup3\n      swap1\n      0x00\n      mstore\n      keccak256(0x00, 0x20)\n      add\n      dup1\n      sload\n      tag_137\n      swap1\n      tag_128\n      jump\t// in\n    tag_137:\n      dup1\n      0x1f\n      add\n      0x20\n      dup1\n      swap2\n      div\n      mul\n      0x20\n      add\n      mload(0x40)\n      swap1\n      dup2\n      add\n      0x40\n      mstore\n      dup1\n      swap3\n      swap2\n      swap1\n      dup2\n      dup2\n      mstore\n      0x20\n      add\n      dup3\n      dup1\n      sload\n      tag_138\n      swap1\n      tag_128\n      jump\t// in\n    tag_138:\n      dup1\n      iszero\n      tag_139\n      jumpi\n      dup1\n      0x1f\n      lt\n      tag_140\n      jumpi\n      0x0100\n      dup1\n      dup4\n      sload\n      div\n      mul\n      dup4\n      mstore\n      swap2\n      0x20\n      add\n      swap2\n      jump(tag_139)\n    tag_140:\n      dup3\n      add\n      swap2\n      swap1\n      0x00\n      mstore\n      keccak256(0x00, 0x20)\n      swap1\n    tag_141:\n      dup2\n      sload\n      dup2\n      mstore\n      swap1\n      0x01\n      add\n      swap1\n      0x20\n      add\n      dup1\n      dup4\n      gt\n      tag_141\n      jumpi\n      dup3\n      swap1\n      sub\n      0x1f\n      and\n      dup3\n      add\n      swap2\n    tag_139:\n      pop\n      pop\n      pop\n      pop\n      pop\n      dup2\n      mstore\n      0x20\n      add\n      swap1\n      0x01\n      add\n      swap1\n      jump(tag_134)\n    tag_135:\n      pop\n      pop\n      pop\n      pop\n      swap1\n      pop\n        /* \"smartContract_eliseu_v1.sol\":5225:5327  function getAllProjectIds() external view returns (string[] memory) {... */\n      swap1\n      jump\t// out\n        /* \"smartContract_eliseu_v1.sol\":4555:4853  function getProjectDetails(uint256 projectId)... */\n    tag_45:\n        /* \"smartContract_eliseu_v1.sol\":4661:4674  string memory */\n      0x60\n        /* \"smartContract_eliseu_v1.sol\":4688:4701  string memory */\n      dup1\n        /* \"smartContract_eliseu_v1.sol\":4715:4728  string memory */\n      0x60\n        /* \"smartContract_eliseu_v1.sol\":4742:4755  string memory */\n      dup1\n        /* \"smartContract_eliseu_v1.sol\":4769:4776  uint256 */\n      0x00\n        /* \"smartContract_eliseu_v1.sol\":4790:4797  uint256 */\n      dup1\n        /* \"smartContract_eliseu_v1.sol\":4811:4818  uint256 */\n      0x00\n        /* \"smartContract_eliseu_v1.sol\":4832:4836  bool */\n      dup1\n        /* \"smartContract_eliseu_v1.sol\":4555:4853  function getProjectDetails(uint256 projectId)... */\n      swap2\n      swap4\n      swap6\n      swap8\n      pop\n      swap2\n      swap4\n      swap6\n      swap8\n      jump\t// out\n        /* \"smartContract_eliseu_v1.sol\":4859:5219  function getProjectWithStages(uint256 projectId)... */\n    tag_50:\n        /* \"smartContract_eliseu_v1.sol\":4968:4981  string memory */\n      0x60\n        /* \"smartContract_eliseu_v1.sol\":4995:5008  string memory */\n      dup1\n        /* \"smartContract_eliseu_v1.sol\":5022:5035  string memory */\n      0x60\n        /* \"smartContract_eliseu_v1.sol\":5049:5062  string memory */\n      dup1\n        /* \"smartContract_eliseu_v1.sol\":5076:5083  uint256 */\n      0x00\n        /* \"smartContract_eliseu_v1.sol\":5097:5104  uint256 */\n      dup1\n        /* \"smartContract_eliseu_v1.sol\":5118:5125  uint256 */\n      0x00\n        /* \"smartContract_eliseu_v1.sol\":5139:5143  bool */\n      dup1\n        /* \"smartContract_eliseu_v1.sol\":5157:5173  uint256[] memory */\n      0x60\n        /* \"smartContract_eliseu_v1.sol\":5187:5202  string[] memory */\n      dup1\n        /* \"smartContract_eliseu_v1.sol\":4859:5219  function getProjectWithStages(uint256 projectId)... */\n      swap2\n      swap4\n      swap6\n      swap8\n      swap10\n      pop\n      swap2\n      swap4\n      swap6\n      swap8\n      swap10\n      jump\t// out\n        /* \"smartContract_eliseu_v1.sol\":1876:1918  mapping(string => Project) public projects */\n    tag_56:\n      0x01\n      dup2\n      dup1\n      mload\n      0x20\n      dup2\n      add\n      dup3\n      add\n      dup1\n      mload\n      dup5\n      dup3\n      mstore\n      0x20\n      dup4\n      add\n      0x20\n      dup6\n      add\n      keccak256\n      dup2\n      dup4\n      mstore\n      dup1\n      swap6\n      pop\n      pop\n      pop\n      pop\n      pop\n      pop\n      0x00\n      swap2\n      pop\n      swap1\n      pop\n      dup1\n      0x00\n      add\n      dup1\n      sload\n      tag_144\n      swap1\n      tag_128\n      jump\t// in\n    tag_144:\n      dup1\n      0x1f\n      add\n      0x20\n      dup1\n      swap2\n      div\n      mul\n      0x20\n      add\n      mload(0x40)\n      swap1\n      dup2\n      add\n      0x40\n      mstore\n      dup1\n      swap3\n      swap2\n      swap1\n      dup2\n      dup2\n      mstore\n      0x20\n      add\n      dup3\n      dup1\n      sload\n      tag_145\n      swap1\n      tag_128\n      jump\t// in\n    tag_145:\n      dup1\n      iszero\n      tag_146\n      jumpi\n      dup1\n      0x1f\n      lt\n      tag_147\n      jumpi\n      0x0100\n      dup1\n      dup4\n      sload\n      div\n      mul\n      dup4\n      mstore\n      swap2\n      0x20\n      add\n      swap2\n      jump(tag_146)\n    tag_147:\n      dup3\n      add\n      swap2\n      swap1\n      0x00\n      mstore\n      keccak256(0x00, 0x20)\n      swap1\n    tag_148:\n      dup2\n      sload\n      dup2\n      mstore\n      swap1\n      0x01\n      add\n      swap1\n      0x20\n      add\n      dup1\n      dup4\n      gt\n      tag_148\n      jumpi\n      dup3\n      swap1\n      sub\n      0x1f\n      and\n      dup3\n      add\n      swap2\n    tag_146:\n      pop\n      pop\n      pop\n      pop\n      pop\n      swap1\n      dup1\n      0x01\n      add\n      dup1\n      sload\n      tag_149\n      swap1\n      tag_128\n      jump\t// in\n    tag_149:\n      dup1\n      0x1f\n      add\n      0x20\n      dup1\n      swap2\n      div\n      mul\n      0x20\n      add\n      mload(0x40)\n      swap1\n      dup2\n      add\n      0x40\n      mstore\n      dup1\n      swap3\n      swap2\n      swap1\n      dup2\n      dup2\n      mstore\n      0x20\n      add\n      dup3\n      dup1\n      sload\n      tag_150\n      swap1\n      tag_128\n      jump\t// in\n    tag_150:\n      dup1\n      iszero\n      tag_151\n      jumpi\n      dup1\n      0x1f\n      lt\n      tag_152\n      jumpi\n      0x0100\n      dup1\n      dup4\n      sload\n      div\n      mul\n      dup4\n      mstore\n      swap2\n      0x20\n      add\n      swap2\n      jump(tag_151)\n    tag_152:\n      dup3\n      add\n      swap2\n      swap1\n      0x00\n      mstore\n      keccak256(0x00, 0x20)\n      swap1\n    tag_153:\n      dup2\n      sload\n      dup2\n      mstore\n      swap1\n      0x01\n      add\n      swap1\n      0x20\n      add\n      dup1\n      dup4\n      gt\n      tag_153\n      jumpi\n      dup3\n      swap1\n      sub\n      0x1f\n      and\n      dup3\n      add\n      swap2\n    tag_151:\n      pop\n      pop\n      pop\n      pop\n      pop\n      swap1\n      dup1\n      0x02\n      add\n      dup1\n      sload\n      tag_154\n      swap1\n      tag_128\n      jump\t// in\n    tag_154:\n      dup1\n      0x1f\n      add\n      0x20\n      dup1\n      swap2\n      div\n      mul\n      0x20\n      add\n      mload(0x40)\n      swap1\n      dup2\n      add\n      0x40\n      mstore\n      dup1\n      swap3\n      swap2\n      swap1\n      dup2\n      dup2\n      mstore\n      0x20\n      add\n      dup3\n      dup1\n      sload\n      tag_155\n      swap1\n      tag_128\n      jump\t// in\n    tag_155:\n      dup1\n      iszero\n      tag_156\n      jumpi\n      dup1\n      0x1f\n      lt\n      tag_157\n      jumpi\n      0x0100\n      dup1\n      dup4\n      sload\n      div\n      mul\n      dup4\n      mstore\n      swap2\n      0x20\n      add\n      swap2\n      jump(tag_156)\n    tag_157:\n      dup3\n      add\n      swap2\n      swap1\n      0x00\n      mstore\n      keccak256(0x00, 0x20)\n      swap1\n    tag_158:\n      dup2\n      sload\n      dup2\n      mstore\n      swap1\n      0x01\n      add\n      swap1\n      0x20\n      add\n      dup1\n      dup4\n      gt\n      tag_158\n      jumpi\n      dup3\n      swap1\n      sub\n      0x1f\n      and\n      dup3\n      add\n      swap2\n    tag_156:\n      pop\n      pop\n      pop\n      pop\n      pop\n      swap1\n      dup1\n      0x03\n      add\n      dup1\n      sload\n      tag_159\n      swap1\n      tag_128\n      jump\t// in\n    tag_159:\n      dup1\n      0x1f\n      add\n      0x20\n      dup1\n      swap2\n      div\n      mul\n      0x20\n      add\n      mload(0x40)\n      swap1\n      dup2\n      add\n      0x40\n      mstore\n      dup1\n      swap3\n      swap2\n      swap1\n      dup2\n      dup2\n      mstore\n      0x20\n      add\n      dup3\n      dup1\n      sload\n      tag_160\n      swap1\n      tag_128\n      jump\t// in\n    tag_160:\n      dup1\n      iszero\n      tag_161\n      jumpi\n      dup1\n      0x1f\n      lt\n      tag_162\n      jumpi\n      0x0100\n      dup1\n      dup4\n      sload\n      div\n      mul\n      dup4\n      mstore\n      swap2\n      0x20\n      add\n      swap2\n      jump(tag_161)\n    tag_162:\n      dup3\n      add\n      swap2\n      swap1\n      0x00\n      mstore\n      keccak256(0x00, 0x20)\n      swap1\n    tag_163:\n      dup2\n      sload\n      dup2\n      mstore\n      swap1\n      0x01\n      add\n      swap1\n      0x20\n      add\n      dup1\n      dup4\n      gt\n      tag_163\n      jumpi\n      dup3\n      swap1\n      sub\n      0x1f\n      and\n      dup3\n      add\n      swap2\n    tag_161:\n      pop\n      pop\n      pop\n      pop\n      pop\n      swap1\n      dup1\n      0x04\n      add\n      dup1\n      sload\n      tag_164\n      swap1\n      tag_128\n      jump\t// in\n    tag_164:\n      dup1\n      0x1f\n      add\n      0x20\n      dup1\n      swap2\n      div\n      mul\n      0x20\n      add\n      mload(0x40)\n      swap1\n      dup2\n      add\n      0x40\n      mstore\n      dup1\n      swap3\n      swap2\n      swap1\n      dup2\n      dup2\n      mstore\n      0x20\n      add\n      dup3\n      dup1\n      sload\n      tag_165\n      swap1\n      tag_128\n      jump\t// in\n    tag_165:\n      dup1\n      iszero\n      tag_166\n      jumpi\n      dup1\n      0x1f\n      lt\n      tag_167\n      jumpi\n      0x0100\n      dup1\n      dup4\n      sload\n      div\n      mul\n      dup4\n      mstore\n      swap2\n      0x20\n      add\n      swap2\n      jump(tag_166)\n    tag_167:\n      dup3\n      add\n      swap2\n      swap1\n      0x00\n      mstore\n      keccak256(0x00, 0x20)\n      swap1\n    tag_168:\n      dup2\n      sload\n      dup2\n      mstore\n      swap1\n      0x01\n      add\n      swap1\n      0x20\n      add\n      dup1\n      dup4\n      gt\n      tag_168\n      jumpi\n      dup3\n      swap1\n      sub\n      0x1f\n      and\n      dup3\n      add\n      swap2\n    tag_166:\n      pop\n      pop\n      pop\n      pop\n      pop\n      swap1\n      dup1\n      0x05\n      add\n      sload\n      swap1\n      dup1\n      0x06\n      add\n      sload\n      swap1\n      dup1\n      0x07\n      add\n      sload\n      swap1\n      dup1\n      0x08\n      add\n      sload\n      swap1\n      dup1\n      0x09\n      add\n      0x00\n      swap1\n      sload\n      swap1\n      0x0100\n      exp\n      swap1\n      div\n      0xff\n      and\n      swap1\n      pop\n      dup11\n      jump\t// out\n        /* \"smartContract_eliseu_v1.sol\":4497:4549  function closeProject(uint256 projectId) external {} */\n    tag_61:\n      pop\n      jump\t// out\n        /* \"smartContract_eliseu_v1.sol\":94:127  string public agencyId = \"agency\" */\n    tag_63:\n      0x00\n      dup1\n      sload\n      tag_170\n      swap1\n      tag_128\n      jump\t// in\n    tag_170:\n      dup1\n      0x1f\n      add\n      0x20\n      dup1\n      swap2\n      div\n      mul\n      0x20\n      add\n      mload(0x40)\n      swap1\n      dup2\n      add\n      0x40\n      mstore\n      dup1\n      swap3\n      swap2\n      swap1\n      dup2\n      dup2\n      mstore\n      0x20\n      add\n      dup3\n      dup1\n      sload\n      tag_171\n      swap1\n      tag_128\n      jump\t// in\n    tag_171:\n      dup1\n      iszero\n      tag_172\n      jumpi\n      dup1\n      0x1f\n      lt\n      tag_173\n      jumpi\n      0x0100\n      dup1\n      dup4\n      sload\n      div\n      mul\n      dup4\n      mstore\n      swap2\n      0x20\n      add\n      swap2\n      jump(tag_172)\n    tag_173:\n      dup3\n      add\n      swap2\n      swap1\n      0x00\n      mstore\n      keccak256(0x00, 0x20)\n      swap1\n    tag_174:\n      dup2\n      sload\n      dup2\n      mstore\n      swap1\n      0x01\n      add\n      swap1\n      0x20\n      add\n      dup1\n      dup4\n      gt\n      tag_174\n      jumpi\n      dup3\n      swap1\n      sub\n      0x1f\n      and\n      dup3\n      add\n      swap2\n    tag_172:\n      pop\n      pop\n      pop\n      pop\n      pop\n      dup2\n      jump\t// out\n        /* \"smartContract_eliseu_v1.sol\":3993:4194  function compareStrings(string memory a, string memory b)... */\n    tag_68:\n        /* \"smartContract_eliseu_v1.sol\":4096:4100  bool */\n      0x00\n        /* \"smartContract_eliseu_v1.sol\":4184:4185  b */\n      dup2\n        /* \"smartContract_eliseu_v1.sol\":4167:4186  abi.encodePacked(b) */\n      add(0x20, mload(0x40))\n      tag_176\n      swap2\n      swap1\n      tag_91\n      jump\t// in\n    tag_176:\n      mload(0x40)\n      0x20\n      dup2\n      dup4\n      sub\n      sub\n      dup2\n      mstore\n      swap1\n      0x40\n      mstore\n        /* \"smartContract_eliseu_v1.sol\":4157:4187  keccak256(abi.encodePacked(b)) */\n      dup1\n      mload\n      swap1\n      0x20\n      add\n      keccak256\n        /* \"smartContract_eliseu_v1.sol\":4150:4151  a */\n      dup4\n        /* \"smartContract_eliseu_v1.sol\":4133:4152  abi.encodePacked(a) */\n      add(0x20, mload(0x40))\n      tag_177\n      swap2\n      swap1\n      tag_91\n      jump\t// in\n    tag_177:\n      mload(0x40)\n      0x20\n      dup2\n      dup4\n      sub\n      sub\n      dup2\n      mstore\n      swap1\n      0x40\n      mstore\n        /* \"smartContract_eliseu_v1.sol\":4123:4153  keccak256(abi.encodePacked(a)) */\n      dup1\n      mload\n      swap1\n      0x20\n      add\n      keccak256\n        /* \"smartContract_eliseu_v1.sol\":4123:4187  keccak256(abi.encodePacked(a)) == keccak256(abi.encodePacked(b)) */\n      eq\n        /* \"smartContract_eliseu_v1.sol\":4116:4187  return keccak256(abi.encodePacked(a)) == keccak256(abi.encodePacked(b)) */\n      swap1\n      pop\n        /* \"smartContract_eliseu_v1.sol\":3993:4194  function compareStrings(string memory a, string memory b)... */\n      swap3\n      swap2\n      pop\n      pop\n      jump\t// out\n        /* \"smartContract_eliseu_v1.sol\":3154:3687  function getStageById(string memory projectId, string memory stageId)... */\n    tag_73:\n        /* \"smartContract_eliseu_v1.sol\":3269:3283  Stage memory s */\n      tag_178\n      tag_179\n      jump\t// in\n    tag_178:\n        /* \"smartContract_eliseu_v1.sol\":3285:3295  bool found */\n      0x00\n        /* \"smartContract_eliseu_v1.sol\":3311:3341  Project memory selectedProject */\n      dup1\n        /* \"smartContract_eliseu_v1.sol\":3344:3352  projects */\n      0x01\n        /* \"smartContract_eliseu_v1.sol\":3353:3362  projectId */\n      dup6\n        /* \"smartContract_eliseu_v1.sol\":3344:3363  projects[projectId] */\n      mload(0x40)\n      tag_181\n      swap2\n      swap1\n      tag_91\n      jump\t// in\n    tag_181:\n      swap1\n      dup2\n      mstore\n      0x20\n      add\n      mload(0x40)\n      dup1\n      swap2\n      sub\n      swap1\n      keccak256\n        /* \"smartContract_eliseu_v1.sol\":3311:3363  Project memory selectedProject = projects[projectId] */\n      mload(0x40)\n      dup1\n      0x0160\n      add\n      0x40\n      mstore\n      swap1\n      dup2\n      0x00\n      dup3\n      add\n      dup1\n      sload\n      tag_182\n      swap1\n      tag_128\n      jump\t// in\n    tag_182:\n      dup1\n      0x1f\n      add\n      0x20\n      dup1\n      swap2\n      div\n      mul\n      0x20\n      add\n      mload(0x40)\n      swap1\n      dup2\n      add\n      0x40\n      mstore\n      dup1\n      swap3\n      swap2\n      swap1\n      dup2\n      dup2\n      mstore\n      0x20\n      add\n      dup3\n      dup1\n      sload\n      tag_183\n      swap1\n      tag_128\n      jump\t// in\n    tag_183:\n      dup1\n      iszero\n      tag_184\n      jumpi\n      dup1\n      0x1f\n      lt\n      tag_185\n      jumpi\n      0x0100\n      dup1\n      dup4\n      sload\n      div\n      mul\n      dup4\n      mstore\n      swap2\n      0x20\n      add\n      swap2\n      jump(tag_184)\n    tag_185:\n      dup3\n      add\n      swap2\n      swap1\n      0x00\n      mstore\n      keccak256(0x00, 0x20)\n      swap1\n    tag_186:\n      dup2\n      sload\n      dup2\n      mstore\n      swap1\n      0x01\n      add\n      swap1\n      0x20\n      add\n      dup1\n      dup4\n      gt\n      tag_186\n      jumpi\n      dup3\n      swap1\n      sub\n      0x1f\n      and\n      dup3\n      add\n      swap2\n    tag_184:\n      pop\n      pop\n      pop\n      pop\n      pop\n      dup2\n      mstore\n      0x20\n      add\n      0x01\n      dup3\n      add\n      dup1\n      sload\n      tag_187\n      swap1\n      tag_128\n      jump\t// in\n    tag_187:\n      dup1\n      0x1f\n      add\n      0x20\n      dup1\n      swap2\n      div\n      mul\n      0x20\n      add\n      mload(0x40)\n      swap1\n      dup2\n      add\n      0x40\n      mstore\n      dup1\n      swap3\n      swap2\n      swap1\n      dup2\n      dup2\n      mstore\n      0x20\n      add\n      dup3\n      dup1\n      sload\n      tag_188\n      swap1\n      tag_128\n      jump\t// in\n    tag_188:\n      dup1\n      iszero\n      tag_189\n      jumpi\n      dup1\n      0x1f\n      lt\n      tag_190\n      jumpi\n      0x0100\n      dup1\n      dup4\n      sload\n      div\n      mul\n      dup4\n      mstore\n      swap2\n      0x20\n      add\n      swap2\n      jump(tag_189)\n    tag_190:\n      dup3\n      add\n      swap2\n      swap1\n      0x00\n      mstore\n      keccak256(0x00, 0x20)\n      swap1\n    tag_191:\n      dup2\n      sload\n      dup2\n      mstore\n      swap1\n      0x01\n      add\n      swap1\n      0x20\n      add\n      dup1\n      dup4\n      gt\n      tag_191\n      jumpi\n      dup3\n      swap1\n      sub\n      0x1f\n      and\n      dup3\n      add\n      swap2\n    tag_189:\n      pop\n      pop\n      pop\n      pop\n      pop\n      dup2\n      mstore\n      0x20\n      add\n      0x02\n      dup3\n      add\n      dup1\n      sload\n      tag_192\n      swap1\n      tag_128\n      jump\t// in\n    tag_192:\n      dup1\n      0x1f\n      add\n      0x20\n      dup1\n      swap2\n      div\n      mul\n      0x20\n      add\n      mload(0x40)\n      swap1\n      dup2\n      add\n      0x40\n      mstore\n      dup1\n      swap3\n      swap2\n      swap1\n      dup2\n      dup2\n      mstore\n      0x20\n      add\n      dup3\n      dup1\n      sload\n      tag_193\n      swap1\n      tag_128\n      jump\t// in\n    tag_193:\n      dup1\n      iszero\n      tag_194\n      jumpi\n      dup1\n      0x1f\n      lt\n      tag_195\n      jumpi\n      0x0100\n      dup1\n      dup4\n      sload\n      div\n      mul\n      dup4\n      mstore\n      swap2\n      0x20\n      add\n      swap2\n      jump(tag_194)\n    tag_195:\n      dup3\n      add\n      swap2\n      swap1\n      0x00\n      mstore\n      keccak256(0x00, 0x20)\n      swap1\n    tag_196:\n      dup2\n      sload\n      dup2\n      mstore\n      swap1\n      0x01\n      add\n      swap1\n      0x20\n      add\n      dup1\n      dup4\n      gt\n      tag_196\n      jumpi\n      dup3\n      swap1\n      sub\n      0x1f\n      and\n      dup3\n      add\n      swap2\n    tag_194:\n      pop\n      pop\n      pop\n      pop\n      pop\n      dup2\n      mstore\n      0x20\n      add\n      0x03\n      dup3\n      add\n      dup1\n      sload\n      tag_197\n      swap1\n      tag_128\n      jump\t// in\n    tag_197:\n      dup1\n      0x1f\n      add\n      0x20\n      dup1\n      swap2\n      div\n      mul\n      0x20\n      add\n      mload(0x40)\n      swap1\n      dup2\n      add\n      0x40\n      mstore\n      dup1\n      swap3\n      swap2\n      swap1\n      dup2\n      dup2\n      mstore\n      0x20\n      add\n      dup3\n      dup1\n      sload\n      tag_198\n      swap1\n      tag_128\n      jump\t// in\n    tag_198:\n      dup1\n      iszero\n      tag_199\n      jumpi\n      dup1\n      0x1f\n      lt\n      tag_200\n      jumpi\n      0x0100\n      dup1\n      dup4\n      sload\n      div\n      mul\n      dup4\n      mstore\n      swap2\n      0x20\n      add\n      swap2\n      jump(tag_199)\n    tag_200:\n      dup3\n      add\n      swap2\n      swap1\n      0x00\n      mstore\n      keccak256(0x00, 0x20)\n      swap1\n    tag_201:\n      dup2\n      sload\n      dup2\n      mstore\n      swap1\n      0x01\n      add\n      swap1\n      0x20\n      add\n      dup1\n      dup4\n      gt\n      tag_201\n      jumpi\n      dup3\n      swap1\n      sub\n      0x1f\n      and\n      dup3\n      add\n      swap2\n    tag_199:\n      pop\n      pop\n      pop\n      pop\n      pop\n      dup2\n      mstore\n      0x20\n      add\n      0x04\n      dup3\n      add\n      dup1\n      sload\n      tag_202\n      swap1\n      tag_128\n      jump\t// in\n    tag_202:\n      dup1\n      0x1f\n      add\n      0x20\n      dup1\n      swap2\n      div\n      mul\n      0x20\n      add\n      mload(0x40)\n      swap1\n      dup2\n      add\n      0x40\n      mstore\n      dup1\n      swap3\n      swap2\n      swap1\n      dup2\n      dup2\n      mstore\n      0x20\n      add\n      dup3\n      dup1\n      sload\n      tag_203\n      swap1\n      tag_128\n      jump\t// in\n    tag_203:\n      dup1\n      iszero\n      tag_204\n      jumpi\n      dup1\n      0x1f\n      lt\n      tag_205\n      jumpi\n      0x0100\n      dup1\n      dup4\n      sload\n      div\n      mul\n      dup4\n      mstore\n      swap2\n      0x20\n      add\n      swap2\n      jump(tag_204)\n    tag_205:\n      dup3\n      add\n      swap2\n      swap1\n      0x00\n      mstore\n      keccak256(0x00, 0x20)\n      swap1\n    tag_206:\n      dup2\n      sload\n      dup2\n      mstore\n      swap1\n      0x01\n      add\n      swap1\n      0x20\n      add\n      dup1\n      dup4\n      gt\n      tag_206\n      jumpi\n      dup3\n      swap1\n      sub\n      0x1f\n      and\n      dup3\n      add\n      swap2\n    tag_204:\n      pop\n      pop\n      pop\n      pop\n      pop\n      dup2\n      mstore\n      0x20\n      add\n      0x05\n      dup3\n      add\n      sload\n      dup2\n      mstore\n      0x20\n      add\n      0x06\n      dup3\n      add\n      sload\n      dup2\n      mstore\n      0x20\n      add\n      0x07\n      dup3\n      add\n      sload\n      dup2\n      mstore\n      0x20\n      add\n      0x08\n      dup3\n      add\n      sload\n      dup2\n      mstore\n      0x20\n      add\n      0x09\n      dup3\n      add\n      0x00\n      swap1\n      sload\n      swap1\n      0x0100\n      exp\n      swap1\n      div\n      0xff\n      and\n      iszero\n      iszero\n      iszero\n      iszero\n      dup2\n      mstore\n      0x20\n      add\n      0x0a\n      dup3\n      add\n      dup1\n      sload\n      dup1\n      0x20\n      mul\n      0x20\n      add\n      mload(0x40)\n      swap1\n      dup2\n      add\n      0x40\n      mstore\n      dup1\n      swap3\n      swap2\n      swap1\n      dup2\n      dup2\n      mstore\n      0x20\n      add\n      0x00\n      swap1\n    tag_207:\n      dup3\n      dup3\n      lt\n      iszero\n      tag_208\n      jumpi\n      dup4\n      dup3\n      swap1\n      0x00\n      mstore\n      keccak256(0x00, 0x20)\n      swap1\n      0x0a\n      mul\n      add\n      mload(0x40)\n      dup1\n      0x0140\n      add\n      0x40\n      mstore\n      swap1\n      dup2\n      0x00\n      dup3\n      add\n      dup1\n      sload\n      tag_210\n      swap1\n      tag_128\n      jump\t// in\n    tag_210:\n      dup1\n      0x1f\n      add\n      0x20\n      dup1\n      swap2\n      div\n      mul\n      0x20\n      add\n      mload(0x40)\n      swap1\n      dup2\n      add\n      0x40\n      mstore\n      dup1\n      swap3\n      swap2\n      swap1\n      dup2\n      dup2\n      mstore\n      0x20\n      add\n      dup3\n      dup1\n      sload\n      tag_211\n      swap1\n      tag_128\n      jump\t// in\n    tag_211:\n      dup1\n      iszero\n      tag_212\n      jumpi\n      dup1\n      0x1f\n      lt\n      tag_213\n      jumpi\n      0x0100\n      dup1\n      dup4\n      sload\n      div\n      mul\n      dup4\n      mstore\n      swap2\n      0x20\n      add\n      swap2\n      jump(tag_212)\n    tag_213:\n      dup3\n      add\n      swap2\n      swap1\n      0x00\n      mstore\n      keccak256(0x00, 0x20)\n      swap1\n    tag_214:\n      dup2\n      sload\n      dup2\n      mstore\n      swap1\n      0x01\n      add\n      swap1\n      0x20\n      add\n      dup1\n      dup4\n      gt\n      tag_214\n      jumpi\n      dup3\n      swap1\n      sub\n      0x1f\n      and\n      dup3\n      add\n      swap2\n    tag_212:\n      pop\n      pop\n      pop\n      pop\n      pop\n      dup2\n      mstore\n      0x20\n      add\n      0x01\n      dup3\n      add\n      dup1\n      sload\n      tag_215\n      swap1\n      tag_128\n      jump\t// in\n    tag_215:\n      dup1\n      0x1f\n      add\n      0x20\n      dup1\n      swap2\n      div\n      mul\n      0x20\n      add\n      mload(0x40)\n      swap1\n      dup2\n      add\n      0x40\n      mstore\n      dup1\n      swap3\n      swap2\n      swap1\n      dup2\n      dup2\n      mstore\n      0x20\n      add\n      dup3\n      dup1\n      sload\n      tag_216\n      swap1\n      tag_128\n      jump\t// in\n    tag_216:\n      dup1\n      iszero\n      tag_217\n      jumpi\n      dup1\n      0x1f\n      lt\n      tag_218\n      jumpi\n      0x0100\n      dup1\n      dup4\n      sload\n      div\n      mul\n      dup4\n      mstore\n      swap2\n      0x20\n      add\n      swap2\n      jump(tag_217)\n    tag_218:\n      dup3\n      add\n      swap2\n      swap1\n      0x00\n      mstore\n      keccak256(0x00, 0x20)\n      swap1\n    tag_219:\n      dup2\n      sload\n      dup2\n      mstore\n      swap1\n      0x01\n      add\n      swap1\n      0x20\n      add\n      dup1\n      dup4\n      gt\n      tag_219\n      jumpi\n      dup3\n      swap1\n      sub\n      0x1f\n      and\n      dup3\n      add\n      swap2\n    tag_217:\n      pop\n      pop\n      pop\n      pop\n      pop\n      dup2\n      mstore\n      0x20\n      add\n      0x02\n      dup3\n      add\n      dup1\n      sload\n      tag_220\n      swap1\n      tag_128\n      jump\t// in\n    tag_220:\n      dup1\n      0x1f\n      add\n      0x20\n      dup1\n      swap2\n      div\n      mul\n      0x20\n      add\n      mload(0x40)\n      swap1\n      dup2\n      add\n      0x40\n      mstore\n      dup1\n      swap3\n      swap2\n      swap1\n      dup2\n      dup2\n      mstore\n      0x20\n      add\n      dup3\n      dup1\n      sload\n      tag_221\n      swap1\n      tag_128\n      jump\t// in\n    tag_221:\n      dup1\n      iszero\n      tag_222\n      jumpi\n      dup1\n      0x1f\n      lt\n      tag_223\n      jumpi\n      0x0100\n      dup1\n      dup4\n      sload\n      div\n      mul\n      dup4\n      mstore\n      swap2\n      0x20\n      add\n      swap2\n      jump(tag_222)\n    tag_223:\n      dup3\n      add\n      swap2\n      swap1\n      0x00\n      mstore\n      keccak256(0x00, 0x20)\n      swap1\n    tag_224:\n      dup2\n      sload\n      dup2\n      mstore\n      swap1\n      0x01\n      add\n      swap1\n      0x20\n      add\n      dup1\n      dup4\n      gt\n      tag_224\n      jumpi\n      dup3\n      swap1\n      sub\n      0x1f\n      and\n      dup3\n      add\n      swap2\n    tag_222:\n      pop\n      pop\n      pop\n      pop\n      pop\n      dup2\n      mstore\n      0x20\n      add\n      0x03\n      dup3\n      add\n      dup1\n      sload\n      tag_225\n      swap1\n      tag_128\n      jump\t// in\n    tag_225:\n      dup1\n      0x1f\n      add\n      0x20\n      dup1\n      swap2\n      div\n      mul\n      0x20\n      add\n      mload(0x40)\n      swap1\n      dup2\n      add\n      0x40\n      mstore\n      dup1\n      swap3\n      swap2\n      swap1\n      dup2\n      dup2\n      mstore\n      0x20\n      add\n      dup3\n      dup1\n      sload\n      tag_226\n      swap1\n      tag_128\n      jump\t// in\n    tag_226:\n      dup1\n      iszero\n      tag_227\n      jumpi\n      dup1\n      0x1f\n      lt\n      tag_228\n      jumpi\n      0x0100\n      dup1\n      dup4\n      sload\n      div\n      mul\n      dup4\n      mstore\n      swap2\n      0x20\n      add\n      swap2\n      jump(tag_227)\n    tag_228:\n      dup3\n      add\n      swap2\n      swap1\n      0x00\n      mstore\n      keccak256(0x00, 0x20)\n      swap1\n    tag_229:\n      dup2\n      sload\n      dup2\n      mstore\n      swap1\n      0x01\n      add\n      swap1\n      0x20\n      add\n      dup1\n      dup4\n      gt\n      tag_229\n      jumpi\n      dup3\n      swap1\n      sub\n      0x1f\n      and\n      dup3\n      add\n      swap2\n    tag_227:\n      pop\n      pop\n      pop\n      pop\n      pop\n      dup2\n      mstore\n      0x20\n      add\n      0x04\n      dup3\n      add\n      sload\n      dup2\n      mstore\n      0x20\n      add\n      0x05\n      dup3\n      add\n      dup1\n      sload\n      dup1\n      0x20\n      mul\n      0x20\n      add\n      mload(0x40)\n      swap1\n      dup2\n      add\n      0x40\n      mstore\n      dup1\n      swap3\n      swap2\n      swap1\n      dup2\n      dup2\n      mstore\n      0x20\n      add\n      0x00\n      swap1\n    tag_230:\n      dup3\n      dup3\n      lt\n      iszero\n      tag_231\n      jumpi\n      dup4\n      dup3\n      swap1\n      0x00\n      mstore\n      keccak256(0x00, 0x20)\n      add\n      dup1\n      sload\n      tag_233\n      swap1\n      tag_128\n      jump\t// in\n    tag_233:\n      dup1\n      0x1f\n      add\n      0x20\n      dup1\n      swap2\n      div\n      mul\n      0x20\n      add\n      mload(0x40)\n      swap1\n      dup2\n      add\n      0x40\n      mstore\n      dup1\n      swap3\n      swap2\n      swap1\n      dup2\n      dup2\n      mstore\n      0x20\n      add\n      dup3\n      dup1\n      sload\n      tag_234\n      swap1\n      tag_128\n      jump\t// in\n    tag_234:\n      dup1\n      iszero\n      tag_235\n      jumpi\n      dup1\n      0x1f\n      lt\n      tag_236\n      jumpi\n      0x0100\n      dup1\n      dup4\n      sload\n      div\n      mul\n      dup4\n      mstore\n      swap2\n      0x20\n      add\n      swap2\n      jump(tag_235)\n    tag_236:\n      dup3\n      add\n      swap2\n      swap1\n      0x00\n      mstore\n      keccak256(0x00, 0x20)\n      swap1\n    tag_237:\n      dup2\n      sload\n      dup2\n      mstore\n      swap1\n      0x01\n      add\n      swap1\n      0x20\n      add\n      dup1\n      dup4\n      gt\n      tag_237\n      jumpi\n      dup3\n      swap1\n      sub\n      0x1f\n      and\n      dup3\n      add\n      swap2\n    tag_235:\n      pop\n      pop\n      pop\n      pop\n      pop\n      dup2\n      mstore\n      0x20\n      add\n      swap1\n      0x01\n      add\n      swap1\n      jump(tag_230)\n    tag_231:\n      pop\n      pop\n      pop\n      pop\n      dup2\n      mstore\n      0x20\n      add\n      0x06\n      dup3\n      add\n      dup1\n      sload\n      dup1\n      0x20\n      mul\n      0x20\n      add\n      mload(0x40)\n      swap1\n      dup2\n      add\n      0x40\n      mstore\n      dup1\n      swap3\n      swap2\n      swap1\n      dup2\n      dup2\n      mstore\n      0x20\n      add\n      0x00\n      swap1\n    tag_238:\n      dup3\n      dup3\n      lt\n      iszero\n      tag_239\n      jumpi\n      dup4\n      dup3\n      swap1\n      0x00\n      mstore\n      keccak256(0x00, 0x20)\n      add\n      dup1\n      sload\n      tag_241\n      swap1\n      tag_128\n      jump\t// in\n    tag_241:\n      dup1\n      0x1f\n      add\n      0x20\n      dup1\n      swap2\n      div\n      mul\n      0x20\n      add\n      mload(0x40)\n      swap1\n      dup2\n      add\n      0x40\n      mstore\n      dup1\n      swap3\n      swap2\n      swap1\n      dup2\n      dup2\n      mstore\n      0x20\n      add\n      dup3\n      dup1\n      sload\n      tag_242\n      swap1\n      tag_128\n      jump\t// in\n    tag_242:\n      dup1\n      iszero\n      tag_243\n      jumpi\n      dup1\n      0x1f\n      lt\n      tag_244\n      jumpi\n      0x0100\n      dup1\n      dup4\n      sload\n      div\n      mul\n      dup4\n      mstore\n      swap2\n      0x20\n      add\n      swap2\n      jump(tag_243)\n    tag_244:\n      dup3\n      add\n      swap2\n      swap1\n      0x00\n      mstore\n      keccak256(0x00, 0x20)\n      swap1\n    tag_245:\n      dup2\n      sload\n      dup2\n      mstore\n      swap1\n      0x01\n      add\n      swap1\n      0x20\n      add\n      dup1\n      dup4\n      gt\n      tag_245\n      jumpi\n      dup3\n      swap1\n      sub\n      0x1f\n      and\n      dup3\n      add\n      swap2\n    tag_243:\n      pop\n      pop\n      pop\n      pop\n      pop\n      dup2\n      mstore\n      0x20\n      add\n      swap1\n      0x01\n      add\n      swap1\n      jump(tag_238)\n    tag_239:\n      pop\n      pop\n      pop\n      pop\n      dup2\n      mstore\n      0x20\n      add\n      0x07\n      dup3\n      add\n      sload\n      dup2\n      mstore\n      0x20\n      add\n      0x08\n      dup3\n      add\n      sload\n      dup2\n      mstore\n      0x20\n      add\n      0x09\n      dup3\n      add\n      0x00\n      swap1\n      sload\n      swap1\n      0x0100\n      exp\n      swap1\n      div\n      0xff\n      and\n      iszero\n      iszero\n      iszero\n      iszero\n      dup2\n      mstore\n      pop\n      pop\n      dup2\n      mstore\n      0x20\n      add\n      swap1\n      0x01\n      add\n      swap1\n      jump(tag_207)\n    tag_208:\n      pop\n      pop\n      pop\n      pop\n      dup2\n      mstore\n      pop\n      pop\n      swap1\n      pop\n        /* \"smartContract_eliseu_v1.sol\":3374:3395  Stage memory tmpStage */\n      tag_246\n      tag_179\n      jump\t// in\n    tag_246:\n        /* \"smartContract_eliseu_v1.sol\":3411:3420  uint256 i */\n      0x00\n        /* \"smartContract_eliseu_v1.sol\":3406:3645  for (uint256 i = 0; i < selectedProject.stages.length; i++) {... */\n    tag_247:\n        /* \"smartContract_eliseu_v1.sol\":3430:3445  selectedProject */\n      dup3\n        /* \"smartContract_eliseu_v1.sol\":3430:3452  selectedProject.stages */\n      0x0140\n      add\n      mload\n        /* \"smartContract_eliseu_v1.sol\":3430:3459  selectedProject.stages.length */\n      mload\n        /* \"smartContract_eliseu_v1.sol\":3426:3427  i */\n      dup2\n        /* \"smartContract_eliseu_v1.sol\":3426:3459  i < selectedProject.stages.length */\n      lt\n        /* \"smartContract_eliseu_v1.sol\":3406:3645  for (uint256 i = 0; i < selectedProject.stages.length; i++) {... */\n      iszero\n      tag_248\n      jumpi\n        /* \"smartContract_eliseu_v1.sol\":3491:3506  selectedProject */\n      dup3\n        /* \"smartContract_eliseu_v1.sol\":3491:3513  selectedProject.stages */\n      0x0140\n      add\n      mload\n        /* \"smartContract_eliseu_v1.sol\":3514:3515  i */\n      dup2\n        /* \"smartContract_eliseu_v1.sol\":3491:3516  selectedProject.stages[i] */\n      dup2\n      mload\n      dup2\n      lt\n      tag_250\n      jumpi\n      tag_251\n      tag_105\n      jump\t// in\n    tag_251:\n    tag_250:\n      0x20\n      mul\n      0x20\n      add\n      add\n      mload\n        /* \"smartContract_eliseu_v1.sol\":3480:3516  tmpStage = selectedProject.stages[i] */\n      swap2\n      pop\n        /* \"smartContract_eliseu_v1.sol\":3535:3577  compareStrings(stageId, tmpStage.stage_id) */\n      tag_252\n        /* \"smartContract_eliseu_v1.sol\":3550:3557  stageId */\n      dup7\n        /* \"smartContract_eliseu_v1.sol\":3559:3567  tmpStage */\n      dup4\n        /* \"smartContract_eliseu_v1.sol\":3559:3576  tmpStage.stage_id */\n      0x00\n      add\n      mload\n        /* \"smartContract_eliseu_v1.sol\":3535:3549  compareStrings */\n      tag_68\n        /* \"smartContract_eliseu_v1.sol\":3535:3577  compareStrings(stageId, tmpStage.stage_id) */\n      jump\t// in\n    tag_252:\n        /* \"smartContract_eliseu_v1.sol\":3531:3635  if (compareStrings(stageId, tmpStage.stage_id)) {... */\n      iszero\n      tag_253\n      jumpi\n        /* \"smartContract_eliseu_v1.sol\":3605:3613  tmpStage */\n      dup2\n        /* \"smartContract_eliseu_v1.sol\":3615:3619  true */\n      0x01\n        /* \"smartContract_eliseu_v1.sol\":3597:3620  return (tmpStage, true) */\n      swap5\n      pop\n      swap5\n      pop\n      pop\n      pop\n      pop\n      jump(tag_180)\n        /* \"smartContract_eliseu_v1.sol\":3531:3635  if (compareStrings(stageId, tmpStage.stage_id)) {... */\n    tag_253:\n        /* \"smartContract_eliseu_v1.sol\":3461:3464  i++ */\n      dup1\n      dup1\n      tag_254\n      swap1\n      tag_115\n      jump\t// in\n    tag_254:\n      swap2\n      pop\n      pop\n        /* \"smartContract_eliseu_v1.sol\":3406:3645  for (uint256 i = 0; i < selectedProject.stages.length; i++) {... */\n      jump(tag_247)\n    tag_248:\n      pop\n        /* \"smartContract_eliseu_v1.sol\":3655:3680  revert(\"Stage not found\") */\n      mload(0x40)\n      0x08c379a000000000000000000000000000000000000000000000000000000000\n      dup2\n      mstore\n      0x04\n      add\n      tag_255\n      swap1\n      tag_256\n      jump\t// in\n    tag_255:\n      mload(0x40)\n      dup1\n      swap2\n      sub\n      swap1\n      revert\n        /* \"smartContract_eliseu_v1.sol\":3154:3687  function getStageById(string memory projectId, string memory stageId)... */\n    tag_180:\n      swap3\n      pop\n      swap3\n      swap1\n      pop\n      jump\t// out\n        /* \"smartContract_eliseu_v1.sol\":3693:3830  function getStagesCount(string memory projectId) external view returns(uint256) {... */\n    tag_78:\n        /* \"smartContract_eliseu_v1.sol\":3764:3771  uint256 */\n      0x00\n        /* \"smartContract_eliseu_v1.sol\":3790:3798  projects */\n      0x01\n        /* \"smartContract_eliseu_v1.sol\":3799:3808  projectId */\n      dup3\n        /* \"smartContract_eliseu_v1.sol\":3790:3809  projects[projectId] */\n      mload(0x40)\n      tag_258\n      swap2\n      swap1\n      tag_91\n      jump\t// in\n    tag_258:\n      swap1\n      dup2\n      mstore\n      0x20\n      add\n      mload(0x40)\n      dup1\n      swap2\n      sub\n      swap1\n      keccak256\n        /* \"smartContract_eliseu_v1.sol\":3790:3816  projects[projectId].stages */\n      0x0a\n      add\n        /* \"smartContract_eliseu_v1.sol\":3790:3823  projects[projectId].stages.length */\n      dup1\n      sload\n      swap1\n      pop\n        /* \"smartContract_eliseu_v1.sol\":3783:3823  return projects[projectId].stages.length */\n      swap1\n      pop\n        /* \"smartContract_eliseu_v1.sol\":3693:3830  function getStagesCount(string memory projectId) external view returns(uint256) {... */\n      swap2\n      swap1\n      pop\n      jump\t// out\n        /* \"smartContract_eliseu_v1.sol\":5333:5434  function getProjectsCount() external view returns (uint256) {... */\n    tag_82:\n        /* \"smartContract_eliseu_v1.sol\":5384:5391  uint256 */\n      0x00\n        /* \"smartContract_eliseu_v1.sol\":5410:5420  projectIds */\n      0x02\n        /* \"smartContract_eliseu_v1.sol\":5410:5427  projectIds.length */\n      dup1\n      sload\n      swap1\n      pop\n        /* \"smartContract_eliseu_v1.sol\":5403:5427  return projectIds.length */\n      swap1\n      pop\n        /* \"smartContract_eliseu_v1.sol\":5333:5434  function getProjectsCount() external view returns (uint256) {... */\n      swap1\n      jump\t// out\n        /* \"smartContract_eliseu_v1.sol\":4200:4394  function validateStage(... */\n    tag_87:\n        /* \"smartContract_eliseu_v1.sol\":4340:4387  StageValidated(projectId, stageId, validatorID) */\n      0x9f64639419de97116219d1f7c000638905fa8176602dc9afd7d28338b6a803cc\n        /* \"smartContract_eliseu_v1.sol\":4355:4364  projectId */\n      dup4\n        /* \"smartContract_eliseu_v1.sol\":4366:4373  stageId */\n      dup4\n        /* \"smartContract_eliseu_v1.sol\":4375:4386  validatorID */\n      dup4\n        /* \"smartContract_eliseu_v1.sol\":4340:4387  StageValidated(projectId, stageId, validatorID) */\n      mload(0x40)\n      tag_261\n      swap4\n      swap3\n      swap2\n      swap1\n      tag_262\n      jump\t// in\n    tag_261:\n      mload(0x40)\n      dup1\n      swap2\n      sub\n      swap1\n      log1\n        /* \"smartContract_eliseu_v1.sol\":4200:4394  function validateStage(... */\n      pop\n      pop\n      pop\n      jump\t// out\n    tag_112:\n      dup3\n      dup1\n      sload\n      dup3\n      dup3\n      sstore\n      swap1\n      0x00\n      mstore\n      keccak256(0x00, 0x20)\n      swap1\n      dup2\n      add\n      swap3\n      dup3\n      iszero\n      tag_263\n      jumpi\n      swap2\n      0x20\n      mul\n      dup3\n      add\n    tag_264:\n      dup3\n      dup2\n      gt\n      iszero\n      tag_265\n      jumpi\n      dup3\n      mload\n      dup3\n      swap1\n      dup2\n      tag_266\n      swap2\n      swap1\n      tag_93\n      jump\t// in\n    tag_266:\n      pop\n      swap2\n      0x20\n      add\n      swap2\n      swap1\n      0x01\n      add\n      swap1\n      jump(tag_264)\n    tag_265:\n    tag_263:\n      pop\n      swap1\n      pop\n      tag_267\n      swap2\n      swap1\n      tag_268\n      jump\t// in\n    tag_267:\n      pop\n      swap1\n      jump\t// out\n    tag_179:\n      mload(0x40)\n      dup1\n      0x0140\n      add\n      0x40\n      mstore\n      dup1\n      0x60\n      dup2\n      mstore\n      0x20\n      add\n      0x60\n      dup2\n      mstore\n      0x20\n      add\n      0x60\n      dup2\n      mstore\n      0x20\n      add\n      0x60\n      dup2\n      mstore\n      0x20\n      add\n      0x00\n      dup2\n      mstore\n      0x20\n      add\n      0x60\n      dup2\n      mstore\n      0x20\n      add\n      0x60\n      dup2\n      mstore\n      0x20\n      add\n      0x00\n      dup2\n      mstore\n      0x20\n      add\n      0x00\n      dup2\n      mstore\n      0x20\n      add\n      iszero(iszero(0x00))\n      dup2\n      mstore\n      pop\n      swap1\n      jump\t// out\n    tag_268:\n    tag_269:\n      dup1\n      dup3\n      gt\n      iszero\n      tag_270\n      jumpi\n      0x00\n      dup2\n      dup2\n      tag_271\n      swap2\n      swap1\n      tag_272\n      jump\t// in\n    tag_271:\n      pop\n      0x01\n      add\n      jump(tag_269)\n    tag_270:\n      pop\n      swap1\n      jump\t// out\n    tag_272:\n      pop\n      dup1\n      sload\n      tag_273\n      swap1\n      tag_128\n      jump\t// in\n    tag_273:\n      0x00\n      dup3\n      sstore\n      dup1\n      0x1f\n      lt\n      tag_275\n      jumpi\n      pop\n      jump(tag_274)\n    tag_275:\n      0x1f\n      add\n      0x20\n      swap1\n      div\n      swap1\n      0x00\n      mstore\n      keccak256(0x00, 0x20)\n      swap1\n      dup2\n      add\n      swap1\n      tag_276\n      swap2\n      swap1\n      tag_277\n      jump\t// in\n    tag_276:\n    tag_274:\n      pop\n      jump\t// out\n    tag_277:\n    tag_278:\n      dup1\n      dup3\n      gt\n      iszero\n      tag_279\n      jumpi\n      0x00\n      dup2\n      0x00\n      swap1\n      sstore\n      pop\n      0x01\n      add\n      jump(tag_278)\n    tag_279:\n      pop\n      swap1\n      jump\t// out\n        /* \"#utility.yul\":7:82   */\n    tag_280:\n        /* \"#utility.yul\":40:46   */\n      0x00\n        /* \"#utility.yul\":73:75   */\n      0x40\n        /* \"#utility.yul\":67:76   */\n      mload\n        /* \"#utility.yul\":57:76   */\n      swap1\n      pop\n        /* \"#utility.yul\":7:82   */\n      swap1\n      jump\t// out\n        /* \"#utility.yul\":88:205   */\n    tag_281:\n        /* \"#utility.yul\":197:198   */\n      0x00\n        /* \"#utility.yul\":194:195   */\n      dup1\n        /* \"#utility.yul\":187:199   */\n      revert\n        /* \"#utility.yul\":211:328   */\n    tag_282:\n        /* \"#utility.yul\":320:321   */\n      0x00\n        /* \"#utility.yul\":317:318   */\n      dup1\n        /* \"#utility.yul\":310:322   */\n      revert\n        /* \"#utility.yul\":334:411   */\n    tag_283:\n        /* \"#utility.yul\":371:378   */\n      0x00\n        /* \"#utility.yul\":400:405   */\n      dup2\n        /* \"#utility.yul\":389:405   */\n      swap1\n      pop\n        /* \"#utility.yul\":334:411   */\n      swap2\n      swap1\n      pop\n      jump\t// out\n        /* \"#utility.yul\":417:539   */\n    tag_284:\n        /* \"#utility.yul\":490:514   */\n      tag_361\n        /* \"#utility.yul\":508:513   */\n      dup2\n        /* \"#utility.yul\":490:514   */\n      tag_283\n      jump\t// in\n    tag_361:\n        /* \"#utility.yul\":483:488   */\n      dup2\n        /* \"#utility.yul\":480:515   */\n      eq\n        /* \"#utility.yul\":470:533   */\n      tag_362\n      jumpi\n        /* \"#utility.yul\":529:530   */\n      0x00\n        /* \"#utility.yul\":526:527   */\n      dup1\n        /* \"#utility.yul\":519:531   */\n      revert\n        /* \"#utility.yul\":470:533   */\n    tag_362:\n        /* \"#utility.yul\":417:539   */\n      pop\n      jump\t// out\n        /* \"#utility.yul\":545:684   */\n    tag_285:\n        /* \"#utility.yul\":591:596   */\n      0x00\n        /* \"#utility.yul\":629:635   */\n      dup2\n        /* \"#utility.yul\":616:636   */\n      calldataload\n        /* \"#utility.yul\":607:636   */\n      swap1\n      pop\n        /* \"#utility.yul\":645:678   */\n      tag_364\n        /* \"#utility.yul\":672:677   */\n      dup2\n        /* \"#utility.yul\":645:678   */\n      tag_284\n      jump\t// in\n    tag_364:\n        /* \"#utility.yul\":545:684   */\n      swap3\n      swap2\n      pop\n      pop\n      jump\t// out\n        /* \"#utility.yul\":690:1164   */\n    tag_23:\n        /* \"#utility.yul\":758:764   */\n      0x00\n        /* \"#utility.yul\":766:772   */\n      dup1\n        /* \"#utility.yul\":815:817   */\n      0x40\n        /* \"#utility.yul\":803:812   */\n      dup4\n        /* \"#utility.yul\":794:801   */\n      dup6\n        /* \"#utility.yul\":790:813   */\n      sub\n        /* \"#utility.yul\":786:818   */\n      slt\n        /* \"#utility.yul\":783:902   */\n      iszero\n      tag_366\n      jumpi\n        /* \"#utility.yul\":821:900   */\n      tag_367\n      tag_281\n      jump\t// in\n    tag_367:\n        /* \"#utility.yul\":783:902   */\n    tag_366:\n        /* \"#utility.yul\":941:942   */\n      0x00\n        /* \"#utility.yul\":966:1019   */\n      tag_368\n        /* \"#utility.yul\":1011:1018   */\n      dup6\n        /* \"#utility.yul\":1002:1008   */\n      dup3\n        /* \"#utility.yul\":991:1000   */\n      dup7\n        /* \"#utility.yul\":987:1009   */\n      add\n        /* \"#utility.yul\":966:1019   */\n      tag_285\n      jump\t// in\n    tag_368:\n        /* \"#utility.yul\":956:1019   */\n      swap3\n      pop\n        /* \"#utility.yul\":912:1029   */\n      pop\n        /* \"#utility.yul\":1068:1070   */\n      0x20\n        /* \"#utility.yul\":1094:1147   */\n      tag_369\n        /* \"#utility.yul\":1139:1146   */\n      dup6\n        /* \"#utility.yul\":1130:1136   */\n      dup3\n        /* \"#utility.yul\":1119:1128   */\n      dup7\n        /* \"#utility.yul\":1115:1137   */\n      add\n        /* \"#utility.yul\":1094:1147   */\n      tag_285\n      jump\t// in\n    tag_369:\n        /* \"#utility.yul\":1084:1147   */\n      swap2\n      pop\n        /* \"#utility.yul\":1039:1157   */\n      pop\n        /* \"#utility.yul\":690:1164   */\n      swap3\n      pop\n      swap3\n      swap1\n      pop\n      jump\t// out\n        /* \"#utility.yul\":1170:1287   */\n    tag_286:\n        /* \"#utility.yul\":1279:1280   */\n      0x00\n        /* \"#utility.yul\":1276:1277   */\n      dup1\n        /* \"#utility.yul\":1269:1281   */\n      revert\n        /* \"#utility.yul\":1293:1410   */\n    tag_287:\n        /* \"#utility.yul\":1402:1403   */\n      0x00\n        /* \"#utility.yul\":1399:1400   */\n      dup1\n        /* \"#utility.yul\":1392:1404   */\n      revert\n        /* \"#utility.yul\":1416:1518   */\n    tag_288:\n        /* \"#utility.yul\":1457:1463   */\n      0x00\n        /* \"#utility.yul\":1508:1510   */\n      0x1f\n        /* \"#utility.yul\":1504:1511   */\n      not\n        /* \"#utility.yul\":1499:1501   */\n      0x1f\n        /* \"#utility.yul\":1492:1497   */\n      dup4\n        /* \"#utility.yul\":1488:1502   */\n      add\n        /* \"#utility.yul\":1484:1512   */\n      and\n        /* \"#utility.yul\":1474:1512   */\n      swap1\n      pop\n        /* \"#utility.yul\":1416:1518   */\n      swap2\n      swap1\n      pop\n      jump\t// out\n        /* \"#utility.yul\":1524:1704   */\n    tag_289:\n        /* \"#utility.yul\":1572:1649   */\n      0x4e487b7100000000000000000000000000000000000000000000000000000000\n        /* \"#utility.yul\":1569:1570   */\n      0x00\n        /* \"#utility.yul\":1562:1650   */\n      mstore\n        /* \"#utility.yul\":1669:1673   */\n      0x41\n        /* \"#utility.yul\":1666:1667   */\n      0x04\n        /* \"#utility.yul\":1659:1674   */\n      mstore\n        /* \"#utility.yul\":1693:1697   */\n      0x24\n        /* \"#utility.yul\":1690:1691   */\n      0x00\n        /* \"#utility.yul\":1683:1698   */\n      revert\n        /* \"#utility.yul\":1710:1991   */\n    tag_290:\n        /* \"#utility.yul\":1793:1820   */\n      tag_375\n        /* \"#utility.yul\":1815:1819   */\n      dup3\n        /* \"#utility.yul\":1793:1820   */\n      tag_288\n      jump\t// in\n    tag_375:\n        /* \"#utility.yul\":1785:1791   */\n      dup2\n        /* \"#utility.yul\":1781:1821   */\n      add\n        /* \"#utility.yul\":1923:1929   */\n      dup2\n        /* \"#utility.yul\":1911:1921   */\n      dup2\n        /* \"#utility.yul\":1908:1930   */\n      lt\n        /* \"#utility.yul\":1887:1905   */\n      0xffffffffffffffff\n        /* \"#utility.yul\":1875:1885   */\n      dup3\n        /* \"#utility.yul\":1872:1906   */\n      gt\n        /* \"#utility.yul\":1869:1931   */\n      or\n        /* \"#utility.yul\":1866:1954   */\n      iszero\n      tag_376\n      jumpi\n        /* \"#utility.yul\":1934:1952   */\n      tag_377\n      tag_289\n      jump\t// in\n    tag_377:\n        /* \"#utility.yul\":1866:1954   */\n    tag_376:\n        /* \"#utility.yul\":1974:1984   */\n      dup1\n        /* \"#utility.yul\":1970:1972   */\n      0x40\n        /* \"#utility.yul\":1963:1985   */\n      mstore\n        /* \"#utility.yul\":1753:1991   */\n      pop\n        /* \"#utility.yul\":1710:1991   */\n      pop\n      pop\n      jump\t// out\n        /* \"#utility.yul\":1997:2126   */\n    tag_291:\n        /* \"#utility.yul\":2031:2037   */\n      0x00\n        /* \"#utility.yul\":2058:2078   */\n      tag_379\n      tag_280\n      jump\t// in\n    tag_379:\n        /* \"#utility.yul\":2048:2078   */\n      swap1\n      pop\n        /* \"#utility.yul\":2087:2120   */\n      tag_380\n        /* \"#utility.yul\":2115:2119   */\n      dup3\n        /* \"#utility.yul\":2107:2113   */\n      dup3\n        /* \"#utility.yul\":2087:2120   */\n      tag_290\n      jump\t// in\n    tag_380:\n        /* \"#utility.yul\":1997:2126   */\n      swap2\n      swap1\n      pop\n      jump\t// out\n        /* \"#utility.yul\":2132:2440   */\n    tag_292:\n        /* \"#utility.yul\":2194:2198   */\n      0x00\n        /* \"#utility.yul\":2284:2302   */\n      0xffffffffffffffff\n        /* \"#utility.yul\":2276:2282   */\n      dup3\n        /* \"#utility.yul\":2273:2303   */\n      gt\n        /* \"#utility.yul\":2270:2326   */\n      iszero\n      tag_382\n      jumpi\n        /* \"#utility.yul\":2306:2324   */\n      tag_383\n      tag_289\n      jump\t// in\n    tag_383:\n        /* \"#utility.yul\":2270:2326   */\n    tag_382:\n        /* \"#utility.yul\":2344:2373   */\n      tag_384\n        /* \"#utility.yul\":2366:2372   */\n      dup3\n        /* \"#utility.yul\":2344:2373   */\n      tag_288\n      jump\t// in\n    tag_384:\n        /* \"#utility.yul\":2336:2373   */\n      swap1\n      pop\n        /* \"#utility.yul\":2428:2432   */\n      0x20\n        /* \"#utility.yul\":2422:2426   */\n      dup2\n        /* \"#utility.yul\":2418:2433   */\n      add\n        /* \"#utility.yul\":2410:2433   */\n      swap1\n      pop\n        /* \"#utility.yul\":2132:2440   */\n      swap2\n      swap1\n      pop\n      jump\t// out\n        /* \"#utility.yul\":2446:2592   */\n    tag_293:\n        /* \"#utility.yul\":2543:2549   */\n      dup3\n        /* \"#utility.yul\":2538:2541   */\n      dup2\n        /* \"#utility.yul\":2533:2536   */\n      dup4\n        /* \"#utility.yul\":2520:2550   */\n      calldatacopy\n        /* \"#utility.yul\":2584:2585   */\n      0x00\n        /* \"#utility.yul\":2575:2581   */\n      dup4\n        /* \"#utility.yul\":2570:2573   */\n      dup4\n        /* \"#utility.yul\":2566:2582   */\n      add\n        /* \"#utility.yul\":2559:2586   */\n      mstore\n        /* \"#utility.yul\":2446:2592   */\n      pop\n      pop\n      pop\n      jump\t// out\n        /* \"#utility.yul\":2598:3023   */\n    tag_294:\n        /* \"#utility.yul\":2676:2681   */\n      0x00\n        /* \"#utility.yul\":2701:2767   */\n      tag_387\n        /* \"#utility.yul\":2717:2766   */\n      tag_388\n        /* \"#utility.yul\":2759:2765   */\n      dup5\n        /* \"#utility.yul\":2717:2766   */\n      tag_292\n      jump\t// in\n    tag_388:\n        /* \"#utility.yul\":2701:2767   */\n      tag_291\n      jump\t// in\n    tag_387:\n        /* \"#utility.yul\":2692:2767   */\n      swap1\n      pop\n        /* \"#utility.yul\":2790:2796   */\n      dup3\n        /* \"#utility.yul\":2783:2788   */\n      dup2\n        /* \"#utility.yul\":2776:2797   */\n      mstore\n        /* \"#utility.yul\":2828:2832   */\n      0x20\n        /* \"#utility.yul\":2821:2826   */\n      dup2\n        /* \"#utility.yul\":2817:2833   */\n      add\n        /* \"#utility.yul\":2866:2869   */\n      dup5\n        /* \"#utility.yul\":2857:2863   */\n      dup5\n        /* \"#utility.yul\":2852:2855   */\n      dup5\n        /* \"#utility.yul\":2848:2864   */\n      add\n        /* \"#utility.yul\":2845:2870   */\n      gt\n        /* \"#utility.yul\":2842:2954   */\n      iszero\n      tag_389\n      jumpi\n        /* \"#utility.yul\":2873:2952   */\n      tag_390\n      tag_287\n      jump\t// in\n    tag_390:\n        /* \"#utility.yul\":2842:2954   */\n    tag_389:\n        /* \"#utility.yul\":2963:3017   */\n      tag_391\n        /* \"#utility.yul\":3010:3016   */\n      dup5\n        /* \"#utility.yul\":3005:3008   */\n      dup3\n        /* \"#utility.yul\":3000:3003   */\n      dup6\n        /* \"#utility.yul\":2963:3017   */\n      tag_293\n      jump\t// in\n    tag_391:\n        /* \"#utility.yul\":2682:3023   */\n      pop\n        /* \"#utility.yul\":2598:3023   */\n      swap4\n      swap3\n      pop\n      pop\n      pop\n      jump\t// out\n        /* \"#utility.yul\":3043:3383   */\n    tag_295:\n        /* \"#utility.yul\":3099:3104   */\n      0x00\n        /* \"#utility.yul\":3148:3151   */\n      dup3\n        /* \"#utility.yul\":3141:3145   */\n      0x1f\n        /* \"#utility.yul\":3133:3139   */\n      dup4\n        /* \"#utility.yul\":3129:3146   */\n      add\n        /* \"#utility.yul\":3125:3152   */\n      slt\n        /* \"#utility.yul\":3115:3237   */\n      tag_393\n      jumpi\n        /* \"#utility.yul\":3156:3235   */\n      tag_394\n      tag_286\n      jump\t// in\n    tag_394:\n        /* \"#utility.yul\":3115:3237   */\n    tag_393:\n        /* \"#utility.yul\":3273:3279   */\n      dup2\n        /* \"#utility.yul\":3260:3280   */\n      calldataload\n        /* \"#utility.yul\":3298:3377   */\n      tag_395\n        /* \"#utility.yul\":3373:3376   */\n      dup5\n        /* \"#utility.yul\":3365:3371   */\n      dup3\n        /* \"#utility.yul\":3358:3362   */\n      0x20\n        /* \"#utility.yul\":3350:3356   */\n      dup7\n        /* \"#utility.yul\":3346:3363   */\n      add\n        /* \"#utility.yul\":3298:3377   */\n      tag_294\n      jump\t// in\n    tag_395:\n        /* \"#utility.yul\":3289:3377   */\n      swap2\n      pop\n        /* \"#utility.yul\":3105:3383   */\n      pop\n        /* \"#utility.yul\":3043:3383   */\n      swap3\n      swap2\n      pop\n      pop\n      jump\t// out\n        /* \"#utility.yul\":3389:3721   */\n    tag_296:\n        /* \"#utility.yul\":3487:3491   */\n      0x00\n        /* \"#utility.yul\":3577:3595   */\n      0xffffffffffffffff\n        /* \"#utility.yul\":3569:3575   */\n      dup3\n        /* \"#utility.yul\":3566:3596   */\n      gt\n        /* \"#utility.yul\":3563:3619   */\n      iszero\n      tag_397\n      jumpi\n        /* \"#utility.yul\":3599:3617   */\n      tag_398\n      tag_289\n      jump\t// in\n    tag_398:\n        /* \"#utility.yul\":3563:3619   */\n    tag_397:\n        /* \"#utility.yul\":3649:3653   */\n      0x20\n        /* \"#utility.yul\":3641:3647   */\n      dup3\n        /* \"#utility.yul\":3637:3654   */\n      mul\n        /* \"#utility.yul\":3629:3654   */\n      swap1\n      pop\n        /* \"#utility.yul\":3709:3713   */\n      0x20\n        /* \"#utility.yul\":3703:3707   */\n      dup2\n        /* \"#utility.yul\":3699:3714   */\n      add\n        /* \"#utility.yul\":3691:3714   */\n      swap1\n      pop\n        /* \"#utility.yul\":3389:3721   */\n      swap2\n      swap1\n      pop\n      jump\t// out\n        /* \"#utility.yul\":3727:3844   */\n    tag_297:\n        /* \"#utility.yul\":3836:3837   */\n      0x00\n        /* \"#utility.yul\":3833:3834   */\n      dup1\n        /* \"#utility.yul\":3826:3838   */\n      revert\n        /* \"#utility.yul\":3850:3967   */\n    tag_298:\n        /* \"#utility.yul\":3959:3960   */\n      0x00\n        /* \"#utility.yul\":3956:3957   */\n      dup1\n        /* \"#utility.yul\":3949:3961   */\n      revert\n        /* \"#utility.yul\":3973:4090   */\n    tag_299:\n        /* \"#utility.yul\":4082:4083   */\n      0x00\n        /* \"#utility.yul\":4079:4080   */\n      dup1\n        /* \"#utility.yul\":4072:4084   */\n      revert\n        /* \"#utility.yul\":4096:4417   */\n    tag_300:\n        /* \"#utility.yul\":4183:4187   */\n      0x00\n        /* \"#utility.yul\":4273:4291   */\n      0xffffffffffffffff\n        /* \"#utility.yul\":4265:4271   */\n      dup3\n        /* \"#utility.yul\":4262:4292   */\n      gt\n        /* \"#utility.yul\":4259:4315   */\n      iszero\n      tag_403\n      jumpi\n        /* \"#utility.yul\":4295:4313   */\n      tag_404\n      tag_289\n      jump\t// in\n    tag_404:\n        /* \"#utility.yul\":4259:4315   */\n    tag_403:\n        /* \"#utility.yul\":4345:4349   */\n      0x20\n        /* \"#utility.yul\":4337:4343   */\n      dup3\n        /* \"#utility.yul\":4333:4350   */\n      mul\n        /* \"#utility.yul\":4325:4350   */\n      swap1\n      pop\n        /* \"#utility.yul\":4405:4409   */\n      0x20\n        /* \"#utility.yul\":4399:4403   */\n      dup2\n        /* \"#utility.yul\":4395:4410   */\n      add\n        /* \"#utility.yul\":4387:4410   */\n      swap1\n      pop\n        /* \"#utility.yul\":4096:4417   */\n      swap2\n      swap1\n      pop\n      jump\t// out\n        /* \"#utility.yul\":4439:5384   */\n    tag_301:\n        /* \"#utility.yul\":4545:4550   */\n      0x00\n        /* \"#utility.yul\":4570:4661   */\n      tag_406\n        /* \"#utility.yul\":4586:4660   */\n      tag_407\n        /* \"#utility.yul\":4653:4659   */\n      dup5\n        /* \"#utility.yul\":4586:4660   */\n      tag_300\n      jump\t// in\n    tag_407:\n        /* \"#utility.yul\":4570:4661   */\n      tag_291\n      jump\t// in\n    tag_406:\n        /* \"#utility.yul\":4561:4661   */\n      swap1\n      pop\n        /* \"#utility.yul\":4681:4686   */\n      dup1\n        /* \"#utility.yul\":4710:4716   */\n      dup4\n        /* \"#utility.yul\":4703:4708   */\n      dup3\n        /* \"#utility.yul\":4696:4717   */\n      mstore\n        /* \"#utility.yul\":4744:4748   */\n      0x20\n        /* \"#utility.yul\":4737:4742   */\n      dup3\n        /* \"#utility.yul\":4733:4749   */\n      add\n        /* \"#utility.yul\":4726:4749   */\n      swap1\n      pop\n        /* \"#utility.yul\":4797:4801   */\n      0x20\n        /* \"#utility.yul\":4789:4795   */\n      dup5\n        /* \"#utility.yul\":4785:4802   */\n      mul\n        /* \"#utility.yul\":4777:4783   */\n      dup4\n        /* \"#utility.yul\":4773:4803   */\n      add\n        /* \"#utility.yul\":4826:4829   */\n      dup6\n        /* \"#utility.yul\":4818:4824   */\n      dup2\n        /* \"#utility.yul\":4815:4830   */\n      gt\n        /* \"#utility.yul\":4812:4934   */\n      iszero\n      tag_408\n      jumpi\n        /* \"#utility.yul\":4845:4924   */\n      tag_409\n      tag_297\n      jump\t// in\n    tag_409:\n        /* \"#utility.yul\":4812:4934   */\n    tag_408:\n        /* \"#utility.yul\":4960:4966   */\n      dup4\n        /* \"#utility.yul\":4943:5378   */\n    tag_410:\n        /* \"#utility.yul\":4977:4983   */\n      dup2\n        /* \"#utility.yul\":4972:4975   */\n      dup2\n        /* \"#utility.yul\":4969:4984   */\n      lt\n        /* \"#utility.yul\":4943:5378   */\n      iszero\n      tag_412\n      jumpi\n        /* \"#utility.yul\":5066:5069   */\n      dup1\n        /* \"#utility.yul\":5053:5070   */\n      calldataload\n        /* \"#utility.yul\":5102:5120   */\n      0xffffffffffffffff\n        /* \"#utility.yul\":5089:5100   */\n      dup2\n        /* \"#utility.yul\":5086:5121   */\n      gt\n        /* \"#utility.yul\":5083:5205   */\n      iszero\n      tag_413\n      jumpi\n        /* \"#utility.yul\":5124:5203   */\n      tag_414\n      tag_286\n      jump\t// in\n    tag_414:\n        /* \"#utility.yul\":5083:5205   */\n    tag_413:\n        /* \"#utility.yul\":5248:5259   */\n      dup1\n        /* \"#utility.yul\":5240:5246   */\n      dup7\n        /* \"#utility.yul\":5236:5260   */\n      add\n        /* \"#utility.yul\":5286:5333   */\n      tag_415\n        /* \"#utility.yul\":5329:5332   */\n      dup10\n        /* \"#utility.yul\":5317:5327   */\n      dup3\n        /* \"#utility.yul\":5286:5333   */\n      tag_295\n      jump\t// in\n    tag_415:\n        /* \"#utility.yul\":5281:5284   */\n      dup6\n        /* \"#utility.yul\":5274:5334   */\n      mstore\n        /* \"#utility.yul\":5363:5367   */\n      0x20\n        /* \"#utility.yul\":5358:5361   */\n      dup6\n        /* \"#utility.yul\":5354:5368   */\n      add\n        /* \"#utility.yul\":5347:5368   */\n      swap5\n      pop\n        /* \"#utility.yul\":5019:5378   */\n      pop\n      pop\n        /* \"#utility.yul\":5003:5007   */\n      0x20\n        /* \"#utility.yul\":4998:5001   */\n      dup2\n        /* \"#utility.yul\":4994:5008   */\n      add\n        /* \"#utility.yul\":4987:5008   */\n      swap1\n      pop\n        /* \"#utility.yul\":4943:5378   */\n      jump(tag_410)\n    tag_412:\n        /* \"#utility.yul\":4947:4968   */\n      pop\n        /* \"#utility.yul\":4551:5384   */\n      pop\n      pop\n        /* \"#utility.yul\":4439:5384   */\n      swap4\n      swap3\n      pop\n      pop\n      pop\n      jump\t// out\n        /* \"#utility.yul\":5406:5796   */\n    tag_302:\n        /* \"#utility.yul\":5487:5492   */\n      0x00\n        /* \"#utility.yul\":5536:5539   */\n      dup3\n        /* \"#utility.yul\":5529:5533   */\n      0x1f\n        /* \"#utility.yul\":5521:5527   */\n      dup4\n        /* \"#utility.yul\":5517:5534   */\n      add\n        /* \"#utility.yul\":5513:5540   */\n      slt\n        /* \"#utility.yul\":5503:5625   */\n      tag_417\n      jumpi\n        /* \"#utility.yul\":5544:5623   */\n      tag_418\n      tag_286\n      jump\t// in\n    tag_418:\n        /* \"#utility.yul\":5503:5625   */\n    tag_417:\n        /* \"#utility.yul\":5661:5667   */\n      dup2\n        /* \"#utility.yul\":5648:5668   */\n      calldataload\n        /* \"#utility.yul\":5686:5790   */\n      tag_419\n        /* \"#utility.yul\":5786:5789   */\n      dup5\n        /* \"#utility.yul\":5778:5784   */\n      dup3\n        /* \"#utility.yul\":5771:5775   */\n      0x20\n        /* \"#utility.yul\":5763:5769   */\n      dup7\n        /* \"#utility.yul\":5759:5776   */\n      add\n        /* \"#utility.yul\":5686:5790   */\n      tag_301\n      jump\t// in\n    tag_419:\n        /* \"#utility.yul\":5677:5790   */\n      swap2\n      pop\n        /* \"#utility.yul\":5493:5796   */\n      pop\n        /* \"#utility.yul\":5406:5796   */\n      swap3\n      swap2\n      pop\n      pop\n      jump\t// out\n        /* \"#utility.yul\":5802:5892   */\n    tag_303:\n        /* \"#utility.yul\":5836:5843   */\n      0x00\n        /* \"#utility.yul\":5879:5884   */\n      dup2\n        /* \"#utility.yul\":5872:5885   */\n      iszero\n        /* \"#utility.yul\":5865:5886   */\n      iszero\n        /* \"#utility.yul\":5854:5886   */\n      swap1\n      pop\n        /* \"#utility.yul\":5802:5892   */\n      swap2\n      swap1\n      pop\n      jump\t// out\n        /* \"#utility.yul\":5898:6014   */\n    tag_304:\n        /* \"#utility.yul\":5968:5989   */\n      tag_422\n        /* \"#utility.yul\":5983:5988   */\n      dup2\n        /* \"#utility.yul\":5968:5989   */\n      tag_303\n      jump\t// in\n    tag_422:\n        /* \"#utility.yul\":5961:5966   */\n      dup2\n        /* \"#utility.yul\":5958:5990   */\n      eq\n        /* \"#utility.yul\":5948:6008   */\n      tag_423\n      jumpi\n        /* \"#utility.yul\":6004:6005   */\n      0x00\n        /* \"#utility.yul\":6001:6002   */\n      dup1\n        /* \"#utility.yul\":5994:6006   */\n      revert\n        /* \"#utility.yul\":5948:6008   */\n    tag_423:\n        /* \"#utility.yul\":5898:6014   */\n      pop\n      jump\t// out\n        /* \"#utility.yul\":6020:6153   */\n    tag_305:\n        /* \"#utility.yul\":6063:6068   */\n      0x00\n        /* \"#utility.yul\":6101:6107   */\n      dup2\n        /* \"#utility.yul\":6088:6108   */\n      calldataload\n        /* \"#utility.yul\":6079:6108   */\n      swap1\n      pop\n        /* \"#utility.yul\":6117:6147   */\n      tag_425\n        /* \"#utility.yul\":6141:6146   */\n      dup2\n        /* \"#utility.yul\":6117:6147   */\n      tag_304\n      jump\t// in\n    tag_425:\n        /* \"#utility.yul\":6020:6153   */\n      swap3\n      swap2\n      pop\n      pop\n      jump\t// out\n        /* \"#utility.yul\":6200:9210   */\n    tag_306:\n        /* \"#utility.yul\":6270:6275   */\n      0x00\n        /* \"#utility.yul\":6314:6320   */\n      0x0140\n        /* \"#utility.yul\":6302:6311   */\n      dup3\n        /* \"#utility.yul\":6297:6300   */\n      dup5\n        /* \"#utility.yul\":6293:6312   */\n      sub\n        /* \"#utility.yul\":6289:6321   */\n      slt\n        /* \"#utility.yul\":6286:6405   */\n      iszero\n      tag_427\n      jumpi\n        /* \"#utility.yul\":6324:6403   */\n      tag_428\n      tag_298\n      jump\t// in\n    tag_428:\n        /* \"#utility.yul\":6286:6405   */\n    tag_427:\n        /* \"#utility.yul\":6423:6446   */\n      tag_429\n        /* \"#utility.yul\":6439:6445   */\n      0x0140\n        /* \"#utility.yul\":6423:6446   */\n      tag_291\n      jump\t// in\n    tag_429:\n        /* \"#utility.yul\":6414:6446   */\n      swap1\n      pop\n        /* \"#utility.yul\":6537:6538   */\n      0x00\n        /* \"#utility.yul\":6526:6535   */\n      dup3\n        /* \"#utility.yul\":6522:6539   */\n      add\n        /* \"#utility.yul\":6509:6540   */\n      calldataload\n        /* \"#utility.yul\":6567:6585   */\n      0xffffffffffffffff\n        /* \"#utility.yul\":6559:6565   */\n      dup2\n        /* \"#utility.yul\":6556:6586   */\n      gt\n        /* \"#utility.yul\":6553:6670   */\n      iszero\n      tag_430\n      jumpi\n        /* \"#utility.yul\":6589:6668   */\n      tag_431\n      tag_299\n      jump\t// in\n    tag_431:\n        /* \"#utility.yul\":6553:6670   */\n    tag_430:\n        /* \"#utility.yul\":6709:6768   */\n      tag_432\n        /* \"#utility.yul\":6764:6767   */\n      dup5\n        /* \"#utility.yul\":6755:6761   */\n      dup3\n        /* \"#utility.yul\":6744:6753   */\n      dup6\n        /* \"#utility.yul\":6740:6762   */\n      add\n        /* \"#utility.yul\":6709:6768   */\n      tag_295\n      jump\t// in\n    tag_432:\n        /* \"#utility.yul\":6702:6706   */\n      0x00\n        /* \"#utility.yul\":6695:6700   */\n      dup4\n        /* \"#utility.yul\":6691:6707   */\n      add\n        /* \"#utility.yul\":6684:6769   */\n      mstore\n        /* \"#utility.yul\":6456:6780   */\n      pop\n        /* \"#utility.yul\":6868:6870   */\n      0x20\n        /* \"#utility.yul\":6857:6866   */\n      dup3\n        /* \"#utility.yul\":6853:6871   */\n      add\n        /* \"#utility.yul\":6840:6872   */\n      calldataload\n        /* \"#utility.yul\":6899:6917   */\n      0xffffffffffffffff\n        /* \"#utility.yul\":6891:6897   */\n      dup2\n        /* \"#utility.yul\":6888:6918   */\n      gt\n        /* \"#utility.yul\":6885:7002   */\n      iszero\n      tag_433\n      jumpi\n        /* \"#utility.yul\":6921:7000   */\n      tag_434\n      tag_299\n      jump\t// in\n    tag_434:\n        /* \"#utility.yul\":6885:7002   */\n    tag_433:\n        /* \"#utility.yul\":7041:7100   */\n      tag_435\n        /* \"#utility.yul\":7096:7099   */\n      dup5\n        /* \"#utility.yul\":7087:7093   */\n      dup3\n        /* \"#utility.yul\":7076:7085   */\n      dup6\n        /* \"#utility.yul\":7072:7094   */\n      add\n        /* \"#utility.yul\":7041:7100   */\n      tag_295\n      jump\t// in\n    tag_435:\n        /* \"#utility.yul\":7034:7038   */\n      0x20\n        /* \"#utility.yul\":7027:7032   */\n      dup4\n        /* \"#utility.yul\":7023:7039   */\n      add\n        /* \"#utility.yul\":7016:7101   */\n      mstore\n        /* \"#utility.yul\":6790:7112   */\n      pop\n        /* \"#utility.yul\":7206:7208   */\n      0x40\n        /* \"#utility.yul\":7195:7204   */\n      dup3\n        /* \"#utility.yul\":7191:7209   */\n      add\n        /* \"#utility.yul\":7178:7210   */\n      calldataload\n        /* \"#utility.yul\":7237:7255   */\n      0xffffffffffffffff\n        /* \"#utility.yul\":7229:7235   */\n      dup2\n        /* \"#utility.yul\":7226:7256   */\n      gt\n        /* \"#utility.yul\":7223:7340   */\n      iszero\n      tag_436\n      jumpi\n        /* \"#utility.yul\":7259:7338   */\n      tag_437\n      tag_299\n      jump\t// in\n    tag_437:\n        /* \"#utility.yul\":7223:7340   */\n    tag_436:\n        /* \"#utility.yul\":7379:7438   */\n      tag_438\n        /* \"#utility.yul\":7434:7437   */\n      dup5\n        /* \"#utility.yul\":7425:7431   */\n      dup3\n        /* \"#utility.yul\":7414:7423   */\n      dup6\n        /* \"#utility.yul\":7410:7432   */\n      add\n        /* \"#utility.yul\":7379:7438   */\n      tag_295\n      jump\t// in\n    tag_438:\n        /* \"#utility.yul\":7372:7376   */\n      0x40\n        /* \"#utility.yul\":7365:7370   */\n      dup4\n        /* \"#utility.yul\":7361:7377   */\n      add\n        /* \"#utility.yul\":7354:7439   */\n      mstore\n        /* \"#utility.yul\":7122:7450   */\n      pop\n        /* \"#utility.yul\":7549:7551   */\n      0x60\n        /* \"#utility.yul\":7538:7547   */\n      dup3\n        /* \"#utility.yul\":7534:7552   */\n      add\n        /* \"#utility.yul\":7521:7553   */\n      calldataload\n        /* \"#utility.yul\":7580:7598   */\n      0xffffffffffffffff\n        /* \"#utility.yul\":7572:7578   */\n      dup2\n        /* \"#utility.yul\":7569:7599   */\n      gt\n        /* \"#utility.yul\":7566:7683   */\n      iszero\n      tag_439\n      jumpi\n        /* \"#utility.yul\":7602:7681   */\n      tag_440\n      tag_299\n      jump\t// in\n    tag_440:\n        /* \"#utility.yul\":7566:7683   */\n    tag_439:\n        /* \"#utility.yul\":7722:7781   */\n      tag_441\n        /* \"#utility.yul\":7777:7780   */\n      dup5\n        /* \"#utility.yul\":7768:7774   */\n      dup3\n        /* \"#utility.yul\":7757:7766   */\n      dup6\n        /* \"#utility.yul\":7753:7775   */\n      add\n        /* \"#utility.yul\":7722:7781   */\n      tag_295\n      jump\t// in\n    tag_441:\n        /* \"#utility.yul\":7715:7719   */\n      0x60\n        /* \"#utility.yul\":7708:7713   */\n      dup4\n        /* \"#utility.yul\":7704:7720   */\n      add\n        /* \"#utility.yul\":7697:7782   */\n      mstore\n        /* \"#utility.yul\":7460:7793   */\n      pop\n        /* \"#utility.yul\":7853:7856   */\n      0x80\n        /* \"#utility.yul\":7895:7944   */\n      tag_442\n        /* \"#utility.yul\":7940:7943   */\n      dup5\n        /* \"#utility.yul\":7931:7937   */\n      dup3\n        /* \"#utility.yul\":7920:7929   */\n      dup6\n        /* \"#utility.yul\":7916:7938   */\n      add\n        /* \"#utility.yul\":7895:7944   */\n      tag_285\n      jump\t// in\n    tag_442:\n        /* \"#utility.yul\":7888:7892   */\n      0x80\n        /* \"#utility.yul\":7881:7886   */\n      dup4\n        /* \"#utility.yul\":7877:7893   */\n      add\n        /* \"#utility.yul\":7870:7945   */\n      mstore\n        /* \"#utility.yul\":7803:7956   */\n      pop\n        /* \"#utility.yul\":8053:8056   */\n      0xa0\n        /* \"#utility.yul\":8042:8051   */\n      dup3\n        /* \"#utility.yul\":8038:8057   */\n      add\n        /* \"#utility.yul\":8025:8058   */\n      calldataload\n        /* \"#utility.yul\":8085:8103   */\n      0xffffffffffffffff\n        /* \"#utility.yul\":8077:8083   */\n      dup2\n        /* \"#utility.yul\":8074:8104   */\n      gt\n        /* \"#utility.yul\":8071:8188   */\n      iszero\n      tag_443\n      jumpi\n        /* \"#utility.yul\":8107:8186   */\n      tag_444\n      tag_299\n      jump\t// in\n    tag_444:\n        /* \"#utility.yul\":8071:8188   */\n    tag_443:\n        /* \"#utility.yul\":8227:8311   */\n      tag_445\n        /* \"#utility.yul\":8307:8310   */\n      dup5\n        /* \"#utility.yul\":8298:8304   */\n      dup3\n        /* \"#utility.yul\":8287:8296   */\n      dup6\n        /* \"#utility.yul\":8283:8305   */\n      add\n        /* \"#utility.yul\":8227:8311   */\n      tag_302\n      jump\t// in\n    tag_445:\n        /* \"#utility.yul\":8220:8224   */\n      0xa0\n        /* \"#utility.yul\":8213:8218   */\n      dup4\n        /* \"#utility.yul\":8209:8225   */\n      add\n        /* \"#utility.yul\":8202:8312   */\n      mstore\n        /* \"#utility.yul\":7966:8323   */\n      pop\n        /* \"#utility.yul\":8417:8420   */\n      0xc0\n        /* \"#utility.yul\":8406:8415   */\n      dup3\n        /* \"#utility.yul\":8402:8421   */\n      add\n        /* \"#utility.yul\":8389:8422   */\n      calldataload\n        /* \"#utility.yul\":8449:8467   */\n      0xffffffffffffffff\n        /* \"#utility.yul\":8441:8447   */\n      dup2\n        /* \"#utility.yul\":8438:8468   */\n      gt\n        /* \"#utility.yul\":8435:8552   */\n      iszero\n      tag_446\n      jumpi\n        /* \"#utility.yul\":8471:8550   */\n      tag_447\n      tag_299\n      jump\t// in\n    tag_447:\n        /* \"#utility.yul\":8435:8552   */\n    tag_446:\n        /* \"#utility.yul\":8591:8675   */\n      tag_448\n        /* \"#utility.yul\":8671:8674   */\n      dup5\n        /* \"#utility.yul\":8662:8668   */\n      dup3\n        /* \"#utility.yul\":8651:8660   */\n      dup6\n        /* \"#utility.yul\":8647:8669   */\n      add\n        /* \"#utility.yul\":8591:8675   */\n      tag_302\n      jump\t// in\n    tag_448:\n        /* \"#utility.yul\":8584:8588   */\n      0xc0\n        /* \"#utility.yul\":8577:8582   */\n      dup4\n        /* \"#utility.yul\":8573:8589   */\n      add\n        /* \"#utility.yul\":8566:8676   */\n      mstore\n        /* \"#utility.yul\":8333:8687   */\n      pop\n        /* \"#utility.yul\":8757:8760   */\n      0xe0\n        /* \"#utility.yul\":8799:8848   */\n      tag_449\n        /* \"#utility.yul\":8844:8847   */\n      dup5\n        /* \"#utility.yul\":8835:8841   */\n      dup3\n        /* \"#utility.yul\":8824:8833   */\n      dup6\n        /* \"#utility.yul\":8820:8842   */\n      add\n        /* \"#utility.yul\":8799:8848   */\n      tag_285\n      jump\t// in\n    tag_449:\n        /* \"#utility.yul\":8792:8796   */\n      0xe0\n        /* \"#utility.yul\":8785:8790   */\n      dup4\n        /* \"#utility.yul\":8781:8797   */\n      add\n        /* \"#utility.yul\":8774:8849   */\n      mstore\n        /* \"#utility.yul\":8697:8860   */\n      pop\n        /* \"#utility.yul\":8932:8935   */\n      0x0100\n        /* \"#utility.yul\":8976:9025   */\n      tag_450\n        /* \"#utility.yul\":9021:9024   */\n      dup5\n        /* \"#utility.yul\":9012:9018   */\n      dup3\n        /* \"#utility.yul\":9001:9010   */\n      dup6\n        /* \"#utility.yul\":8997:9019   */\n      add\n        /* \"#utility.yul\":8976:9025   */\n      tag_285\n      jump\t// in\n    tag_450:\n        /* \"#utility.yul\":8967:8973   */\n      0x0100\n        /* \"#utility.yul\":8960:8965   */\n      dup4\n        /* \"#utility.yul\":8956:8974   */\n      add\n        /* \"#utility.yul\":8949:9026   */\n      mstore\n        /* \"#utility.yul\":8870:9037   */\n      pop\n        /* \"#utility.yul\":9101:9104   */\n      0x0120\n        /* \"#utility.yul\":9145:9191   */\n      tag_451\n        /* \"#utility.yul\":9187:9190   */\n      dup5\n        /* \"#utility.yul\":9178:9184   */\n      dup3\n        /* \"#utility.yul\":9167:9176   */\n      dup6\n        /* \"#utility.yul\":9163:9185   */\n      add\n        /* \"#utility.yul\":9145:9191   */\n      tag_305\n      jump\t// in\n    tag_451:\n        /* \"#utility.yul\":9136:9142   */\n      0x0120\n        /* \"#utility.yul\":9129:9134   */\n      dup4\n        /* \"#utility.yul\":9125:9143   */\n      add\n        /* \"#utility.yul\":9118:9192   */\n      mstore\n        /* \"#utility.yul\":9047:9203   */\n      pop\n        /* \"#utility.yul\":6200:9210   */\n      swap3\n      swap2\n      pop\n      pop\n      jump\t// out\n        /* \"#utility.yul\":9259:10237   */\n    tag_307:\n        /* \"#utility.yul\":9376:9381   */\n      0x00\n        /* \"#utility.yul\":9401:9503   */\n      tag_453\n        /* \"#utility.yul\":9417:9502   */\n      tag_454\n        /* \"#utility.yul\":9495:9501   */\n      dup5\n        /* \"#utility.yul\":9417:9502   */\n      tag_296\n      jump\t// in\n    tag_454:\n        /* \"#utility.yul\":9401:9503   */\n      tag_291\n      jump\t// in\n    tag_453:\n        /* \"#utility.yul\":9392:9503   */\n      swap1\n      pop\n        /* \"#utility.yul\":9523:9528   */\n      dup1\n        /* \"#utility.yul\":9552:9558   */\n      dup4\n        /* \"#utility.yul\":9545:9550   */\n      dup3\n        /* \"#utility.yul\":9538:9559   */\n      mstore\n        /* \"#utility.yul\":9586:9590   */\n      0x20\n        /* \"#utility.yul\":9579:9584   */\n      dup3\n        /* \"#utility.yul\":9575:9591   */\n      add\n        /* \"#utility.yul\":9568:9591   */\n      swap1\n      pop\n        /* \"#utility.yul\":9639:9643   */\n      0x20\n        /* \"#utility.yul\":9631:9637   */\n      dup5\n        /* \"#utility.yul\":9627:9644   */\n      mul\n        /* \"#utility.yul\":9619:9625   */\n      dup4\n        /* \"#utility.yul\":9615:9645   */\n      add\n        /* \"#utility.yul\":9668:9671   */\n      dup6\n        /* \"#utility.yul\":9660:9666   */\n      dup2\n        /* \"#utility.yul\":9657:9672   */\n      gt\n        /* \"#utility.yul\":9654:9776   */\n      iszero\n      tag_455\n      jumpi\n        /* \"#utility.yul\":9687:9766   */\n      tag_456\n      tag_297\n      jump\t// in\n    tag_456:\n        /* \"#utility.yul\":9654:9776   */\n    tag_455:\n        /* \"#utility.yul\":9802:9808   */\n      dup4\n        /* \"#utility.yul\":9785:10231   */\n    tag_457:\n        /* \"#utility.yul\":9819:9825   */\n      dup2\n        /* \"#utility.yul\":9814:9817   */\n      dup2\n        /* \"#utility.yul\":9811:9826   */\n      lt\n        /* \"#utility.yul\":9785:10231   */\n      iszero\n      tag_459\n      jumpi\n        /* \"#utility.yul\":9908:9911   */\n      dup1\n        /* \"#utility.yul\":9895:9912   */\n      calldataload\n        /* \"#utility.yul\":9944:9962   */\n      0xffffffffffffffff\n        /* \"#utility.yul\":9931:9942   */\n      dup2\n        /* \"#utility.yul\":9928:9963   */\n      gt\n        /* \"#utility.yul\":9925:10047   */\n      iszero\n      tag_460\n      jumpi\n        /* \"#utility.yul\":9966:10045   */\n      tag_461\n      tag_286\n      jump\t// in\n    tag_461:\n        /* \"#utility.yul\":9925:10047   */\n    tag_460:\n        /* \"#utility.yul\":10090:10101   */\n      dup1\n        /* \"#utility.yul\":10082:10088   */\n      dup7\n        /* \"#utility.yul\":10078:10102   */\n      add\n        /* \"#utility.yul\":10128:10186   */\n      tag_462\n        /* \"#utility.yul\":10182:10185   */\n      dup10\n        /* \"#utility.yul\":10170:10180   */\n      dup3\n        /* \"#utility.yul\":10128:10186   */\n      tag_306\n      jump\t// in\n    tag_462:\n        /* \"#utility.yul\":10123:10126   */\n      dup6\n        /* \"#utility.yul\":10116:10187   */\n      mstore\n        /* \"#utility.yul\":10216:10220   */\n      0x20\n        /* \"#utility.yul\":10211:10214   */\n      dup6\n        /* \"#utility.yul\":10207:10221   */\n      add\n        /* \"#utility.yul\":10200:10221   */\n      swap5\n      pop\n        /* \"#utility.yul\":9861:10231   */\n      pop\n      pop\n        /* \"#utility.yul\":9845:9849   */\n      0x20\n        /* \"#utility.yul\":9840:9843   */\n      dup2\n        /* \"#utility.yul\":9836:9850   */\n      add\n        /* \"#utility.yul\":9829:9850   */\n      swap1\n      pop\n        /* \"#utility.yul\":9785:10231   */\n      jump(tag_457)\n    tag_459:\n        /* \"#utility.yul\":9789:9810   */\n      pop\n        /* \"#utility.yul\":9382:10237   */\n      pop\n      pop\n        /* \"#utility.yul\":9259:10237   */\n      swap4\n      swap3\n      pop\n      pop\n      pop\n      jump\t// out\n        /* \"#utility.yul\":10286:10698   */\n    tag_308:\n        /* \"#utility.yul\":10378:10383   */\n      0x00\n        /* \"#utility.yul\":10427:10430   */\n      dup3\n        /* \"#utility.yul\":10420:10424   */\n      0x1f\n        /* \"#utility.yul\":10412:10418   */\n      dup4\n        /* \"#utility.yul\":10408:10425   */\n      add\n        /* \"#utility.yul\":10404:10431   */\n      slt\n        /* \"#utility.yul\":10394:10516   */\n      tag_464\n      jumpi\n        /* \"#utility.yul\":10435:10514   */\n      tag_465\n      tag_286\n      jump\t// in\n    tag_465:\n        /* \"#utility.yul\":10394:10516   */\n    tag_464:\n        /* \"#utility.yul\":10552:10558   */\n      dup2\n        /* \"#utility.yul\":10539:10559   */\n      calldataload\n        /* \"#utility.yul\":10577:10692   */\n      tag_466\n        /* \"#utility.yul\":10688:10691   */\n      dup5\n        /* \"#utility.yul\":10680:10686   */\n      dup3\n        /* \"#utility.yul\":10673:10677   */\n      0x20\n        /* \"#utility.yul\":10665:10671   */\n      dup7\n        /* \"#utility.yul\":10661:10678   */\n      add\n        /* \"#utility.yul\":10577:10692   */\n      tag_307\n      jump\t// in\n    tag_466:\n        /* \"#utility.yul\":10568:10692   */\n      swap2\n      pop\n        /* \"#utility.yul\":10384:10698   */\n      pop\n        /* \"#utility.yul\":10286:10698   */\n      swap3\n      swap2\n      pop\n      pop\n      jump\t// out\n        /* \"#utility.yul\":10704:13205   */\n    tag_27:\n        /* \"#utility.yul\":10922:10928   */\n      0x00\n        /* \"#utility.yul\":10930:10936   */\n      dup1\n        /* \"#utility.yul\":10938:10944   */\n      0x00\n        /* \"#utility.yul\":10946:10952   */\n      dup1\n        /* \"#utility.yul\":10954:10960   */\n      0x00\n        /* \"#utility.yul\":10962:10968   */\n      dup1\n        /* \"#utility.yul\":10970:10976   */\n      0x00\n        /* \"#utility.yul\":10978:10984   */\n      dup1\n        /* \"#utility.yul\":11027:11030   */\n      0x0100\n        /* \"#utility.yul\":11015:11024   */\n      dup10\n        /* \"#utility.yul\":11006:11013   */\n      dup12\n        /* \"#utility.yul\":11002:11025   */\n      sub\n        /* \"#utility.yul\":10998:11031   */\n      slt\n        /* \"#utility.yul\":10995:11115   */\n      iszero\n      tag_468\n      jumpi\n        /* \"#utility.yul\":11034:11113   */\n      tag_469\n      tag_281\n      jump\t// in\n    tag_469:\n        /* \"#utility.yul\":10995:11115   */\n    tag_468:\n        /* \"#utility.yul\":11182:11183   */\n      0x00\n        /* \"#utility.yul\":11171:11180   */\n      dup10\n        /* \"#utility.yul\":11167:11184   */\n      add\n        /* \"#utility.yul\":11154:11185   */\n      calldataload\n        /* \"#utility.yul\":11212:11230   */\n      0xffffffffffffffff\n        /* \"#utility.yul\":11204:11210   */\n      dup2\n        /* \"#utility.yul\":11201:11231   */\n      gt\n        /* \"#utility.yul\":11198:11315   */\n      iszero\n      tag_470\n      jumpi\n        /* \"#utility.yul\":11234:11313   */\n      tag_471\n      tag_282\n      jump\t// in\n    tag_471:\n        /* \"#utility.yul\":11198:11315   */\n    tag_470:\n        /* \"#utility.yul\":11339:11402   */\n      tag_472\n        /* \"#utility.yul\":11394:11401   */\n      dup12\n        /* \"#utility.yul\":11385:11391   */\n      dup3\n        /* \"#utility.yul\":11374:11383   */\n      dup13\n        /* \"#utility.yul\":11370:11392   */\n      add\n        /* \"#utility.yul\":11339:11402   */\n      tag_295\n      jump\t// in\n    tag_472:\n        /* \"#utility.yul\":11329:11402   */\n      swap9\n      pop\n        /* \"#utility.yul\":11125:11412   */\n      pop\n        /* \"#utility.yul\":11479:11481   */\n      0x20\n        /* \"#utility.yul\":11468:11477   */\n      dup10\n        /* \"#utility.yul\":11464:11482   */\n      add\n        /* \"#utility.yul\":11451:11483   */\n      calldataload\n        /* \"#utility.yul\":11510:11528   */\n      0xffffffffffffffff\n        /* \"#utility.yul\":11502:11508   */\n      dup2\n        /* \"#utility.yul\":11499:11529   */\n      gt\n        /* \"#utility.yul\":11496:11613   */\n      iszero\n      tag_473\n      jumpi\n        /* \"#utility.yul\":11532:11611   */\n      tag_474\n      tag_282\n      jump\t// in\n    tag_474:\n        /* \"#utility.yul\":11496:11613   */\n    tag_473:\n        /* \"#utility.yul\":11637:11700   */\n      tag_475\n        /* \"#utility.yul\":11692:11699   */\n      dup12\n        /* \"#utility.yul\":11683:11689   */\n      dup3\n        /* \"#utility.yul\":11672:11681   */\n      dup13\n        /* \"#utility.yul\":11668:11690   */\n      add\n        /* \"#utility.yul\":11637:11700   */\n      tag_295\n      jump\t// in\n    tag_475:\n        /* \"#utility.yul\":11627:11700   */\n      swap8\n      pop\n        /* \"#utility.yul\":11422:11710   */\n      pop\n        /* \"#utility.yul\":11777:11779   */\n      0x40\n        /* \"#utility.yul\":11766:11775   */\n      dup10\n        /* \"#utility.yul\":11762:11780   */\n      add\n        /* \"#utility.yul\":11749:11781   */\n      calldataload\n        /* \"#utility.yul\":11808:11826   */\n      0xffffffffffffffff\n        /* \"#utility.yul\":11800:11806   */\n      dup2\n        /* \"#utility.yul\":11797:11827   */\n      gt\n        /* \"#utility.yul\":11794:11911   */\n      iszero\n      tag_476\n      jumpi\n        /* \"#utility.yul\":11830:11909   */\n      tag_477\n      tag_282\n      jump\t// in\n    tag_477:\n        /* \"#utility.yul\":11794:11911   */\n    tag_476:\n        /* \"#utility.yul\":11935:11998   */\n      tag_478\n        /* \"#utility.yul\":11990:11997   */\n      dup12\n        /* \"#utility.yul\":11981:11987   */\n      dup3\n        /* \"#utility.yul\":11970:11979   */\n      dup13\n        /* \"#utility.yul\":11966:11988   */\n      add\n        /* \"#utility.yul\":11935:11998   */\n      tag_295\n      jump\t// in\n    tag_478:\n        /* \"#utility.yul\":11925:11998   */\n      swap7\n      pop\n        /* \"#utility.yul\":11720:12008   */\n      pop\n        /* \"#utility.yul\":12075:12077   */\n      0x60\n        /* \"#utility.yul\":12064:12073   */\n      dup10\n        /* \"#utility.yul\":12060:12078   */\n      add\n        /* \"#utility.yul\":12047:12079   */\n      calldataload\n        /* \"#utility.yul\":12106:12124   */\n      0xffffffffffffffff\n        /* \"#utility.yul\":12098:12104   */\n      dup2\n        /* \"#utility.yul\":12095:12125   */\n      gt\n        /* \"#utility.yul\":12092:12209   */\n      iszero\n      tag_479\n      jumpi\n        /* \"#utility.yul\":12128:12207   */\n      tag_480\n      tag_282\n      jump\t// in\n    tag_480:\n        /* \"#utility.yul\":12092:12209   */\n    tag_479:\n        /* \"#utility.yul\":12233:12296   */\n      tag_481\n        /* \"#utility.yul\":12288:12295   */\n      dup12\n        /* \"#utility.yul\":12279:12285   */\n      dup3\n        /* \"#utility.yul\":12268:12277   */\n      dup13\n        /* \"#utility.yul\":12264:12286   */\n      add\n        /* \"#utility.yul\":12233:12296   */\n      tag_295\n      jump\t// in\n    tag_481:\n        /* \"#utility.yul\":12223:12296   */\n      swap6\n      pop\n        /* \"#utility.yul\":12018:12306   */\n      pop\n        /* \"#utility.yul\":12373:12376   */\n      0x80\n        /* \"#utility.yul\":12362:12371   */\n      dup10\n        /* \"#utility.yul\":12358:12377   */\n      add\n        /* \"#utility.yul\":12345:12378   */\n      calldataload\n        /* \"#utility.yul\":12405:12423   */\n      0xffffffffffffffff\n        /* \"#utility.yul\":12397:12403   */\n      dup2\n        /* \"#utility.yul\":12394:12424   */\n      gt\n        /* \"#utility.yul\":12391:12508   */\n      iszero\n      tag_482\n      jumpi\n        /* \"#utility.yul\":12427:12506   */\n      tag_483\n      tag_282\n      jump\t// in\n    tag_483:\n        /* \"#utility.yul\":12391:12508   */\n    tag_482:\n        /* \"#utility.yul\":12532:12595   */\n      tag_484\n        /* \"#utility.yul\":12587:12594   */\n      dup12\n        /* \"#utility.yul\":12578:12584   */\n      dup3\n        /* \"#utility.yul\":12567:12576   */\n      dup13\n        /* \"#utility.yul\":12563:12585   */\n      add\n        /* \"#utility.yul\":12532:12595   */\n      tag_295\n      jump\t// in\n    tag_484:\n        /* \"#utility.yul\":12522:12595   */\n      swap5\n      pop\n        /* \"#utility.yul\":12316:12605   */\n      pop\n        /* \"#utility.yul\":12644:12647   */\n      0xa0\n        /* \"#utility.yul\":12671:12724   */\n      tag_485\n        /* \"#utility.yul\":12716:12723   */\n      dup12\n        /* \"#utility.yul\":12707:12713   */\n      dup3\n        /* \"#utility.yul\":12696:12705   */\n      dup13\n        /* \"#utility.yul\":12692:12714   */\n      add\n        /* \"#utility.yul\":12671:12724   */\n      tag_285\n      jump\t// in\n    tag_485:\n        /* \"#utility.yul\":12661:12724   */\n      swap4\n      pop\n        /* \"#utility.yul\":12615:12734   */\n      pop\n        /* \"#utility.yul\":12773:12776   */\n      0xc0\n        /* \"#utility.yul\":12800:12853   */\n      tag_486\n        /* \"#utility.yul\":12845:12852   */\n      dup12\n        /* \"#utility.yul\":12836:12842   */\n      dup3\n        /* \"#utility.yul\":12825:12834   */\n      dup13\n        /* \"#utility.yul\":12821:12843   */\n      add\n        /* \"#utility.yul\":12800:12853   */\n      tag_285\n      jump\t// in\n    tag_486:\n        /* \"#utility.yul\":12790:12853   */\n      swap3\n      pop\n        /* \"#utility.yul\":12744:12863   */\n      pop\n        /* \"#utility.yul\":12930:12933   */\n      0xe0\n        /* \"#utility.yul\":12919:12928   */\n      dup10\n        /* \"#utility.yul\":12915:12934   */\n      add\n        /* \"#utility.yul\":12902:12935   */\n      calldataload\n        /* \"#utility.yul\":12962:12980   */\n      0xffffffffffffffff\n        /* \"#utility.yul\":12954:12960   */\n      dup2\n        /* \"#utility.yul\":12951:12981   */\n      gt\n        /* \"#utility.yul\":12948:13065   */\n      iszero\n      tag_487\n      jumpi\n        /* \"#utility.yul\":12984:13063   */\n      tag_488\n      tag_282\n      jump\t// in\n    tag_488:\n        /* \"#utility.yul\":12948:13065   */\n    tag_487:\n        /* \"#utility.yul\":13089:13188   */\n      tag_489\n        /* \"#utility.yul\":13180:13187   */\n      dup12\n        /* \"#utility.yul\":13171:13177   */\n      dup3\n        /* \"#utility.yul\":13160:13169   */\n      dup13\n        /* \"#utility.yul\":13156:13178   */\n      add\n        /* \"#utility.yul\":13089:13188   */\n      tag_308\n      jump\t// in\n    tag_489:\n        /* \"#utility.yul\":13079:13188   */\n      swap2\n      pop\n        /* \"#utility.yul\":12873:13198   */\n      pop\n        /* \"#utility.yul\":10704:13205   */\n      swap3\n      swap6\n      swap9\n      pop\n      swap3\n      swap6\n      swap9\n      swap1\n      swap4\n      swap7\n      pop\n      jump\t// out\n        /* \"#utility.yul\":13211:14067   */\n    tag_31:\n        /* \"#utility.yul\":13310:13316   */\n      0x00\n        /* \"#utility.yul\":13318:13324   */\n      dup1\n        /* \"#utility.yul\":13367:13369   */\n      0x40\n        /* \"#utility.yul\":13355:13364   */\n      dup4\n        /* \"#utility.yul\":13346:13353   */\n      dup6\n        /* \"#utility.yul\":13342:13365   */\n      sub\n        /* \"#utility.yul\":13338:13370   */\n      slt\n        /* \"#utility.yul\":13335:13454   */\n      iszero\n      tag_491\n      jumpi\n        /* \"#utility.yul\":13373:13452   */\n      tag_492\n      tag_281\n      jump\t// in\n    tag_492:\n        /* \"#utility.yul\":13335:13454   */\n    tag_491:\n        /* \"#utility.yul\":13521:13522   */\n      0x00\n        /* \"#utility.yul\":13510:13519   */\n      dup4\n        /* \"#utility.yul\":13506:13523   */\n      add\n        /* \"#utility.yul\":13493:13524   */\n      calldataload\n        /* \"#utility.yul\":13551:13569   */\n      0xffffffffffffffff\n        /* \"#utility.yul\":13543:13549   */\n      dup2\n        /* \"#utility.yul\":13540:13570   */\n      gt\n        /* \"#utility.yul\":13537:13654   */\n      iszero\n      tag_493\n      jumpi\n        /* \"#utility.yul\":13573:13652   */\n      tag_494\n      tag_282\n      jump\t// in\n    tag_494:\n        /* \"#utility.yul\":13537:13654   */\n    tag_493:\n        /* \"#utility.yul\":13678:13741   */\n      tag_495\n        /* \"#utility.yul\":13733:13740   */\n      dup6\n        /* \"#utility.yul\":13724:13730   */\n      dup3\n        /* \"#utility.yul\":13713:13722   */\n      dup7\n        /* \"#utility.yul\":13709:13731   */\n      add\n        /* \"#utility.yul\":13678:13741   */\n      tag_295\n      jump\t// in\n    tag_495:\n        /* \"#utility.yul\":13668:13741   */\n      swap3\n      pop\n        /* \"#utility.yul\":13464:13751   */\n      pop\n        /* \"#utility.yul\":13818:13820   */\n      0x20\n        /* \"#utility.yul\":13807:13816   */\n      dup4\n        /* \"#utility.yul\":13803:13821   */\n      add\n        /* \"#utility.yul\":13790:13822   */\n      calldataload\n        /* \"#utility.yul\":13849:13867   */\n      0xffffffffffffffff\n        /* \"#utility.yul\":13841:13847   */\n      dup2\n        /* \"#utility.yul\":13838:13868   */\n      gt\n        /* \"#utility.yul\":13835:13952   */\n      iszero\n      tag_496\n      jumpi\n        /* \"#utility.yul\":13871:13950   */\n      tag_497\n      tag_282\n      jump\t// in\n    tag_497:\n        /* \"#utility.yul\":13835:13952   */\n    tag_496:\n        /* \"#utility.yul\":13976:14050   */\n      tag_498\n        /* \"#utility.yul\":14042:14049   */\n      dup6\n        /* \"#utility.yul\":14033:14039   */\n      dup3\n        /* \"#utility.yul\":14022:14031   */\n      dup7\n        /* \"#utility.yul\":14018:14040   */\n      add\n        /* \"#utility.yul\":13976:14050   */\n      tag_306\n      jump\t// in\n    tag_498:\n        /* \"#utility.yul\":13966:14050   */\n      swap2\n      pop\n        /* \"#utility.yul\":13761:14060   */\n      pop\n        /* \"#utility.yul\":13211:14067   */\n      swap3\n      pop\n      swap3\n      swap1\n      pop\n      jump\t// out\n        /* \"#utility.yul\":14073:14402   */\n    tag_35:\n        /* \"#utility.yul\":14132:14138   */\n      0x00\n        /* \"#utility.yul\":14181:14183   */\n      0x20\n        /* \"#utility.yul\":14169:14178   */\n      dup3\n        /* \"#utility.yul\":14160:14167   */\n      dup5\n        /* \"#utility.yul\":14156:14179   */\n      sub\n        /* \"#utility.yul\":14152:14184   */\n      slt\n        /* \"#utility.yul\":14149:14268   */\n      iszero\n      tag_500\n      jumpi\n        /* \"#utility.yul\":14187:14266   */\n      tag_501\n      tag_281\n      jump\t// in\n    tag_501:\n        /* \"#utility.yul\":14149:14268   */\n    tag_500:\n        /* \"#utility.yul\":14307:14308   */\n      0x00\n        /* \"#utility.yul\":14332:14385   */\n      tag_502\n        /* \"#utility.yul\":14377:14384   */\n      dup5\n        /* \"#utility.yul\":14368:14374   */\n      dup3\n        /* \"#utility.yul\":14357:14366   */\n      dup6\n        /* \"#utility.yul\":14353:14375   */\n      add\n        /* \"#utility.yul\":14332:14385   */\n      tag_285\n      jump\t// in\n    tag_502:\n        /* \"#utility.yul\":14322:14385   */\n      swap2\n      pop\n        /* \"#utility.yul\":14278:14395   */\n      pop\n        /* \"#utility.yul\":14073:14402   */\n      swap3\n      swap2\n      pop\n      pop\n      jump\t// out\n        /* \"#utility.yul\":14408:14507   */\n    tag_309:\n        /* \"#utility.yul\":14460:14466   */\n      0x00\n        /* \"#utility.yul\":14494:14499   */\n      dup2\n        /* \"#utility.yul\":14488:14500   */\n      mload\n        /* \"#utility.yul\":14478:14500   */\n      swap1\n      pop\n        /* \"#utility.yul\":14408:14507   */\n      swap2\n      swap1\n      pop\n      jump\t// out\n        /* \"#utility.yul\":14513:14682   */\n    tag_310:\n        /* \"#utility.yul\":14597:14608   */\n      0x00\n        /* \"#utility.yul\":14631:14637   */\n      dup3\n        /* \"#utility.yul\":14626:14629   */\n      dup3\n        /* \"#utility.yul\":14619:14638   */\n      mstore\n        /* \"#utility.yul\":14671:14675   */\n      0x20\n        /* \"#utility.yul\":14666:14669   */\n      dup3\n        /* \"#utility.yul\":14662:14676   */\n      add\n        /* \"#utility.yul\":14647:14676   */\n      swap1\n      pop\n        /* \"#utility.yul\":14513:14682   */\n      swap3\n      swap2\n      pop\n      pop\n      jump\t// out\n        /* \"#utility.yul\":14688:14934   */\n    tag_311:\n        /* \"#utility.yul\":14769:14770   */\n      0x00\n        /* \"#utility.yul\":14779:14892   */\n    tag_506:\n        /* \"#utility.yul\":14793:14799   */\n      dup4\n        /* \"#utility.yul\":14790:14791   */\n      dup2\n        /* \"#utility.yul\":14787:14800   */\n      lt\n        /* \"#utility.yul\":14779:14892   */\n      iszero\n      tag_508\n      jumpi\n        /* \"#utility.yul\":14878:14879   */\n      dup1\n        /* \"#utility.yul\":14873:14876   */\n      dup3\n        /* \"#utility.yul\":14869:14880   */\n      add\n        /* \"#utility.yul\":14863:14881   */\n      mload\n        /* \"#utility.yul\":14859:14860   */\n      dup2\n        /* \"#utility.yul\":14854:14857   */\n      dup5\n        /* \"#utility.yul\":14850:14861   */\n      add\n        /* \"#utility.yul\":14843:14882   */\n      mstore\n        /* \"#utility.yul\":14815:14817   */\n      0x20\n        /* \"#utility.yul\":14812:14813   */\n      dup2\n        /* \"#utility.yul\":14808:14818   */\n      add\n        /* \"#utility.yul\":14803:14818   */\n      swap1\n      pop\n        /* \"#utility.yul\":14779:14892   */\n      jump(tag_506)\n    tag_508:\n        /* \"#utility.yul\":14926:14927   */\n      0x00\n        /* \"#utility.yul\":14917:14923   */\n      dup5\n        /* \"#utility.yul\":14912:14915   */\n      dup5\n        /* \"#utility.yul\":14908:14924   */\n      add\n        /* \"#utility.yul\":14901:14928   */\n      mstore\n        /* \"#utility.yul\":14750:14934   */\n      pop\n        /* \"#utility.yul\":14688:14934   */\n      pop\n      pop\n      pop\n      jump\t// out\n        /* \"#utility.yul\":14940:15317   */\n    tag_312:\n        /* \"#utility.yul\":15028:15031   */\n      0x00\n        /* \"#utility.yul\":15056:15095   */\n      tag_510\n        /* \"#utility.yul\":15089:15094   */\n      dup3\n        /* \"#utility.yul\":15056:15095   */\n      tag_309\n      jump\t// in\n    tag_510:\n        /* \"#utility.yul\":15111:15182   */\n      tag_511\n        /* \"#utility.yul\":15175:15181   */\n      dup2\n        /* \"#utility.yul\":15170:15173   */\n      dup6\n        /* \"#utility.yul\":15111:15182   */\n      tag_310\n      jump\t// in\n    tag_511:\n        /* \"#utility.yul\":15104:15182   */\n      swap4\n      pop\n        /* \"#utility.yul\":15191:15256   */\n      tag_512\n        /* \"#utility.yul\":15249:15255   */\n      dup2\n        /* \"#utility.yul\":15244:15247   */\n      dup6\n        /* \"#utility.yul\":15237:15241   */\n      0x20\n        /* \"#utility.yul\":15230:15235   */\n      dup7\n        /* \"#utility.yul\":15226:15242   */\n      add\n        /* \"#utility.yul\":15191:15256   */\n      tag_311\n      jump\t// in\n    tag_512:\n        /* \"#utility.yul\":15281:15310   */\n      tag_513\n        /* \"#utility.yul\":15303:15309   */\n      dup2\n        /* \"#utility.yul\":15281:15310   */\n      tag_288\n      jump\t// in\n    tag_513:\n        /* \"#utility.yul\":15276:15279   */\n      dup5\n        /* \"#utility.yul\":15272:15311   */\n      add\n        /* \"#utility.yul\":15265:15311   */\n      swap2\n      pop\n        /* \"#utility.yul\":15032:15317   */\n      pop\n        /* \"#utility.yul\":14940:15317   */\n      swap3\n      swap2\n      pop\n      pop\n      jump\t// out\n        /* \"#utility.yul\":15323:15636   */\n    tag_38:\n        /* \"#utility.yul\":15436:15440   */\n      0x00\n        /* \"#utility.yul\":15474:15476   */\n      0x20\n        /* \"#utility.yul\":15463:15472   */\n      dup3\n        /* \"#utility.yul\":15459:15477   */\n      add\n        /* \"#utility.yul\":15451:15477   */\n      swap1\n      pop\n        /* \"#utility.yul\":15523:15532   */\n      dup2\n        /* \"#utility.yul\":15517:15521   */\n      dup2\n        /* \"#utility.yul\":15513:15533   */\n      sub\n        /* \"#utility.yul\":15509:15510   */\n      0x00\n        /* \"#utility.yul\":15498:15507   */\n      dup4\n        /* \"#utility.yul\":15494:15511   */\n      add\n        /* \"#utility.yul\":15487:15534   */\n      mstore\n        /* \"#utility.yul\":15551:15629   */\n      tag_515\n        /* \"#utility.yul\":15624:15628   */\n      dup2\n        /* \"#utility.yul\":15615:15621   */\n      dup5\n        /* \"#utility.yul\":15551:15629   */\n      tag_312\n      jump\t// in\n    tag_515:\n        /* \"#utility.yul\":15543:15629   */\n      swap1\n      pop\n        /* \"#utility.yul\":15323:15636   */\n      swap3\n      swap2\n      pop\n      pop\n      jump\t// out\n        /* \"#utility.yul\":15642:15766   */\n    tag_313:\n        /* \"#utility.yul\":15719:15725   */\n      0x00\n        /* \"#utility.yul\":15753:15758   */\n      dup2\n        /* \"#utility.yul\":15747:15759   */\n      mload\n        /* \"#utility.yul\":15737:15759   */\n      swap1\n      pop\n        /* \"#utility.yul\":15642:15766   */\n      swap2\n      swap1\n      pop\n      jump\t// out\n        /* \"#utility.yul\":15772:15966   */\n    tag_314:\n        /* \"#utility.yul\":15881:15892   */\n      0x00\n        /* \"#utility.yul\":15915:15921   */\n      dup3\n        /* \"#utility.yul\":15910:15913   */\n      dup3\n        /* \"#utility.yul\":15903:15922   */\n      mstore\n        /* \"#utility.yul\":15955:15959   */\n      0x20\n        /* \"#utility.yul\":15950:15953   */\n      dup3\n        /* \"#utility.yul\":15946:15960   */\n      add\n        /* \"#utility.yul\":15931:15960   */\n      swap1\n      pop\n        /* \"#utility.yul\":15772:15966   */\n      swap3\n      swap2\n      pop\n      pop\n      jump\t// out\n        /* \"#utility.yul\":15972:16114   */\n    tag_315:\n        /* \"#utility.yul\":16049:16053   */\n      0x00\n        /* \"#utility.yul\":16072:16075   */\n      dup2\n        /* \"#utility.yul\":16064:16075   */\n      swap1\n      pop\n        /* \"#utility.yul\":16102:16106   */\n      0x20\n        /* \"#utility.yul\":16097:16100   */\n      dup3\n        /* \"#utility.yul\":16093:16107   */\n      add\n        /* \"#utility.yul\":16085:16107   */\n      swap1\n      pop\n        /* \"#utility.yul\":15972:16114   */\n      swap2\n      swap1\n      pop\n      jump\t// out\n        /* \"#utility.yul\":16120:16279   */\n    tag_316:\n        /* \"#utility.yul\":16194:16205   */\n      0x00\n        /* \"#utility.yul\":16228:16234   */\n      dup3\n        /* \"#utility.yul\":16223:16226   */\n      dup3\n        /* \"#utility.yul\":16216:16235   */\n      mstore\n        /* \"#utility.yul\":16268:16272   */\n      0x20\n        /* \"#utility.yul\":16263:16266   */\n      dup3\n        /* \"#utility.yul\":16259:16273   */\n      add\n        /* \"#utility.yul\":16244:16273   */\n      swap1\n      pop\n        /* \"#utility.yul\":16120:16279   */\n      swap3\n      swap2\n      pop\n      pop\n      jump\t// out\n        /* \"#utility.yul\":16285:16642   */\n    tag_317:\n        /* \"#utility.yul\":16363:16366   */\n      0x00\n        /* \"#utility.yul\":16391:16430   */\n      tag_521\n        /* \"#utility.yul\":16424:16429   */\n      dup3\n        /* \"#utility.yul\":16391:16430   */\n      tag_309\n      jump\t// in\n    tag_521:\n        /* \"#utility.yul\":16446:16507   */\n      tag_522\n        /* \"#utility.yul\":16500:16506   */\n      dup2\n        /* \"#utility.yul\":16495:16498   */\n      dup6\n        /* \"#utility.yul\":16446:16507   */\n      tag_316\n      jump\t// in\n    tag_522:\n        /* \"#utility.yul\":16439:16507   */\n      swap4\n      pop\n        /* \"#utility.yul\":16516:16581   */\n      tag_523\n        /* \"#utility.yul\":16574:16580   */\n      dup2\n        /* \"#utility.yul\":16569:16572   */\n      dup6\n        /* \"#utility.yul\":16562:16566   */\n      0x20\n        /* \"#utility.yul\":16555:16560   */\n      dup7\n        /* \"#utility.yul\":16551:16567   */\n      add\n        /* \"#utility.yul\":16516:16581   */\n      tag_311\n      jump\t// in\n    tag_523:\n        /* \"#utility.yul\":16606:16635   */\n      tag_524\n        /* \"#utility.yul\":16628:16634   */\n      dup2\n        /* \"#utility.yul\":16606:16635   */\n      tag_288\n      jump\t// in\n    tag_524:\n        /* \"#utility.yul\":16601:16604   */\n      dup5\n        /* \"#utility.yul\":16597:16636   */\n      add\n        /* \"#utility.yul\":16590:16636   */\n      swap2\n      pop\n        /* \"#utility.yul\":16367:16642   */\n      pop\n        /* \"#utility.yul\":16285:16642   */\n      swap3\n      swap2\n      pop\n      pop\n      jump\t// out\n        /* \"#utility.yul\":16648:16844   */\n    tag_318:\n        /* \"#utility.yul\":16737:16747   */\n      0x00\n        /* \"#utility.yul\":16772:16838   */\n      tag_526\n        /* \"#utility.yul\":16834:16837   */\n      dup4\n        /* \"#utility.yul\":16826:16832   */\n      dup4\n        /* \"#utility.yul\":16772:16838   */\n      tag_317\n      jump\t// in\n    tag_526:\n        /* \"#utility.yul\":16758:16838   */\n      swap1\n      pop\n        /* \"#utility.yul\":16648:16844   */\n      swap3\n      swap2\n      pop\n      pop\n      jump\t// out\n        /* \"#utility.yul\":16850:16973   */\n    tag_319:\n        /* \"#utility.yul\":16930:16934   */\n      0x00\n        /* \"#utility.yul\":16962:16966   */\n      0x20\n        /* \"#utility.yul\":16957:16960   */\n      dup3\n        /* \"#utility.yul\":16953:16967   */\n      add\n        /* \"#utility.yul\":16945:16967   */\n      swap1\n      pop\n        /* \"#utility.yul\":16850:16973   */\n      swap2\n      swap1\n      pop\n      jump\t// out\n        /* \"#utility.yul\":17007:17998   */\n    tag_320:\n        /* \"#utility.yul\":17146:17149   */\n      0x00\n        /* \"#utility.yul\":17175:17239   */\n      tag_529\n        /* \"#utility.yul\":17233:17238   */\n      dup3\n        /* \"#utility.yul\":17175:17239   */\n      tag_313\n      jump\t// in\n    tag_529:\n        /* \"#utility.yul\":17255:17351   */\n      tag_530\n        /* \"#utility.yul\":17344:17350   */\n      dup2\n        /* \"#utility.yul\":17339:17342   */\n      dup6\n        /* \"#utility.yul\":17255:17351   */\n      tag_314\n      jump\t// in\n    tag_530:\n        /* \"#utility.yul\":17248:17351   */\n      swap4\n      pop\n        /* \"#utility.yul\":17377:17380   */\n      dup4\n        /* \"#utility.yul\":17422:17426   */\n      0x20\n        /* \"#utility.yul\":17414:17420   */\n      dup3\n        /* \"#utility.yul\":17410:17427   */\n      mul\n        /* \"#utility.yul\":17405:17408   */\n      dup6\n        /* \"#utility.yul\":17401:17428   */\n      add\n        /* \"#utility.yul\":17452:17518   */\n      tag_531\n        /* \"#utility.yul\":17512:17517   */\n      dup6\n        /* \"#utility.yul\":17452:17518   */\n      tag_315\n      jump\t// in\n    tag_531:\n        /* \"#utility.yul\":17541:17548   */\n      dup1\n        /* \"#utility.yul\":17572:17573   */\n      0x00\n        /* \"#utility.yul\":17557:17953   */\n    tag_532:\n        /* \"#utility.yul\":17582:17588   */\n      dup6\n        /* \"#utility.yul\":17579:17580   */\n      dup2\n        /* \"#utility.yul\":17576:17589   */\n      lt\n        /* \"#utility.yul\":17557:17953   */\n      iszero\n      tag_534\n      jumpi\n        /* \"#utility.yul\":17653:17662   */\n      dup5\n        /* \"#utility.yul\":17647:17651   */\n      dup5\n        /* \"#utility.yul\":17643:17663   */\n      sub\n        /* \"#utility.yul\":17638:17641   */\n      dup10\n        /* \"#utility.yul\":17631:17664   */\n      mstore\n        /* \"#utility.yul\":17704:17710   */\n      dup2\n        /* \"#utility.yul\":17698:17711   */\n      mload\n        /* \"#utility.yul\":17732:17816   */\n      tag_535\n        /* \"#utility.yul\":17811:17815   */\n      dup6\n        /* \"#utility.yul\":17796:17809   */\n      dup3\n        /* \"#utility.yul\":17732:17816   */\n      tag_318\n      jump\t// in\n    tag_535:\n        /* \"#utility.yul\":17724:17816   */\n      swap5\n      pop\n        /* \"#utility.yul\":17839:17909   */\n      tag_536\n        /* \"#utility.yul\":17902:17908   */\n      dup4\n        /* \"#utility.yul\":17839:17909   */\n      tag_319\n      jump\t// in\n    tag_536:\n        /* \"#utility.yul\":17829:17909   */\n      swap3\n      pop\n        /* \"#utility.yul\":17938:17942   */\n      0x20\n        /* \"#utility.yul\":17933:17936   */\n      dup11\n        /* \"#utility.yul\":17929:17943   */\n      add\n        /* \"#utility.yul\":17922:17943   */\n      swap10\n      pop\n        /* \"#utility.yul\":17617:17953   */\n      pop\n        /* \"#utility.yul\":17604:17605   */\n      0x01\n        /* \"#utility.yul\":17601:17602   */\n      dup2\n        /* \"#utility.yul\":17597:17606   */\n      add\n        /* \"#utility.yul\":17592:17606   */\n      swap1\n      pop\n        /* \"#utility.yul\":17557:17953   */\n      jump(tag_532)\n    tag_534:\n        /* \"#utility.yul\":17561:17575   */\n      pop\n        /* \"#utility.yul\":17969:17973   */\n      dup3\n        /* \"#utility.yul\":17962:17973   */\n      swap8\n      pop\n        /* \"#utility.yul\":17989:17992   */\n      dup8\n        /* \"#utility.yul\":17982:17992   */\n      swap6\n      pop\n        /* \"#utility.yul\":17151:17998   */\n      pop\n      pop\n      pop\n      pop\n      pop\n        /* \"#utility.yul\":17007:17998   */\n      swap3\n      swap2\n      pop\n      pop\n      jump\t// out\n        /* \"#utility.yul\":18004:18417   */\n    tag_42:\n        /* \"#utility.yul\":18167:18171   */\n      0x00\n        /* \"#utility.yul\":18205:18207   */\n      0x20\n        /* \"#utility.yul\":18194:18203   */\n      dup3\n        /* \"#utility.yul\":18190:18208   */\n      add\n        /* \"#utility.yul\":18182:18208   */\n      swap1\n      pop\n        /* \"#utility.yul\":18254:18263   */\n      dup2\n        /* \"#utility.yul\":18248:18252   */\n      dup2\n        /* \"#utility.yul\":18244:18264   */\n      sub\n        /* \"#utility.yul\":18240:18241   */\n      0x00\n        /* \"#utility.yul\":18229:18238   */\n      dup4\n        /* \"#utility.yul\":18225:18242   */\n      add\n        /* \"#utility.yul\":18218:18265   */\n      mstore\n        /* \"#utility.yul\":18282:18410   */\n      tag_538\n        /* \"#utility.yul\":18405:18409   */\n      dup2\n        /* \"#utility.yul\":18396:18402   */\n      dup5\n        /* \"#utility.yul\":18282:18410   */\n      tag_320\n      jump\t// in\n    tag_538:\n        /* \"#utility.yul\":18274:18410   */\n      swap1\n      pop\n        /* \"#utility.yul\":18004:18417   */\n      swap3\n      swap2\n      pop\n      pop\n      jump\t// out\n        /* \"#utility.yul\":18423:18541   */\n    tag_321:\n        /* \"#utility.yul\":18510:18534   */\n      tag_540\n        /* \"#utility.yul\":18528:18533   */\n      dup2\n        /* \"#utility.yul\":18510:18534   */\n      tag_283\n      jump\t// in\n    tag_540:\n        /* \"#utility.yul\":18505:18508   */\n      dup3\n        /* \"#utility.yul\":18498:18535   */\n      mstore\n        /* \"#utility.yul\":18423:18541   */\n      pop\n      pop\n      jump\t// out\n        /* \"#utility.yul\":18547:18656   */\n    tag_322:\n        /* \"#utility.yul\":18628:18649   */\n      tag_542\n        /* \"#utility.yul\":18643:18648   */\n      dup2\n        /* \"#utility.yul\":18628:18649   */\n      tag_303\n      jump\t// in\n    tag_542:\n        /* \"#utility.yul\":18623:18626   */\n      dup3\n        /* \"#utility.yul\":18616:18650   */\n      mstore\n        /* \"#utility.yul\":18547:18656   */\n      pop\n      pop\n      jump\t// out\n        /* \"#utility.yul\":18662:20011   */\n    tag_47:\n        /* \"#utility.yul\":19025:19029   */\n      0x00\n        /* \"#utility.yul\":19063:19066   */\n      0x0100\n        /* \"#utility.yul\":19052:19061   */\n      dup3\n        /* \"#utility.yul\":19048:19067   */\n      add\n        /* \"#utility.yul\":19040:19067   */\n      swap1\n      pop\n        /* \"#utility.yul\":19113:19122   */\n      dup2\n        /* \"#utility.yul\":19107:19111   */\n      dup2\n        /* \"#utility.yul\":19103:19123   */\n      sub\n        /* \"#utility.yul\":19099:19100   */\n      0x00\n        /* \"#utility.yul\":19088:19097   */\n      dup4\n        /* \"#utility.yul\":19084:19101   */\n      add\n        /* \"#utility.yul\":19077:19124   */\n      mstore\n        /* \"#utility.yul\":19141:19219   */\n      tag_544\n        /* \"#utility.yul\":19214:19218   */\n      dup2\n        /* \"#utility.yul\":19205:19211   */\n      dup12\n        /* \"#utility.yul\":19141:19219   */\n      tag_312\n      jump\t// in\n    tag_544:\n        /* \"#utility.yul\":19133:19219   */\n      swap1\n      pop\n        /* \"#utility.yul\":19266:19275   */\n      dup2\n        /* \"#utility.yul\":19260:19264   */\n      dup2\n        /* \"#utility.yul\":19256:19276   */\n      sub\n        /* \"#utility.yul\":19251:19253   */\n      0x20\n        /* \"#utility.yul\":19240:19249   */\n      dup4\n        /* \"#utility.yul\":19236:19254   */\n      add\n        /* \"#utility.yul\":19229:19277   */\n      mstore\n        /* \"#utility.yul\":19294:19372   */\n      tag_545\n        /* \"#utility.yul\":19367:19371   */\n      dup2\n        /* \"#utility.yul\":19358:19364   */\n      dup11\n        /* \"#utility.yul\":19294:19372   */\n      tag_312\n      jump\t// in\n    tag_545:\n        /* \"#utility.yul\":19286:19372   */\n      swap1\n      pop\n        /* \"#utility.yul\":19419:19428   */\n      dup2\n        /* \"#utility.yul\":19413:19417   */\n      dup2\n        /* \"#utility.yul\":19409:19429   */\n      sub\n        /* \"#utility.yul\":19404:19406   */\n      0x40\n        /* \"#utility.yul\":19393:19402   */\n      dup4\n        /* \"#utility.yul\":19389:19407   */\n      add\n        /* \"#utility.yul\":19382:19430   */\n      mstore\n        /* \"#utility.yul\":19447:19525   */\n      tag_546\n        /* \"#utility.yul\":19520:19524   */\n      dup2\n        /* \"#utility.yul\":19511:19517   */\n      dup10\n        /* \"#utility.yul\":19447:19525   */\n      tag_312\n      jump\t// in\n    tag_546:\n        /* \"#utility.yul\":19439:19525   */\n      swap1\n      pop\n        /* \"#utility.yul\":19572:19581   */\n      dup2\n        /* \"#utility.yul\":19566:19570   */\n      dup2\n        /* \"#utility.yul\":19562:19582   */\n      sub\n        /* \"#utility.yul\":19557:19559   */\n      0x60\n        /* \"#utility.yul\":19546:19555   */\n      dup4\n        /* \"#utility.yul\":19542:19560   */\n      add\n        /* \"#utility.yul\":19535:19583   */\n      mstore\n        /* \"#utility.yul\":19600:19678   */\n      tag_547\n        /* \"#utility.yul\":19673:19677   */\n      dup2\n        /* \"#utility.yul\":19664:19670   */\n      dup9\n        /* \"#utility.yul\":19600:19678   */\n      tag_312\n      jump\t// in\n    tag_547:\n        /* \"#utility.yul\":19592:19678   */\n      swap1\n      pop\n        /* \"#utility.yul\":19688:19761   */\n      tag_548\n        /* \"#utility.yul\":19756:19759   */\n      0x80\n        /* \"#utility.yul\":19745:19754   */\n      dup4\n        /* \"#utility.yul\":19741:19760   */\n      add\n        /* \"#utility.yul\":19732:19738   */\n      dup8\n        /* \"#utility.yul\":19688:19761   */\n      tag_321\n      jump\t// in\n    tag_548:\n        /* \"#utility.yul\":19771:19844   */\n      tag_549\n        /* \"#utility.yul\":19839:19842   */\n      0xa0\n        /* \"#utility.yul\":19828:19837   */\n      dup4\n        /* \"#utility.yul\":19824:19843   */\n      add\n        /* \"#utility.yul\":19815:19821   */\n      dup7\n        /* \"#utility.yul\":19771:19844   */\n      tag_321\n      jump\t// in\n    tag_549:\n        /* \"#utility.yul\":19854:19927   */\n      tag_550\n        /* \"#utility.yul\":19922:19925   */\n      0xc0\n        /* \"#utility.yul\":19911:19920   */\n      dup4\n        /* \"#utility.yul\":19907:19926   */\n      add\n        /* \"#utility.yul\":19898:19904   */\n      dup6\n        /* \"#utility.yul\":19854:19927   */\n      tag_321\n      jump\t// in\n    tag_550:\n        /* \"#utility.yul\":19937:20004   */\n      tag_551\n        /* \"#utility.yul\":19999:20002   */\n      0xe0\n        /* \"#utility.yul\":19988:19997   */\n      dup4\n        /* \"#utility.yul\":19984:20003   */\n      add\n        /* \"#utility.yul\":19975:19981   */\n      dup5\n        /* \"#utility.yul\":19937:20004   */\n      tag_322\n      jump\t// in\n    tag_551:\n        /* \"#utility.yul\":18662:20011   */\n      swap10\n      swap9\n      pop\n      pop\n      pop\n      pop\n      pop\n      pop\n      pop\n      pop\n      pop\n      jump\t// out\n        /* \"#utility.yul\":20017:20131   */\n    tag_323:\n        /* \"#utility.yul\":20084:20090   */\n      0x00\n        /* \"#utility.yul\":20118:20123   */\n      dup2\n        /* \"#utility.yul\":20112:20124   */\n      mload\n        /* \"#utility.yul\":20102:20124   */\n      swap1\n      pop\n        /* \"#utility.yul\":20017:20131   */\n      swap2\n      swap1\n      pop\n      jump\t// out\n        /* \"#utility.yul\":20137:20321   */\n    tag_324:\n        /* \"#utility.yul\":20236:20247   */\n      0x00\n        /* \"#utility.yul\":20270:20276   */\n      dup3\n        /* \"#utility.yul\":20265:20268   */\n      dup3\n        /* \"#utility.yul\":20258:20277   */\n      mstore\n        /* \"#utility.yul\":20310:20314   */\n      0x20\n        /* \"#utility.yul\":20305:20308   */\n      dup3\n        /* \"#utility.yul\":20301:20315   */\n      add\n        /* \"#utility.yul\":20286:20315   */\n      swap1\n      pop\n        /* \"#utility.yul\":20137:20321   */\n      swap3\n      swap2\n      pop\n      pop\n      jump\t// out\n        /* \"#utility.yul\":20327:20459   */\n    tag_325:\n        /* \"#utility.yul\":20394:20398   */\n      0x00\n        /* \"#utility.yul\":20417:20420   */\n      dup2\n        /* \"#utility.yul\":20409:20420   */\n      swap1\n      pop\n        /* \"#utility.yul\":20447:20451   */\n      0x20\n        /* \"#utility.yul\":20442:20445   */\n      dup3\n        /* \"#utility.yul\":20438:20452   */\n      add\n        /* \"#utility.yul\":20430:20452   */\n      swap1\n      pop\n        /* \"#utility.yul\":20327:20459   */\n      swap2\n      swap1\n      pop\n      jump\t// out\n        /* \"#utility.yul\":20465:20573   */\n    tag_326:\n        /* \"#utility.yul\":20542:20566   */\n      tag_556\n        /* \"#utility.yul\":20560:20565   */\n      dup2\n        /* \"#utility.yul\":20542:20566   */\n      tag_283\n      jump\t// in\n    tag_556:\n        /* \"#utility.yul\":20537:20540   */\n      dup3\n        /* \"#utility.yul\":20530:20567   */\n      mstore\n        /* \"#utility.yul\":20465:20573   */\n      pop\n      pop\n      jump\t// out\n        /* \"#utility.yul\":20579:20758   */\n    tag_327:\n        /* \"#utility.yul\":20648:20658   */\n      0x00\n        /* \"#utility.yul\":20669:20715   */\n      tag_558\n        /* \"#utility.yul\":20711:20714   */\n      dup4\n        /* \"#utility.yul\":20703:20709   */\n      dup4\n        /* \"#utility.yul\":20669:20715   */\n      tag_326\n      jump\t// in\n    tag_558:\n        /* \"#utility.yul\":20747:20751   */\n      0x20\n        /* \"#utility.yul\":20742:20745   */\n      dup4\n        /* \"#utility.yul\":20738:20752   */\n      add\n        /* \"#utility.yul\":20724:20752   */\n      swap1\n      pop\n        /* \"#utility.yul\":20579:20758   */\n      swap3\n      swap2\n      pop\n      pop\n      jump\t// out\n        /* \"#utility.yul\":20764:20877   */\n    tag_328:\n        /* \"#utility.yul\":20834:20838   */\n      0x00\n        /* \"#utility.yul\":20866:20870   */\n      0x20\n        /* \"#utility.yul\":20861:20864   */\n      dup3\n        /* \"#utility.yul\":20857:20871   */\n      add\n        /* \"#utility.yul\":20849:20871   */\n      swap1\n      pop\n        /* \"#utility.yul\":20764:20877   */\n      swap2\n      swap1\n      pop\n      jump\t// out\n        /* \"#utility.yul\":20913:21645   */\n    tag_329:\n        /* \"#utility.yul\":21032:21035   */\n      0x00\n        /* \"#utility.yul\":21061:21115   */\n      tag_561\n        /* \"#utility.yul\":21109:21114   */\n      dup3\n        /* \"#utility.yul\":21061:21115   */\n      tag_323\n      jump\t// in\n    tag_561:\n        /* \"#utility.yul\":21131:21217   */\n      tag_562\n        /* \"#utility.yul\":21210:21216   */\n      dup2\n        /* \"#utility.yul\":21205:21208   */\n      dup6\n        /* \"#utility.yul\":21131:21217   */\n      tag_324\n      jump\t// in\n    tag_562:\n        /* \"#utility.yul\":21124:21217   */\n      swap4\n      pop\n        /* \"#utility.yul\":21241:21297   */\n      tag_563\n        /* \"#utility.yul\":21291:21296   */\n      dup4\n        /* \"#utility.yul\":21241:21297   */\n      tag_325\n      jump\t// in\n    tag_563:\n        /* \"#utility.yul\":21320:21327   */\n      dup1\n        /* \"#utility.yul\":21351:21352   */\n      0x00\n        /* \"#utility.yul\":21336:21620   */\n    tag_564:\n        /* \"#utility.yul\":21361:21367   */\n      dup4\n        /* \"#utility.yul\":21358:21359   */\n      dup2\n        /* \"#utility.yul\":21355:21368   */\n      lt\n        /* \"#utility.yul\":21336:21620   */\n      iszero\n      tag_566\n      jumpi\n        /* \"#utility.yul\":21437:21443   */\n      dup2\n        /* \"#utility.yul\":21431:21444   */\n      mload\n        /* \"#utility.yul\":21464:21527   */\n      tag_567\n        /* \"#utility.yul\":21523:21526   */\n      dup9\n        /* \"#utility.yul\":21508:21521   */\n      dup3\n        /* \"#utility.yul\":21464:21527   */\n      tag_327\n      jump\t// in\n    tag_567:\n        /* \"#utility.yul\":21457:21527   */\n      swap8\n      pop\n        /* \"#utility.yul\":21550:21610   */\n      tag_568\n        /* \"#utility.yul\":21603:21609   */\n      dup4\n        /* \"#utility.yul\":21550:21610   */\n      tag_328\n      jump\t// in\n    tag_568:\n        /* \"#utility.yul\":21540:21610   */\n      swap3\n      pop\n        /* \"#utility.yul\":21396:21620   */\n      pop\n        /* \"#utility.yul\":21383:21384   */\n      0x01\n        /* \"#utility.yul\":21380:21381   */\n      dup2\n        /* \"#utility.yul\":21376:21385   */\n      add\n        /* \"#utility.yul\":21371:21385   */\n      swap1\n      pop\n        /* \"#utility.yul\":21336:21620   */\n      jump(tag_564)\n    tag_566:\n        /* \"#utility.yul\":21340:21354   */\n      pop\n        /* \"#utility.yul\":21636:21639   */\n      dup6\n        /* \"#utility.yul\":21629:21639   */\n      swap4\n      pop\n        /* \"#utility.yul\":21037:21645   */\n      pop\n      pop\n      pop\n        /* \"#utility.yul\":20913:21645   */\n      swap3\n      swap2\n      pop\n      pop\n      jump\t// out\n        /* \"#utility.yul\":21651:23564   */\n    tag_52:\n        /* \"#utility.yul\":22190:22194   */\n      0x00\n        /* \"#utility.yul\":22228:22231   */\n      0x0140\n        /* \"#utility.yul\":22217:22226   */\n      dup3\n        /* \"#utility.yul\":22213:22232   */\n      add\n        /* \"#utility.yul\":22205:22232   */\n      swap1\n      pop\n        /* \"#utility.yul\":22278:22287   */\n      dup2\n        /* \"#utility.yul\":22272:22276   */\n      dup2\n        /* \"#utility.yul\":22268:22288   */\n      sub\n        /* \"#utility.yul\":22264:22265   */\n      0x00\n        /* \"#utility.yul\":22253:22262   */\n      dup4\n        /* \"#utility.yul\":22249:22266   */\n      add\n        /* \"#utility.yul\":22242:22289   */\n      mstore\n        /* \"#utility.yul\":22306:22384   */\n      tag_570\n        /* \"#utility.yul\":22379:22383   */\n      dup2\n        /* \"#utility.yul\":22370:22376   */\n      dup14\n        /* \"#utility.yul\":22306:22384   */\n      tag_312\n      jump\t// in\n    tag_570:\n        /* \"#utility.yul\":22298:22384   */\n      swap1\n      pop\n        /* \"#utility.yul\":22431:22440   */\n      dup2\n        /* \"#utility.yul\":22425:22429   */\n      dup2\n        /* \"#utility.yul\":22421:22441   */\n      sub\n        /* \"#utility.yul\":22416:22418   */\n      0x20\n        /* \"#utility.yul\":22405:22414   */\n      dup4\n        /* \"#utility.yul\":22401:22419   */\n      add\n        /* \"#utility.yul\":22394:22442   */\n      mstore\n        /* \"#utility.yul\":22459:22537   */\n      tag_571\n        /* \"#utility.yul\":22532:22536   */\n      dup2\n        /* \"#utility.yul\":22523:22529   */\n      dup13\n        /* \"#utility.yul\":22459:22537   */\n      tag_312\n      jump\t// in\n    tag_571:\n        /* \"#utility.yul\":22451:22537   */\n      swap1\n      pop\n        /* \"#utility.yul\":22584:22593   */\n      dup2\n        /* \"#utility.yul\":22578:22582   */\n      dup2\n        /* \"#utility.yul\":22574:22594   */\n      sub\n        /* \"#utility.yul\":22569:22571   */\n      0x40\n        /* \"#utility.yul\":22558:22567   */\n      dup4\n        /* \"#utility.yul\":22554:22572   */\n      add\n        /* \"#utility.yul\":22547:22595   */\n      mstore\n        /* \"#utility.yul\":22612:22690   */\n      tag_572\n        /* \"#utility.yul\":22685:22689   */\n      dup2\n        /* \"#utility.yul\":22676:22682   */\n      dup12\n        /* \"#utility.yul\":22612:22690   */\n      tag_312\n      jump\t// in\n    tag_572:\n        /* \"#utility.yul\":22604:22690   */\n      swap1\n      pop\n        /* \"#utility.yul\":22737:22746   */\n      dup2\n        /* \"#utility.yul\":22731:22735   */\n      dup2\n        /* \"#utility.yul\":22727:22747   */\n      sub\n        /* \"#utility.yul\":22722:22724   */\n      0x60\n        /* \"#utility.yul\":22711:22720   */\n      dup4\n        /* \"#utility.yul\":22707:22725   */\n      add\n        /* \"#utility.yul\":22700:22748   */\n      mstore\n        /* \"#utility.yul\":22765:22843   */\n      tag_573\n        /* \"#utility.yul\":22838:22842   */\n      dup2\n        /* \"#utility.yul\":22829:22835   */\n      dup11\n        /* \"#utility.yul\":22765:22843   */\n      tag_312\n      jump\t// in\n    tag_573:\n        /* \"#utility.yul\":22757:22843   */\n      swap1\n      pop\n        /* \"#utility.yul\":22853:22926   */\n      tag_574\n        /* \"#utility.yul\":22921:22924   */\n      0x80\n        /* \"#utility.yul\":22910:22919   */\n      dup4\n        /* \"#utility.yul\":22906:22925   */\n      add\n        /* \"#utility.yul\":22897:22903   */\n      dup10\n        /* \"#utility.yul\":22853:22926   */\n      tag_321\n      jump\t// in\n    tag_574:\n        /* \"#utility.yul\":22936:23009   */\n      tag_575\n        /* \"#utility.yul\":23004:23007   */\n      0xa0\n        /* \"#utility.yul\":22993:23002   */\n      dup4\n        /* \"#utility.yul\":22989:23008   */\n      add\n        /* \"#utility.yul\":22980:22986   */\n      dup9\n        /* \"#utility.yul\":22936:23009   */\n      tag_321\n      jump\t// in\n    tag_575:\n        /* \"#utility.yul\":23019:23092   */\n      tag_576\n        /* \"#utility.yul\":23087:23090   */\n      0xc0\n        /* \"#utility.yul\":23076:23085   */\n      dup4\n        /* \"#utility.yul\":23072:23091   */\n      add\n        /* \"#utility.yul\":23063:23069   */\n      dup8\n        /* \"#utility.yul\":23019:23092   */\n      tag_321\n      jump\t// in\n    tag_576:\n        /* \"#utility.yul\":23102:23169   */\n      tag_577\n        /* \"#utility.yul\":23164:23167   */\n      0xe0\n        /* \"#utility.yul\":23153:23162   */\n      dup4\n        /* \"#utility.yul\":23149:23168   */\n      add\n        /* \"#utility.yul\":23140:23146   */\n      dup7\n        /* \"#utility.yul\":23102:23169   */\n      tag_322\n      jump\t// in\n    tag_577:\n        /* \"#utility.yul\":23217:23226   */\n      dup2\n        /* \"#utility.yul\":23211:23215   */\n      dup2\n        /* \"#utility.yul\":23207:23227   */\n      sub\n        /* \"#utility.yul\":23201:23204   */\n      0x0100\n        /* \"#utility.yul\":23190:23199   */\n      dup4\n        /* \"#utility.yul\":23186:23205   */\n      add\n        /* \"#utility.yul\":23179:23228   */\n      mstore\n        /* \"#utility.yul\":23245:23353   */\n      tag_578\n        /* \"#utility.yul\":23348:23352   */\n      dup2\n        /* \"#utility.yul\":23339:23345   */\n      dup6\n        /* \"#utility.yul\":23245:23353   */\n      tag_329\n      jump\t// in\n    tag_578:\n        /* \"#utility.yul\":23237:23353   */\n      swap1\n      pop\n        /* \"#utility.yul\":23401:23410   */\n      dup2\n        /* \"#utility.yul\":23395:23399   */\n      dup2\n        /* \"#utility.yul\":23391:23411   */\n      sub\n        /* \"#utility.yul\":23385:23388   */\n      0x0120\n        /* \"#utility.yul\":23374:23383   */\n      dup4\n        /* \"#utility.yul\":23370:23389   */\n      add\n        /* \"#utility.yul\":23363:23412   */\n      mstore\n        /* \"#utility.yul\":23429:23557   */\n      tag_579\n        /* \"#utility.yul\":23552:23556   */\n      dup2\n        /* \"#utility.yul\":23543:23549   */\n      dup5\n        /* \"#utility.yul\":23429:23557   */\n      tag_320\n      jump\t// in\n    tag_579:\n        /* \"#utility.yul\":23421:23557   */\n      swap1\n      pop\n        /* \"#utility.yul\":21651:23564   */\n      swap12\n      swap11\n      pop\n      pop\n      pop\n      pop\n      pop\n      pop\n      pop\n      pop\n      pop\n      pop\n      pop\n      jump\t// out\n        /* \"#utility.yul\":23570:24079   */\n    tag_55:\n        /* \"#utility.yul\":23639:23645   */\n      0x00\n        /* \"#utility.yul\":23688:23690   */\n      0x20\n        /* \"#utility.yul\":23676:23685   */\n      dup3\n        /* \"#utility.yul\":23667:23674   */\n      dup5\n        /* \"#utility.yul\":23663:23686   */\n      sub\n        /* \"#utility.yul\":23659:23691   */\n      slt\n        /* \"#utility.yul\":23656:23775   */\n      iszero\n      tag_581\n      jumpi\n        /* \"#utility.yul\":23694:23773   */\n      tag_582\n      tag_281\n      jump\t// in\n    tag_582:\n        /* \"#utility.yul\":23656:23775   */\n    tag_581:\n        /* \"#utility.yul\":23842:23843   */\n      0x00\n        /* \"#utility.yul\":23831:23840   */\n      dup3\n        /* \"#utility.yul\":23827:23844   */\n      add\n        /* \"#utility.yul\":23814:23845   */\n      calldataload\n        /* \"#utility.yul\":23872:23890   */\n      0xffffffffffffffff\n        /* \"#utility.yul\":23864:23870   */\n      dup2\n        /* \"#utility.yul\":23861:23891   */\n      gt\n        /* \"#utility.yul\":23858:23975   */\n      iszero\n      tag_583\n      jumpi\n        /* \"#utility.yul\":23894:23973   */\n      tag_584\n      tag_282\n      jump\t// in\n    tag_584:\n        /* \"#utility.yul\":23858:23975   */\n    tag_583:\n        /* \"#utility.yul\":23999:24062   */\n      tag_585\n        /* \"#utility.yul\":24054:24061   */\n      dup5\n        /* \"#utility.yul\":24045:24051   */\n      dup3\n        /* \"#utility.yul\":24034:24043   */\n      dup6\n        /* \"#utility.yul\":24030:24052   */\n      add\n        /* \"#utility.yul\":23999:24062   */\n      tag_295\n      jump\t// in\n    tag_585:\n        /* \"#utility.yul\":23989:24062   */\n      swap2\n      pop\n        /* \"#utility.yul\":23785:24072   */\n      pop\n        /* \"#utility.yul\":23570:24079   */\n      swap3\n      swap2\n      pop\n      pop\n      jump\t// out\n        /* \"#utility.yul\":24085:25747   */\n    tag_58:\n        /* \"#utility.yul\":24524:24528   */\n      0x00\n        /* \"#utility.yul\":24562:24565   */\n      0x0140\n        /* \"#utility.yul\":24551:24560   */\n      dup3\n        /* \"#utility.yul\":24547:24566   */\n      add\n        /* \"#utility.yul\":24539:24566   */\n      swap1\n      pop\n        /* \"#utility.yul\":24612:24621   */\n      dup2\n        /* \"#utility.yul\":24606:24610   */\n      dup2\n        /* \"#utility.yul\":24602:24622   */\n      sub\n        /* \"#utility.yul\":24598:24599   */\n      0x00\n        /* \"#utility.yul\":24587:24596   */\n      dup4\n        /* \"#utility.yul\":24583:24600   */\n      add\n        /* \"#utility.yul\":24576:24623   */\n      mstore\n        /* \"#utility.yul\":24640:24718   */\n      tag_587\n        /* \"#utility.yul\":24713:24717   */\n      dup2\n        /* \"#utility.yul\":24704:24710   */\n      dup14\n        /* \"#utility.yul\":24640:24718   */\n      tag_312\n      jump\t// in\n    tag_587:\n        /* \"#utility.yul\":24632:24718   */\n      swap1\n      pop\n        /* \"#utility.yul\":24765:24774   */\n      dup2\n        /* \"#utility.yul\":24759:24763   */\n      dup2\n        /* \"#utility.yul\":24755:24775   */\n      sub\n        /* \"#utility.yul\":24750:24752   */\n      0x20\n        /* \"#utility.yul\":24739:24748   */\n      dup4\n        /* \"#utility.yul\":24735:24753   */\n      add\n        /* \"#utility.yul\":24728:24776   */\n      mstore\n        /* \"#utility.yul\":24793:24871   */\n      tag_588\n        /* \"#utility.yul\":24866:24870   */\n      dup2\n        /* \"#utility.yul\":24857:24863   */\n      dup13\n        /* \"#utility.yul\":24793:24871   */\n      tag_312\n      jump\t// in\n    tag_588:\n        /* \"#utility.yul\":24785:24871   */\n      swap1\n      pop\n        /* \"#utility.yul\":24918:24927   */\n      dup2\n        /* \"#utility.yul\":24912:24916   */\n      dup2\n        /* \"#utility.yul\":24908:24928   */\n      sub\n        /* \"#utility.yul\":24903:24905   */\n      0x40\n        /* \"#utility.yul\":24892:24901   */\n      dup4\n        /* \"#utility.yul\":24888:24906   */\n      add\n        /* \"#utility.yul\":24881:24929   */\n      mstore\n        /* \"#utility.yul\":24946:25024   */\n      tag_589\n        /* \"#utility.yul\":25019:25023   */\n      dup2\n        /* \"#utility.yul\":25010:25016   */\n      dup12\n        /* \"#utility.yul\":24946:25024   */\n      tag_312\n      jump\t// in\n    tag_589:\n        /* \"#utility.yul\":24938:25024   */\n      swap1\n      pop\n        /* \"#utility.yul\":25071:25080   */\n      dup2\n        /* \"#utility.yul\":25065:25069   */\n      dup2\n        /* \"#utility.yul\":25061:25081   */\n      sub\n        /* \"#utility.yul\":25056:25058   */\n      0x60\n        /* \"#utility.yul\":25045:25054   */\n      dup4\n        /* \"#utility.yul\":25041:25059   */\n      add\n        /* \"#utility.yul\":25034:25082   */\n      mstore\n        /* \"#utility.yul\":25099:25177   */\n      tag_590\n        /* \"#utility.yul\":25172:25176   */\n      dup2\n        /* \"#utility.yul\":25163:25169   */\n      dup11\n        /* \"#utility.yul\":25099:25177   */\n      tag_312\n      jump\t// in\n    tag_590:\n        /* \"#utility.yul\":25091:25177   */\n      swap1\n      pop\n        /* \"#utility.yul\":25225:25234   */\n      dup2\n        /* \"#utility.yul\":25219:25223   */\n      dup2\n        /* \"#utility.yul\":25215:25235   */\n      sub\n        /* \"#utility.yul\":25209:25212   */\n      0x80\n        /* \"#utility.yul\":25198:25207   */\n      dup4\n        /* \"#utility.yul\":25194:25213   */\n      add\n        /* \"#utility.yul\":25187:25236   */\n      mstore\n        /* \"#utility.yul\":25253:25331   */\n      tag_591\n        /* \"#utility.yul\":25326:25330   */\n      dup2\n        /* \"#utility.yul\":25317:25323   */\n      dup10\n        /* \"#utility.yul\":25253:25331   */\n      tag_312\n      jump\t// in\n    tag_591:\n        /* \"#utility.yul\":25245:25331   */\n      swap1\n      pop\n        /* \"#utility.yul\":25341:25414   */\n      tag_592\n        /* \"#utility.yul\":25409:25412   */\n      0xa0\n        /* \"#utility.yul\":25398:25407   */\n      dup4\n        /* \"#utility.yul\":25394:25413   */\n      add\n        /* \"#utility.yul\":25385:25391   */\n      dup9\n        /* \"#utility.yul\":25341:25414   */\n      tag_321\n      jump\t// in\n    tag_592:\n        /* \"#utility.yul\":25424:25497   */\n      tag_593\n        /* \"#utility.yul\":25492:25495   */\n      0xc0\n        /* \"#utility.yul\":25481:25490   */\n      dup4\n        /* \"#utility.yul\":25477:25496   */\n      add\n        /* \"#utility.yul\":25468:25474   */\n      dup8\n        /* \"#utility.yul\":25424:25497   */\n      tag_321\n      jump\t// in\n    tag_593:\n        /* \"#utility.yul\":25507:25580   */\n      tag_594\n        /* \"#utility.yul\":25575:25578   */\n      0xe0\n        /* \"#utility.yul\":25564:25573   */\n      dup4\n        /* \"#utility.yul\":25560:25579   */\n      add\n        /* \"#utility.yul\":25551:25557   */\n      dup7\n        /* \"#utility.yul\":25507:25580   */\n      tag_321\n      jump\t// in\n    tag_594:\n        /* \"#utility.yul\":25590:25663   */\n      tag_595\n        /* \"#utility.yul\":25658:25661   */\n      0x0100\n        /* \"#utility.yul\":25647:25656   */\n      dup4\n        /* \"#utility.yul\":25643:25662   */\n      add\n        /* \"#utility.yul\":25634:25640   */\n      dup6\n        /* \"#utility.yul\":25590:25663   */\n      tag_321\n      jump\t// in\n    tag_595:\n        /* \"#utility.yul\":25673:25740   */\n      tag_596\n        /* \"#utility.yul\":25735:25738   */\n      0x0120\n        /* \"#utility.yul\":25724:25733   */\n      dup4\n        /* \"#utility.yul\":25720:25739   */\n      add\n        /* \"#utility.yul\":25711:25717   */\n      dup5\n        /* \"#utility.yul\":25673:25740   */\n      tag_322\n      jump\t// in\n    tag_596:\n        /* \"#utility.yul\":24085:25747   */\n      swap12\n      swap11\n      pop\n      pop\n      pop\n      pop\n      pop\n      pop\n      pop\n      pop\n      pop\n      pop\n      pop\n      jump\t// out\n        /* \"#utility.yul\":25753:26587   */\n    tag_67:\n        /* \"#utility.yul\":25841:25847   */\n      0x00\n        /* \"#utility.yul\":25849:25855   */\n      dup1\n        /* \"#utility.yul\":25898:25900   */\n      0x40\n        /* \"#utility.yul\":25886:25895   */\n      dup4\n        /* \"#utility.yul\":25877:25884   */\n      dup6\n        /* \"#utility.yul\":25873:25896   */\n      sub\n        /* \"#utility.yul\":25869:25901   */\n      slt\n        /* \"#utility.yul\":25866:25985   */\n      iszero\n      tag_598\n      jumpi\n        /* \"#utility.yul\":25904:25983   */\n      tag_599\n      tag_281\n      jump\t// in\n    tag_599:\n        /* \"#utility.yul\":25866:25985   */\n    tag_598:\n        /* \"#utility.yul\":26052:26053   */\n      0x00\n        /* \"#utility.yul\":26041:26050   */\n      dup4\n        /* \"#utility.yul\":26037:26054   */\n      add\n        /* \"#utility.yul\":26024:26055   */\n      calldataload\n        /* \"#utility.yul\":26082:26100   */\n      0xffffffffffffffff\n        /* \"#utility.yul\":26074:26080   */\n      dup2\n        /* \"#utility.yul\":26071:26101   */\n      gt\n        /* \"#utility.yul\":26068:26185   */\n      iszero\n      tag_600\n      jumpi\n        /* \"#utility.yul\":26104:26183   */\n      tag_601\n      tag_282\n      jump\t// in\n    tag_601:\n        /* \"#utility.yul\":26068:26185   */\n    tag_600:\n        /* \"#utility.yul\":26209:26272   */\n      tag_602\n        /* \"#utility.yul\":26264:26271   */\n      dup6\n        /* \"#utility.yul\":26255:26261   */\n      dup3\n        /* \"#utility.yul\":26244:26253   */\n      dup7\n        /* \"#utility.yul\":26240:26262   */\n      add\n        /* \"#utility.yul\":26209:26272   */\n      tag_295\n      jump\t// in\n    tag_602:\n        /* \"#utility.yul\":26199:26272   */\n      swap3\n      pop\n        /* \"#utility.yul\":25995:26282   */\n      pop\n        /* \"#utility.yul\":26349:26351   */\n      0x20\n        /* \"#utility.yul\":26338:26347   */\n      dup4\n        /* \"#utility.yul\":26334:26352   */\n      add\n        /* \"#utility.yul\":26321:26353   */\n      calldataload\n        /* \"#utility.yul\":26380:26398   */\n      0xffffffffffffffff\n        /* \"#utility.yul\":26372:26378   */\n      dup2\n        /* \"#utility.yul\":26369:26399   */\n      gt\n        /* \"#utility.yul\":26366:26483   */\n      iszero\n      tag_603\n      jumpi\n        /* \"#utility.yul\":26402:26481   */\n      tag_604\n      tag_282\n      jump\t// in\n    tag_604:\n        /* \"#utility.yul\":26366:26483   */\n    tag_603:\n        /* \"#utility.yul\":26507:26570   */\n      tag_605\n        /* \"#utility.yul\":26562:26569   */\n      dup6\n        /* \"#utility.yul\":26553:26559   */\n      dup3\n        /* \"#utility.yul\":26542:26551   */\n      dup7\n        /* \"#utility.yul\":26538:26560   */\n      add\n        /* \"#utility.yul\":26507:26570   */\n      tag_295\n      jump\t// in\n    tag_605:\n        /* \"#utility.yul\":26497:26570   */\n      swap2\n      pop\n        /* \"#utility.yul\":26292:26580   */\n      pop\n        /* \"#utility.yul\":25753:26587   */\n      swap3\n      pop\n      swap3\n      swap1\n      pop\n      jump\t// out\n        /* \"#utility.yul\":26593:26803   */\n    tag_70:\n        /* \"#utility.yul\":26680:26684   */\n      0x00\n        /* \"#utility.yul\":26718:26720   */\n      0x20\n        /* \"#utility.yul\":26707:26716   */\n      dup3\n        /* \"#utility.yul\":26703:26721   */\n      add\n        /* \"#utility.yul\":26695:26721   */\n      swap1\n      pop\n        /* \"#utility.yul\":26731:26796   */\n      tag_607\n        /* \"#utility.yul\":26793:26794   */\n      0x00\n        /* \"#utility.yul\":26782:26791   */\n      dup4\n        /* \"#utility.yul\":26778:26795   */\n      add\n        /* \"#utility.yul\":26769:26775   */\n      dup5\n        /* \"#utility.yul\":26731:26796   */\n      tag_322\n      jump\t// in\n    tag_607:\n        /* \"#utility.yul\":26593:26803   */\n      swap3\n      swap2\n      pop\n      pop\n      jump\t// out\n        /* \"#utility.yul\":26809:26993   */\n    tag_330:\n        /* \"#utility.yul\":26908:26919   */\n      0x00\n        /* \"#utility.yul\":26942:26948   */\n      dup3\n        /* \"#utility.yul\":26937:26940   */\n      dup3\n        /* \"#utility.yul\":26930:26949   */\n      mstore\n        /* \"#utility.yul\":26982:26986   */\n      0x20\n        /* \"#utility.yul\":26977:26980   */\n      dup3\n        /* \"#utility.yul\":26973:26987   */\n      add\n        /* \"#utility.yul\":26958:26987   */\n      swap1\n      pop\n        /* \"#utility.yul\":26809:26993   */\n      swap3\n      swap2\n      pop\n      pop\n      jump\t// out\n        /* \"#utility.yul\":27027:27998   */\n    tag_331:\n        /* \"#utility.yul\":27156:27159   */\n      0x00\n        /* \"#utility.yul\":27185:27249   */\n      tag_610\n        /* \"#utility.yul\":27243:27248   */\n      dup3\n        /* \"#utility.yul\":27185:27249   */\n      tag_313\n      jump\t// in\n    tag_610:\n        /* \"#utility.yul\":27265:27351   */\n      tag_611\n        /* \"#utility.yul\":27344:27350   */\n      dup2\n        /* \"#utility.yul\":27339:27342   */\n      dup6\n        /* \"#utility.yul\":27265:27351   */\n      tag_330\n      jump\t// in\n    tag_611:\n        /* \"#utility.yul\":27258:27351   */\n      swap4\n      pop\n        /* \"#utility.yul\":27377:27380   */\n      dup4\n        /* \"#utility.yul\":27422:27426   */\n      0x20\n        /* \"#utility.yul\":27414:27420   */\n      dup3\n        /* \"#utility.yul\":27410:27427   */\n      mul\n        /* \"#utility.yul\":27405:27408   */\n      dup6\n        /* \"#utility.yul\":27401:27428   */\n      add\n        /* \"#utility.yul\":27452:27518   */\n      tag_612\n        /* \"#utility.yul\":27512:27517   */\n      dup6\n        /* \"#utility.yul\":27452:27518   */\n      tag_315\n      jump\t// in\n    tag_612:\n        /* \"#utility.yul\":27541:27548   */\n      dup1\n        /* \"#utility.yul\":27572:27573   */\n      0x00\n        /* \"#utility.yul\":27557:27953   */\n    tag_613:\n        /* \"#utility.yul\":27582:27588   */\n      dup6\n        /* \"#utility.yul\":27579:27580   */\n      dup2\n        /* \"#utility.yul\":27576:27589   */\n      lt\n        /* \"#utility.yul\":27557:27953   */\n      iszero\n      tag_615\n      jumpi\n        /* \"#utility.yul\":27653:27662   */\n      dup5\n        /* \"#utility.yul\":27647:27651   */\n      dup5\n        /* \"#utility.yul\":27643:27663   */\n      sub\n        /* \"#utility.yul\":27638:27641   */\n      dup10\n        /* \"#utility.yul\":27631:27664   */\n      mstore\n        /* \"#utility.yul\":27704:27710   */\n      dup2\n        /* \"#utility.yul\":27698:27711   */\n      mload\n        /* \"#utility.yul\":27732:27816   */\n      tag_616\n        /* \"#utility.yul\":27811:27815   */\n      dup6\n        /* \"#utility.yul\":27796:27809   */\n      dup3\n        /* \"#utility.yul\":27732:27816   */\n      tag_318\n      jump\t// in\n    tag_616:\n        /* \"#utility.yul\":27724:27816   */\n      swap5\n      pop\n        /* \"#utility.yul\":27839:27909   */\n      tag_617\n        /* \"#utility.yul\":27902:27908   */\n      dup4\n        /* \"#utility.yul\":27839:27909   */\n      tag_319\n      jump\t// in\n    tag_617:\n        /* \"#utility.yul\":27829:27909   */\n      swap3\n      pop\n        /* \"#utility.yul\":27938:27942   */\n      0x20\n        /* \"#utility.yul\":27933:27936   */\n      dup11\n        /* \"#utility.yul\":27929:27943   */\n      add\n        /* \"#utility.yul\":27922:27943   */\n      swap10\n      pop\n        /* \"#utility.yul\":27617:27953   */\n      pop\n        /* \"#utility.yul\":27604:27605   */\n      0x01\n        /* \"#utility.yul\":27601:27602   */\n      dup2\n        /* \"#utility.yul\":27597:27606   */\n      add\n        /* \"#utility.yul\":27592:27606   */\n      swap1\n      pop\n        /* \"#utility.yul\":27557:27953   */\n      jump(tag_613)\n    tag_615:\n        /* \"#utility.yul\":27561:27575   */\n      pop\n        /* \"#utility.yul\":27969:27973   */\n      dup3\n        /* \"#utility.yul\":27962:27973   */\n      swap8\n      pop\n        /* \"#utility.yul\":27989:27992   */\n      dup8\n        /* \"#utility.yul\":27982:27992   */\n      swap6\n      pop\n        /* \"#utility.yul\":27161:27998   */\n      pop\n      pop\n      pop\n      pop\n      pop\n        /* \"#utility.yul\":27027:27998   */\n      swap3\n      swap2\n      pop\n      pop\n      jump\t// out\n        /* \"#utility.yul\":28004:28103   */\n    tag_332:\n        /* \"#utility.yul\":28075:28096   */\n      tag_619\n        /* \"#utility.yul\":28090:28095   */\n      dup2\n        /* \"#utility.yul\":28075:28096   */\n      tag_303\n      jump\t// in\n    tag_619:\n        /* \"#utility.yul\":28070:28073   */\n      dup3\n        /* \"#utility.yul\":28063:28097   */\n      mstore\n        /* \"#utility.yul\":28004:28103   */\n      pop\n      pop\n      jump\t// out\n        /* \"#utility.yul\":28187:30707   */\n    tag_333:\n        /* \"#utility.yul\":28298:28301   */\n      0x00\n        /* \"#utility.yul\":28334:28340   */\n      0x0140\n        /* \"#utility.yul\":28329:28332   */\n      dup4\n        /* \"#utility.yul\":28325:28341   */\n      add\n        /* \"#utility.yul\":28427:28431   */\n      0x00\n        /* \"#utility.yul\":28420:28425   */\n      dup4\n        /* \"#utility.yul\":28416:28432   */\n      add\n        /* \"#utility.yul\":28410:28433   */\n      mload\n        /* \"#utility.yul\":28480:28483   */\n      dup5\n        /* \"#utility.yul\":28474:28478   */\n      dup3\n        /* \"#utility.yul\":28470:28484   */\n      sub\n        /* \"#utility.yul\":28463:28467   */\n      0x00\n        /* \"#utility.yul\":28458:28461   */\n      dup7\n        /* \"#utility.yul\":28454:28468   */\n      add\n        /* \"#utility.yul\":28447:28485   */\n      mstore\n        /* \"#utility.yul\":28506:28579   */\n      tag_621\n        /* \"#utility.yul\":28574:28578   */\n      dup3\n        /* \"#utility.yul\":28560:28572   */\n      dup3\n        /* \"#utility.yul\":28506:28579   */\n      tag_317\n      jump\t// in\n    tag_621:\n        /* \"#utility.yul\":28498:28579   */\n      swap2\n      pop\n        /* \"#utility.yul\":28351:28590   */\n      pop\n        /* \"#utility.yul\":28673:28677   */\n      0x20\n        /* \"#utility.yul\":28666:28671   */\n      dup4\n        /* \"#utility.yul\":28662:28678   */\n      add\n        /* \"#utility.yul\":28656:28679   */\n      mload\n        /* \"#utility.yul\":28726:28729   */\n      dup5\n        /* \"#utility.yul\":28720:28724   */\n      dup3\n        /* \"#utility.yul\":28716:28730   */\n      sub\n        /* \"#utility.yul\":28709:28713   */\n      0x20\n        /* \"#utility.yul\":28704:28707   */\n      dup7\n        /* \"#utility.yul\":28700:28714   */\n      add\n        /* \"#utility.yul\":28693:28731   */\n      mstore\n        /* \"#utility.yul\":28752:28825   */\n      tag_622\n        /* \"#utility.yul\":28820:28824   */\n      dup3\n        /* \"#utility.yul\":28806:28818   */\n      dup3\n        /* \"#utility.yul\":28752:28825   */\n      tag_317\n      jump\t// in\n    tag_622:\n        /* \"#utility.yul\":28744:28825   */\n      swap2\n      pop\n        /* \"#utility.yul\":28600:28836   */\n      pop\n        /* \"#utility.yul\":28925:28929   */\n      0x40\n        /* \"#utility.yul\":28918:28923   */\n      dup4\n        /* \"#utility.yul\":28914:28930   */\n      add\n        /* \"#utility.yul\":28908:28931   */\n      mload\n        /* \"#utility.yul\":28978:28981   */\n      dup5\n        /* \"#utility.yul\":28972:28976   */\n      dup3\n        /* \"#utility.yul\":28968:28982   */\n      sub\n        /* \"#utility.yul\":28961:28965   */\n      0x40\n        /* \"#utility.yul\":28956:28959   */\n      dup7\n        /* \"#utility.yul\":28952:28966   */\n      add\n        /* \"#utility.yul\":28945:28983   */\n      mstore\n        /* \"#utility.yul\":29004:29077   */\n      tag_623\n        /* \"#utility.yul\":29072:29076   */\n      dup3\n        /* \"#utility.yul\":29058:29070   */\n      dup3\n        /* \"#utility.yul\":29004:29077   */\n      tag_317\n      jump\t// in\n    tag_623:\n        /* \"#utility.yul\":28996:29077   */\n      swap2\n      pop\n        /* \"#utility.yul\":28846:29088   */\n      pop\n        /* \"#utility.yul\":29182:29186   */\n      0x60\n        /* \"#utility.yul\":29175:29180   */\n      dup4\n        /* \"#utility.yul\":29171:29187   */\n      add\n        /* \"#utility.yul\":29165:29188   */\n      mload\n        /* \"#utility.yul\":29235:29238   */\n      dup5\n        /* \"#utility.yul\":29229:29233   */\n      dup3\n        /* \"#utility.yul\":29225:29239   */\n      sub\n        /* \"#utility.yul\":29218:29222   */\n      0x60\n        /* \"#utility.yul\":29213:29216   */\n      dup7\n        /* \"#utility.yul\":29209:29223   */\n      add\n        /* \"#utility.yul\":29202:29240   */\n      mstore\n        /* \"#utility.yul\":29261:29334   */\n      tag_624\n        /* \"#utility.yul\":29329:29333   */\n      dup3\n        /* \"#utility.yul\":29315:29327   */\n      dup3\n        /* \"#utility.yul\":29261:29334   */\n      tag_317\n      jump\t// in\n    tag_624:\n        /* \"#utility.yul\":29253:29334   */\n      swap2\n      pop\n        /* \"#utility.yul\":29098:29345   */\n      pop\n        /* \"#utility.yul\":29428:29432   */\n      0x80\n        /* \"#utility.yul\":29421:29426   */\n      dup4\n        /* \"#utility.yul\":29417:29433   */\n      add\n        /* \"#utility.yul\":29411:29434   */\n      mload\n        /* \"#utility.yul\":29447:29510   */\n      tag_625\n        /* \"#utility.yul\":29504:29508   */\n      0x80\n        /* \"#utility.yul\":29499:29502   */\n      dup7\n        /* \"#utility.yul\":29495:29509   */\n      add\n        /* \"#utility.yul\":29481:29493   */\n      dup3\n        /* \"#utility.yul\":29447:29510   */\n      tag_326\n      jump\t// in\n    tag_625:\n        /* \"#utility.yul\":29355:29520   */\n      pop\n        /* \"#utility.yul\":29612:29616   */\n      0xa0\n        /* \"#utility.yul\":29605:29610   */\n      dup4\n        /* \"#utility.yul\":29601:29617   */\n      add\n        /* \"#utility.yul\":29595:29618   */\n      mload\n        /* \"#utility.yul\":29665:29668   */\n      dup5\n        /* \"#utility.yul\":29659:29663   */\n      dup3\n        /* \"#utility.yul\":29655:29669   */\n      sub\n        /* \"#utility.yul\":29648:29652   */\n      0xa0\n        /* \"#utility.yul\":29643:29646   */\n      dup7\n        /* \"#utility.yul\":29639:29653   */\n      add\n        /* \"#utility.yul\":29632:29670   */\n      mstore\n        /* \"#utility.yul\":29691:29814   */\n      tag_626\n        /* \"#utility.yul\":29809:29813   */\n      dup3\n        /* \"#utility.yul\":29795:29807   */\n      dup3\n        /* \"#utility.yul\":29691:29814   */\n      tag_331\n      jump\t// in\n    tag_626:\n        /* \"#utility.yul\":29683:29814   */\n      swap2\n      pop\n        /* \"#utility.yul\":29530:29825   */\n      pop\n        /* \"#utility.yul\":29914:29918   */\n      0xc0\n        /* \"#utility.yul\":29907:29912   */\n      dup4\n        /* \"#utility.yul\":29903:29919   */\n      add\n        /* \"#utility.yul\":29897:29920   */\n      mload\n        /* \"#utility.yul\":29967:29970   */\n      dup5\n        /* \"#utility.yul\":29961:29965   */\n      dup3\n        /* \"#utility.yul\":29957:29971   */\n      sub\n        /* \"#utility.yul\":29950:29954   */\n      0xc0\n        /* \"#utility.yul\":29945:29948   */\n      dup7\n        /* \"#utility.yul\":29941:29955   */\n      add\n        /* \"#utility.yul\":29934:29972   */\n      mstore\n        /* \"#utility.yul\":29993:30116   */\n      tag_627\n        /* \"#utility.yul\":30111:30115   */\n      dup3\n        /* \"#utility.yul\":30097:30109   */\n      dup3\n        /* \"#utility.yul\":29993:30116   */\n      tag_331\n      jump\t// in\n    tag_627:\n        /* \"#utility.yul\":29985:30116   */\n      swap2\n      pop\n        /* \"#utility.yul\":29835:30127   */\n      pop\n        /* \"#utility.yul\":30220:30224   */\n      0xe0\n        /* \"#utility.yul\":30213:30218   */\n      dup4\n        /* \"#utility.yul\":30209:30225   */\n      add\n        /* \"#utility.yul\":30203:30226   */\n      mload\n        /* \"#utility.yul\":30239:30302   */\n      tag_628\n        /* \"#utility.yul\":30296:30300   */\n      0xe0\n        /* \"#utility.yul\":30291:30294   */\n      dup7\n        /* \"#utility.yul\":30287:30301   */\n      add\n        /* \"#utility.yul\":30273:30285   */\n      dup3\n        /* \"#utility.yul\":30239:30302   */\n      tag_326\n      jump\t// in\n    tag_628:\n        /* \"#utility.yul\":30137:30312   */\n      pop\n        /* \"#utility.yul\":30407:30413   */\n      0x0100\n        /* \"#utility.yul\":30400:30405   */\n      dup4\n        /* \"#utility.yul\":30396:30414   */\n      add\n        /* \"#utility.yul\":30390:30415   */\n      mload\n        /* \"#utility.yul\":30428:30493   */\n      tag_629\n        /* \"#utility.yul\":30485:30491   */\n      0x0100\n        /* \"#utility.yul\":30480:30483   */\n      dup7\n        /* \"#utility.yul\":30476:30492   */\n      add\n        /* \"#utility.yul\":30462:30474   */\n      dup3\n        /* \"#utility.yul\":30428:30493   */\n      tag_326\n      jump\t// in\n    tag_629:\n        /* \"#utility.yul\":30322:30503   */\n      pop\n        /* \"#utility.yul\":30590:30596   */\n      0x0120\n        /* \"#utility.yul\":30583:30588   */\n      dup4\n        /* \"#utility.yul\":30579:30597   */\n      add\n        /* \"#utility.yul\":30573:30598   */\n      mload\n        /* \"#utility.yul\":30611:30670   */\n      tag_630\n        /* \"#utility.yul\":30662:30668   */\n      0x0120\n        /* \"#utility.yul\":30657:30660   */\n      dup7\n        /* \"#utility.yul\":30653:30669   */\n      add\n        /* \"#utility.yul\":30639:30651   */\n      dup3\n        /* \"#utility.yul\":30611:30670   */\n      tag_332\n      jump\t// in\n    tag_630:\n        /* \"#utility.yul\":30513:30680   */\n      pop\n        /* \"#utility.yul\":30697:30701   */\n      dup1\n        /* \"#utility.yul\":30690:30701   */\n      swap2\n      pop\n        /* \"#utility.yul\":28303:30707   */\n      pop\n        /* \"#utility.yul\":28187:30707   */\n      swap3\n      swap2\n      pop\n      pop\n      jump\t// out\n        /* \"#utility.yul\":30713:31168   */\n    tag_75:\n        /* \"#utility.yul\":30870:30874   */\n      0x00\n        /* \"#utility.yul\":30908:30910   */\n      0x40\n        /* \"#utility.yul\":30897:30906   */\n      dup3\n        /* \"#utility.yul\":30893:30911   */\n      add\n        /* \"#utility.yul\":30885:30911   */\n      swap1\n      pop\n        /* \"#utility.yul\":30957:30966   */\n      dup2\n        /* \"#utility.yul\":30951:30955   */\n      dup2\n        /* \"#utility.yul\":30947:30967   */\n      sub\n        /* \"#utility.yul\":30943:30944   */\n      0x00\n        /* \"#utility.yul\":30932:30941   */\n      dup4\n        /* \"#utility.yul\":30928:30945   */\n      add\n        /* \"#utility.yul\":30921:30968   */\n      mstore\n        /* \"#utility.yul\":30985:31085   */\n      tag_632\n        /* \"#utility.yul\":31080:31084   */\n      dup2\n        /* \"#utility.yul\":31071:31077   */\n      dup6\n        /* \"#utility.yul\":30985:31085   */\n      tag_333\n      jump\t// in\n    tag_632:\n        /* \"#utility.yul\":30977:31085   */\n      swap1\n      pop\n        /* \"#utility.yul\":31095:31161   */\n      tag_633\n        /* \"#utility.yul\":31157:31159   */\n      0x20\n        /* \"#utility.yul\":31146:31155   */\n      dup4\n        /* \"#utility.yul\":31142:31160   */\n      add\n        /* \"#utility.yul\":31133:31139   */\n      dup5\n        /* \"#utility.yul\":31095:31161   */\n      tag_322\n      jump\t// in\n    tag_633:\n        /* \"#utility.yul\":30713:31168   */\n      swap4\n      swap3\n      pop\n      pop\n      pop\n      jump\t// out\n        /* \"#utility.yul\":31174:31396   */\n    tag_80:\n        /* \"#utility.yul\":31267:31271   */\n      0x00\n        /* \"#utility.yul\":31305:31307   */\n      0x20\n        /* \"#utility.yul\":31294:31303   */\n      dup3\n        /* \"#utility.yul\":31290:31308   */\n      add\n        /* \"#utility.yul\":31282:31308   */\n      swap1\n      pop\n        /* \"#utility.yul\":31318:31389   */\n      tag_635\n        /* \"#utility.yul\":31386:31387   */\n      0x00\n        /* \"#utility.yul\":31375:31384   */\n      dup4\n        /* \"#utility.yul\":31371:31388   */\n      add\n        /* \"#utility.yul\":31362:31368   */\n      dup5\n        /* \"#utility.yul\":31318:31389   */\n      tag_321\n      jump\t// in\n    tag_635:\n        /* \"#utility.yul\":31174:31396   */\n      swap3\n      swap2\n      pop\n      pop\n      jump\t// out\n        /* \"#utility.yul\":31402:32201   */\n    tag_86:\n        /* \"#utility.yul\":31489:31495   */\n      0x00\n        /* \"#utility.yul\":31497:31503   */\n      dup1\n        /* \"#utility.yul\":31505:31511   */\n      0x00\n        /* \"#utility.yul\":31554:31556   */\n      0x60\n        /* \"#utility.yul\":31542:31551   */\n      dup5\n        /* \"#utility.yul\":31533:31540   */\n      dup7\n        /* \"#utility.yul\":31529:31552   */\n      sub\n        /* \"#utility.yul\":31525:31557   */\n      slt\n        /* \"#utility.yul\":31522:31641   */\n      iszero\n      tag_637\n      jumpi\n        /* \"#utility.yul\":31560:31639   */\n      tag_638\n      tag_281\n      jump\t// in\n    tag_638:\n        /* \"#utility.yul\":31522:31641   */\n    tag_637:\n        /* \"#utility.yul\":31680:31681   */\n      0x00\n        /* \"#utility.yul\":31705:31758   */\n      tag_639\n        /* \"#utility.yul\":31750:31757   */\n      dup7\n        /* \"#utility.yul\":31741:31747   */\n      dup3\n        /* \"#utility.yul\":31730:31739   */\n      dup8\n        /* \"#utility.yul\":31726:31748   */\n      add\n        /* \"#utility.yul\":31705:31758   */\n      tag_285\n      jump\t// in\n    tag_639:\n        /* \"#utility.yul\":31695:31758   */\n      swap4\n      pop\n        /* \"#utility.yul\":31651:31768   */\n      pop\n        /* \"#utility.yul\":31807:31809   */\n      0x20\n        /* \"#utility.yul\":31833:31886   */\n      tag_640\n        /* \"#utility.yul\":31878:31885   */\n      dup7\n        /* \"#utility.yul\":31869:31875   */\n      dup3\n        /* \"#utility.yul\":31858:31867   */\n      dup8\n        /* \"#utility.yul\":31854:31876   */\n      add\n        /* \"#utility.yul\":31833:31886   */\n      tag_285\n      jump\t// in\n    tag_640:\n        /* \"#utility.yul\":31823:31886   */\n      swap3\n      pop\n        /* \"#utility.yul\":31778:31896   */\n      pop\n        /* \"#utility.yul\":31963:31965   */\n      0x40\n        /* \"#utility.yul\":31952:31961   */\n      dup5\n        /* \"#utility.yul\":31948:31966   */\n      add\n        /* \"#utility.yul\":31935:31967   */\n      calldataload\n        /* \"#utility.yul\":31994:32012   */\n      0xffffffffffffffff\n        /* \"#utility.yul\":31986:31992   */\n      dup2\n        /* \"#utility.yul\":31983:32013   */\n      gt\n        /* \"#utility.yul\":31980:32097   */\n      iszero\n      tag_641\n      jumpi\n        /* \"#utility.yul\":32016:32095   */\n      tag_642\n      tag_282\n      jump\t// in\n    tag_642:\n        /* \"#utility.yul\":31980:32097   */\n    tag_641:\n        /* \"#utility.yul\":32121:32184   */\n      tag_643\n        /* \"#utility.yul\":32176:32183   */\n      dup7\n        /* \"#utility.yul\":32167:32173   */\n      dup3\n        /* \"#utility.yul\":32156:32165   */\n      dup8\n        /* \"#utility.yul\":32152:32174   */\n      add\n        /* \"#utility.yul\":32121:32184   */\n      tag_295\n      jump\t// in\n    tag_643:\n        /* \"#utility.yul\":32111:32184   */\n      swap2\n      pop\n        /* \"#utility.yul\":31906:32194   */\n      pop\n        /* \"#utility.yul\":31402:32201   */\n      swap3\n      pop\n      swap3\n      pop\n      swap3\n      jump\t// out\n        /* \"#utility.yul\":32207:32355   */\n    tag_334:\n        /* \"#utility.yul\":32309:32320   */\n      0x00\n        /* \"#utility.yul\":32346:32349   */\n      dup2\n        /* \"#utility.yul\":32331:32349   */\n      swap1\n      pop\n        /* \"#utility.yul\":32207:32355   */\n      swap3\n      swap2\n      pop\n      pop\n      jump\t// out\n        /* \"#utility.yul\":32361:32751   */\n    tag_335:\n        /* \"#utility.yul\":32467:32470   */\n      0x00\n        /* \"#utility.yul\":32495:32534   */\n      tag_646\n        /* \"#utility.yul\":32528:32533   */\n      dup3\n        /* \"#utility.yul\":32495:32534   */\n      tag_309\n      jump\t// in\n    tag_646:\n        /* \"#utility.yul\":32550:32639   */\n      tag_647\n        /* \"#utility.yul\":32632:32638   */\n      dup2\n        /* \"#utility.yul\":32627:32630   */\n      dup6\n        /* \"#utility.yul\":32550:32639   */\n      tag_334\n      jump\t// in\n    tag_647:\n        /* \"#utility.yul\":32543:32639   */\n      swap4\n      pop\n        /* \"#utility.yul\":32648:32713   */\n      tag_648\n        /* \"#utility.yul\":32706:32712   */\n      dup2\n        /* \"#utility.yul\":32701:32704   */\n      dup6\n        /* \"#utility.yul\":32694:32698   */\n      0x20\n        /* \"#utility.yul\":32687:32692   */\n      dup7\n        /* \"#utility.yul\":32683:32699   */\n      add\n        /* \"#utility.yul\":32648:32713   */\n      tag_311\n      jump\t// in\n    tag_648:\n        /* \"#utility.yul\":32738:32744   */\n      dup1\n        /* \"#utility.yul\":32733:32736   */\n      dup5\n        /* \"#utility.yul\":32729:32745   */\n      add\n        /* \"#utility.yul\":32722:32745   */\n      swap2\n      pop\n        /* \"#utility.yul\":32471:32751   */\n      pop\n        /* \"#utility.yul\":32361:32751   */\n      swap3\n      swap2\n      pop\n      pop\n      jump\t// out\n        /* \"#utility.yul\":32757:33032   */\n    tag_91:\n        /* \"#utility.yul\":32889:32892   */\n      0x00\n        /* \"#utility.yul\":32911:33006   */\n      tag_650\n        /* \"#utility.yul\":33002:33005   */\n      dup3\n        /* \"#utility.yul\":32993:32999   */\n      dup5\n        /* \"#utility.yul\":32911:33006   */\n      tag_335\n      jump\t// in\n    tag_650:\n        /* \"#utility.yul\":32904:33006   */\n      swap2\n      pop\n        /* \"#utility.yul\":33023:33026   */\n      dup2\n        /* \"#utility.yul\":33016:33026   */\n      swap1\n      pop\n        /* \"#utility.yul\":32757:33032   */\n      swap3\n      swap2\n      pop\n      pop\n      jump\t// out\n        /* \"#utility.yul\":33038:33218   */\n    tag_336:\n        /* \"#utility.yul\":33086:33163   */\n      0x4e487b7100000000000000000000000000000000000000000000000000000000\n        /* \"#utility.yul\":33083:33084   */\n      0x00\n        /* \"#utility.yul\":33076:33164   */\n      mstore\n        /* \"#utility.yul\":33183:33187   */\n      0x22\n        /* \"#utility.yul\":33180:33181   */\n      0x04\n        /* \"#utility.yul\":33173:33188   */\n      mstore\n        /* \"#utility.yul\":33207:33211   */\n      0x24\n        /* \"#utility.yul\":33204:33205   */\n      0x00\n        /* \"#utility.yul\":33197:33212   */\n      revert\n        /* \"#utility.yul\":33224:33544   */\n    tag_128:\n        /* \"#utility.yul\":33268:33274   */\n      0x00\n        /* \"#utility.yul\":33305:33306   */\n      0x02\n        /* \"#utility.yul\":33299:33303   */\n      dup3\n        /* \"#utility.yul\":33295:33307   */\n      div\n        /* \"#utility.yul\":33285:33307   */\n      swap1\n      pop\n        /* \"#utility.yul\":33352:33353   */\n      0x01\n        /* \"#utility.yul\":33346:33350   */\n      dup3\n        /* \"#utility.yul\":33342:33354   */\n      and\n        /* \"#utility.yul\":33373:33391   */\n      dup1\n        /* \"#utility.yul\":33363:33444   */\n      tag_653\n      jumpi\n        /* \"#utility.yul\":33429:33433   */\n      0x7f\n        /* \"#utility.yul\":33421:33427   */\n      dup3\n        /* \"#utility.yul\":33417:33434   */\n      and\n        /* \"#utility.yul\":33407:33434   */\n      swap2\n      pop\n        /* \"#utility.yul\":33363:33444   */\n    tag_653:\n        /* \"#utility.yul\":33491:33493   */\n      0x20\n        /* \"#utility.yul\":33483:33489   */\n      dup3\n        /* \"#utility.yul\":33480:33494   */\n      lt\n        /* \"#utility.yul\":33460:33478   */\n      dup2\n        /* \"#utility.yul\":33457:33495   */\n      sub\n        /* \"#utility.yul\":33454:33538   */\n      tag_654\n      jumpi\n        /* \"#utility.yul\":33510:33528   */\n      tag_655\n      tag_336\n      jump\t// in\n    tag_655:\n        /* \"#utility.yul\":33454:33538   */\n    tag_654:\n        /* \"#utility.yul\":33275:33544   */\n      pop\n        /* \"#utility.yul\":33224:33544   */\n      swap2\n      swap1\n      pop\n      jump\t// out\n        /* \"#utility.yul\":33550:33691   */\n    tag_337:\n        /* \"#utility.yul\":33599:33603   */\n      0x00\n        /* \"#utility.yul\":33622:33625   */\n      dup2\n        /* \"#utility.yul\":33614:33625   */\n      swap1\n      pop\n        /* \"#utility.yul\":33645:33648   */\n      dup2\n        /* \"#utility.yul\":33642:33643   */\n      0x00\n        /* \"#utility.yul\":33635:33649   */\n      mstore\n        /* \"#utility.yul\":33679:33683   */\n      0x20\n        /* \"#utility.yul\":33676:33677   */\n      0x00\n        /* \"#utility.yul\":33666:33684   */\n      keccak256\n        /* \"#utility.yul\":33658:33684   */\n      swap1\n      pop\n        /* \"#utility.yul\":33550:33691   */\n      swap2\n      swap1\n      pop\n      jump\t// out\n        /* \"#utility.yul\":33697:33790   */\n    tag_338:\n        /* \"#utility.yul\":33734:33740   */\n      0x00\n        /* \"#utility.yul\":33781:33783   */\n      0x20\n        /* \"#utility.yul\":33776:33778   */\n      0x1f\n        /* \"#utility.yul\":33769:33774   */\n      dup4\n        /* \"#utility.yul\":33765:33779   */\n      add\n        /* \"#utility.yul\":33761:33784   */\n      div\n        /* \"#utility.yul\":33751:33784   */\n      swap1\n      pop\n        /* \"#utility.yul\":33697:33790   */\n      swap2\n      swap1\n      pop\n      jump\t// out\n        /* \"#utility.yul\":33796:33903   */\n    tag_339:\n        /* \"#utility.yul\":33840:33848   */\n      0x00\n        /* \"#utility.yul\":33890:33895   */\n      dup3\n        /* \"#utility.yul\":33884:33888   */\n      dup3\n        /* \"#utility.yul\":33880:33896   */\n      shl\n        /* \"#utility.yul\":33859:33896   */\n      swap1\n      pop\n        /* \"#utility.yul\":33796:33903   */\n      swap3\n      swap2\n      pop\n      pop\n      jump\t// out\n        /* \"#utility.yul\":33909:34302   */\n    tag_340:\n        /* \"#utility.yul\":33978:33984   */\n      0x00\n        /* \"#utility.yul\":34028:34029   */\n      0x08\n        /* \"#utility.yul\":34016:34026   */\n      dup4\n        /* \"#utility.yul\":34012:34030   */\n      mul\n        /* \"#utility.yul\":34051:34148   */\n      tag_660\n        /* \"#utility.yul\":34081:34147   */\n      0xffffffffffffffffffffffffffffffffffffffffffffffffffffffffffffffff\n        /* \"#utility.yul\":34070:34079   */\n      dup3\n        /* \"#utility.yul\":34051:34148   */\n      tag_339\n      jump\t// in\n    tag_660:\n        /* \"#utility.yul\":34169:34208   */\n      tag_661\n        /* \"#utility.yul\":34199:34207   */\n      dup7\n        /* \"#utility.yul\":34188:34197   */\n      dup4\n        /* \"#utility.yul\":34169:34208   */\n      tag_339\n      jump\t// in\n    tag_661:\n        /* \"#utility.yul\":34157:34208   */\n      swap6\n      pop\n        /* \"#utility.yul\":34241:34245   */\n      dup1\n        /* \"#utility.yul\":34237:34246   */\n      not\n        /* \"#utility.yul\":34230:34235   */\n      dup5\n        /* \"#utility.yul\":34226:34247   */\n      and\n        /* \"#utility.yul\":34217:34247   */\n      swap4\n      pop\n        /* \"#utility.yul\":34290:34294   */\n      dup1\n        /* \"#utility.yul\":34280:34288   */\n      dup7\n        /* \"#utility.yul\":34276:34295   */\n      and\n        /* \"#utility.yul\":34269:34274   */\n      dup5\n        /* \"#utility.yul\":34266:34296   */\n      or\n        /* \"#utility.yul\":34256:34296   */\n      swap3\n      pop\n        /* \"#utility.yul\":33985:34302   */\n      pop\n      pop\n        /* \"#utility.yul\":33909:34302   */\n      swap4\n      swap3\n      pop\n      pop\n      pop\n      jump\t// out\n        /* \"#utility.yul\":34308:34368   */\n    tag_341:\n        /* \"#utility.yul\":34336:34339   */\n      0x00\n        /* \"#utility.yul\":34357:34362   */\n      dup2\n        /* \"#utility.yul\":34350:34362   */\n      swap1\n      pop\n        /* \"#utility.yul\":34308:34368   */\n      swap2\n      swap1\n      pop\n      jump\t// out\n        /* \"#utility.yul\":34374:34516   */\n    tag_342:\n        /* \"#utility.yul\":34424:34433   */\n      0x00\n        /* \"#utility.yul\":34457:34510   */\n      tag_664\n        /* \"#utility.yul\":34475:34509   */\n      tag_665\n        /* \"#utility.yul\":34484:34508   */\n      tag_666\n        /* \"#utility.yul\":34502:34507   */\n      dup5\n        /* \"#utility.yul\":34484:34508   */\n      tag_283\n      jump\t// in\n    tag_666:\n        /* \"#utility.yul\":34475:34509   */\n      tag_341\n      jump\t// in\n    tag_665:\n        /* \"#utility.yul\":34457:34510   */\n      tag_283\n      jump\t// in\n    tag_664:\n        /* \"#utility.yul\":34444:34510   */\n      swap1\n      pop\n        /* \"#utility.yul\":34374:34516   */\n      swap2\n      swap1\n      pop\n      jump\t// out\n        /* \"#utility.yul\":34522:34597   */\n    tag_343:\n        /* \"#utility.yul\":34565:34568   */\n      0x00\n        /* \"#utility.yul\":34586:34591   */\n      dup2\n        /* \"#utility.yul\":34579:34591   */\n      swap1\n      pop\n        /* \"#utility.yul\":34522:34597   */\n      swap2\n      swap1\n      pop\n      jump\t// out\n        /* \"#utility.yul\":34603:34872   */\n    tag_344:\n        /* \"#utility.yul\":34713:34752   */\n      tag_669\n        /* \"#utility.yul\":34744:34751   */\n      dup4\n        /* \"#utility.yul\":34713:34752   */\n      tag_342\n      jump\t// in\n    tag_669:\n        /* \"#utility.yul\":34774:34865   */\n      tag_670\n        /* \"#utility.yul\":34823:34864   */\n      tag_671\n        /* \"#utility.yul\":34847:34863   */\n      dup3\n        /* \"#utility.yul\":34823:34864   */\n      tag_343\n      jump\t// in\n    tag_671:\n        /* \"#utility.yul\":34815:34821   */\n      dup5\n        /* \"#utility.yul\":34808:34812   */\n      dup5\n        /* \"#utility.yul\":34802:34813   */\n      sload\n        /* \"#utility.yul\":34774:34865   */\n      tag_340\n      jump\t// in\n    tag_670:\n        /* \"#utility.yul\":34768:34772   */\n      dup3\n        /* \"#utility.yul\":34761:34866   */\n      sstore\n        /* \"#utility.yul\":34679:34872   */\n      pop\n        /* \"#utility.yul\":34603:34872   */\n      pop\n      pop\n      pop\n      jump\t// out\n        /* \"#utility.yul\":34878:34951   */\n    tag_345:\n        /* \"#utility.yul\":34923:34926   */\n      0x00\n        /* \"#utility.yul\":34878:34951   */\n      swap1\n      jump\t// out\n        /* \"#utility.yul\":34957:35146   */\n    tag_346:\n        /* \"#utility.yul\":35034:35066   */\n      tag_674\n      tag_345\n      jump\t// in\n    tag_674:\n        /* \"#utility.yul\":35075:35140   */\n      tag_675\n        /* \"#utility.yul\":35133:35139   */\n      dup2\n        /* \"#utility.yul\":35125:35131   */\n      dup5\n        /* \"#utility.yul\":35119:35123   */\n      dup5\n        /* \"#utility.yul\":35075:35140   */\n      tag_344\n      jump\t// in\n    tag_675:\n        /* \"#utility.yul\":35010:35146   */\n      pop\n        /* \"#utility.yul\":34957:35146   */\n      pop\n      pop\n      jump\t// out\n        /* \"#utility.yul\":35152:35338   */\n    tag_347:\n        /* \"#utility.yul\":35212:35332   */\n    tag_677:\n        /* \"#utility.yul\":35229:35232   */\n      dup2\n        /* \"#utility.yul\":35222:35227   */\n      dup2\n        /* \"#utility.yul\":35219:35233   */\n      lt\n        /* \"#utility.yul\":35212:35332   */\n      iszero\n      tag_679\n      jumpi\n        /* \"#utility.yul\":35283:35322   */\n      tag_680\n        /* \"#utility.yul\":35320:35321   */\n      0x00\n        /* \"#utility.yul\":35313:35318   */\n      dup3\n        /* \"#utility.yul\":35283:35322   */\n      tag_346\n      jump\t// in\n    tag_680:\n        /* \"#utility.yul\":35256:35257   */\n      0x01\n        /* \"#utility.yul\":35249:35254   */\n      dup2\n        /* \"#utility.yul\":35245:35258   */\n      add\n        /* \"#utility.yul\":35236:35258   */\n      swap1\n      pop\n        /* \"#utility.yul\":35212:35332   */\n      jump(tag_677)\n    tag_679:\n        /* \"#utility.yul\":35152:35338   */\n      pop\n      pop\n      jump\t// out\n        /* \"#utility.yul\":35344:35887   */\n    tag_348:\n        /* \"#utility.yul\":35445:35447   */\n      0x1f\n        /* \"#utility.yul\":35440:35443   */\n      dup3\n        /* \"#utility.yul\":35437:35448   */\n      gt\n        /* \"#utility.yul\":35434:35880   */\n      iszero\n      tag_682\n      jumpi\n        /* \"#utility.yul\":35479:35517   */\n      tag_683\n        /* \"#utility.yul\":35511:35516   */\n      dup2\n        /* \"#utility.yul\":35479:35517   */\n      tag_337\n      jump\t// in\n    tag_683:\n        /* \"#utility.yul\":35563:35592   */\n      tag_684\n        /* \"#utility.yul\":35581:35591   */\n      dup5\n        /* \"#utility.yul\":35563:35592   */\n      tag_338\n      jump\t// in\n    tag_684:\n        /* \"#utility.yul\":35553:35561   */\n      dup2\n        /* \"#utility.yul\":35549:35593   */\n      add\n        /* \"#utility.yul\":35746:35748   */\n      0x20\n        /* \"#utility.yul\":35734:35744   */\n      dup6\n        /* \"#utility.yul\":35731:35749   */\n      lt\n        /* \"#utility.yul\":35728:35777   */\n      iszero\n      tag_685\n      jumpi\n        /* \"#utility.yul\":35767:35775   */\n      dup2\n        /* \"#utility.yul\":35752:35775   */\n      swap1\n      pop\n        /* \"#utility.yul\":35728:35777   */\n    tag_685:\n        /* \"#utility.yul\":35790:35870   */\n      tag_686\n        /* \"#utility.yul\":35846:35868   */\n      tag_687\n        /* \"#utility.yul\":35864:35867   */\n      dup6\n        /* \"#utility.yul\":35846:35868   */\n      tag_338\n      jump\t// in\n    tag_687:\n        /* \"#utility.yul\":35836:35844   */\n      dup4\n        /* \"#utility.yul\":35832:35869   */\n      add\n        /* \"#utility.yul\":35819:35830   */\n      dup3\n        /* \"#utility.yul\":35790:35870   */\n      tag_347\n      jump\t// in\n    tag_686:\n        /* \"#utility.yul\":35449:35880   */\n      pop\n      pop\n        /* \"#utility.yul\":35434:35880   */\n    tag_682:\n        /* \"#utility.yul\":35344:35887   */\n      pop\n      pop\n      pop\n      jump\t// out\n        /* \"#utility.yul\":35893:36010   */\n    tag_349:\n        /* \"#utility.yul\":35947:35955   */\n      0x00\n        /* \"#utility.yul\":35997:36002   */\n      dup3\n        /* \"#utility.yul\":35991:35995   */\n      dup3\n        /* \"#utility.yul\":35987:36003   */\n      shr\n        /* \"#utility.yul\":35966:36003   */\n      swap1\n      pop\n        /* \"#utility.yul\":35893:36010   */\n      swap3\n      swap2\n      pop\n      pop\n      jump\t// out\n        /* \"#utility.yul\":36016:36185   */\n    tag_350:\n        /* \"#utility.yul\":36060:36066   */\n      0x00\n        /* \"#utility.yul\":36093:36144   */\n      tag_690\n        /* \"#utility.yul\":36141:36142   */\n      0x00\n        /* \"#utility.yul\":36137:36143   */\n      not\n        /* \"#utility.yul\":36129:36134   */\n      dup5\n        /* \"#utility.yul\":36126:36127   */\n      0x08\n        /* \"#utility.yul\":36122:36135   */\n      mul\n        /* \"#utility.yul\":36093:36144   */\n      tag_349\n      jump\t// in\n    tag_690:\n        /* \"#utility.yul\":36089:36145   */\n      not\n        /* \"#utility.yul\":36174:36178   */\n      dup1\n        /* \"#utility.yul\":36168:36172   */\n      dup4\n        /* \"#utility.yul\":36164:36179   */\n      and\n        /* \"#utility.yul\":36154:36179   */\n      swap2\n      pop\n        /* \"#utility.yul\":36067:36185   */\n      pop\n        /* \"#utility.yul\":36016:36185   */\n      swap3\n      swap2\n      pop\n      pop\n      jump\t// out\n        /* \"#utility.yul\":36190:36485   */\n    tag_351:\n        /* \"#utility.yul\":36266:36270   */\n      0x00\n        /* \"#utility.yul\":36412:36441   */\n      tag_692\n        /* \"#utility.yul\":36437:36440   */\n      dup4\n        /* \"#utility.yul\":36431:36435   */\n      dup4\n        /* \"#utility.yul\":36412:36441   */\n      tag_350\n      jump\t// in\n    tag_692:\n        /* \"#utility.yul\":36404:36441   */\n      swap2\n      pop\n        /* \"#utility.yul\":36474:36477   */\n      dup3\n        /* \"#utility.yul\":36471:36472   */\n      0x02\n        /* \"#utility.yul\":36467:36478   */\n      mul\n        /* \"#utility.yul\":36461:36465   */\n      dup3\n        /* \"#utility.yul\":36458:36479   */\n      or\n        /* \"#utility.yul\":36450:36479   */\n      swap1\n      pop\n        /* \"#utility.yul\":36190:36485   */\n      swap3\n      swap2\n      pop\n      pop\n      jump\t// out\n        /* \"#utility.yul\":36490:37885   */\n    tag_93:\n        /* \"#utility.yul\":36607:36644   */\n      tag_694\n        /* \"#utility.yul\":36640:36643   */\n      dup3\n        /* \"#utility.yul\":36607:36644   */\n      tag_309\n      jump\t// in\n    tag_694:\n        /* \"#utility.yul\":36709:36727   */\n      0xffffffffffffffff\n        /* \"#utility.yul\":36701:36707   */\n      dup2\n        /* \"#utility.yul\":36698:36728   */\n      gt\n        /* \"#utility.yul\":36695:36751   */\n      iszero\n      tag_695\n      jumpi\n        /* \"#utility.yul\":36731:36749   */\n      tag_696\n      tag_289\n      jump\t// in\n    tag_696:\n        /* \"#utility.yul\":36695:36751   */\n    tag_695:\n        /* \"#utility.yul\":36775:36813   */\n      tag_697\n        /* \"#utility.yul\":36807:36811   */\n      dup3\n        /* \"#utility.yul\":36801:36812   */\n      sload\n        /* \"#utility.yul\":36775:36813   */\n      tag_128\n      jump\t// in\n    tag_697:\n        /* \"#utility.yul\":36860:36927   */\n      tag_698\n        /* \"#utility.yul\":36920:36926   */\n      dup3\n        /* \"#utility.yul\":36912:36918   */\n      dup3\n        /* \"#utility.yul\":36906:36910   */\n      dup6\n        /* \"#utility.yul\":36860:36927   */\n      tag_348\n      jump\t// in\n    tag_698:\n        /* \"#utility.yul\":36954:36955   */\n      0x00\n        /* \"#utility.yul\":36978:36982   */\n      0x20\n        /* \"#utility.yul\":36965:36982   */\n      swap1\n      pop\n        /* \"#utility.yul\":37010:37012   */\n      0x1f\n        /* \"#utility.yul\":37002:37008   */\n      dup4\n        /* \"#utility.yul\":36999:37013   */\n      gt\n        /* \"#utility.yul\":37027:37028   */\n      0x01\n        /* \"#utility.yul\":37022:37640   */\n      dup2\n      eq\n      tag_700\n      jumpi\n        /* \"#utility.yul\":37684:37685   */\n      0x00\n        /* \"#utility.yul\":37701:37707   */\n      dup5\n        /* \"#utility.yul\":37698:37775   */\n      iszero\n      tag_701\n      jumpi\n        /* \"#utility.yul\":37750:37759   */\n      dup3\n        /* \"#utility.yul\":37745:37748   */\n      dup8\n        /* \"#utility.yul\":37741:37760   */\n      add\n        /* \"#utility.yul\":37735:37761   */\n      mload\n        /* \"#utility.yul\":37726:37761   */\n      swap1\n      pop\n        /* \"#utility.yul\":37698:37775   */\n    tag_701:\n        /* \"#utility.yul\":37801:37868   */\n      tag_702\n        /* \"#utility.yul\":37861:37867   */\n      dup6\n        /* \"#utility.yul\":37854:37859   */\n      dup3\n        /* \"#utility.yul\":37801:37868   */\n      tag_351\n      jump\t// in\n    tag_702:\n        /* \"#utility.yul\":37795:37799   */\n      dup7\n        /* \"#utility.yul\":37788:37869   */\n      sstore\n        /* \"#utility.yul\":37657:37879   */\n      pop\n        /* \"#utility.yul\":36992:37879   */\n      jump(tag_699)\n        /* \"#utility.yul\":37022:37640   */\n    tag_700:\n        /* \"#utility.yul\":37074:37078   */\n      0x1f\n        /* \"#utility.yul\":37070:37079   */\n      not\n        /* \"#utility.yul\":37062:37068   */\n      dup5\n        /* \"#utility.yul\":37058:37080   */\n      and\n        /* \"#utility.yul\":37108:37145   */\n      tag_703\n        /* \"#utility.yul\":37140:37144   */\n      dup7\n        /* \"#utility.yul\":37108:37145   */\n      tag_337\n      jump\t// in\n    tag_703:\n        /* \"#utility.yul\":37167:37168   */\n      0x00\n        /* \"#utility.yul\":37181:37389   */\n    tag_704:\n        /* \"#utility.yul\":37195:37202   */\n      dup3\n        /* \"#utility.yul\":37192:37193   */\n      dup2\n        /* \"#utility.yul\":37189:37203   */\n      lt\n        /* \"#utility.yul\":37181:37389   */\n      iszero\n      tag_706\n      jumpi\n        /* \"#utility.yul\":37274:37283   */\n      dup5\n        /* \"#utility.yul\":37269:37272   */\n      dup10\n        /* \"#utility.yul\":37265:37284   */\n      add\n        /* \"#utility.yul\":37259:37285   */\n      mload\n        /* \"#utility.yul\":37251:37257   */\n      dup3\n        /* \"#utility.yul\":37244:37286   */\n      sstore\n        /* \"#utility.yul\":37325:37326   */\n      0x01\n        /* \"#utility.yul\":37317:37323   */\n      dup3\n        /* \"#utility.yul\":37313:37327   */\n      add\n        /* \"#utility.yul\":37303:37327   */\n      swap2\n      pop\n        /* \"#utility.yul\":37372:37374   */\n      0x20\n        /* \"#utility.yul\":37361:37370   */\n      dup6\n        /* \"#utility.yul\":37357:37375   */\n      add\n        /* \"#utility.yul\":37344:37375   */\n      swap5\n      pop\n        /* \"#utility.yul\":37218:37222   */\n      0x20\n        /* \"#utility.yul\":37215:37216   */\n      dup2\n        /* \"#utility.yul\":37211:37223   */\n      add\n        /* \"#utility.yul\":37206:37223   */\n      swap1\n      pop\n        /* \"#utility.yul\":37181:37389   */\n      jump(tag_704)\n    tag_706:\n        /* \"#utility.yul\":37417:37423   */\n      dup7\n        /* \"#utility.yul\":37408:37415   */\n      dup4\n        /* \"#utility.yul\":37405:37424   */\n      lt\n        /* \"#utility.yul\":37402:37581   */\n      iszero\n      tag_707\n      jumpi\n        /* \"#utility.yul\":37475:37484   */\n      dup5\n        /* \"#utility.yul\":37470:37473   */\n      dup10\n        /* \"#utility.yul\":37466:37485   */\n      add\n        /* \"#utility.yul\":37460:37486   */\n      mload\n        /* \"#utility.yul\":37518:37566   */\n      tag_708\n        /* \"#utility.yul\":37560:37564   */\n      0x1f\n        /* \"#utility.yul\":37552:37558   */\n      dup10\n        /* \"#utility.yul\":37548:37565   */\n      and\n        /* \"#utility.yul\":37537:37546   */\n      dup3\n        /* \"#utility.yul\":37518:37566   */\n      tag_350\n      jump\t// in\n    tag_708:\n        /* \"#utility.yul\":37510:37516   */\n      dup4\n        /* \"#utility.yul\":37503:37567   */\n      sstore\n        /* \"#utility.yul\":37425:37581   */\n      pop\n        /* \"#utility.yul\":37402:37581   */\n    tag_707:\n        /* \"#utility.yul\":37627:37628   */\n      0x01\n        /* \"#utility.yul\":37623:37624   */\n      0x02\n        /* \"#utility.yul\":37615:37621   */\n      dup9\n        /* \"#utility.yul\":37611:37625   */\n      mul\n        /* \"#utility.yul\":37607:37629   */\n      add\n        /* \"#utility.yul\":37601:37605   */\n      dup9\n        /* \"#utility.yul\":37594:37630   */\n      sstore\n        /* \"#utility.yul\":37029:37640   */\n      pop\n      pop\n      pop\n        /* \"#utility.yul\":36992:37879   */\n    tag_699:\n      pop\n        /* \"#utility.yul\":36582:37885   */\n      pop\n      pop\n      pop\n        /* \"#utility.yul\":36490:37885   */\n      pop\n      pop\n      jump\t// out\n        /* \"#utility.yul\":37891:38071   */\n    tag_105:\n        /* \"#utility.yul\":37939:38016   */\n      0x4e487b7100000000000000000000000000000000000000000000000000000000\n        /* \"#utility.yul\":37936:37937   */\n      0x00\n        /* \"#utility.yul\":37929:38017   */\n      mstore\n        /* \"#utility.yul\":38036:38040   */\n      0x32\n        /* \"#utility.yul\":38033:38034   */\n      0x04\n        /* \"#utility.yul\":38026:38041   */\n      mstore\n        /* \"#utility.yul\":38060:38064   */\n      0x24\n        /* \"#utility.yul\":38057:38058   */\n      0x00\n        /* \"#utility.yul\":38050:38065   */\n      revert\n        /* \"#utility.yul\":38077:38257   */\n    tag_352:\n        /* \"#utility.yul\":38125:38202   */\n      0x4e487b7100000000000000000000000000000000000000000000000000000000\n        /* \"#utility.yul\":38122:38123   */\n      0x00\n        /* \"#utility.yul\":38115:38203   */\n      mstore\n        /* \"#utility.yul\":38222:38226   */\n      0x11\n        /* \"#utility.yul\":38219:38220   */\n      0x04\n        /* \"#utility.yul\":38212:38227   */\n      mstore\n        /* \"#utility.yul\":38246:38250   */\n      0x24\n        /* \"#utility.yul\":38243:38244   */\n      0x00\n        /* \"#utility.yul\":38236:38251   */\n      revert\n        /* \"#utility.yul\":38263:38496   */\n    tag_115:\n        /* \"#utility.yul\":38302:38305   */\n      0x00\n        /* \"#utility.yul\":38325:38349   */\n      tag_712\n        /* \"#utility.yul\":38343:38348   */\n      dup3\n        /* \"#utility.yul\":38325:38349   */\n      tag_283\n      jump\t// in\n    tag_712:\n        /* \"#utility.yul\":38316:38349   */\n      swap2\n      pop\n        /* \"#utility.yul\":38371:38437   */\n      0xffffffffffffffffffffffffffffffffffffffffffffffffffffffffffffffff\n        /* \"#utility.yul\":38364:38369   */\n      dup3\n        /* \"#utility.yul\":38361:38438   */\n      sub\n        /* \"#utility.yul\":38358:38461   */\n      tag_713\n      jumpi\n        /* \"#utility.yul\":38441:38459   */\n      tag_714\n      tag_352\n      jump\t// in\n    tag_714:\n        /* \"#utility.yul\":38358:38461   */\n    tag_713:\n        /* \"#utility.yul\":38488:38489   */\n      0x01\n        /* \"#utility.yul\":38481:38486   */\n      dup3\n        /* \"#utility.yul\":38477:38490   */\n      add\n        /* \"#utility.yul\":38470:38490   */\n      swap1\n      pop\n        /* \"#utility.yul\":38263:38496   */\n      swap2\n      swap1\n      pop\n      jump\t// out\n        /* \"#utility.yul\":38502:38667   */\n    tag_353:\n        /* \"#utility.yul\":38642:38659   */\n      0x5374616765206e6f7420666f756e640000000000000000000000000000000000\n        /* \"#utility.yul\":38638:38639   */\n      0x00\n        /* \"#utility.yul\":38630:38636   */\n      dup3\n        /* \"#utility.yul\":38626:38640   */\n      add\n        /* \"#utility.yul\":38619:38660   */\n      mstore\n        /* \"#utility.yul\":38502:38667   */\n      pop\n      jump\t// out\n        /* \"#utility.yul\":38673:39039   */\n    tag_354:\n        /* \"#utility.yul\":38815:38818   */\n      0x00\n        /* \"#utility.yul\":38836:38903   */\n      tag_717\n        /* \"#utility.yul\":38900:38902   */\n      0x0f\n        /* \"#utility.yul\":38895:38898   */\n      dup4\n        /* \"#utility.yul\":38836:38903   */\n      tag_310\n      jump\t// in\n    tag_717:\n        /* \"#utility.yul\":38829:38903   */\n      swap2\n      pop\n        /* \"#utility.yul\":38912:39005   */\n      tag_718\n        /* \"#utility.yul\":39001:39004   */\n      dup3\n        /* \"#utility.yul\":38912:39005   */\n      tag_353\n      jump\t// in\n    tag_718:\n        /* \"#utility.yul\":39030:39032   */\n      0x20\n        /* \"#utility.yul\":39025:39028   */\n      dup3\n        /* \"#utility.yul\":39021:39033   */\n      add\n        /* \"#utility.yul\":39014:39033   */\n      swap1\n      pop\n        /* \"#utility.yul\":38673:39039   */\n      swap2\n      swap1\n      pop\n      jump\t// out\n        /* \"#utility.yul\":39045:39464   */\n    tag_256:\n        /* \"#utility.yul\":39211:39215   */\n      0x00\n        /* \"#utility.yul\":39249:39251   */\n      0x20\n        /* \"#utility.yul\":39238:39247   */\n      dup3\n        /* \"#utility.yul\":39234:39252   */\n      add\n        /* \"#utility.yul\":39226:39252   */\n      swap1\n      pop\n        /* \"#utility.yul\":39298:39307   */\n      dup2\n        /* \"#utility.yul\":39292:39296   */\n      dup2\n        /* \"#utility.yul\":39288:39308   */\n      sub\n        /* \"#utility.yul\":39284:39285   */\n      0x00\n        /* \"#utility.yul\":39273:39282   */\n      dup4\n        /* \"#utility.yul\":39269:39286   */\n      add\n        /* \"#utility.yul\":39262:39309   */\n      mstore\n        /* \"#utility.yul\":39326:39457   */\n      tag_720\n        /* \"#utility.yul\":39452:39456   */\n      dup2\n        /* \"#utility.yul\":39326:39457   */\n      tag_354\n      jump\t// in\n    tag_720:\n        /* \"#utility.yul\":39318:39457   */\n      swap1\n      pop\n        /* \"#utility.yul\":39045:39464   */\n      swap2\n      swap1\n      pop\n      jump\t// out\n        /* \"#utility.yul\":39470:40003   */\n    tag_262:\n        /* \"#utility.yul\":39639:39643   */\n      0x00\n        /* \"#utility.yul\":39677:39679   */\n      0x60\n        /* \"#utility.yul\":39666:39675   */\n      dup3\n        /* \"#utility.yul\":39662:39680   */\n      add\n        /* \"#utility.yul\":39654:39680   */\n      swap1\n      pop\n        /* \"#utility.yul\":39690:39761   */\n      tag_722\n        /* \"#utility.yul\":39758:39759   */\n      0x00\n        /* \"#utility.yul\":39747:39756   */\n      dup4\n        /* \"#utility.yul\":39743:39760   */\n      add\n        /* \"#utility.yul\":39734:39740   */\n      dup7\n        /* \"#utility.yul\":39690:39761   */\n      tag_321\n      jump\t// in\n    tag_722:\n        /* \"#utility.yul\":39771:39843   */\n      tag_723\n        /* \"#utility.yul\":39839:39841   */\n      0x20\n        /* \"#utility.yul\":39828:39837   */\n      dup4\n        /* \"#utility.yul\":39824:39842   */\n      add\n        /* \"#utility.yul\":39815:39821   */\n      dup6\n        /* \"#utility.yul\":39771:39843   */\n      tag_321\n      jump\t// in\n    tag_723:\n        /* \"#utility.yul\":39890:39899   */\n      dup2\n        /* \"#utility.yul\":39884:39888   */\n      dup2\n        /* \"#utility.yul\":39880:39900   */\n      sub\n        /* \"#utility.yul\":39875:39877   */\n      0x40\n        /* \"#utility.yul\":39864:39873   */\n      dup4\n        /* \"#utility.yul\":39860:39878   */\n      add\n        /* \"#utility.yul\":39853:39901   */\n      mstore\n        /* \"#utility.yul\":39918:39996   */\n      tag_724\n        /* \"#utility.yul\":39991:39995   */\n      dup2\n        /* \"#utility.yul\":39982:39988   */\n      dup5\n        /* \"#utility.yul\":39918:39996   */\n      tag_312\n      jump\t// in\n    tag_724:\n        /* \"#utility.yul\":39910:39996   */\n      swap1\n      pop\n        /* \"#utility.yul\":39470:40003   */\n      swap5\n      swap4\n      pop\n      pop\n      pop\n      pop\n      jump\t// out\n\n    auxdata: 0xa26469706673582212201c7bcac1e3dc6c8ffebcb1233a63c036a8b16a9adf69fdb04b7fd2dcca262ae464736f6c63430008140033\n}\n",
				"bytecode": {
					"linkReferences": {},
					"object": "60806040526040518060400160405280600681526020017f6167656e637900000000000000000000000000000000000000000000000000008152505f9081620000499190620002c1565b5034801562000056575f80fd5b50620003a5565b5f81519050919050565b7f4e487b71000000000000000000000000000000000000000000000000000000005f52604160045260245ffd5b7f4e487b71000000000000000000000000000000000000000000000000000000005f52602260045260245ffd5b5f6002820490506001821680620000d957607f821691505b602082108103620000ef57620000ee62000094565b5b50919050565b5f819050815f5260205f209050919050565b5f6020601f8301049050919050565b5f82821b905092915050565b5f60088302620001537fffffffffffffffffffffffffffffffffffffffffffffffffffffffffffffffff8262000116565b6200015f868362000116565b95508019841693508086168417925050509392505050565b5f819050919050565b5f819050919050565b5f620001a9620001a36200019d8462000177565b62000180565b62000177565b9050919050565b5f819050919050565b620001c48362000189565b620001dc620001d382620001b0565b84845462000122565b825550505050565b5f90565b620001f2620001e4565b620001ff818484620001b9565b505050565b5b8181101562000226576200021a5f82620001e8565b60018101905062000205565b5050565b601f82111562000275576200023f81620000f5565b6200024a8462000107565b810160208510156200025a578190505b62000272620002698562000107565b83018262000204565b50505b505050565b5f82821c905092915050565b5f620002975f19846008026200027a565b1980831691505092915050565b5f620002b1838362000286565b9150826002028217905092915050565b620002cc826200005d565b67ffffffffffffffff811115620002e857620002e762000067565b5b620002f48254620000c1565b620003018282856200022a565b5f60209050601f83116001811462000337575f841562000322578287015190505b6200032e8582620002a4565b8655506200039d565b601f1984166200034786620000f5565b5f5b82811015620003705784890151825560018201915060208501945060208101905062000349565b868310156200039057848901516200038c601f89168262000286565b8355505b6001600288020188555050505b505050505050565b6129e880620003b35f395ff3fe608060405234801561000f575f80fd5b50600436106100f3575f3560e01c806391c9b26811610095578063cbe737b311610064578063cbe737b3146102ac578063ce89e021146102dd578063e4a8f18b1461030d578063f5c4b73e1461032b576100f3565b806391c9b2681461020957806393dc12e61461024257806399e76d351461025e578063bed34bba1461027c576100f3565b806348c35ad4116100d157806348c35ad41461014b5780634ac647661461017b5780635f8439e3146101995780638abb10c6146101d0576100f3565b8063089cd025146100f7578063221c51bb14610113578063292ee7c91461012f575b5f80fd5b610111600480360381019061010c9190611688565b610347565b005b61012d60048036038101906101289190611b9a565b61034b565b005b61014960048036038101906101449190611cf3565b610576565b005b61016560048036038101906101609190611d69565b610693565b6040516101729190611e0e565b60405180910390f35b610183610739565b6040516101909190611f31565b60405180910390f35b6101b360048036038101906101ae9190611d69565b61080d565b6040516101c7989796959493929190611f6f565b60405180910390f35b6101ea60048036038101906101e59190611d69565b610822565b6040516102009a999897969594939291906120be565b60405180910390f35b610223600480360381019061021e9190612182565b61083c565b6040516102399a999897969594939291906121c9565b60405180910390f35b61025c60048036038101906102579190611d69565b610b4e565b005b610266610b51565b6040516102739190611e0e565b60405180910390f35b61029660048036038101906102919190612286565b610bdc565b6040516102a391906122fc565b60405180910390f35b6102c660048036038101906102c19190612286565b610c34565b6040516102d49291906124a1565b60405180910390f35b6102f760048036038101906102f29190612182565b6114a8565b60405161030491906124cf565b60405180910390f35b6103156114d5565b60405161032291906124cf565b60405180910390f35b610345600480360381019061034091906124e8565b6114e1565b005b5050565b5f60018960405161035c919061258e565b908152602001604051809103902090508781600101908161037d919061279e565b508681600201908161038f919061279e565b5088815f0190816103a0919061279e565b50858160030190816103b2919061279e565b50848160040190816103c4919061279e565b504281600501819055508381600601819055508281600701819055505f816009015f6101000a81548160ff0219169083151502179055505f8160080181905550600289908060018154018082558091505060019003905f5260205f20015f909190919091509081610435919061279e565b505f5b825181101561056a5781600a018382815181106104585761045761286d565b5b6020026020010151908060018154018082558091505060019003905f5260205f2090600a02015f909190919091505f820151815f019081610499919061279e565b5060208201518160010190816104af919061279e565b5060408201518160020190816104c5919061279e565b5060608201518160030190816104db919061279e565b506080820151816004015560a0820151816005019080519060200190610502929190611521565b5060c082015181600601908051906020019061051f929190611521565b5060e082015181600701556101008201518160080155610120820151816009015f6101000a81548160ff02191690831515021790555050508080610562906128c7565b915050610438565b50505050505050505050565b600182604051610586919061258e565b9081526020016040518091039020600a0181908060018154018082558091505060019003905f5260205f2090600a02015f909190919091505f820151815f0190816105d1919061279e565b5060208201518160010190816105e7919061279e565b5060408201518160020190816105fd919061279e565b506060820151816003019081610613919061279e565b506080820151816004015560a082015181600501908051906020019061063a929190611521565b5060c0820151816006019080519060200190610657929190611521565b5060e082015181600701556101008201518160080155610120820151816009015f6101000a81548160ff02191690831515021790555050505050565b600281815481106106a2575f80fd5b905f5260205f20015f9150905080546106ba906125d1565b80601f01602080910402602001604051908101604052809291908181526020018280546106e6906125d1565b80156107315780601f1061070857610100808354040283529160200191610731565b820191905f5260205f20905b81548152906001019060200180831161071457829003601f168201915b505050505081565b60606002805480602002602001604051908101604052809291908181526020015f905b82821015610804578382905f5260205f20018054610779906125d1565b80601f01602080910402602001604051908101604052809291908181526020018280546107a5906125d1565b80156107f05780601f106107c7576101008083540402835291602001916107f0565b820191905f5260205f20905b8154815290600101906020018083116107d357829003601f168201915b50505050508152602001906001019061075c565b50505050905090565b6060806060805f805f80919395975091939597565b6060806060805f805f806060809193959799509193959799565b6001818051602081018201805184825260208301602085012081835280955050505050505f91509050805f018054610873906125d1565b80601f016020809104026020016040519081016040528092919081815260200182805461089f906125d1565b80156108ea5780601f106108c1576101008083540402835291602001916108ea565b820191905f5260205f20905b8154815290600101906020018083116108cd57829003601f168201915b5050505050908060010180546108ff906125d1565b80601f016020809104026020016040519081016040528092919081815260200182805461092b906125d1565b80156109765780601f1061094d57610100808354040283529160200191610976565b820191905f5260205f20905b81548152906001019060200180831161095957829003601f168201915b50505050509080600201805461098b906125d1565b80601f01602080910402602001604051908101604052809291908181526020018280546109b7906125d1565b8015610a025780601f106109d957610100808354040283529160200191610a02565b820191905f5260205f20905b8154815290600101906020018083116109e557829003601f168201915b505050505090806003018054610a17906125d1565b80601f0160208091040260200160405190810160405280929190818152602001828054610a43906125d1565b8015610a8e5780601f10610a6557610100808354040283529160200191610a8e565b820191905f5260205f20905b815481529060010190602001808311610a7157829003601f168201915b505050505090806004018054610aa3906125d1565b80601f0160208091040260200160405190810160405280929190818152602001828054610acf906125d1565b8015610b1a5780601f10610af157610100808354040283529160200191610b1a565b820191905f5260205f20905b815481529060010190602001808311610afd57829003601f168201915b505050505090806005015490806006015490806007015490806008015490806009015f9054906101000a900460ff1690508a565b50565b5f8054610b5d906125d1565b80601f0160208091040260200160405190810160405280929190818152602001828054610b89906125d1565b8015610bd45780601f10610bab57610100808354040283529160200191610bd4565b820191905f5260205f20905b815481529060010190602001808311610bb757829003601f168201915b505050505081565b5f81604051602001610bee919061258e565b6040516020818303038152906040528051906020012083604051602001610c15919061258e565b6040516020818303038152906040528051906020012014905092915050565b610c3c611578565b5f80600185604051610c4e919061258e565b9081526020016040518091039020604051806101600160405290815f82018054610c77906125d1565b80601f0160208091040260200160405190810160405280929190818152602001828054610ca3906125d1565b8015610cee5780601f10610cc557610100808354040283529160200191610cee565b820191905f5260205f20905b815481529060010190602001808311610cd157829003601f168201915b50505050508152602001600182018054610d07906125d1565b80601f0160208091040260200160405190810160405280929190818152602001828054610d33906125d1565b8015610d7e5780601f10610d5557610100808354040283529160200191610d7e565b820191905f5260205f20905b815481529060010190602001808311610d6157829003601f168201915b50505050508152602001600282018054610d97906125d1565b80601f0160208091040260200160405190810160405280929190818152602001828054610dc3906125d1565b8015610e0e5780601f10610de557610100808354040283529160200191610e0e565b820191905f5260205f20905b815481529060010190602001808311610df157829003601f168201915b50505050508152602001600382018054610e27906125d1565b80601f0160208091040260200160405190810160405280929190818152602001828054610e53906125d1565b8015610e9e5780601f10610e7557610100808354040283529160200191610e9e565b820191905f5260205f20905b815481529060010190602001808311610e8157829003601f168201915b50505050508152602001600482018054610eb7906125d1565b80601f0160208091040260200160405190810160405280929190818152602001828054610ee3906125d1565b8015610f2e5780601f10610f0557610100808354040283529160200191610f2e565b820191905f5260205f20905b815481529060010190602001808311610f1157829003601f168201915b5050505050815260200160058201548152602001600682015481526020016007820154815260200160088201548152602001600982015f9054906101000a900460ff16151515158152602001600a8201805480602002602001604051908101604052809291908181526020015f905b828210156113ed578382905f5260205f2090600a0201604051806101400160405290815f82018054610fce906125d1565b80601f0160208091040260200160405190810160405280929190818152602001828054610ffa906125d1565b80156110455780601f1061101c57610100808354040283529160200191611045565b820191905f5260205f20905b81548152906001019060200180831161102857829003601f168201915b5050505050815260200160018201805461105e906125d1565b80601f016020809104026020016040519081016040528092919081815260200182805461108a906125d1565b80156110d55780601f106110ac576101008083540402835291602001916110d5565b820191905f5260205f20905b8154815290600101906020018083116110b857829003601f168201915b505050505081526020016002820180546110ee906125d1565b80601f016020809104026020016040519081016040528092919081815260200182805461111a906125d1565b80156111655780601f1061113c57610100808354040283529160200191611165565b820191905f5260205f20905b81548152906001019060200180831161114857829003601f168201915b5050505050815260200160038201805461117e906125d1565b80601f01602080910402602001604051908101604052809291908181526020018280546111aa906125d1565b80156111f55780601f106111cc576101008083540402835291602001916111f5565b820191905f5260205f20905b8154815290600101906020018083116111d857829003601f168201915b505050505081526020016004820154815260200160058201805480602002602001604051908101604052809291908181526020015f905b828210156112d4578382905f5260205f20018054611249906125d1565b80601f0160208091040260200160405190810160405280929190818152602001828054611275906125d1565b80156112c05780601f10611297576101008083540402835291602001916112c0565b820191905f5260205f20905b8154815290600101906020018083116112a357829003601f168201915b50505050508152602001906001019061122c565b50505050815260200160068201805480602002602001604051908101604052809291908181526020015f905b828210156113a8578382905f5260205f2001805461131d906125d1565b80601f0160208091040260200160405190810160405280929190818152602001828054611349906125d1565b80156113945780601f1061136b57610100808354040283529160200191611394565b820191905f5260205f20905b81548152906001019060200180831161137757829003601f168201915b505050505081526020019060010190611300565b5050505081526020016007820154815260200160088201548152602001600982015f9054906101000a900460ff16151515158152505081526020019060010190610f9d565b505050508152505090506113ff611578565b5f5b826101400151518110156114655782610140015181815181106114275761142661286d565b5b6020026020010151915061143e86835f0151610bdc565b1561145257816001945094505050506114a1565b808061145d906128c7565b915050611401565b506040517f08c379a000000000000000000000000000000000000000000000000000000000815260040161149890612958565b60405180910390fd5b9250929050565b5f6001826040516114b9919061258e565b9081526020016040518091039020600a01805490509050919050565b5f600280549050905090565b7f9f64639419de97116219d1f7c000638905fa8176602dc9afd7d28338b6a803cc83838360405161151493929190612976565b60405180910390a1505050565b828054828255905f5260205f20908101928215611567579160200282015b82811115611566578251829081611556919061279e565b509160200191906001019061153f565b5b50905061157491906115c9565b5090565b604051806101400160405280606081526020016060815260200160608152602001606081526020015f815260200160608152602001606081526020015f81526020015f81526020015f151581525090565b5b808211156115e8575f81816115df91906115ec565b506001016115ca565b5090565b5080546115f8906125d1565b5f825580601f106116095750611626565b601f0160209004905f5260205f20908101906116259190611629565b5b50565b5b80821115611640575f815f90555060010161162a565b5090565b5f604051905090565b5f80fd5b5f80fd5b5f819050919050565b61166781611655565b8114611671575f80fd5b50565b5f813590506116828161165e565b92915050565b5f806040838503121561169e5761169d61164d565b5b5f6116ab85828601611674565b92505060206116bc85828601611674565b9150509250929050565b5f80fd5b5f80fd5b5f601f19601f8301169050919050565b7f4e487b71000000000000000000000000000000000000000000000000000000005f52604160045260245ffd5b611714826116ce565b810181811067ffffffffffffffff82111715611733576117326116de565b5b80604052505050565b5f611745611644565b9050611751828261170b565b919050565b5f67ffffffffffffffff8211156117705761176f6116de565b5b611779826116ce565b9050602081019050919050565b828183375f83830152505050565b5f6117a66117a184611756565b61173c565b9050828152602081018484840111156117c2576117c16116ca565b5b6117cd848285611786565b509392505050565b5f82601f8301126117e9576117e86116c6565b5b81356117f9848260208601611794565b91505092915050565b5f67ffffffffffffffff82111561181c5761181b6116de565b5b602082029050602081019050919050565b5f80fd5b5f80fd5b5f80fd5b5f67ffffffffffffffff821115611853576118526116de565b5b602082029050602081019050919050565b5f61187661187184611839565b61173c565b905080838252602082019050602084028301858111156118995761189861182d565b5b835b818110156118e057803567ffffffffffffffff8111156118be576118bd6116c6565b5b8086016118cb89826117d5565b8552602085019450505060208101905061189b565b5050509392505050565b5f82601f8301126118fe576118fd6116c6565b5b813561190e848260208601611864565b91505092915050565b5f8115159050919050565b61192b81611917565b8114611935575f80fd5b50565b5f8135905061194681611922565b92915050565b5f610140828403121561196257611961611831565b5b61196d61014061173c565b90505f82013567ffffffffffffffff81111561198c5761198b611835565b5b611998848285016117d5565b5f83015250602082013567ffffffffffffffff8111156119bb576119ba611835565b5b6119c7848285016117d5565b602083015250604082013567ffffffffffffffff8111156119eb576119ea611835565b5b6119f7848285016117d5565b604083015250606082013567ffffffffffffffff811115611a1b57611a1a611835565b5b611a27848285016117d5565b6060830152506080611a3b84828501611674565b60808301525060a082013567ffffffffffffffff811115611a5f57611a5e611835565b5b611a6b848285016118ea565b60a08301525060c082013567ffffffffffffffff811115611a8f57611a8e611835565b5b611a9b848285016118ea565b60c08301525060e0611aaf84828501611674565b60e083015250610100611ac484828501611674565b61010083015250610120611ada84828501611938565b6101208301525092915050565b5f611af9611af484611802565b61173c565b90508083825260208201905060208402830185811115611b1c57611b1b61182d565b5b835b81811015611b6357803567ffffffffffffffff811115611b4157611b406116c6565b5b808601611b4e898261194c565b85526020850194505050602081019050611b1e565b5050509392505050565b5f82601f830112611b8157611b806116c6565b5b8135611b91848260208601611ae7565b91505092915050565b5f805f805f805f80610100898b031215611bb757611bb661164d565b5b5f89013567ffffffffffffffff811115611bd457611bd3611651565b5b611be08b828c016117d5565b985050602089013567ffffffffffffffff811115611c0157611c00611651565b5b611c0d8b828c016117d5565b975050604089013567ffffffffffffffff811115611c2e57611c2d611651565b5b611c3a8b828c016117d5565b965050606089013567ffffffffffffffff811115611c5b57611c5a611651565b5b611c678b828c016117d5565b955050608089013567ffffffffffffffff811115611c8857611c87611651565b5b611c948b828c016117d5565b94505060a0611ca58b828c01611674565b93505060c0611cb68b828c01611674565b92505060e089013567ffffffffffffffff811115611cd757611cd6611651565b5b611ce38b828c01611b6d565b9150509295985092959890939650565b5f8060408385031215611d0957611d0861164d565b5b5f83013567ffffffffffffffff811115611d2657611d25611651565b5b611d32858286016117d5565b925050602083013567ffffffffffffffff811115611d5357611d52611651565b5b611d5f8582860161194c565b9150509250929050565b5f60208284031215611d7e57611d7d61164d565b5b5f611d8b84828501611674565b91505092915050565b5f81519050919050565b5f82825260208201905092915050565b5f5b83811015611dcb578082015181840152602081019050611db0565b5f8484015250505050565b5f611de082611d94565b611dea8185611d9e565b9350611dfa818560208601611dae565b611e03816116ce565b840191505092915050565b5f6020820190508181035f830152611e268184611dd6565b905092915050565b5f81519050919050565b5f82825260208201905092915050565b5f819050602082019050919050565b5f82825260208201905092915050565b5f611e7182611d94565b611e7b8185611e57565b9350611e8b818560208601611dae565b611e94816116ce565b840191505092915050565b5f611eaa8383611e67565b905092915050565b5f602082019050919050565b5f611ec882611e2e565b611ed28185611e38565b935083602082028501611ee485611e48565b805f5b85811015611f1f5784840389528151611f008582611e9f565b9450611f0b83611eb2565b925060208a01995050600181019050611ee7565b50829750879550505050505092915050565b5f6020820190508181035f830152611f498184611ebe565b905092915050565b611f5a81611655565b82525050565b611f6981611917565b82525050565b5f610100820190508181035f830152611f88818b611dd6565b90508181036020830152611f9c818a611dd6565b90508181036040830152611fb08189611dd6565b90508181036060830152611fc48188611dd6565b9050611fd36080830187611f51565b611fe060a0830186611f51565b611fed60c0830185611f51565b611ffa60e0830184611f60565b9998505050505050505050565b5f81519050919050565b5f82825260208201905092915050565b5f819050602082019050919050565b61203981611655565b82525050565b5f61204a8383612030565b60208301905092915050565b5f602082019050919050565b5f61206c82612007565b6120768185612011565b935061208183612021565b805f5b838110156120b1578151612098888261203f565b97506120a383612056565b925050600181019050612084565b5085935050505092915050565b5f610140820190508181035f8301526120d7818d611dd6565b905081810360208301526120eb818c611dd6565b905081810360408301526120ff818b611dd6565b90508181036060830152612113818a611dd6565b90506121226080830189611f51565b61212f60a0830188611f51565b61213c60c0830187611f51565b61214960e0830186611f60565b81810361010083015261215c8185612062565b90508181036101208301526121718184611ebe565b90509b9a5050505050505050505050565b5f602082840312156121975761219661164d565b5b5f82013567ffffffffffffffff8111156121b4576121b3611651565b5b6121c0848285016117d5565b91505092915050565b5f610140820190508181035f8301526121e2818d611dd6565b905081810360208301526121f6818c611dd6565b9050818103604083015261220a818b611dd6565b9050818103606083015261221e818a611dd6565b905081810360808301526122328189611dd6565b905061224160a0830188611f51565b61224e60c0830187611f51565b61225b60e0830186611f51565b612269610100830185611f51565b612277610120830184611f60565b9b9a5050505050505050505050565b5f806040838503121561229c5761229b61164d565b5b5f83013567ffffffffffffffff8111156122b9576122b8611651565b5b6122c5858286016117d5565b925050602083013567ffffffffffffffff8111156122e6576122e5611651565b5b6122f2858286016117d5565b9150509250929050565b5f60208201905061230f5f830184611f60565b92915050565b5f82825260208201905092915050565b5f61232f82611e2e565b6123398185612315565b93508360208202850161234b85611e48565b805f5b8581101561238657848403895281516123678582611e9f565b945061237283611eb2565b925060208a0199505060018101905061234e565b50829750879550505050505092915050565b6123a181611917565b82525050565b5f61014083015f8301518482035f8601526123c28282611e67565b915050602083015184820360208601526123dc8282611e67565b915050604083015184820360408601526123f68282611e67565b915050606083015184820360608601526124108282611e67565b91505060808301516124256080860182612030565b5060a083015184820360a086015261243d8282612325565b91505060c083015184820360c08601526124578282612325565b91505060e083015161246c60e0860182612030565b50610100830151612481610100860182612030565b50610120830151612496610120860182612398565b508091505092915050565b5f6040820190508181035f8301526124b981856123a7565b90506124c86020830184611f60565b9392505050565b5f6020820190506124e25f830184611f51565b92915050565b5f805f606084860312156124ff576124fe61164d565b5b5f61250c86828701611674565b935050602061251d86828701611674565b925050604084013567ffffffffffffffff81111561253e5761253d611651565b5b61254a868287016117d5565b9150509250925092565b5f81905092915050565b5f61256882611d94565b6125728185612554565b9350612582818560208601611dae565b80840191505092915050565b5f612599828461255e565b915081905092915050565b7f4e487b71000000000000000000000000000000000000000000000000000000005f52602260045260245ffd5b5f60028204905060018216806125e857607f821691505b6020821081036125fb576125fa6125a4565b5b50919050565b5f819050815f5260205f209050919050565b5f6020601f8301049050919050565b5f82821b905092915050565b5f6008830261265d7fffffffffffffffffffffffffffffffffffffffffffffffffffffffffffffffff82612622565b6126678683612622565b95508019841693508086168417925050509392505050565b5f819050919050565b5f6126a261269d61269884611655565b61267f565b611655565b9050919050565b5f819050919050565b6126bb83612688565b6126cf6126c7826126a9565b84845461262e565b825550505050565b5f90565b6126e36126d7565b6126ee8184846126b2565b505050565b5b81811015612711576127065f826126db565b6001810190506126f4565b5050565b601f8211156127565761272781612601565b61273084612613565b8101602085101561273f578190505b61275361274b85612613565b8301826126f3565b50505b505050565b5f82821c905092915050565b5f6127765f198460080261275b565b1980831691505092915050565b5f61278e8383612767565b9150826002028217905092915050565b6127a782611d94565b67ffffffffffffffff8111156127c0576127bf6116de565b5b6127ca82546125d1565b6127d5828285612715565b5f60209050601f831160018114612806575f84156127f4578287015190505b6127fe8582612783565b865550612865565b601f19841661281486612601565b5f5b8281101561283b57848901518255600182019150602085019450602081019050612816565b868310156128585784890151612854601f891682612767565b8355505b6001600288020188555050505b505050505050565b7f4e487b71000000000000000000000000000000000000000000000000000000005f52603260045260245ffd5b7f4e487b71000000000000000000000000000000000000000000000000000000005f52601160045260245ffd5b5f6128d182611655565b91507fffffffffffffffffffffffffffffffffffffffffffffffffffffffffffffffff82036129035761290261289a565b5b600182019050919050565b7f5374616765206e6f7420666f756e6400000000000000000000000000000000005f82015250565b5f612942600f83611d9e565b915061294d8261290e565b602082019050919050565b5f6020820190508181035f83015261296f81612936565b9050919050565b5f6060820190506129895f830186611f51565b6129966020830185611f51565b81810360408301526129a88184611dd6565b905094935050505056fea26469706673582212201c7bcac1e3dc6c8ffebcb1233a63c036a8b16a9adf69fdb04b7fd2dcca262ae464736f6c63430008140033",
					"opcodes": "PUSH1 0x80 PUSH1 0x40 MSTORE PUSH1 0x40 MLOAD DUP1 PUSH1 0x40 ADD PUSH1 0x40 MSTORE DUP1 PUSH1 0x6 DUP2 MSTORE PUSH1 0x20 ADD PUSH32 0x6167656E63790000000000000000000000000000000000000000000000000000 DUP2 MSTORE POP PUSH0 SWAP1 DUP2 PUSH3 0x49 SWAP2 SWAP1 PUSH3 0x2C1 JUMP JUMPDEST POP CALLVALUE DUP1 ISZERO PUSH3 0x56 JUMPI PUSH0 DUP1 REVERT JUMPDEST POP PUSH3 0x3A5 JUMP JUMPDEST PUSH0 DUP2 MLOAD SWAP1 POP SWAP2 SWAP1 POP JUMP JUMPDEST PUSH32 0x4E487B7100000000000000000000000000000000000000000000000000000000 PUSH0 MSTORE PUSH1 0x41 PUSH1 0x4 MSTORE PUSH1 0x24 PUSH0 REVERT JUMPDEST PUSH32 0x4E487B7100000000000000000000000000000000000000000000000000000000 PUSH0 MSTORE PUSH1 0x22 PUSH1 0x4 MSTORE PUSH1 0x24 PUSH0 REVERT JUMPDEST PUSH0 PUSH1 0x2 DUP3 DIV SWAP1 POP PUSH1 0x1 DUP3 AND DUP1 PUSH3 0xD9 JUMPI PUSH1 0x7F DUP3 AND SWAP2 POP JUMPDEST PUSH1 0x20 DUP3 LT DUP2 SUB PUSH3 0xEF JUMPI PUSH3 0xEE PUSH3 0x94 JUMP JUMPDEST JUMPDEST POP SWAP2 SWAP1 POP JUMP JUMPDEST PUSH0 DUP2 SWAP1 POP DUP2 PUSH0 MSTORE PUSH1 0x20 PUSH0 KECCAK256 SWAP1 POP SWAP2 SWAP1 POP JUMP JUMPDEST PUSH0 PUSH1 0x20 PUSH1 0x1F DUP4 ADD DIV SWAP1 POP SWAP2 SWAP1 POP JUMP JUMPDEST PUSH0 DUP3 DUP3 SHL SWAP1 POP SWAP3 SWAP2 POP POP JUMP JUMPDEST PUSH0 PUSH1 0x8 DUP4 MUL PUSH3 0x153 PUSH32 0xFFFFFFFFFFFFFFFFFFFFFFFFFFFFFFFFFFFFFFFFFFFFFFFFFFFFFFFFFFFFFFFF DUP3 PUSH3 0x116 JUMP JUMPDEST PUSH3 0x15F DUP7 DUP4 PUSH3 0x116 JUMP JUMPDEST SWAP6 POP DUP1 NOT DUP5 AND SWAP4 POP DUP1 DUP7 AND DUP5 OR SWAP3 POP POP POP SWAP4 SWAP3 POP POP POP JUMP JUMPDEST PUSH0 DUP2 SWAP1 POP SWAP2 SWAP1 POP JUMP JUMPDEST PUSH0 DUP2 SWAP1 POP SWAP2 SWAP1 POP JUMP JUMPDEST PUSH0 PUSH3 0x1A9 PUSH3 0x1A3 PUSH3 0x19D DUP5 PUSH3 0x177 JUMP JUMPDEST PUSH3 0x180 JUMP JUMPDEST PUSH3 0x177 JUMP JUMPDEST SWAP1 POP SWAP2 SWAP1 POP JUMP JUMPDEST PUSH0 DUP2 SWAP1 POP SWAP2 SWAP1 POP JUMP JUMPDEST PUSH3 0x1C4 DUP4 PUSH3 0x189 JUMP JUMPDEST PUSH3 0x1DC PUSH3 0x1D3 DUP3 PUSH3 0x1B0 JUMP JUMPDEST DUP5 DUP5 SLOAD PUSH3 0x122 JUMP JUMPDEST DUP3 SSTORE POP POP POP POP JUMP JUMPDEST PUSH0 SWAP1 JUMP JUMPDEST PUSH3 0x1F2 PUSH3 0x1E4 JUMP JUMPDEST PUSH3 0x1FF DUP2 DUP5 DUP5 PUSH3 0x1B9 JUMP JUMPDEST POP POP POP JUMP JUMPDEST JUMPDEST DUP2 DUP2 LT ISZERO PUSH3 0x226 JUMPI PUSH3 0x21A PUSH0 DUP3 PUSH3 0x1E8 JUMP JUMPDEST PUSH1 0x1 DUP2 ADD SWAP1 POP PUSH3 0x205 JUMP JUMPDEST POP POP JUMP JUMPDEST PUSH1 0x1F DUP3 GT ISZERO PUSH3 0x275 JUMPI PUSH3 0x23F DUP2 PUSH3 0xF5 JUMP JUMPDEST PUSH3 0x24A DUP5 PUSH3 0x107 JUMP JUMPDEST DUP2 ADD PUSH1 0x20 DUP6 LT ISZERO PUSH3 0x25A JUMPI DUP2 SWAP1 POP JUMPDEST PUSH3 0x272 PUSH3 0x269 DUP6 PUSH3 0x107 JUMP JUMPDEST DUP4 ADD DUP3 PUSH3 0x204 JUMP JUMPDEST POP POP JUMPDEST POP POP POP JUMP JUMPDEST PUSH0 DUP3 DUP3 SHR SWAP1 POP SWAP3 SWAP2 POP POP JUMP JUMPDEST PUSH0 PUSH3 0x297 PUSH0 NOT DUP5 PUSH1 0x8 MUL PUSH3 0x27A JUMP JUMPDEST NOT DUP1 DUP4 AND SWAP2 POP POP SWAP3 SWAP2 POP POP JUMP JUMPDEST PUSH0 PUSH3 0x2B1 DUP4 DUP4 PUSH3 0x286 JUMP JUMPDEST SWAP2 POP DUP3 PUSH1 0x2 MUL DUP3 OR SWAP1 POP SWAP3 SWAP2 POP POP JUMP JUMPDEST PUSH3 0x2CC DUP3 PUSH3 0x5D JUMP JUMPDEST PUSH8 0xFFFFFFFFFFFFFFFF DUP2 GT ISZERO PUSH3 0x2E8 JUMPI PUSH3 0x2E7 PUSH3 0x67 JUMP JUMPDEST JUMPDEST PUSH3 0x2F4 DUP3 SLOAD PUSH3 0xC1 JUMP JUMPDEST PUSH3 0x301 DUP3 DUP3 DUP6 PUSH3 0x22A JUMP JUMPDEST PUSH0 PUSH1 0x20 SWAP1 POP PUSH1 0x1F DUP4 GT PUSH1 0x1 DUP2 EQ PUSH3 0x337 JUMPI PUSH0 DUP5 ISZERO PUSH3 0x322 JUMPI DUP3 DUP8 ADD MLOAD SWAP1 POP JUMPDEST PUSH3 0x32E DUP6 DUP3 PUSH3 0x2A4 JUMP JUMPDEST DUP7 SSTORE POP PUSH3 0x39D JUMP JUMPDEST PUSH1 0x1F NOT DUP5 AND PUSH3 0x347 DUP7 PUSH3 0xF5 JUMP JUMPDEST PUSH0 JUMPDEST DUP3 DUP2 LT ISZERO PUSH3 0x370 JUMPI DUP5 DUP10 ADD MLOAD DUP3 SSTORE PUSH1 0x1 DUP3 ADD SWAP2 POP PUSH1 0x20 DUP6 ADD SWAP5 POP PUSH1 0x20 DUP2 ADD SWAP1 POP PUSH3 0x349 JUMP JUMPDEST DUP7 DUP4 LT ISZERO PUSH3 0x390 JUMPI DUP5 DUP10 ADD MLOAD PUSH3 0x38C PUSH1 0x1F DUP10 AND DUP3 PUSH3 0x286 JUMP JUMPDEST DUP4 SSTORE POP JUMPDEST PUSH1 0x1 PUSH1 0x2 DUP9 MUL ADD DUP9 SSTORE POP POP POP JUMPDEST POP POP POP POP POP POP JUMP JUMPDEST PUSH2 0x29E8 DUP1 PUSH3 0x3B3 PUSH0 CODECOPY PUSH0 RETURN INVALID PUSH1 0x80 PUSH1 0x40 MSTORE CALLVALUE DUP1 ISZERO PUSH2 0xF JUMPI PUSH0 DUP1 REVERT JUMPDEST POP PUSH1 0x4 CALLDATASIZE LT PUSH2 0xF3 JUMPI PUSH0 CALLDATALOAD PUSH1 0xE0 SHR DUP1 PUSH4 0x91C9B268 GT PUSH2 0x95 JUMPI DUP1 PUSH4 0xCBE737B3 GT PUSH2 0x64 JUMPI DUP1 PUSH4 0xCBE737B3 EQ PUSH2 0x2AC JUMPI DUP1 PUSH4 0xCE89E021 EQ PUSH2 0x2DD JUMPI DUP1 PUSH4 0xE4A8F18B EQ PUSH2 0x30D JUMPI DUP1 PUSH4 0xF5C4B73E EQ PUSH2 0x32B JUMPI PUSH2 0xF3 JUMP JUMPDEST DUP1 PUSH4 0x91C9B268 EQ PUSH2 0x209 JUMPI DUP1 PUSH4 0x93DC12E6 EQ PUSH2 0x242 JUMPI DUP1 PUSH4 0x99E76D35 EQ PUSH2 0x25E JUMPI DUP1 PUSH4 0xBED34BBA EQ PUSH2 0x27C JUMPI PUSH2 0xF3 JUMP JUMPDEST DUP1 PUSH4 0x48C35AD4 GT PUSH2 0xD1 JUMPI DUP1 PUSH4 0x48C35AD4 EQ PUSH2 0x14B JUMPI DUP1 PUSH4 0x4AC64766 EQ PUSH2 0x17B JUMPI DUP1 PUSH4 0x5F8439E3 EQ PUSH2 0x199 JUMPI DUP1 PUSH4 0x8ABB10C6 EQ PUSH2 0x1D0 JUMPI PUSH2 0xF3 JUMP JUMPDEST DUP1 PUSH4 0x89CD025 EQ PUSH2 0xF7 JUMPI DUP1 PUSH4 0x221C51BB EQ PUSH2 0x113 JUMPI DUP1 PUSH4 0x292EE7C9 EQ PUSH2 0x12F JUMPI JUMPDEST PUSH0 DUP1 REVERT JUMPDEST PUSH2 0x111 PUSH1 0x4 DUP1 CALLDATASIZE SUB DUP2 ADD SWAP1 PUSH2 0x10C SWAP2 SWAP1 PUSH2 0x1688 JUMP JUMPDEST PUSH2 0x347 JUMP JUMPDEST STOP JUMPDEST PUSH2 0x12D PUSH1 0x4 DUP1 CALLDATASIZE SUB DUP2 ADD SWAP1 PUSH2 0x128 SWAP2 SWAP1 PUSH2 0x1B9A JUMP JUMPDEST PUSH2 0x34B JUMP JUMPDEST STOP JUMPDEST PUSH2 0x149 PUSH1 0x4 DUP1 CALLDATASIZE SUB DUP2 ADD SWAP1 PUSH2 0x144 SWAP2 SWAP1 PUSH2 0x1CF3 JUMP JUMPDEST PUSH2 0x576 JUMP JUMPDEST STOP JUMPDEST PUSH2 0x165 PUSH1 0x4 DUP1 CALLDATASIZE SUB DUP2 ADD SWAP1 PUSH2 0x160 SWAP2 SWAP1 PUSH2 0x1D69 JUMP JUMPDEST PUSH2 0x693 JUMP JUMPDEST PUSH1 0x40 MLOAD PUSH2 0x172 SWAP2 SWAP1 PUSH2 0x1E0E JUMP JUMPDEST PUSH1 0x40 MLOAD DUP1 SWAP2 SUB SWAP1 RETURN JUMPDEST PUSH2 0x183 PUSH2 0x739 JUMP JUMPDEST PUSH1 0x40 MLOAD PUSH2 0x190 SWAP2 SWAP1 PUSH2 0x1F31 JUMP JUMPDEST PUSH1 0x40 MLOAD DUP1 SWAP2 SUB SWAP1 RETURN JUMPDEST PUSH2 0x1B3 PUSH1 0x4 DUP1 CALLDATASIZE SUB DUP2 ADD SWAP1 PUSH2 0x1AE SWAP2 SWAP1 PUSH2 0x1D69 JUMP JUMPDEST PUSH2 0x80D JUMP JUMPDEST PUSH1 0x40 MLOAD PUSH2 0x1C7 SWAP9 SWAP8 SWAP7 SWAP6 SWAP5 SWAP4 SWAP3 SWAP2 SWAP1 PUSH2 0x1F6F JUMP JUMPDEST PUSH1 0x40 MLOAD DUP1 SWAP2 SUB SWAP1 RETURN JUMPDEST PUSH2 0x1EA PUSH1 0x4 DUP1 CALLDATASIZE SUB DUP2 ADD SWAP1 PUSH2 0x1E5 SWAP2 SWAP1 PUSH2 0x1D69 JUMP JUMPDEST PUSH2 0x822 JUMP JUMPDEST PUSH1 0x40 MLOAD PUSH2 0x200 SWAP11 SWAP10 SWAP9 SWAP8 SWAP7 SWAP6 SWAP5 SWAP4 SWAP3 SWAP2 SWAP1 PUSH2 0x20BE JUMP JUMPDEST PUSH1 0x40 MLOAD DUP1 SWAP2 SUB SWAP1 RETURN JUMPDEST PUSH2 0x223 PUSH1 0x4 DUP1 CALLDATASIZE SUB DUP2 ADD SWAP1 PUSH2 0x21E SWAP2 SWAP1 PUSH2 0x2182 JUMP JUMPDEST PUSH2 0x83C JUMP JUMPDEST PUSH1 0x40 MLOAD PUSH2 0x239 SWAP11 SWAP10 SWAP9 SWAP8 SWAP7 SWAP6 SWAP5 SWAP4 SWAP3 SWAP2 SWAP1 PUSH2 0x21C9 JUMP JUMPDEST PUSH1 0x40 MLOAD DUP1 SWAP2 SUB SWAP1 RETURN JUMPDEST PUSH2 0x25C PUSH1 0x4 DUP1 CALLDATASIZE SUB DUP2 ADD SWAP1 PUSH2 0x257 SWAP2 SWAP1 PUSH2 0x1D69 JUMP JUMPDEST PUSH2 0xB4E JUMP JUMPDEST STOP JUMPDEST PUSH2 0x266 PUSH2 0xB51 JUMP JUMPDEST PUSH1 0x40 MLOAD PUSH2 0x273 SWAP2 SWAP1 PUSH2 0x1E0E JUMP JUMPDEST PUSH1 0x40 MLOAD DUP1 SWAP2 SUB SWAP1 RETURN JUMPDEST PUSH2 0x296 PUSH1 0x4 DUP1 CALLDATASIZE SUB DUP2 ADD SWAP1 PUSH2 0x291 SWAP2 SWAP1 PUSH2 0x2286 JUMP JUMPDEST PUSH2 0xBDC JUMP JUMPDEST PUSH1 0x40 MLOAD PUSH2 0x2A3 SWAP2 SWAP1 PUSH2 0x22FC JUMP JUMPDEST PUSH1 0x40 MLOAD DUP1 SWAP2 SUB SWAP1 RETURN JUMPDEST PUSH2 0x2C6 PUSH1 0x4 DUP1 CALLDATASIZE SUB DUP2 ADD SWAP1 PUSH2 0x2C1 SWAP2 SWAP1 PUSH2 0x2286 JUMP JUMPDEST PUSH2 0xC34 JUMP JUMPDEST PUSH1 0x40 MLOAD PUSH2 0x2D4 SWAP3 SWAP2 SWAP1 PUSH2 0x24A1 JUMP JUMPDEST PUSH1 0x40 MLOAD DUP1 SWAP2 SUB SWAP1 RETURN JUMPDEST PUSH2 0x2F7 PUSH1 0x4 DUP1 CALLDATASIZE SUB DUP2 ADD SWAP1 PUSH2 0x2F2 SWAP2 SWAP1 PUSH2 0x2182 JUMP JUMPDEST PUSH2 0x14A8 JUMP JUMPDEST PUSH1 0x40 MLOAD PUSH2 0x304 SWAP2 SWAP1 PUSH2 0x24CF JUMP JUMPDEST PUSH1 0x40 MLOAD DUP1 SWAP2 SUB SWAP1 RETURN JUMPDEST PUSH2 0x315 PUSH2 0x14D5 JUMP JUMPDEST PUSH1 0x40 MLOAD PUSH2 0x322 SWAP2 SWAP1 PUSH2 0x24CF JUMP JUMPDEST PUSH1 0x40 MLOAD DUP1 SWAP2 SUB SWAP1 RETURN JUMPDEST PUSH2 0x345 PUSH1 0x4 DUP1 CALLDATASIZE SUB DUP2 ADD SWAP1 PUSH2 0x340 SWAP2 SWAP1 PUSH2 0x24E8 JUMP JUMPDEST PUSH2 0x14E1 JUMP JUMPDEST STOP JUMPDEST POP POP JUMP JUMPDEST PUSH0 PUSH1 0x1 DUP10 PUSH1 0x40 MLOAD PUSH2 0x35C SWAP2 SWAP1 PUSH2 0x258E JUMP JUMPDEST SWAP1 DUP2 MSTORE PUSH1 0x20 ADD PUSH1 0x40 MLOAD DUP1 SWAP2 SUB SWAP1 KECCAK256 SWAP1 POP DUP8 DUP2 PUSH1 0x1 ADD SWAP1 DUP2 PUSH2 0x37D SWAP2 SWAP1 PUSH2 0x279E JUMP JUMPDEST POP DUP7 DUP2 PUSH1 0x2 ADD SWAP1 DUP2 PUSH2 0x38F SWAP2 SWAP1 PUSH2 0x279E JUMP JUMPDEST POP DUP9 DUP2 PUSH0 ADD SWAP1 DUP2 PUSH2 0x3A0 SWAP2 SWAP1 PUSH2 0x279E JUMP JUMPDEST POP DUP6 DUP2 PUSH1 0x3 ADD SWAP1 DUP2 PUSH2 0x3B2 SWAP2 SWAP1 PUSH2 0x279E JUMP JUMPDEST POP DUP5 DUP2 PUSH1 0x4 ADD SWAP1 DUP2 PUSH2 0x3C4 SWAP2 SWAP1 PUSH2 0x279E JUMP JUMPDEST POP TIMESTAMP DUP2 PUSH1 0x5 ADD DUP2 SWAP1 SSTORE POP DUP4 DUP2 PUSH1 0x6 ADD DUP2 SWAP1 SSTORE POP DUP3 DUP2 PUSH1 0x7 ADD DUP2 SWAP1 SSTORE POP PUSH0 DUP2 PUSH1 0x9 ADD PUSH0 PUSH2 0x100 EXP DUP2 SLOAD DUP2 PUSH1 0xFF MUL NOT AND SWAP1 DUP4 ISZERO ISZERO MUL OR SWAP1 SSTORE POP PUSH0 DUP2 PUSH1 0x8 ADD DUP2 SWAP1 SSTORE POP PUSH1 0x2 DUP10 SWAP1 DUP1 PUSH1 0x1 DUP2 SLOAD ADD DUP1 DUP3 SSTORE DUP1 SWAP2 POP POP PUSH1 0x1 SWAP1 SUB SWAP1 PUSH0 MSTORE PUSH1 0x20 PUSH0 KECCAK256 ADD PUSH0 SWAP1 SWAP2 SWAP1 SWAP2 SWAP1 SWAP2 POP SWAP1 DUP2 PUSH2 0x435 SWAP2 SWAP1 PUSH2 0x279E JUMP JUMPDEST POP PUSH0 JUMPDEST DUP3 MLOAD DUP2 LT ISZERO PUSH2 0x56A JUMPI DUP2 PUSH1 0xA ADD DUP4 DUP3 DUP2 MLOAD DUP2 LT PUSH2 0x458 JUMPI PUSH2 0x457 PUSH2 0x286D JUMP JUMPDEST JUMPDEST PUSH1 0x20 MUL PUSH1 0x20 ADD ADD MLOAD SWAP1 DUP1 PUSH1 0x1 DUP2 SLOAD ADD DUP1 DUP3 SSTORE DUP1 SWAP2 POP POP PUSH1 0x1 SWAP1 SUB SWAP1 PUSH0 MSTORE PUSH1 0x20 PUSH0 KECCAK256 SWAP1 PUSH1 0xA MUL ADD PUSH0 SWAP1 SWAP2 SWAP1 SWAP2 SWAP1 SWAP2 POP PUSH0 DUP3 ADD MLOAD DUP2 PUSH0 ADD SWAP1 DUP2 PUSH2 0x499 SWAP2 SWAP1 PUSH2 0x279E JUMP JUMPDEST POP PUSH1 0x20 DUP3 ADD MLOAD DUP2 PUSH1 0x1 ADD SWAP1 DUP2 PUSH2 0x4AF SWAP2 SWAP1 PUSH2 0x279E JUMP JUMPDEST POP PUSH1 0x40 DUP3 ADD MLOAD DUP2 PUSH1 0x2 ADD SWAP1 DUP2 PUSH2 0x4C5 SWAP2 SWAP1 PUSH2 0x279E JUMP JUMPDEST POP PUSH1 0x60 DUP3 ADD MLOAD DUP2 PUSH1 0x3 ADD SWAP1 DUP2 PUSH2 0x4DB SWAP2 SWAP1 PUSH2 0x279E JUMP JUMPDEST POP PUSH1 0x80 DUP3 ADD MLOAD DUP2 PUSH1 0x4 ADD SSTORE PUSH1 0xA0 DUP3 ADD MLOAD DUP2 PUSH1 0x5 ADD SWAP1 DUP1 MLOAD SWAP1 PUSH1 0x20 ADD SWAP1 PUSH2 0x502 SWAP3 SWAP2 SWAP1 PUSH2 0x1521 JUMP JUMPDEST POP PUSH1 0xC0 DUP3 ADD MLOAD DUP2 PUSH1 0x6 ADD SWAP1 DUP1 MLOAD SWAP1 PUSH1 0x20 ADD SWAP1 PUSH2 0x51F SWAP3 SWAP2 SWAP1 PUSH2 0x1521 JUMP JUMPDEST POP PUSH1 0xE0 DUP3 ADD MLOAD DUP2 PUSH1 0x7 ADD SSTORE PUSH2 0x100 DUP3 ADD MLOAD DUP2 PUSH1 0x8 ADD SSTORE PUSH2 0x120 DUP3 ADD MLOAD DUP2 PUSH1 0x9 ADD PUSH0 PUSH2 0x100 EXP DUP2 SLOAD DUP2 PUSH1 0xFF MUL NOT AND SWAP1 DUP4 ISZERO ISZERO MUL OR SWAP1 SSTORE POP POP POP DUP1 DUP1 PUSH2 0x562 SWAP1 PUSH2 0x28C7 JUMP JUMPDEST SWAP2 POP POP PUSH2 0x438 JUMP JUMPDEST POP POP POP POP POP POP POP POP POP POP JUMP JUMPDEST PUSH1 0x1 DUP3 PUSH1 0x40 MLOAD PUSH2 0x586 SWAP2 SWAP1 PUSH2 0x258E JUMP JUMPDEST SWAP1 DUP2 MSTORE PUSH1 0x20 ADD PUSH1 0x40 MLOAD DUP1 SWAP2 SUB SWAP1 KECCAK256 PUSH1 0xA ADD DUP2 SWAP1 DUP1 PUSH1 0x1 DUP2 SLOAD ADD DUP1 DUP3 SSTORE DUP1 SWAP2 POP POP PUSH1 0x1 SWAP1 SUB SWAP1 PUSH0 MSTORE PUSH1 0x20 PUSH0 KECCAK256 SWAP1 PUSH1 0xA MUL ADD PUSH0 SWAP1 SWAP2 SWAP1 SWAP2 SWAP1 SWAP2 POP PUSH0 DUP3 ADD MLOAD DUP2 PUSH0 ADD SWAP1 DUP2 PUSH2 0x5D1 SWAP2 SWAP1 PUSH2 0x279E JUMP JUMPDEST POP PUSH1 0x20 DUP3 ADD MLOAD DUP2 PUSH1 0x1 ADD SWAP1 DUP2 PUSH2 0x5E7 SWAP2 SWAP1 PUSH2 0x279E JUMP JUMPDEST POP PUSH1 0x40 DUP3 ADD MLOAD DUP2 PUSH1 0x2 ADD SWAP1 DUP2 PUSH2 0x5FD SWAP2 SWAP1 PUSH2 0x279E JUMP JUMPDEST POP PUSH1 0x60 DUP3 ADD MLOAD DUP2 PUSH1 0x3 ADD SWAP1 DUP2 PUSH2 0x613 SWAP2 SWAP1 PUSH2 0x279E JUMP JUMPDEST POP PUSH1 0x80 DUP3 ADD MLOAD DUP2 PUSH1 0x4 ADD SSTORE PUSH1 0xA0 DUP3 ADD MLOAD DUP2 PUSH1 0x5 ADD SWAP1 DUP1 MLOAD SWAP1 PUSH1 0x20 ADD SWAP1 PUSH2 0x63A SWAP3 SWAP2 SWAP1 PUSH2 0x1521 JUMP JUMPDEST POP PUSH1 0xC0 DUP3 ADD MLOAD DUP2 PUSH1 0x6 ADD SWAP1 DUP1 MLOAD SWAP1 PUSH1 0x20 ADD SWAP1 PUSH2 0x657 SWAP3 SWAP2 SWAP1 PUSH2 0x1521 JUMP JUMPDEST POP PUSH1 0xE0 DUP3 ADD MLOAD DUP2 PUSH1 0x7 ADD SSTORE PUSH2 0x100 DUP3 ADD MLOAD DUP2 PUSH1 0x8 ADD SSTORE PUSH2 0x120 DUP3 ADD MLOAD DUP2 PUSH1 0x9 ADD PUSH0 PUSH2 0x100 EXP DUP2 SLOAD DUP2 PUSH1 0xFF MUL NOT AND SWAP1 DUP4 ISZERO ISZERO MUL OR SWAP1 SSTORE POP POP POP POP POP JUMP JUMPDEST PUSH1 0x2 DUP2 DUP2 SLOAD DUP2 LT PUSH2 0x6A2 JUMPI PUSH0 DUP1 REVERT JUMPDEST SWAP1 PUSH0 MSTORE PUSH1 0x20 PUSH0 KECCAK256 ADD PUSH0 SWAP2 POP SWAP1 POP DUP1 SLOAD PUSH2 0x6BA SWAP1 PUSH2 0x25D1 JUMP JUMPDEST DUP1 PUSH1 0x1F ADD PUSH1 0x20 DUP1 SWAP2 DIV MUL PUSH1 0x20 ADD PUSH1 0x40 MLOAD SWAP1 DUP2 ADD PUSH1 0x40 MSTORE DUP1 SWAP3 SWAP2 SWAP1 DUP2 DUP2 MSTORE PUSH1 0x20 ADD DUP3 DUP1 SLOAD PUSH2 0x6E6 SWAP1 PUSH2 0x25D1 JUMP JUMPDEST DUP1 ISZERO PUSH2 0x731 JUMPI DUP1 PUSH1 0x1F LT PUSH2 0x708 JUMPI PUSH2 0x100 DUP1 DUP4 SLOAD DIV MUL DUP4 MSTORE SWAP2 PUSH1 0x20 ADD SWAP2 PUSH2 0x731 JUMP JUMPDEST DUP3 ADD SWAP2 SWAP1 PUSH0 MSTORE PUSH1 0x20 PUSH0 KECCAK256 SWAP1 JUMPDEST DUP2 SLOAD DUP2 MSTORE SWAP1 PUSH1 0x1 ADD SWAP1 PUSH1 0x20 ADD DUP1 DUP4 GT PUSH2 0x714 JUMPI DUP3 SWAP1 SUB PUSH1 0x1F AND DUP3 ADD SWAP2 JUMPDEST POP POP POP POP POP DUP2 JUMP JUMPDEST PUSH1 0x60 PUSH1 0x2 DUP1 SLOAD DUP1 PUSH1 0x20 MUL PUSH1 0x20 ADD PUSH1 0x40 MLOAD SWAP1 DUP2 ADD PUSH1 0x40 MSTORE DUP1 SWAP3 SWAP2 SWAP1 DUP2 DUP2 MSTORE PUSH1 0x20 ADD PUSH0 SWAP1 JUMPDEST DUP3 DUP3 LT ISZERO PUSH2 0x804 JUMPI DUP4 DUP3 SWAP1 PUSH0 MSTORE PUSH1 0x20 PUSH0 KECCAK256 ADD DUP1 SLOAD PUSH2 0x779 SWAP1 PUSH2 0x25D1 JUMP JUMPDEST DUP1 PUSH1 0x1F ADD PUSH1 0x20 DUP1 SWAP2 DIV MUL PUSH1 0x20 ADD PUSH1 0x40 MLOAD SWAP1 DUP2 ADD PUSH1 0x40 MSTORE DUP1 SWAP3 SWAP2 SWAP1 DUP2 DUP2 MSTORE PUSH1 0x20 ADD DUP3 DUP1 SLOAD PUSH2 0x7A5 SWAP1 PUSH2 0x25D1 JUMP JUMPDEST DUP1 ISZERO PUSH2 0x7F0 JUMPI DUP1 PUSH1 0x1F LT PUSH2 0x7C7 JUMPI PUSH2 0x100 DUP1 DUP4 SLOAD DIV MUL DUP4 MSTORE SWAP2 PUSH1 0x20 ADD SWAP2 PUSH2 0x7F0 JUMP JUMPDEST DUP3 ADD SWAP2 SWAP1 PUSH0 MSTORE PUSH1 0x20 PUSH0 KECCAK256 SWAP1 JUMPDEST DUP2 SLOAD DUP2 MSTORE SWAP1 PUSH1 0x1 ADD SWAP1 PUSH1 0x20 ADD DUP1 DUP4 GT PUSH2 0x7D3 JUMPI DUP3 SWAP1 SUB PUSH1 0x1F AND DUP3 ADD SWAP2 JUMPDEST POP POP POP POP POP DUP2 MSTORE PUSH1 0x20 ADD SWAP1 PUSH1 0x1 ADD SWAP1 PUSH2 0x75C JUMP JUMPDEST POP POP POP POP SWAP1 POP SWAP1 JUMP JUMPDEST PUSH1 0x60 DUP1 PUSH1 0x60 DUP1 PUSH0 DUP1 PUSH0 DUP1 SWAP2 SWAP4 SWAP6 SWAP8 POP SWAP2 SWAP4 SWAP6 SWAP8 JUMP JUMPDEST PUSH1 0x60 DUP1 PUSH1 0x60 DUP1 PUSH0 DUP1 PUSH0 DUP1 PUSH1 0x60 DUP1 SWAP2 SWAP4 SWAP6 SWAP8 SWAP10 POP SWAP2 SWAP4 SWAP6 SWAP8 SWAP10 JUMP JUMPDEST PUSH1 0x1 DUP2 DUP1 MLOAD PUSH1 0x20 DUP2 ADD DUP3 ADD DUP1 MLOAD DUP5 DUP3 MSTORE PUSH1 0x20 DUP4 ADD PUSH1 0x20 DUP6 ADD KECCAK256 DUP2 DUP4 MSTORE DUP1 SWAP6 POP POP POP POP POP POP PUSH0 SWAP2 POP SWAP1 POP DUP1 PUSH0 ADD DUP1 SLOAD PUSH2 0x873 SWAP1 PUSH2 0x25D1 JUMP JUMPDEST DUP1 PUSH1 0x1F ADD PUSH1 0x20 DUP1 SWAP2 DIV MUL PUSH1 0x20 ADD PUSH1 0x40 MLOAD SWAP1 DUP2 ADD PUSH1 0x40 MSTORE DUP1 SWAP3 SWAP2 SWAP1 DUP2 DUP2 MSTORE PUSH1 0x20 ADD DUP3 DUP1 SLOAD PUSH2 0x89F SWAP1 PUSH2 0x25D1 JUMP JUMPDEST DUP1 ISZERO PUSH2 0x8EA JUMPI DUP1 PUSH1 0x1F LT PUSH2 0x8C1 JUMPI PUSH2 0x100 DUP1 DUP4 SLOAD DIV MUL DUP4 MSTORE SWAP2 PUSH1 0x20 ADD SWAP2 PUSH2 0x8EA JUMP JUMPDEST DUP3 ADD SWAP2 SWAP1 PUSH0 MSTORE PUSH1 0x20 PUSH0 KECCAK256 SWAP1 JUMPDEST DUP2 SLOAD DUP2 MSTORE SWAP1 PUSH1 0x1 ADD SWAP1 PUSH1 0x20 ADD DUP1 DUP4 GT PUSH2 0x8CD JUMPI DUP3 SWAP1 SUB PUSH1 0x1F AND DUP3 ADD SWAP2 JUMPDEST POP POP POP POP POP SWAP1 DUP1 PUSH1 0x1 ADD DUP1 SLOAD PUSH2 0x8FF SWAP1 PUSH2 0x25D1 JUMP JUMPDEST DUP1 PUSH1 0x1F ADD PUSH1 0x20 DUP1 SWAP2 DIV MUL PUSH1 0x20 ADD PUSH1 0x40 MLOAD SWAP1 DUP2 ADD PUSH1 0x40 MSTORE DUP1 SWAP3 SWAP2 SWAP1 DUP2 DUP2 MSTORE PUSH1 0x20 ADD DUP3 DUP1 SLOAD PUSH2 0x92B SWAP1 PUSH2 0x25D1 JUMP JUMPDEST DUP1 ISZERO PUSH2 0x976 JUMPI DUP1 PUSH1 0x1F LT PUSH2 0x94D JUMPI PUSH2 0x100 DUP1 DUP4 SLOAD DIV MUL DUP4 MSTORE SWAP2 PUSH1 0x20 ADD SWAP2 PUSH2 0x976 JUMP JUMPDEST DUP3 ADD SWAP2 SWAP1 PUSH0 MSTORE PUSH1 0x20 PUSH0 KECCAK256 SWAP1 JUMPDEST DUP2 SLOAD DUP2 MSTORE SWAP1 PUSH1 0x1 ADD SWAP1 PUSH1 0x20 ADD DUP1 DUP4 GT PUSH2 0x959 JUMPI DUP3 SWAP1 SUB PUSH1 0x1F AND DUP3 ADD SWAP2 JUMPDEST POP POP POP POP POP SWAP1 DUP1 PUSH1 0x2 ADD DUP1 SLOAD PUSH2 0x98B SWAP1 PUSH2 0x25D1 JUMP JUMPDEST DUP1 PUSH1 0x1F ADD PUSH1 0x20 DUP1 SWAP2 DIV MUL PUSH1 0x20 ADD PUSH1 0x40 MLOAD SWAP1 DUP2 ADD PUSH1 0x40 MSTORE DUP1 SWAP3 SWAP2 SWAP1 DUP2 DUP2 MSTORE PUSH1 0x20 ADD DUP3 DUP1 SLOAD PUSH2 0x9B7 SWAP1 PUSH2 0x25D1 JUMP JUMPDEST DUP1 ISZERO PUSH2 0xA02 JUMPI DUP1 PUSH1 0x1F LT PUSH2 0x9D9 JUMPI PUSH2 0x100 DUP1 DUP4 SLOAD DIV MUL DUP4 MSTORE SWAP2 PUSH1 0x20 ADD SWAP2 PUSH2 0xA02 JUMP JUMPDEST DUP3 ADD SWAP2 SWAP1 PUSH0 MSTORE PUSH1 0x20 PUSH0 KECCAK256 SWAP1 JUMPDEST DUP2 SLOAD DUP2 MSTORE SWAP1 PUSH1 0x1 ADD SWAP1 PUSH1 0x20 ADD DUP1 DUP4 GT PUSH2 0x9E5 JUMPI DUP3 SWAP1 SUB PUSH1 0x1F AND DUP3 ADD SWAP2 JUMPDEST POP POP POP POP POP SWAP1 DUP1 PUSH1 0x3 ADD DUP1 SLOAD PUSH2 0xA17 SWAP1 PUSH2 0x25D1 JUMP JUMPDEST DUP1 PUSH1 0x1F ADD PUSH1 0x20 DUP1 SWAP2 DIV MUL PUSH1 0x20 ADD PUSH1 0x40 MLOAD SWAP1 DUP2 ADD PUSH1 0x40 MSTORE DUP1 SWAP3 SWAP2 SWAP1 DUP2 DUP2 MSTORE PUSH1 0x20 ADD DUP3 DUP1 SLOAD PUSH2 0xA43 SWAP1 PUSH2 0x25D1 JUMP JUMPDEST DUP1 ISZERO PUSH2 0xA8E JUMPI DUP1 PUSH1 0x1F LT PUSH2 0xA65 JUMPI PUSH2 0x100 DUP1 DUP4 SLOAD DIV MUL DUP4 MSTORE SWAP2 PUSH1 0x20 ADD SWAP2 PUSH2 0xA8E JUMP JUMPDEST DUP3 ADD SWAP2 SWAP1 PUSH0 MSTORE PUSH1 0x20 PUSH0 KECCAK256 SWAP1 JUMPDEST DUP2 SLOAD DUP2 MSTORE SWAP1 PUSH1 0x1 ADD SWAP1 PUSH1 0x20 ADD DUP1 DUP4 GT PUSH2 0xA71 JUMPI DUP3 SWAP1 SUB PUSH1 0x1F AND DUP3 ADD SWAP2 JUMPDEST POP POP POP POP POP SWAP1 DUP1 PUSH1 0x4 ADD DUP1 SLOAD PUSH2 0xAA3 SWAP1 PUSH2 0x25D1 JUMP JUMPDEST DUP1 PUSH1 0x1F ADD PUSH1 0x20 DUP1 SWAP2 DIV MUL PUSH1 0x20 ADD PUSH1 0x40 MLOAD SWAP1 DUP2 ADD PUSH1 0x40 MSTORE DUP1 SWAP3 SWAP2 SWAP1 DUP2 DUP2 MSTORE PUSH1 0x20 ADD DUP3 DUP1 SLOAD PUSH2 0xACF SWAP1 PUSH2 0x25D1 JUMP JUMPDEST DUP1 ISZERO PUSH2 0xB1A JUMPI DUP1 PUSH1 0x1F LT PUSH2 0xAF1 JUMPI PUSH2 0x100 DUP1 DUP4 SLOAD DIV MUL DUP4 MSTORE SWAP2 PUSH1 0x20 ADD SWAP2 PUSH2 0xB1A JUMP JUMPDEST DUP3 ADD SWAP2 SWAP1 PUSH0 MSTORE PUSH1 0x20 PUSH0 KECCAK256 SWAP1 JUMPDEST DUP2 SLOAD DUP2 MSTORE SWAP1 PUSH1 0x1 ADD SWAP1 PUSH1 0x20 ADD DUP1 DUP4 GT PUSH2 0xAFD JUMPI DUP3 SWAP1 SUB PUSH1 0x1F AND DUP3 ADD SWAP2 JUMPDEST POP POP POP POP POP SWAP1 DUP1 PUSH1 0x5 ADD SLOAD SWAP1 DUP1 PUSH1 0x6 ADD SLOAD SWAP1 DUP1 PUSH1 0x7 ADD SLOAD SWAP1 DUP1 PUSH1 0x8 ADD SLOAD SWAP1 DUP1 PUSH1 0x9 ADD PUSH0 SWAP1 SLOAD SWAP1 PUSH2 0x100 EXP SWAP1 DIV PUSH1 0xFF AND SWAP1 POP DUP11 JUMP JUMPDEST POP JUMP JUMPDEST PUSH0 DUP1 SLOAD PUSH2 0xB5D SWAP1 PUSH2 0x25D1 JUMP JUMPDEST DUP1 PUSH1 0x1F ADD PUSH1 0x20 DUP1 SWAP2 DIV MUL PUSH1 0x20 ADD PUSH1 0x40 MLOAD SWAP1 DUP2 ADD PUSH1 0x40 MSTORE DUP1 SWAP3 SWAP2 SWAP1 DUP2 DUP2 MSTORE PUSH1 0x20 ADD DUP3 DUP1 SLOAD PUSH2 0xB89 SWAP1 PUSH2 0x25D1 JUMP JUMPDEST DUP1 ISZERO PUSH2 0xBD4 JUMPI DUP1 PUSH1 0x1F LT PUSH2 0xBAB JUMPI PUSH2 0x100 DUP1 DUP4 SLOAD DIV MUL DUP4 MSTORE SWAP2 PUSH1 0x20 ADD SWAP2 PUSH2 0xBD4 JUMP JUMPDEST DUP3 ADD SWAP2 SWAP1 PUSH0 MSTORE PUSH1 0x20 PUSH0 KECCAK256 SWAP1 JUMPDEST DUP2 SLOAD DUP2 MSTORE SWAP1 PUSH1 0x1 ADD SWAP1 PUSH1 0x20 ADD DUP1 DUP4 GT PUSH2 0xBB7 JUMPI DUP3 SWAP1 SUB PUSH1 0x1F AND DUP3 ADD SWAP2 JUMPDEST POP POP POP POP POP DUP2 JUMP JUMPDEST PUSH0 DUP2 PUSH1 0x40 MLOAD PUSH1 0x20 ADD PUSH2 0xBEE SWAP2 SWAP1 PUSH2 0x258E JUMP JUMPDEST PUSH1 0x40 MLOAD PUSH1 0x20 DUP2 DUP4 SUB SUB DUP2 MSTORE SWAP1 PUSH1 0x40 MSTORE DUP1 MLOAD SWAP1 PUSH1 0x20 ADD KECCAK256 DUP4 PUSH1 0x40 MLOAD PUSH1 0x20 ADD PUSH2 0xC15 SWAP2 SWAP1 PUSH2 0x258E JUMP JUMPDEST PUSH1 0x40 MLOAD PUSH1 0x20 DUP2 DUP4 SUB SUB DUP2 MSTORE SWAP1 PUSH1 0x40 MSTORE DUP1 MLOAD SWAP1 PUSH1 0x20 ADD KECCAK256 EQ SWAP1 POP SWAP3 SWAP2 POP POP JUMP JUMPDEST PUSH2 0xC3C PUSH2 0x1578 JUMP JUMPDEST PUSH0 DUP1 PUSH1 0x1 DUP6 PUSH1 0x40 MLOAD PUSH2 0xC4E SWAP2 SWAP1 PUSH2 0x258E JUMP JUMPDEST SWAP1 DUP2 MSTORE PUSH1 0x20 ADD PUSH1 0x40 MLOAD DUP1 SWAP2 SUB SWAP1 KECCAK256 PUSH1 0x40 MLOAD DUP1 PUSH2 0x160 ADD PUSH1 0x40 MSTORE SWAP1 DUP2 PUSH0 DUP3 ADD DUP1 SLOAD PUSH2 0xC77 SWAP1 PUSH2 0x25D1 JUMP JUMPDEST DUP1 PUSH1 0x1F ADD PUSH1 0x20 DUP1 SWAP2 DIV MUL PUSH1 0x20 ADD PUSH1 0x40 MLOAD SWAP1 DUP2 ADD PUSH1 0x40 MSTORE DUP1 SWAP3 SWAP2 SWAP1 DUP2 DUP2 MSTORE PUSH1 0x20 ADD DUP3 DUP1 SLOAD PUSH2 0xCA3 SWAP1 PUSH2 0x25D1 JUMP JUMPDEST DUP1 ISZERO PUSH2 0xCEE JUMPI DUP1 PUSH1 0x1F LT PUSH2 0xCC5 JUMPI PUSH2 0x100 DUP1 DUP4 SLOAD DIV MUL DUP4 MSTORE SWAP2 PUSH1 0x20 ADD SWAP2 PUSH2 0xCEE JUMP JUMPDEST DUP3 ADD SWAP2 SWAP1 PUSH0 MSTORE PUSH1 0x20 PUSH0 KECCAK256 SWAP1 JUMPDEST DUP2 SLOAD DUP2 MSTORE SWAP1 PUSH1 0x1 ADD SWAP1 PUSH1 0x20 ADD DUP1 DUP4 GT PUSH2 0xCD1 JUMPI DUP3 SWAP1 SUB PUSH1 0x1F AND DUP3 ADD SWAP2 JUMPDEST POP POP POP POP POP DUP2 MSTORE PUSH1 0x20 ADD PUSH1 0x1 DUP3 ADD DUP1 SLOAD PUSH2 0xD07 SWAP1 PUSH2 0x25D1 JUMP JUMPDEST DUP1 PUSH1 0x1F ADD PUSH1 0x20 DUP1 SWAP2 DIV MUL PUSH1 0x20 ADD PUSH1 0x40 MLOAD SWAP1 DUP2 ADD PUSH1 0x40 MSTORE DUP1 SWAP3 SWAP2 SWAP1 DUP2 DUP2 MSTORE PUSH1 0x20 ADD DUP3 DUP1 SLOAD PUSH2 0xD33 SWAP1 PUSH2 0x25D1 JUMP JUMPDEST DUP1 ISZERO PUSH2 0xD7E JUMPI DUP1 PUSH1 0x1F LT PUSH2 0xD55 JUMPI PUSH2 0x100 DUP1 DUP4 SLOAD DIV MUL DUP4 MSTORE SWAP2 PUSH1 0x20 ADD SWAP2 PUSH2 0xD7E JUMP JUMPDEST DUP3 ADD SWAP2 SWAP1 PUSH0 MSTORE PUSH1 0x20 PUSH0 KECCAK256 SWAP1 JUMPDEST DUP2 SLOAD DUP2 MSTORE SWAP1 PUSH1 0x1 ADD SWAP1 PUSH1 0x20 ADD DUP1 DUP4 GT PUSH2 0xD61 JUMPI DUP3 SWAP1 SUB PUSH1 0x1F AND DUP3 ADD SWAP2 JUMPDEST POP POP POP POP POP DUP2 MSTORE PUSH1 0x20 ADD PUSH1 0x2 DUP3 ADD DUP1 SLOAD PUSH2 0xD97 SWAP1 PUSH2 0x25D1 JUMP JUMPDEST DUP1 PUSH1 0x1F ADD PUSH1 0x20 DUP1 SWAP2 DIV MUL PUSH1 0x20 ADD PUSH1 0x40 MLOAD SWAP1 DUP2 ADD PUSH1 0x40 MSTORE DUP1 SWAP3 SWAP2 SWAP1 DUP2 DUP2 MSTORE PUSH1 0x20 ADD DUP3 DUP1 SLOAD PUSH2 0xDC3 SWAP1 PUSH2 0x25D1 JUMP JUMPDEST DUP1 ISZERO PUSH2 0xE0E JUMPI DUP1 PUSH1 0x1F LT PUSH2 0xDE5 JUMPI PUSH2 0x100 DUP1 DUP4 SLOAD DIV MUL DUP4 MSTORE SWAP2 PUSH1 0x20 ADD SWAP2 PUSH2 0xE0E JUMP JUMPDEST DUP3 ADD SWAP2 SWAP1 PUSH0 MSTORE PUSH1 0x20 PUSH0 KECCAK256 SWAP1 JUMPDEST DUP2 SLOAD DUP2 MSTORE SWAP1 PUSH1 0x1 ADD SWAP1 PUSH1 0x20 ADD DUP1 DUP4 GT PUSH2 0xDF1 JUMPI DUP3 SWAP1 SUB PUSH1 0x1F AND DUP3 ADD SWAP2 JUMPDEST POP POP POP POP POP DUP2 MSTORE PUSH1 0x20 ADD PUSH1 0x3 DUP3 ADD DUP1 SLOAD PUSH2 0xE27 SWAP1 PUSH2 0x25D1 JUMP JUMPDEST DUP1 PUSH1 0x1F ADD PUSH1 0x20 DUP1 SWAP2 DIV MUL PUSH1 0x20 ADD PUSH1 0x40 MLOAD SWAP1 DUP2 ADD PUSH1 0x40 MSTORE DUP1 SWAP3 SWAP2 SWAP1 DUP2 DUP2 MSTORE PUSH1 0x20 ADD DUP3 DUP1 SLOAD PUSH2 0xE53 SWAP1 PUSH2 0x25D1 JUMP JUMPDEST DUP1 ISZERO PUSH2 0xE9E JUMPI DUP1 PUSH1 0x1F LT PUSH2 0xE75 JUMPI PUSH2 0x100 DUP1 DUP4 SLOAD DIV MUL DUP4 MSTORE SWAP2 PUSH1 0x20 ADD SWAP2 PUSH2 0xE9E JUMP JUMPDEST DUP3 ADD SWAP2 SWAP1 PUSH0 MSTORE PUSH1 0x20 PUSH0 KECCAK256 SWAP1 JUMPDEST DUP2 SLOAD DUP2 MSTORE SWAP1 PUSH1 0x1 ADD SWAP1 PUSH1 0x20 ADD DUP1 DUP4 GT PUSH2 0xE81 JUMPI DUP3 SWAP1 SUB PUSH1 0x1F AND DUP3 ADD SWAP2 JUMPDEST POP POP POP POP POP DUP2 MSTORE PUSH1 0x20 ADD PUSH1 0x4 DUP3 ADD DUP1 SLOAD PUSH2 0xEB7 SWAP1 PUSH2 0x25D1 JUMP JUMPDEST DUP1 PUSH1 0x1F ADD PUSH1 0x20 DUP1 SWAP2 DIV MUL PUSH1 0x20 ADD PUSH1 0x40 MLOAD SWAP1 DUP2 ADD PUSH1 0x40 MSTORE DUP1 SWAP3 SWAP2 SWAP1 DUP2 DUP2 MSTORE PUSH1 0x20 ADD DUP3 DUP1 SLOAD PUSH2 0xEE3 SWAP1 PUSH2 0x25D1 JUMP JUMPDEST DUP1 ISZERO PUSH2 0xF2E JUMPI DUP1 PUSH1 0x1F LT PUSH2 0xF05 JUMPI PUSH2 0x100 DUP1 DUP4 SLOAD DIV MUL DUP4 MSTORE SWAP2 PUSH1 0x20 ADD SWAP2 PUSH2 0xF2E JUMP JUMPDEST DUP3 ADD SWAP2 SWAP1 PUSH0 MSTORE PUSH1 0x20 PUSH0 KECCAK256 SWAP1 JUMPDEST DUP2 SLOAD DUP2 MSTORE SWAP1 PUSH1 0x1 ADD SWAP1 PUSH1 0x20 ADD DUP1 DUP4 GT PUSH2 0xF11 JUMPI DUP3 SWAP1 SUB PUSH1 0x1F AND DUP3 ADD SWAP2 JUMPDEST POP POP POP POP POP DUP2 MSTORE PUSH1 0x20 ADD PUSH1 0x5 DUP3 ADD SLOAD DUP2 MSTORE PUSH1 0x20 ADD PUSH1 0x6 DUP3 ADD SLOAD DUP2 MSTORE PUSH1 0x20 ADD PUSH1 0x7 DUP3 ADD SLOAD DUP2 MSTORE PUSH1 0x20 ADD PUSH1 0x8 DUP3 ADD SLOAD DUP2 MSTORE PUSH1 0x20 ADD PUSH1 0x9 DUP3 ADD PUSH0 SWAP1 SLOAD SWAP1 PUSH2 0x100 EXP SWAP1 DIV PUSH1 0xFF AND ISZERO ISZERO ISZERO ISZERO DUP2 MSTORE PUSH1 0x20 ADD PUSH1 0xA DUP3 ADD DUP1 SLOAD DUP1 PUSH1 0x20 MUL PUSH1 0x20 ADD PUSH1 0x40 MLOAD SWAP1 DUP2 ADD PUSH1 0x40 MSTORE DUP1 SWAP3 SWAP2 SWAP1 DUP2 DUP2 MSTORE PUSH1 0x20 ADD PUSH0 SWAP1 JUMPDEST DUP3 DUP3 LT ISZERO PUSH2 0x13ED JUMPI DUP4 DUP3 SWAP1 PUSH0 MSTORE PUSH1 0x20 PUSH0 KECCAK256 SWAP1 PUSH1 0xA MUL ADD PUSH1 0x40 MLOAD DUP1 PUSH2 0x140 ADD PUSH1 0x40 MSTORE SWAP1 DUP2 PUSH0 DUP3 ADD DUP1 SLOAD PUSH2 0xFCE SWAP1 PUSH2 0x25D1 JUMP JUMPDEST DUP1 PUSH1 0x1F ADD PUSH1 0x20 DUP1 SWAP2 DIV MUL PUSH1 0x20 ADD PUSH1 0x40 MLOAD SWAP1 DUP2 ADD PUSH1 0x40 MSTORE DUP1 SWAP3 SWAP2 SWAP1 DUP2 DUP2 MSTORE PUSH1 0x20 ADD DUP3 DUP1 SLOAD PUSH2 0xFFA SWAP1 PUSH2 0x25D1 JUMP JUMPDEST DUP1 ISZERO PUSH2 0x1045 JUMPI DUP1 PUSH1 0x1F LT PUSH2 0x101C JUMPI PUSH2 0x100 DUP1 DUP4 SLOAD DIV MUL DUP4 MSTORE SWAP2 PUSH1 0x20 ADD SWAP2 PUSH2 0x1045 JUMP JUMPDEST DUP3 ADD SWAP2 SWAP1 PUSH0 MSTORE PUSH1 0x20 PUSH0 KECCAK256 SWAP1 JUMPDEST DUP2 SLOAD DUP2 MSTORE SWAP1 PUSH1 0x1 ADD SWAP1 PUSH1 0x20 ADD DUP1 DUP4 GT PUSH2 0x1028 JUMPI DUP3 SWAP1 SUB PUSH1 0x1F AND DUP3 ADD SWAP2 JUMPDEST POP POP POP POP POP DUP2 MSTORE PUSH1 0x20 ADD PUSH1 0x1 DUP3 ADD DUP1 SLOAD PUSH2 0x105E SWAP1 PUSH2 0x25D1 JUMP JUMPDEST DUP1 PUSH1 0x1F ADD PUSH1 0x20 DUP1 SWAP2 DIV MUL PUSH1 0x20 ADD PUSH1 0x40 MLOAD SWAP1 DUP2 ADD PUSH1 0x40 MSTORE DUP1 SWAP3 SWAP2 SWAP1 DUP2 DUP2 MSTORE PUSH1 0x20 ADD DUP3 DUP1 SLOAD PUSH2 0x108A SWAP1 PUSH2 0x25D1 JUMP JUMPDEST DUP1 ISZERO PUSH2 0x10D5 JUMPI DUP1 PUSH1 0x1F LT PUSH2 0x10AC JUMPI PUSH2 0x100 DUP1 DUP4 SLOAD DIV MUL DUP4 MSTORE SWAP2 PUSH1 0x20 ADD SWAP2 PUSH2 0x10D5 JUMP JUMPDEST DUP3 ADD SWAP2 SWAP1 PUSH0 MSTORE PUSH1 0x20 PUSH0 KECCAK256 SWAP1 JUMPDEST DUP2 SLOAD DUP2 MSTORE SWAP1 PUSH1 0x1 ADD SWAP1 PUSH1 0x20 ADD DUP1 DUP4 GT PUSH2 0x10B8 JUMPI DUP3 SWAP1 SUB PUSH1 0x1F AND DUP3 ADD SWAP2 JUMPDEST POP POP POP POP POP DUP2 MSTORE PUSH1 0x20 ADD PUSH1 0x2 DUP3 ADD DUP1 SLOAD PUSH2 0x10EE SWAP1 PUSH2 0x25D1 JUMP JUMPDEST DUP1 PUSH1 0x1F ADD PUSH1 0x20 DUP1 SWAP2 DIV MUL PUSH1 0x20 ADD PUSH1 0x40 MLOAD SWAP1 DUP2 ADD PUSH1 0x40 MSTORE DUP1 SWAP3 SWAP2 SWAP1 DUP2 DUP2 MSTORE PUSH1 0x20 ADD DUP3 DUP1 SLOAD PUSH2 0x111A SWAP1 PUSH2 0x25D1 JUMP JUMPDEST DUP1 ISZERO PUSH2 0x1165 JUMPI DUP1 PUSH1 0x1F LT PUSH2 0x113C JUMPI PUSH2 0x100 DUP1 DUP4 SLOAD DIV MUL DUP4 MSTORE SWAP2 PUSH1 0x20 ADD SWAP2 PUSH2 0x1165 JUMP JUMPDEST DUP3 ADD SWAP2 SWAP1 PUSH0 MSTORE PUSH1 0x20 PUSH0 KECCAK256 SWAP1 JUMPDEST DUP2 SLOAD DUP2 MSTORE SWAP1 PUSH1 0x1 ADD SWAP1 PUSH1 0x20 ADD DUP1 DUP4 GT PUSH2 0x1148 JUMPI DUP3 SWAP1 SUB PUSH1 0x1F AND DUP3 ADD SWAP2 JUMPDEST POP POP POP POP POP DUP2 MSTORE PUSH1 0x20 ADD PUSH1 0x3 DUP3 ADD DUP1 SLOAD PUSH2 0x117E SWAP1 PUSH2 0x25D1 JUMP JUMPDEST DUP1 PUSH1 0x1F ADD PUSH1 0x20 DUP1 SWAP2 DIV MUL PUSH1 0x20 ADD PUSH1 0x40 MLOAD SWAP1 DUP2 ADD PUSH1 0x40 MSTORE DUP1 SWAP3 SWAP2 SWAP1 DUP2 DUP2 MSTORE PUSH1 0x20 ADD DUP3 DUP1 SLOAD PUSH2 0x11AA SWAP1 PUSH2 0x25D1 JUMP JUMPDEST DUP1 ISZERO PUSH2 0x11F5 JUMPI DUP1 PUSH1 0x1F LT PUSH2 0x11CC JUMPI PUSH2 0x100 DUP1 DUP4 SLOAD DIV MUL DUP4 MSTORE SWAP2 PUSH1 0x20 ADD SWAP2 PUSH2 0x11F5 JUMP JUMPDEST DUP3 ADD SWAP2 SWAP1 PUSH0 MSTORE PUSH1 0x20 PUSH0 KECCAK256 SWAP1 JUMPDEST DUP2 SLOAD DUP2 MSTORE SWAP1 PUSH1 0x1 ADD SWAP1 PUSH1 0x20 ADD DUP1 DUP4 GT PUSH2 0x11D8 JUMPI DUP3 SWAP1 SUB PUSH1 0x1F AND DUP3 ADD SWAP2 JUMPDEST POP POP POP POP POP DUP2 MSTORE PUSH1 0x20 ADD PUSH1 0x4 DUP3 ADD SLOAD DUP2 MSTORE PUSH1 0x20 ADD PUSH1 0x5 DUP3 ADD DUP1 SLOAD DUP1 PUSH1 0x20 MUL PUSH1 0x20 ADD PUSH1 0x40 MLOAD SWAP1 DUP2 ADD PUSH1 0x40 MSTORE DUP1 SWAP3 SWAP2 SWAP1 DUP2 DUP2 MSTORE PUSH1 0x20 ADD PUSH0 SWAP1 JUMPDEST DUP3 DUP3 LT ISZERO PUSH2 0x12D4 JUMPI DUP4 DUP3 SWAP1 PUSH0 MSTORE PUSH1 0x20 PUSH0 KECCAK256 ADD DUP1 SLOAD PUSH2 0x1249 SWAP1 PUSH2 0x25D1 JUMP JUMPDEST DUP1 PUSH1 0x1F ADD PUSH1 0x20 DUP1 SWAP2 DIV MUL PUSH1 0x20 ADD PUSH1 0x40 MLOAD SWAP1 DUP2 ADD PUSH1 0x40 MSTORE DUP1 SWAP3 SWAP2 SWAP1 DUP2 DUP2 MSTORE PUSH1 0x20 ADD DUP3 DUP1 SLOAD PUSH2 0x1275 SWAP1 PUSH2 0x25D1 JUMP JUMPDEST DUP1 ISZERO PUSH2 0x12C0 JUMPI DUP1 PUSH1 0x1F LT PUSH2 0x1297 JUMPI PUSH2 0x100 DUP1 DUP4 SLOAD DIV MUL DUP4 MSTORE SWAP2 PUSH1 0x20 ADD SWAP2 PUSH2 0x12C0 JUMP JUMPDEST DUP3 ADD SWAP2 SWAP1 PUSH0 MSTORE PUSH1 0x20 PUSH0 KECCAK256 SWAP1 JUMPDEST DUP2 SLOAD DUP2 MSTORE SWAP1 PUSH1 0x1 ADD SWAP1 PUSH1 0x20 ADD DUP1 DUP4 GT PUSH2 0x12A3 JUMPI DUP3 SWAP1 SUB PUSH1 0x1F AND DUP3 ADD SWAP2 JUMPDEST POP POP POP POP POP DUP2 MSTORE PUSH1 0x20 ADD SWAP1 PUSH1 0x1 ADD SWAP1 PUSH2 0x122C JUMP JUMPDEST POP POP POP POP DUP2 MSTORE PUSH1 0x20 ADD PUSH1 0x6 DUP3 ADD DUP1 SLOAD DUP1 PUSH1 0x20 MUL PUSH1 0x20 ADD PUSH1 0x40 MLOAD SWAP1 DUP2 ADD PUSH1 0x40 MSTORE DUP1 SWAP3 SWAP2 SWAP1 DUP2 DUP2 MSTORE PUSH1 0x20 ADD PUSH0 SWAP1 JUMPDEST DUP3 DUP3 LT ISZERO PUSH2 0x13A8 JUMPI DUP4 DUP3 SWAP1 PUSH0 MSTORE PUSH1 0x20 PUSH0 KECCAK256 ADD DUP1 SLOAD PUSH2 0x131D SWAP1 PUSH2 0x25D1 JUMP JUMPDEST DUP1 PUSH1 0x1F ADD PUSH1 0x20 DUP1 SWAP2 DIV MUL PUSH1 0x20 ADD PUSH1 0x40 MLOAD SWAP1 DUP2 ADD PUSH1 0x40 MSTORE DUP1 SWAP3 SWAP2 SWAP1 DUP2 DUP2 MSTORE PUSH1 0x20 ADD DUP3 DUP1 SLOAD PUSH2 0x1349 SWAP1 PUSH2 0x25D1 JUMP JUMPDEST DUP1 ISZERO PUSH2 0x1394 JUMPI DUP1 PUSH1 0x1F LT PUSH2 0x136B JUMPI PUSH2 0x100 DUP1 DUP4 SLOAD DIV MUL DUP4 MSTORE SWAP2 PUSH1 0x20 ADD SWAP2 PUSH2 0x1394 JUMP JUMPDEST DUP3 ADD SWAP2 SWAP1 PUSH0 MSTORE PUSH1 0x20 PUSH0 KECCAK256 SWAP1 JUMPDEST DUP2 SLOAD DUP2 MSTORE SWAP1 PUSH1 0x1 ADD SWAP1 PUSH1 0x20 ADD DUP1 DUP4 GT PUSH2 0x1377 JUMPI DUP3 SWAP1 SUB PUSH1 0x1F AND DUP3 ADD SWAP2 JUMPDEST POP POP POP POP POP DUP2 MSTORE PUSH1 0x20 ADD SWAP1 PUSH1 0x1 ADD SWAP1 PUSH2 0x1300 JUMP JUMPDEST POP POP POP POP DUP2 MSTORE PUSH1 0x20 ADD PUSH1 0x7 DUP3 ADD SLOAD DUP2 MSTORE PUSH1 0x20 ADD PUSH1 0x8 DUP3 ADD SLOAD DUP2 MSTORE PUSH1 0x20 ADD PUSH1 0x9 DUP3 ADD PUSH0 SWAP1 SLOAD SWAP1 PUSH2 0x100 EXP SWAP1 DIV PUSH1 0xFF AND ISZERO ISZERO ISZERO ISZERO DUP2 MSTORE POP POP DUP2 MSTORE PUSH1 0x20 ADD SWAP1 PUSH1 0x1 ADD SWAP1 PUSH2 0xF9D JUMP JUMPDEST POP POP POP POP DUP2 MSTORE POP POP SWAP1 POP PUSH2 0x13FF PUSH2 0x1578 JUMP JUMPDEST PUSH0 JUMPDEST DUP3 PUSH2 0x140 ADD MLOAD MLOAD DUP2 LT ISZERO PUSH2 0x1465 JUMPI DUP3 PUSH2 0x140 ADD MLOAD DUP2 DUP2 MLOAD DUP2 LT PUSH2 0x1427 JUMPI PUSH2 0x1426 PUSH2 0x286D JUMP JUMPDEST JUMPDEST PUSH1 0x20 MUL PUSH1 0x20 ADD ADD MLOAD SWAP2 POP PUSH2 0x143E DUP7 DUP4 PUSH0 ADD MLOAD PUSH2 0xBDC JUMP JUMPDEST ISZERO PUSH2 0x1452 JUMPI DUP2 PUSH1 0x1 SWAP5 POP SWAP5 POP POP POP POP PUSH2 0x14A1 JUMP JUMPDEST DUP1 DUP1 PUSH2 0x145D SWAP1 PUSH2 0x28C7 JUMP JUMPDEST SWAP2 POP POP PUSH2 0x1401 JUMP JUMPDEST POP PUSH1 0x40 MLOAD PUSH32 0x8C379A000000000000000000000000000000000000000000000000000000000 DUP2 MSTORE PUSH1 0x4 ADD PUSH2 0x1498 SWAP1 PUSH2 0x2958 JUMP JUMPDEST PUSH1 0x40 MLOAD DUP1 SWAP2 SUB SWAP1 REVERT JUMPDEST SWAP3 POP SWAP3 SWAP1 POP JUMP JUMPDEST PUSH0 PUSH1 0x1 DUP3 PUSH1 0x40 MLOAD PUSH2 0x14B9 SWAP2 SWAP1 PUSH2 0x258E JUMP JUMPDEST SWAP1 DUP2 MSTORE PUSH1 0x20 ADD PUSH1 0x40 MLOAD DUP1 SWAP2 SUB SWAP1 KECCAK256 PUSH1 0xA ADD DUP1 SLOAD SWAP1 POP SWAP1 POP SWAP2 SWAP1 POP JUMP JUMPDEST PUSH0 PUSH1 0x2 DUP1 SLOAD SWAP1 POP SWAP1 POP SWAP1 JUMP JUMPDEST PUSH32 0x9F64639419DE97116219D1F7C000638905FA8176602DC9AFD7D28338B6A803CC DUP4 DUP4 DUP4 PUSH1 0x40 MLOAD PUSH2 0x1514 SWAP4 SWAP3 SWAP2 SWAP1 PUSH2 0x2976 JUMP JUMPDEST PUSH1 0x40 MLOAD DUP1 SWAP2 SUB SWAP1 LOG1 POP POP POP JUMP JUMPDEST DUP3 DUP1 SLOAD DUP3 DUP3 SSTORE SWAP1 PUSH0 MSTORE PUSH1 0x20 PUSH0 KECCAK256 SWAP1 DUP2 ADD SWAP3 DUP3 ISZERO PUSH2 0x1567 JUMPI SWAP2 PUSH1 0x20 MUL DUP3 ADD JUMPDEST DUP3 DUP2 GT ISZERO PUSH2 0x1566 JUMPI DUP3 MLOAD DUP3 SWAP1 DUP2 PUSH2 0x1556 SWAP2 SWAP1 PUSH2 0x279E JUMP JUMPDEST POP SWAP2 PUSH1 0x20 ADD SWAP2 SWAP1 PUSH1 0x1 ADD SWAP1 PUSH2 0x153F JUMP JUMPDEST JUMPDEST POP SWAP1 POP PUSH2 0x1574 SWAP2 SWAP1 PUSH2 0x15C9 JUMP JUMPDEST POP SWAP1 JUMP JUMPDEST PUSH1 0x40 MLOAD DUP1 PUSH2 0x140 ADD PUSH1 0x40 MSTORE DUP1 PUSH1 0x60 DUP2 MSTORE PUSH1 0x20 ADD PUSH1 0x60 DUP2 MSTORE PUSH1 0x20 ADD PUSH1 0x60 DUP2 MSTORE PUSH1 0x20 ADD PUSH1 0x60 DUP2 MSTORE PUSH1 0x20 ADD PUSH0 DUP2 MSTORE PUSH1 0x20 ADD PUSH1 0x60 DUP2 MSTORE PUSH1 0x20 ADD PUSH1 0x60 DUP2 MSTORE PUSH1 0x20 ADD PUSH0 DUP2 MSTORE PUSH1 0x20 ADD PUSH0 DUP2 MSTORE PUSH1 0x20 ADD PUSH0 ISZERO ISZERO DUP2 MSTORE POP SWAP1 JUMP JUMPDEST JUMPDEST DUP1 DUP3 GT ISZERO PUSH2 0x15E8 JUMPI PUSH0 DUP2 DUP2 PUSH2 0x15DF SWAP2 SWAP1 PUSH2 0x15EC JUMP JUMPDEST POP PUSH1 0x1 ADD PUSH2 0x15CA JUMP JUMPDEST POP SWAP1 JUMP JUMPDEST POP DUP1 SLOAD PUSH2 0x15F8 SWAP1 PUSH2 0x25D1 JUMP JUMPDEST PUSH0 DUP3 SSTORE DUP1 PUSH1 0x1F LT PUSH2 0x1609 JUMPI POP PUSH2 0x1626 JUMP JUMPDEST PUSH1 0x1F ADD PUSH1 0x20 SWAP1 DIV SWAP1 PUSH0 MSTORE PUSH1 0x20 PUSH0 KECCAK256 SWAP1 DUP2 ADD SWAP1 PUSH2 0x1625 SWAP2 SWAP1 PUSH2 0x1629 JUMP JUMPDEST JUMPDEST POP JUMP JUMPDEST JUMPDEST DUP1 DUP3 GT ISZERO PUSH2 0x1640 JUMPI PUSH0 DUP2 PUSH0 SWAP1 SSTORE POP PUSH1 0x1 ADD PUSH2 0x162A JUMP JUMPDEST POP SWAP1 JUMP JUMPDEST PUSH0 PUSH1 0x40 MLOAD SWAP1 POP SWAP1 JUMP JUMPDEST PUSH0 DUP1 REVERT JUMPDEST PUSH0 DUP1 REVERT JUMPDEST PUSH0 DUP2 SWAP1 POP SWAP2 SWAP1 POP JUMP JUMPDEST PUSH2 0x1667 DUP2 PUSH2 0x1655 JUMP JUMPDEST DUP2 EQ PUSH2 0x1671 JUMPI PUSH0 DUP1 REVERT JUMPDEST POP JUMP JUMPDEST PUSH0 DUP2 CALLDATALOAD SWAP1 POP PUSH2 0x1682 DUP2 PUSH2 0x165E JUMP JUMPDEST SWAP3 SWAP2 POP POP JUMP JUMPDEST PUSH0 DUP1 PUSH1 0x40 DUP4 DUP6 SUB SLT ISZERO PUSH2 0x169E JUMPI PUSH2 0x169D PUSH2 0x164D JUMP JUMPDEST JUMPDEST PUSH0 PUSH2 0x16AB DUP6 DUP3 DUP7 ADD PUSH2 0x1674 JUMP JUMPDEST SWAP3 POP POP PUSH1 0x20 PUSH2 0x16BC DUP6 DUP3 DUP7 ADD PUSH2 0x1674 JUMP JUMPDEST SWAP2 POP POP SWAP3 POP SWAP3 SWAP1 POP JUMP JUMPDEST PUSH0 DUP1 REVERT JUMPDEST PUSH0 DUP1 REVERT JUMPDEST PUSH0 PUSH1 0x1F NOT PUSH1 0x1F DUP4 ADD AND SWAP1 POP SWAP2 SWAP1 POP JUMP JUMPDEST PUSH32 0x4E487B7100000000000000000000000000000000000000000000000000000000 PUSH0 MSTORE PUSH1 0x41 PUSH1 0x4 MSTORE PUSH1 0x24 PUSH0 REVERT JUMPDEST PUSH2 0x1714 DUP3 PUSH2 0x16CE JUMP JUMPDEST DUP2 ADD DUP2 DUP2 LT PUSH8 0xFFFFFFFFFFFFFFFF DUP3 GT OR ISZERO PUSH2 0x1733 JUMPI PUSH2 0x1732 PUSH2 0x16DE JUMP JUMPDEST JUMPDEST DUP1 PUSH1 0x40 MSTORE POP POP POP JUMP JUMPDEST PUSH0 PUSH2 0x1745 PUSH2 0x1644 JUMP JUMPDEST SWAP1 POP PUSH2 0x1751 DUP3 DUP3 PUSH2 0x170B JUMP JUMPDEST SWAP2 SWAP1 POP JUMP JUMPDEST PUSH0 PUSH8 0xFFFFFFFFFFFFFFFF DUP3 GT ISZERO PUSH2 0x1770 JUMPI PUSH2 0x176F PUSH2 0x16DE JUMP JUMPDEST JUMPDEST PUSH2 0x1779 DUP3 PUSH2 0x16CE JUMP JUMPDEST SWAP1 POP PUSH1 0x20 DUP2 ADD SWAP1 POP SWAP2 SWAP1 POP JUMP JUMPDEST DUP3 DUP2 DUP4 CALLDATACOPY PUSH0 DUP4 DUP4 ADD MSTORE POP POP POP JUMP JUMPDEST PUSH0 PUSH2 0x17A6 PUSH2 0x17A1 DUP5 PUSH2 0x1756 JUMP JUMPDEST PUSH2 0x173C JUMP JUMPDEST SWAP1 POP DUP3 DUP2 MSTORE PUSH1 0x20 DUP2 ADD DUP5 DUP5 DUP5 ADD GT ISZERO PUSH2 0x17C2 JUMPI PUSH2 0x17C1 PUSH2 0x16CA JUMP JUMPDEST JUMPDEST PUSH2 0x17CD DUP5 DUP3 DUP6 PUSH2 0x1786 JUMP JUMPDEST POP SWAP4 SWAP3 POP POP POP JUMP JUMPDEST PUSH0 DUP3 PUSH1 0x1F DUP4 ADD SLT PUSH2 0x17E9 JUMPI PUSH2 0x17E8 PUSH2 0x16C6 JUMP JUMPDEST JUMPDEST DUP2 CALLDATALOAD PUSH2 0x17F9 DUP5 DUP3 PUSH1 0x20 DUP7 ADD PUSH2 0x1794 JUMP JUMPDEST SWAP2 POP POP SWAP3 SWAP2 POP POP JUMP JUMPDEST PUSH0 PUSH8 0xFFFFFFFFFFFFFFFF DUP3 GT ISZERO PUSH2 0x181C JUMPI PUSH2 0x181B PUSH2 0x16DE JUMP JUMPDEST JUMPDEST PUSH1 0x20 DUP3 MUL SWAP1 POP PUSH1 0x20 DUP2 ADD SWAP1 POP SWAP2 SWAP1 POP JUMP JUMPDEST PUSH0 DUP1 REVERT JUMPDEST PUSH0 DUP1 REVERT JUMPDEST PUSH0 DUP1 REVERT JUMPDEST PUSH0 PUSH8 0xFFFFFFFFFFFFFFFF DUP3 GT ISZERO PUSH2 0x1853 JUMPI PUSH2 0x1852 PUSH2 0x16DE JUMP JUMPDEST JUMPDEST PUSH1 0x20 DUP3 MUL SWAP1 POP PUSH1 0x20 DUP2 ADD SWAP1 POP SWAP2 SWAP1 POP JUMP JUMPDEST PUSH0 PUSH2 0x1876 PUSH2 0x1871 DUP5 PUSH2 0x1839 JUMP JUMPDEST PUSH2 0x173C JUMP JUMPDEST SWAP1 POP DUP1 DUP4 DUP3 MSTORE PUSH1 0x20 DUP3 ADD SWAP1 POP PUSH1 0x20 DUP5 MUL DUP4 ADD DUP6 DUP2 GT ISZERO PUSH2 0x1899 JUMPI PUSH2 0x1898 PUSH2 0x182D JUMP JUMPDEST JUMPDEST DUP4 JUMPDEST DUP2 DUP2 LT ISZERO PUSH2 0x18E0 JUMPI DUP1 CALLDATALOAD PUSH8 0xFFFFFFFFFFFFFFFF DUP2 GT ISZERO PUSH2 0x18BE JUMPI PUSH2 0x18BD PUSH2 0x16C6 JUMP JUMPDEST JUMPDEST DUP1 DUP7 ADD PUSH2 0x18CB DUP10 DUP3 PUSH2 0x17D5 JUMP JUMPDEST DUP6 MSTORE PUSH1 0x20 DUP6 ADD SWAP5 POP POP POP PUSH1 0x20 DUP2 ADD SWAP1 POP PUSH2 0x189B JUMP JUMPDEST POP POP POP SWAP4 SWAP3 POP POP POP JUMP JUMPDEST PUSH0 DUP3 PUSH1 0x1F DUP4 ADD SLT PUSH2 0x18FE JUMPI PUSH2 0x18FD PUSH2 0x16C6 JUMP JUMPDEST JUMPDEST DUP2 CALLDATALOAD PUSH2 0x190E DUP5 DUP3 PUSH1 0x20 DUP7 ADD PUSH2 0x1864 JUMP JUMPDEST SWAP2 POP POP SWAP3 SWAP2 POP POP JUMP JUMPDEST PUSH0 DUP2 ISZERO ISZERO SWAP1 POP SWAP2 SWAP1 POP JUMP JUMPDEST PUSH2 0x192B DUP2 PUSH2 0x1917 JUMP JUMPDEST DUP2 EQ PUSH2 0x1935 JUMPI PUSH0 DUP1 REVERT JUMPDEST POP JUMP JUMPDEST PUSH0 DUP2 CALLDATALOAD SWAP1 POP PUSH2 0x1946 DUP2 PUSH2 0x1922 JUMP JUMPDEST SWAP3 SWAP2 POP POP JUMP JUMPDEST PUSH0 PUSH2 0x140 DUP3 DUP5 SUB SLT ISZERO PUSH2 0x1962 JUMPI PUSH2 0x1961 PUSH2 0x1831 JUMP JUMPDEST JUMPDEST PUSH2 0x196D PUSH2 0x140 PUSH2 0x173C JUMP JUMPDEST SWAP1 POP PUSH0 DUP3 ADD CALLDATALOAD PUSH8 0xFFFFFFFFFFFFFFFF DUP2 GT ISZERO PUSH2 0x198C JUMPI PUSH2 0x198B PUSH2 0x1835 JUMP JUMPDEST JUMPDEST PUSH2 0x1998 DUP5 DUP3 DUP6 ADD PUSH2 0x17D5 JUMP JUMPDEST PUSH0 DUP4 ADD MSTORE POP PUSH1 0x20 DUP3 ADD CALLDATALOAD PUSH8 0xFFFFFFFFFFFFFFFF DUP2 GT ISZERO PUSH2 0x19BB JUMPI PUSH2 0x19BA PUSH2 0x1835 JUMP JUMPDEST JUMPDEST PUSH2 0x19C7 DUP5 DUP3 DUP6 ADD PUSH2 0x17D5 JUMP JUMPDEST PUSH1 0x20 DUP4 ADD MSTORE POP PUSH1 0x40 DUP3 ADD CALLDATALOAD PUSH8 0xFFFFFFFFFFFFFFFF DUP2 GT ISZERO PUSH2 0x19EB JUMPI PUSH2 0x19EA PUSH2 0x1835 JUMP JUMPDEST JUMPDEST PUSH2 0x19F7 DUP5 DUP3 DUP6 ADD PUSH2 0x17D5 JUMP JUMPDEST PUSH1 0x40 DUP4 ADD MSTORE POP PUSH1 0x60 DUP3 ADD CALLDATALOAD PUSH8 0xFFFFFFFFFFFFFFFF DUP2 GT ISZERO PUSH2 0x1A1B JUMPI PUSH2 0x1A1A PUSH2 0x1835 JUMP JUMPDEST JUMPDEST PUSH2 0x1A27 DUP5 DUP3 DUP6 ADD PUSH2 0x17D5 JUMP JUMPDEST PUSH1 0x60 DUP4 ADD MSTORE POP PUSH1 0x80 PUSH2 0x1A3B DUP5 DUP3 DUP6 ADD PUSH2 0x1674 JUMP JUMPDEST PUSH1 0x80 DUP4 ADD MSTORE POP PUSH1 0xA0 DUP3 ADD CALLDATALOAD PUSH8 0xFFFFFFFFFFFFFFFF DUP2 GT ISZERO PUSH2 0x1A5F JUMPI PUSH2 0x1A5E PUSH2 0x1835 JUMP JUMPDEST JUMPDEST PUSH2 0x1A6B DUP5 DUP3 DUP6 ADD PUSH2 0x18EA JUMP JUMPDEST PUSH1 0xA0 DUP4 ADD MSTORE POP PUSH1 0xC0 DUP3 ADD CALLDATALOAD PUSH8 0xFFFFFFFFFFFFFFFF DUP2 GT ISZERO PUSH2 0x1A8F JUMPI PUSH2 0x1A8E PUSH2 0x1835 JUMP JUMPDEST JUMPDEST PUSH2 0x1A9B DUP5 DUP3 DUP6 ADD PUSH2 0x18EA JUMP JUMPDEST PUSH1 0xC0 DUP4 ADD MSTORE POP PUSH1 0xE0 PUSH2 0x1AAF DUP5 DUP3 DUP6 ADD PUSH2 0x1674 JUMP JUMPDEST PUSH1 0xE0 DUP4 ADD MSTORE POP PUSH2 0x100 PUSH2 0x1AC4 DUP5 DUP3 DUP6 ADD PUSH2 0x1674 JUMP JUMPDEST PUSH2 0x100 DUP4 ADD MSTORE POP PUSH2 0x120 PUSH2 0x1ADA DUP5 DUP3 DUP6 ADD PUSH2 0x1938 JUMP JUMPDEST PUSH2 0x120 DUP4 ADD MSTORE POP SWAP3 SWAP2 POP POP JUMP JUMPDEST PUSH0 PUSH2 0x1AF9 PUSH2 0x1AF4 DUP5 PUSH2 0x1802 JUMP JUMPDEST PUSH2 0x173C JUMP JUMPDEST SWAP1 POP DUP1 DUP4 DUP3 MSTORE PUSH1 0x20 DUP3 ADD SWAP1 POP PUSH1 0x20 DUP5 MUL DUP4 ADD DUP6 DUP2 GT ISZERO PUSH2 0x1B1C JUMPI PUSH2 0x1B1B PUSH2 0x182D JUMP JUMPDEST JUMPDEST DUP4 JUMPDEST DUP2 DUP2 LT ISZERO PUSH2 0x1B63 JUMPI DUP1 CALLDATALOAD PUSH8 0xFFFFFFFFFFFFFFFF DUP2 GT ISZERO PUSH2 0x1B41 JUMPI PUSH2 0x1B40 PUSH2 0x16C6 JUMP JUMPDEST JUMPDEST DUP1 DUP7 ADD PUSH2 0x1B4E DUP10 DUP3 PUSH2 0x194C JUMP JUMPDEST DUP6 MSTORE PUSH1 0x20 DUP6 ADD SWAP5 POP POP POP PUSH1 0x20 DUP2 ADD SWAP1 POP PUSH2 0x1B1E JUMP JUMPDEST POP POP POP SWAP4 SWAP3 POP POP POP JUMP JUMPDEST PUSH0 DUP3 PUSH1 0x1F DUP4 ADD SLT PUSH2 0x1B81 JUMPI PUSH2 0x1B80 PUSH2 0x16C6 JUMP JUMPDEST JUMPDEST DUP2 CALLDATALOAD PUSH2 0x1B91 DUP5 DUP3 PUSH1 0x20 DUP7 ADD PUSH2 0x1AE7 JUMP JUMPDEST SWAP2 POP POP SWAP3 SWAP2 POP POP JUMP JUMPDEST PUSH0 DUP1 PUSH0 DUP1 PUSH0 DUP1 PUSH0 DUP1 PUSH2 0x100 DUP10 DUP12 SUB SLT ISZERO PUSH2 0x1BB7 JUMPI PUSH2 0x1BB6 PUSH2 0x164D JUMP JUMPDEST JUMPDEST PUSH0 DUP10 ADD CALLDATALOAD PUSH8 0xFFFFFFFFFFFFFFFF DUP2 GT ISZERO PUSH2 0x1BD4 JUMPI PUSH2 0x1BD3 PUSH2 0x1651 JUMP JUMPDEST JUMPDEST PUSH2 0x1BE0 DUP12 DUP3 DUP13 ADD PUSH2 0x17D5 JUMP JUMPDEST SWAP9 POP POP PUSH1 0x20 DUP10 ADD CALLDATALOAD PUSH8 0xFFFFFFFFFFFFFFFF DUP2 GT ISZERO PUSH2 0x1C01 JUMPI PUSH2 0x1C00 PUSH2 0x1651 JUMP JUMPDEST JUMPDEST PUSH2 0x1C0D DUP12 DUP3 DUP13 ADD PUSH2 0x17D5 JUMP JUMPDEST SWAP8 POP POP PUSH1 0x40 DUP10 ADD CALLDATALOAD PUSH8 0xFFFFFFFFFFFFFFFF DUP2 GT ISZERO PUSH2 0x1C2E JUMPI PUSH2 0x1C2D PUSH2 0x1651 JUMP JUMPDEST JUMPDEST PUSH2 0x1C3A DUP12 DUP3 DUP13 ADD PUSH2 0x17D5 JUMP JUMPDEST SWAP7 POP POP PUSH1 0x60 DUP10 ADD CALLDATALOAD PUSH8 0xFFFFFFFFFFFFFFFF DUP2 GT ISZERO PUSH2 0x1C5B JUMPI PUSH2 0x1C5A PUSH2 0x1651 JUMP JUMPDEST JUMPDEST PUSH2 0x1C67 DUP12 DUP3 DUP13 ADD PUSH2 0x17D5 JUMP JUMPDEST SWAP6 POP POP PUSH1 0x80 DUP10 ADD CALLDATALOAD PUSH8 0xFFFFFFFFFFFFFFFF DUP2 GT ISZERO PUSH2 0x1C88 JUMPI PUSH2 0x1C87 PUSH2 0x1651 JUMP JUMPDEST JUMPDEST PUSH2 0x1C94 DUP12 DUP3 DUP13 ADD PUSH2 0x17D5 JUMP JUMPDEST SWAP5 POP POP PUSH1 0xA0 PUSH2 0x1CA5 DUP12 DUP3 DUP13 ADD PUSH2 0x1674 JUMP JUMPDEST SWAP4 POP POP PUSH1 0xC0 PUSH2 0x1CB6 DUP12 DUP3 DUP13 ADD PUSH2 0x1674 JUMP JUMPDEST SWAP3 POP POP PUSH1 0xE0 DUP10 ADD CALLDATALOAD PUSH8 0xFFFFFFFFFFFFFFFF DUP2 GT ISZERO PUSH2 0x1CD7 JUMPI PUSH2 0x1CD6 PUSH2 0x1651 JUMP JUMPDEST JUMPDEST PUSH2 0x1CE3 DUP12 DUP3 DUP13 ADD PUSH2 0x1B6D JUMP JUMPDEST SWAP2 POP POP SWAP3 SWAP6 SWAP9 POP SWAP3 SWAP6 SWAP9 SWAP1 SWAP4 SWAP7 POP JUMP JUMPDEST PUSH0 DUP1 PUSH1 0x40 DUP4 DUP6 SUB SLT ISZERO PUSH2 0x1D09 JUMPI PUSH2 0x1D08 PUSH2 0x164D JUMP JUMPDEST JUMPDEST PUSH0 DUP4 ADD CALLDATALOAD PUSH8 0xFFFFFFFFFFFFFFFF DUP2 GT ISZERO PUSH2 0x1D26 JUMPI PUSH2 0x1D25 PUSH2 0x1651 JUMP JUMPDEST JUMPDEST PUSH2 0x1D32 DUP6 DUP3 DUP7 ADD PUSH2 0x17D5 JUMP JUMPDEST SWAP3 POP POP PUSH1 0x20 DUP4 ADD CALLDATALOAD PUSH8 0xFFFFFFFFFFFFFFFF DUP2 GT ISZERO PUSH2 0x1D53 JUMPI PUSH2 0x1D52 PUSH2 0x1651 JUMP JUMPDEST JUMPDEST PUSH2 0x1D5F DUP6 DUP3 DUP7 ADD PUSH2 0x194C JUMP JUMPDEST SWAP2 POP POP SWAP3 POP SWAP3 SWAP1 POP JUMP JUMPDEST PUSH0 PUSH1 0x20 DUP3 DUP5 SUB SLT ISZERO PUSH2 0x1D7E JUMPI PUSH2 0x1D7D PUSH2 0x164D JUMP JUMPDEST JUMPDEST PUSH0 PUSH2 0x1D8B DUP5 DUP3 DUP6 ADD PUSH2 0x1674 JUMP JUMPDEST SWAP2 POP POP SWAP3 SWAP2 POP POP JUMP JUMPDEST PUSH0 DUP2 MLOAD SWAP1 POP SWAP2 SWAP1 POP JUMP JUMPDEST PUSH0 DUP3 DUP3 MSTORE PUSH1 0x20 DUP3 ADD SWAP1 POP SWAP3 SWAP2 POP POP JUMP JUMPDEST PUSH0 JUMPDEST DUP4 DUP2 LT ISZERO PUSH2 0x1DCB JUMPI DUP1 DUP3 ADD MLOAD DUP2 DUP5 ADD MSTORE PUSH1 0x20 DUP2 ADD SWAP1 POP PUSH2 0x1DB0 JUMP JUMPDEST PUSH0 DUP5 DUP5 ADD MSTORE POP POP POP POP JUMP JUMPDEST PUSH0 PUSH2 0x1DE0 DUP3 PUSH2 0x1D94 JUMP JUMPDEST PUSH2 0x1DEA DUP2 DUP6 PUSH2 0x1D9E JUMP JUMPDEST SWAP4 POP PUSH2 0x1DFA DUP2 DUP6 PUSH1 0x20 DUP7 ADD PUSH2 0x1DAE JUMP JUMPDEST PUSH2 0x1E03 DUP2 PUSH2 0x16CE JUMP JUMPDEST DUP5 ADD SWAP2 POP POP SWAP3 SWAP2 POP POP JUMP JUMPDEST PUSH0 PUSH1 0x20 DUP3 ADD SWAP1 POP DUP2 DUP2 SUB PUSH0 DUP4 ADD MSTORE PUSH2 0x1E26 DUP2 DUP5 PUSH2 0x1DD6 JUMP JUMPDEST SWAP1 POP SWAP3 SWAP2 POP POP JUMP JUMPDEST PUSH0 DUP2 MLOAD SWAP1 POP SWAP2 SWAP1 POP JUMP JUMPDEST PUSH0 DUP3 DUP3 MSTORE PUSH1 0x20 DUP3 ADD SWAP1 POP SWAP3 SWAP2 POP POP JUMP JUMPDEST PUSH0 DUP2 SWAP1 POP PUSH1 0x20 DUP3 ADD SWAP1 POP SWAP2 SWAP1 POP JUMP JUMPDEST PUSH0 DUP3 DUP3 MSTORE PUSH1 0x20 DUP3 ADD SWAP1 POP SWAP3 SWAP2 POP POP JUMP JUMPDEST PUSH0 PUSH2 0x1E71 DUP3 PUSH2 0x1D94 JUMP JUMPDEST PUSH2 0x1E7B DUP2 DUP6 PUSH2 0x1E57 JUMP JUMPDEST SWAP4 POP PUSH2 0x1E8B DUP2 DUP6 PUSH1 0x20 DUP7 ADD PUSH2 0x1DAE JUMP JUMPDEST PUSH2 0x1E94 DUP2 PUSH2 0x16CE JUMP JUMPDEST DUP5 ADD SWAP2 POP POP SWAP3 SWAP2 POP POP JUMP JUMPDEST PUSH0 PUSH2 0x1EAA DUP4 DUP4 PUSH2 0x1E67 JUMP JUMPDEST SWAP1 POP SWAP3 SWAP2 POP POP JUMP JUMPDEST PUSH0 PUSH1 0x20 DUP3 ADD SWAP1 POP SWAP2 SWAP1 POP JUMP JUMPDEST PUSH0 PUSH2 0x1EC8 DUP3 PUSH2 0x1E2E JUMP JUMPDEST PUSH2 0x1ED2 DUP2 DUP6 PUSH2 0x1E38 JUMP JUMPDEST SWAP4 POP DUP4 PUSH1 0x20 DUP3 MUL DUP6 ADD PUSH2 0x1EE4 DUP6 PUSH2 0x1E48 JUMP JUMPDEST DUP1 PUSH0 JUMPDEST DUP6 DUP2 LT ISZERO PUSH2 0x1F1F JUMPI DUP5 DUP5 SUB DUP10 MSTORE DUP2 MLOAD PUSH2 0x1F00 DUP6 DUP3 PUSH2 0x1E9F JUMP JUMPDEST SWAP5 POP PUSH2 0x1F0B DUP4 PUSH2 0x1EB2 JUMP JUMPDEST SWAP3 POP PUSH1 0x20 DUP11 ADD SWAP10 POP POP PUSH1 0x1 DUP2 ADD SWAP1 POP PUSH2 0x1EE7 JUMP JUMPDEST POP DUP3 SWAP8 POP DUP8 SWAP6 POP POP POP POP POP POP SWAP3 SWAP2 POP POP JUMP JUMPDEST PUSH0 PUSH1 0x20 DUP3 ADD SWAP1 POP DUP2 DUP2 SUB PUSH0 DUP4 ADD MSTORE PUSH2 0x1F49 DUP2 DUP5 PUSH2 0x1EBE JUMP JUMPDEST SWAP1 POP SWAP3 SWAP2 POP POP JUMP JUMPDEST PUSH2 0x1F5A DUP2 PUSH2 0x1655 JUMP JUMPDEST DUP3 MSTORE POP POP JUMP JUMPDEST PUSH2 0x1F69 DUP2 PUSH2 0x1917 JUMP JUMPDEST DUP3 MSTORE POP POP JUMP JUMPDEST PUSH0 PUSH2 0x100 DUP3 ADD SWAP1 POP DUP2 DUP2 SUB PUSH0 DUP4 ADD MSTORE PUSH2 0x1F88 DUP2 DUP12 PUSH2 0x1DD6 JUMP JUMPDEST SWAP1 POP DUP2 DUP2 SUB PUSH1 0x20 DUP4 ADD MSTORE PUSH2 0x1F9C DUP2 DUP11 PUSH2 0x1DD6 JUMP JUMPDEST SWAP1 POP DUP2 DUP2 SUB PUSH1 0x40 DUP4 ADD MSTORE PUSH2 0x1FB0 DUP2 DUP10 PUSH2 0x1DD6 JUMP JUMPDEST SWAP1 POP DUP2 DUP2 SUB PUSH1 0x60 DUP4 ADD MSTORE PUSH2 0x1FC4 DUP2 DUP9 PUSH2 0x1DD6 JUMP JUMPDEST SWAP1 POP PUSH2 0x1FD3 PUSH1 0x80 DUP4 ADD DUP8 PUSH2 0x1F51 JUMP JUMPDEST PUSH2 0x1FE0 PUSH1 0xA0 DUP4 ADD DUP7 PUSH2 0x1F51 JUMP JUMPDEST PUSH2 0x1FED PUSH1 0xC0 DUP4 ADD DUP6 PUSH2 0x1F51 JUMP JUMPDEST PUSH2 0x1FFA PUSH1 0xE0 DUP4 ADD DUP5 PUSH2 0x1F60 JUMP JUMPDEST SWAP10 SWAP9 POP POP POP POP POP POP POP POP POP JUMP JUMPDEST PUSH0 DUP2 MLOAD SWAP1 POP SWAP2 SWAP1 POP JUMP JUMPDEST PUSH0 DUP3 DUP3 MSTORE PUSH1 0x20 DUP3 ADD SWAP1 POP SWAP3 SWAP2 POP POP JUMP JUMPDEST PUSH0 DUP2 SWAP1 POP PUSH1 0x20 DUP3 ADD SWAP1 POP SWAP2 SWAP1 POP JUMP JUMPDEST PUSH2 0x2039 DUP2 PUSH2 0x1655 JUMP JUMPDEST DUP3 MSTORE POP POP JUMP JUMPDEST PUSH0 PUSH2 0x204A DUP4 DUP4 PUSH2 0x2030 JUMP JUMPDEST PUSH1 0x20 DUP4 ADD SWAP1 POP SWAP3 SWAP2 POP POP JUMP JUMPDEST PUSH0 PUSH1 0x20 DUP3 ADD SWAP1 POP SWAP2 SWAP1 POP JUMP JUMPDEST PUSH0 PUSH2 0x206C DUP3 PUSH2 0x2007 JUMP JUMPDEST PUSH2 0x2076 DUP2 DUP6 PUSH2 0x2011 JUMP JUMPDEST SWAP4 POP PUSH2 0x2081 DUP4 PUSH2 0x2021 JUMP JUMPDEST DUP1 PUSH0 JUMPDEST DUP4 DUP2 LT ISZERO PUSH2 0x20B1 JUMPI DUP2 MLOAD PUSH2 0x2098 DUP9 DUP3 PUSH2 0x203F JUMP JUMPDEST SWAP8 POP PUSH2 0x20A3 DUP4 PUSH2 0x2056 JUMP JUMPDEST SWAP3 POP POP PUSH1 0x1 DUP2 ADD SWAP1 POP PUSH2 0x2084 JUMP JUMPDEST POP DUP6 SWAP4 POP POP POP POP SWAP3 SWAP2 POP POP JUMP JUMPDEST PUSH0 PUSH2 0x140 DUP3 ADD SWAP1 POP DUP2 DUP2 SUB PUSH0 DUP4 ADD MSTORE PUSH2 0x20D7 DUP2 DUP14 PUSH2 0x1DD6 JUMP JUMPDEST SWAP1 POP DUP2 DUP2 SUB PUSH1 0x20 DUP4 ADD MSTORE PUSH2 0x20EB DUP2 DUP13 PUSH2 0x1DD6 JUMP JUMPDEST SWAP1 POP DUP2 DUP2 SUB PUSH1 0x40 DUP4 ADD MSTORE PUSH2 0x20FF DUP2 DUP12 PUSH2 0x1DD6 JUMP JUMPDEST SWAP1 POP DUP2 DUP2 SUB PUSH1 0x60 DUP4 ADD MSTORE PUSH2 0x2113 DUP2 DUP11 PUSH2 0x1DD6 JUMP JUMPDEST SWAP1 POP PUSH2 0x2122 PUSH1 0x80 DUP4 ADD DUP10 PUSH2 0x1F51 JUMP JUMPDEST PUSH2 0x212F PUSH1 0xA0 DUP4 ADD DUP9 PUSH2 0x1F51 JUMP JUMPDEST PUSH2 0x213C PUSH1 0xC0 DUP4 ADD DUP8 PUSH2 0x1F51 JUMP JUMPDEST PUSH2 0x2149 PUSH1 0xE0 DUP4 ADD DUP7 PUSH2 0x1F60 JUMP JUMPDEST DUP2 DUP2 SUB PUSH2 0x100 DUP4 ADD MSTORE PUSH2 0x215C DUP2 DUP6 PUSH2 0x2062 JUMP JUMPDEST SWAP1 POP DUP2 DUP2 SUB PUSH2 0x120 DUP4 ADD MSTORE PUSH2 0x2171 DUP2 DUP5 PUSH2 0x1EBE JUMP JUMPDEST SWAP1 POP SWAP12 SWAP11 POP POP POP POP POP POP POP POP POP POP POP JUMP JUMPDEST PUSH0 PUSH1 0x20 DUP3 DUP5 SUB SLT ISZERO PUSH2 0x2197 JUMPI PUSH2 0x2196 PUSH2 0x164D JUMP JUMPDEST JUMPDEST PUSH0 DUP3 ADD CALLDATALOAD PUSH8 0xFFFFFFFFFFFFFFFF DUP2 GT ISZERO PUSH2 0x21B4 JUMPI PUSH2 0x21B3 PUSH2 0x1651 JUMP JUMPDEST JUMPDEST PUSH2 0x21C0 DUP5 DUP3 DUP6 ADD PUSH2 0x17D5 JUMP JUMPDEST SWAP2 POP POP SWAP3 SWAP2 POP POP JUMP JUMPDEST PUSH0 PUSH2 0x140 DUP3 ADD SWAP1 POP DUP2 DUP2 SUB PUSH0 DUP4 ADD MSTORE PUSH2 0x21E2 DUP2 DUP14 PUSH2 0x1DD6 JUMP JUMPDEST SWAP1 POP DUP2 DUP2 SUB PUSH1 0x20 DUP4 ADD MSTORE PUSH2 0x21F6 DUP2 DUP13 PUSH2 0x1DD6 JUMP JUMPDEST SWAP1 POP DUP2 DUP2 SUB PUSH1 0x40 DUP4 ADD MSTORE PUSH2 0x220A DUP2 DUP12 PUSH2 0x1DD6 JUMP JUMPDEST SWAP1 POP DUP2 DUP2 SUB PUSH1 0x60 DUP4 ADD MSTORE PUSH2 0x221E DUP2 DUP11 PUSH2 0x1DD6 JUMP JUMPDEST SWAP1 POP DUP2 DUP2 SUB PUSH1 0x80 DUP4 ADD MSTORE PUSH2 0x2232 DUP2 DUP10 PUSH2 0x1DD6 JUMP JUMPDEST SWAP1 POP PUSH2 0x2241 PUSH1 0xA0 DUP4 ADD DUP9 PUSH2 0x1F51 JUMP JUMPDEST PUSH2 0x224E PUSH1 0xC0 DUP4 ADD DUP8 PUSH2 0x1F51 JUMP JUMPDEST PUSH2 0x225B PUSH1 0xE0 DUP4 ADD DUP7 PUSH2 0x1F51 JUMP JUMPDEST PUSH2 0x2269 PUSH2 0x100 DUP4 ADD DUP6 PUSH2 0x1F51 JUMP JUMPDEST PUSH2 0x2277 PUSH2 0x120 DUP4 ADD DUP5 PUSH2 0x1F60 JUMP JUMPDEST SWAP12 SWAP11 POP POP POP POP POP POP POP POP POP POP POP JUMP JUMPDEST PUSH0 DUP1 PUSH1 0x40 DUP4 DUP6 SUB SLT ISZERO PUSH2 0x229C JUMPI PUSH2 0x229B PUSH2 0x164D JUMP JUMPDEST JUMPDEST PUSH0 DUP4 ADD CALLDATALOAD PUSH8 0xFFFFFFFFFFFFFFFF DUP2 GT ISZERO PUSH2 0x22B9 JUMPI PUSH2 0x22B8 PUSH2 0x1651 JUMP JUMPDEST JUMPDEST PUSH2 0x22C5 DUP6 DUP3 DUP7 ADD PUSH2 0x17D5 JUMP JUMPDEST SWAP3 POP POP PUSH1 0x20 DUP4 ADD CALLDATALOAD PUSH8 0xFFFFFFFFFFFFFFFF DUP2 GT ISZERO PUSH2 0x22E6 JUMPI PUSH2 0x22E5 PUSH2 0x1651 JUMP JUMPDEST JUMPDEST PUSH2 0x22F2 DUP6 DUP3 DUP7 ADD PUSH2 0x17D5 JUMP JUMPDEST SWAP2 POP POP SWAP3 POP SWAP3 SWAP1 POP JUMP JUMPDEST PUSH0 PUSH1 0x20 DUP3 ADD SWAP1 POP PUSH2 0x230F PUSH0 DUP4 ADD DUP5 PUSH2 0x1F60 JUMP JUMPDEST SWAP3 SWAP2 POP POP JUMP JUMPDEST PUSH0 DUP3 DUP3 MSTORE PUSH1 0x20 DUP3 ADD SWAP1 POP SWAP3 SWAP2 POP POP JUMP JUMPDEST PUSH0 PUSH2 0x232F DUP3 PUSH2 0x1E2E JUMP JUMPDEST PUSH2 0x2339 DUP2 DUP6 PUSH2 0x2315 JUMP JUMPDEST SWAP4 POP DUP4 PUSH1 0x20 DUP3 MUL DUP6 ADD PUSH2 0x234B DUP6 PUSH2 0x1E48 JUMP JUMPDEST DUP1 PUSH0 JUMPDEST DUP6 DUP2 LT ISZERO PUSH2 0x2386 JUMPI DUP5 DUP5 SUB DUP10 MSTORE DUP2 MLOAD PUSH2 0x2367 DUP6 DUP3 PUSH2 0x1E9F JUMP JUMPDEST SWAP5 POP PUSH2 0x2372 DUP4 PUSH2 0x1EB2 JUMP JUMPDEST SWAP3 POP PUSH1 0x20 DUP11 ADD SWAP10 POP POP PUSH1 0x1 DUP2 ADD SWAP1 POP PUSH2 0x234E JUMP JUMPDEST POP DUP3 SWAP8 POP DUP8 SWAP6 POP POP POP POP POP POP SWAP3 SWAP2 POP POP JUMP JUMPDEST PUSH2 0x23A1 DUP2 PUSH2 0x1917 JUMP JUMPDEST DUP3 MSTORE POP POP JUMP JUMPDEST PUSH0 PUSH2 0x140 DUP4 ADD PUSH0 DUP4 ADD MLOAD DUP5 DUP3 SUB PUSH0 DUP7 ADD MSTORE PUSH2 0x23C2 DUP3 DUP3 PUSH2 0x1E67 JUMP JUMPDEST SWAP2 POP POP PUSH1 0x20 DUP4 ADD MLOAD DUP5 DUP3 SUB PUSH1 0x20 DUP7 ADD MSTORE PUSH2 0x23DC DUP3 DUP3 PUSH2 0x1E67 JUMP JUMPDEST SWAP2 POP POP PUSH1 0x40 DUP4 ADD MLOAD DUP5 DUP3 SUB PUSH1 0x40 DUP7 ADD MSTORE PUSH2 0x23F6 DUP3 DUP3 PUSH2 0x1E67 JUMP JUMPDEST SWAP2 POP POP PUSH1 0x60 DUP4 ADD MLOAD DUP5 DUP3 SUB PUSH1 0x60 DUP7 ADD MSTORE PUSH2 0x2410 DUP3 DUP3 PUSH2 0x1E67 JUMP JUMPDEST SWAP2 POP POP PUSH1 0x80 DUP4 ADD MLOAD PUSH2 0x2425 PUSH1 0x80 DUP7 ADD DUP3 PUSH2 0x2030 JUMP JUMPDEST POP PUSH1 0xA0 DUP4 ADD MLOAD DUP5 DUP3 SUB PUSH1 0xA0 DUP7 ADD MSTORE PUSH2 0x243D DUP3 DUP3 PUSH2 0x2325 JUMP JUMPDEST SWAP2 POP POP PUSH1 0xC0 DUP4 ADD MLOAD DUP5 DUP3 SUB PUSH1 0xC0 DUP7 ADD MSTORE PUSH2 0x2457 DUP3 DUP3 PUSH2 0x2325 JUMP JUMPDEST SWAP2 POP POP PUSH1 0xE0 DUP4 ADD MLOAD PUSH2 0x246C PUSH1 0xE0 DUP7 ADD DUP3 PUSH2 0x2030 JUMP JUMPDEST POP PUSH2 0x100 DUP4 ADD MLOAD PUSH2 0x2481 PUSH2 0x100 DUP7 ADD DUP3 PUSH2 0x2030 JUMP JUMPDEST POP PUSH2 0x120 DUP4 ADD MLOAD PUSH2 0x2496 PUSH2 0x120 DUP7 ADD DUP3 PUSH2 0x2398 JUMP JUMPDEST POP DUP1 SWAP2 POP POP SWAP3 SWAP2 POP POP JUMP JUMPDEST PUSH0 PUSH1 0x40 DUP3 ADD SWAP1 POP DUP2 DUP2 SUB PUSH0 DUP4 ADD MSTORE PUSH2 0x24B9 DUP2 DUP6 PUSH2 0x23A7 JUMP JUMPDEST SWAP1 POP PUSH2 0x24C8 PUSH1 0x20 DUP4 ADD DUP5 PUSH2 0x1F60 JUMP JUMPDEST SWAP4 SWAP3 POP POP POP JUMP JUMPDEST PUSH0 PUSH1 0x20 DUP3 ADD SWAP1 POP PUSH2 0x24E2 PUSH0 DUP4 ADD DUP5 PUSH2 0x1F51 JUMP JUMPDEST SWAP3 SWAP2 POP POP JUMP JUMPDEST PUSH0 DUP1 PUSH0 PUSH1 0x60 DUP5 DUP7 SUB SLT ISZERO PUSH2 0x24FF JUMPI PUSH2 0x24FE PUSH2 0x164D JUMP JUMPDEST JUMPDEST PUSH0 PUSH2 0x250C DUP7 DUP3 DUP8 ADD PUSH2 0x1674 JUMP JUMPDEST SWAP4 POP POP PUSH1 0x20 PUSH2 0x251D DUP7 DUP3 DUP8 ADD PUSH2 0x1674 JUMP JUMPDEST SWAP3 POP POP PUSH1 0x40 DUP5 ADD CALLDATALOAD PUSH8 0xFFFFFFFFFFFFFFFF DUP2 GT ISZERO PUSH2 0x253E JUMPI PUSH2 0x253D PUSH2 0x1651 JUMP JUMPDEST JUMPDEST PUSH2 0x254A DUP7 DUP3 DUP8 ADD PUSH2 0x17D5 JUMP JUMPDEST SWAP2 POP POP SWAP3 POP SWAP3 POP SWAP3 JUMP JUMPDEST PUSH0 DUP2 SWAP1 POP SWAP3 SWAP2 POP POP JUMP JUMPDEST PUSH0 PUSH2 0x2568 DUP3 PUSH2 0x1D94 JUMP JUMPDEST PUSH2 0x2572 DUP2 DUP6 PUSH2 0x2554 JUMP JUMPDEST SWAP4 POP PUSH2 0x2582 DUP2 DUP6 PUSH1 0x20 DUP7 ADD PUSH2 0x1DAE JUMP JUMPDEST DUP1 DUP5 ADD SWAP2 POP POP SWAP3 SWAP2 POP POP JUMP JUMPDEST PUSH0 PUSH2 0x2599 DUP3 DUP5 PUSH2 0x255E JUMP JUMPDEST SWAP2 POP DUP2 SWAP1 POP SWAP3 SWAP2 POP POP JUMP JUMPDEST PUSH32 0x4E487B7100000000000000000000000000000000000000000000000000000000 PUSH0 MSTORE PUSH1 0x22 PUSH1 0x4 MSTORE PUSH1 0x24 PUSH0 REVERT JUMPDEST PUSH0 PUSH1 0x2 DUP3 DIV SWAP1 POP PUSH1 0x1 DUP3 AND DUP1 PUSH2 0x25E8 JUMPI PUSH1 0x7F DUP3 AND SWAP2 POP JUMPDEST PUSH1 0x20 DUP3 LT DUP2 SUB PUSH2 0x25FB JUMPI PUSH2 0x25FA PUSH2 0x25A4 JUMP JUMPDEST JUMPDEST POP SWAP2 SWAP1 POP JUMP JUMPDEST PUSH0 DUP2 SWAP1 POP DUP2 PUSH0 MSTORE PUSH1 0x20 PUSH0 KECCAK256 SWAP1 POP SWAP2 SWAP1 POP JUMP JUMPDEST PUSH0 PUSH1 0x20 PUSH1 0x1F DUP4 ADD DIV SWAP1 POP SWAP2 SWAP1 POP JUMP JUMPDEST PUSH0 DUP3 DUP3 SHL SWAP1 POP SWAP3 SWAP2 POP POP JUMP JUMPDEST PUSH0 PUSH1 0x8 DUP4 MUL PUSH2 0x265D PUSH32 0xFFFFFFFFFFFFFFFFFFFFFFFFFFFFFFFFFFFFFFFFFFFFFFFFFFFFFFFFFFFFFFFF DUP3 PUSH2 0x2622 JUMP JUMPDEST PUSH2 0x2667 DUP7 DUP4 PUSH2 0x2622 JUMP JUMPDEST SWAP6 POP DUP1 NOT DUP5 AND SWAP4 POP DUP1 DUP7 AND DUP5 OR SWAP3 POP POP POP SWAP4 SWAP3 POP POP POP JUMP JUMPDEST PUSH0 DUP2 SWAP1 POP SWAP2 SWAP1 POP JUMP JUMPDEST PUSH0 PUSH2 0x26A2 PUSH2 0x269D PUSH2 0x2698 DUP5 PUSH2 0x1655 JUMP JUMPDEST PUSH2 0x267F JUMP JUMPDEST PUSH2 0x1655 JUMP JUMPDEST SWAP1 POP SWAP2 SWAP1 POP JUMP JUMPDEST PUSH0 DUP2 SWAP1 POP SWAP2 SWAP1 POP JUMP JUMPDEST PUSH2 0x26BB DUP4 PUSH2 0x2688 JUMP JUMPDEST PUSH2 0x26CF PUSH2 0x26C7 DUP3 PUSH2 0x26A9 JUMP JUMPDEST DUP5 DUP5 SLOAD PUSH2 0x262E JUMP JUMPDEST DUP3 SSTORE POP POP POP POP JUMP JUMPDEST PUSH0 SWAP1 JUMP JUMPDEST PUSH2 0x26E3 PUSH2 0x26D7 JUMP JUMPDEST PUSH2 0x26EE DUP2 DUP5 DUP5 PUSH2 0x26B2 JUMP JUMPDEST POP POP POP JUMP JUMPDEST JUMPDEST DUP2 DUP2 LT ISZERO PUSH2 0x2711 JUMPI PUSH2 0x2706 PUSH0 DUP3 PUSH2 0x26DB JUMP JUMPDEST PUSH1 0x1 DUP2 ADD SWAP1 POP PUSH2 0x26F4 JUMP JUMPDEST POP POP JUMP JUMPDEST PUSH1 0x1F DUP3 GT ISZERO PUSH2 0x2756 JUMPI PUSH2 0x2727 DUP2 PUSH2 0x2601 JUMP JUMPDEST PUSH2 0x2730 DUP5 PUSH2 0x2613 JUMP JUMPDEST DUP2 ADD PUSH1 0x20 DUP6 LT ISZERO PUSH2 0x273F JUMPI DUP2 SWAP1 POP JUMPDEST PUSH2 0x2753 PUSH2 0x274B DUP6 PUSH2 0x2613 JUMP JUMPDEST DUP4 ADD DUP3 PUSH2 0x26F3 JUMP JUMPDEST POP POP JUMPDEST POP POP POP JUMP JUMPDEST PUSH0 DUP3 DUP3 SHR SWAP1 POP SWAP3 SWAP2 POP POP JUMP JUMPDEST PUSH0 PUSH2 0x2776 PUSH0 NOT DUP5 PUSH1 0x8 MUL PUSH2 0x275B JUMP JUMPDEST NOT DUP1 DUP4 AND SWAP2 POP POP SWAP3 SWAP2 POP POP JUMP JUMPDEST PUSH0 PUSH2 0x278E DUP4 DUP4 PUSH2 0x2767 JUMP JUMPDEST SWAP2 POP DUP3 PUSH1 0x2 MUL DUP3 OR SWAP1 POP SWAP3 SWAP2 POP POP JUMP JUMPDEST PUSH2 0x27A7 DUP3 PUSH2 0x1D94 JUMP JUMPDEST PUSH8 0xFFFFFFFFFFFFFFFF DUP2 GT ISZERO PUSH2 0x27C0 JUMPI PUSH2 0x27BF PUSH2 0x16DE JUMP JUMPDEST JUMPDEST PUSH2 0x27CA DUP3 SLOAD PUSH2 0x25D1 JUMP JUMPDEST PUSH2 0x27D5 DUP3 DUP3 DUP6 PUSH2 0x2715 JUMP JUMPDEST PUSH0 PUSH1 0x20 SWAP1 POP PUSH1 0x1F DUP4 GT PUSH1 0x1 DUP2 EQ PUSH2 0x2806 JUMPI PUSH0 DUP5 ISZERO PUSH2 0x27F4 JUMPI DUP3 DUP8 ADD MLOAD SWAP1 POP JUMPDEST PUSH2 0x27FE DUP6 DUP3 PUSH2 0x2783 JUMP JUMPDEST DUP7 SSTORE POP PUSH2 0x2865 JUMP JUMPDEST PUSH1 0x1F NOT DUP5 AND PUSH2 0x2814 DUP7 PUSH2 0x2601 JUMP JUMPDEST PUSH0 JUMPDEST DUP3 DUP2 LT ISZERO PUSH2 0x283B JUMPI DUP5 DUP10 ADD MLOAD DUP3 SSTORE PUSH1 0x1 DUP3 ADD SWAP2 POP PUSH1 0x20 DUP6 ADD SWAP5 POP PUSH1 0x20 DUP2 ADD SWAP1 POP PUSH2 0x2816 JUMP JUMPDEST DUP7 DUP4 LT ISZERO PUSH2 0x2858 JUMPI DUP5 DUP10 ADD MLOAD PUSH2 0x2854 PUSH1 0x1F DUP10 AND DUP3 PUSH2 0x2767 JUMP JUMPDEST DUP4 SSTORE POP JUMPDEST PUSH1 0x1 PUSH1 0x2 DUP9 MUL ADD DUP9 SSTORE POP POP POP JUMPDEST POP POP POP POP POP POP JUMP JUMPDEST PUSH32 0x4E487B7100000000000000000000000000000000000000000000000000000000 PUSH0 MSTORE PUSH1 0x32 PUSH1 0x4 MSTORE PUSH1 0x24 PUSH0 REVERT JUMPDEST PUSH32 0x4E487B7100000000000000000000000000000000000000000000000000000000 PUSH0 MSTORE PUSH1 0x11 PUSH1 0x4 MSTORE PUSH1 0x24 PUSH0 REVERT JUMPDEST PUSH0 PUSH2 0x28D1 DUP3 PUSH2 0x1655 JUMP JUMPDEST SWAP2 POP PUSH32 0xFFFFFFFFFFFFFFFFFFFFFFFFFFFFFFFFFFFFFFFFFFFFFFFFFFFFFFFFFFFFFFFF DUP3 SUB PUSH2 0x2903 JUMPI PUSH2 0x2902 PUSH2 0x289A JUMP JUMPDEST JUMPDEST PUSH1 0x1 DUP3 ADD SWAP1 POP SWAP2 SWAP1 POP JUMP JUMPDEST PUSH32 0x5374616765206E6F7420666F756E640000000000000000000000000000000000 PUSH0 DUP3 ADD MSTORE POP JUMP JUMPDEST PUSH0 PUSH2 0x2942 PUSH1 0xF DUP4 PUSH2 0x1D9E JUMP JUMPDEST SWAP2 POP PUSH2 0x294D DUP3 PUSH2 0x290E JUMP JUMPDEST PUSH1 0x20 DUP3 ADD SWAP1 POP SWAP2 SWAP1 POP JUMP JUMPDEST PUSH0 PUSH1 0x20 DUP3 ADD SWAP1 POP DUP2 DUP2 SUB PUSH0 DUP4 ADD MSTORE PUSH2 0x296F DUP2 PUSH2 0x2936 JUMP JUMPDEST SWAP1 POP SWAP2 SWAP1 POP JUMP JUMPDEST PUSH0 PUSH1 0x60 DUP3 ADD SWAP1 POP PUSH2 0x2989 PUSH0 DUP4 ADD DUP7 PUSH2 0x1F51 JUMP JUMPDEST PUSH2 0x2996 PUSH1 0x20 DUP4 ADD DUP6 PUSH2 0x1F51 JUMP JUMPDEST DUP2 DUP2 SUB PUSH1 0x40 DUP4 ADD MSTORE PUSH2 0x29A8 DUP2 DUP5 PUSH2 0x1DD6 JUMP JUMPDEST SWAP1 POP SWAP5 SWAP4 POP POP POP POP JUMP INVALID LOG2 PUSH5 0x6970667358 0x22 SLT KECCAK256 SHR PUSH28 0xCAC1E3DC6C8FFEBCB1233A63C036A8B16A9ADF69FDB04B7FD2DCCA26 0x2A 0xE4 PUSH5 0x736F6C6343 STOP ADDMOD EQ STOP CALLER "
				},
				"gasEstimates": {
					"creation": {
						"codeDepositCost": "2145600",
						"executionCost": "infinite",
						"totalCost": "infinite"
					},
					"external": {
						"addStage(string,(string,string,string,string,uint256,string[],string[],uint256,uint256,bool))": "infinite",
						"agencyId()": "infinite",
						"closeProject(uint256)": "446",
						"compareStrings(string,string)": "infinite",
						"createProject(string,string,string,string,string,uint256,uint256,(string,string,string,string,uint256,string[],string[],uint256,uint256,bool)[])": "infinite",
						"getAllProjectIds()": "infinite",
						"getProjectDetails(uint256)": "infinite",
						"getProjectWithStages(uint256)": "infinite",
						"getProjectsCount()": "2506",
						"getStageById(string,string)": "infinite",
						"getStagesCount(string)": "infinite",
						"processPendingPayments(uint256,uint256)": "infinite",
						"projectIds(uint256)": "infinite",
						"projects(string)": "infinite",
						"validateStage(uint256,uint256,string)": "infinite"
					}
				},
				"methodIdentifiers": {
					"addStage(string,(string,string,string,string,uint256,string[],string[],uint256,uint256,bool))": "292ee7c9",
					"agencyId()": "99e76d35",
					"closeProject(uint256)": "93dc12e6",
					"compareStrings(string,string)": "bed34bba",
					"createProject(string,string,string,string,string,uint256,uint256,(string,string,string,string,uint256,string[],string[],uint256,uint256,bool)[])": "221c51bb",
					"getAllProjectIds()": "4ac64766",
					"getProjectDetails(uint256)": "5f8439e3",
					"getProjectWithStages(uint256)": "8abb10c6",
					"getProjectsCount()": "e4a8f18b",
					"getStageById(string,string)": "cbe737b3",
					"getStagesCount(string)": "ce89e021",
					"processPendingPayments(uint256,uint256)": "089cd025",
					"projectIds(uint256)": "48c35ad4",
					"projects(string)": "91c9b268",
					"validateStage(uint256,uint256,string)": "f5c4b73e"
				}
			},
			"storageLayout": {
				"storage": [
					{
						"astId": 4,
						"contract": "smartContract_eliseu_v1.sol:SmartPayConstruction",
						"label": "agencyId",
						"offset": 0,
						"slot": "0",
						"type": "t_string_storage"
					},
					{
						"astId": 57,
						"contract": "smartContract_eliseu_v1.sol:SmartPayConstruction",
						"label": "projects",
						"offset": 0,
						"slot": "1",
						"type": "t_mapping(t_string_memory_ptr,t_struct(Project)52_storage)"
					},
					{
						"astId": 60,
						"contract": "smartContract_eliseu_v1.sol:SmartPayConstruction",
						"label": "projectIds",
						"offset": 0,
						"slot": "2",
						"type": "t_array(t_string_storage)dyn_storage"
					}
				],
				"types": {
					"t_array(t_string_storage)dyn_storage": {
						"base": "t_string_storage",
						"encoding": "dynamic_array",
						"label": "string[]",
						"numberOfBytes": "32"
					},
					"t_array(t_struct(Stage)27_storage)dyn_storage": {
						"base": "t_struct(Stage)27_storage",
						"encoding": "dynamic_array",
						"label": "struct SmartPayConstruction.Stage[]",
						"numberOfBytes": "32"
					},
					"t_bool": {
						"encoding": "inplace",
						"label": "bool",
						"numberOfBytes": "1"
					},
					"t_mapping(t_string_memory_ptr,t_struct(Project)52_storage)": {
						"encoding": "mapping",
						"key": "t_string_memory_ptr",
						"label": "mapping(string => struct SmartPayConstruction.Project)",
						"numberOfBytes": "32",
						"value": "t_struct(Project)52_storage"
					},
					"t_string_memory_ptr": {
						"encoding": "bytes",
						"label": "string",
						"numberOfBytes": "32"
					},
					"t_string_storage": {
						"encoding": "bytes",
						"label": "string",
						"numberOfBytes": "32"
					},
					"t_struct(Project)52_storage": {
						"encoding": "inplace",
						"label": "struct SmartPayConstruction.Project",
						"members": [
							{
								"astId": 29,
								"contract": "smartContract_eliseu_v1.sol:SmartPayConstruction",
								"label": "project_id",
								"offset": 0,
								"slot": "0",
								"type": "t_string_storage"
							},
							{
								"astId": 31,
								"contract": "smartContract_eliseu_v1.sol:SmartPayConstruction",
								"label": "name",
								"offset": 0,
								"slot": "1",
								"type": "t_string_storage"
							},
							{
								"astId": 33,
								"contract": "smartContract_eliseu_v1.sol:SmartPayConstruction",
								"label": "description",
								"offset": 0,
								"slot": "2",
								"type": "t_string_storage"
							},
							{
								"astId": 35,
								"contract": "smartContract_eliseu_v1.sol:SmartPayConstruction",
								"label": "client_id",
								"offset": 0,
								"slot": "3",
								"type": "t_string_storage"
							},
							{
								"astId": 37,
								"contract": "smartContract_eliseu_v1.sol:SmartPayConstruction",
								"label": "contractor",
								"offset": 0,
								"slot": "4",
								"type": "t_string_storage"
							},
							{
								"astId": 39,
								"contract": "smartContract_eliseu_v1.sol:SmartPayConstruction",
								"label": "creationDate",
								"offset": 0,
								"slot": "5",
								"type": "t_uint256"
							},
							{
								"astId": 41,
								"contract": "smartContract_eliseu_v1.sol:SmartPayConstruction",
								"label": "startDate",
								"offset": 0,
								"slot": "6",
								"type": "t_uint256"
							},
							{
								"astId": 43,
								"contract": "smartContract_eliseu_v1.sol:SmartPayConstruction",
								"label": "endDate",
								"offset": 0,
								"slot": "7",
								"type": "t_uint256"
							},
							{
								"astId": 45,
								"contract": "smartContract_eliseu_v1.sol:SmartPayConstruction",
								"label": "actualCompletionDate",
								"offset": 0,
								"slot": "8",
								"type": "t_uint256"
							},
							{
								"astId": 47,
								"contract": "smartContract_eliseu_v1.sol:SmartPayConstruction",
								"label": "closed",
								"offset": 0,
								"slot": "9",
								"type": "t_bool"
							},
							{
								"astId": 51,
								"contract": "smartContract_eliseu_v1.sol:SmartPayConstruction",
								"label": "stages",
								"offset": 0,
								"slot": "10",
								"type": "t_array(t_struct(Stage)27_storage)dyn_storage"
							}
						],
						"numberOfBytes": "352"
					},
					"t_struct(Stage)27_storage": {
						"encoding": "inplace",
						"label": "struct SmartPayConstruction.Stage",
						"members": [
							{
								"astId": 6,
								"contract": "smartContract_eliseu_v1.sol:SmartPayConstruction",
								"label": "stage_id",
								"offset": 0,
								"slot": "0",
								"type": "t_string_storage"
							},
							{
								"astId": 8,
								"contract": "smartContract_eliseu_v1.sol:SmartPayConstruction",
								"label": "title",
								"offset": 0,
								"slot": "1",
								"type": "t_string_storage"
							},
							{
								"astId": 10,
								"contract": "smartContract_eliseu_v1.sol:SmartPayConstruction",
								"label": "description",
								"offset": 0,
								"slot": "2",
								"type": "t_string_storage"
							},
							{
								"astId": 12,
								"contract": "smartContract_eliseu_v1.sol:SmartPayConstruction",
								"label": "validation_steps",
								"offset": 0,
								"slot": "3",
								"type": "t_string_storage"
							},
							{
								"astId": 14,
								"contract": "smartContract_eliseu_v1.sol:SmartPayConstruction",
								"label": "value",
								"offset": 0,
								"slot": "4",
								"type": "t_uint256"
							},
							{
								"astId": 17,
								"contract": "smartContract_eliseu_v1.sol:SmartPayConstruction",
								"label": "validators_ids",
								"offset": 0,
								"slot": "5",
								"type": "t_array(t_string_storage)dyn_storage"
							},
							{
								"astId": 20,
								"contract": "smartContract_eliseu_v1.sol:SmartPayConstruction",
								"label": "validations",
								"offset": 0,
								"slot": "6",
								"type": "t_array(t_string_storage)dyn_storage"
							},
							{
								"astId": 22,
								"contract": "smartContract_eliseu_v1.sol:SmartPayConstruction",
								"label": "totalValidators",
								"offset": 0,
								"slot": "7",
								"type": "t_uint256"
							},
							{
								"astId": 24,
								"contract": "smartContract_eliseu_v1.sol:SmartPayConstruction",
								"label": "amountToValidator",
								"offset": 0,
								"slot": "8",
								"type": "t_uint256"
							},
							{
								"astId": 26,
								"contract": "smartContract_eliseu_v1.sol:SmartPayConstruction",
								"label": "completed",
								"offset": 0,
								"slot": "9",
								"type": "t_bool"
							}
						],
						"numberOfBytes": "320"
					},
					"t_uint256": {
						"encoding": "inplace",
						"label": "uint256",
						"numberOfBytes": "32"
					}
				}
			},
			"userdoc": {
				"kind": "user",
				"methods": {},
				"version": 1
			}
		}
	}
}