{
	"smartContract_eliseu.sol": {
		"SmartPayConstruction": {
			"abi": [
				{
					"anonymous": false,
					"inputs": [
						{
							"indexed": false,
							"internalType": "uint256",
							"name": "projectId",
							"type": "uint256"
						},
						{
							"indexed": false,
							"internalType": "uint256",
							"name": "stageId",
							"type": "uint256"
						},
						{
							"indexed": false,
							"internalType": "uint256",
							"name": "amount",
							"type": "uint256"
						}
					],
					"name": "PaymentProcessed",
					"type": "event"
				},
				{
					"anonymous": false,
					"inputs": [
						{
							"indexed": false,
							"internalType": "uint256",
							"name": "id",
							"type": "uint256"
						}
					],
					"name": "ProjectClosed",
					"type": "event"
				},
				{
					"anonymous": false,
					"inputs": [
						{
							"indexed": false,
							"internalType": "uint256",
							"name": "id",
							"type": "uint256"
						},
						{
							"indexed": false,
							"internalType": "string",
							"name": "name",
							"type": "string"
						},
						{
							"indexed": false,
							"internalType": "string",
							"name": "client",
							"type": "string"
						},
						{
							"indexed": false,
							"internalType": "string",
							"name": "contractor",
							"type": "string"
						}
					],
					"name": "ProjectCreated",
					"type": "event"
				},
				{
					"anonymous": false,
					"inputs": [
						{
							"indexed": false,
							"internalType": "uint256",
							"name": "projectId",
							"type": "uint256"
						},
						{
							"indexed": false,
							"internalType": "uint256",
							"name": "stageId",
							"type": "uint256"
						},
						{
							"indexed": false,
							"internalType": "string",
							"name": "description",
							"type": "string"
						},
						{
							"indexed": false,
							"internalType": "uint256",
							"name": "value",
							"type": "uint256"
						}
					],
					"name": "StageAdded",
					"type": "event"
				},
				{
					"anonymous": false,
					"inputs": [
						{
							"indexed": false,
							"internalType": "uint256",
							"name": "projectId",
							"type": "uint256"
						},
						{
							"indexed": false,
							"internalType": "uint256",
							"name": "stageId",
							"type": "uint256"
						},
						{
							"indexed": false,
							"internalType": "string",
							"name": "validatorID",
							"type": "string"
						}
					],
					"name": "StageValidated",
					"type": "event"
				},
				{
					"inputs": [
						{
							"internalType": "uint256",
							"name": "projectId",
							"type": "uint256"
						},
						{
							"internalType": "string",
							"name": "_description",
							"type": "string"
						},
						{
							"internalType": "uint256",
							"name": "_value",
							"type": "uint256"
						},
						{
							"internalType": "string[]",
							"name": "_validators_ids",
							"type": "string[]"
						}
					],
					"name": "addStage",
					"outputs": [],
					"stateMutability": "nonpayable",
					"type": "function"
				},
				{
					"inputs": [],
					"name": "agencyId",
					"outputs": [
						{
							"internalType": "string",
							"name": "",
							"type": "string"
						}
					],
					"stateMutability": "view",
					"type": "function"
				},
				{
					"inputs": [
						{
							"internalType": "uint256",
							"name": "projectId",
							"type": "uint256"
						}
					],
					"name": "closeProject",
					"outputs": [],
					"stateMutability": "nonpayable",
					"type": "function"
				},
				{
					"inputs": [
						{
							"internalType": "string",
							"name": "_project_id",
							"type": "string"
						},
						{
							"internalType": "string",
							"name": "_name",
							"type": "string"
						},
						{
							"internalType": "string",
							"name": "_description",
							"type": "string"
						},
						{
							"internalType": "string",
							"name": "_client_id",
							"type": "string"
						},
						{
							"internalType": "string",
							"name": "_contractor",
							"type": "string"
						},
						{
							"internalType": "uint256",
							"name": "_startDate",
							"type": "uint256"
						},
						{
							"internalType": "uint256",
							"name": "_endDate",
							"type": "uint256"
						}
					],
					"name": "createProject",
					"outputs": [],
					"stateMutability": "nonpayable",
					"type": "function"
				},
				{
					"inputs": [],
					"name": "getAllProjectIds",
					"outputs": [
						{
							"internalType": "uint256[]",
							"name": "",
							"type": "uint256[]"
						}
					],
					"stateMutability": "view",
					"type": "function"
				},
				{
					"inputs": [
						{
							"internalType": "uint256",
							"name": "projectId",
							"type": "uint256"
						}
					],
					"name": "getProjectDetails",
					"outputs": [
						{
							"internalType": "string",
							"name": "",
							"type": "string"
						},
						{
							"internalType": "string",
							"name": "",
							"type": "string"
						},
						{
							"internalType": "string",
							"name": "",
							"type": "string"
						},
						{
							"internalType": "string",
							"name": "",
							"type": "string"
						},
						{
							"internalType": "uint256",
							"name": "",
							"type": "uint256"
						},
						{
							"internalType": "uint256",
							"name": "",
							"type": "uint256"
						},
						{
							"internalType": "uint256",
							"name": "",
							"type": "uint256"
						},
						{
							"internalType": "bool",
							"name": "",
							"type": "bool"
						}
					],
					"stateMutability": "view",
					"type": "function"
				},
				{
					"inputs": [
						{
							"internalType": "uint256",
							"name": "projectId",
							"type": "uint256"
						}
					],
					"name": "getProjectWithStages",
					"outputs": [
						{
							"internalType": "string",
							"name": "",
							"type": "string"
						},
						{
							"internalType": "string",
							"name": "",
							"type": "string"
						},
						{
							"internalType": "string",
							"name": "",
							"type": "string"
						},
						{
							"internalType": "string",
							"name": "",
							"type": "string"
						},
						{
							"internalType": "uint256",
							"name": "",
							"type": "uint256"
						},
						{
							"internalType": "uint256",
							"name": "",
							"type": "uint256"
						},
						{
							"internalType": "uint256",
							"name": "",
							"type": "uint256"
						},
						{
							"internalType": "bool",
							"name": "",
							"type": "bool"
						},
						{
							"internalType": "uint256[]",
							"name": "",
							"type": "uint256[]"
						},
						{
							"internalType": "string[]",
							"name": "",
							"type": "string[]"
						}
					],
					"stateMutability": "view",
					"type": "function"
				},
				{
					"inputs": [],
					"name": "getProjectsCount",
					"outputs": [
						{
							"internalType": "uint256",
							"name": "",
							"type": "uint256"
						}
					],
					"stateMutability": "view",
					"type": "function"
				},
				{
					"inputs": [
						{
							"internalType": "uint256",
							"name": "projectId",
							"type": "uint256"
						},
						{
							"internalType": "uint256",
							"name": "stageId",
							"type": "uint256"
						}
					],
					"name": "processPendingPayments",
					"outputs": [],
					"stateMutability": "nonpayable",
					"type": "function"
				},
				{
					"inputs": [
						{
							"internalType": "uint256",
							"name": "",
							"type": "uint256"
						}
					],
					"name": "projectIds",
					"outputs": [
						{
							"internalType": "uint256",
							"name": "",
							"type": "uint256"
						}
					],
					"stateMutability": "view",
					"type": "function"
				},
				{
					"inputs": [
						{
							"internalType": "uint256",
							"name": "",
							"type": "uint256"
						}
					],
					"name": "projects",
					"outputs": [
						{
							"internalType": "string",
							"name": "project_id",
							"type": "string"
						},
						{
							"internalType": "string",
							"name": "name",
							"type": "string"
						},
						{
							"internalType": "string",
							"name": "description",
							"type": "string"
						},
						{
							"internalType": "string",
							"name": "client_id",
							"type": "string"
						},
						{
							"internalType": "string",
							"name": "contractor",
							"type": "string"
						},
						{
							"internalType": "uint256",
							"name": "creationDate",
							"type": "uint256"
						},
						{
							"internalType": "uint256",
							"name": "startDate",
							"type": "uint256"
						},
						{
							"internalType": "uint256",
							"name": "endDate",
							"type": "uint256"
						},
						{
							"internalType": "uint256",
							"name": "actualCompletionDate",
							"type": "uint256"
						},
						{
							"internalType": "bool",
							"name": "closed",
							"type": "bool"
						}
					],
					"stateMutability": "view",
					"type": "function"
				},
				{
					"inputs": [
						{
							"internalType": "uint256",
							"name": "projectId",
							"type": "uint256"
						},
						{
							"internalType": "uint256",
							"name": "stageId",
							"type": "uint256"
						},
						{
							"internalType": "string",
							"name": "validatorID",
							"type": "string"
						}
					],
					"name": "validateStage",
					"outputs": [],
					"stateMutability": "nonpayable",
					"type": "function"
				}
			],
			"devdoc": {
				"kind": "dev",
				"methods": {},
				"version": 1
			},
			"evm": {
				"assembly": "    /* \"smartContract_eliseu.sol\":58:5762  contract SmartPayConstruction {... */\n  mstore(0x40, 0x80)\n    /* \"smartContract_eliseu.sol\":94:127  string public agencyId = \"agency\" */\n  mload(0x40)\n  dup1\n  0x40\n  add\n  0x40\n  mstore\n  dup1\n  0x06\n  dup2\n  mstore\n  0x20\n  add\n  0x6167656e63790000000000000000000000000000000000000000000000000000\n  dup2\n  mstore\n  pop\n  0x00\n  swap1\n  dup2\n  tag_1\n  swap2\n  swap1\n  tag_2\n  jump\t// in\ntag_1:\n  pop\n    /* \"smartContract_eliseu.sol\":154:155  0 */\n  0x00\n    /* \"smartContract_eliseu.sol\":133:155  uint256 numProjects= 0 */\n  0x01\n  sstore\n    /* \"smartContract_eliseu.sol\":58:5762  contract SmartPayConstruction {... */\n  callvalue\n  dup1\n  iszero\n  tag_3\n  jumpi\n  0x00\n  dup1\n  revert\ntag_3:\n  pop\n  jump(tag_4)\n    /* \"#utility.yul\":7:106   */\ntag_5:\n    /* \"#utility.yul\":59:65   */\n  0x00\n    /* \"#utility.yul\":93:98   */\n  dup2\n    /* \"#utility.yul\":87:99   */\n  mload\n    /* \"#utility.yul\":77:99   */\n  swap1\n  pop\n    /* \"#utility.yul\":7:106   */\n  swap2\n  swap1\n  pop\n  jump\t// out\n    /* \"#utility.yul\":112:292   */\ntag_6:\n    /* \"#utility.yul\":160:237   */\n  0x4e487b7100000000000000000000000000000000000000000000000000000000\n    /* \"#utility.yul\":157:158   */\n  0x00\n    /* \"#utility.yul\":150:238   */\n  mstore\n    /* \"#utility.yul\":257:261   */\n  0x41\n    /* \"#utility.yul\":254:255   */\n  0x04\n    /* \"#utility.yul\":247:262   */\n  mstore\n    /* \"#utility.yul\":281:285   */\n  0x24\n    /* \"#utility.yul\":278:279   */\n  0x00\n    /* \"#utility.yul\":271:286   */\n  revert\n    /* \"#utility.yul\":298:478   */\ntag_7:\n    /* \"#utility.yul\":346:423   */\n  0x4e487b7100000000000000000000000000000000000000000000000000000000\n    /* \"#utility.yul\":343:344   */\n  0x00\n    /* \"#utility.yul\":336:424   */\n  mstore\n    /* \"#utility.yul\":443:447   */\n  0x22\n    /* \"#utility.yul\":440:441   */\n  0x04\n    /* \"#utility.yul\":433:448   */\n  mstore\n    /* \"#utility.yul\":467:471   */\n  0x24\n    /* \"#utility.yul\":464:465   */\n  0x00\n    /* \"#utility.yul\":457:472   */\n  revert\n    /* \"#utility.yul\":484:804   */\ntag_8:\n    /* \"#utility.yul\":528:534   */\n  0x00\n    /* \"#utility.yul\":565:566   */\n  0x02\n    /* \"#utility.yul\":559:563   */\n  dup3\n    /* \"#utility.yul\":555:567   */\n  div\n    /* \"#utility.yul\":545:567   */\n  swap1\n  pop\n    /* \"#utility.yul\":612:613   */\n  0x01\n    /* \"#utility.yul\":606:610   */\n  dup3\n    /* \"#utility.yul\":602:614   */\n  and\n    /* \"#utility.yul\":633:651   */\n  dup1\n    /* \"#utility.yul\":623:704   */\n  tag_30\n  jumpi\n    /* \"#utility.yul\":689:693   */\n  0x7f\n    /* \"#utility.yul\":681:687   */\n  dup3\n    /* \"#utility.yul\":677:694   */\n  and\n    /* \"#utility.yul\":667:694   */\n  swap2\n  pop\n    /* \"#utility.yul\":623:704   */\ntag_30:\n    /* \"#utility.yul\":751:753   */\n  0x20\n    /* \"#utility.yul\":743:749   */\n  dup3\n    /* \"#utility.yul\":740:754   */\n  lt\n    /* \"#utility.yul\":720:738   */\n  dup2\n    /* \"#utility.yul\":717:755   */\n  sub\n    /* \"#utility.yul\":714:798   */\n  tag_31\n  jumpi\n    /* \"#utility.yul\":770:788   */\n  tag_32\n  tag_7\n  jump\t// in\ntag_32:\n    /* \"#utility.yul\":714:798   */\ntag_31:\n    /* \"#utility.yul\":535:804   */\n  pop\n    /* \"#utility.yul\":484:804   */\n  swap2\n  swap1\n  pop\n  jump\t// out\n    /* \"#utility.yul\":810:951   */\ntag_9:\n    /* \"#utility.yul\":859:863   */\n  0x00\n    /* \"#utility.yul\":882:885   */\n  dup2\n    /* \"#utility.yul\":874:885   */\n  swap1\n  pop\n    /* \"#utility.yul\":905:908   */\n  dup2\n    /* \"#utility.yul\":902:903   */\n  0x00\n    /* \"#utility.yul\":895:909   */\n  mstore\n    /* \"#utility.yul\":939:943   */\n  0x20\n    /* \"#utility.yul\":936:937   */\n  0x00\n    /* \"#utility.yul\":926:944   */\n  keccak256\n    /* \"#utility.yul\":918:944   */\n  swap1\n  pop\n    /* \"#utility.yul\":810:951   */\n  swap2\n  swap1\n  pop\n  jump\t// out\n    /* \"#utility.yul\":957:1050   */\ntag_10:\n    /* \"#utility.yul\":994:1000   */\n  0x00\n    /* \"#utility.yul\":1041:1043   */\n  0x20\n    /* \"#utility.yul\":1036:1038   */\n  0x1f\n    /* \"#utility.yul\":1029:1034   */\n  dup4\n    /* \"#utility.yul\":1025:1039   */\n  add\n    /* \"#utility.yul\":1021:1044   */\n  div\n    /* \"#utility.yul\":1011:1044   */\n  swap1\n  pop\n    /* \"#utility.yul\":957:1050   */\n  swap2\n  swap1\n  pop\n  jump\t// out\n    /* \"#utility.yul\":1056:1163   */\ntag_11:\n    /* \"#utility.yul\":1100:1108   */\n  0x00\n    /* \"#utility.yul\":1150:1155   */\n  dup3\n    /* \"#utility.yul\":1144:1148   */\n  dup3\n    /* \"#utility.yul\":1140:1156   */\n  shl\n    /* \"#utility.yul\":1119:1156   */\n  swap1\n  pop\n    /* \"#utility.yul\":1056:1163   */\n  swap3\n  swap2\n  pop\n  pop\n  jump\t// out\n    /* \"#utility.yul\":1169:1562   */\ntag_12:\n    /* \"#utility.yul\":1238:1244   */\n  0x00\n    /* \"#utility.yul\":1288:1289   */\n  0x08\n    /* \"#utility.yul\":1276:1286   */\n  dup4\n    /* \"#utility.yul\":1272:1290   */\n  mul\n    /* \"#utility.yul\":1311:1408   */\n  tag_37\n    /* \"#utility.yul\":1341:1407   */\n  0xffffffffffffffffffffffffffffffffffffffffffffffffffffffffffffffff\n    /* \"#utility.yul\":1330:1339   */\n  dup3\n    /* \"#utility.yul\":1311:1408   */\n  tag_11\n  jump\t// in\ntag_37:\n    /* \"#utility.yul\":1429:1468   */\n  tag_38\n    /* \"#utility.yul\":1459:1467   */\n  dup7\n    /* \"#utility.yul\":1448:1457   */\n  dup4\n    /* \"#utility.yul\":1429:1468   */\n  tag_11\n  jump\t// in\ntag_38:\n    /* \"#utility.yul\":1417:1468   */\n  swap6\n  pop\n    /* \"#utility.yul\":1501:1505   */\n  dup1\n    /* \"#utility.yul\":1497:1506   */\n  not\n    /* \"#utility.yul\":1490:1495   */\n  dup5\n    /* \"#utility.yul\":1486:1507   */\n  and\n    /* \"#utility.yul\":1477:1507   */\n  swap4\n  pop\n    /* \"#utility.yul\":1550:1554   */\n  dup1\n    /* \"#utility.yul\":1540:1548   */\n  dup7\n    /* \"#utility.yul\":1536:1555   */\n  and\n    /* \"#utility.yul\":1529:1534   */\n  dup5\n    /* \"#utility.yul\":1526:1556   */\n  or\n    /* \"#utility.yul\":1516:1556   */\n  swap3\n  pop\n    /* \"#utility.yul\":1245:1562   */\n  pop\n  pop\n    /* \"#utility.yul\":1169:1562   */\n  swap4\n  swap3\n  pop\n  pop\n  pop\n  jump\t// out\n    /* \"#utility.yul\":1568:1645   */\ntag_13:\n    /* \"#utility.yul\":1605:1612   */\n  0x00\n    /* \"#utility.yul\":1634:1639   */\n  dup2\n    /* \"#utility.yul\":1623:1639   */\n  swap1\n  pop\n    /* \"#utility.yul\":1568:1645   */\n  swap2\n  swap1\n  pop\n  jump\t// out\n    /* \"#utility.yul\":1651:1711   */\ntag_14:\n    /* \"#utility.yul\":1679:1682   */\n  0x00\n    /* \"#utility.yul\":1700:1705   */\n  dup2\n    /* \"#utility.yul\":1693:1705   */\n  swap1\n  pop\n    /* \"#utility.yul\":1651:1711   */\n  swap2\n  swap1\n  pop\n  jump\t// out\n    /* \"#utility.yul\":1717:1859   */\ntag_15:\n    /* \"#utility.yul\":1767:1776   */\n  0x00\n    /* \"#utility.yul\":1800:1853   */\n  tag_42\n    /* \"#utility.yul\":1818:1852   */\n  tag_43\n    /* \"#utility.yul\":1827:1851   */\n  tag_44\n    /* \"#utility.yul\":1845:1850   */\n  dup5\n    /* \"#utility.yul\":1827:1851   */\n  tag_13\n  jump\t// in\ntag_44:\n    /* \"#utility.yul\":1818:1852   */\n  tag_14\n  jump\t// in\ntag_43:\n    /* \"#utility.yul\":1800:1853   */\n  tag_13\n  jump\t// in\ntag_42:\n    /* \"#utility.yul\":1787:1853   */\n  swap1\n  pop\n    /* \"#utility.yul\":1717:1859   */\n  swap2\n  swap1\n  pop\n  jump\t// out\n    /* \"#utility.yul\":1865:1940   */\ntag_16:\n    /* \"#utility.yul\":1908:1911   */\n  0x00\n    /* \"#utility.yul\":1929:1934   */\n  dup2\n    /* \"#utility.yul\":1922:1934   */\n  swap1\n  pop\n    /* \"#utility.yul\":1865:1940   */\n  swap2\n  swap1\n  pop\n  jump\t// out\n    /* \"#utility.yul\":1946:2215   */\ntag_17:\n    /* \"#utility.yul\":2056:2095   */\n  tag_47\n    /* \"#utility.yul\":2087:2094   */\n  dup4\n    /* \"#utility.yul\":2056:2095   */\n  tag_15\n  jump\t// in\ntag_47:\n    /* \"#utility.yul\":2117:2208   */\n  tag_48\n    /* \"#utility.yul\":2166:2207   */\n  tag_49\n    /* \"#utility.yul\":2190:2206   */\n  dup3\n    /* \"#utility.yul\":2166:2207   */\n  tag_16\n  jump\t// in\ntag_49:\n    /* \"#utility.yul\":2158:2164   */\n  dup5\n    /* \"#utility.yul\":2151:2155   */\n  dup5\n    /* \"#utility.yul\":2145:2156   */\n  sload\n    /* \"#utility.yul\":2117:2208   */\n  tag_12\n  jump\t// in\ntag_48:\n    /* \"#utility.yul\":2111:2115   */\n  dup3\n    /* \"#utility.yul\":2104:2209   */\n  sstore\n    /* \"#utility.yul\":2022:2215   */\n  pop\n    /* \"#utility.yul\":1946:2215   */\n  pop\n  pop\n  pop\n  jump\t// out\n    /* \"#utility.yul\":2221:2294   */\ntag_18:\n    /* \"#utility.yul\":2266:2269   */\n  0x00\n    /* \"#utility.yul\":2221:2294   */\n  swap1\n  jump\t// out\n    /* \"#utility.yul\":2300:2489   */\ntag_19:\n    /* \"#utility.yul\":2377:2409   */\n  tag_52\n  tag_18\n  jump\t// in\ntag_52:\n    /* \"#utility.yul\":2418:2483   */\n  tag_53\n    /* \"#utility.yul\":2476:2482   */\n  dup2\n    /* \"#utility.yul\":2468:2474   */\n  dup5\n    /* \"#utility.yul\":2462:2466   */\n  dup5\n    /* \"#utility.yul\":2418:2483   */\n  tag_17\n  jump\t// in\ntag_53:\n    /* \"#utility.yul\":2353:2489   */\n  pop\n    /* \"#utility.yul\":2300:2489   */\n  pop\n  pop\n  jump\t// out\n    /* \"#utility.yul\":2495:2681   */\ntag_20:\n    /* \"#utility.yul\":2555:2675   */\ntag_55:\n    /* \"#utility.yul\":2572:2575   */\n  dup2\n    /* \"#utility.yul\":2565:2570   */\n  dup2\n    /* \"#utility.yul\":2562:2576   */\n  lt\n    /* \"#utility.yul\":2555:2675   */\n  iszero\n  tag_57\n  jumpi\n    /* \"#utility.yul\":2626:2665   */\n  tag_58\n    /* \"#utility.yul\":2663:2664   */\n  0x00\n    /* \"#utility.yul\":2656:2661   */\n  dup3\n    /* \"#utility.yul\":2626:2665   */\n  tag_19\n  jump\t// in\ntag_58:\n    /* \"#utility.yul\":2599:2600   */\n  0x01\n    /* \"#utility.yul\":2592:2597   */\n  dup2\n    /* \"#utility.yul\":2588:2601   */\n  add\n    /* \"#utility.yul\":2579:2601   */\n  swap1\n  pop\n    /* \"#utility.yul\":2555:2675   */\n  jump(tag_55)\ntag_57:\n    /* \"#utility.yul\":2495:2681   */\n  pop\n  pop\n  jump\t// out\n    /* \"#utility.yul\":2687:3230   */\ntag_21:\n    /* \"#utility.yul\":2788:2790   */\n  0x1f\n    /* \"#utility.yul\":2783:2786   */\n  dup3\n    /* \"#utility.yul\":2780:2791   */\n  gt\n    /* \"#utility.yul\":2777:3223   */\n  iszero\n  tag_60\n  jumpi\n    /* \"#utility.yul\":2822:2860   */\n  tag_61\n    /* \"#utility.yul\":2854:2859   */\n  dup2\n    /* \"#utility.yul\":2822:2860   */\n  tag_9\n  jump\t// in\ntag_61:\n    /* \"#utility.yul\":2906:2935   */\n  tag_62\n    /* \"#utility.yul\":2924:2934   */\n  dup5\n    /* \"#utility.yul\":2906:2935   */\n  tag_10\n  jump\t// in\ntag_62:\n    /* \"#utility.yul\":2896:2904   */\n  dup2\n    /* \"#utility.yul\":2892:2936   */\n  add\n    /* \"#utility.yul\":3089:3091   */\n  0x20\n    /* \"#utility.yul\":3077:3087   */\n  dup6\n    /* \"#utility.yul\":3074:3092   */\n  lt\n    /* \"#utility.yul\":3071:3120   */\n  iszero\n  tag_63\n  jumpi\n    /* \"#utility.yul\":3110:3118   */\n  dup2\n    /* \"#utility.yul\":3095:3118   */\n  swap1\n  pop\n    /* \"#utility.yul\":3071:3120   */\ntag_63:\n    /* \"#utility.yul\":3133:3213   */\n  tag_64\n    /* \"#utility.yul\":3189:3211   */\n  tag_65\n    /* \"#utility.yul\":3207:3210   */\n  dup6\n    /* \"#utility.yul\":3189:3211   */\n  tag_10\n  jump\t// in\ntag_65:\n    /* \"#utility.yul\":3179:3187   */\n  dup4\n    /* \"#utility.yul\":3175:3212   */\n  add\n    /* \"#utility.yul\":3162:3173   */\n  dup3\n    /* \"#utility.yul\":3133:3213   */\n  tag_20\n  jump\t// in\ntag_64:\n    /* \"#utility.yul\":2792:3223   */\n  pop\n  pop\n    /* \"#utility.yul\":2777:3223   */\ntag_60:\n    /* \"#utility.yul\":2687:3230   */\n  pop\n  pop\n  pop\n  jump\t// out\n    /* \"#utility.yul\":3236:3353   */\ntag_22:\n    /* \"#utility.yul\":3290:3298   */\n  0x00\n    /* \"#utility.yul\":3340:3345   */\n  dup3\n    /* \"#utility.yul\":3334:3338   */\n  dup3\n    /* \"#utility.yul\":3330:3346   */\n  shr\n    /* \"#utility.yul\":3309:3346   */\n  swap1\n  pop\n    /* \"#utility.yul\":3236:3353   */\n  swap3\n  swap2\n  pop\n  pop\n  jump\t// out\n    /* \"#utility.yul\":3359:3528   */\ntag_23:\n    /* \"#utility.yul\":3403:3409   */\n  0x00\n    /* \"#utility.yul\":3436:3487   */\n  tag_68\n    /* \"#utility.yul\":3484:3485   */\n  0x00\n    /* \"#utility.yul\":3480:3486   */\n  not\n    /* \"#utility.yul\":3472:3477   */\n  dup5\n    /* \"#utility.yul\":3469:3470   */\n  0x08\n    /* \"#utility.yul\":3465:3478   */\n  mul\n    /* \"#utility.yul\":3436:3487   */\n  tag_22\n  jump\t// in\ntag_68:\n    /* \"#utility.yul\":3432:3488   */\n  not\n    /* \"#utility.yul\":3517:3521   */\n  dup1\n    /* \"#utility.yul\":3511:3515   */\n  dup4\n    /* \"#utility.yul\":3507:3522   */\n  and\n    /* \"#utility.yul\":3497:3522   */\n  swap2\n  pop\n    /* \"#utility.yul\":3410:3528   */\n  pop\n    /* \"#utility.yul\":3359:3528   */\n  swap3\n  swap2\n  pop\n  pop\n  jump\t// out\n    /* \"#utility.yul\":3533:3828   */\ntag_24:\n    /* \"#utility.yul\":3609:3613   */\n  0x00\n    /* \"#utility.yul\":3755:3784   */\n  tag_70\n    /* \"#utility.yul\":3780:3783   */\n  dup4\n    /* \"#utility.yul\":3774:3778   */\n  dup4\n    /* \"#utility.yul\":3755:3784   */\n  tag_23\n  jump\t// in\ntag_70:\n    /* \"#utility.yul\":3747:3784   */\n  swap2\n  pop\n    /* \"#utility.yul\":3817:3820   */\n  dup3\n    /* \"#utility.yul\":3814:3815   */\n  0x02\n    /* \"#utility.yul\":3810:3821   */\n  mul\n    /* \"#utility.yul\":3804:3808   */\n  dup3\n    /* \"#utility.yul\":3801:3822   */\n  or\n    /* \"#utility.yul\":3793:3822   */\n  swap1\n  pop\n    /* \"#utility.yul\":3533:3828   */\n  swap3\n  swap2\n  pop\n  pop\n  jump\t// out\n    /* \"#utility.yul\":3833:5228   */\ntag_2:\n    /* \"#utility.yul\":3950:3987   */\n  tag_72\n    /* \"#utility.yul\":3983:3986   */\n  dup3\n    /* \"#utility.yul\":3950:3987   */\n  tag_5\n  jump\t// in\ntag_72:\n    /* \"#utility.yul\":4052:4070   */\n  0xffffffffffffffff\n    /* \"#utility.yul\":4044:4050   */\n  dup2\n    /* \"#utility.yul\":4041:4071   */\n  gt\n    /* \"#utility.yul\":4038:4094   */\n  iszero\n  tag_73\n  jumpi\n    /* \"#utility.yul\":4074:4092   */\n  tag_74\n  tag_6\n  jump\t// in\ntag_74:\n    /* \"#utility.yul\":4038:4094   */\ntag_73:\n    /* \"#utility.yul\":4118:4156   */\n  tag_75\n    /* \"#utility.yul\":4150:4154   */\n  dup3\n    /* \"#utility.yul\":4144:4155   */\n  sload\n    /* \"#utility.yul\":4118:4156   */\n  tag_8\n  jump\t// in\ntag_75:\n    /* \"#utility.yul\":4203:4270   */\n  tag_76\n    /* \"#utility.yul\":4263:4269   */\n  dup3\n    /* \"#utility.yul\":4255:4261   */\n  dup3\n    /* \"#utility.yul\":4249:4253   */\n  dup6\n    /* \"#utility.yul\":4203:4270   */\n  tag_21\n  jump\t// in\ntag_76:\n    /* \"#utility.yul\":4297:4298   */\n  0x00\n    /* \"#utility.yul\":4321:4325   */\n  0x20\n    /* \"#utility.yul\":4308:4325   */\n  swap1\n  pop\n    /* \"#utility.yul\":4353:4355   */\n  0x1f\n    /* \"#utility.yul\":4345:4351   */\n  dup4\n    /* \"#utility.yul\":4342:4356   */\n  gt\n    /* \"#utility.yul\":4370:4371   */\n  0x01\n    /* \"#utility.yul\":4365:4983   */\n  dup2\n  eq\n  tag_78\n  jumpi\n    /* \"#utility.yul\":5027:5028   */\n  0x00\n    /* \"#utility.yul\":5044:5050   */\n  dup5\n    /* \"#utility.yul\":5041:5118   */\n  iszero\n  tag_79\n  jumpi\n    /* \"#utility.yul\":5093:5102   */\n  dup3\n    /* \"#utility.yul\":5088:5091   */\n  dup8\n    /* \"#utility.yul\":5084:5103   */\n  add\n    /* \"#utility.yul\":5078:5104   */\n  mload\n    /* \"#utility.yul\":5069:5104   */\n  swap1\n  pop\n    /* \"#utility.yul\":5041:5118   */\ntag_79:\n    /* \"#utility.yul\":5144:5211   */\n  tag_80\n    /* \"#utility.yul\":5204:5210   */\n  dup6\n    /* \"#utility.yul\":5197:5202   */\n  dup3\n    /* \"#utility.yul\":5144:5211   */\n  tag_24\n  jump\t// in\ntag_80:\n    /* \"#utility.yul\":5138:5142   */\n  dup7\n    /* \"#utility.yul\":5131:5212   */\n  sstore\n    /* \"#utility.yul\":5000:5222   */\n  pop\n    /* \"#utility.yul\":4335:5222   */\n  jump(tag_77)\n    /* \"#utility.yul\":4365:4983   */\ntag_78:\n    /* \"#utility.yul\":4417:4421   */\n  0x1f\n    /* \"#utility.yul\":4413:4422   */\n  not\n    /* \"#utility.yul\":4405:4411   */\n  dup5\n    /* \"#utility.yul\":4401:4423   */\n  and\n    /* \"#utility.yul\":4451:4488   */\n  tag_81\n    /* \"#utility.yul\":4483:4487   */\n  dup7\n    /* \"#utility.yul\":4451:4488   */\n  tag_9\n  jump\t// in\ntag_81:\n    /* \"#utility.yul\":4510:4511   */\n  0x00\n    /* \"#utility.yul\":4524:4732   */\ntag_82:\n    /* \"#utility.yul\":4538:4545   */\n  dup3\n    /* \"#utility.yul\":4535:4536   */\n  dup2\n    /* \"#utility.yul\":4532:4546   */\n  lt\n    /* \"#utility.yul\":4524:4732   */\n  iszero\n  tag_84\n  jumpi\n    /* \"#utility.yul\":4617:4626   */\n  dup5\n    /* \"#utility.yul\":4612:4615   */\n  dup10\n    /* \"#utility.yul\":4608:4627   */\n  add\n    /* \"#utility.yul\":4602:4628   */\n  mload\n    /* \"#utility.yul\":4594:4600   */\n  dup3\n    /* \"#utility.yul\":4587:4629   */\n  sstore\n    /* \"#utility.yul\":4668:4669   */\n  0x01\n    /* \"#utility.yul\":4660:4666   */\n  dup3\n    /* \"#utility.yul\":4656:4670   */\n  add\n    /* \"#utility.yul\":4646:4670   */\n  swap2\n  pop\n    /* \"#utility.yul\":4715:4717   */\n  0x20\n    /* \"#utility.yul\":4704:4713   */\n  dup6\n    /* \"#utility.yul\":4700:4718   */\n  add\n    /* \"#utility.yul\":4687:4718   */\n  swap5\n  pop\n    /* \"#utility.yul\":4561:4565   */\n  0x20\n    /* \"#utility.yul\":4558:4559   */\n  dup2\n    /* \"#utility.yul\":4554:4566   */\n  add\n    /* \"#utility.yul\":4549:4566   */\n  swap1\n  pop\n    /* \"#utility.yul\":4524:4732   */\n  jump(tag_82)\ntag_84:\n    /* \"#utility.yul\":4760:4766   */\n  dup7\n    /* \"#utility.yul\":4751:4758   */\n  dup4\n    /* \"#utility.yul\":4748:4767   */\n  lt\n    /* \"#utility.yul\":4745:4924   */\n  iszero\n  tag_85\n  jumpi\n    /* \"#utility.yul\":4818:4827   */\n  dup5\n    /* \"#utility.yul\":4813:4816   */\n  dup10\n    /* \"#utility.yul\":4809:4828   */\n  add\n    /* \"#utility.yul\":4803:4829   */\n  mload\n    /* \"#utility.yul\":4861:4909   */\n  tag_86\n    /* \"#utility.yul\":4903:4907   */\n  0x1f\n    /* \"#utility.yul\":4895:4901   */\n  dup10\n    /* \"#utility.yul\":4891:4908   */\n  and\n    /* \"#utility.yul\":4880:4889   */\n  dup3\n    /* \"#utility.yul\":4861:4909   */\n  tag_23\n  jump\t// in\ntag_86:\n    /* \"#utility.yul\":4853:4859   */\n  dup4\n    /* \"#utility.yul\":4846:4910   */\n  sstore\n    /* \"#utility.yul\":4768:4924   */\n  pop\n    /* \"#utility.yul\":4745:4924   */\ntag_85:\n    /* \"#utility.yul\":4970:4971   */\n  0x01\n    /* \"#utility.yul\":4966:4967   */\n  0x02\n    /* \"#utility.yul\":4958:4964   */\n  dup9\n    /* \"#utility.yul\":4954:4968   */\n  mul\n    /* \"#utility.yul\":4950:4972   */\n  add\n    /* \"#utility.yul\":4944:4948   */\n  dup9\n    /* \"#utility.yul\":4937:4973   */\n  sstore\n    /* \"#utility.yul\":4372:4983   */\n  pop\n  pop\n  pop\n    /* \"#utility.yul\":4335:5222   */\ntag_77:\n  pop\n    /* \"#utility.yul\":3925:5228   */\n  pop\n  pop\n  pop\n    /* \"#utility.yul\":3833:5228   */\n  pop\n  pop\n  jump\t// out\n    /* \"smartContract_eliseu.sol\":58:5762  contract SmartPayConstruction {... */\ntag_4:\n  dataSize(sub_0)\n  dup1\n  dataOffset(sub_0)\n  0x00\n  codecopy\n  0x00\n  return\nstop\n\nsub_0: assembly {\n        /* \"smartContract_eliseu.sol\":58:5762  contract SmartPayConstruction {... */\n      mstore(0x40, 0x80)\n      callvalue\n      dup1\n      iszero\n      tag_1\n      jumpi\n      0x00\n      dup1\n      revert\n    tag_1:\n      pop\n      jumpi(tag_2, lt(calldatasize, 0x04))\n      shr(0xe0, calldataload(0x00))\n      dup1\n      0x93dc12e6\n      gt\n      tag_15\n      jumpi\n      dup1\n      0x93dc12e6\n      eq\n      tag_9\n      jumpi\n      dup1\n      0x99e76d35\n      eq\n      tag_10\n      jumpi\n      dup1\n      0xa7ee42de\n      eq\n      tag_11\n      jumpi\n      dup1\n      0xcce9889e\n      eq\n      tag_12\n      jumpi\n      dup1\n      0xe4a8f18b\n      eq\n      tag_13\n      jumpi\n      dup1\n      0xf5c4b73e\n      eq\n      tag_14\n      jumpi\n      jump(tag_2)\n    tag_15:\n      dup1\n      0x089cd025\n      eq\n      tag_3\n      jumpi\n      dup1\n      0x107046bd\n      eq\n      tag_4\n      jumpi\n      dup1\n      0x48c35ad4\n      eq\n      tag_5\n      jumpi\n      dup1\n      0x4ac64766\n      eq\n      tag_6\n      jumpi\n      dup1\n      0x5f8439e3\n      eq\n      tag_7\n      jumpi\n      dup1\n      0x8abb10c6\n      eq\n      tag_8\n      jumpi\n    tag_2:\n      0x00\n      dup1\n      revert\n        /* \"smartContract_eliseu.sol\":3851:4182  function processPendingPayments(uint256 projectId, uint256 stageId) external onlyClient(projectId) {... */\n    tag_3:\n      tag_16\n      0x04\n      dup1\n      calldatasize\n      sub\n      dup2\n      add\n      swap1\n      tag_17\n      swap2\n      swap1\n      tag_18\n      jump\t// in\n    tag_17:\n      tag_19\n      jump\t// in\n    tag_16:\n      stop\n        /* \"smartContract_eliseu.sol\":1018:1061  mapping(uint256 => Project) public projects */\n    tag_4:\n      tag_20\n      0x04\n      dup1\n      calldatasize\n      sub\n      dup2\n      add\n      swap1\n      tag_21\n      swap2\n      swap1\n      tag_22\n      jump\t// in\n    tag_21:\n      tag_23\n      jump\t// in\n    tag_20:\n      mload(0x40)\n      tag_24\n      swap11\n      swap10\n      swap9\n      swap8\n      swap7\n      swap6\n      swap5\n      swap4\n      swap3\n      swap2\n      swap1\n      tag_25\n      jump\t// in\n    tag_24:\n      mload(0x40)\n      dup1\n      swap2\n      sub\n      swap1\n      return\n        /* \"smartContract_eliseu.sol\":1067:1094  uint256[] public projectIds */\n    tag_5:\n      tag_26\n      0x04\n      dup1\n      calldatasize\n      sub\n      dup2\n      add\n      swap1\n      tag_27\n      swap2\n      swap1\n      tag_22\n      jump\t// in\n    tag_27:\n      tag_28\n      jump\t// in\n    tag_26:\n      mload(0x40)\n      tag_29\n      swap2\n      swap1\n      tag_30\n      jump\t// in\n    tag_29:\n      mload(0x40)\n      dup1\n      swap2\n      sub\n      swap1\n      return\n        /* \"smartContract_eliseu.sol\":5556:5659  function getAllProjectIds() external view returns (uint256[] memory) {... */\n    tag_6:\n      tag_31\n      tag_32\n      jump\t// in\n    tag_31:\n      mload(0x40)\n      tag_33\n      swap2\n      swap1\n      tag_34\n      jump\t// in\n    tag_33:\n      mload(0x40)\n      dup1\n      swap2\n      sub\n      swap1\n      return\n        /* \"smartContract_eliseu.sol\":4355:4740  function getProjectDetails(uint256 projectId)... */\n    tag_7:\n      tag_35\n      0x04\n      dup1\n      calldatasize\n      sub\n      dup2\n      add\n      swap1\n      tag_36\n      swap2\n      swap1\n      tag_22\n      jump\t// in\n    tag_36:\n      tag_37\n      jump\t// in\n    tag_35:\n      mload(0x40)\n      tag_38\n      swap9\n      swap8\n      swap7\n      swap6\n      swap5\n      swap4\n      swap3\n      swap2\n      swap1\n      tag_39\n      jump\t// in\n    tag_38:\n      mload(0x40)\n      dup1\n      swap2\n      sub\n      swap1\n      return\n        /* \"smartContract_eliseu.sol\":4746:5550  function getProjectWithStages(uint256 projectId)... */\n    tag_8:\n      tag_40\n      0x04\n      dup1\n      calldatasize\n      sub\n      dup2\n      add\n      swap1\n      tag_41\n      swap2\n      swap1\n      tag_22\n      jump\t// in\n    tag_41:\n      tag_42\n      jump\t// in\n    tag_40:\n      mload(0x40)\n      tag_43\n      swap11\n      swap10\n      swap9\n      swap8\n      swap7\n      swap6\n      swap5\n      swap4\n      swap3\n      swap2\n      swap1\n      tag_44\n      jump\t// in\n    tag_43:\n      mload(0x40)\n      dup1\n      swap2\n      sub\n      swap1\n      return\n        /* \"smartContract_eliseu.sol\":4188:4349  function closeProject(uint256 projectId) external onlyClient(projectId) {... */\n    tag_9:\n      tag_45\n      0x04\n      dup1\n      calldatasize\n      sub\n      dup2\n      add\n      swap1\n      tag_46\n      swap2\n      swap1\n      tag_22\n      jump\t// in\n    tag_46:\n      tag_47\n      jump\t// in\n    tag_45:\n      stop\n        /* \"smartContract_eliseu.sol\":94:127  string public agencyId = \"agency\" */\n    tag_10:\n      tag_48\n      tag_49\n      jump\t// in\n    tag_48:\n      mload(0x40)\n      tag_50\n      swap2\n      swap1\n      tag_51\n      jump\t// in\n    tag_50:\n      mload(0x40)\n      dup1\n      swap2\n      sub\n      swap1\n      return\n        /* \"smartContract_eliseu.sol\":2200:3152  function createProject(... */\n    tag_11:\n      tag_52\n      0x04\n      dup1\n      calldatasize\n      sub\n      dup2\n      add\n      swap1\n      tag_53\n      swap2\n      swap1\n      tag_54\n      jump\t// in\n    tag_53:\n      tag_55\n      jump\t// in\n    tag_52:\n      stop\n        /* \"smartContract_eliseu.sol\":3158:3606  function addStage(uint256 projectId, string memory _description, uint256 _value, string[] memory _validators_ids) external onlyClient(projectId) {... */\n    tag_12:\n      tag_56\n      0x04\n      dup1\n      calldatasize\n      sub\n      dup2\n      add\n      swap1\n      tag_57\n      swap2\n      swap1\n      tag_58\n      jump\t// in\n    tag_57:\n      tag_59\n      jump\t// in\n    tag_56:\n      stop\n        /* \"smartContract_eliseu.sol\":5665:5760  function getProjectsCount() external view returns (uint256) {... */\n    tag_13:\n      tag_60\n      tag_61\n      jump\t// in\n    tag_60:\n      mload(0x40)\n      tag_62\n      swap2\n      swap1\n      tag_30\n      jump\t// in\n    tag_62:\n      mload(0x40)\n      dup1\n      swap2\n      sub\n      swap1\n      return\n        /* \"smartContract_eliseu.sol\":3612:3845  function validateStage(uint256 projectId, uint256 stageId, string memory validatorID)... */\n    tag_14:\n      tag_63\n      0x04\n      dup1\n      calldatasize\n      sub\n      dup2\n      add\n      swap1\n      tag_64\n      swap2\n      swap1\n      tag_65\n      jump\t// in\n    tag_64:\n      tag_66\n      jump\t// in\n    tag_63:\n      stop\n        /* \"smartContract_eliseu.sol\":3851:4182  function processPendingPayments(uint256 projectId, uint256 stageId) external onlyClient(projectId) {... */\n    tag_19:\n        /* \"smartContract_eliseu.sol\":3939:3948  projectId */\n      dup2\n        /* \"smartContract_eliseu.sol\":1603:1611  agencyId */\n      0x00\n        /* \"smartContract_eliseu.sol\":1587:1613  keccak256(bytes(agencyId)) */\n      mload(0x40)\n      tag_68\n      swap2\n      swap1\n      tag_69\n      jump\t// in\n    tag_68:\n      mload(0x40)\n      dup1\n      swap2\n      sub\n      swap1\n      keccak256\n        /* \"smartContract_eliseu.sol\":1552:1560  projects */\n      0x02\n        /* \"smartContract_eliseu.sol\":1552:1571  projects[projectId] */\n      0x00\n        /* \"smartContract_eliseu.sol\":1561:1570  projectId */\n      dup4\n        /* \"smartContract_eliseu.sol\":1552:1571  projects[projectId] */\n      dup2\n      mstore\n      0x20\n      add\n      swap1\n      dup2\n      mstore\n      0x20\n      add\n      0x00\n      keccak256\n        /* \"smartContract_eliseu.sol\":1552:1581  projects[projectId].client_id */\n      0x03\n      add\n        /* \"smartContract_eliseu.sol\":1536:1583  keccak256(bytes(projects[projectId].client_id)) */\n      mload(0x40)\n      tag_70\n      swap2\n      swap1\n      tag_69\n      jump\t// in\n    tag_70:\n      mload(0x40)\n      dup1\n      swap2\n      sub\n      swap1\n      keccak256\n        /* \"smartContract_eliseu.sol\":1536:1613  keccak256(bytes(projects[projectId].client_id)) == keccak256(bytes(agencyId)) */\n      eq\n        /* \"smartContract_eliseu.sol\":1528:1657  require(keccak256(bytes(projects[projectId].client_id)) == keccak256(bytes(agencyId)), \"Only the client can perform this action\") */\n      tag_71\n      jumpi\n      mload(0x40)\n      0x08c379a000000000000000000000000000000000000000000000000000000000\n      dup2\n      mstore\n      0x04\n      add\n      tag_72\n      swap1\n      tag_73\n      jump\t// in\n    tag_72:\n      mload(0x40)\n      dup1\n      swap2\n      sub\n      swap1\n      revert\n    tag_71:\n        /* \"smartContract_eliseu.sol\":3960:3979  Stage storage stage */\n      0x00\n        /* \"smartContract_eliseu.sol\":3982:3990  projects */\n      0x02\n        /* \"smartContract_eliseu.sol\":3982:4001  projects[projectId] */\n      0x00\n        /* \"smartContract_eliseu.sol\":3991:4000  projectId */\n      dup6\n        /* \"smartContract_eliseu.sol\":3982:4001  projects[projectId] */\n      dup2\n      mstore\n      0x20\n      add\n      swap1\n      dup2\n      mstore\n      0x20\n      add\n      0x00\n      keccak256\n        /* \"smartContract_eliseu.sol\":3982:4008  projects[projectId].stages */\n      0x0a\n      add\n        /* \"smartContract_eliseu.sol\":4009:4016  stageId */\n      dup4\n        /* \"smartContract_eliseu.sol\":3982:4017  projects[projectId].stages[stageId] */\n      dup2\n      sload\n      dup2\n      lt\n      tag_75\n      jumpi\n      tag_76\n      tag_77\n      jump\t// in\n    tag_76:\n    tag_75:\n      swap1\n      0x00\n      mstore\n      keccak256(0x00, 0x20)\n      swap1\n      0x07\n      mul\n      add\n        /* \"smartContract_eliseu.sol\":3960:4017  Stage storage stage = projects[projectId].stages[stageId] */\n      swap1\n      pop\n        /* \"smartContract_eliseu.sol\":4035:4040  stage */\n      dup1\n        /* \"smartContract_eliseu.sol\":4035:4050  stage.completed */\n      0x06\n      add\n      0x00\n      swap1\n      sload\n      swap1\n      0x0100\n      exp\n      swap1\n      div\n      0xff\n      and\n        /* \"smartContract_eliseu.sol\":4027:4077  require(stage.completed, \"Stage is not completed\") */\n      tag_79\n      jumpi\n      mload(0x40)\n      0x08c379a000000000000000000000000000000000000000000000000000000000\n      dup2\n      mstore\n      0x04\n      add\n      tag_80\n      swap1\n      tag_81\n      jump\t// in\n    tag_80:\n      mload(0x40)\n      dup1\n      swap2\n      sub\n      swap1\n      revert\n    tag_79:\n        /* \"smartContract_eliseu.sol\":4088:4102  uint256 amount */\n      0x00\n        /* \"smartContract_eliseu.sol\":4105:4110  stage */\n      dup2\n        /* \"smartContract_eliseu.sol\":4105:4116  stage.value */\n      0x03\n      add\n      sload\n        /* \"smartContract_eliseu.sol\":4088:4116  uint256 amount = stage.value */\n      swap1\n      pop\n        /* \"smartContract_eliseu.sol\":4131:4175  PaymentProcessed(projectId, stageId, amount) */\n      0x5253c07c8bd01b0d3b85252a002abbf708a1aafb43b87c6578285c7d54f8373f\n        /* \"smartContract_eliseu.sol\":4148:4157  projectId */\n      dup6\n        /* \"smartContract_eliseu.sol\":4159:4166  stageId */\n      dup6\n        /* \"smartContract_eliseu.sol\":4168:4174  amount */\n      dup4\n        /* \"smartContract_eliseu.sol\":4131:4175  PaymentProcessed(projectId, stageId, amount) */\n      mload(0x40)\n      tag_82\n      swap4\n      swap3\n      swap2\n      swap1\n      tag_83\n      jump\t// in\n    tag_82:\n      mload(0x40)\n      dup1\n      swap2\n      sub\n      swap1\n      log1\n        /* \"smartContract_eliseu.sol\":3950:4182  {... */\n      pop\n      pop\n        /* \"smartContract_eliseu.sol\":3851:4182  function processPendingPayments(uint256 projectId, uint256 stageId) external onlyClient(projectId) {... */\n      pop\n      pop\n      pop\n      jump\t// out\n        /* \"smartContract_eliseu.sol\":1018:1061  mapping(uint256 => Project) public projects */\n    tag_23:\n      mstore(0x20, 0x02)\n      dup1\n      0x00\n      mstore\n      keccak256(0x00, 0x40)\n      0x00\n      swap2\n      pop\n      swap1\n      pop\n      dup1\n      0x00\n      add\n      dup1\n      sload\n      tag_84\n      swap1\n      tag_85\n      jump\t// in\n    tag_84:\n      dup1\n      0x1f\n      add\n      0x20\n      dup1\n      swap2\n      div\n      mul\n      0x20\n      add\n      mload(0x40)\n      swap1\n      dup2\n      add\n      0x40\n      mstore\n      dup1\n      swap3\n      swap2\n      swap1\n      dup2\n      dup2\n      mstore\n      0x20\n      add\n      dup3\n      dup1\n      sload\n      tag_86\n      swap1\n      tag_85\n      jump\t// in\n    tag_86:\n      dup1\n      iszero\n      tag_87\n      jumpi\n      dup1\n      0x1f\n      lt\n      tag_88\n      jumpi\n      0x0100\n      dup1\n      dup4\n      sload\n      div\n      mul\n      dup4\n      mstore\n      swap2\n      0x20\n      add\n      swap2\n      jump(tag_87)\n    tag_88:\n      dup3\n      add\n      swap2\n      swap1\n      0x00\n      mstore\n      keccak256(0x00, 0x20)\n      swap1\n    tag_89:\n      dup2\n      sload\n      dup2\n      mstore\n      swap1\n      0x01\n      add\n      swap1\n      0x20\n      add\n      dup1\n      dup4\n      gt\n      tag_89\n      jumpi\n      dup3\n      swap1\n      sub\n      0x1f\n      and\n      dup3\n      add\n      swap2\n    tag_87:\n      pop\n      pop\n      pop\n      pop\n      pop\n      swap1\n      dup1\n      0x01\n      add\n      dup1\n      sload\n      tag_90\n      swap1\n      tag_85\n      jump\t// in\n    tag_90:\n      dup1\n      0x1f\n      add\n      0x20\n      dup1\n      swap2\n      div\n      mul\n      0x20\n      add\n      mload(0x40)\n      swap1\n      dup2\n      add\n      0x40\n      mstore\n      dup1\n      swap3\n      swap2\n      swap1\n      dup2\n      dup2\n      mstore\n      0x20\n      add\n      dup3\n      dup1\n      sload\n      tag_91\n      swap1\n      tag_85\n      jump\t// in\n    tag_91:\n      dup1\n      iszero\n      tag_92\n      jumpi\n      dup1\n      0x1f\n      lt\n      tag_93\n      jumpi\n      0x0100\n      dup1\n      dup4\n      sload\n      div\n      mul\n      dup4\n      mstore\n      swap2\n      0x20\n      add\n      swap2\n      jump(tag_92)\n    tag_93:\n      dup3\n      add\n      swap2\n      swap1\n      0x00\n      mstore\n      keccak256(0x00, 0x20)\n      swap1\n    tag_94:\n      dup2\n      sload\n      dup2\n      mstore\n      swap1\n      0x01\n      add\n      swap1\n      0x20\n      add\n      dup1\n      dup4\n      gt\n      tag_94\n      jumpi\n      dup3\n      swap1\n      sub\n      0x1f\n      and\n      dup3\n      add\n      swap2\n    tag_92:\n      pop\n      pop\n      pop\n      pop\n      pop\n      swap1\n      dup1\n      0x02\n      add\n      dup1\n      sload\n      tag_95\n      swap1\n      tag_85\n      jump\t// in\n    tag_95:\n      dup1\n      0x1f\n      add\n      0x20\n      dup1\n      swap2\n      div\n      mul\n      0x20\n      add\n      mload(0x40)\n      swap1\n      dup2\n      add\n      0x40\n      mstore\n      dup1\n      swap3\n      swap2\n      swap1\n      dup2\n      dup2\n      mstore\n      0x20\n      add\n      dup3\n      dup1\n      sload\n      tag_96\n      swap1\n      tag_85\n      jump\t// in\n    tag_96:\n      dup1\n      iszero\n      tag_97\n      jumpi\n      dup1\n      0x1f\n      lt\n      tag_98\n      jumpi\n      0x0100\n      dup1\n      dup4\n      sload\n      div\n      mul\n      dup4\n      mstore\n      swap2\n      0x20\n      add\n      swap2\n      jump(tag_97)\n    tag_98:\n      dup3\n      add\n      swap2\n      swap1\n      0x00\n      mstore\n      keccak256(0x00, 0x20)\n      swap1\n    tag_99:\n      dup2\n      sload\n      dup2\n      mstore\n      swap1\n      0x01\n      add\n      swap1\n      0x20\n      add\n      dup1\n      dup4\n      gt\n      tag_99\n      jumpi\n      dup3\n      swap1\n      sub\n      0x1f\n      and\n      dup3\n      add\n      swap2\n    tag_97:\n      pop\n      pop\n      pop\n      pop\n      pop\n      swap1\n      dup1\n      0x03\n      add\n      dup1\n      sload\n      tag_100\n      swap1\n      tag_85\n      jump\t// in\n    tag_100:\n      dup1\n      0x1f\n      add\n      0x20\n      dup1\n      swap2\n      div\n      mul\n      0x20\n      add\n      mload(0x40)\n      swap1\n      dup2\n      add\n      0x40\n      mstore\n      dup1\n      swap3\n      swap2\n      swap1\n      dup2\n      dup2\n      mstore\n      0x20\n      add\n      dup3\n      dup1\n      sload\n      tag_101\n      swap1\n      tag_85\n      jump\t// in\n    tag_101:\n      dup1\n      iszero\n      tag_102\n      jumpi\n      dup1\n      0x1f\n      lt\n      tag_103\n      jumpi\n      0x0100\n      dup1\n      dup4\n      sload\n      div\n      mul\n      dup4\n      mstore\n      swap2\n      0x20\n      add\n      swap2\n      jump(tag_102)\n    tag_103:\n      dup3\n      add\n      swap2\n      swap1\n      0x00\n      mstore\n      keccak256(0x00, 0x20)\n      swap1\n    tag_104:\n      dup2\n      sload\n      dup2\n      mstore\n      swap1\n      0x01\n      add\n      swap1\n      0x20\n      add\n      dup1\n      dup4\n      gt\n      tag_104\n      jumpi\n      dup3\n      swap1\n      sub\n      0x1f\n      and\n      dup3\n      add\n      swap2\n    tag_102:\n      pop\n      pop\n      pop\n      pop\n      pop\n      swap1\n      dup1\n      0x04\n      add\n      dup1\n      sload\n      tag_105\n      swap1\n      tag_85\n      jump\t// in\n    tag_105:\n      dup1\n      0x1f\n      add\n      0x20\n      dup1\n      swap2\n      div\n      mul\n      0x20\n      add\n      mload(0x40)\n      swap1\n      dup2\n      add\n      0x40\n      mstore\n      dup1\n      swap3\n      swap2\n      swap1\n      dup2\n      dup2\n      mstore\n      0x20\n      add\n      dup3\n      dup1\n      sload\n      tag_106\n      swap1\n      tag_85\n      jump\t// in\n    tag_106:\n      dup1\n      iszero\n      tag_107\n      jumpi\n      dup1\n      0x1f\n      lt\n      tag_108\n      jumpi\n      0x0100\n      dup1\n      dup4\n      sload\n      div\n      mul\n      dup4\n      mstore\n      swap2\n      0x20\n      add\n      swap2\n      jump(tag_107)\n    tag_108:\n      dup3\n      add\n      swap2\n      swap1\n      0x00\n      mstore\n      keccak256(0x00, 0x20)\n      swap1\n    tag_109:\n      dup2\n      sload\n      dup2\n      mstore\n      swap1\n      0x01\n      add\n      swap1\n      0x20\n      add\n      dup1\n      dup4\n      gt\n      tag_109\n      jumpi\n      dup3\n      swap1\n      sub\n      0x1f\n      and\n      dup3\n      add\n      swap2\n    tag_107:\n      pop\n      pop\n      pop\n      pop\n      pop\n      swap1\n      dup1\n      0x05\n      add\n      sload\n      swap1\n      dup1\n      0x06\n      add\n      sload\n      swap1\n      dup1\n      0x07\n      add\n      sload\n      swap1\n      dup1\n      0x08\n      add\n      sload\n      swap1\n      dup1\n      0x09\n      add\n      0x00\n      swap1\n      sload\n      swap1\n      0x0100\n      exp\n      swap1\n      div\n      0xff\n      and\n      swap1\n      pop\n      dup11\n      jump\t// out\n        /* \"smartContract_eliseu.sol\":1067:1094  uint256[] public projectIds */\n    tag_28:\n      0x03\n      dup2\n      dup2\n      sload\n      dup2\n      lt\n      tag_110\n      jumpi\n      0x00\n      dup1\n      revert\n    tag_110:\n      swap1\n      0x00\n      mstore\n      keccak256(0x00, 0x20)\n      add\n      0x00\n      swap2\n      pop\n      swap1\n      pop\n      sload\n      dup2\n      jump\t// out\n        /* \"smartContract_eliseu.sol\":5556:5659  function getAllProjectIds() external view returns (uint256[] memory) {... */\n    tag_32:\n        /* \"smartContract_eliseu.sol\":5607:5623  uint256[] memory */\n      0x60\n        /* \"smartContract_eliseu.sol\":5642:5652  projectIds */\n      0x03\n        /* \"smartContract_eliseu.sol\":5635:5652  return projectIds */\n      dup1\n      sload\n      dup1\n      0x20\n      mul\n      0x20\n      add\n      mload(0x40)\n      swap1\n      dup2\n      add\n      0x40\n      mstore\n      dup1\n      swap3\n      swap2\n      swap1\n      dup2\n      dup2\n      mstore\n      0x20\n      add\n      dup3\n      dup1\n      sload\n      dup1\n      iszero\n      tag_113\n      jumpi\n      0x20\n      mul\n      dup3\n      add\n      swap2\n      swap1\n      0x00\n      mstore\n      keccak256(0x00, 0x20)\n      swap1\n    tag_114:\n      dup2\n      sload\n      dup2\n      mstore\n      0x20\n      add\n      swap1\n      0x01\n      add\n      swap1\n      dup1\n      dup4\n      gt\n      tag_114\n      jumpi\n    tag_113:\n      pop\n      pop\n      pop\n      pop\n      pop\n      swap1\n      pop\n        /* \"smartContract_eliseu.sol\":5556:5659  function getAllProjectIds() external view returns (uint256[] memory) {... */\n      swap1\n      jump\t// out\n        /* \"smartContract_eliseu.sol\":4355:4740  function getProjectDetails(uint256 projectId)... */\n    tag_37:\n        /* \"smartContract_eliseu.sol\":4461:4474  string memory */\n      0x60\n        /* \"smartContract_eliseu.sol\":4476:4489  string memory */\n      dup1\n        /* \"smartContract_eliseu.sol\":4491:4504  string memory */\n      0x60\n        /* \"smartContract_eliseu.sol\":4506:4519  string memory */\n      dup1\n        /* \"smartContract_eliseu.sol\":4521:4528  uint256 */\n      0x00\n        /* \"smartContract_eliseu.sol\":4530:4537  uint256 */\n      dup1\n        /* \"smartContract_eliseu.sol\":4539:4546  uint256 */\n      0x00\n        /* \"smartContract_eliseu.sol\":4548:4552  bool */\n      dup1\n        /* \"smartContract_eliseu.sol\":4577:4594  Project storage p */\n      0x00\n        /* \"smartContract_eliseu.sol\":4597:4605  projects */\n      0x02\n        /* \"smartContract_eliseu.sol\":4597:4616  projects[projectId] */\n      0x00\n        /* \"smartContract_eliseu.sol\":4606:4615  projectId */\n      dup12\n        /* \"smartContract_eliseu.sol\":4597:4616  projects[projectId] */\n      dup2\n      mstore\n      0x20\n      add\n      swap1\n      dup2\n      mstore\n      0x20\n      add\n      0x00\n      keccak256\n        /* \"smartContract_eliseu.sol\":4577:4616  Project storage p = projects[projectId] */\n      swap1\n      pop\n        /* \"smartContract_eliseu.sol\":4634:4635  p */\n      dup1\n        /* \"smartContract_eliseu.sol\":4634:4640  p.name */\n      0x01\n      add\n        /* \"smartContract_eliseu.sol\":4642:4643  p */\n      dup2\n        /* \"smartContract_eliseu.sol\":4642:4655  p.description */\n      0x02\n      add\n        /* \"smartContract_eliseu.sol\":4657:4658  p */\n      dup3\n        /* \"smartContract_eliseu.sol\":4657:4668  p.client_id */\n      0x03\n      add\n        /* \"smartContract_eliseu.sol\":4670:4671  p */\n      dup4\n        /* \"smartContract_eliseu.sol\":4670:4682  p.contractor */\n      0x04\n      add\n        /* \"smartContract_eliseu.sol\":4684:4685  p */\n      dup5\n        /* \"smartContract_eliseu.sol\":4684:4698  p.creationDate */\n      0x05\n      add\n      sload\n        /* \"smartContract_eliseu.sol\":4700:4701  p */\n      dup6\n        /* \"smartContract_eliseu.sol\":4700:4711  p.startDate */\n      0x06\n      add\n      sload\n        /* \"smartContract_eliseu.sol\":4713:4714  p */\n      dup7\n        /* \"smartContract_eliseu.sol\":4713:4722  p.endDate */\n      0x07\n      add\n      sload\n        /* \"smartContract_eliseu.sol\":4724:4725  p */\n      dup8\n        /* \"smartContract_eliseu.sol\":4724:4732  p.closed */\n      0x09\n      add\n      0x00\n      swap1\n      sload\n      swap1\n      0x0100\n      exp\n      swap1\n      div\n      0xff\n      and\n        /* \"smartContract_eliseu.sol\":4626:4733  return (p.name, p.description, p.client_id, p.contractor, p.creationDate, p.startDate, p.endDate, p.closed) */\n      dup8\n      dup1\n      sload\n      tag_116\n      swap1\n      tag_85\n      jump\t// in\n    tag_116:\n      dup1\n      0x1f\n      add\n      0x20\n      dup1\n      swap2\n      div\n      mul\n      0x20\n      add\n      mload(0x40)\n      swap1\n      dup2\n      add\n      0x40\n      mstore\n      dup1\n      swap3\n      swap2\n      swap1\n      dup2\n      dup2\n      mstore\n      0x20\n      add\n      dup3\n      dup1\n      sload\n      tag_117\n      swap1\n      tag_85\n      jump\t// in\n    tag_117:\n      dup1\n      iszero\n      tag_118\n      jumpi\n      dup1\n      0x1f\n      lt\n      tag_119\n      jumpi\n      0x0100\n      dup1\n      dup4\n      sload\n      div\n      mul\n      dup4\n      mstore\n      swap2\n      0x20\n      add\n      swap2\n      jump(tag_118)\n    tag_119:\n      dup3\n      add\n      swap2\n      swap1\n      0x00\n      mstore\n      keccak256(0x00, 0x20)\n      swap1\n    tag_120:\n      dup2\n      sload\n      dup2\n      mstore\n      swap1\n      0x01\n      add\n      swap1\n      0x20\n      add\n      dup1\n      dup4\n      gt\n      tag_120\n      jumpi\n      dup3\n      swap1\n      sub\n      0x1f\n      and\n      dup3\n      add\n      swap2\n    tag_118:\n      pop\n      pop\n      pop\n      pop\n      pop\n      swap8\n      pop\n      dup7\n      dup1\n      sload\n      tag_121\n      swap1\n      tag_85\n      jump\t// in\n    tag_121:\n      dup1\n      0x1f\n      add\n      0x20\n      dup1\n      swap2\n      div\n      mul\n      0x20\n      add\n      mload(0x40)\n      swap1\n      dup2\n      add\n      0x40\n      mstore\n      dup1\n      swap3\n      swap2\n      swap1\n      dup2\n      dup2\n      mstore\n      0x20\n      add\n      dup3\n      dup1\n      sload\n      tag_122\n      swap1\n      tag_85\n      jump\t// in\n    tag_122:\n      dup1\n      iszero\n      tag_123\n      jumpi\n      dup1\n      0x1f\n      lt\n      tag_124\n      jumpi\n      0x0100\n      dup1\n      dup4\n      sload\n      div\n      mul\n      dup4\n      mstore\n      swap2\n      0x20\n      add\n      swap2\n      jump(tag_123)\n    tag_124:\n      dup3\n      add\n      swap2\n      swap1\n      0x00\n      mstore\n      keccak256(0x00, 0x20)\n      swap1\n    tag_125:\n      dup2\n      sload\n      dup2\n      mstore\n      swap1\n      0x01\n      add\n      swap1\n      0x20\n      add\n      dup1\n      dup4\n      gt\n      tag_125\n      jumpi\n      dup3\n      swap1\n      sub\n      0x1f\n      and\n      dup3\n      add\n      swap2\n    tag_123:\n      pop\n      pop\n      pop\n      pop\n      pop\n      swap7\n      pop\n      dup6\n      dup1\n      sload\n      tag_126\n      swap1\n      tag_85\n      jump\t// in\n    tag_126:\n      dup1\n      0x1f\n      add\n      0x20\n      dup1\n      swap2\n      div\n      mul\n      0x20\n      add\n      mload(0x40)\n      swap1\n      dup2\n      add\n      0x40\n      mstore\n      dup1\n      swap3\n      swap2\n      swap1\n      dup2\n      dup2\n      mstore\n      0x20\n      add\n      dup3\n      dup1\n      sload\n      tag_127\n      swap1\n      tag_85\n      jump\t// in\n    tag_127:\n      dup1\n      iszero\n      tag_128\n      jumpi\n      dup1\n      0x1f\n      lt\n      tag_129\n      jumpi\n      0x0100\n      dup1\n      dup4\n      sload\n      div\n      mul\n      dup4\n      mstore\n      swap2\n      0x20\n      add\n      swap2\n      jump(tag_128)\n    tag_129:\n      dup3\n      add\n      swap2\n      swap1\n      0x00\n      mstore\n      keccak256(0x00, 0x20)\n      swap1\n    tag_130:\n      dup2\n      sload\n      dup2\n      mstore\n      swap1\n      0x01\n      add\n      swap1\n      0x20\n      add\n      dup1\n      dup4\n      gt\n      tag_130\n      jumpi\n      dup3\n      swap1\n      sub\n      0x1f\n      and\n      dup3\n      add\n      swap2\n    tag_128:\n      pop\n      pop\n      pop\n      pop\n      pop\n      swap6\n      pop\n      dup5\n      dup1\n      sload\n      tag_131\n      swap1\n      tag_85\n      jump\t// in\n    tag_131:\n      dup1\n      0x1f\n      add\n      0x20\n      dup1\n      swap2\n      div\n      mul\n      0x20\n      add\n      mload(0x40)\n      swap1\n      dup2\n      add\n      0x40\n      mstore\n      dup1\n      swap3\n      swap2\n      swap1\n      dup2\n      dup2\n      mstore\n      0x20\n      add\n      dup3\n      dup1\n      sload\n      tag_132\n      swap1\n      tag_85\n      jump\t// in\n    tag_132:\n      dup1\n      iszero\n      tag_133\n      jumpi\n      dup1\n      0x1f\n      lt\n      tag_134\n      jumpi\n      0x0100\n      dup1\n      dup4\n      sload\n      div\n      mul\n      dup4\n      mstore\n      swap2\n      0x20\n      add\n      swap2\n      jump(tag_133)\n    tag_134:\n      dup3\n      add\n      swap2\n      swap1\n      0x00\n      mstore\n      keccak256(0x00, 0x20)\n      swap1\n    tag_135:\n      dup2\n      sload\n      dup2\n      mstore\n      swap1\n      0x01\n      add\n      swap1\n      0x20\n      add\n      dup1\n      dup4\n      gt\n      tag_135\n      jumpi\n      dup3\n      swap1\n      sub\n      0x1f\n      and\n      dup3\n      add\n      swap2\n    tag_133:\n      pop\n      pop\n      pop\n      pop\n      pop\n      swap5\n      pop\n      swap9\n      pop\n      swap9\n      pop\n      swap9\n      pop\n      swap9\n      pop\n      swap9\n      pop\n      swap9\n      pop\n      swap9\n      pop\n      swap9\n      pop\n      pop\n        /* \"smartContract_eliseu.sol\":4355:4740  function getProjectDetails(uint256 projectId)... */\n      swap2\n      swap4\n      swap6\n      swap8\n      pop\n      swap2\n      swap4\n      swap6\n      swap8\n      jump\t// out\n        /* \"smartContract_eliseu.sol\":4746:5550  function getProjectWithStages(uint256 projectId)... */\n    tag_42:\n        /* \"smartContract_eliseu.sol\":4855:4868  string memory */\n      0x60\n        /* \"smartContract_eliseu.sol\":4870:4883  string memory */\n      dup1\n        /* \"smartContract_eliseu.sol\":4885:4898  string memory */\n      0x60\n        /* \"smartContract_eliseu.sol\":4900:4913  string memory */\n      dup1\n        /* \"smartContract_eliseu.sol\":4915:4922  uint256 */\n      0x00\n        /* \"smartContract_eliseu.sol\":4924:4931  uint256 */\n      dup1\n        /* \"smartContract_eliseu.sol\":4933:4940  uint256 */\n      0x00\n        /* \"smartContract_eliseu.sol\":4942:4946  bool */\n      dup1\n        /* \"smartContract_eliseu.sol\":4948:4964  uint256[] memory */\n      0x60\n        /* \"smartContract_eliseu.sol\":4966:4981  string[] memory */\n      dup1\n        /* \"smartContract_eliseu.sol\":5006:5023  Project storage p */\n      0x00\n        /* \"smartContract_eliseu.sol\":5026:5034  projects */\n      0x02\n        /* \"smartContract_eliseu.sol\":5026:5045  projects[projectId] */\n      0x00\n        /* \"smartContract_eliseu.sol\":5035:5044  projectId */\n      dup14\n        /* \"smartContract_eliseu.sol\":5026:5045  projects[projectId] */\n      dup2\n      mstore\n      0x20\n      add\n      swap1\n      dup2\n      mstore\n      0x20\n      add\n      0x00\n      keccak256\n        /* \"smartContract_eliseu.sol\":5006:5045  Project storage p = projects[projectId] */\n      swap1\n      pop\n        /* \"smartContract_eliseu.sol\":5055:5072  uint256 numStages */\n      0x00\n        /* \"smartContract_eliseu.sol\":5075:5076  p */\n      dup2\n        /* \"smartContract_eliseu.sol\":5075:5083  p.stages */\n      0x0a\n      add\n        /* \"smartContract_eliseu.sol\":5075:5090  p.stages.length */\n      dup1\n      sload\n      swap1\n      pop\n        /* \"smartContract_eliseu.sol\":5055:5090  uint256 numStages = p.stages.length */\n      swap1\n      pop\n        /* \"smartContract_eliseu.sol\":5100:5128  uint256[] memory stageValues */\n      0x00\n        /* \"smartContract_eliseu.sol\":5145:5154  numStages */\n      dup2\n        /* \"smartContract_eliseu.sol\":5131:5155  new uint256[](numStages) */\n      0xffffffffffffffff\n      dup2\n      gt\n      iszero\n      tag_137\n      jumpi\n      tag_138\n      tag_139\n      jump\t// in\n    tag_138:\n    tag_137:\n      mload(0x40)\n      swap1\n      dup1\n      dup3\n      mstore\n      dup1\n      0x20\n      mul\n      0x20\n      add\n      dup3\n      add\n      0x40\n      mstore\n      dup1\n      iszero\n      tag_140\n      jumpi\n      dup2\n      0x20\n      add\n      0x20\n      dup3\n      mul\n      dup1\n      calldatasize\n      dup4\n      calldatacopy\n      dup1\n      dup3\n      add\n      swap2\n      pop\n      pop\n      swap1\n      pop\n    tag_140:\n      pop\n        /* \"smartContract_eliseu.sol\":5100:5155  uint256[] memory stageValues = new uint256[](numStages) */\n      swap1\n      pop\n        /* \"smartContract_eliseu.sol\":5165:5198  string[] memory stageDescriptions */\n      0x00\n        /* \"smartContract_eliseu.sol\":5214:5223  numStages */\n      dup3\n        /* \"smartContract_eliseu.sol\":5201:5224  new string[](numStages) */\n      0xffffffffffffffff\n      dup2\n      gt\n      iszero\n      tag_141\n      jumpi\n      tag_142\n      tag_139\n      jump\t// in\n    tag_142:\n    tag_141:\n      mload(0x40)\n      swap1\n      dup1\n      dup3\n      mstore\n      dup1\n      0x20\n      mul\n      0x20\n      add\n      dup3\n      add\n      0x40\n      mstore\n      dup1\n      iszero\n      tag_143\n      jumpi\n      dup2\n      0x20\n      add\n    tag_144:\n      0x60\n      dup2\n      mstore\n      0x20\n      add\n      swap1\n      0x01\n      swap1\n      sub\n      swap1\n      dup2\n      tag_144\n      jumpi\n      swap1\n      pop\n    tag_143:\n      pop\n        /* \"smartContract_eliseu.sol\":5165:5224  string[] memory stageDescriptions = new string[](numStages) */\n      swap1\n      pop\n        /* \"smartContract_eliseu.sol\":5240:5249  uint256 i */\n      0x00\n        /* \"smartContract_eliseu.sol\":5235:5394  for (uint256 i = 0; i < numStages; i++) {... */\n    tag_145:\n        /* \"smartContract_eliseu.sol\":5259:5268  numStages */\n      dup4\n        /* \"smartContract_eliseu.sol\":5255:5256  i */\n      dup2\n        /* \"smartContract_eliseu.sol\":5255:5268  i < numStages */\n      lt\n        /* \"smartContract_eliseu.sol\":5235:5394  for (uint256 i = 0; i < numStages; i++) {... */\n      iszero\n      tag_146\n      jumpi\n        /* \"smartContract_eliseu.sol\":5306:5307  p */\n      dup5\n        /* \"smartContract_eliseu.sol\":5306:5314  p.stages */\n      0x0a\n      add\n        /* \"smartContract_eliseu.sol\":5315:5316  i */\n      dup2\n        /* \"smartContract_eliseu.sol\":5306:5317  p.stages[i] */\n      dup2\n      sload\n      dup2\n      lt\n      tag_148\n      jumpi\n      tag_149\n      tag_77\n      jump\t// in\n    tag_149:\n    tag_148:\n      swap1\n      0x00\n      mstore\n      keccak256(0x00, 0x20)\n      swap1\n      0x07\n      mul\n      add\n        /* \"smartContract_eliseu.sol\":5306:5323  p.stages[i].value */\n      0x03\n      add\n      sload\n        /* \"smartContract_eliseu.sol\":5289:5300  stageValues */\n      dup4\n        /* \"smartContract_eliseu.sol\":5301:5302  i */\n      dup3\n        /* \"smartContract_eliseu.sol\":5289:5303  stageValues[i] */\n      dup2\n      mload\n      dup2\n      lt\n      tag_151\n      jumpi\n      tag_152\n      tag_77\n      jump\t// in\n    tag_152:\n    tag_151:\n      0x20\n      mul\n      0x20\n      add\n      add\n        /* \"smartContract_eliseu.sol\":5289:5323  stageValues[i] = p.stages[i].value */\n      dup2\n      dup2\n      mstore\n      pop\n      pop\n        /* \"smartContract_eliseu.sol\":5360:5361  p */\n      dup5\n        /* \"smartContract_eliseu.sol\":5360:5368  p.stages */\n      0x0a\n      add\n        /* \"smartContract_eliseu.sol\":5369:5370  i */\n      dup2\n        /* \"smartContract_eliseu.sol\":5360:5371  p.stages[i] */\n      dup2\n      sload\n      dup2\n      lt\n      tag_153\n      jumpi\n      tag_154\n      tag_77\n      jump\t// in\n    tag_154:\n    tag_153:\n      swap1\n      0x00\n      mstore\n      keccak256(0x00, 0x20)\n      swap1\n      0x07\n      mul\n      add\n        /* \"smartContract_eliseu.sol\":5360:5383  p.stages[i].description */\n      0x01\n      add\n        /* \"smartContract_eliseu.sol\":5337:5383  stageDescriptions[i] = p.stages[i].description */\n      dup1\n      sload\n      tag_156\n      swap1\n      tag_85\n      jump\t// in\n    tag_156:\n      dup1\n      0x1f\n      add\n      0x20\n      dup1\n      swap2\n      div\n      mul\n      0x20\n      add\n      mload(0x40)\n      swap1\n      dup2\n      add\n      0x40\n      mstore\n      dup1\n      swap3\n      swap2\n      swap1\n      dup2\n      dup2\n      mstore\n      0x20\n      add\n      dup3\n      dup1\n      sload\n      tag_157\n      swap1\n      tag_85\n      jump\t// in\n    tag_157:\n      dup1\n      iszero\n      tag_158\n      jumpi\n      dup1\n      0x1f\n      lt\n      tag_159\n      jumpi\n      0x0100\n      dup1\n      dup4\n      sload\n      div\n      mul\n      dup4\n      mstore\n      swap2\n      0x20\n      add\n      swap2\n      jump(tag_158)\n    tag_159:\n      dup3\n      add\n      swap2\n      swap1\n      0x00\n      mstore\n      keccak256(0x00, 0x20)\n      swap1\n    tag_160:\n      dup2\n      sload\n      dup2\n      mstore\n      swap1\n      0x01\n      add\n      swap1\n      0x20\n      add\n      dup1\n      dup4\n      gt\n      tag_160\n      jumpi\n      dup3\n      swap1\n      sub\n      0x1f\n      and\n      dup3\n      add\n      swap2\n    tag_158:\n      pop\n      pop\n      pop\n      pop\n      pop\n        /* \"smartContract_eliseu.sol\":5337:5354  stageDescriptions */\n      dup3\n        /* \"smartContract_eliseu.sol\":5355:5356  i */\n      dup3\n        /* \"smartContract_eliseu.sol\":5337:5357  stageDescriptions[i] */\n      dup2\n      mload\n      dup2\n      lt\n      tag_161\n      jumpi\n      tag_162\n      tag_77\n      jump\t// in\n    tag_162:\n    tag_161:\n      0x20\n      mul\n      0x20\n      add\n      add\n        /* \"smartContract_eliseu.sol\":5337:5383  stageDescriptions[i] = p.stages[i].description */\n      dup2\n      swap1\n      mstore\n      pop\n        /* \"smartContract_eliseu.sol\":5270:5273  i++ */\n      dup1\n      dup1\n      tag_163\n      swap1\n      tag_164\n      jump\t// in\n    tag_163:\n      swap2\n      pop\n      pop\n        /* \"smartContract_eliseu.sol\":5235:5394  for (uint256 i = 0; i < numStages; i++) {... */\n      jump(tag_145)\n    tag_146:\n      pop\n        /* \"smartContract_eliseu.sol\":5412:5413  p */\n      dup4\n        /* \"smartContract_eliseu.sol\":5412:5418  p.name */\n      0x01\n      add\n        /* \"smartContract_eliseu.sol\":5420:5421  p */\n      dup5\n        /* \"smartContract_eliseu.sol\":5420:5433  p.description */\n      0x02\n      add\n        /* \"smartContract_eliseu.sol\":5435:5436  p */\n      dup6\n        /* \"smartContract_eliseu.sol\":5435:5446  p.client_id */\n      0x03\n      add\n        /* \"smartContract_eliseu.sol\":5448:5449  p */\n      dup7\n        /* \"smartContract_eliseu.sol\":5448:5460  p.contractor */\n      0x04\n      add\n        /* \"smartContract_eliseu.sol\":5462:5463  p */\n      dup8\n        /* \"smartContract_eliseu.sol\":5462:5476  p.creationDate */\n      0x05\n      add\n      sload\n        /* \"smartContract_eliseu.sol\":5478:5479  p */\n      dup9\n        /* \"smartContract_eliseu.sol\":5478:5489  p.startDate */\n      0x06\n      add\n      sload\n        /* \"smartContract_eliseu.sol\":5491:5492  p */\n      dup10\n        /* \"smartContract_eliseu.sol\":5491:5500  p.endDate */\n      0x07\n      add\n      sload\n        /* \"smartContract_eliseu.sol\":5502:5503  p */\n      dup11\n        /* \"smartContract_eliseu.sol\":5502:5510  p.closed */\n      0x09\n      add\n      0x00\n      swap1\n      sload\n      swap1\n      0x0100\n      exp\n      swap1\n      div\n      0xff\n      and\n        /* \"smartContract_eliseu.sol\":5512:5523  stageValues */\n      dup10\n        /* \"smartContract_eliseu.sol\":5525:5542  stageDescriptions */\n      dup10\n        /* \"smartContract_eliseu.sol\":5404:5543  return (p.name, p.description, p.client_id, p.contractor, p.creationDate, p.startDate, p.endDate, p.closed, stageValues, stageDescriptions) */\n      dup10\n      dup1\n      sload\n      tag_165\n      swap1\n      tag_85\n      jump\t// in\n    tag_165:\n      dup1\n      0x1f\n      add\n      0x20\n      dup1\n      swap2\n      div\n      mul\n      0x20\n      add\n      mload(0x40)\n      swap1\n      dup2\n      add\n      0x40\n      mstore\n      dup1\n      swap3\n      swap2\n      swap1\n      dup2\n      dup2\n      mstore\n      0x20\n      add\n      dup3\n      dup1\n      sload\n      tag_166\n      swap1\n      tag_85\n      jump\t// in\n    tag_166:\n      dup1\n      iszero\n      tag_167\n      jumpi\n      dup1\n      0x1f\n      lt\n      tag_168\n      jumpi\n      0x0100\n      dup1\n      dup4\n      sload\n      div\n      mul\n      dup4\n      mstore\n      swap2\n      0x20\n      add\n      swap2\n      jump(tag_167)\n    tag_168:\n      dup3\n      add\n      swap2\n      swap1\n      0x00\n      mstore\n      keccak256(0x00, 0x20)\n      swap1\n    tag_169:\n      dup2\n      sload\n      dup2\n      mstore\n      swap1\n      0x01\n      add\n      swap1\n      0x20\n      add\n      dup1\n      dup4\n      gt\n      tag_169\n      jumpi\n      dup3\n      swap1\n      sub\n      0x1f\n      and\n      dup3\n      add\n      swap2\n    tag_167:\n      pop\n      pop\n      pop\n      pop\n      pop\n      swap10\n      pop\n      dup9\n      dup1\n      sload\n      tag_170\n      swap1\n      tag_85\n      jump\t// in\n    tag_170:\n      dup1\n      0x1f\n      add\n      0x20\n      dup1\n      swap2\n      div\n      mul\n      0x20\n      add\n      mload(0x40)\n      swap1\n      dup2\n      add\n      0x40\n      mstore\n      dup1\n      swap3\n      swap2\n      swap1\n      dup2\n      dup2\n      mstore\n      0x20\n      add\n      dup3\n      dup1\n      sload\n      tag_171\n      swap1\n      tag_85\n      jump\t// in\n    tag_171:\n      dup1\n      iszero\n      tag_172\n      jumpi\n      dup1\n      0x1f\n      lt\n      tag_173\n      jumpi\n      0x0100\n      dup1\n      dup4\n      sload\n      div\n      mul\n      dup4\n      mstore\n      swap2\n      0x20\n      add\n      swap2\n      jump(tag_172)\n    tag_173:\n      dup3\n      add\n      swap2\n      swap1\n      0x00\n      mstore\n      keccak256(0x00, 0x20)\n      swap1\n    tag_174:\n      dup2\n      sload\n      dup2\n      mstore\n      swap1\n      0x01\n      add\n      swap1\n      0x20\n      add\n      dup1\n      dup4\n      gt\n      tag_174\n      jumpi\n      dup3\n      swap1\n      sub\n      0x1f\n      and\n      dup3\n      add\n      swap2\n    tag_172:\n      pop\n      pop\n      pop\n      pop\n      pop\n      swap9\n      pop\n      dup8\n      dup1\n      sload\n      tag_175\n      swap1\n      tag_85\n      jump\t// in\n    tag_175:\n      dup1\n      0x1f\n      add\n      0x20\n      dup1\n      swap2\n      div\n      mul\n      0x20\n      add\n      mload(0x40)\n      swap1\n      dup2\n      add\n      0x40\n      mstore\n      dup1\n      swap3\n      swap2\n      swap1\n      dup2\n      dup2\n      mstore\n      0x20\n      add\n      dup3\n      dup1\n      sload\n      tag_176\n      swap1\n      tag_85\n      jump\t// in\n    tag_176:\n      dup1\n      iszero\n      tag_177\n      jumpi\n      dup1\n      0x1f\n      lt\n      tag_178\n      jumpi\n      0x0100\n      dup1\n      dup4\n      sload\n      div\n      mul\n      dup4\n      mstore\n      swap2\n      0x20\n      add\n      swap2\n      jump(tag_177)\n    tag_178:\n      dup3\n      add\n      swap2\n      swap1\n      0x00\n      mstore\n      keccak256(0x00, 0x20)\n      swap1\n    tag_179:\n      dup2\n      sload\n      dup2\n      mstore\n      swap1\n      0x01\n      add\n      swap1\n      0x20\n      add\n      dup1\n      dup4\n      gt\n      tag_179\n      jumpi\n      dup3\n      swap1\n      sub\n      0x1f\n      and\n      dup3\n      add\n      swap2\n    tag_177:\n      pop\n      pop\n      pop\n      pop\n      pop\n      swap8\n      pop\n      dup7\n      dup1\n      sload\n      tag_180\n      swap1\n      tag_85\n      jump\t// in\n    tag_180:\n      dup1\n      0x1f\n      add\n      0x20\n      dup1\n      swap2\n      div\n      mul\n      0x20\n      add\n      mload(0x40)\n      swap1\n      dup2\n      add\n      0x40\n      mstore\n      dup1\n      swap3\n      swap2\n      swap1\n      dup2\n      dup2\n      mstore\n      0x20\n      add\n      dup3\n      dup1\n      sload\n      tag_181\n      swap1\n      tag_85\n      jump\t// in\n    tag_181:\n      dup1\n      iszero\n      tag_182\n      jumpi\n      dup1\n      0x1f\n      lt\n      tag_183\n      jumpi\n      0x0100\n      dup1\n      dup4\n      sload\n      div\n      mul\n      dup4\n      mstore\n      swap2\n      0x20\n      add\n      swap2\n      jump(tag_182)\n    tag_183:\n      dup3\n      add\n      swap2\n      swap1\n      0x00\n      mstore\n      keccak256(0x00, 0x20)\n      swap1\n    tag_184:\n      dup2\n      sload\n      dup2\n      mstore\n      swap1\n      0x01\n      add\n      swap1\n      0x20\n      add\n      dup1\n      dup4\n      gt\n      tag_184\n      jumpi\n      dup3\n      swap1\n      sub\n      0x1f\n      and\n      dup3\n      add\n      swap2\n    tag_182:\n      pop\n      pop\n      pop\n      pop\n      pop\n      swap7\n      pop\n      swap14\n      pop\n      swap14\n      pop\n      swap14\n      pop\n      swap14\n      pop\n      swap14\n      pop\n      swap14\n      pop\n      swap14\n      pop\n      swap14\n      pop\n      swap14\n      pop\n      swap14\n      pop\n      pop\n      pop\n      pop\n      pop\n        /* \"smartContract_eliseu.sol\":4746:5550  function getProjectWithStages(uint256 projectId)... */\n      swap2\n      swap4\n      swap6\n      swap8\n      swap10\n      pop\n      swap2\n      swap4\n      swap6\n      swap8\n      swap10\n      jump\t// out\n        /* \"smartContract_eliseu.sol\":4188:4349  function closeProject(uint256 projectId) external onlyClient(projectId) {... */\n    tag_47:\n        /* \"smartContract_eliseu.sol\":4249:4258  projectId */\n      dup1\n        /* \"smartContract_eliseu.sol\":1603:1611  agencyId */\n      0x00\n        /* \"smartContract_eliseu.sol\":1587:1613  keccak256(bytes(agencyId)) */\n      mload(0x40)\n      tag_186\n      swap2\n      swap1\n      tag_69\n      jump\t// in\n    tag_186:\n      mload(0x40)\n      dup1\n      swap2\n      sub\n      swap1\n      keccak256\n        /* \"smartContract_eliseu.sol\":1552:1560  projects */\n      0x02\n        /* \"smartContract_eliseu.sol\":1552:1571  projects[projectId] */\n      0x00\n        /* \"smartContract_eliseu.sol\":1561:1570  projectId */\n      dup4\n        /* \"smartContract_eliseu.sol\":1552:1571  projects[projectId] */\n      dup2\n      mstore\n      0x20\n      add\n      swap1\n      dup2\n      mstore\n      0x20\n      add\n      0x00\n      keccak256\n        /* \"smartContract_eliseu.sol\":1552:1581  projects[projectId].client_id */\n      0x03\n      add\n        /* \"smartContract_eliseu.sol\":1536:1583  keccak256(bytes(projects[projectId].client_id)) */\n      mload(0x40)\n      tag_187\n      swap2\n      swap1\n      tag_69\n      jump\t// in\n    tag_187:\n      mload(0x40)\n      dup1\n      swap2\n      sub\n      swap1\n      keccak256\n        /* \"smartContract_eliseu.sol\":1536:1613  keccak256(bytes(projects[projectId].client_id)) == keccak256(bytes(agencyId)) */\n      eq\n        /* \"smartContract_eliseu.sol\":1528:1657  require(keccak256(bytes(projects[projectId].client_id)) == keccak256(bytes(agencyId)), \"Only the client can perform this action\") */\n      tag_188\n      jumpi\n      mload(0x40)\n      0x08c379a000000000000000000000000000000000000000000000000000000000\n      dup2\n      mstore\n      0x04\n      add\n      tag_189\n      swap1\n      tag_73\n      jump\t// in\n    tag_189:\n      mload(0x40)\n      dup1\n      swap2\n      sub\n      swap1\n      revert\n    tag_188:\n        /* \"smartContract_eliseu.sol\":4299:4303  true */\n      0x01\n        /* \"smartContract_eliseu.sol\":4270:4278  projects */\n      0x02\n        /* \"smartContract_eliseu.sol\":4270:4289  projects[projectId] */\n      0x00\n        /* \"smartContract_eliseu.sol\":4279:4288  projectId */\n      dup5\n        /* \"smartContract_eliseu.sol\":4270:4289  projects[projectId] */\n      dup2\n      mstore\n      0x20\n      add\n      swap1\n      dup2\n      mstore\n      0x20\n      add\n      0x00\n      keccak256\n        /* \"smartContract_eliseu.sol\":4270:4296  projects[projectId].closed */\n      0x09\n      add\n      0x00\n        /* \"smartContract_eliseu.sol\":4270:4303  projects[projectId].closed = true */\n      0x0100\n      exp\n      dup2\n      sload\n      dup2\n      0xff\n      mul\n      not\n      and\n      swap1\n      dup4\n      iszero\n      iszero\n      mul\n      or\n      swap1\n      sstore\n      pop\n        /* \"smartContract_eliseu.sol\":4318:4342  ProjectClosed(projectId) */\n      0xa10da3bd85a8a7569325abd94177d0bbf25fbded5a3f6622a5588ce2cf1153ba\n        /* \"smartContract_eliseu.sol\":4332:4341  projectId */\n      dup3\n        /* \"smartContract_eliseu.sol\":4318:4342  ProjectClosed(projectId) */\n      mload(0x40)\n      tag_191\n      swap2\n      swap1\n      tag_30\n      jump\t// in\n    tag_191:\n      mload(0x40)\n      dup1\n      swap2\n      sub\n      swap1\n      log1\n        /* \"smartContract_eliseu.sol\":4188:4349  function closeProject(uint256 projectId) external onlyClient(projectId) {... */\n      pop\n      pop\n      jump\t// out\n        /* \"smartContract_eliseu.sol\":94:127  string public agencyId = \"agency\" */\n    tag_49:\n      0x00\n      dup1\n      sload\n      tag_192\n      swap1\n      tag_85\n      jump\t// in\n    tag_192:\n      dup1\n      0x1f\n      add\n      0x20\n      dup1\n      swap2\n      div\n      mul\n      0x20\n      add\n      mload(0x40)\n      swap1\n      dup2\n      add\n      0x40\n      mstore\n      dup1\n      swap3\n      swap2\n      swap1\n      dup2\n      dup2\n      mstore\n      0x20\n      add\n      dup3\n      dup1\n      sload\n      tag_193\n      swap1\n      tag_85\n      jump\t// in\n    tag_193:\n      dup1\n      iszero\n      tag_194\n      jumpi\n      dup1\n      0x1f\n      lt\n      tag_195\n      jumpi\n      0x0100\n      dup1\n      dup4\n      sload\n      div\n      mul\n      dup4\n      mstore\n      swap2\n      0x20\n      add\n      swap2\n      jump(tag_194)\n    tag_195:\n      dup3\n      add\n      swap2\n      swap1\n      0x00\n      mstore\n      keccak256(0x00, 0x20)\n      swap1\n    tag_196:\n      dup2\n      sload\n      dup2\n      mstore\n      swap1\n      0x01\n      add\n      swap1\n      0x20\n      add\n      dup1\n      dup4\n      gt\n      tag_196\n      jumpi\n      dup3\n      swap1\n      sub\n      0x1f\n      and\n      dup3\n      add\n      swap2\n    tag_194:\n      pop\n      pop\n      pop\n      pop\n      pop\n      dup2\n      jump\t// out\n        /* \"smartContract_eliseu.sol\":2200:3152  function createProject(... */\n    tag_55:\n        /* \"smartContract_eliseu.sol\":2509:2526  uint256 projectId */\n      0x00\n        /* \"smartContract_eliseu.sol\":2529:2540  numProjects */\n      0x01\n      0x00\n        /* \"smartContract_eliseu.sol\":2529:2542  numProjects++ */\n      dup2\n      sload\n      dup1\n      swap3\n      swap2\n      swap1\n      tag_198\n      swap1\n      tag_164\n      jump\t// in\n    tag_198:\n      swap2\n      swap1\n      pop\n      sstore\n        /* \"smartContract_eliseu.sol\":2509:2542  uint256 projectId = numProjects++ */\n      swap1\n      pop\n        /* \"smartContract_eliseu.sol\":2552:2569  Project storage p */\n      0x00\n        /* \"smartContract_eliseu.sol\":2572:2580  projects */\n      0x02\n        /* \"smartContract_eliseu.sol\":2572:2591  projects[projectId] */\n      0x00\n        /* \"smartContract_eliseu.sol\":2581:2590  projectId */\n      dup4\n        /* \"smartContract_eliseu.sol\":2572:2591  projects[projectId] */\n      dup2\n      mstore\n      0x20\n      add\n      swap1\n      dup2\n      mstore\n      0x20\n      add\n      0x00\n      keccak256\n        /* \"smartContract_eliseu.sol\":2552:2591  Project storage p = projects[projectId] */\n      swap1\n      pop\n        /* \"smartContract_eliseu.sol\":2610:2615  _name */\n      dup8\n        /* \"smartContract_eliseu.sol\":2601:2602  p */\n      dup2\n        /* \"smartContract_eliseu.sol\":2601:2607  p.name */\n      0x01\n      add\n        /* \"smartContract_eliseu.sol\":2601:2615  p.name = _name */\n      swap1\n      dup2\n      tag_199\n      swap2\n      swap1\n      tag_200\n      jump\t// in\n    tag_199:\n      pop\n        /* \"smartContract_eliseu.sol\":2641:2653  _description */\n      dup7\n        /* \"smartContract_eliseu.sol\":2625:2626  p */\n      dup2\n        /* \"smartContract_eliseu.sol\":2625:2638  p.description */\n      0x02\n      add\n        /* \"smartContract_eliseu.sol\":2625:2653  p.description = _description */\n      swap1\n      dup2\n      tag_201\n      swap2\n      swap1\n      tag_200\n      jump\t// in\n    tag_201:\n      pop\n        /* \"smartContract_eliseu.sol\":2678:2689  _project_id */\n      dup9\n        /* \"smartContract_eliseu.sol\":2663:2664  p */\n      dup2\n        /* \"smartContract_eliseu.sol\":2663:2675  p.project_id */\n      0x00\n      add\n        /* \"smartContract_eliseu.sol\":2663:2689  p.project_id = _project_id */\n      swap1\n      dup2\n      tag_202\n      swap2\n      swap1\n      tag_200\n      jump\t// in\n    tag_202:\n      pop\n        /* \"smartContract_eliseu.sol\":2713:2723  _client_id */\n      dup6\n        /* \"smartContract_eliseu.sol\":2699:2700  p */\n      dup2\n        /* \"smartContract_eliseu.sol\":2699:2710  p.client_id */\n      0x03\n      add\n        /* \"smartContract_eliseu.sol\":2699:2723  p.client_id = _client_id */\n      swap1\n      dup2\n      tag_203\n      swap2\n      swap1\n      tag_200\n      jump\t// in\n    tag_203:\n      pop\n        /* \"smartContract_eliseu.sol\":2748:2759  _contractor */\n      dup5\n        /* \"smartContract_eliseu.sol\":2733:2734  p */\n      dup2\n        /* \"smartContract_eliseu.sol\":2733:2745  p.contractor */\n      0x04\n      add\n        /* \"smartContract_eliseu.sol\":2733:2759  p.contractor = _contractor */\n      swap1\n      dup2\n      tag_204\n      swap2\n      swap1\n      tag_200\n      jump\t// in\n    tag_204:\n      pop\n        /* \"smartContract_eliseu.sol\":2786:2801  block.timestamp */\n      timestamp\n        /* \"smartContract_eliseu.sol\":2769:2770  p */\n      dup2\n        /* \"smartContract_eliseu.sol\":2769:2783  p.creationDate */\n      0x05\n      add\n        /* \"smartContract_eliseu.sol\":2769:2801  p.creationDate = block.timestamp */\n      dup2\n      swap1\n      sstore\n      pop\n        /* \"smartContract_eliseu.sol\":2825:2835  _startDate */\n      dup4\n        /* \"smartContract_eliseu.sol\":2811:2812  p */\n      dup2\n        /* \"smartContract_eliseu.sol\":2811:2822  p.startDate */\n      0x06\n      add\n        /* \"smartContract_eliseu.sol\":2811:2835  p.startDate = _startDate */\n      dup2\n      swap1\n      sstore\n      pop\n        /* \"smartContract_eliseu.sol\":2857:2865  _endDate */\n      dup3\n        /* \"smartContract_eliseu.sol\":2845:2846  p */\n      dup2\n        /* \"smartContract_eliseu.sol\":2845:2854  p.endDate */\n      0x07\n      add\n        /* \"smartContract_eliseu.sol\":2845:2865  p.endDate = _endDate */\n      dup2\n      swap1\n      sstore\n      pop\n        /* \"smartContract_eliseu.sol\":2886:2891  false */\n      0x00\n        /* \"smartContract_eliseu.sol\":2875:2876  p */\n      dup2\n        /* \"smartContract_eliseu.sol\":2875:2883  p.closed */\n      0x09\n      add\n      0x00\n        /* \"smartContract_eliseu.sol\":2875:2891  p.closed = false */\n      0x0100\n      exp\n      dup2\n      sload\n      dup2\n      0xff\n      mul\n      not\n      and\n      swap1\n      dup4\n      iszero\n      iszero\n      mul\n      or\n      swap1\n      sstore\n      pop\n        /* \"smartContract_eliseu.sol\":2926:2927  0 */\n      0x00\n        /* \"smartContract_eliseu.sol\":2901:2902  p */\n      dup2\n        /* \"smartContract_eliseu.sol\":2901:2923  p.actualCompletionDate */\n      0x08\n      add\n        /* \"smartContract_eliseu.sol\":2901:2927  p.actualCompletionDate = 0 */\n      dup2\n      swap1\n      sstore\n      pop\n        /* \"smartContract_eliseu.sol\":2937:2947  projectIds */\n      0x03\n        /* \"smartContract_eliseu.sol\":2953:2962  projectId */\n      dup3\n        /* \"smartContract_eliseu.sol\":2937:2963  projectIds.push(projectId) */\n      swap1\n      dup1\n      0x01\n      dup2\n      sload\n      add\n      dup1\n      dup3\n      sstore\n      dup1\n      swap2\n      pop\n      pop\n      0x01\n      swap1\n      sub\n      swap1\n      0x00\n      mstore\n      keccak256(0x00, 0x20)\n      add\n      0x00\n      swap1\n      swap2\n      swap1\n      swap2\n      swap1\n      swap2\n      pop\n      sstore\n        /* \"smartContract_eliseu.sol\":3088:3145  ProjectCreated(projectId, _name, _client_id, _contractor) */\n      0xd435653848bbfa44a9136b793e660753873e5b87ee80e7289d257538214bd3e0\n        /* \"smartContract_eliseu.sol\":3103:3112  projectId */\n      dup3\n        /* \"smartContract_eliseu.sol\":3114:3119  _name */\n      dup10\n        /* \"smartContract_eliseu.sol\":3121:3131  _client_id */\n      dup9\n        /* \"smartContract_eliseu.sol\":3133:3144  _contractor */\n      dup9\n        /* \"smartContract_eliseu.sol\":3088:3145  ProjectCreated(projectId, _name, _client_id, _contractor) */\n      mload(0x40)\n      tag_206\n      swap5\n      swap4\n      swap3\n      swap2\n      swap1\n      tag_207\n      jump\t// in\n    tag_206:\n      mload(0x40)\n      dup1\n      swap2\n      sub\n      swap1\n      log1\n        /* \"smartContract_eliseu.sol\":2499:3152  {... */\n      pop\n      pop\n        /* \"smartContract_eliseu.sol\":2200:3152  function createProject(... */\n      pop\n      pop\n      pop\n      pop\n      pop\n      pop\n      pop\n      jump\t// out\n        /* \"smartContract_eliseu.sol\":3158:3606  function addStage(uint256 projectId, string memory _description, uint256 _value, string[] memory _validators_ids) external onlyClient(projectId) {... */\n    tag_59:\n        /* \"smartContract_eliseu.sol\":3292:3301  projectId */\n      dup4\n        /* \"smartContract_eliseu.sol\":1603:1611  agencyId */\n      0x00\n        /* \"smartContract_eliseu.sol\":1587:1613  keccak256(bytes(agencyId)) */\n      mload(0x40)\n      tag_209\n      swap2\n      swap1\n      tag_69\n      jump\t// in\n    tag_209:\n      mload(0x40)\n      dup1\n      swap2\n      sub\n      swap1\n      keccak256\n        /* \"smartContract_eliseu.sol\":1552:1560  projects */\n      0x02\n        /* \"smartContract_eliseu.sol\":1552:1571  projects[projectId] */\n      0x00\n        /* \"smartContract_eliseu.sol\":1561:1570  projectId */\n      dup4\n        /* \"smartContract_eliseu.sol\":1552:1571  projects[projectId] */\n      dup2\n      mstore\n      0x20\n      add\n      swap1\n      dup2\n      mstore\n      0x20\n      add\n      0x00\n      keccak256\n        /* \"smartContract_eliseu.sol\":1552:1581  projects[projectId].client_id */\n      0x03\n      add\n        /* \"smartContract_eliseu.sol\":1536:1583  keccak256(bytes(projects[projectId].client_id)) */\n      mload(0x40)\n      tag_210\n      swap2\n      swap1\n      tag_69\n      jump\t// in\n    tag_210:\n      mload(0x40)\n      dup1\n      swap2\n      sub\n      swap1\n      keccak256\n        /* \"smartContract_eliseu.sol\":1536:1613  keccak256(bytes(projects[projectId].client_id)) == keccak256(bytes(agencyId)) */\n      eq\n        /* \"smartContract_eliseu.sol\":1528:1657  require(keccak256(bytes(projects[projectId].client_id)) == keccak256(bytes(agencyId)), \"Only the client can perform this action\") */\n      tag_211\n      jumpi\n      mload(0x40)\n      0x08c379a000000000000000000000000000000000000000000000000000000000\n      dup2\n      mstore\n      0x04\n      add\n      tag_212\n      swap1\n      tag_73\n      jump\t// in\n    tag_212:\n      mload(0x40)\n      dup1\n      swap2\n      sub\n      swap1\n      revert\n    tag_211:\n        /* \"smartContract_eliseu.sol\":3313:3328  Stage storage s */\n      0x00\n        /* \"smartContract_eliseu.sol\":3331:3339  projects */\n      0x02\n        /* \"smartContract_eliseu.sol\":3331:3350  projects[projectId] */\n      0x00\n        /* \"smartContract_eliseu.sol\":3340:3349  projectId */\n      dup8\n        /* \"smartContract_eliseu.sol\":3331:3350  projects[projectId] */\n      dup2\n      mstore\n      0x20\n      add\n      swap1\n      dup2\n      mstore\n      0x20\n      add\n      0x00\n      keccak256\n        /* \"smartContract_eliseu.sol\":3331:3357  projects[projectId].stages */\n      0x0a\n      add\n        /* \"smartContract_eliseu.sol\":3331:3364  projects[projectId].stages.push() */\n      0x01\n      dup2\n      0x01\n      dup2\n      sload\n      add\n      dup1\n      dup3\n      sstore\n      dup1\n      swap2\n      pop\n      pop\n      sub\n      swap1\n      0x00\n      mstore\n      keccak256(0x00, 0x20)\n      swap1\n      0x07\n      mul\n      add\n        /* \"smartContract_eliseu.sol\":3313:3364  Stage storage s = projects[projectId].stages.push() */\n      swap1\n      pop\n        /* \"smartContract_eliseu.sol\":3390:3402  _description */\n      dup5\n        /* \"smartContract_eliseu.sol\":3374:3375  s */\n      dup2\n        /* \"smartContract_eliseu.sol\":3374:3387  s.description */\n      0x01\n      add\n        /* \"smartContract_eliseu.sol\":3374:3402  s.description = _description */\n      swap1\n      dup2\n      tag_215\n      swap2\n      swap1\n      tag_200\n      jump\t// in\n    tag_215:\n      pop\n        /* \"smartContract_eliseu.sol\":3422:3428  _value */\n      dup4\n        /* \"smartContract_eliseu.sol\":3412:3413  s */\n      dup2\n        /* \"smartContract_eliseu.sol\":3412:3419  s.value */\n      0x03\n      add\n        /* \"smartContract_eliseu.sol\":3412:3428  s.value = _value */\n      dup2\n      swap1\n      sstore\n      pop\n        /* \"smartContract_eliseu.sol\":3457:3472  _validators_ids */\n      dup3\n        /* \"smartContract_eliseu.sol\":3438:3439  s */\n      dup2\n        /* \"smartContract_eliseu.sol\":3438:3454  s.validators_ids */\n      0x04\n      add\n        /* \"smartContract_eliseu.sol\":3438:3472  s.validators_ids = _validators_ids */\n      swap1\n      dup1\n      mload\n      swap1\n      0x20\n      add\n      swap1\n      tag_216\n      swap3\n      swap2\n      swap1\n      tag_217\n      jump\t// in\n    tag_216:\n      pop\n        /* \"smartContract_eliseu.sol\":3496:3501  false */\n      0x00\n        /* \"smartContract_eliseu.sol\":3482:3483  s */\n      dup2\n        /* \"smartContract_eliseu.sol\":3482:3493  s.completed */\n      0x06\n      add\n      0x00\n        /* \"smartContract_eliseu.sol\":3482:3501  s.completed = false */\n      0x0100\n      exp\n      dup2\n      sload\n      dup2\n      0xff\n      mul\n      not\n      and\n      swap1\n      dup4\n      iszero\n      iszero\n      mul\n      or\n      swap1\n      sstore\n      pop\n        /* \"smartContract_eliseu.sol\":3517:3599  StageAdded(projectId, projects[projectId].stages.length - 1, _description, _value) */\n      0xdfc881edf63042ccef2e2f9bf1c9cee4daeb0e16941eac6001024d72d80de00e\n        /* \"smartContract_eliseu.sol\":3528:3537  projectId */\n      dup7\n        /* \"smartContract_eliseu.sol\":3575:3576  1 */\n      0x01\n        /* \"smartContract_eliseu.sol\":3539:3547  projects */\n      0x02\n        /* \"smartContract_eliseu.sol\":3539:3558  projects[projectId] */\n      0x00\n        /* \"smartContract_eliseu.sol\":3548:3557  projectId */\n      dup11\n        /* \"smartContract_eliseu.sol\":3539:3558  projects[projectId] */\n      dup2\n      mstore\n      0x20\n      add\n      swap1\n      dup2\n      mstore\n      0x20\n      add\n      0x00\n      keccak256\n        /* \"smartContract_eliseu.sol\":3539:3565  projects[projectId].stages */\n      0x0a\n      add\n        /* \"smartContract_eliseu.sol\":3539:3572  projects[projectId].stages.length */\n      dup1\n      sload\n      swap1\n      pop\n        /* \"smartContract_eliseu.sol\":3539:3576  projects[projectId].stages.length - 1 */\n      tag_218\n      swap2\n      swap1\n      tag_219\n      jump\t// in\n    tag_218:\n        /* \"smartContract_eliseu.sol\":3578:3590  _description */\n      dup8\n        /* \"smartContract_eliseu.sol\":3592:3598  _value */\n      dup8\n        /* \"smartContract_eliseu.sol\":3517:3599  StageAdded(projectId, projects[projectId].stages.length - 1, _description, _value) */\n      mload(0x40)\n      tag_220\n      swap5\n      swap4\n      swap3\n      swap2\n      swap1\n      tag_221\n      jump\t// in\n    tag_220:\n      mload(0x40)\n      dup1\n      swap2\n      sub\n      swap1\n      log1\n        /* \"smartContract_eliseu.sol\":3303:3606  {... */\n      pop\n        /* \"smartContract_eliseu.sol\":3158:3606  function addStage(uint256 projectId, string memory _description, uint256 _value, string[] memory _validators_ids) external onlyClient(projectId) {... */\n      pop\n      pop\n      pop\n      pop\n      pop\n      jump\t// out\n        /* \"smartContract_eliseu.sol\":5665:5760  function getProjectsCount() external view returns (uint256) {... */\n    tag_61:\n        /* \"smartContract_eliseu.sol\":5716:5723  uint256 */\n      0x00\n        /* \"smartContract_eliseu.sol\":5742:5753  numProjects */\n      sload(0x01)\n        /* \"smartContract_eliseu.sol\":5735:5753  return numProjects */\n      swap1\n      pop\n        /* \"smartContract_eliseu.sol\":5665:5760  function getProjectsCount() external view returns (uint256) {... */\n      swap1\n      jump\t// out\n        /* \"smartContract_eliseu.sol\":3612:3845  function validateStage(uint256 projectId, uint256 stageId, string memory validatorID)... */\n    tag_66:\n        /* \"smartContract_eliseu.sol\":3737:3746  projectId */\n      dup3\n        /* \"smartContract_eliseu.sol\":3748:3755  stageId */\n      dup3\n        /* \"smartContract_eliseu.sol\":3757:3768  validatorID */\n      dup3\n        /* \"smartContract_eliseu.sol\":1777:1796  Stage storage stage */\n      0x00\n        /* \"smartContract_eliseu.sol\":1799:1807  projects */\n      0x02\n        /* \"smartContract_eliseu.sol\":1799:1818  projects[projectId] */\n      0x00\n        /* \"smartContract_eliseu.sol\":1808:1817  projectId */\n      dup6\n        /* \"smartContract_eliseu.sol\":1799:1818  projects[projectId] */\n      dup2\n      mstore\n      0x20\n      add\n      swap1\n      dup2\n      mstore\n      0x20\n      add\n      0x00\n      keccak256\n        /* \"smartContract_eliseu.sol\":1799:1825  projects[projectId].stages */\n      0x0a\n      add\n        /* \"smartContract_eliseu.sol\":1826:1833  stageId */\n      dup4\n        /* \"smartContract_eliseu.sol\":1799:1834  projects[projectId].stages[stageId] */\n      dup2\n      sload\n      dup2\n      lt\n      tag_224\n      jumpi\n      tag_225\n      tag_77\n      jump\t// in\n    tag_225:\n    tag_224:\n      swap1\n      0x00\n      mstore\n      keccak256(0x00, 0x20)\n      swap1\n      0x07\n      mul\n      add\n        /* \"smartContract_eliseu.sol\":1777:1834  Stage storage stage = projects[projectId].stages[stageId] */\n      swap1\n      pop\n        /* \"smartContract_eliseu.sol\":1845:1861  bool isValidator */\n      0x00\n        /* \"smartContract_eliseu.sol\":1884:1893  uint256 i */\n      dup1\n        /* \"smartContract_eliseu.sol\":1879:2115  for (uint256 i = 0; i < stage.validators_ids.length; i++) {... */\n    tag_227:\n        /* \"smartContract_eliseu.sol\":1903:1908  stage */\n      dup3\n        /* \"smartContract_eliseu.sol\":1903:1923  stage.validators_ids */\n      0x04\n      add\n        /* \"smartContract_eliseu.sol\":1903:1930  stage.validators_ids.length */\n      dup1\n      sload\n      swap1\n      pop\n        /* \"smartContract_eliseu.sol\":1899:1900  i */\n      dup2\n        /* \"smartContract_eliseu.sol\":1899:1930  i < stage.validators_ids.length */\n      lt\n        /* \"smartContract_eliseu.sol\":1879:2115  for (uint256 i = 0; i < stage.validators_ids.length; i++) {... */\n      iszero\n      tag_228\n      jumpi\n        /* \"smartContract_eliseu.sol\":2016:2027  validatorID */\n      dup4\n        /* \"smartContract_eliseu.sol\":2000:2029  keccak256(bytes(validatorID)) */\n      dup1\n      mload\n      swap1\n      0x20\n      add\n      keccak256\n        /* \"smartContract_eliseu.sol\":1971:1976  stage */\n      dup4\n        /* \"smartContract_eliseu.sol\":1971:1991  stage.validators_ids */\n      0x04\n      add\n        /* \"smartContract_eliseu.sol\":1992:1993  i */\n      dup3\n        /* \"smartContract_eliseu.sol\":1971:1994  stage.validators_ids[i] */\n      dup2\n      sload\n      dup2\n      lt\n      tag_230\n      jumpi\n      tag_231\n      tag_77\n      jump\t// in\n    tag_231:\n    tag_230:\n      swap1\n      0x00\n      mstore\n      keccak256(0x00, 0x20)\n      add\n        /* \"smartContract_eliseu.sol\":1955:1996  keccak256(bytes(stage.validators_ids[i])) */\n      mload(0x40)\n      tag_233\n      swap2\n      swap1\n      tag_69\n      jump\t// in\n    tag_233:\n      mload(0x40)\n      dup1\n      swap2\n      sub\n      swap1\n      keccak256\n        /* \"smartContract_eliseu.sol\":1955:2029  keccak256(bytes(stage.validators_ids[i])) == keccak256(bytes(validatorID)) */\n      sub\n        /* \"smartContract_eliseu.sol\":1951:2105  if (keccak256(bytes(stage.validators_ids[i])) == keccak256(bytes(validatorID))) {... */\n      tag_234\n      jumpi\n        /* \"smartContract_eliseu.sol\":2063:2067  true */\n      0x01\n        /* \"smartContract_eliseu.sol\":2049:2067  isValidator = true */\n      swap2\n      pop\n        /* \"smartContract_eliseu.sol\":2085:2090  break */\n      jump(tag_228)\n        /* \"smartContract_eliseu.sol\":1951:2105  if (keccak256(bytes(stage.validators_ids[i])) == keccak256(bytes(validatorID))) {... */\n    tag_234:\n        /* \"smartContract_eliseu.sol\":1932:1935  i++ */\n      dup1\n      dup1\n      tag_235\n      swap1\n      tag_164\n      jump\t// in\n    tag_235:\n      swap2\n      pop\n      pop\n        /* \"smartContract_eliseu.sol\":1879:2115  for (uint256 i = 0; i < stage.validators_ids.length; i++) {... */\n      jump(tag_227)\n    tag_228:\n      pop\n        /* \"smartContract_eliseu.sol\":2133:2144  isValidator */\n      dup1\n        /* \"smartContract_eliseu.sol\":2125:2176  require(isValidator, \"Not an authorized validator\") */\n      tag_236\n      jumpi\n      mload(0x40)\n      0x08c379a000000000000000000000000000000000000000000000000000000000\n      dup2\n      mstore\n      0x04\n      add\n      tag_237\n      swap1\n      tag_238\n      jump\t// in\n    tag_237:\n      mload(0x40)\n      dup1\n      swap2\n      sub\n      swap1\n      revert\n    tag_236:\n        /* \"smartContract_eliseu.sol\":3791:3838  StageValidated(projectId, stageId, validatorID) */\n      0x9f64639419de97116219d1f7c000638905fa8176602dc9afd7d28338b6a803cc\n        /* \"smartContract_eliseu.sol\":3806:3815  projectId */\n      dup9\n        /* \"smartContract_eliseu.sol\":3817:3824  stageId */\n      dup9\n        /* \"smartContract_eliseu.sol\":3826:3837  validatorID */\n      dup9\n        /* \"smartContract_eliseu.sol\":3791:3838  StageValidated(projectId, stageId, validatorID) */\n      mload(0x40)\n      tag_240\n      swap4\n      swap3\n      swap2\n      swap1\n      tag_241\n      jump\t// in\n    tag_240:\n      mload(0x40)\n      dup1\n      swap2\n      sub\n      swap1\n      log1\n        /* \"smartContract_eliseu.sol\":1767:2194  {... */\n      pop\n      pop\n        /* \"smartContract_eliseu.sol\":3612:3845  function validateStage(uint256 projectId, uint256 stageId, string memory validatorID)... */\n      pop\n      pop\n      pop\n      pop\n      pop\n      pop\n      jump\t// out\n    tag_217:\n      dup3\n      dup1\n      sload\n      dup3\n      dup3\n      sstore\n      swap1\n      0x00\n      mstore\n      keccak256(0x00, 0x20)\n      swap1\n      dup2\n      add\n      swap3\n      dup3\n      iszero\n      tag_242\n      jumpi\n      swap2\n      0x20\n      mul\n      dup3\n      add\n    tag_243:\n      dup3\n      dup2\n      gt\n      iszero\n      tag_244\n      jumpi\n      dup3\n      mload\n      dup3\n      swap1\n      dup2\n      tag_245\n      swap2\n      swap1\n      tag_200\n      jump\t// in\n    tag_245:\n      pop\n      swap2\n      0x20\n      add\n      swap2\n      swap1\n      0x01\n      add\n      swap1\n      jump(tag_243)\n    tag_244:\n    tag_242:\n      pop\n      swap1\n      pop\n      tag_246\n      swap2\n      swap1\n      tag_247\n      jump\t// in\n    tag_246:\n      pop\n      swap1\n      jump\t// out\n    tag_247:\n    tag_248:\n      dup1\n      dup3\n      gt\n      iszero\n      tag_249\n      jumpi\n      0x00\n      dup2\n      dup2\n      tag_250\n      swap2\n      swap1\n      tag_251\n      jump\t// in\n    tag_250:\n      pop\n      0x01\n      add\n      jump(tag_248)\n    tag_249:\n      pop\n      swap1\n      jump\t// out\n    tag_251:\n      pop\n      dup1\n      sload\n      tag_252\n      swap1\n      tag_85\n      jump\t// in\n    tag_252:\n      0x00\n      dup3\n      sstore\n      dup1\n      0x1f\n      lt\n      tag_254\n      jumpi\n      pop\n      jump(tag_253)\n    tag_254:\n      0x1f\n      add\n      0x20\n      swap1\n      div\n      swap1\n      0x00\n      mstore\n      keccak256(0x00, 0x20)\n      swap1\n      dup2\n      add\n      swap1\n      tag_255\n      swap2\n      swap1\n      tag_256\n      jump\t// in\n    tag_255:\n    tag_253:\n      pop\n      jump\t// out\n    tag_256:\n    tag_257:\n      dup1\n      dup3\n      gt\n      iszero\n      tag_258\n      jumpi\n      0x00\n      dup2\n      0x00\n      swap1\n      sstore\n      pop\n      0x01\n      add\n      jump(tag_257)\n    tag_258:\n      pop\n      swap1\n      jump\t// out\n        /* \"#utility.yul\":7:82   */\n    tag_259:\n        /* \"#utility.yul\":40:46   */\n      0x00\n        /* \"#utility.yul\":73:75   */\n      0x40\n        /* \"#utility.yul\":67:76   */\n      mload\n        /* \"#utility.yul\":57:76   */\n      swap1\n      pop\n        /* \"#utility.yul\":7:82   */\n      swap1\n      jump\t// out\n        /* \"#utility.yul\":88:205   */\n    tag_260:\n        /* \"#utility.yul\":197:198   */\n      0x00\n        /* \"#utility.yul\":194:195   */\n      dup1\n        /* \"#utility.yul\":187:199   */\n      revert\n        /* \"#utility.yul\":211:328   */\n    tag_261:\n        /* \"#utility.yul\":320:321   */\n      0x00\n        /* \"#utility.yul\":317:318   */\n      dup1\n        /* \"#utility.yul\":310:322   */\n      revert\n        /* \"#utility.yul\":334:411   */\n    tag_262:\n        /* \"#utility.yul\":371:378   */\n      0x00\n        /* \"#utility.yul\":400:405   */\n      dup2\n        /* \"#utility.yul\":389:405   */\n      swap1\n      pop\n        /* \"#utility.yul\":334:411   */\n      swap2\n      swap1\n      pop\n      jump\t// out\n        /* \"#utility.yul\":417:539   */\n    tag_263:\n        /* \"#utility.yul\":490:514   */\n      tag_332\n        /* \"#utility.yul\":508:513   */\n      dup2\n        /* \"#utility.yul\":490:514   */\n      tag_262\n      jump\t// in\n    tag_332:\n        /* \"#utility.yul\":483:488   */\n      dup2\n        /* \"#utility.yul\":480:515   */\n      eq\n        /* \"#utility.yul\":470:533   */\n      tag_333\n      jumpi\n        /* \"#utility.yul\":529:530   */\n      0x00\n        /* \"#utility.yul\":526:527   */\n      dup1\n        /* \"#utility.yul\":519:531   */\n      revert\n        /* \"#utility.yul\":470:533   */\n    tag_333:\n        /* \"#utility.yul\":417:539   */\n      pop\n      jump\t// out\n        /* \"#utility.yul\":545:684   */\n    tag_264:\n        /* \"#utility.yul\":591:596   */\n      0x00\n        /* \"#utility.yul\":629:635   */\n      dup2\n        /* \"#utility.yul\":616:636   */\n      calldataload\n        /* \"#utility.yul\":607:636   */\n      swap1\n      pop\n        /* \"#utility.yul\":645:678   */\n      tag_335\n        /* \"#utility.yul\":672:677   */\n      dup2\n        /* \"#utility.yul\":645:678   */\n      tag_263\n      jump\t// in\n    tag_335:\n        /* \"#utility.yul\":545:684   */\n      swap3\n      swap2\n      pop\n      pop\n      jump\t// out\n        /* \"#utility.yul\":690:1164   */\n    tag_18:\n        /* \"#utility.yul\":758:764   */\n      0x00\n        /* \"#utility.yul\":766:772   */\n      dup1\n        /* \"#utility.yul\":815:817   */\n      0x40\n        /* \"#utility.yul\":803:812   */\n      dup4\n        /* \"#utility.yul\":794:801   */\n      dup6\n        /* \"#utility.yul\":790:813   */\n      sub\n        /* \"#utility.yul\":786:818   */\n      slt\n        /* \"#utility.yul\":783:902   */\n      iszero\n      tag_337\n      jumpi\n        /* \"#utility.yul\":821:900   */\n      tag_338\n      tag_260\n      jump\t// in\n    tag_338:\n        /* \"#utility.yul\":783:902   */\n    tag_337:\n        /* \"#utility.yul\":941:942   */\n      0x00\n        /* \"#utility.yul\":966:1019   */\n      tag_339\n        /* \"#utility.yul\":1011:1018   */\n      dup6\n        /* \"#utility.yul\":1002:1008   */\n      dup3\n        /* \"#utility.yul\":991:1000   */\n      dup7\n        /* \"#utility.yul\":987:1009   */\n      add\n        /* \"#utility.yul\":966:1019   */\n      tag_264\n      jump\t// in\n    tag_339:\n        /* \"#utility.yul\":956:1019   */\n      swap3\n      pop\n        /* \"#utility.yul\":912:1029   */\n      pop\n        /* \"#utility.yul\":1068:1070   */\n      0x20\n        /* \"#utility.yul\":1094:1147   */\n      tag_340\n        /* \"#utility.yul\":1139:1146   */\n      dup6\n        /* \"#utility.yul\":1130:1136   */\n      dup3\n        /* \"#utility.yul\":1119:1128   */\n      dup7\n        /* \"#utility.yul\":1115:1137   */\n      add\n        /* \"#utility.yul\":1094:1147   */\n      tag_264\n      jump\t// in\n    tag_340:\n        /* \"#utility.yul\":1084:1147   */\n      swap2\n      pop\n        /* \"#utility.yul\":1039:1157   */\n      pop\n        /* \"#utility.yul\":690:1164   */\n      swap3\n      pop\n      swap3\n      swap1\n      pop\n      jump\t// out\n        /* \"#utility.yul\":1170:1499   */\n    tag_22:\n        /* \"#utility.yul\":1229:1235   */\n      0x00\n        /* \"#utility.yul\":1278:1280   */\n      0x20\n        /* \"#utility.yul\":1266:1275   */\n      dup3\n        /* \"#utility.yul\":1257:1264   */\n      dup5\n        /* \"#utility.yul\":1253:1276   */\n      sub\n        /* \"#utility.yul\":1249:1281   */\n      slt\n        /* \"#utility.yul\":1246:1365   */\n      iszero\n      tag_342\n      jumpi\n        /* \"#utility.yul\":1284:1363   */\n      tag_343\n      tag_260\n      jump\t// in\n    tag_343:\n        /* \"#utility.yul\":1246:1365   */\n    tag_342:\n        /* \"#utility.yul\":1404:1405   */\n      0x00\n        /* \"#utility.yul\":1429:1482   */\n      tag_344\n        /* \"#utility.yul\":1474:1481   */\n      dup5\n        /* \"#utility.yul\":1465:1471   */\n      dup3\n        /* \"#utility.yul\":1454:1463   */\n      dup6\n        /* \"#utility.yul\":1450:1472   */\n      add\n        /* \"#utility.yul\":1429:1482   */\n      tag_264\n      jump\t// in\n    tag_344:\n        /* \"#utility.yul\":1419:1482   */\n      swap2\n      pop\n        /* \"#utility.yul\":1375:1492   */\n      pop\n        /* \"#utility.yul\":1170:1499   */\n      swap3\n      swap2\n      pop\n      pop\n      jump\t// out\n        /* \"#utility.yul\":1505:1604   */\n    tag_265:\n        /* \"#utility.yul\":1557:1563   */\n      0x00\n        /* \"#utility.yul\":1591:1596   */\n      dup2\n        /* \"#utility.yul\":1585:1597   */\n      mload\n        /* \"#utility.yul\":1575:1597   */\n      swap1\n      pop\n        /* \"#utility.yul\":1505:1604   */\n      swap2\n      swap1\n      pop\n      jump\t// out\n        /* \"#utility.yul\":1610:1779   */\n    tag_266:\n        /* \"#utility.yul\":1694:1705   */\n      0x00\n        /* \"#utility.yul\":1728:1734   */\n      dup3\n        /* \"#utility.yul\":1723:1726   */\n      dup3\n        /* \"#utility.yul\":1716:1735   */\n      mstore\n        /* \"#utility.yul\":1768:1772   */\n      0x20\n        /* \"#utility.yul\":1763:1766   */\n      dup3\n        /* \"#utility.yul\":1759:1773   */\n      add\n        /* \"#utility.yul\":1744:1773   */\n      swap1\n      pop\n        /* \"#utility.yul\":1610:1779   */\n      swap3\n      swap2\n      pop\n      pop\n      jump\t// out\n        /* \"#utility.yul\":1785:2031   */\n    tag_267:\n        /* \"#utility.yul\":1866:1867   */\n      0x00\n        /* \"#utility.yul\":1876:1989   */\n    tag_348:\n        /* \"#utility.yul\":1890:1896   */\n      dup4\n        /* \"#utility.yul\":1887:1888   */\n      dup2\n        /* \"#utility.yul\":1884:1897   */\n      lt\n        /* \"#utility.yul\":1876:1989   */\n      iszero\n      tag_350\n      jumpi\n        /* \"#utility.yul\":1975:1976   */\n      dup1\n        /* \"#utility.yul\":1970:1973   */\n      dup3\n        /* \"#utility.yul\":1966:1977   */\n      add\n        /* \"#utility.yul\":1960:1978   */\n      mload\n        /* \"#utility.yul\":1956:1957   */\n      dup2\n        /* \"#utility.yul\":1951:1954   */\n      dup5\n        /* \"#utility.yul\":1947:1958   */\n      add\n        /* \"#utility.yul\":1940:1979   */\n      mstore\n        /* \"#utility.yul\":1912:1914   */\n      0x20\n        /* \"#utility.yul\":1909:1910   */\n      dup2\n        /* \"#utility.yul\":1905:1915   */\n      add\n        /* \"#utility.yul\":1900:1915   */\n      swap1\n      pop\n        /* \"#utility.yul\":1876:1989   */\n      jump(tag_348)\n    tag_350:\n        /* \"#utility.yul\":2023:2024   */\n      0x00\n        /* \"#utility.yul\":2014:2020   */\n      dup5\n        /* \"#utility.yul\":2009:2012   */\n      dup5\n        /* \"#utility.yul\":2005:2021   */\n      add\n        /* \"#utility.yul\":1998:2025   */\n      mstore\n        /* \"#utility.yul\":1847:2031   */\n      pop\n        /* \"#utility.yul\":1785:2031   */\n      pop\n      pop\n      pop\n      jump\t// out\n        /* \"#utility.yul\":2037:2139   */\n    tag_268:\n        /* \"#utility.yul\":2078:2084   */\n      0x00\n        /* \"#utility.yul\":2129:2131   */\n      0x1f\n        /* \"#utility.yul\":2125:2132   */\n      not\n        /* \"#utility.yul\":2120:2122   */\n      0x1f\n        /* \"#utility.yul\":2113:2118   */\n      dup4\n        /* \"#utility.yul\":2109:2123   */\n      add\n        /* \"#utility.yul\":2105:2133   */\n      and\n        /* \"#utility.yul\":2095:2133   */\n      swap1\n      pop\n        /* \"#utility.yul\":2037:2139   */\n      swap2\n      swap1\n      pop\n      jump\t// out\n        /* \"#utility.yul\":2145:2522   */\n    tag_269:\n        /* \"#utility.yul\":2233:2236   */\n      0x00\n        /* \"#utility.yul\":2261:2300   */\n      tag_353\n        /* \"#utility.yul\":2294:2299   */\n      dup3\n        /* \"#utility.yul\":2261:2300   */\n      tag_265\n      jump\t// in\n    tag_353:\n        /* \"#utility.yul\":2316:2387   */\n      tag_354\n        /* \"#utility.yul\":2380:2386   */\n      dup2\n        /* \"#utility.yul\":2375:2378   */\n      dup6\n        /* \"#utility.yul\":2316:2387   */\n      tag_266\n      jump\t// in\n    tag_354:\n        /* \"#utility.yul\":2309:2387   */\n      swap4\n      pop\n        /* \"#utility.yul\":2396:2461   */\n      tag_355\n        /* \"#utility.yul\":2454:2460   */\n      dup2\n        /* \"#utility.yul\":2449:2452   */\n      dup6\n        /* \"#utility.yul\":2442:2446   */\n      0x20\n        /* \"#utility.yul\":2435:2440   */\n      dup7\n        /* \"#utility.yul\":2431:2447   */\n      add\n        /* \"#utility.yul\":2396:2461   */\n      tag_267\n      jump\t// in\n    tag_355:\n        /* \"#utility.yul\":2486:2515   */\n      tag_356\n        /* \"#utility.yul\":2508:2514   */\n      dup2\n        /* \"#utility.yul\":2486:2515   */\n      tag_268\n      jump\t// in\n    tag_356:\n        /* \"#utility.yul\":2481:2484   */\n      dup5\n        /* \"#utility.yul\":2477:2516   */\n      add\n        /* \"#utility.yul\":2470:2516   */\n      swap2\n      pop\n        /* \"#utility.yul\":2237:2522   */\n      pop\n        /* \"#utility.yul\":2145:2522   */\n      swap3\n      swap2\n      pop\n      pop\n      jump\t// out\n        /* \"#utility.yul\":2528:2646   */\n    tag_270:\n        /* \"#utility.yul\":2615:2639   */\n      tag_358\n        /* \"#utility.yul\":2633:2638   */\n      dup2\n        /* \"#utility.yul\":2615:2639   */\n      tag_262\n      jump\t// in\n    tag_358:\n        /* \"#utility.yul\":2610:2613   */\n      dup3\n        /* \"#utility.yul\":2603:2640   */\n      mstore\n        /* \"#utility.yul\":2528:2646   */\n      pop\n      pop\n      jump\t// out\n        /* \"#utility.yul\":2652:2742   */\n    tag_271:\n        /* \"#utility.yul\":2686:2693   */\n      0x00\n        /* \"#utility.yul\":2729:2734   */\n      dup2\n        /* \"#utility.yul\":2722:2735   */\n      iszero\n        /* \"#utility.yul\":2715:2736   */\n      iszero\n        /* \"#utility.yul\":2704:2736   */\n      swap1\n      pop\n        /* \"#utility.yul\":2652:2742   */\n      swap2\n      swap1\n      pop\n      jump\t// out\n        /* \"#utility.yul\":2748:2857   */\n    tag_272:\n        /* \"#utility.yul\":2829:2850   */\n      tag_361\n        /* \"#utility.yul\":2844:2849   */\n      dup2\n        /* \"#utility.yul\":2829:2850   */\n      tag_271\n      jump\t// in\n    tag_361:\n        /* \"#utility.yul\":2824:2827   */\n      dup3\n        /* \"#utility.yul\":2817:2851   */\n      mstore\n        /* \"#utility.yul\":2748:2857   */\n      pop\n      pop\n      jump\t// out\n        /* \"#utility.yul\":2863:4525   */\n    tag_25:\n        /* \"#utility.yul\":3302:3306   */\n      0x00\n        /* \"#utility.yul\":3340:3343   */\n      0x0140\n        /* \"#utility.yul\":3329:3338   */\n      dup3\n        /* \"#utility.yul\":3325:3344   */\n      add\n        /* \"#utility.yul\":3317:3344   */\n      swap1\n      pop\n        /* \"#utility.yul\":3390:3399   */\n      dup2\n        /* \"#utility.yul\":3384:3388   */\n      dup2\n        /* \"#utility.yul\":3380:3400   */\n      sub\n        /* \"#utility.yul\":3376:3377   */\n      0x00\n        /* \"#utility.yul\":3365:3374   */\n      dup4\n        /* \"#utility.yul\":3361:3378   */\n      add\n        /* \"#utility.yul\":3354:3401   */\n      mstore\n        /* \"#utility.yul\":3418:3496   */\n      tag_363\n        /* \"#utility.yul\":3491:3495   */\n      dup2\n        /* \"#utility.yul\":3482:3488   */\n      dup14\n        /* \"#utility.yul\":3418:3496   */\n      tag_269\n      jump\t// in\n    tag_363:\n        /* \"#utility.yul\":3410:3496   */\n      swap1\n      pop\n        /* \"#utility.yul\":3543:3552   */\n      dup2\n        /* \"#utility.yul\":3537:3541   */\n      dup2\n        /* \"#utility.yul\":3533:3553   */\n      sub\n        /* \"#utility.yul\":3528:3530   */\n      0x20\n        /* \"#utility.yul\":3517:3526   */\n      dup4\n        /* \"#utility.yul\":3513:3531   */\n      add\n        /* \"#utility.yul\":3506:3554   */\n      mstore\n        /* \"#utility.yul\":3571:3649   */\n      tag_364\n        /* \"#utility.yul\":3644:3648   */\n      dup2\n        /* \"#utility.yul\":3635:3641   */\n      dup13\n        /* \"#utility.yul\":3571:3649   */\n      tag_269\n      jump\t// in\n    tag_364:\n        /* \"#utility.yul\":3563:3649   */\n      swap1\n      pop\n        /* \"#utility.yul\":3696:3705   */\n      dup2\n        /* \"#utility.yul\":3690:3694   */\n      dup2\n        /* \"#utility.yul\":3686:3706   */\n      sub\n        /* \"#utility.yul\":3681:3683   */\n      0x40\n        /* \"#utility.yul\":3670:3679   */\n      dup4\n        /* \"#utility.yul\":3666:3684   */\n      add\n        /* \"#utility.yul\":3659:3707   */\n      mstore\n        /* \"#utility.yul\":3724:3802   */\n      tag_365\n        /* \"#utility.yul\":3797:3801   */\n      dup2\n        /* \"#utility.yul\":3788:3794   */\n      dup12\n        /* \"#utility.yul\":3724:3802   */\n      tag_269\n      jump\t// in\n    tag_365:\n        /* \"#utility.yul\":3716:3802   */\n      swap1\n      pop\n        /* \"#utility.yul\":3849:3858   */\n      dup2\n        /* \"#utility.yul\":3843:3847   */\n      dup2\n        /* \"#utility.yul\":3839:3859   */\n      sub\n        /* \"#utility.yul\":3834:3836   */\n      0x60\n        /* \"#utility.yul\":3823:3832   */\n      dup4\n        /* \"#utility.yul\":3819:3837   */\n      add\n        /* \"#utility.yul\":3812:3860   */\n      mstore\n        /* \"#utility.yul\":3877:3955   */\n      tag_366\n        /* \"#utility.yul\":3950:3954   */\n      dup2\n        /* \"#utility.yul\":3941:3947   */\n      dup11\n        /* \"#utility.yul\":3877:3955   */\n      tag_269\n      jump\t// in\n    tag_366:\n        /* \"#utility.yul\":3869:3955   */\n      swap1\n      pop\n        /* \"#utility.yul\":4003:4012   */\n      dup2\n        /* \"#utility.yul\":3997:4001   */\n      dup2\n        /* \"#utility.yul\":3993:4013   */\n      sub\n        /* \"#utility.yul\":3987:3990   */\n      0x80\n        /* \"#utility.yul\":3976:3985   */\n      dup4\n        /* \"#utility.yul\":3972:3991   */\n      add\n        /* \"#utility.yul\":3965:4014   */\n      mstore\n        /* \"#utility.yul\":4031:4109   */\n      tag_367\n        /* \"#utility.yul\":4104:4108   */\n      dup2\n        /* \"#utility.yul\":4095:4101   */\n      dup10\n        /* \"#utility.yul\":4031:4109   */\n      tag_269\n      jump\t// in\n    tag_367:\n        /* \"#utility.yul\":4023:4109   */\n      swap1\n      pop\n        /* \"#utility.yul\":4119:4192   */\n      tag_368\n        /* \"#utility.yul\":4187:4190   */\n      0xa0\n        /* \"#utility.yul\":4176:4185   */\n      dup4\n        /* \"#utility.yul\":4172:4191   */\n      add\n        /* \"#utility.yul\":4163:4169   */\n      dup9\n        /* \"#utility.yul\":4119:4192   */\n      tag_270\n      jump\t// in\n    tag_368:\n        /* \"#utility.yul\":4202:4275   */\n      tag_369\n        /* \"#utility.yul\":4270:4273   */\n      0xc0\n        /* \"#utility.yul\":4259:4268   */\n      dup4\n        /* \"#utility.yul\":4255:4274   */\n      add\n        /* \"#utility.yul\":4246:4252   */\n      dup8\n        /* \"#utility.yul\":4202:4275   */\n      tag_270\n      jump\t// in\n    tag_369:\n        /* \"#utility.yul\":4285:4358   */\n      tag_370\n        /* \"#utility.yul\":4353:4356   */\n      0xe0\n        /* \"#utility.yul\":4342:4351   */\n      dup4\n        /* \"#utility.yul\":4338:4357   */\n      add\n        /* \"#utility.yul\":4329:4335   */\n      dup7\n        /* \"#utility.yul\":4285:4358   */\n      tag_270\n      jump\t// in\n    tag_370:\n        /* \"#utility.yul\":4368:4441   */\n      tag_371\n        /* \"#utility.yul\":4436:4439   */\n      0x0100\n        /* \"#utility.yul\":4425:4434   */\n      dup4\n        /* \"#utility.yul\":4421:4440   */\n      add\n        /* \"#utility.yul\":4412:4418   */\n      dup6\n        /* \"#utility.yul\":4368:4441   */\n      tag_270\n      jump\t// in\n    tag_371:\n        /* \"#utility.yul\":4451:4518   */\n      tag_372\n        /* \"#utility.yul\":4513:4516   */\n      0x0120\n        /* \"#utility.yul\":4502:4511   */\n      dup4\n        /* \"#utility.yul\":4498:4517   */\n      add\n        /* \"#utility.yul\":4489:4495   */\n      dup5\n        /* \"#utility.yul\":4451:4518   */\n      tag_272\n      jump\t// in\n    tag_372:\n        /* \"#utility.yul\":2863:4525   */\n      swap12\n      swap11\n      pop\n      pop\n      pop\n      pop\n      pop\n      pop\n      pop\n      pop\n      pop\n      pop\n      pop\n      jump\t// out\n        /* \"#utility.yul\":4531:4753   */\n    tag_30:\n        /* \"#utility.yul\":4624:4628   */\n      0x00\n        /* \"#utility.yul\":4662:4664   */\n      0x20\n        /* \"#utility.yul\":4651:4660   */\n      dup3\n        /* \"#utility.yul\":4647:4665   */\n      add\n        /* \"#utility.yul\":4639:4665   */\n      swap1\n      pop\n        /* \"#utility.yul\":4675:4746   */\n      tag_374\n        /* \"#utility.yul\":4743:4744   */\n      0x00\n        /* \"#utility.yul\":4732:4741   */\n      dup4\n        /* \"#utility.yul\":4728:4745   */\n      add\n        /* \"#utility.yul\":4719:4725   */\n      dup5\n        /* \"#utility.yul\":4675:4746   */\n      tag_270\n      jump\t// in\n    tag_374:\n        /* \"#utility.yul\":4531:4753   */\n      swap3\n      swap2\n      pop\n      pop\n      jump\t// out\n        /* \"#utility.yul\":4759:4873   */\n    tag_273:\n        /* \"#utility.yul\":4826:4832   */\n      0x00\n        /* \"#utility.yul\":4860:4865   */\n      dup2\n        /* \"#utility.yul\":4854:4866   */\n      mload\n        /* \"#utility.yul\":4844:4866   */\n      swap1\n      pop\n        /* \"#utility.yul\":4759:4873   */\n      swap2\n      swap1\n      pop\n      jump\t// out\n        /* \"#utility.yul\":4879:5063   */\n    tag_274:\n        /* \"#utility.yul\":4978:4989   */\n      0x00\n        /* \"#utility.yul\":5012:5018   */\n      dup3\n        /* \"#utility.yul\":5007:5010   */\n      dup3\n        /* \"#utility.yul\":5000:5019   */\n      mstore\n        /* \"#utility.yul\":5052:5056   */\n      0x20\n        /* \"#utility.yul\":5047:5050   */\n      dup3\n        /* \"#utility.yul\":5043:5057   */\n      add\n        /* \"#utility.yul\":5028:5057   */\n      swap1\n      pop\n        /* \"#utility.yul\":4879:5063   */\n      swap3\n      swap2\n      pop\n      pop\n      jump\t// out\n        /* \"#utility.yul\":5069:5201   */\n    tag_275:\n        /* \"#utility.yul\":5136:5140   */\n      0x00\n        /* \"#utility.yul\":5159:5162   */\n      dup2\n        /* \"#utility.yul\":5151:5162   */\n      swap1\n      pop\n        /* \"#utility.yul\":5189:5193   */\n      0x20\n        /* \"#utility.yul\":5184:5187   */\n      dup3\n        /* \"#utility.yul\":5180:5194   */\n      add\n        /* \"#utility.yul\":5172:5194   */\n      swap1\n      pop\n        /* \"#utility.yul\":5069:5201   */\n      swap2\n      swap1\n      pop\n      jump\t// out\n        /* \"#utility.yul\":5207:5315   */\n    tag_276:\n        /* \"#utility.yul\":5284:5308   */\n      tag_379\n        /* \"#utility.yul\":5302:5307   */\n      dup2\n        /* \"#utility.yul\":5284:5308   */\n      tag_262\n      jump\t// in\n    tag_379:\n        /* \"#utility.yul\":5279:5282   */\n      dup3\n        /* \"#utility.yul\":5272:5309   */\n      mstore\n        /* \"#utility.yul\":5207:5315   */\n      pop\n      pop\n      jump\t// out\n        /* \"#utility.yul\":5321:5500   */\n    tag_277:\n        /* \"#utility.yul\":5390:5400   */\n      0x00\n        /* \"#utility.yul\":5411:5457   */\n      tag_381\n        /* \"#utility.yul\":5453:5456   */\n      dup4\n        /* \"#utility.yul\":5445:5451   */\n      dup4\n        /* \"#utility.yul\":5411:5457   */\n      tag_276\n      jump\t// in\n    tag_381:\n        /* \"#utility.yul\":5489:5493   */\n      0x20\n        /* \"#utility.yul\":5484:5487   */\n      dup4\n        /* \"#utility.yul\":5480:5494   */\n      add\n        /* \"#utility.yul\":5466:5494   */\n      swap1\n      pop\n        /* \"#utility.yul\":5321:5500   */\n      swap3\n      swap2\n      pop\n      pop\n      jump\t// out\n        /* \"#utility.yul\":5506:5619   */\n    tag_278:\n        /* \"#utility.yul\":5576:5580   */\n      0x00\n        /* \"#utility.yul\":5608:5612   */\n      0x20\n        /* \"#utility.yul\":5603:5606   */\n      dup3\n        /* \"#utility.yul\":5599:5613   */\n      add\n        /* \"#utility.yul\":5591:5613   */\n      swap1\n      pop\n        /* \"#utility.yul\":5506:5619   */\n      swap2\n      swap1\n      pop\n      jump\t// out\n        /* \"#utility.yul\":5655:6387   */\n    tag_279:\n        /* \"#utility.yul\":5774:5777   */\n      0x00\n        /* \"#utility.yul\":5803:5857   */\n      tag_384\n        /* \"#utility.yul\":5851:5856   */\n      dup3\n        /* \"#utility.yul\":5803:5857   */\n      tag_273\n      jump\t// in\n    tag_384:\n        /* \"#utility.yul\":5873:5959   */\n      tag_385\n        /* \"#utility.yul\":5952:5958   */\n      dup2\n        /* \"#utility.yul\":5947:5950   */\n      dup6\n        /* \"#utility.yul\":5873:5959   */\n      tag_274\n      jump\t// in\n    tag_385:\n        /* \"#utility.yul\":5866:5959   */\n      swap4\n      pop\n        /* \"#utility.yul\":5983:6039   */\n      tag_386\n        /* \"#utility.yul\":6033:6038   */\n      dup4\n        /* \"#utility.yul\":5983:6039   */\n      tag_275\n      jump\t// in\n    tag_386:\n        /* \"#utility.yul\":6062:6069   */\n      dup1\n        /* \"#utility.yul\":6093:6094   */\n      0x00\n        /* \"#utility.yul\":6078:6362   */\n    tag_387:\n        /* \"#utility.yul\":6103:6109   */\n      dup4\n        /* \"#utility.yul\":6100:6101   */\n      dup2\n        /* \"#utility.yul\":6097:6110   */\n      lt\n        /* \"#utility.yul\":6078:6362   */\n      iszero\n      tag_389\n      jumpi\n        /* \"#utility.yul\":6179:6185   */\n      dup2\n        /* \"#utility.yul\":6173:6186   */\n      mload\n        /* \"#utility.yul\":6206:6269   */\n      tag_390\n        /* \"#utility.yul\":6265:6268   */\n      dup9\n        /* \"#utility.yul\":6250:6263   */\n      dup3\n        /* \"#utility.yul\":6206:6269   */\n      tag_277\n      jump\t// in\n    tag_390:\n        /* \"#utility.yul\":6199:6269   */\n      swap8\n      pop\n        /* \"#utility.yul\":6292:6352   */\n      tag_391\n        /* \"#utility.yul\":6345:6351   */\n      dup4\n        /* \"#utility.yul\":6292:6352   */\n      tag_278\n      jump\t// in\n    tag_391:\n        /* \"#utility.yul\":6282:6352   */\n      swap3\n      pop\n        /* \"#utility.yul\":6138:6362   */\n      pop\n        /* \"#utility.yul\":6125:6126   */\n      0x01\n        /* \"#utility.yul\":6122:6123   */\n      dup2\n        /* \"#utility.yul\":6118:6127   */\n      add\n        /* \"#utility.yul\":6113:6127   */\n      swap1\n      pop\n        /* \"#utility.yul\":6078:6362   */\n      jump(tag_387)\n    tag_389:\n        /* \"#utility.yul\":6082:6096   */\n      pop\n        /* \"#utility.yul\":6378:6381   */\n      dup6\n        /* \"#utility.yul\":6371:6381   */\n      swap4\n      pop\n        /* \"#utility.yul\":5779:6387   */\n      pop\n      pop\n      pop\n        /* \"#utility.yul\":5655:6387   */\n      swap3\n      swap2\n      pop\n      pop\n      jump\t// out\n        /* \"#utility.yul\":6393:6766   */\n    tag_34:\n        /* \"#utility.yul\":6536:6540   */\n      0x00\n        /* \"#utility.yul\":6574:6576   */\n      0x20\n        /* \"#utility.yul\":6563:6572   */\n      dup3\n        /* \"#utility.yul\":6559:6577   */\n      add\n        /* \"#utility.yul\":6551:6577   */\n      swap1\n      pop\n        /* \"#utility.yul\":6623:6632   */\n      dup2\n        /* \"#utility.yul\":6617:6621   */\n      dup2\n        /* \"#utility.yul\":6613:6633   */\n      sub\n        /* \"#utility.yul\":6609:6610   */\n      0x00\n        /* \"#utility.yul\":6598:6607   */\n      dup4\n        /* \"#utility.yul\":6594:6611   */\n      add\n        /* \"#utility.yul\":6587:6634   */\n      mstore\n        /* \"#utility.yul\":6651:6759   */\n      tag_393\n        /* \"#utility.yul\":6754:6758   */\n      dup2\n        /* \"#utility.yul\":6745:6751   */\n      dup5\n        /* \"#utility.yul\":6651:6759   */\n      tag_279\n      jump\t// in\n    tag_393:\n        /* \"#utility.yul\":6643:6759   */\n      swap1\n      pop\n        /* \"#utility.yul\":6393:6766   */\n      swap3\n      swap2\n      pop\n      pop\n      jump\t// out\n        /* \"#utility.yul\":6772:8121   */\n    tag_39:\n        /* \"#utility.yul\":7135:7139   */\n      0x00\n        /* \"#utility.yul\":7173:7176   */\n      0x0100\n        /* \"#utility.yul\":7162:7171   */\n      dup3\n        /* \"#utility.yul\":7158:7177   */\n      add\n        /* \"#utility.yul\":7150:7177   */\n      swap1\n      pop\n        /* \"#utility.yul\":7223:7232   */\n      dup2\n        /* \"#utility.yul\":7217:7221   */\n      dup2\n        /* \"#utility.yul\":7213:7233   */\n      sub\n        /* \"#utility.yul\":7209:7210   */\n      0x00\n        /* \"#utility.yul\":7198:7207   */\n      dup4\n        /* \"#utility.yul\":7194:7211   */\n      add\n        /* \"#utility.yul\":7187:7234   */\n      mstore\n        /* \"#utility.yul\":7251:7329   */\n      tag_395\n        /* \"#utility.yul\":7324:7328   */\n      dup2\n        /* \"#utility.yul\":7315:7321   */\n      dup12\n        /* \"#utility.yul\":7251:7329   */\n      tag_269\n      jump\t// in\n    tag_395:\n        /* \"#utility.yul\":7243:7329   */\n      swap1\n      pop\n        /* \"#utility.yul\":7376:7385   */\n      dup2\n        /* \"#utility.yul\":7370:7374   */\n      dup2\n        /* \"#utility.yul\":7366:7386   */\n      sub\n        /* \"#utility.yul\":7361:7363   */\n      0x20\n        /* \"#utility.yul\":7350:7359   */\n      dup4\n        /* \"#utility.yul\":7346:7364   */\n      add\n        /* \"#utility.yul\":7339:7387   */\n      mstore\n        /* \"#utility.yul\":7404:7482   */\n      tag_396\n        /* \"#utility.yul\":7477:7481   */\n      dup2\n        /* \"#utility.yul\":7468:7474   */\n      dup11\n        /* \"#utility.yul\":7404:7482   */\n      tag_269\n      jump\t// in\n    tag_396:\n        /* \"#utility.yul\":7396:7482   */\n      swap1\n      pop\n        /* \"#utility.yul\":7529:7538   */\n      dup2\n        /* \"#utility.yul\":7523:7527   */\n      dup2\n        /* \"#utility.yul\":7519:7539   */\n      sub\n        /* \"#utility.yul\":7514:7516   */\n      0x40\n        /* \"#utility.yul\":7503:7512   */\n      dup4\n        /* \"#utility.yul\":7499:7517   */\n      add\n        /* \"#utility.yul\":7492:7540   */\n      mstore\n        /* \"#utility.yul\":7557:7635   */\n      tag_397\n        /* \"#utility.yul\":7630:7634   */\n      dup2\n        /* \"#utility.yul\":7621:7627   */\n      dup10\n        /* \"#utility.yul\":7557:7635   */\n      tag_269\n      jump\t// in\n    tag_397:\n        /* \"#utility.yul\":7549:7635   */\n      swap1\n      pop\n        /* \"#utility.yul\":7682:7691   */\n      dup2\n        /* \"#utility.yul\":7676:7680   */\n      dup2\n        /* \"#utility.yul\":7672:7692   */\n      sub\n        /* \"#utility.yul\":7667:7669   */\n      0x60\n        /* \"#utility.yul\":7656:7665   */\n      dup4\n        /* \"#utility.yul\":7652:7670   */\n      add\n        /* \"#utility.yul\":7645:7693   */\n      mstore\n        /* \"#utility.yul\":7710:7788   */\n      tag_398\n        /* \"#utility.yul\":7783:7787   */\n      dup2\n        /* \"#utility.yul\":7774:7780   */\n      dup9\n        /* \"#utility.yul\":7710:7788   */\n      tag_269\n      jump\t// in\n    tag_398:\n        /* \"#utility.yul\":7702:7788   */\n      swap1\n      pop\n        /* \"#utility.yul\":7798:7871   */\n      tag_399\n        /* \"#utility.yul\":7866:7869   */\n      0x80\n        /* \"#utility.yul\":7855:7864   */\n      dup4\n        /* \"#utility.yul\":7851:7870   */\n      add\n        /* \"#utility.yul\":7842:7848   */\n      dup8\n        /* \"#utility.yul\":7798:7871   */\n      tag_270\n      jump\t// in\n    tag_399:\n        /* \"#utility.yul\":7881:7954   */\n      tag_400\n        /* \"#utility.yul\":7949:7952   */\n      0xa0\n        /* \"#utility.yul\":7938:7947   */\n      dup4\n        /* \"#utility.yul\":7934:7953   */\n      add\n        /* \"#utility.yul\":7925:7931   */\n      dup7\n        /* \"#utility.yul\":7881:7954   */\n      tag_270\n      jump\t// in\n    tag_400:\n        /* \"#utility.yul\":7964:8037   */\n      tag_401\n        /* \"#utility.yul\":8032:8035   */\n      0xc0\n        /* \"#utility.yul\":8021:8030   */\n      dup4\n        /* \"#utility.yul\":8017:8036   */\n      add\n        /* \"#utility.yul\":8008:8014   */\n      dup6\n        /* \"#utility.yul\":7964:8037   */\n      tag_270\n      jump\t// in\n    tag_401:\n        /* \"#utility.yul\":8047:8114   */\n      tag_402\n        /* \"#utility.yul\":8109:8112   */\n      0xe0\n        /* \"#utility.yul\":8098:8107   */\n      dup4\n        /* \"#utility.yul\":8094:8113   */\n      add\n        /* \"#utility.yul\":8085:8091   */\n      dup5\n        /* \"#utility.yul\":8047:8114   */\n      tag_272\n      jump\t// in\n    tag_402:\n        /* \"#utility.yul\":6772:8121   */\n      swap10\n      swap9\n      pop\n      pop\n      pop\n      pop\n      pop\n      pop\n      pop\n      pop\n      pop\n      jump\t// out\n        /* \"#utility.yul\":8127:8251   */\n    tag_280:\n        /* \"#utility.yul\":8204:8210   */\n      0x00\n        /* \"#utility.yul\":8238:8243   */\n      dup2\n        /* \"#utility.yul\":8232:8244   */\n      mload\n        /* \"#utility.yul\":8222:8244   */\n      swap1\n      pop\n        /* \"#utility.yul\":8127:8251   */\n      swap2\n      swap1\n      pop\n      jump\t// out\n        /* \"#utility.yul\":8257:8451   */\n    tag_281:\n        /* \"#utility.yul\":8366:8377   */\n      0x00\n        /* \"#utility.yul\":8400:8406   */\n      dup3\n        /* \"#utility.yul\":8395:8398   */\n      dup3\n        /* \"#utility.yul\":8388:8407   */\n      mstore\n        /* \"#utility.yul\":8440:8444   */\n      0x20\n        /* \"#utility.yul\":8435:8438   */\n      dup3\n        /* \"#utility.yul\":8431:8445   */\n      add\n        /* \"#utility.yul\":8416:8445   */\n      swap1\n      pop\n        /* \"#utility.yul\":8257:8451   */\n      swap3\n      swap2\n      pop\n      pop\n      jump\t// out\n        /* \"#utility.yul\":8457:8599   */\n    tag_282:\n        /* \"#utility.yul\":8534:8538   */\n      0x00\n        /* \"#utility.yul\":8557:8560   */\n      dup2\n        /* \"#utility.yul\":8549:8560   */\n      swap1\n      pop\n        /* \"#utility.yul\":8587:8591   */\n      0x20\n        /* \"#utility.yul\":8582:8585   */\n      dup3\n        /* \"#utility.yul\":8578:8592   */\n      add\n        /* \"#utility.yul\":8570:8592   */\n      swap1\n      pop\n        /* \"#utility.yul\":8457:8599   */\n      swap2\n      swap1\n      pop\n      jump\t// out\n        /* \"#utility.yul\":8605:8764   */\n    tag_283:\n        /* \"#utility.yul\":8679:8690   */\n      0x00\n        /* \"#utility.yul\":8713:8719   */\n      dup3\n        /* \"#utility.yul\":8708:8711   */\n      dup3\n        /* \"#utility.yul\":8701:8720   */\n      mstore\n        /* \"#utility.yul\":8753:8757   */\n      0x20\n        /* \"#utility.yul\":8748:8751   */\n      dup3\n        /* \"#utility.yul\":8744:8758   */\n      add\n        /* \"#utility.yul\":8729:8758   */\n      swap1\n      pop\n        /* \"#utility.yul\":8605:8764   */\n      swap3\n      swap2\n      pop\n      pop\n      jump\t// out\n        /* \"#utility.yul\":8770:9127   */\n    tag_284:\n        /* \"#utility.yul\":8848:8851   */\n      0x00\n        /* \"#utility.yul\":8876:8915   */\n      tag_408\n        /* \"#utility.yul\":8909:8914   */\n      dup3\n        /* \"#utility.yul\":8876:8915   */\n      tag_265\n      jump\t// in\n    tag_408:\n        /* \"#utility.yul\":8931:8992   */\n      tag_409\n        /* \"#utility.yul\":8985:8991   */\n      dup2\n        /* \"#utility.yul\":8980:8983   */\n      dup6\n        /* \"#utility.yul\":8931:8992   */\n      tag_283\n      jump\t// in\n    tag_409:\n        /* \"#utility.yul\":8924:8992   */\n      swap4\n      pop\n        /* \"#utility.yul\":9001:9066   */\n      tag_410\n        /* \"#utility.yul\":9059:9065   */\n      dup2\n        /* \"#utility.yul\":9054:9057   */\n      dup6\n        /* \"#utility.yul\":9047:9051   */\n      0x20\n        /* \"#utility.yul\":9040:9045   */\n      dup7\n        /* \"#utility.yul\":9036:9052   */\n      add\n        /* \"#utility.yul\":9001:9066   */\n      tag_267\n      jump\t// in\n    tag_410:\n        /* \"#utility.yul\":9091:9120   */\n      tag_411\n        /* \"#utility.yul\":9113:9119   */\n      dup2\n        /* \"#utility.yul\":9091:9120   */\n      tag_268\n      jump\t// in\n    tag_411:\n        /* \"#utility.yul\":9086:9089   */\n      dup5\n        /* \"#utility.yul\":9082:9121   */\n      add\n        /* \"#utility.yul\":9075:9121   */\n      swap2\n      pop\n        /* \"#utility.yul\":8852:9127   */\n      pop\n        /* \"#utility.yul\":8770:9127   */\n      swap3\n      swap2\n      pop\n      pop\n      jump\t// out\n        /* \"#utility.yul\":9133:9329   */\n    tag_285:\n        /* \"#utility.yul\":9222:9232   */\n      0x00\n        /* \"#utility.yul\":9257:9323   */\n      tag_413\n        /* \"#utility.yul\":9319:9322   */\n      dup4\n        /* \"#utility.yul\":9311:9317   */\n      dup4\n        /* \"#utility.yul\":9257:9323   */\n      tag_284\n      jump\t// in\n    tag_413:\n        /* \"#utility.yul\":9243:9323   */\n      swap1\n      pop\n        /* \"#utility.yul\":9133:9329   */\n      swap3\n      swap2\n      pop\n      pop\n      jump\t// out\n        /* \"#utility.yul\":9335:9458   */\n    tag_286:\n        /* \"#utility.yul\":9415:9419   */\n      0x00\n        /* \"#utility.yul\":9447:9451   */\n      0x20\n        /* \"#utility.yul\":9442:9445   */\n      dup3\n        /* \"#utility.yul\":9438:9452   */\n      add\n        /* \"#utility.yul\":9430:9452   */\n      swap1\n      pop\n        /* \"#utility.yul\":9335:9458   */\n      swap2\n      swap1\n      pop\n      jump\t// out\n        /* \"#utility.yul\":9492:10483   */\n    tag_287:\n        /* \"#utility.yul\":9631:9634   */\n      0x00\n        /* \"#utility.yul\":9660:9724   */\n      tag_416\n        /* \"#utility.yul\":9718:9723   */\n      dup3\n        /* \"#utility.yul\":9660:9724   */\n      tag_280\n      jump\t// in\n    tag_416:\n        /* \"#utility.yul\":9740:9836   */\n      tag_417\n        /* \"#utility.yul\":9829:9835   */\n      dup2\n        /* \"#utility.yul\":9824:9827   */\n      dup6\n        /* \"#utility.yul\":9740:9836   */\n      tag_281\n      jump\t// in\n    tag_417:\n        /* \"#utility.yul\":9733:9836   */\n      swap4\n      pop\n        /* \"#utility.yul\":9862:9865   */\n      dup4\n        /* \"#utility.yul\":9907:9911   */\n      0x20\n        /* \"#utility.yul\":9899:9905   */\n      dup3\n        /* \"#utility.yul\":9895:9912   */\n      mul\n        /* \"#utility.yul\":9890:9893   */\n      dup6\n        /* \"#utility.yul\":9886:9913   */\n      add\n        /* \"#utility.yul\":9937:10003   */\n      tag_418\n        /* \"#utility.yul\":9997:10002   */\n      dup6\n        /* \"#utility.yul\":9937:10003   */\n      tag_282\n      jump\t// in\n    tag_418:\n        /* \"#utility.yul\":10026:10033   */\n      dup1\n        /* \"#utility.yul\":10057:10058   */\n      0x00\n        /* \"#utility.yul\":10042:10438   */\n    tag_419:\n        /* \"#utility.yul\":10067:10073   */\n      dup6\n        /* \"#utility.yul\":10064:10065   */\n      dup2\n        /* \"#utility.yul\":10061:10074   */\n      lt\n        /* \"#utility.yul\":10042:10438   */\n      iszero\n      tag_421\n      jumpi\n        /* \"#utility.yul\":10138:10147   */\n      dup5\n        /* \"#utility.yul\":10132:10136   */\n      dup5\n        /* \"#utility.yul\":10128:10148   */\n      sub\n        /* \"#utility.yul\":10123:10126   */\n      dup10\n        /* \"#utility.yul\":10116:10149   */\n      mstore\n        /* \"#utility.yul\":10189:10195   */\n      dup2\n        /* \"#utility.yul\":10183:10196   */\n      mload\n        /* \"#utility.yul\":10217:10301   */\n      tag_422\n        /* \"#utility.yul\":10296:10300   */\n      dup6\n        /* \"#utility.yul\":10281:10294   */\n      dup3\n        /* \"#utility.yul\":10217:10301   */\n      tag_285\n      jump\t// in\n    tag_422:\n        /* \"#utility.yul\":10209:10301   */\n      swap5\n      pop\n        /* \"#utility.yul\":10324:10394   */\n      tag_423\n        /* \"#utility.yul\":10387:10393   */\n      dup4\n        /* \"#utility.yul\":10324:10394   */\n      tag_286\n      jump\t// in\n    tag_423:\n        /* \"#utility.yul\":10314:10394   */\n      swap3\n      pop\n        /* \"#utility.yul\":10423:10427   */\n      0x20\n        /* \"#utility.yul\":10418:10421   */\n      dup11\n        /* \"#utility.yul\":10414:10428   */\n      add\n        /* \"#utility.yul\":10407:10428   */\n      swap10\n      pop\n        /* \"#utility.yul\":10102:10438   */\n      pop\n        /* \"#utility.yul\":10089:10090   */\n      0x01\n        /* \"#utility.yul\":10086:10087   */\n      dup2\n        /* \"#utility.yul\":10082:10091   */\n      add\n        /* \"#utility.yul\":10077:10091   */\n      swap1\n      pop\n        /* \"#utility.yul\":10042:10438   */\n      jump(tag_419)\n    tag_421:\n        /* \"#utility.yul\":10046:10060   */\n      pop\n        /* \"#utility.yul\":10454:10458   */\n      dup3\n        /* \"#utility.yul\":10447:10458   */\n      swap8\n      pop\n        /* \"#utility.yul\":10474:10477   */\n      dup8\n        /* \"#utility.yul\":10467:10477   */\n      swap6\n      pop\n        /* \"#utility.yul\":9636:10483   */\n      pop\n      pop\n      pop\n      pop\n      pop\n        /* \"#utility.yul\":9492:10483   */\n      swap3\n      swap2\n      pop\n      pop\n      jump\t// out\n        /* \"#utility.yul\":10489:12402   */\n    tag_44:\n        /* \"#utility.yul\":11028:11032   */\n      0x00\n        /* \"#utility.yul\":11066:11069   */\n      0x0140\n        /* \"#utility.yul\":11055:11064   */\n      dup3\n        /* \"#utility.yul\":11051:11070   */\n      add\n        /* \"#utility.yul\":11043:11070   */\n      swap1\n      pop\n        /* \"#utility.yul\":11116:11125   */\n      dup2\n        /* \"#utility.yul\":11110:11114   */\n      dup2\n        /* \"#utility.yul\":11106:11126   */\n      sub\n        /* \"#utility.yul\":11102:11103   */\n      0x00\n        /* \"#utility.yul\":11091:11100   */\n      dup4\n        /* \"#utility.yul\":11087:11104   */\n      add\n        /* \"#utility.yul\":11080:11127   */\n      mstore\n        /* \"#utility.yul\":11144:11222   */\n      tag_425\n        /* \"#utility.yul\":11217:11221   */\n      dup2\n        /* \"#utility.yul\":11208:11214   */\n      dup14\n        /* \"#utility.yul\":11144:11222   */\n      tag_269\n      jump\t// in\n    tag_425:\n        /* \"#utility.yul\":11136:11222   */\n      swap1\n      pop\n        /* \"#utility.yul\":11269:11278   */\n      dup2\n        /* \"#utility.yul\":11263:11267   */\n      dup2\n        /* \"#utility.yul\":11259:11279   */\n      sub\n        /* \"#utility.yul\":11254:11256   */\n      0x20\n        /* \"#utility.yul\":11243:11252   */\n      dup4\n        /* \"#utility.yul\":11239:11257   */\n      add\n        /* \"#utility.yul\":11232:11280   */\n      mstore\n        /* \"#utility.yul\":11297:11375   */\n      tag_426\n        /* \"#utility.yul\":11370:11374   */\n      dup2\n        /* \"#utility.yul\":11361:11367   */\n      dup13\n        /* \"#utility.yul\":11297:11375   */\n      tag_269\n      jump\t// in\n    tag_426:\n        /* \"#utility.yul\":11289:11375   */\n      swap1\n      pop\n        /* \"#utility.yul\":11422:11431   */\n      dup2\n        /* \"#utility.yul\":11416:11420   */\n      dup2\n        /* \"#utility.yul\":11412:11432   */\n      sub\n        /* \"#utility.yul\":11407:11409   */\n      0x40\n        /* \"#utility.yul\":11396:11405   */\n      dup4\n        /* \"#utility.yul\":11392:11410   */\n      add\n        /* \"#utility.yul\":11385:11433   */\n      mstore\n        /* \"#utility.yul\":11450:11528   */\n      tag_427\n        /* \"#utility.yul\":11523:11527   */\n      dup2\n        /* \"#utility.yul\":11514:11520   */\n      dup12\n        /* \"#utility.yul\":11450:11528   */\n      tag_269\n      jump\t// in\n    tag_427:\n        /* \"#utility.yul\":11442:11528   */\n      swap1\n      pop\n        /* \"#utility.yul\":11575:11584   */\n      dup2\n        /* \"#utility.yul\":11569:11573   */\n      dup2\n        /* \"#utility.yul\":11565:11585   */\n      sub\n        /* \"#utility.yul\":11560:11562   */\n      0x60\n        /* \"#utility.yul\":11549:11558   */\n      dup4\n        /* \"#utility.yul\":11545:11563   */\n      add\n        /* \"#utility.yul\":11538:11586   */\n      mstore\n        /* \"#utility.yul\":11603:11681   */\n      tag_428\n        /* \"#utility.yul\":11676:11680   */\n      dup2\n        /* \"#utility.yul\":11667:11673   */\n      dup11\n        /* \"#utility.yul\":11603:11681   */\n      tag_269\n      jump\t// in\n    tag_428:\n        /* \"#utility.yul\":11595:11681   */\n      swap1\n      pop\n        /* \"#utility.yul\":11691:11764   */\n      tag_429\n        /* \"#utility.yul\":11759:11762   */\n      0x80\n        /* \"#utility.yul\":11748:11757   */\n      dup4\n        /* \"#utility.yul\":11744:11763   */\n      add\n        /* \"#utility.yul\":11735:11741   */\n      dup10\n        /* \"#utility.yul\":11691:11764   */\n      tag_270\n      jump\t// in\n    tag_429:\n        /* \"#utility.yul\":11774:11847   */\n      tag_430\n        /* \"#utility.yul\":11842:11845   */\n      0xa0\n        /* \"#utility.yul\":11831:11840   */\n      dup4\n        /* \"#utility.yul\":11827:11846   */\n      add\n        /* \"#utility.yul\":11818:11824   */\n      dup9\n        /* \"#utility.yul\":11774:11847   */\n      tag_270\n      jump\t// in\n    tag_430:\n        /* \"#utility.yul\":11857:11930   */\n      tag_431\n        /* \"#utility.yul\":11925:11928   */\n      0xc0\n        /* \"#utility.yul\":11914:11923   */\n      dup4\n        /* \"#utility.yul\":11910:11929   */\n      add\n        /* \"#utility.yul\":11901:11907   */\n      dup8\n        /* \"#utility.yul\":11857:11930   */\n      tag_270\n      jump\t// in\n    tag_431:\n        /* \"#utility.yul\":11940:12007   */\n      tag_432\n        /* \"#utility.yul\":12002:12005   */\n      0xe0\n        /* \"#utility.yul\":11991:12000   */\n      dup4\n        /* \"#utility.yul\":11987:12006   */\n      add\n        /* \"#utility.yul\":11978:11984   */\n      dup7\n        /* \"#utility.yul\":11940:12007   */\n      tag_272\n      jump\t// in\n    tag_432:\n        /* \"#utility.yul\":12055:12064   */\n      dup2\n        /* \"#utility.yul\":12049:12053   */\n      dup2\n        /* \"#utility.yul\":12045:12065   */\n      sub\n        /* \"#utility.yul\":12039:12042   */\n      0x0100\n        /* \"#utility.yul\":12028:12037   */\n      dup4\n        /* \"#utility.yul\":12024:12043   */\n      add\n        /* \"#utility.yul\":12017:12066   */\n      mstore\n        /* \"#utility.yul\":12083:12191   */\n      tag_433\n        /* \"#utility.yul\":12186:12190   */\n      dup2\n        /* \"#utility.yul\":12177:12183   */\n      dup6\n        /* \"#utility.yul\":12083:12191   */\n      tag_279\n      jump\t// in\n    tag_433:\n        /* \"#utility.yul\":12075:12191   */\n      swap1\n      pop\n        /* \"#utility.yul\":12239:12248   */\n      dup2\n        /* \"#utility.yul\":12233:12237   */\n      dup2\n        /* \"#utility.yul\":12229:12249   */\n      sub\n        /* \"#utility.yul\":12223:12226   */\n      0x0120\n        /* \"#utility.yul\":12212:12221   */\n      dup4\n        /* \"#utility.yul\":12208:12227   */\n      add\n        /* \"#utility.yul\":12201:12250   */\n      mstore\n        /* \"#utility.yul\":12267:12395   */\n      tag_434\n        /* \"#utility.yul\":12390:12394   */\n      dup2\n        /* \"#utility.yul\":12381:12387   */\n      dup5\n        /* \"#utility.yul\":12267:12395   */\n      tag_287\n      jump\t// in\n    tag_434:\n        /* \"#utility.yul\":12259:12395   */\n      swap1\n      pop\n        /* \"#utility.yul\":10489:12402   */\n      swap12\n      swap11\n      pop\n      pop\n      pop\n      pop\n      pop\n      pop\n      pop\n      pop\n      pop\n      pop\n      pop\n      jump\t// out\n        /* \"#utility.yul\":12408:12721   */\n    tag_51:\n        /* \"#utility.yul\":12521:12525   */\n      0x00\n        /* \"#utility.yul\":12559:12561   */\n      0x20\n        /* \"#utility.yul\":12548:12557   */\n      dup3\n        /* \"#utility.yul\":12544:12562   */\n      add\n        /* \"#utility.yul\":12536:12562   */\n      swap1\n      pop\n        /* \"#utility.yul\":12608:12617   */\n      dup2\n        /* \"#utility.yul\":12602:12606   */\n      dup2\n        /* \"#utility.yul\":12598:12618   */\n      sub\n        /* \"#utility.yul\":12594:12595   */\n      0x00\n        /* \"#utility.yul\":12583:12592   */\n      dup4\n        /* \"#utility.yul\":12579:12596   */\n      add\n        /* \"#utility.yul\":12572:12619   */\n      mstore\n        /* \"#utility.yul\":12636:12714   */\n      tag_436\n        /* \"#utility.yul\":12709:12713   */\n      dup2\n        /* \"#utility.yul\":12700:12706   */\n      dup5\n        /* \"#utility.yul\":12636:12714   */\n      tag_269\n      jump\t// in\n    tag_436:\n        /* \"#utility.yul\":12628:12714   */\n      swap1\n      pop\n        /* \"#utility.yul\":12408:12721   */\n      swap3\n      swap2\n      pop\n      pop\n      jump\t// out\n        /* \"#utility.yul\":12727:12844   */\n    tag_288:\n        /* \"#utility.yul\":12836:12837   */\n      0x00\n        /* \"#utility.yul\":12833:12834   */\n      dup1\n        /* \"#utility.yul\":12826:12838   */\n      revert\n        /* \"#utility.yul\":12850:12967   */\n    tag_289:\n        /* \"#utility.yul\":12959:12960   */\n      0x00\n        /* \"#utility.yul\":12956:12957   */\n      dup1\n        /* \"#utility.yul\":12949:12961   */\n      revert\n        /* \"#utility.yul\":12973:13153   */\n    tag_139:\n        /* \"#utility.yul\":13021:13098   */\n      0x4e487b7100000000000000000000000000000000000000000000000000000000\n        /* \"#utility.yul\":13018:13019   */\n      0x00\n        /* \"#utility.yul\":13011:13099   */\n      mstore\n        /* \"#utility.yul\":13118:13122   */\n      0x41\n        /* \"#utility.yul\":13115:13116   */\n      0x04\n        /* \"#utility.yul\":13108:13123   */\n      mstore\n        /* \"#utility.yul\":13142:13146   */\n      0x24\n        /* \"#utility.yul\":13139:13140   */\n      0x00\n        /* \"#utility.yul\":13132:13147   */\n      revert\n        /* \"#utility.yul\":13159:13440   */\n    tag_290:\n        /* \"#utility.yul\":13242:13269   */\n      tag_441\n        /* \"#utility.yul\":13264:13268   */\n      dup3\n        /* \"#utility.yul\":13242:13269   */\n      tag_268\n      jump\t// in\n    tag_441:\n        /* \"#utility.yul\":13234:13240   */\n      dup2\n        /* \"#utility.yul\":13230:13270   */\n      add\n        /* \"#utility.yul\":13372:13378   */\n      dup2\n        /* \"#utility.yul\":13360:13370   */\n      dup2\n        /* \"#utility.yul\":13357:13379   */\n      lt\n        /* \"#utility.yul\":13336:13354   */\n      0xffffffffffffffff\n        /* \"#utility.yul\":13324:13334   */\n      dup3\n        /* \"#utility.yul\":13321:13355   */\n      gt\n        /* \"#utility.yul\":13318:13380   */\n      or\n        /* \"#utility.yul\":13315:13403   */\n      iszero\n      tag_442\n      jumpi\n        /* \"#utility.yul\":13383:13401   */\n      tag_443\n      tag_139\n      jump\t// in\n    tag_443:\n        /* \"#utility.yul\":13315:13403   */\n    tag_442:\n        /* \"#utility.yul\":13423:13433   */\n      dup1\n        /* \"#utility.yul\":13419:13421   */\n      0x40\n        /* \"#utility.yul\":13412:13434   */\n      mstore\n        /* \"#utility.yul\":13202:13440   */\n      pop\n        /* \"#utility.yul\":13159:13440   */\n      pop\n      pop\n      jump\t// out\n        /* \"#utility.yul\":13446:13575   */\n    tag_291:\n        /* \"#utility.yul\":13480:13486   */\n      0x00\n        /* \"#utility.yul\":13507:13527   */\n      tag_445\n      tag_259\n      jump\t// in\n    tag_445:\n        /* \"#utility.yul\":13497:13527   */\n      swap1\n      pop\n        /* \"#utility.yul\":13536:13569   */\n      tag_446\n        /* \"#utility.yul\":13564:13568   */\n      dup3\n        /* \"#utility.yul\":13556:13562   */\n      dup3\n        /* \"#utility.yul\":13536:13569   */\n      tag_290\n      jump\t// in\n    tag_446:\n        /* \"#utility.yul\":13446:13575   */\n      swap2\n      swap1\n      pop\n      jump\t// out\n        /* \"#utility.yul\":13581:13889   */\n    tag_292:\n        /* \"#utility.yul\":13643:13647   */\n      0x00\n        /* \"#utility.yul\":13733:13751   */\n      0xffffffffffffffff\n        /* \"#utility.yul\":13725:13731   */\n      dup3\n        /* \"#utility.yul\":13722:13752   */\n      gt\n        /* \"#utility.yul\":13719:13775   */\n      iszero\n      tag_448\n      jumpi\n        /* \"#utility.yul\":13755:13773   */\n      tag_449\n      tag_139\n      jump\t// in\n    tag_449:\n        /* \"#utility.yul\":13719:13775   */\n    tag_448:\n        /* \"#utility.yul\":13793:13822   */\n      tag_450\n        /* \"#utility.yul\":13815:13821   */\n      dup3\n        /* \"#utility.yul\":13793:13822   */\n      tag_268\n      jump\t// in\n    tag_450:\n        /* \"#utility.yul\":13785:13822   */\n      swap1\n      pop\n        /* \"#utility.yul\":13877:13881   */\n      0x20\n        /* \"#utility.yul\":13871:13875   */\n      dup2\n        /* \"#utility.yul\":13867:13882   */\n      add\n        /* \"#utility.yul\":13859:13882   */\n      swap1\n      pop\n        /* \"#utility.yul\":13581:13889   */\n      swap2\n      swap1\n      pop\n      jump\t// out\n        /* \"#utility.yul\":13895:14041   */\n    tag_293:\n        /* \"#utility.yul\":13992:13998   */\n      dup3\n        /* \"#utility.yul\":13987:13990   */\n      dup2\n        /* \"#utility.yul\":13982:13985   */\n      dup4\n        /* \"#utility.yul\":13969:13999   */\n      calldatacopy\n        /* \"#utility.yul\":14033:14034   */\n      0x00\n        /* \"#utility.yul\":14024:14030   */\n      dup4\n        /* \"#utility.yul\":14019:14022   */\n      dup4\n        /* \"#utility.yul\":14015:14031   */\n      add\n        /* \"#utility.yul\":14008:14035   */\n      mstore\n        /* \"#utility.yul\":13895:14041   */\n      pop\n      pop\n      pop\n      jump\t// out\n        /* \"#utility.yul\":14047:14472   */\n    tag_294:\n        /* \"#utility.yul\":14125:14130   */\n      0x00\n        /* \"#utility.yul\":14150:14216   */\n      tag_453\n        /* \"#utility.yul\":14166:14215   */\n      tag_454\n        /* \"#utility.yul\":14208:14214   */\n      dup5\n        /* \"#utility.yul\":14166:14215   */\n      tag_292\n      jump\t// in\n    tag_454:\n        /* \"#utility.yul\":14150:14216   */\n      tag_291\n      jump\t// in\n    tag_453:\n        /* \"#utility.yul\":14141:14216   */\n      swap1\n      pop\n        /* \"#utility.yul\":14239:14245   */\n      dup3\n        /* \"#utility.yul\":14232:14237   */\n      dup2\n        /* \"#utility.yul\":14225:14246   */\n      mstore\n        /* \"#utility.yul\":14277:14281   */\n      0x20\n        /* \"#utility.yul\":14270:14275   */\n      dup2\n        /* \"#utility.yul\":14266:14282   */\n      add\n        /* \"#utility.yul\":14315:14318   */\n      dup5\n        /* \"#utility.yul\":14306:14312   */\n      dup5\n        /* \"#utility.yul\":14301:14304   */\n      dup5\n        /* \"#utility.yul\":14297:14313   */\n      add\n        /* \"#utility.yul\":14294:14319   */\n      gt\n        /* \"#utility.yul\":14291:14403   */\n      iszero\n      tag_455\n      jumpi\n        /* \"#utility.yul\":14322:14401   */\n      tag_456\n      tag_289\n      jump\t// in\n    tag_456:\n        /* \"#utility.yul\":14291:14403   */\n    tag_455:\n        /* \"#utility.yul\":14412:14466   */\n      tag_457\n        /* \"#utility.yul\":14459:14465   */\n      dup5\n        /* \"#utility.yul\":14454:14457   */\n      dup3\n        /* \"#utility.yul\":14449:14452   */\n      dup6\n        /* \"#utility.yul\":14412:14466   */\n      tag_293\n      jump\t// in\n    tag_457:\n        /* \"#utility.yul\":14131:14472   */\n      pop\n        /* \"#utility.yul\":14047:14472   */\n      swap4\n      swap3\n      pop\n      pop\n      pop\n      jump\t// out\n        /* \"#utility.yul\":14492:14832   */\n    tag_295:\n        /* \"#utility.yul\":14548:14553   */\n      0x00\n        /* \"#utility.yul\":14597:14600   */\n      dup3\n        /* \"#utility.yul\":14590:14594   */\n      0x1f\n        /* \"#utility.yul\":14582:14588   */\n      dup4\n        /* \"#utility.yul\":14578:14595   */\n      add\n        /* \"#utility.yul\":14574:14601   */\n      slt\n        /* \"#utility.yul\":14564:14686   */\n      tag_459\n      jumpi\n        /* \"#utility.yul\":14605:14684   */\n      tag_460\n      tag_288\n      jump\t// in\n    tag_460:\n        /* \"#utility.yul\":14564:14686   */\n    tag_459:\n        /* \"#utility.yul\":14722:14728   */\n      dup2\n        /* \"#utility.yul\":14709:14729   */\n      calldataload\n        /* \"#utility.yul\":14747:14826   */\n      tag_461\n        /* \"#utility.yul\":14822:14825   */\n      dup5\n        /* \"#utility.yul\":14814:14820   */\n      dup3\n        /* \"#utility.yul\":14807:14811   */\n      0x20\n        /* \"#utility.yul\":14799:14805   */\n      dup7\n        /* \"#utility.yul\":14795:14812   */\n      add\n        /* \"#utility.yul\":14747:14826   */\n      tag_294\n      jump\t// in\n    tag_461:\n        /* \"#utility.yul\":14738:14826   */\n      swap2\n      pop\n        /* \"#utility.yul\":14554:14832   */\n      pop\n        /* \"#utility.yul\":14492:14832   */\n      swap3\n      swap2\n      pop\n      pop\n      jump\t// out\n        /* \"#utility.yul\":14838:16941   */\n    tag_54:\n        /* \"#utility.yul\":15001:15007   */\n      0x00\n        /* \"#utility.yul\":15009:15015   */\n      dup1\n        /* \"#utility.yul\":15017:15023   */\n      0x00\n        /* \"#utility.yul\":15025:15031   */\n      dup1\n        /* \"#utility.yul\":15033:15039   */\n      0x00\n        /* \"#utility.yul\":15041:15047   */\n      dup1\n        /* \"#utility.yul\":15049:15055   */\n      0x00\n        /* \"#utility.yul\":15098:15101   */\n      0xe0\n        /* \"#utility.yul\":15086:15095   */\n      dup9\n        /* \"#utility.yul\":15077:15084   */\n      dup11\n        /* \"#utility.yul\":15073:15096   */\n      sub\n        /* \"#utility.yul\":15069:15102   */\n      slt\n        /* \"#utility.yul\":15066:15186   */\n      iszero\n      tag_463\n      jumpi\n        /* \"#utility.yul\":15105:15184   */\n      tag_464\n      tag_260\n      jump\t// in\n    tag_464:\n        /* \"#utility.yul\":15066:15186   */\n    tag_463:\n        /* \"#utility.yul\":15253:15254   */\n      0x00\n        /* \"#utility.yul\":15242:15251   */\n      dup9\n        /* \"#utility.yul\":15238:15255   */\n      add\n        /* \"#utility.yul\":15225:15256   */\n      calldataload\n        /* \"#utility.yul\":15283:15301   */\n      0xffffffffffffffff\n        /* \"#utility.yul\":15275:15281   */\n      dup2\n        /* \"#utility.yul\":15272:15302   */\n      gt\n        /* \"#utility.yul\":15269:15386   */\n      iszero\n      tag_465\n      jumpi\n        /* \"#utility.yul\":15305:15384   */\n      tag_466\n      tag_261\n      jump\t// in\n    tag_466:\n        /* \"#utility.yul\":15269:15386   */\n    tag_465:\n        /* \"#utility.yul\":15410:15473   */\n      tag_467\n        /* \"#utility.yul\":15465:15472   */\n      dup11\n        /* \"#utility.yul\":15456:15462   */\n      dup3\n        /* \"#utility.yul\":15445:15454   */\n      dup12\n        /* \"#utility.yul\":15441:15463   */\n      add\n        /* \"#utility.yul\":15410:15473   */\n      tag_295\n      jump\t// in\n    tag_467:\n        /* \"#utility.yul\":15400:15473   */\n      swap8\n      pop\n        /* \"#utility.yul\":15196:15483   */\n      pop\n        /* \"#utility.yul\":15550:15552   */\n      0x20\n        /* \"#utility.yul\":15539:15548   */\n      dup9\n        /* \"#utility.yul\":15535:15553   */\n      add\n        /* \"#utility.yul\":15522:15554   */\n      calldataload\n        /* \"#utility.yul\":15581:15599   */\n      0xffffffffffffffff\n        /* \"#utility.yul\":15573:15579   */\n      dup2\n        /* \"#utility.yul\":15570:15600   */\n      gt\n        /* \"#utility.yul\":15567:15684   */\n      iszero\n      tag_468\n      jumpi\n        /* \"#utility.yul\":15603:15682   */\n      tag_469\n      tag_261\n      jump\t// in\n    tag_469:\n        /* \"#utility.yul\":15567:15684   */\n    tag_468:\n        /* \"#utility.yul\":15708:15771   */\n      tag_470\n        /* \"#utility.yul\":15763:15770   */\n      dup11\n        /* \"#utility.yul\":15754:15760   */\n      dup3\n        /* \"#utility.yul\":15743:15752   */\n      dup12\n        /* \"#utility.yul\":15739:15761   */\n      add\n        /* \"#utility.yul\":15708:15771   */\n      tag_295\n      jump\t// in\n    tag_470:\n        /* \"#utility.yul\":15698:15771   */\n      swap7\n      pop\n        /* \"#utility.yul\":15493:15781   */\n      pop\n        /* \"#utility.yul\":15848:15850   */\n      0x40\n        /* \"#utility.yul\":15837:15846   */\n      dup9\n        /* \"#utility.yul\":15833:15851   */\n      add\n        /* \"#utility.yul\":15820:15852   */\n      calldataload\n        /* \"#utility.yul\":15879:15897   */\n      0xffffffffffffffff\n        /* \"#utility.yul\":15871:15877   */\n      dup2\n        /* \"#utility.yul\":15868:15898   */\n      gt\n        /* \"#utility.yul\":15865:15982   */\n      iszero\n      tag_471\n      jumpi\n        /* \"#utility.yul\":15901:15980   */\n      tag_472\n      tag_261\n      jump\t// in\n    tag_472:\n        /* \"#utility.yul\":15865:15982   */\n    tag_471:\n        /* \"#utility.yul\":16006:16069   */\n      tag_473\n        /* \"#utility.yul\":16061:16068   */\n      dup11\n        /* \"#utility.yul\":16052:16058   */\n      dup3\n        /* \"#utility.yul\":16041:16050   */\n      dup12\n        /* \"#utility.yul\":16037:16059   */\n      add\n        /* \"#utility.yul\":16006:16069   */\n      tag_295\n      jump\t// in\n    tag_473:\n        /* \"#utility.yul\":15996:16069   */\n      swap6\n      pop\n        /* \"#utility.yul\":15791:16079   */\n      pop\n        /* \"#utility.yul\":16146:16148   */\n      0x60\n        /* \"#utility.yul\":16135:16144   */\n      dup9\n        /* \"#utility.yul\":16131:16149   */\n      add\n        /* \"#utility.yul\":16118:16150   */\n      calldataload\n        /* \"#utility.yul\":16177:16195   */\n      0xffffffffffffffff\n        /* \"#utility.yul\":16169:16175   */\n      dup2\n        /* \"#utility.yul\":16166:16196   */\n      gt\n        /* \"#utility.yul\":16163:16280   */\n      iszero\n      tag_474\n      jumpi\n        /* \"#utility.yul\":16199:16278   */\n      tag_475\n      tag_261\n      jump\t// in\n    tag_475:\n        /* \"#utility.yul\":16163:16280   */\n    tag_474:\n        /* \"#utility.yul\":16304:16367   */\n      tag_476\n        /* \"#utility.yul\":16359:16366   */\n      dup11\n        /* \"#utility.yul\":16350:16356   */\n      dup3\n        /* \"#utility.yul\":16339:16348   */\n      dup12\n        /* \"#utility.yul\":16335:16357   */\n      add\n        /* \"#utility.yul\":16304:16367   */\n      tag_295\n      jump\t// in\n    tag_476:\n        /* \"#utility.yul\":16294:16367   */\n      swap5\n      pop\n        /* \"#utility.yul\":16089:16377   */\n      pop\n        /* \"#utility.yul\":16444:16447   */\n      0x80\n        /* \"#utility.yul\":16433:16442   */\n      dup9\n        /* \"#utility.yul\":16429:16448   */\n      add\n        /* \"#utility.yul\":16416:16449   */\n      calldataload\n        /* \"#utility.yul\":16476:16494   */\n      0xffffffffffffffff\n        /* \"#utility.yul\":16468:16474   */\n      dup2\n        /* \"#utility.yul\":16465:16495   */\n      gt\n        /* \"#utility.yul\":16462:16579   */\n      iszero\n      tag_477\n      jumpi\n        /* \"#utility.yul\":16498:16577   */\n      tag_478\n      tag_261\n      jump\t// in\n    tag_478:\n        /* \"#utility.yul\":16462:16579   */\n    tag_477:\n        /* \"#utility.yul\":16603:16666   */\n      tag_479\n        /* \"#utility.yul\":16658:16665   */\n      dup11\n        /* \"#utility.yul\":16649:16655   */\n      dup3\n        /* \"#utility.yul\":16638:16647   */\n      dup12\n        /* \"#utility.yul\":16634:16656   */\n      add\n        /* \"#utility.yul\":16603:16666   */\n      tag_295\n      jump\t// in\n    tag_479:\n        /* \"#utility.yul\":16593:16666   */\n      swap4\n      pop\n        /* \"#utility.yul\":16387:16676   */\n      pop\n        /* \"#utility.yul\":16715:16718   */\n      0xa0\n        /* \"#utility.yul\":16742:16795   */\n      tag_480\n        /* \"#utility.yul\":16787:16794   */\n      dup11\n        /* \"#utility.yul\":16778:16784   */\n      dup3\n        /* \"#utility.yul\":16767:16776   */\n      dup12\n        /* \"#utility.yul\":16763:16785   */\n      add\n        /* \"#utility.yul\":16742:16795   */\n      tag_264\n      jump\t// in\n    tag_480:\n        /* \"#utility.yul\":16732:16795   */\n      swap3\n      pop\n        /* \"#utility.yul\":16686:16805   */\n      pop\n        /* \"#utility.yul\":16844:16847   */\n      0xc0\n        /* \"#utility.yul\":16871:16924   */\n      tag_481\n        /* \"#utility.yul\":16916:16923   */\n      dup11\n        /* \"#utility.yul\":16907:16913   */\n      dup3\n        /* \"#utility.yul\":16896:16905   */\n      dup12\n        /* \"#utility.yul\":16892:16914   */\n      add\n        /* \"#utility.yul\":16871:16924   */\n      tag_264\n      jump\t// in\n    tag_481:\n        /* \"#utility.yul\":16861:16924   */\n      swap2\n      pop\n        /* \"#utility.yul\":16815:16934   */\n      pop\n        /* \"#utility.yul\":14838:16941   */\n      swap3\n      swap6\n      swap9\n      swap2\n      swap5\n      swap8\n      pop\n      swap3\n      swap6\n      pop\n      jump\t// out\n        /* \"#utility.yul\":16947:17268   */\n    tag_296:\n        /* \"#utility.yul\":17034:17038   */\n      0x00\n        /* \"#utility.yul\":17124:17142   */\n      0xffffffffffffffff\n        /* \"#utility.yul\":17116:17122   */\n      dup3\n        /* \"#utility.yul\":17113:17143   */\n      gt\n        /* \"#utility.yul\":17110:17166   */\n      iszero\n      tag_483\n      jumpi\n        /* \"#utility.yul\":17146:17164   */\n      tag_484\n      tag_139\n      jump\t// in\n    tag_484:\n        /* \"#utility.yul\":17110:17166   */\n    tag_483:\n        /* \"#utility.yul\":17196:17200   */\n      0x20\n        /* \"#utility.yul\":17188:17194   */\n      dup3\n        /* \"#utility.yul\":17184:17201   */\n      mul\n        /* \"#utility.yul\":17176:17201   */\n      swap1\n      pop\n        /* \"#utility.yul\":17256:17260   */\n      0x20\n        /* \"#utility.yul\":17250:17254   */\n      dup2\n        /* \"#utility.yul\":17246:17261   */\n      add\n        /* \"#utility.yul\":17238:17261   */\n      swap1\n      pop\n        /* \"#utility.yul\":16947:17268   */\n      swap2\n      swap1\n      pop\n      jump\t// out\n        /* \"#utility.yul\":17274:17391   */\n    tag_297:\n        /* \"#utility.yul\":17383:17384   */\n      0x00\n        /* \"#utility.yul\":17380:17381   */\n      dup1\n        /* \"#utility.yul\":17373:17385   */\n      revert\n        /* \"#utility.yul\":17413:18358   */\n    tag_298:\n        /* \"#utility.yul\":17519:17524   */\n      0x00\n        /* \"#utility.yul\":17544:17635   */\n      tag_487\n        /* \"#utility.yul\":17560:17634   */\n      tag_488\n        /* \"#utility.yul\":17627:17633   */\n      dup5\n        /* \"#utility.yul\":17560:17634   */\n      tag_296\n      jump\t// in\n    tag_488:\n        /* \"#utility.yul\":17544:17635   */\n      tag_291\n      jump\t// in\n    tag_487:\n        /* \"#utility.yul\":17535:17635   */\n      swap1\n      pop\n        /* \"#utility.yul\":17655:17660   */\n      dup1\n        /* \"#utility.yul\":17684:17690   */\n      dup4\n        /* \"#utility.yul\":17677:17682   */\n      dup3\n        /* \"#utility.yul\":17670:17691   */\n      mstore\n        /* \"#utility.yul\":17718:17722   */\n      0x20\n        /* \"#utility.yul\":17711:17716   */\n      dup3\n        /* \"#utility.yul\":17707:17723   */\n      add\n        /* \"#utility.yul\":17700:17723   */\n      swap1\n      pop\n        /* \"#utility.yul\":17771:17775   */\n      0x20\n        /* \"#utility.yul\":17763:17769   */\n      dup5\n        /* \"#utility.yul\":17759:17776   */\n      mul\n        /* \"#utility.yul\":17751:17757   */\n      dup4\n        /* \"#utility.yul\":17747:17777   */\n      add\n        /* \"#utility.yul\":17800:17803   */\n      dup6\n        /* \"#utility.yul\":17792:17798   */\n      dup2\n        /* \"#utility.yul\":17789:17804   */\n      gt\n        /* \"#utility.yul\":17786:17908   */\n      iszero\n      tag_489\n      jumpi\n        /* \"#utility.yul\":17819:17898   */\n      tag_490\n      tag_297\n      jump\t// in\n    tag_490:\n        /* \"#utility.yul\":17786:17908   */\n    tag_489:\n        /* \"#utility.yul\":17934:17940   */\n      dup4\n        /* \"#utility.yul\":17917:18352   */\n    tag_491:\n        /* \"#utility.yul\":17951:17957   */\n      dup2\n        /* \"#utility.yul\":17946:17949   */\n      dup2\n        /* \"#utility.yul\":17943:17958   */\n      lt\n        /* \"#utility.yul\":17917:18352   */\n      iszero\n      tag_493\n      jumpi\n        /* \"#utility.yul\":18040:18043   */\n      dup1\n        /* \"#utility.yul\":18027:18044   */\n      calldataload\n        /* \"#utility.yul\":18076:18094   */\n      0xffffffffffffffff\n        /* \"#utility.yul\":18063:18074   */\n      dup2\n        /* \"#utility.yul\":18060:18095   */\n      gt\n        /* \"#utility.yul\":18057:18179   */\n      iszero\n      tag_494\n      jumpi\n        /* \"#utility.yul\":18098:18177   */\n      tag_495\n      tag_288\n      jump\t// in\n    tag_495:\n        /* \"#utility.yul\":18057:18179   */\n    tag_494:\n        /* \"#utility.yul\":18222:18233   */\n      dup1\n        /* \"#utility.yul\":18214:18220   */\n      dup7\n        /* \"#utility.yul\":18210:18234   */\n      add\n        /* \"#utility.yul\":18260:18307   */\n      tag_496\n        /* \"#utility.yul\":18303:18306   */\n      dup10\n        /* \"#utility.yul\":18291:18301   */\n      dup3\n        /* \"#utility.yul\":18260:18307   */\n      tag_295\n      jump\t// in\n    tag_496:\n        /* \"#utility.yul\":18255:18258   */\n      dup6\n        /* \"#utility.yul\":18248:18308   */\n      mstore\n        /* \"#utility.yul\":18337:18341   */\n      0x20\n        /* \"#utility.yul\":18332:18335   */\n      dup6\n        /* \"#utility.yul\":18328:18342   */\n      add\n        /* \"#utility.yul\":18321:18342   */\n      swap5\n      pop\n        /* \"#utility.yul\":17993:18352   */\n      pop\n      pop\n        /* \"#utility.yul\":17977:17981   */\n      0x20\n        /* \"#utility.yul\":17972:17975   */\n      dup2\n        /* \"#utility.yul\":17968:17982   */\n      add\n        /* \"#utility.yul\":17961:17982   */\n      swap1\n      pop\n        /* \"#utility.yul\":17917:18352   */\n      jump(tag_491)\n    tag_493:\n        /* \"#utility.yul\":17921:17942   */\n      pop\n        /* \"#utility.yul\":17525:18358   */\n      pop\n      pop\n        /* \"#utility.yul\":17413:18358   */\n      swap4\n      swap3\n      pop\n      pop\n      pop\n      jump\t// out\n        /* \"#utility.yul\":18380:18770   */\n    tag_299:\n        /* \"#utility.yul\":18461:18466   */\n      0x00\n        /* \"#utility.yul\":18510:18513   */\n      dup3\n        /* \"#utility.yul\":18503:18507   */\n      0x1f\n        /* \"#utility.yul\":18495:18501   */\n      dup4\n        /* \"#utility.yul\":18491:18508   */\n      add\n        /* \"#utility.yul\":18487:18514   */\n      slt\n        /* \"#utility.yul\":18477:18599   */\n      tag_498\n      jumpi\n        /* \"#utility.yul\":18518:18597   */\n      tag_499\n      tag_288\n      jump\t// in\n    tag_499:\n        /* \"#utility.yul\":18477:18599   */\n    tag_498:\n        /* \"#utility.yul\":18635:18641   */\n      dup2\n        /* \"#utility.yul\":18622:18642   */\n      calldataload\n        /* \"#utility.yul\":18660:18764   */\n      tag_500\n        /* \"#utility.yul\":18760:18763   */\n      dup5\n        /* \"#utility.yul\":18752:18758   */\n      dup3\n        /* \"#utility.yul\":18745:18749   */\n      0x20\n        /* \"#utility.yul\":18737:18743   */\n      dup7\n        /* \"#utility.yul\":18733:18750   */\n      add\n        /* \"#utility.yul\":18660:18764   */\n      tag_298\n      jump\t// in\n    tag_500:\n        /* \"#utility.yul\":18651:18764   */\n      swap2\n      pop\n        /* \"#utility.yul\":18467:18770   */\n      pop\n        /* \"#utility.yul\":18380:18770   */\n      swap3\n      swap2\n      pop\n      pop\n      jump\t// out\n        /* \"#utility.yul\":18776:19951   */\n    tag_58:\n        /* \"#utility.yul\":18907:18913   */\n      0x00\n        /* \"#utility.yul\":18915:18921   */\n      dup1\n        /* \"#utility.yul\":18923:18929   */\n      0x00\n        /* \"#utility.yul\":18931:18937   */\n      dup1\n        /* \"#utility.yul\":18980:18983   */\n      0x80\n        /* \"#utility.yul\":18968:18977   */\n      dup6\n        /* \"#utility.yul\":18959:18966   */\n      dup8\n        /* \"#utility.yul\":18955:18978   */\n      sub\n        /* \"#utility.yul\":18951:18984   */\n      slt\n        /* \"#utility.yul\":18948:19068   */\n      iszero\n      tag_502\n      jumpi\n        /* \"#utility.yul\":18987:19066   */\n      tag_503\n      tag_260\n      jump\t// in\n    tag_503:\n        /* \"#utility.yul\":18948:19068   */\n    tag_502:\n        /* \"#utility.yul\":19107:19108   */\n      0x00\n        /* \"#utility.yul\":19132:19185   */\n      tag_504\n        /* \"#utility.yul\":19177:19184   */\n      dup8\n        /* \"#utility.yul\":19168:19174   */\n      dup3\n        /* \"#utility.yul\":19157:19166   */\n      dup9\n        /* \"#utility.yul\":19153:19175   */\n      add\n        /* \"#utility.yul\":19132:19185   */\n      tag_264\n      jump\t// in\n    tag_504:\n        /* \"#utility.yul\":19122:19185   */\n      swap5\n      pop\n        /* \"#utility.yul\":19078:19195   */\n      pop\n        /* \"#utility.yul\":19262:19264   */\n      0x20\n        /* \"#utility.yul\":19251:19260   */\n      dup6\n        /* \"#utility.yul\":19247:19265   */\n      add\n        /* \"#utility.yul\":19234:19266   */\n      calldataload\n        /* \"#utility.yul\":19293:19311   */\n      0xffffffffffffffff\n        /* \"#utility.yul\":19285:19291   */\n      dup2\n        /* \"#utility.yul\":19282:19312   */\n      gt\n        /* \"#utility.yul\":19279:19396   */\n      iszero\n      tag_505\n      jumpi\n        /* \"#utility.yul\":19315:19394   */\n      tag_506\n      tag_261\n      jump\t// in\n    tag_506:\n        /* \"#utility.yul\":19279:19396   */\n    tag_505:\n        /* \"#utility.yul\":19420:19483   */\n      tag_507\n        /* \"#utility.yul\":19475:19482   */\n      dup8\n        /* \"#utility.yul\":19466:19472   */\n      dup3\n        /* \"#utility.yul\":19455:19464   */\n      dup9\n        /* \"#utility.yul\":19451:19473   */\n      add\n        /* \"#utility.yul\":19420:19483   */\n      tag_295\n      jump\t// in\n    tag_507:\n        /* \"#utility.yul\":19410:19483   */\n      swap4\n      pop\n        /* \"#utility.yul\":19205:19493   */\n      pop\n        /* \"#utility.yul\":19532:19534   */\n      0x40\n        /* \"#utility.yul\":19558:19611   */\n      tag_508\n        /* \"#utility.yul\":19603:19610   */\n      dup8\n        /* \"#utility.yul\":19594:19600   */\n      dup3\n        /* \"#utility.yul\":19583:19592   */\n      dup9\n        /* \"#utility.yul\":19579:19601   */\n      add\n        /* \"#utility.yul\":19558:19611   */\n      tag_264\n      jump\t// in\n    tag_508:\n        /* \"#utility.yul\":19548:19611   */\n      swap3\n      pop\n        /* \"#utility.yul\":19503:19621   */\n      pop\n        /* \"#utility.yul\":19688:19690   */\n      0x60\n        /* \"#utility.yul\":19677:19686   */\n      dup6\n        /* \"#utility.yul\":19673:19691   */\n      add\n        /* \"#utility.yul\":19660:19692   */\n      calldataload\n        /* \"#utility.yul\":19719:19737   */\n      0xffffffffffffffff\n        /* \"#utility.yul\":19711:19717   */\n      dup2\n        /* \"#utility.yul\":19708:19738   */\n      gt\n        /* \"#utility.yul\":19705:19822   */\n      iszero\n      tag_509\n      jumpi\n        /* \"#utility.yul\":19741:19820   */\n      tag_510\n      tag_261\n      jump\t// in\n    tag_510:\n        /* \"#utility.yul\":19705:19822   */\n    tag_509:\n        /* \"#utility.yul\":19846:19934   */\n      tag_511\n        /* \"#utility.yul\":19926:19933   */\n      dup8\n        /* \"#utility.yul\":19917:19923   */\n      dup3\n        /* \"#utility.yul\":19906:19915   */\n      dup9\n        /* \"#utility.yul\":19902:19924   */\n      add\n        /* \"#utility.yul\":19846:19934   */\n      tag_299\n      jump\t// in\n    tag_511:\n        /* \"#utility.yul\":19836:19934   */\n      swap2\n      pop\n        /* \"#utility.yul\":19631:19944   */\n      pop\n        /* \"#utility.yul\":18776:19951   */\n      swap3\n      swap6\n      swap2\n      swap5\n      pop\n      swap3\n      pop\n      jump\t// out\n        /* \"#utility.yul\":19957:20756   */\n    tag_65:\n        /* \"#utility.yul\":20044:20050   */\n      0x00\n        /* \"#utility.yul\":20052:20058   */\n      dup1\n        /* \"#utility.yul\":20060:20066   */\n      0x00\n        /* \"#utility.yul\":20109:20111   */\n      0x60\n        /* \"#utility.yul\":20097:20106   */\n      dup5\n        /* \"#utility.yul\":20088:20095   */\n      dup7\n        /* \"#utility.yul\":20084:20107   */\n      sub\n        /* \"#utility.yul\":20080:20112   */\n      slt\n        /* \"#utility.yul\":20077:20196   */\n      iszero\n      tag_513\n      jumpi\n        /* \"#utility.yul\":20115:20194   */\n      tag_514\n      tag_260\n      jump\t// in\n    tag_514:\n        /* \"#utility.yul\":20077:20196   */\n    tag_513:\n        /* \"#utility.yul\":20235:20236   */\n      0x00\n        /* \"#utility.yul\":20260:20313   */\n      tag_515\n        /* \"#utility.yul\":20305:20312   */\n      dup7\n        /* \"#utility.yul\":20296:20302   */\n      dup3\n        /* \"#utility.yul\":20285:20294   */\n      dup8\n        /* \"#utility.yul\":20281:20303   */\n      add\n        /* \"#utility.yul\":20260:20313   */\n      tag_264\n      jump\t// in\n    tag_515:\n        /* \"#utility.yul\":20250:20313   */\n      swap4\n      pop\n        /* \"#utility.yul\":20206:20323   */\n      pop\n        /* \"#utility.yul\":20362:20364   */\n      0x20\n        /* \"#utility.yul\":20388:20441   */\n      tag_516\n        /* \"#utility.yul\":20433:20440   */\n      dup7\n        /* \"#utility.yul\":20424:20430   */\n      dup3\n        /* \"#utility.yul\":20413:20422   */\n      dup8\n        /* \"#utility.yul\":20409:20431   */\n      add\n        /* \"#utility.yul\":20388:20441   */\n      tag_264\n      jump\t// in\n    tag_516:\n        /* \"#utility.yul\":20378:20441   */\n      swap3\n      pop\n        /* \"#utility.yul\":20333:20451   */\n      pop\n        /* \"#utility.yul\":20518:20520   */\n      0x40\n        /* \"#utility.yul\":20507:20516   */\n      dup5\n        /* \"#utility.yul\":20503:20521   */\n      add\n        /* \"#utility.yul\":20490:20522   */\n      calldataload\n        /* \"#utility.yul\":20549:20567   */\n      0xffffffffffffffff\n        /* \"#utility.yul\":20541:20547   */\n      dup2\n        /* \"#utility.yul\":20538:20568   */\n      gt\n        /* \"#utility.yul\":20535:20652   */\n      iszero\n      tag_517\n      jumpi\n        /* \"#utility.yul\":20571:20650   */\n      tag_518\n      tag_261\n      jump\t// in\n    tag_518:\n        /* \"#utility.yul\":20535:20652   */\n    tag_517:\n        /* \"#utility.yul\":20676:20739   */\n      tag_519\n        /* \"#utility.yul\":20731:20738   */\n      dup7\n        /* \"#utility.yul\":20722:20728   */\n      dup3\n        /* \"#utility.yul\":20711:20720   */\n      dup8\n        /* \"#utility.yul\":20707:20729   */\n      add\n        /* \"#utility.yul\":20676:20739   */\n      tag_295\n      jump\t// in\n    tag_519:\n        /* \"#utility.yul\":20666:20739   */\n      swap2\n      pop\n        /* \"#utility.yul\":20461:20749   */\n      pop\n        /* \"#utility.yul\":19957:20756   */\n      swap3\n      pop\n      swap3\n      pop\n      swap3\n      jump\t// out\n        /* \"#utility.yul\":20762:20942   */\n    tag_300:\n        /* \"#utility.yul\":20810:20887   */\n      0x4e487b7100000000000000000000000000000000000000000000000000000000\n        /* \"#utility.yul\":20807:20808   */\n      0x00\n        /* \"#utility.yul\":20800:20888   */\n      mstore\n        /* \"#utility.yul\":20907:20911   */\n      0x22\n        /* \"#utility.yul\":20904:20905   */\n      0x04\n        /* \"#utility.yul\":20897:20912   */\n      mstore\n        /* \"#utility.yul\":20931:20935   */\n      0x24\n        /* \"#utility.yul\":20928:20929   */\n      0x00\n        /* \"#utility.yul\":20921:20936   */\n      revert\n        /* \"#utility.yul\":20948:21268   */\n    tag_85:\n        /* \"#utility.yul\":20992:20998   */\n      0x00\n        /* \"#utility.yul\":21029:21030   */\n      0x02\n        /* \"#utility.yul\":21023:21027   */\n      dup3\n        /* \"#utility.yul\":21019:21031   */\n      div\n        /* \"#utility.yul\":21009:21031   */\n      swap1\n      pop\n        /* \"#utility.yul\":21076:21077   */\n      0x01\n        /* \"#utility.yul\":21070:21074   */\n      dup3\n        /* \"#utility.yul\":21066:21078   */\n      and\n        /* \"#utility.yul\":21097:21115   */\n      dup1\n        /* \"#utility.yul\":21087:21168   */\n      tag_522\n      jumpi\n        /* \"#utility.yul\":21153:21157   */\n      0x7f\n        /* \"#utility.yul\":21145:21151   */\n      dup3\n        /* \"#utility.yul\":21141:21158   */\n      and\n        /* \"#utility.yul\":21131:21158   */\n      swap2\n      pop\n        /* \"#utility.yul\":21087:21168   */\n    tag_522:\n        /* \"#utility.yul\":21215:21217   */\n      0x20\n        /* \"#utility.yul\":21207:21213   */\n      dup3\n        /* \"#utility.yul\":21204:21218   */\n      lt\n        /* \"#utility.yul\":21184:21202   */\n      dup2\n        /* \"#utility.yul\":21181:21219   */\n      sub\n        /* \"#utility.yul\":21178:21262   */\n      tag_523\n      jumpi\n        /* \"#utility.yul\":21234:21252   */\n      tag_524\n      tag_300\n      jump\t// in\n    tag_524:\n        /* \"#utility.yul\":21178:21262   */\n    tag_523:\n        /* \"#utility.yul\":20999:21268   */\n      pop\n        /* \"#utility.yul\":20948:21268   */\n      swap2\n      swap1\n      pop\n      jump\t// out\n        /* \"#utility.yul\":21274:21421   */\n    tag_301:\n        /* \"#utility.yul\":21375:21386   */\n      0x00\n        /* \"#utility.yul\":21412:21415   */\n      dup2\n        /* \"#utility.yul\":21397:21415   */\n      swap1\n      pop\n        /* \"#utility.yul\":21274:21421   */\n      swap3\n      swap2\n      pop\n      pop\n      jump\t// out\n        /* \"#utility.yul\":21427:21571   */\n    tag_302:\n        /* \"#utility.yul\":21479:21483   */\n      0x00\n        /* \"#utility.yul\":21502:21505   */\n      dup2\n        /* \"#utility.yul\":21494:21505   */\n      swap1\n      pop\n        /* \"#utility.yul\":21525:21528   */\n      dup2\n        /* \"#utility.yul\":21522:21523   */\n      0x00\n        /* \"#utility.yul\":21515:21529   */\n      mstore\n        /* \"#utility.yul\":21559:21563   */\n      0x20\n        /* \"#utility.yul\":21556:21557   */\n      0x00\n        /* \"#utility.yul\":21546:21564   */\n      keccak256\n        /* \"#utility.yul\":21538:21564   */\n      swap1\n      pop\n        /* \"#utility.yul\":21427:21571   */\n      swap2\n      swap1\n      pop\n      jump\t// out\n        /* \"#utility.yul\":21599:22477   */\n    tag_303:\n        /* \"#utility.yul\":21704:21707   */\n      0x00\n        /* \"#utility.yul\":21741:21746   */\n      dup2\n        /* \"#utility.yul\":21735:21747   */\n      sload\n        /* \"#utility.yul\":21770:21806   */\n      tag_528\n        /* \"#utility.yul\":21796:21805   */\n      dup2\n        /* \"#utility.yul\":21770:21806   */\n      tag_85\n      jump\t// in\n    tag_528:\n        /* \"#utility.yul\":21822:21910   */\n      tag_529\n        /* \"#utility.yul\":21903:21909   */\n      dup2\n        /* \"#utility.yul\":21898:21901   */\n      dup7\n        /* \"#utility.yul\":21822:21910   */\n      tag_301\n      jump\t// in\n    tag_529:\n        /* \"#utility.yul\":21815:21910   */\n      swap5\n      pop\n        /* \"#utility.yul\":21941:21942   */\n      0x01\n        /* \"#utility.yul\":21930:21939   */\n      dup3\n        /* \"#utility.yul\":21926:21943   */\n      and\n        /* \"#utility.yul\":21957:21958   */\n      0x00\n        /* \"#utility.yul\":21952:22118   */\n      dup2\n      eq\n      tag_531\n      jumpi\n        /* \"#utility.yul\":22132:22133   */\n      0x01\n        /* \"#utility.yul\":22127:22471   */\n      dup2\n      eq\n      tag_532\n      jumpi\n        /* \"#utility.yul\":21919:22471   */\n      jump(tag_530)\n        /* \"#utility.yul\":21952:22118   */\n    tag_531:\n        /* \"#utility.yul\":22036:22040   */\n      0xff\n        /* \"#utility.yul\":22032:22041   */\n      not\n        /* \"#utility.yul\":22021:22030   */\n      dup4\n        /* \"#utility.yul\":22017:22042   */\n      and\n        /* \"#utility.yul\":22012:22015   */\n      dup7\n        /* \"#utility.yul\":22005:22043   */\n      mstore\n        /* \"#utility.yul\":22098:22104   */\n      dup2\n        /* \"#utility.yul\":22091:22105   */\n      iszero\n        /* \"#utility.yul\":22084:22106   */\n      iszero\n        /* \"#utility.yul\":22076:22082   */\n      dup3\n        /* \"#utility.yul\":22072:22107   */\n      mul\n        /* \"#utility.yul\":22067:22070   */\n      dup7\n        /* \"#utility.yul\":22063:22108   */\n      add\n        /* \"#utility.yul\":22056:22108   */\n      swap4\n      pop\n        /* \"#utility.yul\":21952:22118   */\n      jump(tag_530)\n        /* \"#utility.yul\":22127:22471   */\n    tag_532:\n        /* \"#utility.yul\":22194:22235   */\n      tag_533\n        /* \"#utility.yul\":22229:22234   */\n      dup6\n        /* \"#utility.yul\":22194:22235   */\n      tag_302\n      jump\t// in\n    tag_533:\n        /* \"#utility.yul\":22257:22258   */\n      0x00\n        /* \"#utility.yul\":22271:22425   */\n    tag_534:\n        /* \"#utility.yul\":22285:22291   */\n      dup4\n        /* \"#utility.yul\":22282:22283   */\n      dup2\n        /* \"#utility.yul\":22279:22292   */\n      lt\n        /* \"#utility.yul\":22271:22425   */\n      iszero\n      tag_536\n      jumpi\n        /* \"#utility.yul\":22359:22366   */\n      dup2\n        /* \"#utility.yul\":22353:22367   */\n      sload\n        /* \"#utility.yul\":22349:22350   */\n      dup2\n        /* \"#utility.yul\":22344:22347   */\n      dup10\n        /* \"#utility.yul\":22340:22351   */\n      add\n        /* \"#utility.yul\":22333:22368   */\n      mstore\n        /* \"#utility.yul\":22409:22410   */\n      0x01\n        /* \"#utility.yul\":22400:22407   */\n      dup3\n        /* \"#utility.yul\":22396:22411   */\n      add\n        /* \"#utility.yul\":22385:22411   */\n      swap2\n      pop\n        /* \"#utility.yul\":22307:22311   */\n      0x20\n        /* \"#utility.yul\":22304:22305   */\n      dup2\n        /* \"#utility.yul\":22300:22312   */\n      add\n        /* \"#utility.yul\":22295:22312   */\n      swap1\n      pop\n        /* \"#utility.yul\":22271:22425   */\n      jump(tag_534)\n    tag_536:\n        /* \"#utility.yul\":22454:22460   */\n      dup4\n        /* \"#utility.yul\":22449:22452   */\n      dup9\n        /* \"#utility.yul\":22445:22461   */\n      add\n        /* \"#utility.yul\":22438:22461   */\n      swap6\n      pop\n        /* \"#utility.yul\":22134:22471   */\n      pop\n      pop\n        /* \"#utility.yul\":21919:22471   */\n    tag_530:\n      pop\n        /* \"#utility.yul\":21708:22477   */\n      pop\n      pop\n        /* \"#utility.yul\":21599:22477   */\n      swap3\n      swap2\n      pop\n      pop\n      jump\t// out\n        /* \"#utility.yul\":22483:22756   */\n    tag_69:\n        /* \"#utility.yul\":22614:22617   */\n      0x00\n        /* \"#utility.yul\":22636:22730   */\n      tag_538\n        /* \"#utility.yul\":22726:22729   */\n      dup3\n        /* \"#utility.yul\":22717:22723   */\n      dup5\n        /* \"#utility.yul\":22636:22730   */\n      tag_303\n      jump\t// in\n    tag_538:\n        /* \"#utility.yul\":22629:22730   */\n      swap2\n      pop\n        /* \"#utility.yul\":22747:22750   */\n      dup2\n        /* \"#utility.yul\":22740:22750   */\n      swap1\n      pop\n        /* \"#utility.yul\":22483:22756   */\n      swap3\n      swap2\n      pop\n      pop\n      jump\t// out\n        /* \"#utility.yul\":22762:22988   */\n    tag_304:\n        /* \"#utility.yul\":22902:22936   */\n      0x4f6e6c792074686520636c69656e742063616e20706572666f726d2074686973\n        /* \"#utility.yul\":22898:22899   */\n      0x00\n        /* \"#utility.yul\":22890:22896   */\n      dup3\n        /* \"#utility.yul\":22886:22900   */\n      add\n        /* \"#utility.yul\":22879:22937   */\n      mstore\n        /* \"#utility.yul\":22971:22980   */\n      0x20616374696f6e00000000000000000000000000000000000000000000000000\n        /* \"#utility.yul\":22966:22968   */\n      0x20\n        /* \"#utility.yul\":22958:22964   */\n      dup3\n        /* \"#utility.yul\":22954:22969   */\n      add\n        /* \"#utility.yul\":22947:22981   */\n      mstore\n        /* \"#utility.yul\":22762:22988   */\n      pop\n      jump\t// out\n        /* \"#utility.yul\":22994:23360   */\n    tag_305:\n        /* \"#utility.yul\":23136:23139   */\n      0x00\n        /* \"#utility.yul\":23157:23224   */\n      tag_541\n        /* \"#utility.yul\":23221:23223   */\n      0x27\n        /* \"#utility.yul\":23216:23219   */\n      dup4\n        /* \"#utility.yul\":23157:23224   */\n      tag_266\n      jump\t// in\n    tag_541:\n        /* \"#utility.yul\":23150:23224   */\n      swap2\n      pop\n        /* \"#utility.yul\":23233:23326   */\n      tag_542\n        /* \"#utility.yul\":23322:23325   */\n      dup3\n        /* \"#utility.yul\":23233:23326   */\n      tag_304\n      jump\t// in\n    tag_542:\n        /* \"#utility.yul\":23351:23353   */\n      0x40\n        /* \"#utility.yul\":23346:23349   */\n      dup3\n        /* \"#utility.yul\":23342:23354   */\n      add\n        /* \"#utility.yul\":23335:23354   */\n      swap1\n      pop\n        /* \"#utility.yul\":22994:23360   */\n      swap2\n      swap1\n      pop\n      jump\t// out\n        /* \"#utility.yul\":23366:23785   */\n    tag_73:\n        /* \"#utility.yul\":23532:23536   */\n      0x00\n        /* \"#utility.yul\":23570:23572   */\n      0x20\n        /* \"#utility.yul\":23559:23568   */\n      dup3\n        /* \"#utility.yul\":23555:23573   */\n      add\n        /* \"#utility.yul\":23547:23573   */\n      swap1\n      pop\n        /* \"#utility.yul\":23619:23628   */\n      dup2\n        /* \"#utility.yul\":23613:23617   */\n      dup2\n        /* \"#utility.yul\":23609:23629   */\n      sub\n        /* \"#utility.yul\":23605:23606   */\n      0x00\n        /* \"#utility.yul\":23594:23603   */\n      dup4\n        /* \"#utility.yul\":23590:23607   */\n      add\n        /* \"#utility.yul\":23583:23630   */\n      mstore\n        /* \"#utility.yul\":23647:23778   */\n      tag_544\n        /* \"#utility.yul\":23773:23777   */\n      dup2\n        /* \"#utility.yul\":23647:23778   */\n      tag_305\n      jump\t// in\n    tag_544:\n        /* \"#utility.yul\":23639:23778   */\n      swap1\n      pop\n        /* \"#utility.yul\":23366:23785   */\n      swap2\n      swap1\n      pop\n      jump\t// out\n        /* \"#utility.yul\":23791:23971   */\n    tag_77:\n        /* \"#utility.yul\":23839:23916   */\n      0x4e487b7100000000000000000000000000000000000000000000000000000000\n        /* \"#utility.yul\":23836:23837   */\n      0x00\n        /* \"#utility.yul\":23829:23917   */\n      mstore\n        /* \"#utility.yul\":23936:23940   */\n      0x32\n        /* \"#utility.yul\":23933:23934   */\n      0x04\n        /* \"#utility.yul\":23926:23941   */\n      mstore\n        /* \"#utility.yul\":23960:23964   */\n      0x24\n        /* \"#utility.yul\":23957:23958   */\n      0x00\n        /* \"#utility.yul\":23950:23965   */\n      revert\n        /* \"#utility.yul\":23977:24149   */\n    tag_306:\n        /* \"#utility.yul\":24117:24141   */\n      0x5374616765206973206e6f7420636f6d706c6574656400000000000000000000\n        /* \"#utility.yul\":24113:24114   */\n      0x00\n        /* \"#utility.yul\":24105:24111   */\n      dup3\n        /* \"#utility.yul\":24101:24115   */\n      add\n        /* \"#utility.yul\":24094:24142   */\n      mstore\n        /* \"#utility.yul\":23977:24149   */\n      pop\n      jump\t// out\n        /* \"#utility.yul\":24155:24521   */\n    tag_307:\n        /* \"#utility.yul\":24297:24300   */\n      0x00\n        /* \"#utility.yul\":24318:24385   */\n      tag_548\n        /* \"#utility.yul\":24382:24384   */\n      0x16\n        /* \"#utility.yul\":24377:24380   */\n      dup4\n        /* \"#utility.yul\":24318:24385   */\n      tag_266\n      jump\t// in\n    tag_548:\n        /* \"#utility.yul\":24311:24385   */\n      swap2\n      pop\n        /* \"#utility.yul\":24394:24487   */\n      tag_549\n        /* \"#utility.yul\":24483:24486   */\n      dup3\n        /* \"#utility.yul\":24394:24487   */\n      tag_306\n      jump\t// in\n    tag_549:\n        /* \"#utility.yul\":24512:24514   */\n      0x20\n        /* \"#utility.yul\":24507:24510   */\n      dup3\n        /* \"#utility.yul\":24503:24515   */\n      add\n        /* \"#utility.yul\":24496:24515   */\n      swap1\n      pop\n        /* \"#utility.yul\":24155:24521   */\n      swap2\n      swap1\n      pop\n      jump\t// out\n        /* \"#utility.yul\":24527:24946   */\n    tag_81:\n        /* \"#utility.yul\":24693:24697   */\n      0x00\n        /* \"#utility.yul\":24731:24733   */\n      0x20\n        /* \"#utility.yul\":24720:24729   */\n      dup3\n        /* \"#utility.yul\":24716:24734   */\n      add\n        /* \"#utility.yul\":24708:24734   */\n      swap1\n      pop\n        /* \"#utility.yul\":24780:24789   */\n      dup2\n        /* \"#utility.yul\":24774:24778   */\n      dup2\n        /* \"#utility.yul\":24770:24790   */\n      sub\n        /* \"#utility.yul\":24766:24767   */\n      0x00\n        /* \"#utility.yul\":24755:24764   */\n      dup4\n        /* \"#utility.yul\":24751:24768   */\n      add\n        /* \"#utility.yul\":24744:24791   */\n      mstore\n        /* \"#utility.yul\":24808:24939   */\n      tag_551\n        /* \"#utility.yul\":24934:24938   */\n      dup2\n        /* \"#utility.yul\":24808:24939   */\n      tag_307\n      jump\t// in\n    tag_551:\n        /* \"#utility.yul\":24800:24939   */\n      swap1\n      pop\n        /* \"#utility.yul\":24527:24946   */\n      swap2\n      swap1\n      pop\n      jump\t// out\n        /* \"#utility.yul\":24952:25394   */\n    tag_83:\n        /* \"#utility.yul\":25101:25105   */\n      0x00\n        /* \"#utility.yul\":25139:25141   */\n      0x60\n        /* \"#utility.yul\":25128:25137   */\n      dup3\n        /* \"#utility.yul\":25124:25142   */\n      add\n        /* \"#utility.yul\":25116:25142   */\n      swap1\n      pop\n        /* \"#utility.yul\":25152:25223   */\n      tag_553\n        /* \"#utility.yul\":25220:25221   */\n      0x00\n        /* \"#utility.yul\":25209:25218   */\n      dup4\n        /* \"#utility.yul\":25205:25222   */\n      add\n        /* \"#utility.yul\":25196:25202   */\n      dup7\n        /* \"#utility.yul\":25152:25223   */\n      tag_270\n      jump\t// in\n    tag_553:\n        /* \"#utility.yul\":25233:25305   */\n      tag_554\n        /* \"#utility.yul\":25301:25303   */\n      0x20\n        /* \"#utility.yul\":25290:25299   */\n      dup4\n        /* \"#utility.yul\":25286:25304   */\n      add\n        /* \"#utility.yul\":25277:25283   */\n      dup6\n        /* \"#utility.yul\":25233:25305   */\n      tag_270\n      jump\t// in\n    tag_554:\n        /* \"#utility.yul\":25315:25387   */\n      tag_555\n        /* \"#utility.yul\":25383:25385   */\n      0x40\n        /* \"#utility.yul\":25372:25381   */\n      dup4\n        /* \"#utility.yul\":25368:25386   */\n      add\n        /* \"#utility.yul\":25359:25365   */\n      dup5\n        /* \"#utility.yul\":25315:25387   */\n      tag_270\n      jump\t// in\n    tag_555:\n        /* \"#utility.yul\":24952:25394   */\n      swap5\n      swap4\n      pop\n      pop\n      pop\n      pop\n      jump\t// out\n        /* \"#utility.yul\":25400:25580   */\n    tag_308:\n        /* \"#utility.yul\":25448:25525   */\n      0x4e487b7100000000000000000000000000000000000000000000000000000000\n        /* \"#utility.yul\":25445:25446   */\n      0x00\n        /* \"#utility.yul\":25438:25526   */\n      mstore\n        /* \"#utility.yul\":25545:25549   */\n      0x11\n        /* \"#utility.yul\":25542:25543   */\n      0x04\n        /* \"#utility.yul\":25535:25550   */\n      mstore\n        /* \"#utility.yul\":25569:25573   */\n      0x24\n        /* \"#utility.yul\":25566:25567   */\n      0x00\n        /* \"#utility.yul\":25559:25574   */\n      revert\n        /* \"#utility.yul\":25586:25819   */\n    tag_164:\n        /* \"#utility.yul\":25625:25628   */\n      0x00\n        /* \"#utility.yul\":25648:25672   */\n      tag_558\n        /* \"#utility.yul\":25666:25671   */\n      dup3\n        /* \"#utility.yul\":25648:25672   */\n      tag_262\n      jump\t// in\n    tag_558:\n        /* \"#utility.yul\":25639:25672   */\n      swap2\n      pop\n        /* \"#utility.yul\":25694:25760   */\n      0xffffffffffffffffffffffffffffffffffffffffffffffffffffffffffffffff\n        /* \"#utility.yul\":25687:25692   */\n      dup3\n        /* \"#utility.yul\":25684:25761   */\n      sub\n        /* \"#utility.yul\":25681:25784   */\n      tag_559\n      jumpi\n        /* \"#utility.yul\":25764:25782   */\n      tag_560\n      tag_308\n      jump\t// in\n    tag_560:\n        /* \"#utility.yul\":25681:25784   */\n    tag_559:\n        /* \"#utility.yul\":25811:25812   */\n      0x01\n        /* \"#utility.yul\":25804:25809   */\n      dup3\n        /* \"#utility.yul\":25800:25813   */\n      add\n        /* \"#utility.yul\":25793:25813   */\n      swap1\n      pop\n        /* \"#utility.yul\":25586:25819   */\n      swap2\n      swap1\n      pop\n      jump\t// out\n        /* \"#utility.yul\":25825:25966   */\n    tag_309:\n        /* \"#utility.yul\":25874:25878   */\n      0x00\n        /* \"#utility.yul\":25897:25900   */\n      dup2\n        /* \"#utility.yul\":25889:25900   */\n      swap1\n      pop\n        /* \"#utility.yul\":25920:25923   */\n      dup2\n        /* \"#utility.yul\":25917:25918   */\n      0x00\n        /* \"#utility.yul\":25910:25924   */\n      mstore\n        /* \"#utility.yul\":25954:25958   */\n      0x20\n        /* \"#utility.yul\":25951:25952   */\n      0x00\n        /* \"#utility.yul\":25941:25959   */\n      keccak256\n        /* \"#utility.yul\":25933:25959   */\n      swap1\n      pop\n        /* \"#utility.yul\":25825:25966   */\n      swap2\n      swap1\n      pop\n      jump\t// out\n        /* \"#utility.yul\":25972:26065   */\n    tag_310:\n        /* \"#utility.yul\":26009:26015   */\n      0x00\n        /* \"#utility.yul\":26056:26058   */\n      0x20\n        /* \"#utility.yul\":26051:26053   */\n      0x1f\n        /* \"#utility.yul\":26044:26049   */\n      dup4\n        /* \"#utility.yul\":26040:26054   */\n      add\n        /* \"#utility.yul\":26036:26059   */\n      div\n        /* \"#utility.yul\":26026:26059   */\n      swap1\n      pop\n        /* \"#utility.yul\":25972:26065   */\n      swap2\n      swap1\n      pop\n      jump\t// out\n        /* \"#utility.yul\":26071:26178   */\n    tag_311:\n        /* \"#utility.yul\":26115:26123   */\n      0x00\n        /* \"#utility.yul\":26165:26170   */\n      dup3\n        /* \"#utility.yul\":26159:26163   */\n      dup3\n        /* \"#utility.yul\":26155:26171   */\n      shl\n        /* \"#utility.yul\":26134:26171   */\n      swap1\n      pop\n        /* \"#utility.yul\":26071:26178   */\n      swap3\n      swap2\n      pop\n      pop\n      jump\t// out\n        /* \"#utility.yul\":26184:26577   */\n    tag_312:\n        /* \"#utility.yul\":26253:26259   */\n      0x00\n        /* \"#utility.yul\":26303:26304   */\n      0x08\n        /* \"#utility.yul\":26291:26301   */\n      dup4\n        /* \"#utility.yul\":26287:26305   */\n      mul\n        /* \"#utility.yul\":26326:26423   */\n      tag_565\n        /* \"#utility.yul\":26356:26422   */\n      0xffffffffffffffffffffffffffffffffffffffffffffffffffffffffffffffff\n        /* \"#utility.yul\":26345:26354   */\n      dup3\n        /* \"#utility.yul\":26326:26423   */\n      tag_311\n      jump\t// in\n    tag_565:\n        /* \"#utility.yul\":26444:26483   */\n      tag_566\n        /* \"#utility.yul\":26474:26482   */\n      dup7\n        /* \"#utility.yul\":26463:26472   */\n      dup4\n        /* \"#utility.yul\":26444:26483   */\n      tag_311\n      jump\t// in\n    tag_566:\n        /* \"#utility.yul\":26432:26483   */\n      swap6\n      pop\n        /* \"#utility.yul\":26516:26520   */\n      dup1\n        /* \"#utility.yul\":26512:26521   */\n      not\n        /* \"#utility.yul\":26505:26510   */\n      dup5\n        /* \"#utility.yul\":26501:26522   */\n      and\n        /* \"#utility.yul\":26492:26522   */\n      swap4\n      pop\n        /* \"#utility.yul\":26565:26569   */\n      dup1\n        /* \"#utility.yul\":26555:26563   */\n      dup7\n        /* \"#utility.yul\":26551:26570   */\n      and\n        /* \"#utility.yul\":26544:26549   */\n      dup5\n        /* \"#utility.yul\":26541:26571   */\n      or\n        /* \"#utility.yul\":26531:26571   */\n      swap3\n      pop\n        /* \"#utility.yul\":26260:26577   */\n      pop\n      pop\n        /* \"#utility.yul\":26184:26577   */\n      swap4\n      swap3\n      pop\n      pop\n      pop\n      jump\t// out\n        /* \"#utility.yul\":26583:26643   */\n    tag_313:\n        /* \"#utility.yul\":26611:26614   */\n      0x00\n        /* \"#utility.yul\":26632:26637   */\n      dup2\n        /* \"#utility.yul\":26625:26637   */\n      swap1\n      pop\n        /* \"#utility.yul\":26583:26643   */\n      swap2\n      swap1\n      pop\n      jump\t// out\n        /* \"#utility.yul\":26649:26791   */\n    tag_314:\n        /* \"#utility.yul\":26699:26708   */\n      0x00\n        /* \"#utility.yul\":26732:26785   */\n      tag_569\n        /* \"#utility.yul\":26750:26784   */\n      tag_570\n        /* \"#utility.yul\":26759:26783   */\n      tag_571\n        /* \"#utility.yul\":26777:26782   */\n      dup5\n        /* \"#utility.yul\":26759:26783   */\n      tag_262\n      jump\t// in\n    tag_571:\n        /* \"#utility.yul\":26750:26784   */\n      tag_313\n      jump\t// in\n    tag_570:\n        /* \"#utility.yul\":26732:26785   */\n      tag_262\n      jump\t// in\n    tag_569:\n        /* \"#utility.yul\":26719:26785   */\n      swap1\n      pop\n        /* \"#utility.yul\":26649:26791   */\n      swap2\n      swap1\n      pop\n      jump\t// out\n        /* \"#utility.yul\":26797:26872   */\n    tag_315:\n        /* \"#utility.yul\":26840:26843   */\n      0x00\n        /* \"#utility.yul\":26861:26866   */\n      dup2\n        /* \"#utility.yul\":26854:26866   */\n      swap1\n      pop\n        /* \"#utility.yul\":26797:26872   */\n      swap2\n      swap1\n      pop\n      jump\t// out\n        /* \"#utility.yul\":26878:27147   */\n    tag_316:\n        /* \"#utility.yul\":26988:27027   */\n      tag_574\n        /* \"#utility.yul\":27019:27026   */\n      dup4\n        /* \"#utility.yul\":26988:27027   */\n      tag_314\n      jump\t// in\n    tag_574:\n        /* \"#utility.yul\":27049:27140   */\n      tag_575\n        /* \"#utility.yul\":27098:27139   */\n      tag_576\n        /* \"#utility.yul\":27122:27138   */\n      dup3\n        /* \"#utility.yul\":27098:27139   */\n      tag_315\n      jump\t// in\n    tag_576:\n        /* \"#utility.yul\":27090:27096   */\n      dup5\n        /* \"#utility.yul\":27083:27087   */\n      dup5\n        /* \"#utility.yul\":27077:27088   */\n      sload\n        /* \"#utility.yul\":27049:27140   */\n      tag_312\n      jump\t// in\n    tag_575:\n        /* \"#utility.yul\":27043:27047   */\n      dup3\n        /* \"#utility.yul\":27036:27141   */\n      sstore\n        /* \"#utility.yul\":26954:27147   */\n      pop\n        /* \"#utility.yul\":26878:27147   */\n      pop\n      pop\n      pop\n      jump\t// out\n        /* \"#utility.yul\":27153:27226   */\n    tag_317:\n        /* \"#utility.yul\":27198:27201   */\n      0x00\n        /* \"#utility.yul\":27153:27226   */\n      swap1\n      jump\t// out\n        /* \"#utility.yul\":27232:27421   */\n    tag_318:\n        /* \"#utility.yul\":27309:27341   */\n      tag_579\n      tag_317\n      jump\t// in\n    tag_579:\n        /* \"#utility.yul\":27350:27415   */\n      tag_580\n        /* \"#utility.yul\":27408:27414   */\n      dup2\n        /* \"#utility.yul\":27400:27406   */\n      dup5\n        /* \"#utility.yul\":27394:27398   */\n      dup5\n        /* \"#utility.yul\":27350:27415   */\n      tag_316\n      jump\t// in\n    tag_580:\n        /* \"#utility.yul\":27285:27421   */\n      pop\n        /* \"#utility.yul\":27232:27421   */\n      pop\n      pop\n      jump\t// out\n        /* \"#utility.yul\":27427:27613   */\n    tag_319:\n        /* \"#utility.yul\":27487:27607   */\n    tag_582:\n        /* \"#utility.yul\":27504:27507   */\n      dup2\n        /* \"#utility.yul\":27497:27502   */\n      dup2\n        /* \"#utility.yul\":27494:27508   */\n      lt\n        /* \"#utility.yul\":27487:27607   */\n      iszero\n      tag_584\n      jumpi\n        /* \"#utility.yul\":27558:27597   */\n      tag_585\n        /* \"#utility.yul\":27595:27596   */\n      0x00\n        /* \"#utility.yul\":27588:27593   */\n      dup3\n        /* \"#utility.yul\":27558:27597   */\n      tag_318\n      jump\t// in\n    tag_585:\n        /* \"#utility.yul\":27531:27532   */\n      0x01\n        /* \"#utility.yul\":27524:27529   */\n      dup2\n        /* \"#utility.yul\":27520:27533   */\n      add\n        /* \"#utility.yul\":27511:27533   */\n      swap1\n      pop\n        /* \"#utility.yul\":27487:27607   */\n      jump(tag_582)\n    tag_584:\n        /* \"#utility.yul\":27427:27613   */\n      pop\n      pop\n      jump\t// out\n        /* \"#utility.yul\":27619:28162   */\n    tag_320:\n        /* \"#utility.yul\":27720:27722   */\n      0x1f\n        /* \"#utility.yul\":27715:27718   */\n      dup3\n        /* \"#utility.yul\":27712:27723   */\n      gt\n        /* \"#utility.yul\":27709:28155   */\n      iszero\n      tag_587\n      jumpi\n        /* \"#utility.yul\":27754:27792   */\n      tag_588\n        /* \"#utility.yul\":27786:27791   */\n      dup2\n        /* \"#utility.yul\":27754:27792   */\n      tag_309\n      jump\t// in\n    tag_588:\n        /* \"#utility.yul\":27838:27867   */\n      tag_589\n        /* \"#utility.yul\":27856:27866   */\n      dup5\n        /* \"#utility.yul\":27838:27867   */\n      tag_310\n      jump\t// in\n    tag_589:\n        /* \"#utility.yul\":27828:27836   */\n      dup2\n        /* \"#utility.yul\":27824:27868   */\n      add\n        /* \"#utility.yul\":28021:28023   */\n      0x20\n        /* \"#utility.yul\":28009:28019   */\n      dup6\n        /* \"#utility.yul\":28006:28024   */\n      lt\n        /* \"#utility.yul\":28003:28052   */\n      iszero\n      tag_590\n      jumpi\n        /* \"#utility.yul\":28042:28050   */\n      dup2\n        /* \"#utility.yul\":28027:28050   */\n      swap1\n      pop\n        /* \"#utility.yul\":28003:28052   */\n    tag_590:\n        /* \"#utility.yul\":28065:28145   */\n      tag_591\n        /* \"#utility.yul\":28121:28143   */\n      tag_592\n        /* \"#utility.yul\":28139:28142   */\n      dup6\n        /* \"#utility.yul\":28121:28143   */\n      tag_310\n      jump\t// in\n    tag_592:\n        /* \"#utility.yul\":28111:28119   */\n      dup4\n        /* \"#utility.yul\":28107:28144   */\n      add\n        /* \"#utility.yul\":28094:28105   */\n      dup3\n        /* \"#utility.yul\":28065:28145   */\n      tag_319\n      jump\t// in\n    tag_591:\n        /* \"#utility.yul\":27724:28155   */\n      pop\n      pop\n        /* \"#utility.yul\":27709:28155   */\n    tag_587:\n        /* \"#utility.yul\":27619:28162   */\n      pop\n      pop\n      pop\n      jump\t// out\n        /* \"#utility.yul\":28168:28285   */\n    tag_321:\n        /* \"#utility.yul\":28222:28230   */\n      0x00\n        /* \"#utility.yul\":28272:28277   */\n      dup3\n        /* \"#utility.yul\":28266:28270   */\n      dup3\n        /* \"#utility.yul\":28262:28278   */\n      shr\n        /* \"#utility.yul\":28241:28278   */\n      swap1\n      pop\n        /* \"#utility.yul\":28168:28285   */\n      swap3\n      swap2\n      pop\n      pop\n      jump\t// out\n        /* \"#utility.yul\":28291:28460   */\n    tag_322:\n        /* \"#utility.yul\":28335:28341   */\n      0x00\n        /* \"#utility.yul\":28368:28419   */\n      tag_595\n        /* \"#utility.yul\":28416:28417   */\n      0x00\n        /* \"#utility.yul\":28412:28418   */\n      not\n        /* \"#utility.yul\":28404:28409   */\n      dup5\n        /* \"#utility.yul\":28401:28402   */\n      0x08\n        /* \"#utility.yul\":28397:28410   */\n      mul\n        /* \"#utility.yul\":28368:28419   */\n      tag_321\n      jump\t// in\n    tag_595:\n        /* \"#utility.yul\":28364:28420   */\n      not\n        /* \"#utility.yul\":28449:28453   */\n      dup1\n        /* \"#utility.yul\":28443:28447   */\n      dup4\n        /* \"#utility.yul\":28439:28454   */\n      and\n        /* \"#utility.yul\":28429:28454   */\n      swap2\n      pop\n        /* \"#utility.yul\":28342:28460   */\n      pop\n        /* \"#utility.yul\":28291:28460   */\n      swap3\n      swap2\n      pop\n      pop\n      jump\t// out\n        /* \"#utility.yul\":28465:28760   */\n    tag_323:\n        /* \"#utility.yul\":28541:28545   */\n      0x00\n        /* \"#utility.yul\":28687:28716   */\n      tag_597\n        /* \"#utility.yul\":28712:28715   */\n      dup4\n        /* \"#utility.yul\":28706:28710   */\n      dup4\n        /* \"#utility.yul\":28687:28716   */\n      tag_322\n      jump\t// in\n    tag_597:\n        /* \"#utility.yul\":28679:28716   */\n      swap2\n      pop\n        /* \"#utility.yul\":28749:28752   */\n      dup3\n        /* \"#utility.yul\":28746:28747   */\n      0x02\n        /* \"#utility.yul\":28742:28753   */\n      mul\n        /* \"#utility.yul\":28736:28740   */\n      dup3\n        /* \"#utility.yul\":28733:28754   */\n      or\n        /* \"#utility.yul\":28725:28754   */\n      swap1\n      pop\n        /* \"#utility.yul\":28465:28760   */\n      swap3\n      swap2\n      pop\n      pop\n      jump\t// out\n        /* \"#utility.yul\":28765:30160   */\n    tag_200:\n        /* \"#utility.yul\":28882:28919   */\n      tag_599\n        /* \"#utility.yul\":28915:28918   */\n      dup3\n        /* \"#utility.yul\":28882:28919   */\n      tag_265\n      jump\t// in\n    tag_599:\n        /* \"#utility.yul\":28984:29002   */\n      0xffffffffffffffff\n        /* \"#utility.yul\":28976:28982   */\n      dup2\n        /* \"#utility.yul\":28973:29003   */\n      gt\n        /* \"#utility.yul\":28970:29026   */\n      iszero\n      tag_600\n      jumpi\n        /* \"#utility.yul\":29006:29024   */\n      tag_601\n      tag_139\n      jump\t// in\n    tag_601:\n        /* \"#utility.yul\":28970:29026   */\n    tag_600:\n        /* \"#utility.yul\":29050:29088   */\n      tag_602\n        /* \"#utility.yul\":29082:29086   */\n      dup3\n        /* \"#utility.yul\":29076:29087   */\n      sload\n        /* \"#utility.yul\":29050:29088   */\n      tag_85\n      jump\t// in\n    tag_602:\n        /* \"#utility.yul\":29135:29202   */\n      tag_603\n        /* \"#utility.yul\":29195:29201   */\n      dup3\n        /* \"#utility.yul\":29187:29193   */\n      dup3\n        /* \"#utility.yul\":29181:29185   */\n      dup6\n        /* \"#utility.yul\":29135:29202   */\n      tag_320\n      jump\t// in\n    tag_603:\n        /* \"#utility.yul\":29229:29230   */\n      0x00\n        /* \"#utility.yul\":29253:29257   */\n      0x20\n        /* \"#utility.yul\":29240:29257   */\n      swap1\n      pop\n        /* \"#utility.yul\":29285:29287   */\n      0x1f\n        /* \"#utility.yul\":29277:29283   */\n      dup4\n        /* \"#utility.yul\":29274:29288   */\n      gt\n        /* \"#utility.yul\":29302:29303   */\n      0x01\n        /* \"#utility.yul\":29297:29915   */\n      dup2\n      eq\n      tag_605\n      jumpi\n        /* \"#utility.yul\":29959:29960   */\n      0x00\n        /* \"#utility.yul\":29976:29982   */\n      dup5\n        /* \"#utility.yul\":29973:30050   */\n      iszero\n      tag_606\n      jumpi\n        /* \"#utility.yul\":30025:30034   */\n      dup3\n        /* \"#utility.yul\":30020:30023   */\n      dup8\n        /* \"#utility.yul\":30016:30035   */\n      add\n        /* \"#utility.yul\":30010:30036   */\n      mload\n        /* \"#utility.yul\":30001:30036   */\n      swap1\n      pop\n        /* \"#utility.yul\":29973:30050   */\n    tag_606:\n        /* \"#utility.yul\":30076:30143   */\n      tag_607\n        /* \"#utility.yul\":30136:30142   */\n      dup6\n        /* \"#utility.yul\":30129:30134   */\n      dup3\n        /* \"#utility.yul\":30076:30143   */\n      tag_323\n      jump\t// in\n    tag_607:\n        /* \"#utility.yul\":30070:30074   */\n      dup7\n        /* \"#utility.yul\":30063:30144   */\n      sstore\n        /* \"#utility.yul\":29932:30154   */\n      pop\n        /* \"#utility.yul\":29267:30154   */\n      jump(tag_604)\n        /* \"#utility.yul\":29297:29915   */\n    tag_605:\n        /* \"#utility.yul\":29349:29353   */\n      0x1f\n        /* \"#utility.yul\":29345:29354   */\n      not\n        /* \"#utility.yul\":29337:29343   */\n      dup5\n        /* \"#utility.yul\":29333:29355   */\n      and\n        /* \"#utility.yul\":29383:29420   */\n      tag_608\n        /* \"#utility.yul\":29415:29419   */\n      dup7\n        /* \"#utility.yul\":29383:29420   */\n      tag_309\n      jump\t// in\n    tag_608:\n        /* \"#utility.yul\":29442:29443   */\n      0x00\n        /* \"#utility.yul\":29456:29664   */\n    tag_609:\n        /* \"#utility.yul\":29470:29477   */\n      dup3\n        /* \"#utility.yul\":29467:29468   */\n      dup2\n        /* \"#utility.yul\":29464:29478   */\n      lt\n        /* \"#utility.yul\":29456:29664   */\n      iszero\n      tag_611\n      jumpi\n        /* \"#utility.yul\":29549:29558   */\n      dup5\n        /* \"#utility.yul\":29544:29547   */\n      dup10\n        /* \"#utility.yul\":29540:29559   */\n      add\n        /* \"#utility.yul\":29534:29560   */\n      mload\n        /* \"#utility.yul\":29526:29532   */\n      dup3\n        /* \"#utility.yul\":29519:29561   */\n      sstore\n        /* \"#utility.yul\":29600:29601   */\n      0x01\n        /* \"#utility.yul\":29592:29598   */\n      dup3\n        /* \"#utility.yul\":29588:29602   */\n      add\n        /* \"#utility.yul\":29578:29602   */\n      swap2\n      pop\n        /* \"#utility.yul\":29647:29649   */\n      0x20\n        /* \"#utility.yul\":29636:29645   */\n      dup6\n        /* \"#utility.yul\":29632:29650   */\n      add\n        /* \"#utility.yul\":29619:29650   */\n      swap5\n      pop\n        /* \"#utility.yul\":29493:29497   */\n      0x20\n        /* \"#utility.yul\":29490:29491   */\n      dup2\n        /* \"#utility.yul\":29486:29498   */\n      add\n        /* \"#utility.yul\":29481:29498   */\n      swap1\n      pop\n        /* \"#utility.yul\":29456:29664   */\n      jump(tag_609)\n    tag_611:\n        /* \"#utility.yul\":29692:29698   */\n      dup7\n        /* \"#utility.yul\":29683:29690   */\n      dup4\n        /* \"#utility.yul\":29680:29699   */\n      lt\n        /* \"#utility.yul\":29677:29856   */\n      iszero\n      tag_612\n      jumpi\n        /* \"#utility.yul\":29750:29759   */\n      dup5\n        /* \"#utility.yul\":29745:29748   */\n      dup10\n        /* \"#utility.yul\":29741:29760   */\n      add\n        /* \"#utility.yul\":29735:29761   */\n      mload\n        /* \"#utility.yul\":29793:29841   */\n      tag_613\n        /* \"#utility.yul\":29835:29839   */\n      0x1f\n        /* \"#utility.yul\":29827:29833   */\n      dup10\n        /* \"#utility.yul\":29823:29840   */\n      and\n        /* \"#utility.yul\":29812:29821   */\n      dup3\n        /* \"#utility.yul\":29793:29841   */\n      tag_322\n      jump\t// in\n    tag_613:\n        /* \"#utility.yul\":29785:29791   */\n      dup4\n        /* \"#utility.yul\":29778:29842   */\n      sstore\n        /* \"#utility.yul\":29700:29856   */\n      pop\n        /* \"#utility.yul\":29677:29856   */\n    tag_612:\n        /* \"#utility.yul\":29902:29903   */\n      0x01\n        /* \"#utility.yul\":29898:29899   */\n      0x02\n        /* \"#utility.yul\":29890:29896   */\n      dup9\n        /* \"#utility.yul\":29886:29900   */\n      mul\n        /* \"#utility.yul\":29882:29904   */\n      add\n        /* \"#utility.yul\":29876:29880   */\n      dup9\n        /* \"#utility.yul\":29869:29905   */\n      sstore\n        /* \"#utility.yul\":29304:29915   */\n      pop\n      pop\n      pop\n        /* \"#utility.yul\":29267:30154   */\n    tag_604:\n      pop\n        /* \"#utility.yul\":28857:30160   */\n      pop\n      pop\n      pop\n        /* \"#utility.yul\":28765:30160   */\n      pop\n      pop\n      jump\t// out\n        /* \"#utility.yul\":30166:30992   */\n    tag_207:\n        /* \"#utility.yul\":30403:30407   */\n      0x00\n        /* \"#utility.yul\":30441:30444   */\n      0x80\n        /* \"#utility.yul\":30430:30439   */\n      dup3\n        /* \"#utility.yul\":30426:30445   */\n      add\n        /* \"#utility.yul\":30418:30445   */\n      swap1\n      pop\n        /* \"#utility.yul\":30455:30526   */\n      tag_615\n        /* \"#utility.yul\":30523:30524   */\n      0x00\n        /* \"#utility.yul\":30512:30521   */\n      dup4\n        /* \"#utility.yul\":30508:30525   */\n      add\n        /* \"#utility.yul\":30499:30505   */\n      dup8\n        /* \"#utility.yul\":30455:30526   */\n      tag_270\n      jump\t// in\n    tag_615:\n        /* \"#utility.yul\":30573:30582   */\n      dup2\n        /* \"#utility.yul\":30567:30571   */\n      dup2\n        /* \"#utility.yul\":30563:30583   */\n      sub\n        /* \"#utility.yul\":30558:30560   */\n      0x20\n        /* \"#utility.yul\":30547:30556   */\n      dup4\n        /* \"#utility.yul\":30543:30561   */\n      add\n        /* \"#utility.yul\":30536:30584   */\n      mstore\n        /* \"#utility.yul\":30601:30679   */\n      tag_616\n        /* \"#utility.yul\":30674:30678   */\n      dup2\n        /* \"#utility.yul\":30665:30671   */\n      dup7\n        /* \"#utility.yul\":30601:30679   */\n      tag_269\n      jump\t// in\n    tag_616:\n        /* \"#utility.yul\":30593:30679   */\n      swap1\n      pop\n        /* \"#utility.yul\":30726:30735   */\n      dup2\n        /* \"#utility.yul\":30720:30724   */\n      dup2\n        /* \"#utility.yul\":30716:30736   */\n      sub\n        /* \"#utility.yul\":30711:30713   */\n      0x40\n        /* \"#utility.yul\":30700:30709   */\n      dup4\n        /* \"#utility.yul\":30696:30714   */\n      add\n        /* \"#utility.yul\":30689:30737   */\n      mstore\n        /* \"#utility.yul\":30754:30832   */\n      tag_617\n        /* \"#utility.yul\":30827:30831   */\n      dup2\n        /* \"#utility.yul\":30818:30824   */\n      dup6\n        /* \"#utility.yul\":30754:30832   */\n      tag_269\n      jump\t// in\n    tag_617:\n        /* \"#utility.yul\":30746:30832   */\n      swap1\n      pop\n        /* \"#utility.yul\":30879:30888   */\n      dup2\n        /* \"#utility.yul\":30873:30877   */\n      dup2\n        /* \"#utility.yul\":30869:30889   */\n      sub\n        /* \"#utility.yul\":30864:30866   */\n      0x60\n        /* \"#utility.yul\":30853:30862   */\n      dup4\n        /* \"#utility.yul\":30849:30867   */\n      add\n        /* \"#utility.yul\":30842:30890   */\n      mstore\n        /* \"#utility.yul\":30907:30985   */\n      tag_618\n        /* \"#utility.yul\":30980:30984   */\n      dup2\n        /* \"#utility.yul\":30971:30977   */\n      dup5\n        /* \"#utility.yul\":30907:30985   */\n      tag_269\n      jump\t// in\n    tag_618:\n        /* \"#utility.yul\":30899:30985   */\n      swap1\n      pop\n        /* \"#utility.yul\":30166:30992   */\n      swap6\n      swap5\n      pop\n      pop\n      pop\n      pop\n      pop\n      jump\t// out\n        /* \"#utility.yul\":30998:31192   */\n    tag_219:\n        /* \"#utility.yul\":31038:31042   */\n      0x00\n        /* \"#utility.yul\":31058:31078   */\n      tag_620\n        /* \"#utility.yul\":31076:31077   */\n      dup3\n        /* \"#utility.yul\":31058:31078   */\n      tag_262\n      jump\t// in\n    tag_620:\n        /* \"#utility.yul\":31053:31078   */\n      swap2\n      pop\n        /* \"#utility.yul\":31092:31112   */\n      tag_621\n        /* \"#utility.yul\":31110:31111   */\n      dup4\n        /* \"#utility.yul\":31092:31112   */\n      tag_262\n      jump\t// in\n    tag_621:\n        /* \"#utility.yul\":31087:31112   */\n      swap3\n      pop\n        /* \"#utility.yul\":31136:31137   */\n      dup3\n        /* \"#utility.yul\":31133:31134   */\n      dup3\n        /* \"#utility.yul\":31129:31138   */\n      sub\n        /* \"#utility.yul\":31121:31138   */\n      swap1\n      pop\n        /* \"#utility.yul\":31160:31161   */\n      dup2\n        /* \"#utility.yul\":31154:31158   */\n      dup2\n        /* \"#utility.yul\":31151:31162   */\n      gt\n        /* \"#utility.yul\":31148:31185   */\n      iszero\n      tag_622\n      jumpi\n        /* \"#utility.yul\":31165:31183   */\n      tag_623\n      tag_308\n      jump\t// in\n    tag_623:\n        /* \"#utility.yul\":31148:31185   */\n    tag_622:\n        /* \"#utility.yul\":30998:31192   */\n      swap3\n      swap2\n      pop\n      pop\n      jump\t// out\n        /* \"#utility.yul\":31198:31842   */\n    tag_221:\n        /* \"#utility.yul\":31395:31399   */\n      0x00\n        /* \"#utility.yul\":31433:31436   */\n      0x80\n        /* \"#utility.yul\":31422:31431   */\n      dup3\n        /* \"#utility.yul\":31418:31437   */\n      add\n        /* \"#utility.yul\":31410:31437   */\n      swap1\n      pop\n        /* \"#utility.yul\":31447:31518   */\n      tag_625\n        /* \"#utility.yul\":31515:31516   */\n      0x00\n        /* \"#utility.yul\":31504:31513   */\n      dup4\n        /* \"#utility.yul\":31500:31517   */\n      add\n        /* \"#utility.yul\":31491:31497   */\n      dup8\n        /* \"#utility.yul\":31447:31518   */\n      tag_270\n      jump\t// in\n    tag_625:\n        /* \"#utility.yul\":31528:31600   */\n      tag_626\n        /* \"#utility.yul\":31596:31598   */\n      0x20\n        /* \"#utility.yul\":31585:31594   */\n      dup4\n        /* \"#utility.yul\":31581:31599   */\n      add\n        /* \"#utility.yul\":31572:31578   */\n      dup7\n        /* \"#utility.yul\":31528:31600   */\n      tag_270\n      jump\t// in\n    tag_626:\n        /* \"#utility.yul\":31647:31656   */\n      dup2\n        /* \"#utility.yul\":31641:31645   */\n      dup2\n        /* \"#utility.yul\":31637:31657   */\n      sub\n        /* \"#utility.yul\":31632:31634   */\n      0x40\n        /* \"#utility.yul\":31621:31630   */\n      dup4\n        /* \"#utility.yul\":31617:31635   */\n      add\n        /* \"#utility.yul\":31610:31658   */\n      mstore\n        /* \"#utility.yul\":31675:31753   */\n      tag_627\n        /* \"#utility.yul\":31748:31752   */\n      dup2\n        /* \"#utility.yul\":31739:31745   */\n      dup6\n        /* \"#utility.yul\":31675:31753   */\n      tag_269\n      jump\t// in\n    tag_627:\n        /* \"#utility.yul\":31667:31753   */\n      swap1\n      pop\n        /* \"#utility.yul\":31763:31835   */\n      tag_628\n        /* \"#utility.yul\":31831:31833   */\n      0x60\n        /* \"#utility.yul\":31820:31829   */\n      dup4\n        /* \"#utility.yul\":31816:31834   */\n      add\n        /* \"#utility.yul\":31807:31813   */\n      dup5\n        /* \"#utility.yul\":31763:31835   */\n      tag_270\n      jump\t// in\n    tag_628:\n        /* \"#utility.yul\":31198:31842   */\n      swap6\n      swap5\n      pop\n      pop\n      pop\n      pop\n      pop\n      jump\t// out\n        /* \"#utility.yul\":31848:32025   */\n    tag_324:\n        /* \"#utility.yul\":31988:32017   */\n      0x4e6f7420616e20617574686f72697a65642076616c696461746f720000000000\n        /* \"#utility.yul\":31984:31985   */\n      0x00\n        /* \"#utility.yul\":31976:31982   */\n      dup3\n        /* \"#utility.yul\":31972:31986   */\n      add\n        /* \"#utility.yul\":31965:32018   */\n      mstore\n        /* \"#utility.yul\":31848:32025   */\n      pop\n      jump\t// out\n        /* \"#utility.yul\":32031:32397   */\n    tag_325:\n        /* \"#utility.yul\":32173:32176   */\n      0x00\n        /* \"#utility.yul\":32194:32261   */\n      tag_631\n        /* \"#utility.yul\":32258:32260   */\n      0x1b\n        /* \"#utility.yul\":32253:32256   */\n      dup4\n        /* \"#utility.yul\":32194:32261   */\n      tag_266\n      jump\t// in\n    tag_631:\n        /* \"#utility.yul\":32187:32261   */\n      swap2\n      pop\n        /* \"#utility.yul\":32270:32363   */\n      tag_632\n        /* \"#utility.yul\":32359:32362   */\n      dup3\n        /* \"#utility.yul\":32270:32363   */\n      tag_324\n      jump\t// in\n    tag_632:\n        /* \"#utility.yul\":32388:32390   */\n      0x20\n        /* \"#utility.yul\":32383:32386   */\n      dup3\n        /* \"#utility.yul\":32379:32391   */\n      add\n        /* \"#utility.yul\":32372:32391   */\n      swap1\n      pop\n        /* \"#utility.yul\":32031:32397   */\n      swap2\n      swap1\n      pop\n      jump\t// out\n        /* \"#utility.yul\":32403:32822   */\n    tag_238:\n        /* \"#utility.yul\":32569:32573   */\n      0x00\n        /* \"#utility.yul\":32607:32609   */\n      0x20\n        /* \"#utility.yul\":32596:32605   */\n      dup3\n        /* \"#utility.yul\":32592:32610   */\n      add\n        /* \"#utility.yul\":32584:32610   */\n      swap1\n      pop\n        /* \"#utility.yul\":32656:32665   */\n      dup2\n        /* \"#utility.yul\":32650:32654   */\n      dup2\n        /* \"#utility.yul\":32646:32666   */\n      sub\n        /* \"#utility.yul\":32642:32643   */\n      0x00\n        /* \"#utility.yul\":32631:32640   */\n      dup4\n        /* \"#utility.yul\":32627:32644   */\n      add\n        /* \"#utility.yul\":32620:32667   */\n      mstore\n        /* \"#utility.yul\":32684:32815   */\n      tag_634\n        /* \"#utility.yul\":32810:32814   */\n      dup2\n        /* \"#utility.yul\":32684:32815   */\n      tag_325\n      jump\t// in\n    tag_634:\n        /* \"#utility.yul\":32676:32815   */\n      swap1\n      pop\n        /* \"#utility.yul\":32403:32822   */\n      swap2\n      swap1\n      pop\n      jump\t// out\n        /* \"#utility.yul\":32828:33361   */\n    tag_241:\n        /* \"#utility.yul\":32997:33001   */\n      0x00\n        /* \"#utility.yul\":33035:33037   */\n      0x60\n        /* \"#utility.yul\":33024:33033   */\n      dup3\n        /* \"#utility.yul\":33020:33038   */\n      add\n        /* \"#utility.yul\":33012:33038   */\n      swap1\n      pop\n        /* \"#utility.yul\":33048:33119   */\n      tag_636\n        /* \"#utility.yul\":33116:33117   */\n      0x00\n        /* \"#utility.yul\":33105:33114   */\n      dup4\n        /* \"#utility.yul\":33101:33118   */\n      add\n        /* \"#utility.yul\":33092:33098   */\n      dup7\n        /* \"#utility.yul\":33048:33119   */\n      tag_270\n      jump\t// in\n    tag_636:\n        /* \"#utility.yul\":33129:33201   */\n      tag_637\n        /* \"#utility.yul\":33197:33199   */\n      0x20\n        /* \"#utility.yul\":33186:33195   */\n      dup4\n        /* \"#utility.yul\":33182:33200   */\n      add\n        /* \"#utility.yul\":33173:33179   */\n      dup6\n        /* \"#utility.yul\":33129:33201   */\n      tag_270\n      jump\t// in\n    tag_637:\n        /* \"#utility.yul\":33248:33257   */\n      dup2\n        /* \"#utility.yul\":33242:33246   */\n      dup2\n        /* \"#utility.yul\":33238:33258   */\n      sub\n        /* \"#utility.yul\":33233:33235   */\n      0x40\n        /* \"#utility.yul\":33222:33231   */\n      dup4\n        /* \"#utility.yul\":33218:33236   */\n      add\n        /* \"#utility.yul\":33211:33259   */\n      mstore\n        /* \"#utility.yul\":33276:33354   */\n      tag_638\n        /* \"#utility.yul\":33349:33353   */\n      dup2\n        /* \"#utility.yul\":33340:33346   */\n      dup5\n        /* \"#utility.yul\":33276:33354   */\n      tag_269\n      jump\t// in\n    tag_638:\n        /* \"#utility.yul\":33268:33354   */\n      swap1\n      pop\n        /* \"#utility.yul\":32828:33361   */\n      swap5\n      swap4\n      pop\n      pop\n      pop\n      pop\n      jump\t// out\n\n    auxdata: 0xa26469706673582212205b5c2d3d9894040a923f129ae1f7315304fd2ae7e0eca4e8c4f7decf2ae1bcd064736f6c63430008140033\n}\n",
				"bytecode": {
					"linkReferences": {},
					"object": "60806040526040518060400160405280600681526020017f6167656e637900000000000000000000000000000000000000000000000000008152505f9081620000499190620002c5565b505f6001553480156200005a575f80fd5b50620003a9565b5f81519050919050565b7f4e487b71000000000000000000000000000000000000000000000000000000005f52604160045260245ffd5b7f4e487b71000000000000000000000000000000000000000000000000000000005f52602260045260245ffd5b5f6002820490506001821680620000dd57607f821691505b602082108103620000f357620000f262000098565b5b50919050565b5f819050815f5260205f209050919050565b5f6020601f8301049050919050565b5f82821b905092915050565b5f60088302620001577fffffffffffffffffffffffffffffffffffffffffffffffffffffffffffffffff826200011a565b6200016386836200011a565b95508019841693508086168417925050509392505050565b5f819050919050565b5f819050919050565b5f620001ad620001a7620001a1846200017b565b62000184565b6200017b565b9050919050565b5f819050919050565b620001c8836200018d565b620001e0620001d782620001b4565b84845462000126565b825550505050565b5f90565b620001f6620001e8565b62000203818484620001bd565b505050565b5b818110156200022a576200021e5f82620001ec565b60018101905062000209565b5050565b601f82111562000279576200024381620000f9565b6200024e846200010b565b810160208510156200025e578190505b620002766200026d856200010b565b83018262000208565b50505b505050565b5f82821c905092915050565b5f6200029b5f19846008026200027e565b1980831691505092915050565b5f620002b583836200028a565b9150826002028217905092915050565b620002d08262000061565b67ffffffffffffffff811115620002ec57620002eb6200006b565b5b620002f88254620000c5565b620003058282856200022e565b5f60209050601f8311600181146200033b575f841562000326578287015190505b620003328582620002a8565b865550620003a1565b601f1984166200034b86620000f9565b5f5b8281101562000374578489015182556001820191506020850194506020810190506200034d565b8683101562000394578489015162000390601f8916826200028a565b8355505b6001600288020188555050505b505050505050565b61251280620003b75f395ff3fe608060405234801561000f575f80fd5b50600436106100b2575f3560e01c806393dc12e61161006f57806393dc12e6146101c957806399e76d35146101e5578063a7ee42de14610203578063cce9889e1461021f578063e4a8f18b1461023b578063f5c4b73e14610259576100b2565b8063089cd025146100b6578063107046bd146100d257806348c35ad41461010b5780634ac647661461013b5780635f8439e3146101595780638abb10c614610190575b5f80fd5b6100d060048036038101906100cb9190611495565b610275565b005b6100ec60048036038101906100e791906114d3565b6103c4565b6040516101029a999897969594939291906115b1565b60405180910390f35b610125600480360381019061012091906114d3565b6106be565b604051610132919061166e565b60405180910390f35b6101436106de565b604051610150919061173e565b60405180910390f35b610173600480360381019061016e91906114d3565b610734565b60405161018798979695949392919061175e565b60405180910390f35b6101aa60048036038101906101a591906114d3565b6109c6565b6040516101c09a999897969594939291906118f9565b60405180910390f35b6101e360048036038101906101de91906114d3565b610e3b565b005b6101ed610f22565b6040516101fa91906119bd565b60405180910390f35b61021d60048036038101906102189190611b09565b610fad565b005b61023960048036038101906102349190611d14565b6110e0565b005b61024361124a565b604051610250919061166e565b60405180910390f35b610273600480360381019061026e9190611db0565b611253565b005b815f6040516102849190611f15565b604051809103902060025f8381526020019081526020015f206003016040516102ad9190611f15565b6040518091039020146102f5576040517f08c379a00000000000000000000000000000000000000000000000000000000081526004016102ec90611f9b565b60405180910390fd5b5f60025f8581526020019081526020015f20600a01838154811061031c5761031b611fb9565b5b905f5260205f2090600702019050806006015f9054906101000a900460ff1661037a576040517f08c379a000000000000000000000000000000000000000000000000000000000815260040161037190612030565b60405180910390fd5b5f816003015490507f5253c07c8bd01b0d3b85252a002abbf708a1aafb43b87c6578285c7d54f8373f8585836040516103b59392919061204e565b60405180910390a15050505050565b6002602052805f5260405f205f91509050805f0180546103e390611e49565b80601f016020809104026020016040519081016040528092919081815260200182805461040f90611e49565b801561045a5780601f106104315761010080835404028352916020019161045a565b820191905f5260205f20905b81548152906001019060200180831161043d57829003601f168201915b50505050509080600101805461046f90611e49565b80601f016020809104026020016040519081016040528092919081815260200182805461049b90611e49565b80156104e65780601f106104bd576101008083540402835291602001916104e6565b820191905f5260205f20905b8154815290600101906020018083116104c957829003601f168201915b5050505050908060020180546104fb90611e49565b80601f016020809104026020016040519081016040528092919081815260200182805461052790611e49565b80156105725780601f1061054957610100808354040283529160200191610572565b820191905f5260205f20905b81548152906001019060200180831161055557829003601f168201915b50505050509080600301805461058790611e49565b80601f01602080910402602001604051908101604052809291908181526020018280546105b390611e49565b80156105fe5780601f106105d5576101008083540402835291602001916105fe565b820191905f5260205f20905b8154815290600101906020018083116105e157829003601f168201915b50505050509080600401805461061390611e49565b80601f016020809104026020016040519081016040528092919081815260200182805461063f90611e49565b801561068a5780601f106106615761010080835404028352916020019161068a565b820191905f5260205f20905b81548152906001019060200180831161066d57829003601f168201915b505050505090806005015490806006015490806007015490806008015490806009015f9054906101000a900460ff1690508a565b600381815481106106cd575f80fd5b905f5260205f20015f915090505481565b6060600380548060200260200160405190810160405280929190818152602001828054801561072a57602002820191905f5260205f20905b815481526020019060010190808311610716575b5050505050905090565b6060806060805f805f805f60025f8b81526020019081526020015f20905080600101816002018260030183600401846005015485600601548660070154876009015f9054906101000a900460ff1687805461078e90611e49565b80601f01602080910402602001604051908101604052809291908181526020018280546107ba90611e49565b80156108055780601f106107dc57610100808354040283529160200191610805565b820191905f5260205f20905b8154815290600101906020018083116107e857829003601f168201915b5050505050975086805461081890611e49565b80601f016020809104026020016040519081016040528092919081815260200182805461084490611e49565b801561088f5780601f106108665761010080835404028352916020019161088f565b820191905f5260205f20905b81548152906001019060200180831161087257829003601f168201915b505050505096508580546108a290611e49565b80601f01602080910402602001604051908101604052809291908181526020018280546108ce90611e49565b80156109195780601f106108f057610100808354040283529160200191610919565b820191905f5260205f20905b8154815290600101906020018083116108fc57829003601f168201915b5050505050955084805461092c90611e49565b80601f016020809104026020016040519081016040528092919081815260200182805461095890611e49565b80156109a35780601f1061097a576101008083540402835291602001916109a3565b820191905f5260205f20905b81548152906001019060200180831161098657829003601f168201915b505050505094509850985098509850985098509850985050919395975091939597565b6060806060805f805f806060805f60025f8d81526020019081526020015f2090505f81600a018054905090505f8167ffffffffffffffff811115610a0d57610a0c6119e5565b5b604051908082528060200260200182016040528015610a3b5781602001602082028036833780820191505090505b5090505f8267ffffffffffffffff811115610a5957610a586119e5565b5b604051908082528060200260200182016040528015610a8c57816020015b6060815260200190600190039081610a775790505b5090505f5b83811015610bbb5784600a018181548110610aaf57610aae611fb9565b5b905f5260205f20906007020160030154838281518110610ad257610ad1611fb9565b5b60200260200101818152505084600a018181548110610af457610af3611fb9565b5b905f5260205f2090600702016001018054610b0e90611e49565b80601f0160208091040260200160405190810160405280929190818152602001828054610b3a90611e49565b8015610b855780601f10610b5c57610100808354040283529160200191610b85565b820191905f5260205f20905b815481529060010190602001808311610b6857829003601f168201915b5050505050828281518110610b9d57610b9c611fb9565b5b60200260200101819052508080610bb3906120b0565b915050610a91565b50836001018460020185600301866004018760050154886006015489600701548a6009015f9054906101000a900460ff168989898054610bfa90611e49565b80601f0160208091040260200160405190810160405280929190818152602001828054610c2690611e49565b8015610c715780601f10610c4857610100808354040283529160200191610c71565b820191905f5260205f20905b815481529060010190602001808311610c5457829003601f168201915b50505050509950888054610c8490611e49565b80601f0160208091040260200160405190810160405280929190818152602001828054610cb090611e49565b8015610cfb5780601f10610cd257610100808354040283529160200191610cfb565b820191905f5260205f20905b815481529060010190602001808311610cde57829003601f168201915b50505050509850878054610d0e90611e49565b80601f0160208091040260200160405190810160405280929190818152602001828054610d3a90611e49565b8015610d855780601f10610d5c57610100808354040283529160200191610d85565b820191905f5260205f20905b815481529060010190602001808311610d6857829003601f168201915b50505050509750868054610d9890611e49565b80601f0160208091040260200160405190810160405280929190818152602001828054610dc490611e49565b8015610e0f5780601f10610de657610100808354040283529160200191610e0f565b820191905f5260205f20905b815481529060010190602001808311610df257829003601f168201915b505050505096509d509d509d509d509d509d509d509d509d509d50505050509193959799509193959799565b805f604051610e4a9190611f15565b604051809103902060025f8381526020019081526020015f20600301604051610e739190611f15565b604051809103902014610ebb576040517f08c379a0000000000000000000000000000000000000000000000000000000008152600401610eb290611f9b565b60405180910390fd5b600160025f8481526020019081526020015f206009015f6101000a81548160ff0219169083151502179055507fa10da3bd85a8a7569325abd94177d0bbf25fbded5a3f6622a5588ce2cf1153ba82604051610f16919061166e565b60405180910390a15050565b5f8054610f2e90611e49565b80601f0160208091040260200160405190810160405280929190818152602001828054610f5a90611e49565b8015610fa55780601f10610f7c57610100808354040283529160200191610fa5565b820191905f5260205f20905b815481529060010190602001808311610f8857829003601f168201915b505050505081565b5f60015f815480929190610fc0906120b0565b9190505590505f60025f8381526020019081526020015f20905087816001019081610feb9190612294565b5086816002019081610ffd9190612294565b5088815f01908161100e9190612294565b50858160030190816110209190612294565b50848160040190816110329190612294565b504281600501819055508381600601819055508281600701819055505f816009015f6101000a81548160ff0219169083151502179055505f8160080181905550600382908060018154018082558091505060019003905f5260205f20015f90919091909150557fd435653848bbfa44a9136b793e660753873e5b87ee80e7289d257538214bd3e0828988886040516110cd9493929190612363565b60405180910390a1505050505050505050565b835f6040516110ef9190611f15565b604051809103902060025f8381526020019081526020015f206003016040516111189190611f15565b604051809103902014611160576040517f08c379a000000000000000000000000000000000000000000000000000000000815260040161115790611f9b565b60405180910390fd5b5f60025f8781526020019081526020015f20600a0160018160018154018082558091505003905f5260205f2090600702019050848160010190816111a49190612294565b50838160030181905550828160040190805190602001906111c692919061137f565b505f816006015f6101000a81548160ff0219169083151502179055507fdfc881edf63042ccef2e2f9bf1c9cee4daeb0e16941eac6001024d72d80de00e86600160025f8a81526020019081526020015f20600a018054905061122891906123bb565b878760405161123a94939291906123ee565b60405180910390a1505050505050565b5f600154905090565b8282825f60025f8581526020019081526020015f20600a01838154811061127d5761127c611fb9565b5b905f5260205f20906007020190505f805b82600401805490508110156112f95783805190602001208360040182815481106112bb576112ba611fb9565b5b905f5260205f20016040516112d09190611f15565b6040518091039020036112e657600191506112f9565b80806112f1906120b0565b91505061128e565b508061133a576040517f08c379a000000000000000000000000000000000000000000000000000000000815260040161133190612482565b60405180910390fd5b7f9f64639419de97116219d1f7c000638905fa8176602dc9afd7d28338b6a803cc88888860405161136d939291906124a0565b60405180910390a15050505050505050565b828054828255905f5260205f209081019282156113c5579160200282015b828111156113c45782518290816113b49190612294565b509160200191906001019061139d565b5b5090506113d291906113d6565b5090565b5b808211156113f5575f81816113ec91906113f9565b506001016113d7565b5090565b50805461140590611e49565b5f825580601f106114165750611433565b601f0160209004905f5260205f20908101906114329190611436565b5b50565b5b8082111561144d575f815f905550600101611437565b5090565b5f604051905090565b5f80fd5b5f80fd5b5f819050919050565b61147481611462565b811461147e575f80fd5b50565b5f8135905061148f8161146b565b92915050565b5f80604083850312156114ab576114aa61145a565b5b5f6114b885828601611481565b92505060206114c985828601611481565b9150509250929050565b5f602082840312156114e8576114e761145a565b5b5f6114f584828501611481565b91505092915050565b5f81519050919050565b5f82825260208201905092915050565b5f5b8381101561153557808201518184015260208101905061151a565b5f8484015250505050565b5f601f19601f8301169050919050565b5f61155a826114fe565b6115648185611508565b9350611574818560208601611518565b61157d81611540565b840191505092915050565b61159181611462565b82525050565b5f8115159050919050565b6115ab81611597565b82525050565b5f610140820190508181035f8301526115ca818d611550565b905081810360208301526115de818c611550565b905081810360408301526115f2818b611550565b90508181036060830152611606818a611550565b9050818103608083015261161a8189611550565b905061162960a0830188611588565b61163660c0830187611588565b61164360e0830186611588565b611651610100830185611588565b61165f6101208301846115a2565b9b9a5050505050505050505050565b5f6020820190506116815f830184611588565b92915050565b5f81519050919050565b5f82825260208201905092915050565b5f819050602082019050919050565b6116b981611462565b82525050565b5f6116ca83836116b0565b60208301905092915050565b5f602082019050919050565b5f6116ec82611687565b6116f68185611691565b9350611701836116a1565b805f5b8381101561173157815161171888826116bf565b9750611723836116d6565b925050600181019050611704565b5085935050505092915050565b5f6020820190508181035f83015261175681846116e2565b905092915050565b5f610100820190508181035f830152611777818b611550565b9050818103602083015261178b818a611550565b9050818103604083015261179f8189611550565b905081810360608301526117b38188611550565b90506117c26080830187611588565b6117cf60a0830186611588565b6117dc60c0830185611588565b6117e960e08301846115a2565b9998505050505050505050565b5f81519050919050565b5f82825260208201905092915050565b5f819050602082019050919050565b5f82825260208201905092915050565b5f611839826114fe565b611843818561181f565b9350611853818560208601611518565b61185c81611540565b840191505092915050565b5f611872838361182f565b905092915050565b5f602082019050919050565b5f611890826117f6565b61189a8185611800565b9350836020820285016118ac85611810565b805f5b858110156118e757848403895281516118c88582611867565b94506118d38361187a565b925060208a019950506001810190506118af565b50829750879550505050505092915050565b5f610140820190508181035f830152611912818d611550565b90508181036020830152611926818c611550565b9050818103604083015261193a818b611550565b9050818103606083015261194e818a611550565b905061195d6080830189611588565b61196a60a0830188611588565b61197760c0830187611588565b61198460e08301866115a2565b81810361010083015261199781856116e2565b90508181036101208301526119ac8184611886565b90509b9a5050505050505050505050565b5f6020820190508181035f8301526119d58184611550565b905092915050565b5f80fd5b5f80fd5b7f4e487b71000000000000000000000000000000000000000000000000000000005f52604160045260245ffd5b611a1b82611540565b810181811067ffffffffffffffff82111715611a3a57611a396119e5565b5b80604052505050565b5f611a4c611451565b9050611a588282611a12565b919050565b5f67ffffffffffffffff821115611a7757611a766119e5565b5b611a8082611540565b9050602081019050919050565b828183375f83830152505050565b5f611aad611aa884611a5d565b611a43565b905082815260208101848484011115611ac957611ac86119e1565b5b611ad4848285611a8d565b509392505050565b5f82601f830112611af057611aef6119dd565b5b8135611b00848260208601611a9b565b91505092915050565b5f805f805f805f60e0888a031215611b2457611b2361145a565b5b5f88013567ffffffffffffffff811115611b4157611b4061145e565b5b611b4d8a828b01611adc565b975050602088013567ffffffffffffffff811115611b6e57611b6d61145e565b5b611b7a8a828b01611adc565b965050604088013567ffffffffffffffff811115611b9b57611b9a61145e565b5b611ba78a828b01611adc565b955050606088013567ffffffffffffffff811115611bc857611bc761145e565b5b611bd48a828b01611adc565b945050608088013567ffffffffffffffff811115611bf557611bf461145e565b5b611c018a828b01611adc565b93505060a0611c128a828b01611481565b92505060c0611c238a828b01611481565b91505092959891949750929550565b5f67ffffffffffffffff821115611c4c57611c4b6119e5565b5b602082029050602081019050919050565b5f80fd5b5f611c73611c6e84611c32565b611a43565b90508083825260208201905060208402830185811115611c9657611c95611c5d565b5b835b81811015611cdd57803567ffffffffffffffff811115611cbb57611cba6119dd565b5b808601611cc88982611adc565b85526020850194505050602081019050611c98565b5050509392505050565b5f82601f830112611cfb57611cfa6119dd565b5b8135611d0b848260208601611c61565b91505092915050565b5f805f8060808587031215611d2c57611d2b61145a565b5b5f611d3987828801611481565b945050602085013567ffffffffffffffff811115611d5a57611d5961145e565b5b611d6687828801611adc565b9350506040611d7787828801611481565b925050606085013567ffffffffffffffff811115611d9857611d9761145e565b5b611da487828801611ce7565b91505092959194509250565b5f805f60608486031215611dc757611dc661145a565b5b5f611dd486828701611481565b9350506020611de586828701611481565b925050604084013567ffffffffffffffff811115611e0657611e0561145e565b5b611e1286828701611adc565b9150509250925092565b7f4e487b71000000000000000000000000000000000000000000000000000000005f52602260045260245ffd5b5f6002820490506001821680611e6057607f821691505b602082108103611e7357611e72611e1c565b5b50919050565b5f81905092915050565b5f819050815f5260205f209050919050565b5f8154611ea181611e49565b611eab8186611e79565b9450600182165f8114611ec55760018114611eda57611f0c565b60ff1983168652811515820286019350611f0c565b611ee385611e83565b5f5b83811015611f0457815481890152600182019150602081019050611ee5565b838801955050505b50505092915050565b5f611f208284611e95565b915081905092915050565b7f4f6e6c792074686520636c69656e742063616e20706572666f726d20746869735f8201527f20616374696f6e00000000000000000000000000000000000000000000000000602082015250565b5f611f85602783611508565b9150611f9082611f2b565b604082019050919050565b5f6020820190508181035f830152611fb281611f79565b9050919050565b7f4e487b71000000000000000000000000000000000000000000000000000000005f52603260045260245ffd5b7f5374616765206973206e6f7420636f6d706c65746564000000000000000000005f82015250565b5f61201a601683611508565b915061202582611fe6565b602082019050919050565b5f6020820190508181035f8301526120478161200e565b9050919050565b5f6060820190506120615f830186611588565b61206e6020830185611588565b61207b6040830184611588565b949350505050565b7f4e487b71000000000000000000000000000000000000000000000000000000005f52601160045260245ffd5b5f6120ba82611462565b91507fffffffffffffffffffffffffffffffffffffffffffffffffffffffffffffffff82036120ec576120eb612083565b5b600182019050919050565b5f819050815f5260205f209050919050565b5f6020601f8301049050919050565b5f82821b905092915050565b5f600883026121537fffffffffffffffffffffffffffffffffffffffffffffffffffffffffffffffff82612118565b61215d8683612118565b95508019841693508086168417925050509392505050565b5f819050919050565b5f61219861219361218e84611462565b612175565b611462565b9050919050565b5f819050919050565b6121b18361217e565b6121c56121bd8261219f565b848454612124565b825550505050565b5f90565b6121d96121cd565b6121e48184846121a8565b505050565b5b81811015612207576121fc5f826121d1565b6001810190506121ea565b5050565b601f82111561224c5761221d816120f7565b61222684612109565b81016020851015612235578190505b61224961224185612109565b8301826121e9565b50505b505050565b5f82821c905092915050565b5f61226c5f1984600802612251565b1980831691505092915050565b5f612284838361225d565b9150826002028217905092915050565b61229d826114fe565b67ffffffffffffffff8111156122b6576122b56119e5565b5b6122c08254611e49565b6122cb82828561220b565b5f60209050601f8311600181146122fc575f84156122ea578287015190505b6122f48582612279565b86555061235b565b601f19841661230a866120f7565b5f5b828110156123315784890151825560018201915060208501945060208101905061230c565b8683101561234e578489015161234a601f89168261225d565b8355505b6001600288020188555050505b505050505050565b5f6080820190506123765f830187611588565b81810360208301526123888186611550565b9050818103604083015261239c8185611550565b905081810360608301526123b08184611550565b905095945050505050565b5f6123c582611462565b91506123d083611462565b92508282039050818111156123e8576123e7612083565b5b92915050565b5f6080820190506124015f830187611588565b61240e6020830186611588565b81810360408301526124208185611550565b905061242f6060830184611588565b95945050505050565b7f4e6f7420616e20617574686f72697a65642076616c696461746f7200000000005f82015250565b5f61246c601b83611508565b915061247782612438565b602082019050919050565b5f6020820190508181035f83015261249981612460565b9050919050565b5f6060820190506124b35f830186611588565b6124c06020830185611588565b81810360408301526124d28184611550565b905094935050505056fea26469706673582212205b5c2d3d9894040a923f129ae1f7315304fd2ae7e0eca4e8c4f7decf2ae1bcd064736f6c63430008140033",
					"opcodes": "PUSH1 0x80 PUSH1 0x40 MSTORE PUSH1 0x40 MLOAD DUP1 PUSH1 0x40 ADD PUSH1 0x40 MSTORE DUP1 PUSH1 0x6 DUP2 MSTORE PUSH1 0x20 ADD PUSH32 0x6167656E63790000000000000000000000000000000000000000000000000000 DUP2 MSTORE POP PUSH0 SWAP1 DUP2 PUSH3 0x49 SWAP2 SWAP1 PUSH3 0x2C5 JUMP JUMPDEST POP PUSH0 PUSH1 0x1 SSTORE CALLVALUE DUP1 ISZERO PUSH3 0x5A JUMPI PUSH0 DUP1 REVERT JUMPDEST POP PUSH3 0x3A9 JUMP JUMPDEST PUSH0 DUP2 MLOAD SWAP1 POP SWAP2 SWAP1 POP JUMP JUMPDEST PUSH32 0x4E487B7100000000000000000000000000000000000000000000000000000000 PUSH0 MSTORE PUSH1 0x41 PUSH1 0x4 MSTORE PUSH1 0x24 PUSH0 REVERT JUMPDEST PUSH32 0x4E487B7100000000000000000000000000000000000000000000000000000000 PUSH0 MSTORE PUSH1 0x22 PUSH1 0x4 MSTORE PUSH1 0x24 PUSH0 REVERT JUMPDEST PUSH0 PUSH1 0x2 DUP3 DIV SWAP1 POP PUSH1 0x1 DUP3 AND DUP1 PUSH3 0xDD JUMPI PUSH1 0x7F DUP3 AND SWAP2 POP JUMPDEST PUSH1 0x20 DUP3 LT DUP2 SUB PUSH3 0xF3 JUMPI PUSH3 0xF2 PUSH3 0x98 JUMP JUMPDEST JUMPDEST POP SWAP2 SWAP1 POP JUMP JUMPDEST PUSH0 DUP2 SWAP1 POP DUP2 PUSH0 MSTORE PUSH1 0x20 PUSH0 KECCAK256 SWAP1 POP SWAP2 SWAP1 POP JUMP JUMPDEST PUSH0 PUSH1 0x20 PUSH1 0x1F DUP4 ADD DIV SWAP1 POP SWAP2 SWAP1 POP JUMP JUMPDEST PUSH0 DUP3 DUP3 SHL SWAP1 POP SWAP3 SWAP2 POP POP JUMP JUMPDEST PUSH0 PUSH1 0x8 DUP4 MUL PUSH3 0x157 PUSH32 0xFFFFFFFFFFFFFFFFFFFFFFFFFFFFFFFFFFFFFFFFFFFFFFFFFFFFFFFFFFFFFFFF DUP3 PUSH3 0x11A JUMP JUMPDEST PUSH3 0x163 DUP7 DUP4 PUSH3 0x11A JUMP JUMPDEST SWAP6 POP DUP1 NOT DUP5 AND SWAP4 POP DUP1 DUP7 AND DUP5 OR SWAP3 POP POP POP SWAP4 SWAP3 POP POP POP JUMP JUMPDEST PUSH0 DUP2 SWAP1 POP SWAP2 SWAP1 POP JUMP JUMPDEST PUSH0 DUP2 SWAP1 POP SWAP2 SWAP1 POP JUMP JUMPDEST PUSH0 PUSH3 0x1AD PUSH3 0x1A7 PUSH3 0x1A1 DUP5 PUSH3 0x17B JUMP JUMPDEST PUSH3 0x184 JUMP JUMPDEST PUSH3 0x17B JUMP JUMPDEST SWAP1 POP SWAP2 SWAP1 POP JUMP JUMPDEST PUSH0 DUP2 SWAP1 POP SWAP2 SWAP1 POP JUMP JUMPDEST PUSH3 0x1C8 DUP4 PUSH3 0x18D JUMP JUMPDEST PUSH3 0x1E0 PUSH3 0x1D7 DUP3 PUSH3 0x1B4 JUMP JUMPDEST DUP5 DUP5 SLOAD PUSH3 0x126 JUMP JUMPDEST DUP3 SSTORE POP POP POP POP JUMP JUMPDEST PUSH0 SWAP1 JUMP JUMPDEST PUSH3 0x1F6 PUSH3 0x1E8 JUMP JUMPDEST PUSH3 0x203 DUP2 DUP5 DUP5 PUSH3 0x1BD JUMP JUMPDEST POP POP POP JUMP JUMPDEST JUMPDEST DUP2 DUP2 LT ISZERO PUSH3 0x22A JUMPI PUSH3 0x21E PUSH0 DUP3 PUSH3 0x1EC JUMP JUMPDEST PUSH1 0x1 DUP2 ADD SWAP1 POP PUSH3 0x209 JUMP JUMPDEST POP POP JUMP JUMPDEST PUSH1 0x1F DUP3 GT ISZERO PUSH3 0x279 JUMPI PUSH3 0x243 DUP2 PUSH3 0xF9 JUMP JUMPDEST PUSH3 0x24E DUP5 PUSH3 0x10B JUMP JUMPDEST DUP2 ADD PUSH1 0x20 DUP6 LT ISZERO PUSH3 0x25E JUMPI DUP2 SWAP1 POP JUMPDEST PUSH3 0x276 PUSH3 0x26D DUP6 PUSH3 0x10B JUMP JUMPDEST DUP4 ADD DUP3 PUSH3 0x208 JUMP JUMPDEST POP POP JUMPDEST POP POP POP JUMP JUMPDEST PUSH0 DUP3 DUP3 SHR SWAP1 POP SWAP3 SWAP2 POP POP JUMP JUMPDEST PUSH0 PUSH3 0x29B PUSH0 NOT DUP5 PUSH1 0x8 MUL PUSH3 0x27E JUMP JUMPDEST NOT DUP1 DUP4 AND SWAP2 POP POP SWAP3 SWAP2 POP POP JUMP JUMPDEST PUSH0 PUSH3 0x2B5 DUP4 DUP4 PUSH3 0x28A JUMP JUMPDEST SWAP2 POP DUP3 PUSH1 0x2 MUL DUP3 OR SWAP1 POP SWAP3 SWAP2 POP POP JUMP JUMPDEST PUSH3 0x2D0 DUP3 PUSH3 0x61 JUMP JUMPDEST PUSH8 0xFFFFFFFFFFFFFFFF DUP2 GT ISZERO PUSH3 0x2EC JUMPI PUSH3 0x2EB PUSH3 0x6B JUMP JUMPDEST JUMPDEST PUSH3 0x2F8 DUP3 SLOAD PUSH3 0xC5 JUMP JUMPDEST PUSH3 0x305 DUP3 DUP3 DUP6 PUSH3 0x22E JUMP JUMPDEST PUSH0 PUSH1 0x20 SWAP1 POP PUSH1 0x1F DUP4 GT PUSH1 0x1 DUP2 EQ PUSH3 0x33B JUMPI PUSH0 DUP5 ISZERO PUSH3 0x326 JUMPI DUP3 DUP8 ADD MLOAD SWAP1 POP JUMPDEST PUSH3 0x332 DUP6 DUP3 PUSH3 0x2A8 JUMP JUMPDEST DUP7 SSTORE POP PUSH3 0x3A1 JUMP JUMPDEST PUSH1 0x1F NOT DUP5 AND PUSH3 0x34B DUP7 PUSH3 0xF9 JUMP JUMPDEST PUSH0 JUMPDEST DUP3 DUP2 LT ISZERO PUSH3 0x374 JUMPI DUP5 DUP10 ADD MLOAD DUP3 SSTORE PUSH1 0x1 DUP3 ADD SWAP2 POP PUSH1 0x20 DUP6 ADD SWAP5 POP PUSH1 0x20 DUP2 ADD SWAP1 POP PUSH3 0x34D JUMP JUMPDEST DUP7 DUP4 LT ISZERO PUSH3 0x394 JUMPI DUP5 DUP10 ADD MLOAD PUSH3 0x390 PUSH1 0x1F DUP10 AND DUP3 PUSH3 0x28A JUMP JUMPDEST DUP4 SSTORE POP JUMPDEST PUSH1 0x1 PUSH1 0x2 DUP9 MUL ADD DUP9 SSTORE POP POP POP JUMPDEST POP POP POP POP POP POP JUMP JUMPDEST PUSH2 0x2512 DUP1 PUSH3 0x3B7 PUSH0 CODECOPY PUSH0 RETURN INVALID PUSH1 0x80 PUSH1 0x40 MSTORE CALLVALUE DUP1 ISZERO PUSH2 0xF JUMPI PUSH0 DUP1 REVERT JUMPDEST POP PUSH1 0x4 CALLDATASIZE LT PUSH2 0xB2 JUMPI PUSH0 CALLDATALOAD PUSH1 0xE0 SHR DUP1 PUSH4 0x93DC12E6 GT PUSH2 0x6F JUMPI DUP1 PUSH4 0x93DC12E6 EQ PUSH2 0x1C9 JUMPI DUP1 PUSH4 0x99E76D35 EQ PUSH2 0x1E5 JUMPI DUP1 PUSH4 0xA7EE42DE EQ PUSH2 0x203 JUMPI DUP1 PUSH4 0xCCE9889E EQ PUSH2 0x21F JUMPI DUP1 PUSH4 0xE4A8F18B EQ PUSH2 0x23B JUMPI DUP1 PUSH4 0xF5C4B73E EQ PUSH2 0x259 JUMPI PUSH2 0xB2 JUMP JUMPDEST DUP1 PUSH4 0x89CD025 EQ PUSH2 0xB6 JUMPI DUP1 PUSH4 0x107046BD EQ PUSH2 0xD2 JUMPI DUP1 PUSH4 0x48C35AD4 EQ PUSH2 0x10B JUMPI DUP1 PUSH4 0x4AC64766 EQ PUSH2 0x13B JUMPI DUP1 PUSH4 0x5F8439E3 EQ PUSH2 0x159 JUMPI DUP1 PUSH4 0x8ABB10C6 EQ PUSH2 0x190 JUMPI JUMPDEST PUSH0 DUP1 REVERT JUMPDEST PUSH2 0xD0 PUSH1 0x4 DUP1 CALLDATASIZE SUB DUP2 ADD SWAP1 PUSH2 0xCB SWAP2 SWAP1 PUSH2 0x1495 JUMP JUMPDEST PUSH2 0x275 JUMP JUMPDEST STOP JUMPDEST PUSH2 0xEC PUSH1 0x4 DUP1 CALLDATASIZE SUB DUP2 ADD SWAP1 PUSH2 0xE7 SWAP2 SWAP1 PUSH2 0x14D3 JUMP JUMPDEST PUSH2 0x3C4 JUMP JUMPDEST PUSH1 0x40 MLOAD PUSH2 0x102 SWAP11 SWAP10 SWAP9 SWAP8 SWAP7 SWAP6 SWAP5 SWAP4 SWAP3 SWAP2 SWAP1 PUSH2 0x15B1 JUMP JUMPDEST PUSH1 0x40 MLOAD DUP1 SWAP2 SUB SWAP1 RETURN JUMPDEST PUSH2 0x125 PUSH1 0x4 DUP1 CALLDATASIZE SUB DUP2 ADD SWAP1 PUSH2 0x120 SWAP2 SWAP1 PUSH2 0x14D3 JUMP JUMPDEST PUSH2 0x6BE JUMP JUMPDEST PUSH1 0x40 MLOAD PUSH2 0x132 SWAP2 SWAP1 PUSH2 0x166E JUMP JUMPDEST PUSH1 0x40 MLOAD DUP1 SWAP2 SUB SWAP1 RETURN JUMPDEST PUSH2 0x143 PUSH2 0x6DE JUMP JUMPDEST PUSH1 0x40 MLOAD PUSH2 0x150 SWAP2 SWAP1 PUSH2 0x173E JUMP JUMPDEST PUSH1 0x40 MLOAD DUP1 SWAP2 SUB SWAP1 RETURN JUMPDEST PUSH2 0x173 PUSH1 0x4 DUP1 CALLDATASIZE SUB DUP2 ADD SWAP1 PUSH2 0x16E SWAP2 SWAP1 PUSH2 0x14D3 JUMP JUMPDEST PUSH2 0x734 JUMP JUMPDEST PUSH1 0x40 MLOAD PUSH2 0x187 SWAP9 SWAP8 SWAP7 SWAP6 SWAP5 SWAP4 SWAP3 SWAP2 SWAP1 PUSH2 0x175E JUMP JUMPDEST PUSH1 0x40 MLOAD DUP1 SWAP2 SUB SWAP1 RETURN JUMPDEST PUSH2 0x1AA PUSH1 0x4 DUP1 CALLDATASIZE SUB DUP2 ADD SWAP1 PUSH2 0x1A5 SWAP2 SWAP1 PUSH2 0x14D3 JUMP JUMPDEST PUSH2 0x9C6 JUMP JUMPDEST PUSH1 0x40 MLOAD PUSH2 0x1C0 SWAP11 SWAP10 SWAP9 SWAP8 SWAP7 SWAP6 SWAP5 SWAP4 SWAP3 SWAP2 SWAP1 PUSH2 0x18F9 JUMP JUMPDEST PUSH1 0x40 MLOAD DUP1 SWAP2 SUB SWAP1 RETURN JUMPDEST PUSH2 0x1E3 PUSH1 0x4 DUP1 CALLDATASIZE SUB DUP2 ADD SWAP1 PUSH2 0x1DE SWAP2 SWAP1 PUSH2 0x14D3 JUMP JUMPDEST PUSH2 0xE3B JUMP JUMPDEST STOP JUMPDEST PUSH2 0x1ED PUSH2 0xF22 JUMP JUMPDEST PUSH1 0x40 MLOAD PUSH2 0x1FA SWAP2 SWAP1 PUSH2 0x19BD JUMP JUMPDEST PUSH1 0x40 MLOAD DUP1 SWAP2 SUB SWAP1 RETURN JUMPDEST PUSH2 0x21D PUSH1 0x4 DUP1 CALLDATASIZE SUB DUP2 ADD SWAP1 PUSH2 0x218 SWAP2 SWAP1 PUSH2 0x1B09 JUMP JUMPDEST PUSH2 0xFAD JUMP JUMPDEST STOP JUMPDEST PUSH2 0x239 PUSH1 0x4 DUP1 CALLDATASIZE SUB DUP2 ADD SWAP1 PUSH2 0x234 SWAP2 SWAP1 PUSH2 0x1D14 JUMP JUMPDEST PUSH2 0x10E0 JUMP JUMPDEST STOP JUMPDEST PUSH2 0x243 PUSH2 0x124A JUMP JUMPDEST PUSH1 0x40 MLOAD PUSH2 0x250 SWAP2 SWAP1 PUSH2 0x166E JUMP JUMPDEST PUSH1 0x40 MLOAD DUP1 SWAP2 SUB SWAP1 RETURN JUMPDEST PUSH2 0x273 PUSH1 0x4 DUP1 CALLDATASIZE SUB DUP2 ADD SWAP1 PUSH2 0x26E SWAP2 SWAP1 PUSH2 0x1DB0 JUMP JUMPDEST PUSH2 0x1253 JUMP JUMPDEST STOP JUMPDEST DUP2 PUSH0 PUSH1 0x40 MLOAD PUSH2 0x284 SWAP2 SWAP1 PUSH2 0x1F15 JUMP JUMPDEST PUSH1 0x40 MLOAD DUP1 SWAP2 SUB SWAP1 KECCAK256 PUSH1 0x2 PUSH0 DUP4 DUP2 MSTORE PUSH1 0x20 ADD SWAP1 DUP2 MSTORE PUSH1 0x20 ADD PUSH0 KECCAK256 PUSH1 0x3 ADD PUSH1 0x40 MLOAD PUSH2 0x2AD SWAP2 SWAP1 PUSH2 0x1F15 JUMP JUMPDEST PUSH1 0x40 MLOAD DUP1 SWAP2 SUB SWAP1 KECCAK256 EQ PUSH2 0x2F5 JUMPI PUSH1 0x40 MLOAD PUSH32 0x8C379A000000000000000000000000000000000000000000000000000000000 DUP2 MSTORE PUSH1 0x4 ADD PUSH2 0x2EC SWAP1 PUSH2 0x1F9B JUMP JUMPDEST PUSH1 0x40 MLOAD DUP1 SWAP2 SUB SWAP1 REVERT JUMPDEST PUSH0 PUSH1 0x2 PUSH0 DUP6 DUP2 MSTORE PUSH1 0x20 ADD SWAP1 DUP2 MSTORE PUSH1 0x20 ADD PUSH0 KECCAK256 PUSH1 0xA ADD DUP4 DUP2 SLOAD DUP2 LT PUSH2 0x31C JUMPI PUSH2 0x31B PUSH2 0x1FB9 JUMP JUMPDEST JUMPDEST SWAP1 PUSH0 MSTORE PUSH1 0x20 PUSH0 KECCAK256 SWAP1 PUSH1 0x7 MUL ADD SWAP1 POP DUP1 PUSH1 0x6 ADD PUSH0 SWAP1 SLOAD SWAP1 PUSH2 0x100 EXP SWAP1 DIV PUSH1 0xFF AND PUSH2 0x37A JUMPI PUSH1 0x40 MLOAD PUSH32 0x8C379A000000000000000000000000000000000000000000000000000000000 DUP2 MSTORE PUSH1 0x4 ADD PUSH2 0x371 SWAP1 PUSH2 0x2030 JUMP JUMPDEST PUSH1 0x40 MLOAD DUP1 SWAP2 SUB SWAP1 REVERT JUMPDEST PUSH0 DUP2 PUSH1 0x3 ADD SLOAD SWAP1 POP PUSH32 0x5253C07C8BD01B0D3B85252A002ABBF708A1AAFB43B87C6578285C7D54F8373F DUP6 DUP6 DUP4 PUSH1 0x40 MLOAD PUSH2 0x3B5 SWAP4 SWAP3 SWAP2 SWAP1 PUSH2 0x204E JUMP JUMPDEST PUSH1 0x40 MLOAD DUP1 SWAP2 SUB SWAP1 LOG1 POP POP POP POP POP JUMP JUMPDEST PUSH1 0x2 PUSH1 0x20 MSTORE DUP1 PUSH0 MSTORE PUSH1 0x40 PUSH0 KECCAK256 PUSH0 SWAP2 POP SWAP1 POP DUP1 PUSH0 ADD DUP1 SLOAD PUSH2 0x3E3 SWAP1 PUSH2 0x1E49 JUMP JUMPDEST DUP1 PUSH1 0x1F ADD PUSH1 0x20 DUP1 SWAP2 DIV MUL PUSH1 0x20 ADD PUSH1 0x40 MLOAD SWAP1 DUP2 ADD PUSH1 0x40 MSTORE DUP1 SWAP3 SWAP2 SWAP1 DUP2 DUP2 MSTORE PUSH1 0x20 ADD DUP3 DUP1 SLOAD PUSH2 0x40F SWAP1 PUSH2 0x1E49 JUMP JUMPDEST DUP1 ISZERO PUSH2 0x45A JUMPI DUP1 PUSH1 0x1F LT PUSH2 0x431 JUMPI PUSH2 0x100 DUP1 DUP4 SLOAD DIV MUL DUP4 MSTORE SWAP2 PUSH1 0x20 ADD SWAP2 PUSH2 0x45A JUMP JUMPDEST DUP3 ADD SWAP2 SWAP1 PUSH0 MSTORE PUSH1 0x20 PUSH0 KECCAK256 SWAP1 JUMPDEST DUP2 SLOAD DUP2 MSTORE SWAP1 PUSH1 0x1 ADD SWAP1 PUSH1 0x20 ADD DUP1 DUP4 GT PUSH2 0x43D JUMPI DUP3 SWAP1 SUB PUSH1 0x1F AND DUP3 ADD SWAP2 JUMPDEST POP POP POP POP POP SWAP1 DUP1 PUSH1 0x1 ADD DUP1 SLOAD PUSH2 0x46F SWAP1 PUSH2 0x1E49 JUMP JUMPDEST DUP1 PUSH1 0x1F ADD PUSH1 0x20 DUP1 SWAP2 DIV MUL PUSH1 0x20 ADD PUSH1 0x40 MLOAD SWAP1 DUP2 ADD PUSH1 0x40 MSTORE DUP1 SWAP3 SWAP2 SWAP1 DUP2 DUP2 MSTORE PUSH1 0x20 ADD DUP3 DUP1 SLOAD PUSH2 0x49B SWAP1 PUSH2 0x1E49 JUMP JUMPDEST DUP1 ISZERO PUSH2 0x4E6 JUMPI DUP1 PUSH1 0x1F LT PUSH2 0x4BD JUMPI PUSH2 0x100 DUP1 DUP4 SLOAD DIV MUL DUP4 MSTORE SWAP2 PUSH1 0x20 ADD SWAP2 PUSH2 0x4E6 JUMP JUMPDEST DUP3 ADD SWAP2 SWAP1 PUSH0 MSTORE PUSH1 0x20 PUSH0 KECCAK256 SWAP1 JUMPDEST DUP2 SLOAD DUP2 MSTORE SWAP1 PUSH1 0x1 ADD SWAP1 PUSH1 0x20 ADD DUP1 DUP4 GT PUSH2 0x4C9 JUMPI DUP3 SWAP1 SUB PUSH1 0x1F AND DUP3 ADD SWAP2 JUMPDEST POP POP POP POP POP SWAP1 DUP1 PUSH1 0x2 ADD DUP1 SLOAD PUSH2 0x4FB SWAP1 PUSH2 0x1E49 JUMP JUMPDEST DUP1 PUSH1 0x1F ADD PUSH1 0x20 DUP1 SWAP2 DIV MUL PUSH1 0x20 ADD PUSH1 0x40 MLOAD SWAP1 DUP2 ADD PUSH1 0x40 MSTORE DUP1 SWAP3 SWAP2 SWAP1 DUP2 DUP2 MSTORE PUSH1 0x20 ADD DUP3 DUP1 SLOAD PUSH2 0x527 SWAP1 PUSH2 0x1E49 JUMP JUMPDEST DUP1 ISZERO PUSH2 0x572 JUMPI DUP1 PUSH1 0x1F LT PUSH2 0x549 JUMPI PUSH2 0x100 DUP1 DUP4 SLOAD DIV MUL DUP4 MSTORE SWAP2 PUSH1 0x20 ADD SWAP2 PUSH2 0x572 JUMP JUMPDEST DUP3 ADD SWAP2 SWAP1 PUSH0 MSTORE PUSH1 0x20 PUSH0 KECCAK256 SWAP1 JUMPDEST DUP2 SLOAD DUP2 MSTORE SWAP1 PUSH1 0x1 ADD SWAP1 PUSH1 0x20 ADD DUP1 DUP4 GT PUSH2 0x555 JUMPI DUP3 SWAP1 SUB PUSH1 0x1F AND DUP3 ADD SWAP2 JUMPDEST POP POP POP POP POP SWAP1 DUP1 PUSH1 0x3 ADD DUP1 SLOAD PUSH2 0x587 SWAP1 PUSH2 0x1E49 JUMP JUMPDEST DUP1 PUSH1 0x1F ADD PUSH1 0x20 DUP1 SWAP2 DIV MUL PUSH1 0x20 ADD PUSH1 0x40 MLOAD SWAP1 DUP2 ADD PUSH1 0x40 MSTORE DUP1 SWAP3 SWAP2 SWAP1 DUP2 DUP2 MSTORE PUSH1 0x20 ADD DUP3 DUP1 SLOAD PUSH2 0x5B3 SWAP1 PUSH2 0x1E49 JUMP JUMPDEST DUP1 ISZERO PUSH2 0x5FE JUMPI DUP1 PUSH1 0x1F LT PUSH2 0x5D5 JUMPI PUSH2 0x100 DUP1 DUP4 SLOAD DIV MUL DUP4 MSTORE SWAP2 PUSH1 0x20 ADD SWAP2 PUSH2 0x5FE JUMP JUMPDEST DUP3 ADD SWAP2 SWAP1 PUSH0 MSTORE PUSH1 0x20 PUSH0 KECCAK256 SWAP1 JUMPDEST DUP2 SLOAD DUP2 MSTORE SWAP1 PUSH1 0x1 ADD SWAP1 PUSH1 0x20 ADD DUP1 DUP4 GT PUSH2 0x5E1 JUMPI DUP3 SWAP1 SUB PUSH1 0x1F AND DUP3 ADD SWAP2 JUMPDEST POP POP POP POP POP SWAP1 DUP1 PUSH1 0x4 ADD DUP1 SLOAD PUSH2 0x613 SWAP1 PUSH2 0x1E49 JUMP JUMPDEST DUP1 PUSH1 0x1F ADD PUSH1 0x20 DUP1 SWAP2 DIV MUL PUSH1 0x20 ADD PUSH1 0x40 MLOAD SWAP1 DUP2 ADD PUSH1 0x40 MSTORE DUP1 SWAP3 SWAP2 SWAP1 DUP2 DUP2 MSTORE PUSH1 0x20 ADD DUP3 DUP1 SLOAD PUSH2 0x63F SWAP1 PUSH2 0x1E49 JUMP JUMPDEST DUP1 ISZERO PUSH2 0x68A JUMPI DUP1 PUSH1 0x1F LT PUSH2 0x661 JUMPI PUSH2 0x100 DUP1 DUP4 SLOAD DIV MUL DUP4 MSTORE SWAP2 PUSH1 0x20 ADD SWAP2 PUSH2 0x68A JUMP JUMPDEST DUP3 ADD SWAP2 SWAP1 PUSH0 MSTORE PUSH1 0x20 PUSH0 KECCAK256 SWAP1 JUMPDEST DUP2 SLOAD DUP2 MSTORE SWAP1 PUSH1 0x1 ADD SWAP1 PUSH1 0x20 ADD DUP1 DUP4 GT PUSH2 0x66D JUMPI DUP3 SWAP1 SUB PUSH1 0x1F AND DUP3 ADD SWAP2 JUMPDEST POP POP POP POP POP SWAP1 DUP1 PUSH1 0x5 ADD SLOAD SWAP1 DUP1 PUSH1 0x6 ADD SLOAD SWAP1 DUP1 PUSH1 0x7 ADD SLOAD SWAP1 DUP1 PUSH1 0x8 ADD SLOAD SWAP1 DUP1 PUSH1 0x9 ADD PUSH0 SWAP1 SLOAD SWAP1 PUSH2 0x100 EXP SWAP1 DIV PUSH1 0xFF AND SWAP1 POP DUP11 JUMP JUMPDEST PUSH1 0x3 DUP2 DUP2 SLOAD DUP2 LT PUSH2 0x6CD JUMPI PUSH0 DUP1 REVERT JUMPDEST SWAP1 PUSH0 MSTORE PUSH1 0x20 PUSH0 KECCAK256 ADD PUSH0 SWAP2 POP SWAP1 POP SLOAD DUP2 JUMP JUMPDEST PUSH1 0x60 PUSH1 0x3 DUP1 SLOAD DUP1 PUSH1 0x20 MUL PUSH1 0x20 ADD PUSH1 0x40 MLOAD SWAP1 DUP2 ADD PUSH1 0x40 MSTORE DUP1 SWAP3 SWAP2 SWAP1 DUP2 DUP2 MSTORE PUSH1 0x20 ADD DUP3 DUP1 SLOAD DUP1 ISZERO PUSH2 0x72A JUMPI PUSH1 0x20 MUL DUP3 ADD SWAP2 SWAP1 PUSH0 MSTORE PUSH1 0x20 PUSH0 KECCAK256 SWAP1 JUMPDEST DUP2 SLOAD DUP2 MSTORE PUSH1 0x20 ADD SWAP1 PUSH1 0x1 ADD SWAP1 DUP1 DUP4 GT PUSH2 0x716 JUMPI JUMPDEST POP POP POP POP POP SWAP1 POP SWAP1 JUMP JUMPDEST PUSH1 0x60 DUP1 PUSH1 0x60 DUP1 PUSH0 DUP1 PUSH0 DUP1 PUSH0 PUSH1 0x2 PUSH0 DUP12 DUP2 MSTORE PUSH1 0x20 ADD SWAP1 DUP2 MSTORE PUSH1 0x20 ADD PUSH0 KECCAK256 SWAP1 POP DUP1 PUSH1 0x1 ADD DUP2 PUSH1 0x2 ADD DUP3 PUSH1 0x3 ADD DUP4 PUSH1 0x4 ADD DUP5 PUSH1 0x5 ADD SLOAD DUP6 PUSH1 0x6 ADD SLOAD DUP7 PUSH1 0x7 ADD SLOAD DUP8 PUSH1 0x9 ADD PUSH0 SWAP1 SLOAD SWAP1 PUSH2 0x100 EXP SWAP1 DIV PUSH1 0xFF AND DUP8 DUP1 SLOAD PUSH2 0x78E SWAP1 PUSH2 0x1E49 JUMP JUMPDEST DUP1 PUSH1 0x1F ADD PUSH1 0x20 DUP1 SWAP2 DIV MUL PUSH1 0x20 ADD PUSH1 0x40 MLOAD SWAP1 DUP2 ADD PUSH1 0x40 MSTORE DUP1 SWAP3 SWAP2 SWAP1 DUP2 DUP2 MSTORE PUSH1 0x20 ADD DUP3 DUP1 SLOAD PUSH2 0x7BA SWAP1 PUSH2 0x1E49 JUMP JUMPDEST DUP1 ISZERO PUSH2 0x805 JUMPI DUP1 PUSH1 0x1F LT PUSH2 0x7DC JUMPI PUSH2 0x100 DUP1 DUP4 SLOAD DIV MUL DUP4 MSTORE SWAP2 PUSH1 0x20 ADD SWAP2 PUSH2 0x805 JUMP JUMPDEST DUP3 ADD SWAP2 SWAP1 PUSH0 MSTORE PUSH1 0x20 PUSH0 KECCAK256 SWAP1 JUMPDEST DUP2 SLOAD DUP2 MSTORE SWAP1 PUSH1 0x1 ADD SWAP1 PUSH1 0x20 ADD DUP1 DUP4 GT PUSH2 0x7E8 JUMPI DUP3 SWAP1 SUB PUSH1 0x1F AND DUP3 ADD SWAP2 JUMPDEST POP POP POP POP POP SWAP8 POP DUP7 DUP1 SLOAD PUSH2 0x818 SWAP1 PUSH2 0x1E49 JUMP JUMPDEST DUP1 PUSH1 0x1F ADD PUSH1 0x20 DUP1 SWAP2 DIV MUL PUSH1 0x20 ADD PUSH1 0x40 MLOAD SWAP1 DUP2 ADD PUSH1 0x40 MSTORE DUP1 SWAP3 SWAP2 SWAP1 DUP2 DUP2 MSTORE PUSH1 0x20 ADD DUP3 DUP1 SLOAD PUSH2 0x844 SWAP1 PUSH2 0x1E49 JUMP JUMPDEST DUP1 ISZERO PUSH2 0x88F JUMPI DUP1 PUSH1 0x1F LT PUSH2 0x866 JUMPI PUSH2 0x100 DUP1 DUP4 SLOAD DIV MUL DUP4 MSTORE SWAP2 PUSH1 0x20 ADD SWAP2 PUSH2 0x88F JUMP JUMPDEST DUP3 ADD SWAP2 SWAP1 PUSH0 MSTORE PUSH1 0x20 PUSH0 KECCAK256 SWAP1 JUMPDEST DUP2 SLOAD DUP2 MSTORE SWAP1 PUSH1 0x1 ADD SWAP1 PUSH1 0x20 ADD DUP1 DUP4 GT PUSH2 0x872 JUMPI DUP3 SWAP1 SUB PUSH1 0x1F AND DUP3 ADD SWAP2 JUMPDEST POP POP POP POP POP SWAP7 POP DUP6 DUP1 SLOAD PUSH2 0x8A2 SWAP1 PUSH2 0x1E49 JUMP JUMPDEST DUP1 PUSH1 0x1F ADD PUSH1 0x20 DUP1 SWAP2 DIV MUL PUSH1 0x20 ADD PUSH1 0x40 MLOAD SWAP1 DUP2 ADD PUSH1 0x40 MSTORE DUP1 SWAP3 SWAP2 SWAP1 DUP2 DUP2 MSTORE PUSH1 0x20 ADD DUP3 DUP1 SLOAD PUSH2 0x8CE SWAP1 PUSH2 0x1E49 JUMP JUMPDEST DUP1 ISZERO PUSH2 0x919 JUMPI DUP1 PUSH1 0x1F LT PUSH2 0x8F0 JUMPI PUSH2 0x100 DUP1 DUP4 SLOAD DIV MUL DUP4 MSTORE SWAP2 PUSH1 0x20 ADD SWAP2 PUSH2 0x919 JUMP JUMPDEST DUP3 ADD SWAP2 SWAP1 PUSH0 MSTORE PUSH1 0x20 PUSH0 KECCAK256 SWAP1 JUMPDEST DUP2 SLOAD DUP2 MSTORE SWAP1 PUSH1 0x1 ADD SWAP1 PUSH1 0x20 ADD DUP1 DUP4 GT PUSH2 0x8FC JUMPI DUP3 SWAP1 SUB PUSH1 0x1F AND DUP3 ADD SWAP2 JUMPDEST POP POP POP POP POP SWAP6 POP DUP5 DUP1 SLOAD PUSH2 0x92C SWAP1 PUSH2 0x1E49 JUMP JUMPDEST DUP1 PUSH1 0x1F ADD PUSH1 0x20 DUP1 SWAP2 DIV MUL PUSH1 0x20 ADD PUSH1 0x40 MLOAD SWAP1 DUP2 ADD PUSH1 0x40 MSTORE DUP1 SWAP3 SWAP2 SWAP1 DUP2 DUP2 MSTORE PUSH1 0x20 ADD DUP3 DUP1 SLOAD PUSH2 0x958 SWAP1 PUSH2 0x1E49 JUMP JUMPDEST DUP1 ISZERO PUSH2 0x9A3 JUMPI DUP1 PUSH1 0x1F LT PUSH2 0x97A JUMPI PUSH2 0x100 DUP1 DUP4 SLOAD DIV MUL DUP4 MSTORE SWAP2 PUSH1 0x20 ADD SWAP2 PUSH2 0x9A3 JUMP JUMPDEST DUP3 ADD SWAP2 SWAP1 PUSH0 MSTORE PUSH1 0x20 PUSH0 KECCAK256 SWAP1 JUMPDEST DUP2 SLOAD DUP2 MSTORE SWAP1 PUSH1 0x1 ADD SWAP1 PUSH1 0x20 ADD DUP1 DUP4 GT PUSH2 0x986 JUMPI DUP3 SWAP1 SUB PUSH1 0x1F AND DUP3 ADD SWAP2 JUMPDEST POP POP POP POP POP SWAP5 POP SWAP9 POP SWAP9 POP SWAP9 POP SWAP9 POP SWAP9 POP SWAP9 POP SWAP9 POP SWAP9 POP POP SWAP2 SWAP4 SWAP6 SWAP8 POP SWAP2 SWAP4 SWAP6 SWAP8 JUMP JUMPDEST PUSH1 0x60 DUP1 PUSH1 0x60 DUP1 PUSH0 DUP1 PUSH0 DUP1 PUSH1 0x60 DUP1 PUSH0 PUSH1 0x2 PUSH0 DUP14 DUP2 MSTORE PUSH1 0x20 ADD SWAP1 DUP2 MSTORE PUSH1 0x20 ADD PUSH0 KECCAK256 SWAP1 POP PUSH0 DUP2 PUSH1 0xA ADD DUP1 SLOAD SWAP1 POP SWAP1 POP PUSH0 DUP2 PUSH8 0xFFFFFFFFFFFFFFFF DUP2 GT ISZERO PUSH2 0xA0D JUMPI PUSH2 0xA0C PUSH2 0x19E5 JUMP JUMPDEST JUMPDEST PUSH1 0x40 MLOAD SWAP1 DUP1 DUP3 MSTORE DUP1 PUSH1 0x20 MUL PUSH1 0x20 ADD DUP3 ADD PUSH1 0x40 MSTORE DUP1 ISZERO PUSH2 0xA3B JUMPI DUP2 PUSH1 0x20 ADD PUSH1 0x20 DUP3 MUL DUP1 CALLDATASIZE DUP4 CALLDATACOPY DUP1 DUP3 ADD SWAP2 POP POP SWAP1 POP JUMPDEST POP SWAP1 POP PUSH0 DUP3 PUSH8 0xFFFFFFFFFFFFFFFF DUP2 GT ISZERO PUSH2 0xA59 JUMPI PUSH2 0xA58 PUSH2 0x19E5 JUMP JUMPDEST JUMPDEST PUSH1 0x40 MLOAD SWAP1 DUP1 DUP3 MSTORE DUP1 PUSH1 0x20 MUL PUSH1 0x20 ADD DUP3 ADD PUSH1 0x40 MSTORE DUP1 ISZERO PUSH2 0xA8C JUMPI DUP2 PUSH1 0x20 ADD JUMPDEST PUSH1 0x60 DUP2 MSTORE PUSH1 0x20 ADD SWAP1 PUSH1 0x1 SWAP1 SUB SWAP1 DUP2 PUSH2 0xA77 JUMPI SWAP1 POP JUMPDEST POP SWAP1 POP PUSH0 JUMPDEST DUP4 DUP2 LT ISZERO PUSH2 0xBBB JUMPI DUP5 PUSH1 0xA ADD DUP2 DUP2 SLOAD DUP2 LT PUSH2 0xAAF JUMPI PUSH2 0xAAE PUSH2 0x1FB9 JUMP JUMPDEST JUMPDEST SWAP1 PUSH0 MSTORE PUSH1 0x20 PUSH0 KECCAK256 SWAP1 PUSH1 0x7 MUL ADD PUSH1 0x3 ADD SLOAD DUP4 DUP3 DUP2 MLOAD DUP2 LT PUSH2 0xAD2 JUMPI PUSH2 0xAD1 PUSH2 0x1FB9 JUMP JUMPDEST JUMPDEST PUSH1 0x20 MUL PUSH1 0x20 ADD ADD DUP2 DUP2 MSTORE POP POP DUP5 PUSH1 0xA ADD DUP2 DUP2 SLOAD DUP2 LT PUSH2 0xAF4 JUMPI PUSH2 0xAF3 PUSH2 0x1FB9 JUMP JUMPDEST JUMPDEST SWAP1 PUSH0 MSTORE PUSH1 0x20 PUSH0 KECCAK256 SWAP1 PUSH1 0x7 MUL ADD PUSH1 0x1 ADD DUP1 SLOAD PUSH2 0xB0E SWAP1 PUSH2 0x1E49 JUMP JUMPDEST DUP1 PUSH1 0x1F ADD PUSH1 0x20 DUP1 SWAP2 DIV MUL PUSH1 0x20 ADD PUSH1 0x40 MLOAD SWAP1 DUP2 ADD PUSH1 0x40 MSTORE DUP1 SWAP3 SWAP2 SWAP1 DUP2 DUP2 MSTORE PUSH1 0x20 ADD DUP3 DUP1 SLOAD PUSH2 0xB3A SWAP1 PUSH2 0x1E49 JUMP JUMPDEST DUP1 ISZERO PUSH2 0xB85 JUMPI DUP1 PUSH1 0x1F LT PUSH2 0xB5C JUMPI PUSH2 0x100 DUP1 DUP4 SLOAD DIV MUL DUP4 MSTORE SWAP2 PUSH1 0x20 ADD SWAP2 PUSH2 0xB85 JUMP JUMPDEST DUP3 ADD SWAP2 SWAP1 PUSH0 MSTORE PUSH1 0x20 PUSH0 KECCAK256 SWAP1 JUMPDEST DUP2 SLOAD DUP2 MSTORE SWAP1 PUSH1 0x1 ADD SWAP1 PUSH1 0x20 ADD DUP1 DUP4 GT PUSH2 0xB68 JUMPI DUP3 SWAP1 SUB PUSH1 0x1F AND DUP3 ADD SWAP2 JUMPDEST POP POP POP POP POP DUP3 DUP3 DUP2 MLOAD DUP2 LT PUSH2 0xB9D JUMPI PUSH2 0xB9C PUSH2 0x1FB9 JUMP JUMPDEST JUMPDEST PUSH1 0x20 MUL PUSH1 0x20 ADD ADD DUP2 SWAP1 MSTORE POP DUP1 DUP1 PUSH2 0xBB3 SWAP1 PUSH2 0x20B0 JUMP JUMPDEST SWAP2 POP POP PUSH2 0xA91 JUMP JUMPDEST POP DUP4 PUSH1 0x1 ADD DUP5 PUSH1 0x2 ADD DUP6 PUSH1 0x3 ADD DUP7 PUSH1 0x4 ADD DUP8 PUSH1 0x5 ADD SLOAD DUP9 PUSH1 0x6 ADD SLOAD DUP10 PUSH1 0x7 ADD SLOAD DUP11 PUSH1 0x9 ADD PUSH0 SWAP1 SLOAD SWAP1 PUSH2 0x100 EXP SWAP1 DIV PUSH1 0xFF AND DUP10 DUP10 DUP10 DUP1 SLOAD PUSH2 0xBFA SWAP1 PUSH2 0x1E49 JUMP JUMPDEST DUP1 PUSH1 0x1F ADD PUSH1 0x20 DUP1 SWAP2 DIV MUL PUSH1 0x20 ADD PUSH1 0x40 MLOAD SWAP1 DUP2 ADD PUSH1 0x40 MSTORE DUP1 SWAP3 SWAP2 SWAP1 DUP2 DUP2 MSTORE PUSH1 0x20 ADD DUP3 DUP1 SLOAD PUSH2 0xC26 SWAP1 PUSH2 0x1E49 JUMP JUMPDEST DUP1 ISZERO PUSH2 0xC71 JUMPI DUP1 PUSH1 0x1F LT PUSH2 0xC48 JUMPI PUSH2 0x100 DUP1 DUP4 SLOAD DIV MUL DUP4 MSTORE SWAP2 PUSH1 0x20 ADD SWAP2 PUSH2 0xC71 JUMP JUMPDEST DUP3 ADD SWAP2 SWAP1 PUSH0 MSTORE PUSH1 0x20 PUSH0 KECCAK256 SWAP1 JUMPDEST DUP2 SLOAD DUP2 MSTORE SWAP1 PUSH1 0x1 ADD SWAP1 PUSH1 0x20 ADD DUP1 DUP4 GT PUSH2 0xC54 JUMPI DUP3 SWAP1 SUB PUSH1 0x1F AND DUP3 ADD SWAP2 JUMPDEST POP POP POP POP POP SWAP10 POP DUP9 DUP1 SLOAD PUSH2 0xC84 SWAP1 PUSH2 0x1E49 JUMP JUMPDEST DUP1 PUSH1 0x1F ADD PUSH1 0x20 DUP1 SWAP2 DIV MUL PUSH1 0x20 ADD PUSH1 0x40 MLOAD SWAP1 DUP2 ADD PUSH1 0x40 MSTORE DUP1 SWAP3 SWAP2 SWAP1 DUP2 DUP2 MSTORE PUSH1 0x20 ADD DUP3 DUP1 SLOAD PUSH2 0xCB0 SWAP1 PUSH2 0x1E49 JUMP JUMPDEST DUP1 ISZERO PUSH2 0xCFB JUMPI DUP1 PUSH1 0x1F LT PUSH2 0xCD2 JUMPI PUSH2 0x100 DUP1 DUP4 SLOAD DIV MUL DUP4 MSTORE SWAP2 PUSH1 0x20 ADD SWAP2 PUSH2 0xCFB JUMP JUMPDEST DUP3 ADD SWAP2 SWAP1 PUSH0 MSTORE PUSH1 0x20 PUSH0 KECCAK256 SWAP1 JUMPDEST DUP2 SLOAD DUP2 MSTORE SWAP1 PUSH1 0x1 ADD SWAP1 PUSH1 0x20 ADD DUP1 DUP4 GT PUSH2 0xCDE JUMPI DUP3 SWAP1 SUB PUSH1 0x1F AND DUP3 ADD SWAP2 JUMPDEST POP POP POP POP POP SWAP9 POP DUP8 DUP1 SLOAD PUSH2 0xD0E SWAP1 PUSH2 0x1E49 JUMP JUMPDEST DUP1 PUSH1 0x1F ADD PUSH1 0x20 DUP1 SWAP2 DIV MUL PUSH1 0x20 ADD PUSH1 0x40 MLOAD SWAP1 DUP2 ADD PUSH1 0x40 MSTORE DUP1 SWAP3 SWAP2 SWAP1 DUP2 DUP2 MSTORE PUSH1 0x20 ADD DUP3 DUP1 SLOAD PUSH2 0xD3A SWAP1 PUSH2 0x1E49 JUMP JUMPDEST DUP1 ISZERO PUSH2 0xD85 JUMPI DUP1 PUSH1 0x1F LT PUSH2 0xD5C JUMPI PUSH2 0x100 DUP1 DUP4 SLOAD DIV MUL DUP4 MSTORE SWAP2 PUSH1 0x20 ADD SWAP2 PUSH2 0xD85 JUMP JUMPDEST DUP3 ADD SWAP2 SWAP1 PUSH0 MSTORE PUSH1 0x20 PUSH0 KECCAK256 SWAP1 JUMPDEST DUP2 SLOAD DUP2 MSTORE SWAP1 PUSH1 0x1 ADD SWAP1 PUSH1 0x20 ADD DUP1 DUP4 GT PUSH2 0xD68 JUMPI DUP3 SWAP1 SUB PUSH1 0x1F AND DUP3 ADD SWAP2 JUMPDEST POP POP POP POP POP SWAP8 POP DUP7 DUP1 SLOAD PUSH2 0xD98 SWAP1 PUSH2 0x1E49 JUMP JUMPDEST DUP1 PUSH1 0x1F ADD PUSH1 0x20 DUP1 SWAP2 DIV MUL PUSH1 0x20 ADD PUSH1 0x40 MLOAD SWAP1 DUP2 ADD PUSH1 0x40 MSTORE DUP1 SWAP3 SWAP2 SWAP1 DUP2 DUP2 MSTORE PUSH1 0x20 ADD DUP3 DUP1 SLOAD PUSH2 0xDC4 SWAP1 PUSH2 0x1E49 JUMP JUMPDEST DUP1 ISZERO PUSH2 0xE0F JUMPI DUP1 PUSH1 0x1F LT PUSH2 0xDE6 JUMPI PUSH2 0x100 DUP1 DUP4 SLOAD DIV MUL DUP4 MSTORE SWAP2 PUSH1 0x20 ADD SWAP2 PUSH2 0xE0F JUMP JUMPDEST DUP3 ADD SWAP2 SWAP1 PUSH0 MSTORE PUSH1 0x20 PUSH0 KECCAK256 SWAP1 JUMPDEST DUP2 SLOAD DUP2 MSTORE SWAP1 PUSH1 0x1 ADD SWAP1 PUSH1 0x20 ADD DUP1 DUP4 GT PUSH2 0xDF2 JUMPI DUP3 SWAP1 SUB PUSH1 0x1F AND DUP3 ADD SWAP2 JUMPDEST POP POP POP POP POP SWAP7 POP SWAP14 POP SWAP14 POP SWAP14 POP SWAP14 POP SWAP14 POP SWAP14 POP SWAP14 POP SWAP14 POP SWAP14 POP SWAP14 POP POP POP POP POP SWAP2 SWAP4 SWAP6 SWAP8 SWAP10 POP SWAP2 SWAP4 SWAP6 SWAP8 SWAP10 JUMP JUMPDEST DUP1 PUSH0 PUSH1 0x40 MLOAD PUSH2 0xE4A SWAP2 SWAP1 PUSH2 0x1F15 JUMP JUMPDEST PUSH1 0x40 MLOAD DUP1 SWAP2 SUB SWAP1 KECCAK256 PUSH1 0x2 PUSH0 DUP4 DUP2 MSTORE PUSH1 0x20 ADD SWAP1 DUP2 MSTORE PUSH1 0x20 ADD PUSH0 KECCAK256 PUSH1 0x3 ADD PUSH1 0x40 MLOAD PUSH2 0xE73 SWAP2 SWAP1 PUSH2 0x1F15 JUMP JUMPDEST PUSH1 0x40 MLOAD DUP1 SWAP2 SUB SWAP1 KECCAK256 EQ PUSH2 0xEBB JUMPI PUSH1 0x40 MLOAD PUSH32 0x8C379A000000000000000000000000000000000000000000000000000000000 DUP2 MSTORE PUSH1 0x4 ADD PUSH2 0xEB2 SWAP1 PUSH2 0x1F9B JUMP JUMPDEST PUSH1 0x40 MLOAD DUP1 SWAP2 SUB SWAP1 REVERT JUMPDEST PUSH1 0x1 PUSH1 0x2 PUSH0 DUP5 DUP2 MSTORE PUSH1 0x20 ADD SWAP1 DUP2 MSTORE PUSH1 0x20 ADD PUSH0 KECCAK256 PUSH1 0x9 ADD PUSH0 PUSH2 0x100 EXP DUP2 SLOAD DUP2 PUSH1 0xFF MUL NOT AND SWAP1 DUP4 ISZERO ISZERO MUL OR SWAP1 SSTORE POP PUSH32 0xA10DA3BD85A8A7569325ABD94177D0BBF25FBDED5A3F6622A5588CE2CF1153BA DUP3 PUSH1 0x40 MLOAD PUSH2 0xF16 SWAP2 SWAP1 PUSH2 0x166E JUMP JUMPDEST PUSH1 0x40 MLOAD DUP1 SWAP2 SUB SWAP1 LOG1 POP POP JUMP JUMPDEST PUSH0 DUP1 SLOAD PUSH2 0xF2E SWAP1 PUSH2 0x1E49 JUMP JUMPDEST DUP1 PUSH1 0x1F ADD PUSH1 0x20 DUP1 SWAP2 DIV MUL PUSH1 0x20 ADD PUSH1 0x40 MLOAD SWAP1 DUP2 ADD PUSH1 0x40 MSTORE DUP1 SWAP3 SWAP2 SWAP1 DUP2 DUP2 MSTORE PUSH1 0x20 ADD DUP3 DUP1 SLOAD PUSH2 0xF5A SWAP1 PUSH2 0x1E49 JUMP JUMPDEST DUP1 ISZERO PUSH2 0xFA5 JUMPI DUP1 PUSH1 0x1F LT PUSH2 0xF7C JUMPI PUSH2 0x100 DUP1 DUP4 SLOAD DIV MUL DUP4 MSTORE SWAP2 PUSH1 0x20 ADD SWAP2 PUSH2 0xFA5 JUMP JUMPDEST DUP3 ADD SWAP2 SWAP1 PUSH0 MSTORE PUSH1 0x20 PUSH0 KECCAK256 SWAP1 JUMPDEST DUP2 SLOAD DUP2 MSTORE SWAP1 PUSH1 0x1 ADD SWAP1 PUSH1 0x20 ADD DUP1 DUP4 GT PUSH2 0xF88 JUMPI DUP3 SWAP1 SUB PUSH1 0x1F AND DUP3 ADD SWAP2 JUMPDEST POP POP POP POP POP DUP2 JUMP JUMPDEST PUSH0 PUSH1 0x1 PUSH0 DUP2 SLOAD DUP1 SWAP3 SWAP2 SWAP1 PUSH2 0xFC0 SWAP1 PUSH2 0x20B0 JUMP JUMPDEST SWAP2 SWAP1 POP SSTORE SWAP1 POP PUSH0 PUSH1 0x2 PUSH0 DUP4 DUP2 MSTORE PUSH1 0x20 ADD SWAP1 DUP2 MSTORE PUSH1 0x20 ADD PUSH0 KECCAK256 SWAP1 POP DUP8 DUP2 PUSH1 0x1 ADD SWAP1 DUP2 PUSH2 0xFEB SWAP2 SWAP1 PUSH2 0x2294 JUMP JUMPDEST POP DUP7 DUP2 PUSH1 0x2 ADD SWAP1 DUP2 PUSH2 0xFFD SWAP2 SWAP1 PUSH2 0x2294 JUMP JUMPDEST POP DUP9 DUP2 PUSH0 ADD SWAP1 DUP2 PUSH2 0x100E SWAP2 SWAP1 PUSH2 0x2294 JUMP JUMPDEST POP DUP6 DUP2 PUSH1 0x3 ADD SWAP1 DUP2 PUSH2 0x1020 SWAP2 SWAP1 PUSH2 0x2294 JUMP JUMPDEST POP DUP5 DUP2 PUSH1 0x4 ADD SWAP1 DUP2 PUSH2 0x1032 SWAP2 SWAP1 PUSH2 0x2294 JUMP JUMPDEST POP TIMESTAMP DUP2 PUSH1 0x5 ADD DUP2 SWAP1 SSTORE POP DUP4 DUP2 PUSH1 0x6 ADD DUP2 SWAP1 SSTORE POP DUP3 DUP2 PUSH1 0x7 ADD DUP2 SWAP1 SSTORE POP PUSH0 DUP2 PUSH1 0x9 ADD PUSH0 PUSH2 0x100 EXP DUP2 SLOAD DUP2 PUSH1 0xFF MUL NOT AND SWAP1 DUP4 ISZERO ISZERO MUL OR SWAP1 SSTORE POP PUSH0 DUP2 PUSH1 0x8 ADD DUP2 SWAP1 SSTORE POP PUSH1 0x3 DUP3 SWAP1 DUP1 PUSH1 0x1 DUP2 SLOAD ADD DUP1 DUP3 SSTORE DUP1 SWAP2 POP POP PUSH1 0x1 SWAP1 SUB SWAP1 PUSH0 MSTORE PUSH1 0x20 PUSH0 KECCAK256 ADD PUSH0 SWAP1 SWAP2 SWAP1 SWAP2 SWAP1 SWAP2 POP SSTORE PUSH32 0xD435653848BBFA44A9136B793E660753873E5B87EE80E7289D257538214BD3E0 DUP3 DUP10 DUP9 DUP9 PUSH1 0x40 MLOAD PUSH2 0x10CD SWAP5 SWAP4 SWAP3 SWAP2 SWAP1 PUSH2 0x2363 JUMP JUMPDEST PUSH1 0x40 MLOAD DUP1 SWAP2 SUB SWAP1 LOG1 POP POP POP POP POP POP POP POP POP JUMP JUMPDEST DUP4 PUSH0 PUSH1 0x40 MLOAD PUSH2 0x10EF SWAP2 SWAP1 PUSH2 0x1F15 JUMP JUMPDEST PUSH1 0x40 MLOAD DUP1 SWAP2 SUB SWAP1 KECCAK256 PUSH1 0x2 PUSH0 DUP4 DUP2 MSTORE PUSH1 0x20 ADD SWAP1 DUP2 MSTORE PUSH1 0x20 ADD PUSH0 KECCAK256 PUSH1 0x3 ADD PUSH1 0x40 MLOAD PUSH2 0x1118 SWAP2 SWAP1 PUSH2 0x1F15 JUMP JUMPDEST PUSH1 0x40 MLOAD DUP1 SWAP2 SUB SWAP1 KECCAK256 EQ PUSH2 0x1160 JUMPI PUSH1 0x40 MLOAD PUSH32 0x8C379A000000000000000000000000000000000000000000000000000000000 DUP2 MSTORE PUSH1 0x4 ADD PUSH2 0x1157 SWAP1 PUSH2 0x1F9B JUMP JUMPDEST PUSH1 0x40 MLOAD DUP1 SWAP2 SUB SWAP1 REVERT JUMPDEST PUSH0 PUSH1 0x2 PUSH0 DUP8 DUP2 MSTORE PUSH1 0x20 ADD SWAP1 DUP2 MSTORE PUSH1 0x20 ADD PUSH0 KECCAK256 PUSH1 0xA ADD PUSH1 0x1 DUP2 PUSH1 0x1 DUP2 SLOAD ADD DUP1 DUP3 SSTORE DUP1 SWAP2 POP POP SUB SWAP1 PUSH0 MSTORE PUSH1 0x20 PUSH0 KECCAK256 SWAP1 PUSH1 0x7 MUL ADD SWAP1 POP DUP5 DUP2 PUSH1 0x1 ADD SWAP1 DUP2 PUSH2 0x11A4 SWAP2 SWAP1 PUSH2 0x2294 JUMP JUMPDEST POP DUP4 DUP2 PUSH1 0x3 ADD DUP2 SWAP1 SSTORE POP DUP3 DUP2 PUSH1 0x4 ADD SWAP1 DUP1 MLOAD SWAP1 PUSH1 0x20 ADD SWAP1 PUSH2 0x11C6 SWAP3 SWAP2 SWAP1 PUSH2 0x137F JUMP JUMPDEST POP PUSH0 DUP2 PUSH1 0x6 ADD PUSH0 PUSH2 0x100 EXP DUP2 SLOAD DUP2 PUSH1 0xFF MUL NOT AND SWAP1 DUP4 ISZERO ISZERO MUL OR SWAP1 SSTORE POP PUSH32 0xDFC881EDF63042CCEF2E2F9BF1C9CEE4DAEB0E16941EAC6001024D72D80DE00E DUP7 PUSH1 0x1 PUSH1 0x2 PUSH0 DUP11 DUP2 MSTORE PUSH1 0x20 ADD SWAP1 DUP2 MSTORE PUSH1 0x20 ADD PUSH0 KECCAK256 PUSH1 0xA ADD DUP1 SLOAD SWAP1 POP PUSH2 0x1228 SWAP2 SWAP1 PUSH2 0x23BB JUMP JUMPDEST DUP8 DUP8 PUSH1 0x40 MLOAD PUSH2 0x123A SWAP5 SWAP4 SWAP3 SWAP2 SWAP1 PUSH2 0x23EE JUMP JUMPDEST PUSH1 0x40 MLOAD DUP1 SWAP2 SUB SWAP1 LOG1 POP POP POP POP POP POP JUMP JUMPDEST PUSH0 PUSH1 0x1 SLOAD SWAP1 POP SWAP1 JUMP JUMPDEST DUP3 DUP3 DUP3 PUSH0 PUSH1 0x2 PUSH0 DUP6 DUP2 MSTORE PUSH1 0x20 ADD SWAP1 DUP2 MSTORE PUSH1 0x20 ADD PUSH0 KECCAK256 PUSH1 0xA ADD DUP4 DUP2 SLOAD DUP2 LT PUSH2 0x127D JUMPI PUSH2 0x127C PUSH2 0x1FB9 JUMP JUMPDEST JUMPDEST SWAP1 PUSH0 MSTORE PUSH1 0x20 PUSH0 KECCAK256 SWAP1 PUSH1 0x7 MUL ADD SWAP1 POP PUSH0 DUP1 JUMPDEST DUP3 PUSH1 0x4 ADD DUP1 SLOAD SWAP1 POP DUP2 LT ISZERO PUSH2 0x12F9 JUMPI DUP4 DUP1 MLOAD SWAP1 PUSH1 0x20 ADD KECCAK256 DUP4 PUSH1 0x4 ADD DUP3 DUP2 SLOAD DUP2 LT PUSH2 0x12BB JUMPI PUSH2 0x12BA PUSH2 0x1FB9 JUMP JUMPDEST JUMPDEST SWAP1 PUSH0 MSTORE PUSH1 0x20 PUSH0 KECCAK256 ADD PUSH1 0x40 MLOAD PUSH2 0x12D0 SWAP2 SWAP1 PUSH2 0x1F15 JUMP JUMPDEST PUSH1 0x40 MLOAD DUP1 SWAP2 SUB SWAP1 KECCAK256 SUB PUSH2 0x12E6 JUMPI PUSH1 0x1 SWAP2 POP PUSH2 0x12F9 JUMP JUMPDEST DUP1 DUP1 PUSH2 0x12F1 SWAP1 PUSH2 0x20B0 JUMP JUMPDEST SWAP2 POP POP PUSH2 0x128E JUMP JUMPDEST POP DUP1 PUSH2 0x133A JUMPI PUSH1 0x40 MLOAD PUSH32 0x8C379A000000000000000000000000000000000000000000000000000000000 DUP2 MSTORE PUSH1 0x4 ADD PUSH2 0x1331 SWAP1 PUSH2 0x2482 JUMP JUMPDEST PUSH1 0x40 MLOAD DUP1 SWAP2 SUB SWAP1 REVERT JUMPDEST PUSH32 0x9F64639419DE97116219D1F7C000638905FA8176602DC9AFD7D28338B6A803CC DUP9 DUP9 DUP9 PUSH1 0x40 MLOAD PUSH2 0x136D SWAP4 SWAP3 SWAP2 SWAP1 PUSH2 0x24A0 JUMP JUMPDEST PUSH1 0x40 MLOAD DUP1 SWAP2 SUB SWAP1 LOG1 POP POP POP POP POP POP POP POP JUMP JUMPDEST DUP3 DUP1 SLOAD DUP3 DUP3 SSTORE SWAP1 PUSH0 MSTORE PUSH1 0x20 PUSH0 KECCAK256 SWAP1 DUP2 ADD SWAP3 DUP3 ISZERO PUSH2 0x13C5 JUMPI SWAP2 PUSH1 0x20 MUL DUP3 ADD JUMPDEST DUP3 DUP2 GT ISZERO PUSH2 0x13C4 JUMPI DUP3 MLOAD DUP3 SWAP1 DUP2 PUSH2 0x13B4 SWAP2 SWAP1 PUSH2 0x2294 JUMP JUMPDEST POP SWAP2 PUSH1 0x20 ADD SWAP2 SWAP1 PUSH1 0x1 ADD SWAP1 PUSH2 0x139D JUMP JUMPDEST JUMPDEST POP SWAP1 POP PUSH2 0x13D2 SWAP2 SWAP1 PUSH2 0x13D6 JUMP JUMPDEST POP SWAP1 JUMP JUMPDEST JUMPDEST DUP1 DUP3 GT ISZERO PUSH2 0x13F5 JUMPI PUSH0 DUP2 DUP2 PUSH2 0x13EC SWAP2 SWAP1 PUSH2 0x13F9 JUMP JUMPDEST POP PUSH1 0x1 ADD PUSH2 0x13D7 JUMP JUMPDEST POP SWAP1 JUMP JUMPDEST POP DUP1 SLOAD PUSH2 0x1405 SWAP1 PUSH2 0x1E49 JUMP JUMPDEST PUSH0 DUP3 SSTORE DUP1 PUSH1 0x1F LT PUSH2 0x1416 JUMPI POP PUSH2 0x1433 JUMP JUMPDEST PUSH1 0x1F ADD PUSH1 0x20 SWAP1 DIV SWAP1 PUSH0 MSTORE PUSH1 0x20 PUSH0 KECCAK256 SWAP1 DUP2 ADD SWAP1 PUSH2 0x1432 SWAP2 SWAP1 PUSH2 0x1436 JUMP JUMPDEST JUMPDEST POP JUMP JUMPDEST JUMPDEST DUP1 DUP3 GT ISZERO PUSH2 0x144D JUMPI PUSH0 DUP2 PUSH0 SWAP1 SSTORE POP PUSH1 0x1 ADD PUSH2 0x1437 JUMP JUMPDEST POP SWAP1 JUMP JUMPDEST PUSH0 PUSH1 0x40 MLOAD SWAP1 POP SWAP1 JUMP JUMPDEST PUSH0 DUP1 REVERT JUMPDEST PUSH0 DUP1 REVERT JUMPDEST PUSH0 DUP2 SWAP1 POP SWAP2 SWAP1 POP JUMP JUMPDEST PUSH2 0x1474 DUP2 PUSH2 0x1462 JUMP JUMPDEST DUP2 EQ PUSH2 0x147E JUMPI PUSH0 DUP1 REVERT JUMPDEST POP JUMP JUMPDEST PUSH0 DUP2 CALLDATALOAD SWAP1 POP PUSH2 0x148F DUP2 PUSH2 0x146B JUMP JUMPDEST SWAP3 SWAP2 POP POP JUMP JUMPDEST PUSH0 DUP1 PUSH1 0x40 DUP4 DUP6 SUB SLT ISZERO PUSH2 0x14AB JUMPI PUSH2 0x14AA PUSH2 0x145A JUMP JUMPDEST JUMPDEST PUSH0 PUSH2 0x14B8 DUP6 DUP3 DUP7 ADD PUSH2 0x1481 JUMP JUMPDEST SWAP3 POP POP PUSH1 0x20 PUSH2 0x14C9 DUP6 DUP3 DUP7 ADD PUSH2 0x1481 JUMP JUMPDEST SWAP2 POP POP SWAP3 POP SWAP3 SWAP1 POP JUMP JUMPDEST PUSH0 PUSH1 0x20 DUP3 DUP5 SUB SLT ISZERO PUSH2 0x14E8 JUMPI PUSH2 0x14E7 PUSH2 0x145A JUMP JUMPDEST JUMPDEST PUSH0 PUSH2 0x14F5 DUP5 DUP3 DUP6 ADD PUSH2 0x1481 JUMP JUMPDEST SWAP2 POP POP SWAP3 SWAP2 POP POP JUMP JUMPDEST PUSH0 DUP2 MLOAD SWAP1 POP SWAP2 SWAP1 POP JUMP JUMPDEST PUSH0 DUP3 DUP3 MSTORE PUSH1 0x20 DUP3 ADD SWAP1 POP SWAP3 SWAP2 POP POP JUMP JUMPDEST PUSH0 JUMPDEST DUP4 DUP2 LT ISZERO PUSH2 0x1535 JUMPI DUP1 DUP3 ADD MLOAD DUP2 DUP5 ADD MSTORE PUSH1 0x20 DUP2 ADD SWAP1 POP PUSH2 0x151A JUMP JUMPDEST PUSH0 DUP5 DUP5 ADD MSTORE POP POP POP POP JUMP JUMPDEST PUSH0 PUSH1 0x1F NOT PUSH1 0x1F DUP4 ADD AND SWAP1 POP SWAP2 SWAP1 POP JUMP JUMPDEST PUSH0 PUSH2 0x155A DUP3 PUSH2 0x14FE JUMP JUMPDEST PUSH2 0x1564 DUP2 DUP6 PUSH2 0x1508 JUMP JUMPDEST SWAP4 POP PUSH2 0x1574 DUP2 DUP6 PUSH1 0x20 DUP7 ADD PUSH2 0x1518 JUMP JUMPDEST PUSH2 0x157D DUP2 PUSH2 0x1540 JUMP JUMPDEST DUP5 ADD SWAP2 POP POP SWAP3 SWAP2 POP POP JUMP JUMPDEST PUSH2 0x1591 DUP2 PUSH2 0x1462 JUMP JUMPDEST DUP3 MSTORE POP POP JUMP JUMPDEST PUSH0 DUP2 ISZERO ISZERO SWAP1 POP SWAP2 SWAP1 POP JUMP JUMPDEST PUSH2 0x15AB DUP2 PUSH2 0x1597 JUMP JUMPDEST DUP3 MSTORE POP POP JUMP JUMPDEST PUSH0 PUSH2 0x140 DUP3 ADD SWAP1 POP DUP2 DUP2 SUB PUSH0 DUP4 ADD MSTORE PUSH2 0x15CA DUP2 DUP14 PUSH2 0x1550 JUMP JUMPDEST SWAP1 POP DUP2 DUP2 SUB PUSH1 0x20 DUP4 ADD MSTORE PUSH2 0x15DE DUP2 DUP13 PUSH2 0x1550 JUMP JUMPDEST SWAP1 POP DUP2 DUP2 SUB PUSH1 0x40 DUP4 ADD MSTORE PUSH2 0x15F2 DUP2 DUP12 PUSH2 0x1550 JUMP JUMPDEST SWAP1 POP DUP2 DUP2 SUB PUSH1 0x60 DUP4 ADD MSTORE PUSH2 0x1606 DUP2 DUP11 PUSH2 0x1550 JUMP JUMPDEST SWAP1 POP DUP2 DUP2 SUB PUSH1 0x80 DUP4 ADD MSTORE PUSH2 0x161A DUP2 DUP10 PUSH2 0x1550 JUMP JUMPDEST SWAP1 POP PUSH2 0x1629 PUSH1 0xA0 DUP4 ADD DUP9 PUSH2 0x1588 JUMP JUMPDEST PUSH2 0x1636 PUSH1 0xC0 DUP4 ADD DUP8 PUSH2 0x1588 JUMP JUMPDEST PUSH2 0x1643 PUSH1 0xE0 DUP4 ADD DUP7 PUSH2 0x1588 JUMP JUMPDEST PUSH2 0x1651 PUSH2 0x100 DUP4 ADD DUP6 PUSH2 0x1588 JUMP JUMPDEST PUSH2 0x165F PUSH2 0x120 DUP4 ADD DUP5 PUSH2 0x15A2 JUMP JUMPDEST SWAP12 SWAP11 POP POP POP POP POP POP POP POP POP POP POP JUMP JUMPDEST PUSH0 PUSH1 0x20 DUP3 ADD SWAP1 POP PUSH2 0x1681 PUSH0 DUP4 ADD DUP5 PUSH2 0x1588 JUMP JUMPDEST SWAP3 SWAP2 POP POP JUMP JUMPDEST PUSH0 DUP2 MLOAD SWAP1 POP SWAP2 SWAP1 POP JUMP JUMPDEST PUSH0 DUP3 DUP3 MSTORE PUSH1 0x20 DUP3 ADD SWAP1 POP SWAP3 SWAP2 POP POP JUMP JUMPDEST PUSH0 DUP2 SWAP1 POP PUSH1 0x20 DUP3 ADD SWAP1 POP SWAP2 SWAP1 POP JUMP JUMPDEST PUSH2 0x16B9 DUP2 PUSH2 0x1462 JUMP JUMPDEST DUP3 MSTORE POP POP JUMP JUMPDEST PUSH0 PUSH2 0x16CA DUP4 DUP4 PUSH2 0x16B0 JUMP JUMPDEST PUSH1 0x20 DUP4 ADD SWAP1 POP SWAP3 SWAP2 POP POP JUMP JUMPDEST PUSH0 PUSH1 0x20 DUP3 ADD SWAP1 POP SWAP2 SWAP1 POP JUMP JUMPDEST PUSH0 PUSH2 0x16EC DUP3 PUSH2 0x1687 JUMP JUMPDEST PUSH2 0x16F6 DUP2 DUP6 PUSH2 0x1691 JUMP JUMPDEST SWAP4 POP PUSH2 0x1701 DUP4 PUSH2 0x16A1 JUMP JUMPDEST DUP1 PUSH0 JUMPDEST DUP4 DUP2 LT ISZERO PUSH2 0x1731 JUMPI DUP2 MLOAD PUSH2 0x1718 DUP9 DUP3 PUSH2 0x16BF JUMP JUMPDEST SWAP8 POP PUSH2 0x1723 DUP4 PUSH2 0x16D6 JUMP JUMPDEST SWAP3 POP POP PUSH1 0x1 DUP2 ADD SWAP1 POP PUSH2 0x1704 JUMP JUMPDEST POP DUP6 SWAP4 POP POP POP POP SWAP3 SWAP2 POP POP JUMP JUMPDEST PUSH0 PUSH1 0x20 DUP3 ADD SWAP1 POP DUP2 DUP2 SUB PUSH0 DUP4 ADD MSTORE PUSH2 0x1756 DUP2 DUP5 PUSH2 0x16E2 JUMP JUMPDEST SWAP1 POP SWAP3 SWAP2 POP POP JUMP JUMPDEST PUSH0 PUSH2 0x100 DUP3 ADD SWAP1 POP DUP2 DUP2 SUB PUSH0 DUP4 ADD MSTORE PUSH2 0x1777 DUP2 DUP12 PUSH2 0x1550 JUMP JUMPDEST SWAP1 POP DUP2 DUP2 SUB PUSH1 0x20 DUP4 ADD MSTORE PUSH2 0x178B DUP2 DUP11 PUSH2 0x1550 JUMP JUMPDEST SWAP1 POP DUP2 DUP2 SUB PUSH1 0x40 DUP4 ADD MSTORE PUSH2 0x179F DUP2 DUP10 PUSH2 0x1550 JUMP JUMPDEST SWAP1 POP DUP2 DUP2 SUB PUSH1 0x60 DUP4 ADD MSTORE PUSH2 0x17B3 DUP2 DUP9 PUSH2 0x1550 JUMP JUMPDEST SWAP1 POP PUSH2 0x17C2 PUSH1 0x80 DUP4 ADD DUP8 PUSH2 0x1588 JUMP JUMPDEST PUSH2 0x17CF PUSH1 0xA0 DUP4 ADD DUP7 PUSH2 0x1588 JUMP JUMPDEST PUSH2 0x17DC PUSH1 0xC0 DUP4 ADD DUP6 PUSH2 0x1588 JUMP JUMPDEST PUSH2 0x17E9 PUSH1 0xE0 DUP4 ADD DUP5 PUSH2 0x15A2 JUMP JUMPDEST SWAP10 SWAP9 POP POP POP POP POP POP POP POP POP JUMP JUMPDEST PUSH0 DUP2 MLOAD SWAP1 POP SWAP2 SWAP1 POP JUMP JUMPDEST PUSH0 DUP3 DUP3 MSTORE PUSH1 0x20 DUP3 ADD SWAP1 POP SWAP3 SWAP2 POP POP JUMP JUMPDEST PUSH0 DUP2 SWAP1 POP PUSH1 0x20 DUP3 ADD SWAP1 POP SWAP2 SWAP1 POP JUMP JUMPDEST PUSH0 DUP3 DUP3 MSTORE PUSH1 0x20 DUP3 ADD SWAP1 POP SWAP3 SWAP2 POP POP JUMP JUMPDEST PUSH0 PUSH2 0x1839 DUP3 PUSH2 0x14FE JUMP JUMPDEST PUSH2 0x1843 DUP2 DUP6 PUSH2 0x181F JUMP JUMPDEST SWAP4 POP PUSH2 0x1853 DUP2 DUP6 PUSH1 0x20 DUP7 ADD PUSH2 0x1518 JUMP JUMPDEST PUSH2 0x185C DUP2 PUSH2 0x1540 JUMP JUMPDEST DUP5 ADD SWAP2 POP POP SWAP3 SWAP2 POP POP JUMP JUMPDEST PUSH0 PUSH2 0x1872 DUP4 DUP4 PUSH2 0x182F JUMP JUMPDEST SWAP1 POP SWAP3 SWAP2 POP POP JUMP JUMPDEST PUSH0 PUSH1 0x20 DUP3 ADD SWAP1 POP SWAP2 SWAP1 POP JUMP JUMPDEST PUSH0 PUSH2 0x1890 DUP3 PUSH2 0x17F6 JUMP JUMPDEST PUSH2 0x189A DUP2 DUP6 PUSH2 0x1800 JUMP JUMPDEST SWAP4 POP DUP4 PUSH1 0x20 DUP3 MUL DUP6 ADD PUSH2 0x18AC DUP6 PUSH2 0x1810 JUMP JUMPDEST DUP1 PUSH0 JUMPDEST DUP6 DUP2 LT ISZERO PUSH2 0x18E7 JUMPI DUP5 DUP5 SUB DUP10 MSTORE DUP2 MLOAD PUSH2 0x18C8 DUP6 DUP3 PUSH2 0x1867 JUMP JUMPDEST SWAP5 POP PUSH2 0x18D3 DUP4 PUSH2 0x187A JUMP JUMPDEST SWAP3 POP PUSH1 0x20 DUP11 ADD SWAP10 POP POP PUSH1 0x1 DUP2 ADD SWAP1 POP PUSH2 0x18AF JUMP JUMPDEST POP DUP3 SWAP8 POP DUP8 SWAP6 POP POP POP POP POP POP SWAP3 SWAP2 POP POP JUMP JUMPDEST PUSH0 PUSH2 0x140 DUP3 ADD SWAP1 POP DUP2 DUP2 SUB PUSH0 DUP4 ADD MSTORE PUSH2 0x1912 DUP2 DUP14 PUSH2 0x1550 JUMP JUMPDEST SWAP1 POP DUP2 DUP2 SUB PUSH1 0x20 DUP4 ADD MSTORE PUSH2 0x1926 DUP2 DUP13 PUSH2 0x1550 JUMP JUMPDEST SWAP1 POP DUP2 DUP2 SUB PUSH1 0x40 DUP4 ADD MSTORE PUSH2 0x193A DUP2 DUP12 PUSH2 0x1550 JUMP JUMPDEST SWAP1 POP DUP2 DUP2 SUB PUSH1 0x60 DUP4 ADD MSTORE PUSH2 0x194E DUP2 DUP11 PUSH2 0x1550 JUMP JUMPDEST SWAP1 POP PUSH2 0x195D PUSH1 0x80 DUP4 ADD DUP10 PUSH2 0x1588 JUMP JUMPDEST PUSH2 0x196A PUSH1 0xA0 DUP4 ADD DUP9 PUSH2 0x1588 JUMP JUMPDEST PUSH2 0x1977 PUSH1 0xC0 DUP4 ADD DUP8 PUSH2 0x1588 JUMP JUMPDEST PUSH2 0x1984 PUSH1 0xE0 DUP4 ADD DUP7 PUSH2 0x15A2 JUMP JUMPDEST DUP2 DUP2 SUB PUSH2 0x100 DUP4 ADD MSTORE PUSH2 0x1997 DUP2 DUP6 PUSH2 0x16E2 JUMP JUMPDEST SWAP1 POP DUP2 DUP2 SUB PUSH2 0x120 DUP4 ADD MSTORE PUSH2 0x19AC DUP2 DUP5 PUSH2 0x1886 JUMP JUMPDEST SWAP1 POP SWAP12 SWAP11 POP POP POP POP POP POP POP POP POP POP POP JUMP JUMPDEST PUSH0 PUSH1 0x20 DUP3 ADD SWAP1 POP DUP2 DUP2 SUB PUSH0 DUP4 ADD MSTORE PUSH2 0x19D5 DUP2 DUP5 PUSH2 0x1550 JUMP JUMPDEST SWAP1 POP SWAP3 SWAP2 POP POP JUMP JUMPDEST PUSH0 DUP1 REVERT JUMPDEST PUSH0 DUP1 REVERT JUMPDEST PUSH32 0x4E487B7100000000000000000000000000000000000000000000000000000000 PUSH0 MSTORE PUSH1 0x41 PUSH1 0x4 MSTORE PUSH1 0x24 PUSH0 REVERT JUMPDEST PUSH2 0x1A1B DUP3 PUSH2 0x1540 JUMP JUMPDEST DUP2 ADD DUP2 DUP2 LT PUSH8 0xFFFFFFFFFFFFFFFF DUP3 GT OR ISZERO PUSH2 0x1A3A JUMPI PUSH2 0x1A39 PUSH2 0x19E5 JUMP JUMPDEST JUMPDEST DUP1 PUSH1 0x40 MSTORE POP POP POP JUMP JUMPDEST PUSH0 PUSH2 0x1A4C PUSH2 0x1451 JUMP JUMPDEST SWAP1 POP PUSH2 0x1A58 DUP3 DUP3 PUSH2 0x1A12 JUMP JUMPDEST SWAP2 SWAP1 POP JUMP JUMPDEST PUSH0 PUSH8 0xFFFFFFFFFFFFFFFF DUP3 GT ISZERO PUSH2 0x1A77 JUMPI PUSH2 0x1A76 PUSH2 0x19E5 JUMP JUMPDEST JUMPDEST PUSH2 0x1A80 DUP3 PUSH2 0x1540 JUMP JUMPDEST SWAP1 POP PUSH1 0x20 DUP2 ADD SWAP1 POP SWAP2 SWAP1 POP JUMP JUMPDEST DUP3 DUP2 DUP4 CALLDATACOPY PUSH0 DUP4 DUP4 ADD MSTORE POP POP POP JUMP JUMPDEST PUSH0 PUSH2 0x1AAD PUSH2 0x1AA8 DUP5 PUSH2 0x1A5D JUMP JUMPDEST PUSH2 0x1A43 JUMP JUMPDEST SWAP1 POP DUP3 DUP2 MSTORE PUSH1 0x20 DUP2 ADD DUP5 DUP5 DUP5 ADD GT ISZERO PUSH2 0x1AC9 JUMPI PUSH2 0x1AC8 PUSH2 0x19E1 JUMP JUMPDEST JUMPDEST PUSH2 0x1AD4 DUP5 DUP3 DUP6 PUSH2 0x1A8D JUMP JUMPDEST POP SWAP4 SWAP3 POP POP POP JUMP JUMPDEST PUSH0 DUP3 PUSH1 0x1F DUP4 ADD SLT PUSH2 0x1AF0 JUMPI PUSH2 0x1AEF PUSH2 0x19DD JUMP JUMPDEST JUMPDEST DUP2 CALLDATALOAD PUSH2 0x1B00 DUP5 DUP3 PUSH1 0x20 DUP7 ADD PUSH2 0x1A9B JUMP JUMPDEST SWAP2 POP POP SWAP3 SWAP2 POP POP JUMP JUMPDEST PUSH0 DUP1 PUSH0 DUP1 PUSH0 DUP1 PUSH0 PUSH1 0xE0 DUP9 DUP11 SUB SLT ISZERO PUSH2 0x1B24 JUMPI PUSH2 0x1B23 PUSH2 0x145A JUMP JUMPDEST JUMPDEST PUSH0 DUP9 ADD CALLDATALOAD PUSH8 0xFFFFFFFFFFFFFFFF DUP2 GT ISZERO PUSH2 0x1B41 JUMPI PUSH2 0x1B40 PUSH2 0x145E JUMP JUMPDEST JUMPDEST PUSH2 0x1B4D DUP11 DUP3 DUP12 ADD PUSH2 0x1ADC JUMP JUMPDEST SWAP8 POP POP PUSH1 0x20 DUP9 ADD CALLDATALOAD PUSH8 0xFFFFFFFFFFFFFFFF DUP2 GT ISZERO PUSH2 0x1B6E JUMPI PUSH2 0x1B6D PUSH2 0x145E JUMP JUMPDEST JUMPDEST PUSH2 0x1B7A DUP11 DUP3 DUP12 ADD PUSH2 0x1ADC JUMP JUMPDEST SWAP7 POP POP PUSH1 0x40 DUP9 ADD CALLDATALOAD PUSH8 0xFFFFFFFFFFFFFFFF DUP2 GT ISZERO PUSH2 0x1B9B JUMPI PUSH2 0x1B9A PUSH2 0x145E JUMP JUMPDEST JUMPDEST PUSH2 0x1BA7 DUP11 DUP3 DUP12 ADD PUSH2 0x1ADC JUMP JUMPDEST SWAP6 POP POP PUSH1 0x60 DUP9 ADD CALLDATALOAD PUSH8 0xFFFFFFFFFFFFFFFF DUP2 GT ISZERO PUSH2 0x1BC8 JUMPI PUSH2 0x1BC7 PUSH2 0x145E JUMP JUMPDEST JUMPDEST PUSH2 0x1BD4 DUP11 DUP3 DUP12 ADD PUSH2 0x1ADC JUMP JUMPDEST SWAP5 POP POP PUSH1 0x80 DUP9 ADD CALLDATALOAD PUSH8 0xFFFFFFFFFFFFFFFF DUP2 GT ISZERO PUSH2 0x1BF5 JUMPI PUSH2 0x1BF4 PUSH2 0x145E JUMP JUMPDEST JUMPDEST PUSH2 0x1C01 DUP11 DUP3 DUP12 ADD PUSH2 0x1ADC JUMP JUMPDEST SWAP4 POP POP PUSH1 0xA0 PUSH2 0x1C12 DUP11 DUP3 DUP12 ADD PUSH2 0x1481 JUMP JUMPDEST SWAP3 POP POP PUSH1 0xC0 PUSH2 0x1C23 DUP11 DUP3 DUP12 ADD PUSH2 0x1481 JUMP JUMPDEST SWAP2 POP POP SWAP3 SWAP6 SWAP9 SWAP2 SWAP5 SWAP8 POP SWAP3 SWAP6 POP JUMP JUMPDEST PUSH0 PUSH8 0xFFFFFFFFFFFFFFFF DUP3 GT ISZERO PUSH2 0x1C4C JUMPI PUSH2 0x1C4B PUSH2 0x19E5 JUMP JUMPDEST JUMPDEST PUSH1 0x20 DUP3 MUL SWAP1 POP PUSH1 0x20 DUP2 ADD SWAP1 POP SWAP2 SWAP1 POP JUMP JUMPDEST PUSH0 DUP1 REVERT JUMPDEST PUSH0 PUSH2 0x1C73 PUSH2 0x1C6E DUP5 PUSH2 0x1C32 JUMP JUMPDEST PUSH2 0x1A43 JUMP JUMPDEST SWAP1 POP DUP1 DUP4 DUP3 MSTORE PUSH1 0x20 DUP3 ADD SWAP1 POP PUSH1 0x20 DUP5 MUL DUP4 ADD DUP6 DUP2 GT ISZERO PUSH2 0x1C96 JUMPI PUSH2 0x1C95 PUSH2 0x1C5D JUMP JUMPDEST JUMPDEST DUP4 JUMPDEST DUP2 DUP2 LT ISZERO PUSH2 0x1CDD JUMPI DUP1 CALLDATALOAD PUSH8 0xFFFFFFFFFFFFFFFF DUP2 GT ISZERO PUSH2 0x1CBB JUMPI PUSH2 0x1CBA PUSH2 0x19DD JUMP JUMPDEST JUMPDEST DUP1 DUP7 ADD PUSH2 0x1CC8 DUP10 DUP3 PUSH2 0x1ADC JUMP JUMPDEST DUP6 MSTORE PUSH1 0x20 DUP6 ADD SWAP5 POP POP POP PUSH1 0x20 DUP2 ADD SWAP1 POP PUSH2 0x1C98 JUMP JUMPDEST POP POP POP SWAP4 SWAP3 POP POP POP JUMP JUMPDEST PUSH0 DUP3 PUSH1 0x1F DUP4 ADD SLT PUSH2 0x1CFB JUMPI PUSH2 0x1CFA PUSH2 0x19DD JUMP JUMPDEST JUMPDEST DUP2 CALLDATALOAD PUSH2 0x1D0B DUP5 DUP3 PUSH1 0x20 DUP7 ADD PUSH2 0x1C61 JUMP JUMPDEST SWAP2 POP POP SWAP3 SWAP2 POP POP JUMP JUMPDEST PUSH0 DUP1 PUSH0 DUP1 PUSH1 0x80 DUP6 DUP8 SUB SLT ISZERO PUSH2 0x1D2C JUMPI PUSH2 0x1D2B PUSH2 0x145A JUMP JUMPDEST JUMPDEST PUSH0 PUSH2 0x1D39 DUP8 DUP3 DUP9 ADD PUSH2 0x1481 JUMP JUMPDEST SWAP5 POP POP PUSH1 0x20 DUP6 ADD CALLDATALOAD PUSH8 0xFFFFFFFFFFFFFFFF DUP2 GT ISZERO PUSH2 0x1D5A JUMPI PUSH2 0x1D59 PUSH2 0x145E JUMP JUMPDEST JUMPDEST PUSH2 0x1D66 DUP8 DUP3 DUP9 ADD PUSH2 0x1ADC JUMP JUMPDEST SWAP4 POP POP PUSH1 0x40 PUSH2 0x1D77 DUP8 DUP3 DUP9 ADD PUSH2 0x1481 JUMP JUMPDEST SWAP3 POP POP PUSH1 0x60 DUP6 ADD CALLDATALOAD PUSH8 0xFFFFFFFFFFFFFFFF DUP2 GT ISZERO PUSH2 0x1D98 JUMPI PUSH2 0x1D97 PUSH2 0x145E JUMP JUMPDEST JUMPDEST PUSH2 0x1DA4 DUP8 DUP3 DUP9 ADD PUSH2 0x1CE7 JUMP JUMPDEST SWAP2 POP POP SWAP3 SWAP6 SWAP2 SWAP5 POP SWAP3 POP JUMP JUMPDEST PUSH0 DUP1 PUSH0 PUSH1 0x60 DUP5 DUP7 SUB SLT ISZERO PUSH2 0x1DC7 JUMPI PUSH2 0x1DC6 PUSH2 0x145A JUMP JUMPDEST JUMPDEST PUSH0 PUSH2 0x1DD4 DUP7 DUP3 DUP8 ADD PUSH2 0x1481 JUMP JUMPDEST SWAP4 POP POP PUSH1 0x20 PUSH2 0x1DE5 DUP7 DUP3 DUP8 ADD PUSH2 0x1481 JUMP JUMPDEST SWAP3 POP POP PUSH1 0x40 DUP5 ADD CALLDATALOAD PUSH8 0xFFFFFFFFFFFFFFFF DUP2 GT ISZERO PUSH2 0x1E06 JUMPI PUSH2 0x1E05 PUSH2 0x145E JUMP JUMPDEST JUMPDEST PUSH2 0x1E12 DUP7 DUP3 DUP8 ADD PUSH2 0x1ADC JUMP JUMPDEST SWAP2 POP POP SWAP3 POP SWAP3 POP SWAP3 JUMP JUMPDEST PUSH32 0x4E487B7100000000000000000000000000000000000000000000000000000000 PUSH0 MSTORE PUSH1 0x22 PUSH1 0x4 MSTORE PUSH1 0x24 PUSH0 REVERT JUMPDEST PUSH0 PUSH1 0x2 DUP3 DIV SWAP1 POP PUSH1 0x1 DUP3 AND DUP1 PUSH2 0x1E60 JUMPI PUSH1 0x7F DUP3 AND SWAP2 POP JUMPDEST PUSH1 0x20 DUP3 LT DUP2 SUB PUSH2 0x1E73 JUMPI PUSH2 0x1E72 PUSH2 0x1E1C JUMP JUMPDEST JUMPDEST POP SWAP2 SWAP1 POP JUMP JUMPDEST PUSH0 DUP2 SWAP1 POP SWAP3 SWAP2 POP POP JUMP JUMPDEST PUSH0 DUP2 SWAP1 POP DUP2 PUSH0 MSTORE PUSH1 0x20 PUSH0 KECCAK256 SWAP1 POP SWAP2 SWAP1 POP JUMP JUMPDEST PUSH0 DUP2 SLOAD PUSH2 0x1EA1 DUP2 PUSH2 0x1E49 JUMP JUMPDEST PUSH2 0x1EAB DUP2 DUP7 PUSH2 0x1E79 JUMP JUMPDEST SWAP5 POP PUSH1 0x1 DUP3 AND PUSH0 DUP2 EQ PUSH2 0x1EC5 JUMPI PUSH1 0x1 DUP2 EQ PUSH2 0x1EDA JUMPI PUSH2 0x1F0C JUMP JUMPDEST PUSH1 0xFF NOT DUP4 AND DUP7 MSTORE DUP2 ISZERO ISZERO DUP3 MUL DUP7 ADD SWAP4 POP PUSH2 0x1F0C JUMP JUMPDEST PUSH2 0x1EE3 DUP6 PUSH2 0x1E83 JUMP JUMPDEST PUSH0 JUMPDEST DUP4 DUP2 LT ISZERO PUSH2 0x1F04 JUMPI DUP2 SLOAD DUP2 DUP10 ADD MSTORE PUSH1 0x1 DUP3 ADD SWAP2 POP PUSH1 0x20 DUP2 ADD SWAP1 POP PUSH2 0x1EE5 JUMP JUMPDEST DUP4 DUP9 ADD SWAP6 POP POP POP JUMPDEST POP POP POP SWAP3 SWAP2 POP POP JUMP JUMPDEST PUSH0 PUSH2 0x1F20 DUP3 DUP5 PUSH2 0x1E95 JUMP JUMPDEST SWAP2 POP DUP2 SWAP1 POP SWAP3 SWAP2 POP POP JUMP JUMPDEST PUSH32 0x4F6E6C792074686520636C69656E742063616E20706572666F726D2074686973 PUSH0 DUP3 ADD MSTORE PUSH32 0x20616374696F6E00000000000000000000000000000000000000000000000000 PUSH1 0x20 DUP3 ADD MSTORE POP JUMP JUMPDEST PUSH0 PUSH2 0x1F85 PUSH1 0x27 DUP4 PUSH2 0x1508 JUMP JUMPDEST SWAP2 POP PUSH2 0x1F90 DUP3 PUSH2 0x1F2B JUMP JUMPDEST PUSH1 0x40 DUP3 ADD SWAP1 POP SWAP2 SWAP1 POP JUMP JUMPDEST PUSH0 PUSH1 0x20 DUP3 ADD SWAP1 POP DUP2 DUP2 SUB PUSH0 DUP4 ADD MSTORE PUSH2 0x1FB2 DUP2 PUSH2 0x1F79 JUMP JUMPDEST SWAP1 POP SWAP2 SWAP1 POP JUMP JUMPDEST PUSH32 0x4E487B7100000000000000000000000000000000000000000000000000000000 PUSH0 MSTORE PUSH1 0x32 PUSH1 0x4 MSTORE PUSH1 0x24 PUSH0 REVERT JUMPDEST PUSH32 0x5374616765206973206E6F7420636F6D706C6574656400000000000000000000 PUSH0 DUP3 ADD MSTORE POP JUMP JUMPDEST PUSH0 PUSH2 0x201A PUSH1 0x16 DUP4 PUSH2 0x1508 JUMP JUMPDEST SWAP2 POP PUSH2 0x2025 DUP3 PUSH2 0x1FE6 JUMP JUMPDEST PUSH1 0x20 DUP3 ADD SWAP1 POP SWAP2 SWAP1 POP JUMP JUMPDEST PUSH0 PUSH1 0x20 DUP3 ADD SWAP1 POP DUP2 DUP2 SUB PUSH0 DUP4 ADD MSTORE PUSH2 0x2047 DUP2 PUSH2 0x200E JUMP JUMPDEST SWAP1 POP SWAP2 SWAP1 POP JUMP JUMPDEST PUSH0 PUSH1 0x60 DUP3 ADD SWAP1 POP PUSH2 0x2061 PUSH0 DUP4 ADD DUP7 PUSH2 0x1588 JUMP JUMPDEST PUSH2 0x206E PUSH1 0x20 DUP4 ADD DUP6 PUSH2 0x1588 JUMP JUMPDEST PUSH2 0x207B PUSH1 0x40 DUP4 ADD DUP5 PUSH2 0x1588 JUMP JUMPDEST SWAP5 SWAP4 POP POP POP POP JUMP JUMPDEST PUSH32 0x4E487B7100000000000000000000000000000000000000000000000000000000 PUSH0 MSTORE PUSH1 0x11 PUSH1 0x4 MSTORE PUSH1 0x24 PUSH0 REVERT JUMPDEST PUSH0 PUSH2 0x20BA DUP3 PUSH2 0x1462 JUMP JUMPDEST SWAP2 POP PUSH32 0xFFFFFFFFFFFFFFFFFFFFFFFFFFFFFFFFFFFFFFFFFFFFFFFFFFFFFFFFFFFFFFFF DUP3 SUB PUSH2 0x20EC JUMPI PUSH2 0x20EB PUSH2 0x2083 JUMP JUMPDEST JUMPDEST PUSH1 0x1 DUP3 ADD SWAP1 POP SWAP2 SWAP1 POP JUMP JUMPDEST PUSH0 DUP2 SWAP1 POP DUP2 PUSH0 MSTORE PUSH1 0x20 PUSH0 KECCAK256 SWAP1 POP SWAP2 SWAP1 POP JUMP JUMPDEST PUSH0 PUSH1 0x20 PUSH1 0x1F DUP4 ADD DIV SWAP1 POP SWAP2 SWAP1 POP JUMP JUMPDEST PUSH0 DUP3 DUP3 SHL SWAP1 POP SWAP3 SWAP2 POP POP JUMP JUMPDEST PUSH0 PUSH1 0x8 DUP4 MUL PUSH2 0x2153 PUSH32 0xFFFFFFFFFFFFFFFFFFFFFFFFFFFFFFFFFFFFFFFFFFFFFFFFFFFFFFFFFFFFFFFF DUP3 PUSH2 0x2118 JUMP JUMPDEST PUSH2 0x215D DUP7 DUP4 PUSH2 0x2118 JUMP JUMPDEST SWAP6 POP DUP1 NOT DUP5 AND SWAP4 POP DUP1 DUP7 AND DUP5 OR SWAP3 POP POP POP SWAP4 SWAP3 POP POP POP JUMP JUMPDEST PUSH0 DUP2 SWAP1 POP SWAP2 SWAP1 POP JUMP JUMPDEST PUSH0 PUSH2 0x2198 PUSH2 0x2193 PUSH2 0x218E DUP5 PUSH2 0x1462 JUMP JUMPDEST PUSH2 0x2175 JUMP JUMPDEST PUSH2 0x1462 JUMP JUMPDEST SWAP1 POP SWAP2 SWAP1 POP JUMP JUMPDEST PUSH0 DUP2 SWAP1 POP SWAP2 SWAP1 POP JUMP JUMPDEST PUSH2 0x21B1 DUP4 PUSH2 0x217E JUMP JUMPDEST PUSH2 0x21C5 PUSH2 0x21BD DUP3 PUSH2 0x219F JUMP JUMPDEST DUP5 DUP5 SLOAD PUSH2 0x2124 JUMP JUMPDEST DUP3 SSTORE POP POP POP POP JUMP JUMPDEST PUSH0 SWAP1 JUMP JUMPDEST PUSH2 0x21D9 PUSH2 0x21CD JUMP JUMPDEST PUSH2 0x21E4 DUP2 DUP5 DUP5 PUSH2 0x21A8 JUMP JUMPDEST POP POP POP JUMP JUMPDEST JUMPDEST DUP2 DUP2 LT ISZERO PUSH2 0x2207 JUMPI PUSH2 0x21FC PUSH0 DUP3 PUSH2 0x21D1 JUMP JUMPDEST PUSH1 0x1 DUP2 ADD SWAP1 POP PUSH2 0x21EA JUMP JUMPDEST POP POP JUMP JUMPDEST PUSH1 0x1F DUP3 GT ISZERO PUSH2 0x224C JUMPI PUSH2 0x221D DUP2 PUSH2 0x20F7 JUMP JUMPDEST PUSH2 0x2226 DUP5 PUSH2 0x2109 JUMP JUMPDEST DUP2 ADD PUSH1 0x20 DUP6 LT ISZERO PUSH2 0x2235 JUMPI DUP2 SWAP1 POP JUMPDEST PUSH2 0x2249 PUSH2 0x2241 DUP6 PUSH2 0x2109 JUMP JUMPDEST DUP4 ADD DUP3 PUSH2 0x21E9 JUMP JUMPDEST POP POP JUMPDEST POP POP POP JUMP JUMPDEST PUSH0 DUP3 DUP3 SHR SWAP1 POP SWAP3 SWAP2 POP POP JUMP JUMPDEST PUSH0 PUSH2 0x226C PUSH0 NOT DUP5 PUSH1 0x8 MUL PUSH2 0x2251 JUMP JUMPDEST NOT DUP1 DUP4 AND SWAP2 POP POP SWAP3 SWAP2 POP POP JUMP JUMPDEST PUSH0 PUSH2 0x2284 DUP4 DUP4 PUSH2 0x225D JUMP JUMPDEST SWAP2 POP DUP3 PUSH1 0x2 MUL DUP3 OR SWAP1 POP SWAP3 SWAP2 POP POP JUMP JUMPDEST PUSH2 0x229D DUP3 PUSH2 0x14FE JUMP JUMPDEST PUSH8 0xFFFFFFFFFFFFFFFF DUP2 GT ISZERO PUSH2 0x22B6 JUMPI PUSH2 0x22B5 PUSH2 0x19E5 JUMP JUMPDEST JUMPDEST PUSH2 0x22C0 DUP3 SLOAD PUSH2 0x1E49 JUMP JUMPDEST PUSH2 0x22CB DUP3 DUP3 DUP6 PUSH2 0x220B JUMP JUMPDEST PUSH0 PUSH1 0x20 SWAP1 POP PUSH1 0x1F DUP4 GT PUSH1 0x1 DUP2 EQ PUSH2 0x22FC JUMPI PUSH0 DUP5 ISZERO PUSH2 0x22EA JUMPI DUP3 DUP8 ADD MLOAD SWAP1 POP JUMPDEST PUSH2 0x22F4 DUP6 DUP3 PUSH2 0x2279 JUMP JUMPDEST DUP7 SSTORE POP PUSH2 0x235B JUMP JUMPDEST PUSH1 0x1F NOT DUP5 AND PUSH2 0x230A DUP7 PUSH2 0x20F7 JUMP JUMPDEST PUSH0 JUMPDEST DUP3 DUP2 LT ISZERO PUSH2 0x2331 JUMPI DUP5 DUP10 ADD MLOAD DUP3 SSTORE PUSH1 0x1 DUP3 ADD SWAP2 POP PUSH1 0x20 DUP6 ADD SWAP5 POP PUSH1 0x20 DUP2 ADD SWAP1 POP PUSH2 0x230C JUMP JUMPDEST DUP7 DUP4 LT ISZERO PUSH2 0x234E JUMPI DUP5 DUP10 ADD MLOAD PUSH2 0x234A PUSH1 0x1F DUP10 AND DUP3 PUSH2 0x225D JUMP JUMPDEST DUP4 SSTORE POP JUMPDEST PUSH1 0x1 PUSH1 0x2 DUP9 MUL ADD DUP9 SSTORE POP POP POP JUMPDEST POP POP POP POP POP POP JUMP JUMPDEST PUSH0 PUSH1 0x80 DUP3 ADD SWAP1 POP PUSH2 0x2376 PUSH0 DUP4 ADD DUP8 PUSH2 0x1588 JUMP JUMPDEST DUP2 DUP2 SUB PUSH1 0x20 DUP4 ADD MSTORE PUSH2 0x2388 DUP2 DUP7 PUSH2 0x1550 JUMP JUMPDEST SWAP1 POP DUP2 DUP2 SUB PUSH1 0x40 DUP4 ADD MSTORE PUSH2 0x239C DUP2 DUP6 PUSH2 0x1550 JUMP JUMPDEST SWAP1 POP DUP2 DUP2 SUB PUSH1 0x60 DUP4 ADD MSTORE PUSH2 0x23B0 DUP2 DUP5 PUSH2 0x1550 JUMP JUMPDEST SWAP1 POP SWAP6 SWAP5 POP POP POP POP POP JUMP JUMPDEST PUSH0 PUSH2 0x23C5 DUP3 PUSH2 0x1462 JUMP JUMPDEST SWAP2 POP PUSH2 0x23D0 DUP4 PUSH2 0x1462 JUMP JUMPDEST SWAP3 POP DUP3 DUP3 SUB SWAP1 POP DUP2 DUP2 GT ISZERO PUSH2 0x23E8 JUMPI PUSH2 0x23E7 PUSH2 0x2083 JUMP JUMPDEST JUMPDEST SWAP3 SWAP2 POP POP JUMP JUMPDEST PUSH0 PUSH1 0x80 DUP3 ADD SWAP1 POP PUSH2 0x2401 PUSH0 DUP4 ADD DUP8 PUSH2 0x1588 JUMP JUMPDEST PUSH2 0x240E PUSH1 0x20 DUP4 ADD DUP7 PUSH2 0x1588 JUMP JUMPDEST DUP2 DUP2 SUB PUSH1 0x40 DUP4 ADD MSTORE PUSH2 0x2420 DUP2 DUP6 PUSH2 0x1550 JUMP JUMPDEST SWAP1 POP PUSH2 0x242F PUSH1 0x60 DUP4 ADD DUP5 PUSH2 0x1588 JUMP JUMPDEST SWAP6 SWAP5 POP POP POP POP POP JUMP JUMPDEST PUSH32 0x4E6F7420616E20617574686F72697A65642076616C696461746F720000000000 PUSH0 DUP3 ADD MSTORE POP JUMP JUMPDEST PUSH0 PUSH2 0x246C PUSH1 0x1B DUP4 PUSH2 0x1508 JUMP JUMPDEST SWAP2 POP PUSH2 0x2477 DUP3 PUSH2 0x2438 JUMP JUMPDEST PUSH1 0x20 DUP3 ADD SWAP1 POP SWAP2 SWAP1 POP JUMP JUMPDEST PUSH0 PUSH1 0x20 DUP3 ADD SWAP1 POP DUP2 DUP2 SUB PUSH0 DUP4 ADD MSTORE PUSH2 0x2499 DUP2 PUSH2 0x2460 JUMP JUMPDEST SWAP1 POP SWAP2 SWAP1 POP JUMP JUMPDEST PUSH0 PUSH1 0x60 DUP3 ADD SWAP1 POP PUSH2 0x24B3 PUSH0 DUP4 ADD DUP7 PUSH2 0x1588 JUMP JUMPDEST PUSH2 0x24C0 PUSH1 0x20 DUP4 ADD DUP6 PUSH2 0x1588 JUMP JUMPDEST DUP2 DUP2 SUB PUSH1 0x40 DUP4 ADD MSTORE PUSH2 0x24D2 DUP2 DUP5 PUSH2 0x1550 JUMP JUMPDEST SWAP1 POP SWAP5 SWAP4 POP POP POP POP JUMP INVALID LOG2 PUSH5 0x6970667358 0x22 SLT KECCAK256 JUMPDEST 0x5C 0x2D RETURNDATASIZE SWAP9 SWAP5 DIV EXP SWAP3 EXTCODEHASH SLT SWAP11 0xE1 0xF7 BALANCE MSTORE8 DIV REVERT 0x2A 0xE7 0xE0 0xEC LOG4 0xE8 0xC4 0xF7 0xDE 0xCF 0x2A 0xE1 0xBC 0xD0 PUSH5 0x736F6C6343 STOP ADDMOD EQ STOP CALLER "
				},
				"gasEstimates": {
					"creation": {
						"codeDepositCost": "1898000",
						"executionCost": "infinite",
						"totalCost": "infinite"
					},
					"external": {
						"addStage(uint256,string,uint256,string[])": "infinite",
						"agencyId()": "infinite",
						"closeProject(uint256)": "infinite",
						"createProject(string,string,string,string,string,uint256,uint256)": "infinite",
						"getAllProjectIds()": "infinite",
						"getProjectDetails(uint256)": "infinite",
						"getProjectWithStages(uint256)": "infinite",
						"getProjectsCount()": "2520",
						"processPendingPayments(uint256,uint256)": "infinite",
						"projectIds(uint256)": "infinite",
						"projects(uint256)": "infinite",
						"validateStage(uint256,uint256,string)": "infinite"
					}
				},
				"methodIdentifiers": {
					"addStage(uint256,string,uint256,string[])": "cce9889e",
					"agencyId()": "99e76d35",
					"closeProject(uint256)": "93dc12e6",
					"createProject(string,string,string,string,string,uint256,uint256)": "a7ee42de",
					"getAllProjectIds()": "4ac64766",
					"getProjectDetails(uint256)": "5f8439e3",
					"getProjectWithStages(uint256)": "8abb10c6",
					"getProjectsCount()": "e4a8f18b",
					"processPendingPayments(uint256,uint256)": "089cd025",
					"projectIds(uint256)": "48c35ad4",
					"projects(uint256)": "107046bd",
					"validateStage(uint256,uint256,string)": "f5c4b73e"
				}
			},
			"storageLayout": {
				"storage": [
					{
						"astId": 4,
						"contract": "smartContract_eliseu.sol:SmartPayConstruction",
						"label": "agencyId",
						"offset": 0,
						"slot": "0",
						"type": "t_string_storage"
					},
					{
						"astId": 7,
						"contract": "smartContract_eliseu.sol:SmartPayConstruction",
						"label": "numProjects",
						"offset": 0,
						"slot": "1",
						"type": "t_uint256"
					},
					{
						"astId": 54,
						"contract": "smartContract_eliseu.sol:SmartPayConstruction",
						"label": "projects",
						"offset": 0,
						"slot": "2",
						"type": "t_mapping(t_uint256,t_struct(Project)49_storage)"
					},
					{
						"astId": 57,
						"contract": "smartContract_eliseu.sol:SmartPayConstruction",
						"label": "projectIds",
						"offset": 0,
						"slot": "3",
						"type": "t_array(t_uint256)dyn_storage"
					}
				],
				"types": {
					"t_array(t_string_storage)dyn_storage": {
						"base": "t_string_storage",
						"encoding": "dynamic_array",
						"label": "string[]",
						"numberOfBytes": "32"
					},
					"t_array(t_struct(Stage)24_storage)dyn_storage": {
						"base": "t_struct(Stage)24_storage",
						"encoding": "dynamic_array",
						"label": "struct SmartPayConstruction.Stage[]",
						"numberOfBytes": "32"
					},
					"t_array(t_uint256)dyn_storage": {
						"base": "t_uint256",
						"encoding": "dynamic_array",
						"label": "uint256[]",
						"numberOfBytes": "32"
					},
					"t_bool": {
						"encoding": "inplace",
						"label": "bool",
						"numberOfBytes": "1"
					},
					"t_mapping(t_uint256,t_struct(Project)49_storage)": {
						"encoding": "mapping",
						"key": "t_uint256",
						"label": "mapping(uint256 => struct SmartPayConstruction.Project)",
						"numberOfBytes": "32",
						"value": "t_struct(Project)49_storage"
					},
					"t_string_storage": {
						"encoding": "bytes",
						"label": "string",
						"numberOfBytes": "32"
					},
					"t_struct(Project)49_storage": {
						"encoding": "inplace",
						"label": "struct SmartPayConstruction.Project",
						"members": [
							{
								"astId": 26,
								"contract": "smartContract_eliseu.sol:SmartPayConstruction",
								"label": "project_id",
								"offset": 0,
								"slot": "0",
								"type": "t_string_storage"
							},
							{
								"astId": 28,
								"contract": "smartContract_eliseu.sol:SmartPayConstruction",
								"label": "name",
								"offset": 0,
								"slot": "1",
								"type": "t_string_storage"
							},
							{
								"astId": 30,
								"contract": "smartContract_eliseu.sol:SmartPayConstruction",
								"label": "description",
								"offset": 0,
								"slot": "2",
								"type": "t_string_storage"
							},
							{
								"astId": 32,
								"contract": "smartContract_eliseu.sol:SmartPayConstruction",
								"label": "client_id",
								"offset": 0,
								"slot": "3",
								"type": "t_string_storage"
							},
							{
								"astId": 34,
								"contract": "smartContract_eliseu.sol:SmartPayConstruction",
								"label": "contractor",
								"offset": 0,
								"slot": "4",
								"type": "t_string_storage"
							},
							{
								"astId": 36,
								"contract": "smartContract_eliseu.sol:SmartPayConstruction",
								"label": "creationDate",
								"offset": 0,
								"slot": "5",
								"type": "t_uint256"
							},
							{
								"astId": 38,
								"contract": "smartContract_eliseu.sol:SmartPayConstruction",
								"label": "startDate",
								"offset": 0,
								"slot": "6",
								"type": "t_uint256"
							},
							{
								"astId": 40,
								"contract": "smartContract_eliseu.sol:SmartPayConstruction",
								"label": "endDate",
								"offset": 0,
								"slot": "7",
								"type": "t_uint256"
							},
							{
								"astId": 42,
								"contract": "smartContract_eliseu.sol:SmartPayConstruction",
								"label": "actualCompletionDate",
								"offset": 0,
								"slot": "8",
								"type": "t_uint256"
							},
							{
								"astId": 44,
								"contract": "smartContract_eliseu.sol:SmartPayConstruction",
								"label": "closed",
								"offset": 0,
								"slot": "9",
								"type": "t_bool"
							},
							{
								"astId": 48,
								"contract": "smartContract_eliseu.sol:SmartPayConstruction",
								"label": "stages",
								"offset": 0,
								"slot": "10",
								"type": "t_array(t_struct(Stage)24_storage)dyn_storage"
							}
						],
						"numberOfBytes": "352"
					},
					"t_struct(Stage)24_storage": {
						"encoding": "inplace",
						"label": "struct SmartPayConstruction.Stage",
						"members": [
							{
								"astId": 9,
								"contract": "smartContract_eliseu.sol:SmartPayConstruction",
								"label": "title",
								"offset": 0,
								"slot": "0",
								"type": "t_string_storage"
							},
							{
								"astId": 11,
								"contract": "smartContract_eliseu.sol:SmartPayConstruction",
								"label": "description",
								"offset": 0,
								"slot": "1",
								"type": "t_string_storage"
							},
							{
								"astId": 13,
								"contract": "smartContract_eliseu.sol:SmartPayConstruction",
								"label": "validation_steps",
								"offset": 0,
								"slot": "2",
								"type": "t_string_storage"
							},
							{
								"astId": 15,
								"contract": "smartContract_eliseu.sol:SmartPayConstruction",
								"label": "value",
								"offset": 0,
								"slot": "3",
								"type": "t_uint256"
							},
							{
								"astId": 18,
								"contract": "smartContract_eliseu.sol:SmartPayConstruction",
								"label": "validators_ids",
								"offset": 0,
								"slot": "4",
								"type": "t_array(t_string_storage)dyn_storage"
							},
							{
								"astId": 21,
								"contract": "smartContract_eliseu.sol:SmartPayConstruction",
								"label": "validations",
								"offset": 0,
								"slot": "5",
								"type": "t_array(t_string_storage)dyn_storage"
							},
							{
								"astId": 23,
								"contract": "smartContract_eliseu.sol:SmartPayConstruction",
								"label": "completed",
								"offset": 0,
								"slot": "6",
								"type": "t_bool"
							}
						],
						"numberOfBytes": "224"
					},
					"t_uint256": {
						"encoding": "inplace",
						"label": "uint256",
						"numberOfBytes": "32"
					}
				}
			},
			"userdoc": {
				"kind": "user",
				"methods": {},
				"version": 1
			}
		}
	}
}